:100000000C94F3030C943A040C943A040C943A04C0
:100010000C943A040C943A040C943A040C943A0468
:100020000C943A040C943A040C94742F0C944830B9
:100030000C94D3290C943A040C943A040C943A048A
:100040000C943A040C943A040C943A040C943A0438
:100050000C94CC200C942A2A0C943A040C943A0464
:100060000C943A040C943A040C943A040C943A0418
:100070000C943A040C943A040C943A040C943A0408
:100080000C943A040C943A040C943A040C943A04F8
:100090000C943A040C943A040C943A040C943A04E8
:1000A0000C943A040C943A040C943A0429001E006F
:1000B0001F0020002100220023002400250026002C
:1000C00027002D002E002A002B0014001A00080023
:1000D000150017001C0018000C00120013002F0060
:1000E00030003100015104001600070009000A0029
:1000F0000B000D000E000F00330034004C002800F0
:10010000E10031001D001B00060019000500110070
:100110001000360037003800E5004C00E000E30036
:10012000E20000002C0000002C0000002C00000069
:10013000E600E600E700E40001003A003B003C0076
:100140003D003E003F0040004100420043004400AB
:1001500045004C000100010001004B0001000100BE
:100160000100010052000100010001000100C05C1B
:10017000010001004A004E004D0001000100500046
:1001800051004F00010001002A00010001000100A0
:10019000AA00A800A90001000100AC00AE00AB005D
:1001A0000100010046000100010001000100000003
:1001B000010000000100000001000000010001003A
:1001C0000100010001000100010001000100010027
:1001D0000100010001000100010001000100010017
:1001E0000100010001000100010001000100010007
:1001F00001000100010001000100010001000100F7
:1002000001000100010001000100010001000100E6
:1002100001000100010001000100010001000100D6
:1002200001000100010001000100010001000100C6
:1002300001000100010001000100000001000000B8
:1002400001000000010000000100010001000100A8
:100250000100010001000100010001000100010096
:100260000100010001000100010001000100010086
:100270000100010001000100010001000100010076
:100280000100010001000100010001000100010066
:100290000100010001000100010001000100010056
:1002A0000100010001000100010001000100010046
:1002B0000100010001000100010001000100010036
:1002C0000100010001000000010000000100000029
:1002D0000100000001000100010001000000000019
:1002E000000000002A2B2800000000000000000091
:1002F0000000000000000029000000002C1E342037
:10030000212224342627252E362D3738271E1F205C
:100310002122232425263333362E37381F040506A1
:100320000708090A0B0C0D0E0F10111213141516E5
:100330001718191A1B1C1D2F3130232D35040506E3
:100340000708090A0B0C0D0E0F10111213141516C5
:100350001718191A1B1C1D2F3130354C00000000D6
:10036000000000000000000000000000000000008D
:10037000000000000000000000000000000000007D
:100380007E0F00D4FFFFFFC70000007800047F3F0E
:100390001F643214643214783C1E1E140A05222392
:1003A000252628292A2C2D2F3032333536383A3B52
:1003B0003D3E4042434547494A4C4E5051535557A4
:1003C000595A5C5E6062646668696B6D6F717375C3
:1003D00077797B7D7F81838587898A8C8E909294C3
:1003E00096989A9C9E9FA1A3A5A7A8AAACAEAFB1D0
:1003F000B3B4B6B8B9BBBCBEBFC1C2C3C5C6C7C91A
:10040000CACBCCCDCED0D1D2D2D3D4D5D6D7D7D8D3
:10041000D9D9DADADBDBDBDCDCDCDCDCDDDDDDDD25
:10042000DCDCDCDCDCDBDBDBDADAD9D9D8D7D7D62D
:10043000D5D4D3D2D2D1D0CECDCCCBCAC9C7C6C5E4
:10044000C3C2C1BFBEBCBBB9B8B6B4B3B1AFAEAC2A
:10045000AAA8A7A5A3A19F9E9C9A98969492908ED5
:100460008C8A89878583817F7D7B79777573716FAE
:100470006D6B6968666462605E5C5A59575553518A
:10048000504E4C4A4947454342403E3D3B3A383640
:10049000353332302F2D2C2A292826252322FFAA56
:1004A0007F55400000000000000000000000010136
:1004B0000203040506080A0C0F1114181C20242935
:1004C0002E33393F464C535B626A7179818A929A26
:1004D000A2AAB2B9C1C8CFD5DCE1E7EBF0F4F7FAD4
:1004E000FCFDFEFFFEFDFCFAF7F4F0EBE7E1DCD5E6
:1004F000CFC8C1B9B2AAA29A928A8179716A625BA5
:10050000534C463F39332E2924201C1814110F0C4C
:100510000A080605040302010100000000000000B3
:1005200000000000010101010101010101020202BC
:10053000020202020202030303030303030304048F
:100540000404040404050505050506060606060759
:100550000707070708080808090909090A0A0A0B12
:100560000B0B0C0C0C0D0D0D0E0E0E0F0F0F1010B3
:10057000111111121213131414151516161717183A
:100580001819191A1A1B1B1C1D1D1E1E1F202021A5
:100590002222232424252626272829292A2B2C2DEC
:1005A0002D2E2F30313232333435363738393A3B0D
:1005B0003C3D3E3F404142434445464748494A4C02
:1005C0004D4E4F50515354555658595A5B5D5E5FCE
:1005D000616264656668696B6C6D6F707273757764
:1005E000787A7B7D7E8082838587888A8C8E8F91C6
:1005F000939596989A9C9EA0A2A3A5A7A9ABADAFF0
:10060000B1B3B5B7BABCBEC0C2C4C6C9CBCDCFD1D9
:10061000D4D6D8DBDDDFE2E4E7E9EBEEF0F3F5F882
:10062000FAFDFF100350006F006C0061007200695A
:1006300000730000002603610069003000330020D1
:1006400000440065007300690067006E00200053DD
:100650000074007500640069006F00000004030965
:100660000409025B00030100A0FA09040000010371
:100670000101000921110100012240000705810349
:1006800008000A0904010002030000000921110109
:100690000001222200070582032000010705030351
:1006A00020000109040200010300000009211101DA
:1006B000000122B6000705840320000A120100028F
:1006C0000000000803A10200010001020001066011
:1006D000FF0961A1010962150026FF009520750838
:1006E00081020963150026FF00952075089102C05C
:1006F00005010902A10185020901A10005091901ED
:1007000029081500250195087501810205010930A8
:1007100009311581257F95027508810609381581F3
:10072000257F950175088106050C0A38021581257B
:100730007F950175088106C0C005010980A101856A
:100740000319012AB700150126B70095017510811C
:1007500000C0050C0901A101850419012AA0021598
:100760000126A002950175108100C005010906A1AE
:10077000018506050719E029E7150025019508758B
:100780000181020507190029EF1500250195F07573
:100790000181020508190129059505750191029548
:1007A0000175039101C005010906A101050719E0C2
:1007B00029E7150025019508750181029501750845
:1007C00081010507190029FF150026FF0095067510
:1007D0000881000508190129059505750191029503
:1007E0000175039101C011241FBECFEFDAE0DEBF17
:1007F000CDBF04B603FE27C0809116039091170366
:10080000A0911803B09119038730904BA740B04BCB
:10081000D1F410921603109217031092180310923D
:10082000190314BE84B7877F84BF0FB6F894A895C8
:1008300080916000886180936000109260000FBE1C
:10084000E0E0F8E3099511E0A0E0B1E0E2E2F7E6CC
:1008500002C005900D92A83DB107D9F723E0A8ED9D
:10086000B1E001C01D92A631B207E1F70E94D51494
:100870000C940E330C94000081E0089581E00895FB
:100880000C943E0408950C9442041F93CF93DF937D
:1008900000D000D00F92CDB7DEB749835A836B8367
:1008A0003091DA0189819A8131111DC06623B9F036
:1008B0002223A9F00E94EC0A182F682F89819A81BF
:1008C0000E94980A69817A81812F0F900F900F9072
:1008D0000F900F90DF91CF911F910C9499260E9459
:1008E000C40A182FEFCF0E94EC0A69817A81EDCFFC
:1008F000FC01262F408151816281738184810C9497
:10090000450481E00895CF93DF93EC0160E00E94FD
:100910007804BE01DF91CF910C944304E1E0F0E054
:10092000DF0102C0AA0FBB1F6A95E2F7BD01DF011C
:1009300002C0AA0FBB1F4A95E2F76A2B01C0EE0F57
:100940002A95EAF7962F9823961302C08E2B0895C6
:10095000E0958E230895242F462F682F8091F6016D
:100960000E948E040C94550A0E9457130E9421067F
:100970000E9450210C9472130C94751380E00E9415
:100980008B2080E00E9422060C947C1C0895089520
:100990000E94ED090E94C7042FEF84E39CE02150E0
:1009A00080409040E1F700C000000C944E2A0F9365
:1009B0001F93CF93DF938C0161E00E947804EC01D8
:1009C000B8010E94EA21882309F448C0B801CE0189
:1009D0000E944004882309F441C0B801CE010E945E
:1009E000D71F8823D9F1B801CE010E94FA278823A6
:1009F000A9F1B801CE010E947C23882379F1B801C6
:100A0000CE010E946427882349F1B801CE010E94DB
:100A1000FF1D882319F1F8018281882361F0CA350E
:100A2000FDE5DF0721F170F4C115ECE5DE07A1F06B
:100A3000CE3DDC45C9F0C801DF91CF911F910F91E8
:100A40000C943C04CB358DE5D807A1F0CC35DD45C1
:100A500091F70E94840FEFCF0E94C80480E0DF91DD
:100A6000CF911F910F9108950E943D10F7CF0E94E2
:100A70008D0FE1CF0E94900FDECF0C94C6040E9430
:100A80000C1F0E9456280E9422060E94481D0C94AA
:100A90003D05DF92EF92FF920F931F93CF93DF9369
:100AA000E82FF0E0E452FD4FD490282F26952695AC
:100AB000269530E0F901E458FC4F0491877010E06E
:100AC000082E02C0159507950A94E2F701701127C8
:100AD000F901E459FC4FE490F12C082E02C0F59482
:100AE000E7940A94E2F791E0E922FF24F901E45A3D
:100AF000FC4FC491D0E002C0D595C7958A95E2F726
:100B0000C170DD270115110519F081EE0E946D06F7
:100B1000E114F10419F086EE0E946D068D2D0E94FD
:100B20007107EF2819F086EE0E940407012B19F0D7
:100B300081EE0E940407CD2B51F08CE2DF91CF9122
:100B40001F910F91FF90EF90DF900C947107DF9150
:100B5000CF911F910F91FF90EF90DF900895EF924A
:100B6000FF920F931F93CF93DF93EC01162F0AE0B0
:100B70008881882309F454C0813009F04EC08981EE
:100B8000813099F47E0122E0E20EF11C8A810E94FC
:100B90007107E7012196812F815050F3EFE9FFE0C3
:100BA0003197F1F700C00000F7CF823041F47E01A9
:100BB00082E0E80EF11C8A810E946D06EACF833044
:100BC00041F47E01E2E0EE0EF11C8A810E940407EE
:100BD000E0CF843011F02196DDCF2A81229690E07B
:100BE00080E0AE014F5F5F4F2053330B2A30310559
:100BF00048F0019778F2EFE9FFE03197F1F700C094
:100C00000000F7CF089FB001099F700D1124C901A2
:100C1000860F971F2981EA01E4CF0E944905BACFC8
:100C2000DF91CF911F910F91FF90EF90089560E0B9
:100C30000C94AF0508950C941A0681E008950C9465
:100C40001D060895CF93C82F0E941B068C2FCF91AD
:100C50000C941F06CF93DF93CDB7DEB72B970FB65B
:100C6000F894DEBF0FBECDBF4F83588769877A8760
:100C70008B8761110E94D20E1E821D8285E0FE01CB
:100C80003796DE01119601900D928A95E1F78C81DD
:100C90009D81892B89F449815A816B817C818D8169
:100CA0009E810E94F30D2B960FB6F894DEBF0FBE07
:100CB000CDBFDF91CF91089589819A8189238F3F9C
:100CC00051F3CE0101960E9481048111E4CFEBCF54
:100CD000FC01808191810C94190BCF93C82F88233C
:100CE00009F490C08238C1F40E94562881FD8AC060
:100CF00089E30E948D0E0E94020F2FEF81EE94E097
:100D0000215080409040E1F700C0000089E30E943C
:100D1000940ECF910C94020F8338A1F40E945628B0
:100D200080FD70C083E50E948D0E0E94020F2FEFA0
:100D300081EE94E0215080409040E1F700C0000037
:100D400083E5E5CF8438A1F40E94562882FD5AC07D
:100D500087E40E948D0E0E94020F2FEF81EE94E037
:100D6000215080409040E1F700C0000087E4CFCFE1
:100D70008CEF8C0F813AB8F48C2F0E9413258111CF
:100D800041C06C2F80910201909103010E94CA28FA
:100D9000882329F08C2F0E94940E0E94020F8C2F22
:100DA0000E948D0EB6CF80E28C0F883048F4C77059
:100DB00081E001C0880FCA95EAF70E94B50EA9CF5D
:100DC000EBE5EC0FE33040F4F0E0E45AFE4F8081B5
:100DD00090E0CF910C948A28E8E5EC0FE73150F4CD
:100DE000F0E0EE0FFF1FE25DFE4F80819181CF9119
:100DF0000C94A028C03F30F08C2F0E946515CF9135
:100E00000C943816CF910895882309F452C0823883
:100E100071F40E94562881FF4CC089E30E948D0E18
:100E20000E94020F89E30E94940E0C94020F8338F3
:100E300059F40E94562880FF3CC083E50E948D0E25
:100E40000E94020F83E5EFCF843859F40E945628A0
:100E500082FF2FC087E40E948D0E0E94020F87E45C
:100E6000E2CF9CEF980F913AF0F290E2980F983011
:100E700050F4877091E001C0990F8A95EAF7892FA5
:100E80000E94BB0ED2CF9BE5980F933020F490E0E8
:100E900080E00C948A2898E5980F973120F490E030
:100EA00080E00C94A028803F20F00E94BF150C9495
:100EB000381608951F93CF93DF93182FEB010E94EC
:100EC0006D06209731F4812FDF91CF911F910C9403
:100ED00004078FE99FE00197F1F700C00000219718
:100EE000F0CF70E060E0893311F460E570E00C94BD
:100EF0005A07882321F00E94B50E0C94020F089522
:100F0000882321F00E94BB0E0C94020F0895BF921B
:100F1000CF92DF92EF92FF920F931F93CF93DF93C5
:100F20006C01D62FC72FFC011281F580F2949FE04F
:100F3000F9220E94AB0EE82E8823B9F0E12E11238E
:100F4000A1F08C2F807F803421F080E28D0F8830DB
:100F5000B0F08091C00282FD12C082E00E94530F67
:100F60000E94AB0E91E0E82EE926BC2EB2948FE0F1
:100F7000B822EB2DF0E0E05FFC4C0C946232E12CE7
:100F8000F4CF0C2F0F70C07F11F00295007F11235A
:100F900099F0002359F080E28D0F883010F0D111C4
:100FA00007C0802F0E94B50E0E94020F8D2F41C0F6
:100FB000802F0E94C50EF8CF8D2F0E9404070023BA
:100FC00009F43FC080E28D0F883010F0D11104C0C9
:100FD000802F0E94BB0E03C0802F0E94CB0E0E9468
:100FE000020F2FC00C2F0F70C07FC03211F002957E
:100FF000007FDD2381F0D13009F469C0112309F4A9
:1010000073C0FF2009F469C0F601858180FFCECF4F
:101010008F70858362C08091C00282FF38C0112327
:1010200059F0002329F0802F0E94B50E0E94020F74
:1010300080E00E946D0605C080E00E940407011157
:10104000C7CFEB2DE850FF0B349720F40E945628B1
:101050000E942206EE2009F45DC10E94A70E80FDC9
:1010600059C1F60112820E94A10E0E94660AC601B1
:101070000E94AB090E94A10EDF91CF911F910F91A9
:10108000FF90EF90DF90CF90BF900C94710A1123E6
:1010900089F0F11006C00E94E50E802B0E947907AE
:1010A000D0CFF1E0FF12F7CF0E94E50E802B0E9417
:1010B000EB0EC7CFF11006C00E94F80E802F0E94E1
:1010C0008007BFCF21E0F21609F4BBCFF5CF112383
:1010D00031F035E03F1508F4B4CF802FDFCF84E046
:1010E0008F1508F4AECFEACFFF2041F3D93349F48E
:1010F000FFEF27EE33E0F15020403040E1F700C031
:1011000000008D2F0E9404079CCF8C2F869586951A
:10111000837069F0813009F094CF8D2F9C2F9370EC
:10112000111102C090E080E00E94A0288ACF8D2F8C
:101130009C2F9370111102C090E080E00E948A28D9
:1011400080CF8D2F112329F00E9465150E9438163B
:1011500078CF0E94BF15FACF8C2F837079F51111CB
:1011600070CF4D2F429546954770440F440F8D2FF9
:101170008F70042E01C0880F0A94EAF72D2F20717A
:10118000D4FF07C02FE030E001C0220F4A95EAF7F4
:101190002095C695C695C370822BC23049F058F48D
:1011A000C13019F00E94470A4CCF0E94420A49CF31
:1011B0000E944C0A46CF0E94400A43CF86951123D5
:1011C00011F08C2F8170882309F43BCF4D2F42956D
:1011D00046954770440F440F8D2F8F70042E01C029
:1011E000880F0A94EAF72D2F2071D4FF07C02FE053
:1011F00030E001C0220F4A95EAF72095C695C695C2
:10120000C370822BC23049F058F4C13019F00E94EB
:101210008D0A17CF0E94880A14CF0E94920A11CF1C
:101220000E94550A0ECFCF70112329F08C2F0E94F7
:10123000660A8D2F33CF8D2F0E9480078C2F0E943E
:10124000710AFFCED23F51F160F4D03FB9F0D13FE7
:1012500081F0112309F449C0F110A8CE8C2F8F71B1
:1012600021C0D33F11F1D43FA1F78091C00282FF8A
:1012700026C08C2F8F71112311F314C0112349F054
:1012800084E08F1508F4DDCE8C2F8F710E947D0ACB
:10129000D8CE95E09F1508F4D4CEF6CF8C2F8F7161
:1012A0001111CDCF0E94660ACCCE112329F08C2FCC
:1012B0008F710E945E0AC5CE0E945B0AC2CE1123C6
:1012C00049F0CF718C2F0E94660A63E08C2F0E9438
:1012D000380FB7CE81E00E94530FE1E0EF1508F020
:1012E000B0CE82E00E94530FACCEF110FFCE8C2F17
:1012F0008F71A5CF4C2F4F706D2FC6010E944011EA
:101300000E94470B9ECE4C2F4F706D2FC6010E943E
:10131000431197CEDF91CF911F910F91FF90EF90E6
:10132000DF90CF90BF9008950F931F93CF93DF93DB
:10133000EC01688179818A810E94230B8C010E94D3
:10134000970A0E943F0AB801CE01DF91CF911F9109
:101350000F910C948707CF93DF93EC018B819C81D5
:10136000892B29F08881998189238F3F59F4DF9156
:10137000CF910895CE010E949409CE01DF91CF91C3
:101380000C948304CE010E94D7048111F3CF0E94F4
:10139000AB0E882361F38A81882349F38091C002D0
:1013A00082FDE5CF82E0DF91CF910C94530F90E066
:1013B00080E00E948A2890E080E00E94A0280E949D
:1013C000D20E0E94E20E0E94020F0E945F170C9440
:1013D00038160E949B0E0C94D7090E94C20E0C94E2
:1013E000E909E92FE295EF70E250EE3070F4F0E099
:1013F000E05EFC4C0C946232803F19F020F4883E91
:1014000020F481E00895843FE1F380E00895883E70
:10141000C0F3813FD1F7F5CF93FB882780F908957A
:10142000FC01808191810E94190B0C94F109CF93EA
:10143000DF9300D000D00F92CDB7DEB70F900F90A2
:101440000F900F900F90DF91CF910895CF93DF937E
:1014500000D000D000D0CDB7DEB726960FB6F894F6
:10146000DEBF0FBECDBFDF91CF91089508950C94DC
:10147000360A0E94370A8093F7010C94D709089521
:101480000C94390A9091F701892B0C94390A9091A8
:10149000F70189230C94390A9091F70189270C945C
:1014A000390A0C94360A0C94510A0E94530A80930C
:1014B000F6010C94D70980E00C94550A91E001C024
:1014C000990F8A95EAF7892F0C94550A21E030E0AC
:1014D00001C0220F8A95EAF78091F601822B0C94C5
:1014E000550A21E030E001C0220F8A95EAF72095E5
:1014F0008091F60182230C94550A21E030E001C06E
:10150000220F8A95EAF78091F60182270C94550AFA
:101510009091F601892B0C94550A9091F60189233C
:101520000C94550A9091F60189270C94550A089558
:101530002EE0929F800D1124982F977041E001C0FA
:10154000440F9A95EAF786958695869593E0899F4C
:10155000F0011124E552FE4F90E080E070E05191DF
:10156000DF0111979B01082E02C0369527950A943A
:10157000E2F7217021952527242325272C93019616
:101580008330910561F708952EE0929F800D11241C
:10159000982F977086958695869523E0829FF00117
:1015A0001124E552FE4F50E040E080E0219130E010
:1015B000092E02C0369527950A94E2F72170332749
:1015C000042E01C0220F0A94EAF7822B4F5F5F4F6F
:1015D0004330510559F70895CF92DF92FF920F9350
:1015E0001F93CF93DF936C010091F6018091F70177
:1015F000082BC7E0D0E010E0FC2EC8010C2E02C082
:10160000959587950A94E2F780FD0CC02197A0F785
:10161000F12C8F2DDF91CF911F910F91FF90DF90D3
:10162000CF900895B6018C2F0E945F12019771F33D
:10163000F0CFCF93DF93EC010E94EC0ABE01DF9163
:10164000CF910C945F121F93CF93DF93EB01909196
:10165000DA01992331F0CB01DF91CF911F910C94E6
:10166000190B882379F0CB010E94EC0A182F682F00
:10167000CE010E94980ABE01812FDF91CF911F9168
:101680000C945F12CB010E94C40A182FF4CFEF9282
:10169000FF920F931F93CF93DF938C01892B81F0DF
:1016A000F12CEE24E394E8012196F801849184372B
:1016B00070F4843008F05FC08130B1F08230A1F165
:1016C000DF91CF911F910F91FF90EF900895853793
:1016D00009F44CC008F43DC09CE7980F903780F7A0
:1016E0008F770E94040749C00E5F1F4FFE0184914F
:1016F00090E2980F983060F48770FE2D01C0FF0FC4
:101700008A95EAF78F2F0E94D50E0E94020F02C021
:101710000E946D068F2D815030F2EFE9FFE0319786
:10172000F1F700C00000F7CF0E5F1F4FFE0184915C
:1017300090E2980F983050F48770FE2D01C0FF0F93
:101740008A95EAF78F2F0E94DB0EDFCF0E940407F5
:10175000E1CF0E5F1F4FFE01C491C150D8F28FE957
:101760009FE00197F1F700C00000F7CF0E5F1F4F19
:10177000FE01F490CFCF0E946D068E01CBCF1F9358
:10178000CF93DF93C091F80116E08091F9018C139B
:1017900004C0DF91CF911F910895D0E01C9FF0010C
:1017A0001D9FF00D1124E650FE4F40815181628152
:1017B0007381848195810E94260A2196C770E5CFA6
:1017C00040912A0250912B0260912C0270912D02BF
:1017D00080912E0290912F020C94260AFF920F9373
:1017E0001F93CF93DF9380912F02807FD1F480915C
:1017F0002C028823B1F08091F8011091F9016091D9
:101800002A0270912B02A0912D02B0912E02062F78
:101810000723C0910001D091010196E0F92E181321
:1018200006C0DF91CF911F910F91FF90089590E036
:10183000109711F00F3F19F401968770F0CFF89EC2
:101840009001F99E300D1124F901E650FE4F4181BF
:101850004713F2CF40814613EFCF42814111ECCFC5
:10186000438154814A1B5B0B4C175D0728F780911D
:101870002F028F70806180932F02F901E150FE4F9B
:1018800080818F70806180838AE292E00E94AB0940
:10189000DF91CF911F910F91FF900C94BF0BAF92EE
:1018A000BF92CF92DF92EF92FF920F931F93CF934D
:1018B000DF93CDB7DEB761970FB6F894DEBF0FBEEA
:1018C000CDBF8C0185E0F801DE011D9601900D92DF
:1018D0008A95E1F7F801E2808AE2C82E82E0D82EEC
:1018E00060912D0270912E026115710509F45FC19E
:1018F00090912A0220912B02892F82238F3F09F495
:1019000056C140815181A380B480F0902C02F50132
:10191000E61BF70BBF01E0910001F0910101FF20F0
:1019200009F4F6C080912F02382F307F6E177F07A1
:1019300008F0AFC0311179C0FE2C251323C09413D9
:1019400021C0E1101FC08F70806180932F020E9420
:10195000E00BC6010E94AB0980912F02F80185833C
:101960008F2D61960FB6F894DEBF0FBECDBFDF910D
:10197000CF911F910F91FF90EF90DF90CF90BF908C
:10198000AF900895AB2829F0842F85238F3F09F06D
:1019900027C180E0F82FF170DF2E80FF3CC08091DE
:1019A000F8012091F90136E0821315C04D875E875A
:1019B0008D859E850E94190B292F22952F7022302C
:1019C000F0F0243018F59F70F1F0F8019581907FC8
:1019D000D1F4D12C1EC090E0389FF001399FF00D5A
:1019E0001124E650FE4F6181651306C060816413C7
:1019F00003C062816E110FC001968770D5CF9F70B2
:101A000011F0882331F3805E883018F3C8010E94FA
:101A1000AB09FD2CA5CFEE2009F4A2CF80912F02B7
:101A2000816080932F02F12C9BCF251306C0941365
:101A300004C0F801EE2009F487C0C8010E94100A12
:101A4000882319F1EE2009F180912F02803270F085
:101A500020912A0230912B0238872F831986BB866A
:101A6000AA868C87CE0107960E94AB0986E0F80112
:101A7000AAE2B2E001900D928A95E1F70E94EE0B86
:101A80000E94E00BFF24F3946BCFC8010E94AB09C6
:101A9000F9CF311113C07A2DB98AA88A6E2D8989A0
:101AA0000E94170A8AE292E00E94AB0986E0F601E2
:101AB00011928A95E9F70E94E00BB5CF25130FC06C
:101AC00094130DC0E1100BC0F8018583C8010E947A
:101AD000AB0986E0F60111928A95E9F741CFC8017A
:101AE0000E94100A882389F2EE2079F280912F0259
:101AF000803208F4BBCF20912A0230912B023A8326
:101B000029831B82BD82AC828E83CE010196ACCF2D
:101B10006E177F0708F03EC0FE2CEE2009F4B5CF0B
:101B200025132AC0941328C080912F0280FD1BC06A
:101B3000982F907FC1F0F8018583903F31F0982F66
:101B4000907F905F8F70892B8583C8010E94AB09BD
:101B500086E0F801AAE2B2E001900D928A95E1F7E1
:101B60000E94E00BFDCE86E0F801AAE2B2E001900F
:101B70000D928A95E1F7F4CEC8010E94100A8111F6
:101B800075CF80912F02816080932F02C8010E943F
:101B9000AB09E6CE7A2DB98AA88A6E2D89890E9472
:101BA000170A86E0F60111928A95E9F7D9CFEE205F
:101BB00009F46BCFC8010E94100AF82E882309F49B
:101BC00064CF86E0F801AAE2B2E001900D928A9516
:101BD000E1F78AE292E00E9468060E94EE0BC0CF15
:101BE00081E08E25D7CE1F93CF93DF93CDB7DEB79D
:101BF0002C970FB6F894DEBF0FBECDBF4F8358872A
:101C000069877A878B879C87CE0107960E944F0C45
:101C1000882369F08A859B85892B39F04F81588507
:101C2000842F85238F3F09F071C016E05FC086E0E6
:101C3000FE013796DE01119601900D928A95E1F72B
:101C40008A859B85892B89F388859F8189238F3F8E
:101C500061F32091F90130E0C9010196877099275D
:101C60004091F8014817190671F40E94ED0910928D
:101C7000F9011092F80186E0EAE2F2E0DF011D923C
:101C80008A95E9F7D2CF96E0929FD001939FB00D4D
:101C90001124A650BE4FFE01319601900D929A95E7
:101CA000E1F78093F9010E94BF0BBFCF819FC00174
:101CB000112486509E4F0E944F0C8823E9F0E0913A
:101CC000F8011E9FF0011124E650FE4F4081518122
:101CD00062817381848195810E94260A8091F80136
:101CE00090E00196877099278093F8018091F80120
:101CF0009091F9018913DACF2C960FB6F894DEBFD4
:101D00000FBECDBFDF91CF911F91089569857A8570
:101D10008B859C850E94260A88CF682F80910201BE
:101D2000909103010C944A29682F809102019091AF
:101D300003010C94552980910201909103010C94A8
:101D400060298091300285958595859508958091CB
:101D500030028770089590913002977081E009F405
:101D600080E0089580915402089590915402892B47
:101D700080935402089580959091540298239093F3
:101D80005402089510925402089590915302892BA1
:101D900080935302089580959091530298239093D5
:101DA0005302089510925302089590915202892B84
:101DB00080935202089580959091520298239093B7
:101DC00052020895109252020895809131020895AE
:101DD00008950C94E80E9091C00292FD08C0909175
:101DE0003102981721F0809331020C94E90E089586
:101DF00080913102882329F01092310280E00C9406
:101E0000E90E0895E0910201F091030180915402DE
:101E10008083E0910201F09103018081909153024F
:101E2000892B8083E0910201F091030180819091E0
:101E30005202892B808390913102992381F0E091A5
:101E40000201F09103018081892B8083809102013E
:101E5000909103010E94B62881110E94F80E809192
:101E60000201909103010C94622808950C94350F9F
:101E70009091C00292FD10C098E0899F90011124BA
:101E8000622B609330020E94660A80913002859531
:101E9000859585950C94360F0C94660A1092300245
:101EA00080E00C94360F90913002809589238093C6
:101EB0003002282F277091F4282F082E000C330BA6
:101EC0009217130659F09091C00292FD07C08595B4
:101ED000859585950E94710A0C944E0F08959091F6
:101EE000C00292FB222720F9281769F080FB92F9A3
:101EF0009093C0028091BF029091C0020E94BA0FDD
:101F000082E00C94530F08958091C00282FB8827D1
:101F100080F991E089270C946F0F81E00C946F0F8A
:101F200080E00C946F0F6FEF7FEF90E080E00C94F7
:101F3000F83290E080E00E94D432893E9E4F11F446
:101F40000C94922180E0089582E090E00C94C632D7
:101F500083E090E00C94C632CF9384E090E00E943E
:101F6000C632C82F82E290E00E94C632982F8C2F92
:101F7000CF910895CF93C92F682F84E090E00E94FD
:101F8000DA326C2F82E290E0CF910C94DA32AB011E
:101F9000BC018FE090E00C94EC32AB01BC0183E11A
:101FA00090E00C94EC3260E070E0CB010C94CD0F2B
:101FB00060E070E0CB010E94C70F0C94D30F69EE74
:101FC0007EEF90E080E00E94F83260E082E090E0F6
:101FD0000E94DA3260E083E090E00E94DA321092F0
:101FE000F70160E084E090E00E94DA3260E082E293
:101FF00090E00E94DA3260E085E090E00E94DA3200
:1020000060E086E090E00E94DA326FEF87E090E0D7
:102010000E94DA3240E050E0BA0188E090E00E948D
:10202000EC3260E08DE090E00E94DA3240E050E077
:10203000BA0188E190E00E94EC3260E087E190E034
:102040000E94DA3240E050E0BA018CE190E00E9458
:10205000EC3270E060E080E290E00E94F83240E014
:1020600050E0BA0188E190E00E94EC3280E00E94EA
:10207000AB210E94D2210C94D80F0C94DF0F682F53
:102080008EE090E00C94DA320E940F2A6093640292
:10209000709365028093660290936702609360027A
:1020A000709361028093620290936302089585B7F2
:1020B000806885BF85B7806885BF089508950895B5
:1020C0000C945E1008950C9462100E9457108DE3DA
:1020D00093E10E944C280E945F100C94601081E0F4
:1020E00008950C946F10089508950E9473100C9435
:1020F00074100E94FA290E94E1210E942F140E946C
:102100000C1F0E940D1D0C9463106F927F928F9292
:102110009F92AF92BF92CF92DF92EF92FF920F9376
:102120001F93CF93DF93CDB7DEB72A970FB6F894FE
:10213000DEBF0FBECDBF0E94441481110E94441027
:1021400036E5832E32E0932E10E000E0A02E802FA3
:102150000E9477136C01F401619071904F01681631
:10216000790609F461C08091680281FD0E948013A4
:10217000B12CEE24E394F12C6C247D24C3018E2138
:102180009F21892B09F44AC00E9471108823A9F06D
:10219000BE82AF82CE20DF2081E0CD2809F480E02E
:1021A00088870E94032A8160782F9A8789874E81C9
:1021B0005F8168858A850E942A06000F111FF80139
:1021C000EA5AFD4F80819181E826F926F182E0826A
:1021D0000E94511D0E94B6200E9453160E9456284C
:1021E000909155028917B9F10E94562880935502A3
:1021F0002A960FB6F894DEBF0FBECDBFDF91CF9108
:102200001F910F91FF90EF90DF90CF90BF90AF9014
:102210009F908F907F906F900C942206B394EE0C59
:10222000FF1CFEE0BF12AACF0F5F1F4F0530110544
:1022300009F08CCF8FEF89838A831B820E94032A47
:102240008160782F9D838C8349815A816B818D8138
:102250000E942A06BDCF2A960FB6F894DEBF0FBEA5
:10226000CDBFDF91CF911F910F91FF90EF90DF9045
:10227000CF90BF90AF909F908F907F906F90089578
:1022800090E080E008950895FC01EE0FFF1FE457F1
:10229000FC4F859194910895CF93DF930E94631230
:1022A000EC01811520E5920708F042C0811530E469
:1022B000930708F0BDC0883E910528F5803E910542
:1022C00008F09DC0883A910588F4853A910508F098
:1022D0008FC08130910509F492C0009709F48FC036
:1022E000049708F08CC0D0E0C0E089C08F3B910516
:1022F00008F489C0805C9109C03CD105A0F30E941C
:102300004411EC017CC08115904250F4C11581E06C
:10231000D80708F074C0C03FD10528F3D0656FC05E
:10232000C11590E3D90708F079C0CE019F70E7CFBF
:10233000811525E5920758F5811534E5930708F0D6
:10234000A6C0811542E5940750F4C11581E5D80770
:1023500008F471C0DC2FCC27C16FD06A50C0982F11
:10236000969596959E0123703327C115D34508F0A5
:102370007FC0C1E0D0E002C0CC0FDD1F2A95E2F79C
:1023800020E2929FC0011124C82BD92B6FC0C11528
:1023900089E5D807A8F4C11598E5D90708F07CC0ED
:1023A000C11526E5D20708F09ECF8C2F0E94FA12A5
:1023B000C82FD0E0DC2FCC27CC27DF71D0621FC024
:1023C000C1153AE5D30708F46CC0CE0190568115CB
:1023D000904208F088CF8D2F8F710E94FA1290E002
:1023E000982F882788279F719C012C2BE901E6CF25
:1023F000C55AD0E0C357DE4FC881D0E0D064CE01CB
:10240000DF91CF910895C85AD0E0CC0FDD1FC15A9B
:10241000DE4F0990D881C02DD464F1CFCE01992729
:10242000D3FF03C0EC01D86CEACFEC01D06CE7CF4E
:10243000DF70D06AE4CFCE01E4E096958795EA9507
:10244000E1F783702C2F26952695237090E2299F23
:1024500090011124382B8C2F8370C1E0D0E002C092
:10246000CC0FDD1F8A95E2F7C22BD32BDC68C7CFD8
:10247000C1E0D0E002C0CC0FDD1F2A95E2F730E2C8
:10248000939FC0011124C82BD92BDA68B8CFD82F5D
:10249000CC27C46FD06AB3CFDC2FCC27C06FD06AF3
:1024A000AECF8C2F8F700E94FA1234E0D695C7956C
:1024B0003A95E1F7CF709C2FEC01D069A0CF0E9434
:1024C00099260C944C1182389105B1F1B0F4813306
:1024D000910509F475C048F48932910509F469C081
:1024E0008A32910509F473C008958533910509F482
:1024F00059C08933910501F10895833E9105A9F1F1
:1025000038F4803E9105F9F0823E910549F1089535
:10251000863E9105A9F1873E9105C9F1843E91055A
:1025200019F52091C00221FF1FC08091BF0284FDD8
:1025300014C087EE90E008952091BF022370A1F0AF
:1025400080EE90E008952091BF0220FD47C03091B9
:10255000C00230FF09C024FF44C090E080E004C006
:102560002091BF0222FDF7CF08952091BF0222FDE6
:102570003BC03091C00230FDE3CF24FFF5CFEDCF5B
:102580002091BF0223FFF0CF24FDE7CFD2CF2091CF
:10259000BF0223FD2CC03091C00231FFEECF84EE8C
:1025A00090E008952091BF0225FFDECF89E290E000
:1025B00008952091BF0225FFD7CF85E390E00895CD
:1025C0002091BF0226FFD0CF8AE290E008952091AB
:1025D000BF0226FFC9CF81E390E0089589E390E030
:1025E000089583EE90E0089582EE90E0089586EEDF
:1025F00090E008959091BF0292FF06C0282F2871A5
:102600002830F9F4877F846093FF06C0282F287153
:102610002831F1F4877E84612091C00220FF06C03A
:10262000382F38713830D9F4877F816021FF06C098
:10263000282F28712831D1F4877E816194FD877E0F
:102640000895282F24712430F9F68B7F8860DCCF21
:10265000282F2471243101F78B7E8861DDCF382F3C
:102660003171313019F78E7F8860E0CF282F2171CA
:10267000213121F78E7E8861E1CF80E008950C94AE
:10268000930F0E9444148FE39CE90197F1F700C077
:1026900000000E94441480E00E94771380FF04C071
:1026A0000E943F130C944E2A08950C9441130E94EB
:1026B000990F811102C00E943D100E94A40F8093C7
:1026C00068020E94AC0F9093C0028093BF020E94E8
:1026D00055130E94A80F0E94400A8091F6010C94A5
:1026E000530A08950C94711308950C947413E82FF1
:1026F000F0E0EE0FFF1FE553FD4F808191810895BB
:10270000089580EA8A95F1F7089500C008950C9421
:102710008113F894E82FE295EF70F0E031A1282FB3
:102720002F7081E090E001C0880F2A95EAF7982F7A
:102730009095932391A392A1892B82A378940895D5
:102740000F931F93CF93DF93CEE9D1E089918F3F11
:1027500011F00E94891381E0C33AD807B9F7C0E9A4
:10276000D1E00EE911E089918F3F11F00E948913A9
:102770000C171D07C1F7DF91CF911F910F9108959D
:10278000AF92BF92DF92EF92FF920F931F93CF937E
:10279000DF938C01D62EC62FD0E0CE0182569E4FFD
:1027A0007C01FC0120812F3F09F44CC0F894E22FFA
:1027B000E295EF70F0E031A12F7081E090E001C070
:1027C000880F2A95EAF7932F982B91A392A18095D1
:1027D000892382A378940E948513E0E9F1E041E027
:1027E00050E0B12CA12C21912F3FB1F1A22FA29545
:1027F000AF70B0E090968C9190E02F7002C09595EC
:1028000087952A95E2F780FD27C0CA01A82AB92A30
:10281000440F551F81E0EE39F80729F7F701808151
:102820008F3F11F00E94891361E0A114B10409F4F3
:1028300060E08D2D0E948713CC0FDD1FC00FD11FCC
:10284000B982A882DF91CF911F910F91FF90EF90F5
:10285000DF90BF90AF90089590E080E0D7CF0E94C6
:10286000A0138AE0EBECF2E0DF01982F1D929A951D
:10287000E9F7E1ECF2E0DF011D928A95E9F785E0E6
:102880000E948F140C94B404FF920F931F93CF9364
:10289000DF93CDB7DEB72A970FB6F894DEBF0FBE31
:1028A000CDBF8E010F5F1F4F8AE0F80111928A950C
:1028B000E9F7F12C6F2DC8010E94C013F394F5E0E5
:1028C000FF12F8CF4AE050E0B80181EC92E00E949C
:1028D000B932FF24F394009709F4F12C892B41F0CD
:1028E0008AE0F801A1ECB2E001900D928A95E1F73F
:1028F0002F2D45E06BEC72E081EC92E00E94901489
:102900000E94BC048F2D2A960FB6F894DEBF0FBE2E
:10291000CDBFDF91CF911F910F91FF900895089542
:10292000FF920F931F93CF93DF93F82E092F162F4B
:10293000D72FC42F222349F081E080936B020E949D
:10294000032A90936A028093690280916B02882324
:10295000A1F08091690290916A020E941B2A05975A
:1029600060F0EF2DF02FA12FBD2F90E080E0D0E0A0
:102970008C179D0744F010926B02DF91CF911F914D
:102980000F91FF900895219131912D933D930196E0
:10299000EFCF0E94492C0E9479100C94552C0E9474
:1029A000592C0E9485100C94732C0E948C290E9433
:1029B000302C0E9465100E94C9140E94CF140E94FE
:1029C0007510FBCF8091720280FF12C060910901E7
:1029D00085E0689FB0011124759567957595679599
:1029E00060387105A8F561157105A1F1862F08956C
:1029F00081FF09C06091090185E0689FB001112441
:102A000075956795EDCF6091090182FD0AC08091AF
:102A100071028823D1F09091080160910901891712
:102A200028F085E0689FB0011124DACF869FB001BD
:102A3000112485E0869F9001879F300D1124692F16
:102A400070E0C9010E942C32CBCF65E070E0CECFA0
:102A50008FE7089581E008958091720280FF0CC095
:102A60006091050170E0759567957595679561159D
:102A7000710549F1862F089581FF06C06091050117
:102A800070E075956795F3CF6091050182FD0BC0ED
:102A9000909170029923A1F0609104018091050149
:102AA000961738F0682F70E06038710500F38FE7F3
:102AB0000895899FC001112470E00E942C32F4CF48
:102AC00061E070E0D7CF81E00895803F31F40E944B
:102AD000E2148195809376020895813F19F40E9453
:102AE000E214F8CF823F31F40E94E2148195809382
:102AF00075020895833F19F40E94E214F8CF893FCC
:102B000029F40E942C158093770208958A3F21F4BE
:102B10000E942C158195F7CF8B3F31F40E942C1524
:102B200081958093780208958C3F19F40E942C15AA
:102B3000F8CF9CE0980F953070F4845F990B21E0FA
:102B400030E001C0220F8A95EAF780917402822B4F
:102B50008093740208958D3F31F4809172028160F8
:102B60008093720208958E3F21F4809172028260F8
:102B7000F7CF8F3FB9F7809172028460F1CF409117
:102B80007502803F59F48091760287FF0DC0109244
:102B9000760241110BC01092710208C0813F81F48E
:102BA0008091760218169CF3442381F0809177027D
:102BB00090917802892B09F05AC010927002089502
:102BC000823F49F447FFF0CF109275028091760260
:102BD0008111ECCFE0CF833F19F41416ACF3E4CFAE
:102BE00090917702893F29F41916F4F61092770232
:102BF000DBCF8A3F19F497FFD7CFF8CF90917802B7
:102C00008B3F29F497FFD0CF10927802CDCF8C3F25
:102C100019F41916CCF3C8CF9CE0980F953090F4B6
:102C2000845F990B21E030E0B90102C0660F771F85
:102C30008A95E2F7CB018095909174028923809365
:102C40007402B2CF8D3F31F4809172028E7F8093F7
:102C50007202AACF8E3F21F4809172028D7FF7CF4E
:102C60008F3F09F0A1CF809172028B7FF0CF089542
:102C70000E94032A9C019091750280917602982B04
:102C800021F030936F0220936E0290917702809131
:102C90007802982B21F030936D0220936C0283E729
:102CA00092E00C947C28EF92FF920F931F93CF93A6
:102CB000DF9300D000D000D0CDB7DEB786E0E3E7E9
:102CC000F2E0DE01119601900D928A95E1F7E09015
:102CD0007502F090760200917702109178021092BE
:102CE00075021092760210927702109278028E2D61
:102CF0008F2991F080916E0290916F020E941B2AA1
:102D0000AC0190917102992309F43FC080910A01AE
:102D10008417150608F447C0802F812B91F080910D
:102D20006C0290916D020E941B2AAC01909170027E
:102D3000992309F477C0809106018417150608F4D9
:102D40007FC08091750290917602892B90917702D5
:102D5000892B90917802892B11F00E94381686E019
:102D6000FE013196A3E7B2E001900D928A95E1F75A
:102D700026960FB6F894DEBF0FBECDBFDF91CF9180
:102D80001F910F91FF90EF90089520910B018AE021
:102D9000289F900111242417350708F0BDCF9F5FAD
:102DA0009093710202C09F3FD1F7EE2059F00E942C
:102DB000E2149FEF1E140CF491E0899F802D1124E2
:102DC00080937502FF2059F00E94E2149FEF1F14B8
:102DD0000CF491E0899F802D11248093760230912C
:102DE0007502332309F498CF20917602222309F447
:102DF00093CF45EB3403C0011124992359F09093EC
:102E0000750245EB240390011124332339F03093EC
:102E1000760282CF81E080937502F3CF81E08093C8
:102E200076027ACF209107018AE0289F9001112431
:102E30002417350708F085CF9F5F9093700202C07A
:102E40009F3FD1F7002359F00E942C159FEF1016D9
:102E50000CF491E0899F802D112480937702112337
:102E600059F00E942C159FEF11160CF491E0899FE8
:102E7000802D11248093780230917702332309F456
:102E800060CF20917802222309F45BCF45EB340315
:102E9000C0011124992359F09093770245EB240344
:102EA00090011124332339F0309378024ACF81E026
:102EB00080937702F3CF81E08093780242CF86E05F
:102EC000E3E7F2E0DF011D928A95E9F710927102C3
:102ED00010927002109272020895EF92FF920F9377
:102EE0001F93CF93DF93EB01E82FD11110C0442340
:102EF00021F0F0E0ED5DFA4FE4916E2F7E2F8E2FE2
:102F0000DF91CF911F910F91FF90EF9008950D2FBA
:102F100010E0282F30E0442329F02D5D3A4FF901CD
:102F2000249130E0F6E0CF9FC0011124EFEFF0E0F4
:102F3000BF010E941832AB018C2F90E0880F991FBF
:102F4000A5E5A49FB001A59F700D1124861B970BCA
:102F5000982F990F980FBF01601B710B629FD001D2
:102F6000639FB00D729FB00D11248B2F9D9FB001F8
:102F70001124672F7727EF01C61BD70BBE01629F75
:102F8000E001639FD00D729FD00D11247F01E91ADB
:102F9000F108E09EB001E19E700DF09E700D1124CD
:102FA000672F7727E61BF70BE29F8001E39F100D49
:102FB000F29F100D1124E12F722F4230510599F02C
:102FC00048F44115510569F04130510581F0EB2F6E
:102FD0008D2F07C04430510569F080F0463051050F
:102FE000B1F76E2F8DCFE22F7B2F812FFACFE22FFB
:102FF0007D2FF7CFEB2F822F712FF3CF7B2F822FD7
:10300000ED2FEFCF41E00C946D1708950C9402184A
:10301000CF93DF93762FE901682F842F0E94061843
:10302000798368838A83DF91CF910895493C08F0C2
:1030300048EC0C9408188091D502982F9E7F61F47B
:10304000817082608093D5028091D802893C18F00B
:1030500088EC8093D80208958A34B0F38170886434
:10306000F1CF88E090E00C94CE32CF92DF92EF92D5
:10307000FF926B017C010E941B18B701A60188E03A
:1030800090E0FF90EF90DF90CF900C94EC32609145
:10309000D5027091D6028091D7029091D8020C94FB
:1030A0003518E5EDF2E083E0808311828FEF8283B3
:1030B00088EC8383148260817181828193810C9476
:1030C00035188091D50280FF02C08695089580E072
:1030D00008959091D902933018F49F5F9093D9028C
:1030E000882351F06091D5027091D6028091D70269
:1030F0009091D8020C943518089581E00C946918C9
:103100009091D902992319F091509093D902882374
:1031100051F06091D5027091D6028091D7029091C2
:10312000D8020C943518089581E00C948018809191
:10313000D90208958093D902662351F06091D50297
:103140007091D6028091D7029091D8020C943518D4
:10315000089560E00C949A188091D60208958091A9
:10316000D70208958091D802089570E00C946621EA
:10317000609110018091D50280FF0AC080910F01FB
:1031800023E0829FC001112486529D4F0C94B518F4
:10319000809111019091120123E0829FF00111248E
:1031A000E652FD4F891750F71182108212828F5F0D
:1031B0003396F8CF9091D50290FF14C090911101F1
:1031C0002091120133E0939FF0011124E652FD4F4C
:1031D000921710F00C94B8188183608342839F5F2C
:1031E0003396F6CF0895CF93DF9300D00F92CDB7EB
:1031F000DEB79091D50290FF0AC09E012F5F3F4F2E
:103200000E9416184B8169818A810E94DA180F90FA
:103210000F900F90DF91CF910895CF93DF93EC0142
:10322000EC81F0E0E256FC4F4491E5EDF2E0628182
:1032300081810E94F3188C818F5F8C83DF91CF9105
:103240000895CF93DF93EC01E5EDF2E043816281D5
:103250008C810E94F3188C818F5F8C83DF91CF91DA
:1032600008950F931F93CF93DF9300D00F92CDB7A4
:10327000DEB78C018091790281110AC09E012F5F17
:103280003F4F48EC6FEF0E9416188A8180937902B5
:10329000F8016481613069F08091790240E0662331
:1032A00061F040E0623011F44091790280E060E02A
:1032B00004C06091790240E080E00E94DA18F801D1
:1032C000848190E0019663E070E00E942C32848358
:1032D0000F900F900F90DF91CF911F910F91089554
:1032E000AF92BF92CF92DF92EF92FF920F931F9314
:1032F000CF93DF9300D00F92CDB7DEB7182FF62E05
:10330000042FE22E9091D50290FF29C0E92FE69577
:10331000AE2FB0E0AD55BE4F8C91809385029E7F5D
:10332000923059F59E012F5F3F4F812F0E94161852
:103330004B8169818A810E94DA181093D602F0923B
:10334000D7020093D802EE2051F06091D50270911F
:10335000D6028091D7029091D8020E9435180F9022
:103360000F900F90DF91CF911F910F91FF90EF90F1
:10337000DF90CF90BF90AF900895823019F4009104
:10338000D802DBCF863019F41091D602D6CF89301F
:10339000D9F3893191F6E9518E2F8170D82EE695B7
:1033A000F0E0E256FB4FA590B490C12CBB24609195
:1033B0001301C61618F00E94B818BFCF2C2D30E0AC
:1033C000A29EC001A39E900DB29E900D112470E0AC
:1033D0000E941832812FD11013C0860F4091110125
:1033E000420F532F511D9A01220F331F240F351FF7
:1033F00026523D4F402F6F2D0E941618C394D7CFF1
:10340000861BECCFE5EDF2E09181282F43816281AC
:1034100088E0890F0C94701981E00C94021AE5ED94
:10342000F2E09181282F4381628188EF890F0C940B
:10343000701981E00C940F1AE5EDF2E0628128E04A
:10344000620F08F46FEF282F438181810C9470196B
:1034500081E00C941C1AE5EDF2E0628128E0621B29
:1034600008F460E0282F438181810C94701981E079
:103470000C942B1AE5EDF2E0438128E0420F08F4AA
:103480004FEF282F628181810C94701981E00C9498
:103490003A1AE5EDF2E0438128E0421B08F440E0EF
:1034A000282F628181810C94701981E00C94491A53
:1034B00020E00C947019EF92FF921F93CF93DF934B
:1034C000EC0110E0EE24EA94F12C60911301161740
:1034D00070F00E94B8189A818C8190FF27C08F5F8E
:1034E0008C83DF91CF911F91FF90EF9008952091F1
:1034F0001101422F410F5527551FCA019A01220F72
:10350000331F280F391F26523D4F70E0C7010E941C
:103510002C32962F8C814091D8026091D702199F4E
:10352000800D11240E9416181F5FCFCF8150D8CF75
:10353000AF92BF92CF92DF92EF92FF920F931F93C1
:10354000CF93DF93FC0182810FEF80FF01E010E059
:103550004EE0A42E809113011817C8F00E94B818ED
:1035600080917B02013009F055C0811102C0809129
:103570001301815080937B02DF91CF911F910F91B6
:10358000FF90EF90DF90CF90BF90AF900895C091E3
:103590001101C12ED12CCC0DDD2DD11DCE01880FF6
:1035A000991FC80FD91FC652DD4F198218821A827F
:1035B00034E0E32EF12CB12C80917B028B0D8F3007
:1035C0001CF16A2D0E940A32892F082E000C990BDB
:1035D000C816D90691F48091D8028E9DA0018F9DC6
:1035E000500D112455954795559547959E0160912D
:1035F000D7028091D6020E941618B00EF1E0EF1AA1
:10360000F108D1F61F5FA6CF87FFDFCF909113019E
:10361000890FDBCF90E001966091130170E00E946A
:103620002C32A8CF0F931F93CF93DF93809111017A
:103630009091120123E0829FF0011124E652FD4F88
:10364000891740F1C0E0D3E060911301C61740F143
:103650000E94B81820910D0180917A02820F809308
:103660007A0290910E01920F90930E01191654F464
:10367000082E000C990B409113014150550B8417F3
:1036800095071CF0219520930D01DF91CF911F919B
:103690000F9108951182108212828F5F3396D0CFDE
:1036A0000C2F10E070E0C8010E942C322091110113
:1036B000820F482F50E020917A02022E000C330B2B
:1036C00002171307BCF020910E01022E000C330BE1
:1036D000201731077CF08D9F9001112426523D4F19
:1036E0004091D8026091D7028091D6020E941618AC
:1036F000CF5FAACFFA01EE0FFF1FE40FF51FE652CE
:10370000FD4F118210821282F3CF8F929F92AF925F
:10371000BF92CF92DF92EF92FF920F931F93CF93BE
:10372000DF93EC014C81042F10E09801D8010E9436
:1037300077329B01AC010E948D324B015C01E0E2CB
:10374000F0E0E01BF10BA5E5B0E0AC019B010E94AD
:103750008D326B017C019F01DF010E946F329B0162
:10376000AC010E9498329B01AC01280D391D4A1D05
:103770005B1DC701B6010E944032F22E822F90E0FD
:1037800039E23F1560F143E0249F90011124359503
:103790002795122F109500E085E5E82EEF1880910F
:1037A0001301081758F10E94B8189C8181E09923F1
:1037B00019F0903219F48FEF80930C0180910C0175
:1037C000890F8C83DF91CF911F910F91FF90EF9024
:1037D000DF90CF90BF90AF909F908F90089525E598
:1037E00030E0B901681B790B9B01220F331F260FB4
:1037F000371F37FFCCCF2F5F3F4FC9CF8E2D01FD35
:103800008F2D20911101622F600F7727771F9B0169
:10381000220F331F260F371F26523D4F412F609135
:10382000D7020E9416180F5FBACF0F931F93CF9342
:10383000DF93EC0110E000E0909113019017110666
:1038400009F06CF40E94B8188C8190E001968170A8
:1038500099278C83DF91CF911F910F91089520912B
:103860001101A801420F511D9A01220F331F240F8D
:10387000351F26523D4F4C816091D7028091D60270
:1038800096959017110651F04CF0442349F0409161
:10389000D8020E9416180F5F1F4FCECF4423B9F3F2
:1038A00040E0F7CFE5EDF2E080818E7F808360819C
:1038B0007181828193810E943518109286022FEFC8
:1038C00080E792E0215080409040E1F700C0000086
:1038D0000C94B818E5EDF2E080818E7F8083109221
:1038E00086022FEF80E792E0215080409040E1F780
:1038F00000C000000C94B8181092860280918302D8
:1039000081110AC081E0809383028091D502817089
:10391000809382020C946A1C08956091D50266958A
:1039200070E04BE050E084E191E00E94AC32892BE2
:1039300019F481E0809386020E94032A90937D020D
:1039400080937C0208959091D50290FF35C09170CC
:10395000811128C092609093D502662351F0609146
:10396000D5027091D6028091D7029091D8020E9420
:1039700035186091D502669570E04BE050E084E127
:1039800091E00E94AC32892BA1F01092860281E076
:1039900080937F024091D8026091D7028091D60235
:1039A0000C94581A853210F09864D5CF880F982B54
:1039B000D2CF0E948D1CEBCF0895682F9091D50235
:1039C000969581E0890F853208F081E00C94A31C64
:1039D00081E00C94DD1C682F9091D50296958FEFB5
:1039E000890F09F484E20C94A31C81E00C94EB1C75
:1039F00061E00C94A31CE5EDF2E08081816080839E
:103A000086950C94F81C8091D50280FD0C94521C74
:103A10000C94FB1C60E00C94A31C80918402811127
:103A20002EC00E94990F811104C00E943D100E9477
:103A300051180E9431186093D5027093D60280937A
:103A4000D7029093D8026E7F61F40E9451180E94B1
:103A500031186093D5027093D6028093D702909369
:103A6000D8020E941B18109286028091D50280FF16
:103A700003C086950E940A1D81E080938402089508
:103A8000E5EDF2E080818160808386950C940A1DCB
:103A9000109283028091820281110E94401D0C9439
:103AA0008D1C0F931F93CF93DF9380918602882301
:103AB00009F486C080918502E091D502E695E81B65
:103AC000E0937E02823091F5F0E0E656FC4FE491FF
:103AD000CE2FD0E00DE019E180917F02882361F0C4
:103AE00010927F020E94032A90937D0280937C02B1
:103AF00010928102109280020E94032AE0917C02BF
:103B0000F0917D028E1B9F0B8F3F9F4708F058C09E
:103B1000EC0FFD1FF0937D02E0937C028CE792E0B6
:103B2000F801DF91CF911F910F910994863049F4EC
:103B3000F0E0E956FC4FE491CE2FD0E001E219E12C
:103B4000CBCF893051F4E695F0E0EC56FC4FE49190
:103B5000CE2FD0E00BE51AE1BFCF8F3051F4E695C0
:103B6000F0E0EF56FC4FE491CE2FD0E008E91AE1E7
:103B7000B3CF853149F4F0E0E257FC4FE491CE2F0A
:103B8000D0E002E11BE1A8CFC8E2D0E005E81BE1EC
:103B9000883109F4A1CF833239F4ECE8F3E0C59120
:103BA000D49101E319E198CFC4EFD1E005E11CE124
:103BB000843209F491CFC0EDD7E005E018E18CCF55
:103BC000DF91CF911F910F910895FA01811101C0EA
:103BD000FB010994CF93DF93C82FD62F0E94611861
:103BE0008C1740F00E9461188D1720F4DF91CF915F
:103BF0000C94E81C8C2FDF91CF910C94F81C1F9330
:103C0000CF93DF93EC01FB011281112309F4C0C0B3
:103C10000E94B20E8272CC3CFCE5DF0709F49CC026
:103C200008F044C0C63CECE5DE0709F481C0F0F4BE
:103C3000C33C9CE5D90709F471C048F4C23CDC459B
:103C400009F469C0812FDF91CF911F910895C43C81
:103C50009CE5D90709F467C049E15AE16CE07AE1D3
:103C6000C53CDC4579F70E94E51D53C0C93CFCE525
:103C7000DF0709F467C068F4C73CECE5DE0709F428
:103C80005CC048E25AE167E37AE1C83CDC4559F39D
:103C9000D9CFCA3C9CE5D90709F459C044E958E199
:103CA0006DE778E1CB3CDC45F1F2CCCFC13DFCE5E2
:103CB000DF0709F462C098F4CE3C9CE5D90709F40B
:103CC00054C008F44EC0CF3CFCE5DF0709F452C0F5
:103CD000C03DDC4509F0B6CF6EE089E048C0C43D88
:103CE0009CE5D90709F44FC058F4C23DFCE5DF0755
:103CF00009F446C0C33DDC4509F0A4CF88E132C0D9
:103D0000C53D9CE5D90709F441C0CD35DD4509F035
:103D100099CF10E097CF0E94031DFBCF45EF5CE1E8
:103D200068EE7CE1A0CF48EE5CE165EF7CE19BCFE3
:103D30004CE05AE169E17AE196CF47E35AE168E263
:103D40007AE191CF45E55AE166E47AE18CCF46E429
:103D50005AE165E57AE187CF4DE758E164E978E11A
:103D600082CF81E00E94F81CD4CF65E082E00E94FF
:103D7000EA1DCFCF68E086E0FACF64E18FE0F7CFAD
:103D800067E185E1F4CF62E289E1F1CF83E2EACF36
:103D900011E058CF86E090E00C94C632682F86E0A0
:103DA00090E00C94DA32809104030C94CE1EE4E08F
:103DB000F3E080818470896280830C94CE1E8091B0
:103DC000040386958695869508958091040381FD68
:103DD00007C08260809304030E94CE1E0C94B7201B
:103DE00008958091040381FF07C08D7F80930403B1
:103DF0000E94CE1E0C94C32008958091040381FD7F
:103E00000C94F11E0C94E51E80910403869581703C
:103E1000089580911F0108950E94990F811104C097
:103E20000E943D100E94D71E0E94CA1E8093040368
:103E3000803320F08770886280930403909104039C
:103E4000892F817090FF04C0892F8695869586956D
:103E50000C948B2080910403982F969596959695B7
:103E6000953040F49F5F990F990F990F8770892BB8
:103E700080930403809104038160809304030E9473
:103E8000CE1E809104038695869586950C948B2092
:103E900080910403982F987F79F0885080930403D1
:103EA000887F91E009F490E08091040390FB80F911
:103EB000809304030E94CE1E80910403869586950C
:103EC00086950C948B208091040380FD13C0816043
:103ED00080930403813019F489E080930403809176
:103EE00004030E94CE1E80910403869586958695D4
:103EF0000C948B2008958091040380FF08C08E7F6E
:103F0000809304030E94CE1E80E00C948B200895C1
:103F10008091040380FD0C947B1F0C94631F90918F
:103F20000403892F8695869586958F5F8F7197708C
:103F30008630D8F4880F880F880F892B809304036C
:103F400080910403887F91E009F490E0809104035C
:103F500090FB80F9809304030E94CE1E809104039D
:103F60008695869586950C948B2090930403E8CFD4
:103F7000863008F085E0909104039770282F220F77
:103F8000220F220F922B90930403987F21E009F4D3
:103F900020E09091040320FB90F9909304030C948B
:103FA0008B200E94B81F809104030C94CE1EFC014C
:103FB000DB0112968C918823F9F0EB5BFC45E7302E
:103FC000F105D8F4E25DFC4C0C94623285E00E946D
:103FD000D11F80E0089580E0FACF0E94481FF9CFFA
:103FE0000E942A1FF6CF0E94881FF3CF0E948F1FC6
:103FF000F0CF0E94FD1EEDCF81E00895279A2F9803
:1040000008952F9808958F929F92AF92BF92CF926A
:10401000DF92EF92FF920F931F93CF93DF938C0168
:1040200080918600909187006CE070E00E941832C9
:104030006017710798F0C80169E070E00E941832BB
:10404000CB01DF91CF911F910F91FF90EF90DF9007
:10405000CF90BF90AF909F908F90089580918600F1
:1040600090918700E0908600F0908700C0908600D5
:10407000D0908700C6E0D0E0BE010E94183230E048
:1040800020E0060F171F211D311D4801590185E051
:10409000880C991CAA1CBB1C8A95D1F7C701BE01CC
:1040A0000E941832F12CE12CA7019601260F371F30
:1040B000411D511DC501B4010E94403269017A01C0
:1040C000E0918600F0918700CA01B9010E94FA319F
:1040D0009B01AC01DF010E948D329B01AC01C70145
:1040E000B6010E94FA312FE09695879577956795EE
:1040F0002A95D1F7009186001091870030E020E0EA
:10410000061717072807390708F09ACF609186002D
:104110007091870095CFCF93C82F863000F581111D
:104120001FC080918000877F809380000E940120C3
:10413000A0918600B09187002C2F30E00E9477324A
:1041400025E030E040E050E00E944032C9010E948A
:10415000032090938D0080938C00CF910895C5E04B
:1041600080918000886080938000E2CF0895109253
:1041700088021092870210928902EFE6F0E08081B7
:10418000816080830895EFE6F0E080818E7F8083F8
:104190000E94DF1E0C948B201F920F920FB60F927D
:1041A00011240F931F932F933F934F935F936F931C
:1041B0007F938F939F93AF93BF93CF93EF93FF938F
:1041C000809120018230B9F08F5F80932001FF91B0
:1041D000EF91CF91BF91AF919F918F917F916F910F
:1041E0005F914F913F912F911F910F910F900FBEB3
:1041F0000F901F90189581E0809320010E94091F65
:10420000C82F00918702109188020F5F1F4F0E94F4
:10421000091F28E7829FB0011124C8010E941832AB
:104220009093880280938702C29FB0011124660F89
:10423000672F661F770B71950E9418326F778091F8
:104240008902823041F4603451F480916F008E7F96
:1042500080936F0004C0813011F46F37B1F3E62F03
:10426000F0E0ED55FB4FC49100918600109187005E
:104270000E94DF1E282FC09FC001C19F900D1124F6
:104280006BEF74E00E941832269FC001279F900DAB
:1042900011240E94032090938D0080938C0097CF6F
:1042A0000E94FE1F8AE08093800089E18093810054
:1042B0008FEF9FEF90938700809386000E940C1FE2
:1042C0000E94041F81110C94B7200895529A4BB19B
:1042D0004B7F5BB15460EFB7F8949B01220F331F03
:1042E000260F371F280F391F2817390741F4EFBF52
:1042F0008FE594E00197F1F700C000000895DC011C
:104300006D91CD0178E05BB9000000C067FF4BB94B
:10431000660F000000C000C000C04BB900C07A9515
:1043200091F7E2CF83E290E00E94C632813289F4B5
:1043300084E290E00E94C632823159F485E290E036
:104340000E94C63291E0813209F090E0892F81709D
:10435000089580E0FCCFCF93DF93D82FCFEF81116A
:10436000C1E26C2F83E290E00E94DA326FEFD1114C
:1043700062E184E290E00E94DA326C2F85E290E004
:10438000DF91CF910C94DA32089586E290E00E949A
:10439000C632682F70E090E080E0089586E290E0F9
:1043A0000C94DA3280E00E94AB2160E070E0CB0137
:1043B0000E94CE210E9411260E94FD2681E00C94CD
:1043C000AB210E94C4210E949221811102C00C9451
:1043D000D2210895CF93FB01C281CC2309F19C0126
:1043E00022513F452031310520F582510E940D2791
:1043F000C0E08C2FCF91089581E00E94660A43E0CF
:1044000062E081E00E94AB04F3CF81E00E94710A78
:1044100043E062E081E00E94AB04EBCF82E0F6CFA4
:104420008031FFE59F0789F381319F45B9F3C1E0F2
:10443000E0CF8031EFE59E07F9F281319F45C9F663
:1044400082E0DBCF2FEFFC0120830895CF93DF9331
:10445000EC018881893029F08A3079F0DF91CF91A1
:1044600008950E94DF1E2FEF829FC001112465E096
:1044700070E00E9418326983F1CF0E94041F898383
:10448000EDCFFC018081893019F08A3069F0089500
:10449000818125E0829FC00111246FEF70E00E94AE
:1044A0001832862F0C94B81F8181811102C00C94A0
:1044B000F11E0C94E51ECF93DF93EC0188818138C7
:1044C000A9F028F4803871F0DF91CF9108958238F7
:1044D00081F08338C9F70E94AC1889830E94AF1815
:1044E0008A83F2CF0E94B2188983EECF0E946118AE
:1044F000FBCF0E949718F8CFCF93DF93EC01888110
:104500008138E1F028F4803869F0DF91CF91089587
:10451000823811F18338C9F70E94B218482F6A8196
:10452000898108C0D9810E94AF18C82F0E94AC1899
:104530004D2F6C2FDF91CF910C94581A89810E94D6
:104540000A1D8981811104C0DF91CF910C946A1CEE
:10455000DF91CF910C94401D8981DF91CF910C9414
:10456000A918DF92EF92FF920F931F93CF93DF93DF
:10457000EC01D62EDC01ED918D01E150E33108F024
:10458000B8C0F0E0EB5CFC4C0C946232198289E01C
:104590008A836D2DCE01DF91CF911F910F91FF90F6
:1045A000EF90DF900C94092B8981823069F0833081
:1045B00071F08130D9F40E940F2A0E9468326A8318
:1045C0007B838C839D83E5CF0E94C521F6CF7E013E
:1045D00010E0812F0E947713F701928383831F5F7E
:1045E000F2E0EF0EF11C1530A1F7D3CF6D2DCE0107
:1045F0000E942222CECF89818230C1F76A817B81DD
:104600008C819D810E9468320E94CE21C2CF4B8155
:104610006A8189810E94E3259827892798279D83AD
:104620008C83B7CF2C813D813227232732274B81C2
:104630006A8189810E94FC25ACCF0E941126A9CFF6
:10464000CD010E944122C8010E947C22A2CFCD014F
:104650000E942622C8010E945B229BCF0E94D31E8B
:104660000E94471896CF0E94A626898392CF0E9467
:10467000A8269827892798279A8389838ACF6B81D0
:1046800070E089819A81AE014C5F5F4F982789273E
:1046900098270E94AB267DCF6B8170E089819A813B
:1046A000AE014C5F5F4F9827892798270E94D2263A
:1046B00070CF0E94FD266DCF0E94D125D6CF6B8191
:1046C00070E089819A81AE014C5F5F4F98278927FE
:1046D00098270E9449265DCF6B8170E089819A817D
:1046E000AE014C5F5F4F9827892798270E946F265D
:1046F00050CF8FEF88834DCFCF93DF93EC01FB0139
:104700008281882309F420C1C330FDE5DF07C8F5A5
:10471000CA3F9CE5D90730F49E0122503C45243124
:10472000310598F50E94AC0F9093C0028093BF02B0
:10473000C031FCE5DF0709F4E0C008F061C0C83013
:104740009CE5D90709F4CBC088F5C430FCE5DF0748
:1047500009F4B3C0E8F4C2309CE5D90709F4A7C056
:104760008091BF028260C330DC4509F4A3C0809110
:10477000BF029091C0020E94BA0F0E94ED0980E032
:1047800004C0C136EDE5DE0769F2DF91CF910895EF
:104790008091BF028061C630FCE5DF0709F48AC062
:1047A00008F48FC08091BF02806284C08091BF02F4
:1047B0008D7FCC309CE5D90709F47CC070F48091E2
:1047C000BF028C60CA30FCE5DF0709F473C008F44F
:1047D0008AC08091BF028E7F6DC08091BF02877FAB
:1047E000CE309CE5D90709F465C08091BF028B7F6C
:1047F000CF30DC4508F45EC08091BF028F7E5AC086
:10480000CC3FFCE5DF0709F474C040F5C4319CE5FA
:10481000D90709F48AC058F4C231FCE5DF0709F46E
:1048200074C008F46EC08091BF02837F43C0CA3F4A
:104830009CE5D90709F449C008F04DC0C531DC45F5
:1048400009F095CF8091BF0282FB992790F921E072
:10485000922790FB82F990FB83F92CC0C1158DE55E
:10486000D80709F458C088F48091C0028360CE3F15
:10487000ECE5DE0769F18091C0028D7FCF3FDC451A
:1048800038F18091C0028C7F23C0C2308DE5D807FB
:1048900009F458C008F452C0C136DD4509F067CFAD
:1048A0009091BF02892F8F7E94FF806103C0809119
:1048B000BF0281608093BF025ACF8091BF028460A3
:1048C000F9CF8091BF028860F5CF8091C0028160EE
:1048D0008093C0024CCF8091C0028260F9CF80915A
:1048E000BF028064E7CF0E94ED098091BF0280681B
:1048F000E1CF8091C0028E7FEBCF8091BF028F7D90
:10490000D9CF8091BF028F7BD5CF0E94ED098091D6
:10491000BF028F77CFCF8091C002982F9095917072
:104920008E7F892B90FB81F9D3CF0E94ED09909166
:10493000BF02892F97FB87F98058BCCF81E00E9486
:104940003F1015CF80E0FBCF81E01FCFEBEFE80FEA
:10495000EF3308F062C0F0E0E85BFC4C0C9462328C
:104960000E943D1081E0089580916802807F8093CD
:10497000680281E080938D0208950E94C804F2CFFE
:1049800090916802892F8E7F90FF816080936802EA
:1049900080FDE8CF817F80936802E4CF9091680228
:1049A000892F8D7F91FF82608093680281FFDACF2B
:1049B000809168028160EFCF90916802892F8B7F90
:1049C00092FF84608093680282FDF2CFCBCF9091FA
:1049D0006802892F877F93FF88608093680283FD38
:1049E000E7CFC0CF0E94ED099091BF02892F97FBBE
:1049F00087F980588093BF02B5CF81E00E94400ABA
:104A00000E94ED09AFCF895391E001C0990F8A95BB
:104A1000EAF7892FF3CF8D51F7CF80E0089580E03A
:104A200008950C940F25CF93C82F80918D0281306B
:104A3000B9F0882331F08230A1F110928D0280E02C
:104A40000DC00E94B20E8232D1F78C2F0E940F252A
:104A500081111BC08C2F0E94A6248170CF910895D4
:104A60000E94B20E823289F38C2F0E94112581118F
:104A70000AC0C43199F060F4CB3029F0C03169F735
:104A800082E080938D0281E0E8CF81E090E0E5CF85
:104A9000C93221F0C833B9F380E0DFCF10928D0224
:104AA000FBCFC93209F43FC0E8F4C431E1F128F486
:104AB000C73009F45BC081E0D1CF82EE8C0F8A3021
:104AC000D0F7CD51C0938C02C33009F446C0B0F585
:104AD000C13009F43FC08AE091E0C230B1F11092D8
:104AE0008C02E9CFC03509F454C0B8F48AE0CF3461
:104AF00011F7E0918A02F0918B023097E1F2208168
:104B0000082E000C990B820F911D8F3F910509F023
:104B10000CF443C08FEF8083CECFC135E1F181E04B
:104B2000C23539F39BCF80918C02882321F21092F9
:104B30008C0210928B0210928A02BDCFC53099F080
:104B400078F084E091E0C63051F690938B02809328
:104B50008A02B1CF8BE091E0F8CF89E091E0F5CF08
:104B600088E091E0F2CF85E091E0EFCF8EE1809395
:104B70000B0182E380930A018AE08093090184E1BA
:104B80008093080188E08093050188E28093040106
:104B900092CF86EFAECF8FEFACCF97FFBCCF108216
:104BA0008ACF84E0089550E0440F551F9CE1699F2F
:104BB000400D511D11249CE8899F400D511D112469
:104BC000CA01879608950F931F93CF93DF930E9496
:104BD000D3258C010E94C632C82FD0E0DC2FCC2711
:104BE000C80101960E94C6329E01282BC901DF919F
:104BF000CF911F910F9108950F931F93CF93DF9340
:104C0000122F032F0E94D325EC01602F0E94DA326D
:104C1000612FCE010196DF91CF911F910F910C94DE
:104C2000DA32AF92BF92CF92DF92EF92FF921F9350
:104C3000CF93DF938CEAC82E80E0D82ED0E07601A7
:104C4000C0E014C0F50125913491412F6C2F8D2FB8
:104C50000E94FC2582E0A80EB11C1F5F1E3091F758
:104C60008CE1E80EF11CCF5FC53019F0570110E060
:104C7000E9CFDF5F8CE8C80ED11CD43001F7DF919B
:104C8000CF911F91FF90EF90DF90CF90BF90AF90AA
:104C90000895EF92FF920F931F93CF93DF93EC0150
:104CA0008A017C01E60EF71ECE018796CE15DF0540
:104CB00039F4DF91CF911F910F91FF90EF900895FC
:104CC000C03322E0D20740F40E94C632F80180834C
:104CD0000F5F1F4F2196E8CFF8011082F9CFCF92D6
:104CE000DF92EF92FF920F931F93CF93DF937C019C
:104CF0006A018C01060F171FEC01CE018796C017C1
:104D0000D10749F4DF91CF911F910F91FF90EF9060
:104D1000DF90CF900895C03322E0D20740F4FE0127
:104D2000EE19FF09EC0DFD1D60810E94DA3221961B
:104D3000E4CF462F843038F4753028F46E3018F400
:104D4000672F0C94E32590E080E0089580E10895BA
:104D500089EA91E00895EF92FF920F931F93CF930A
:104D6000DF93EC018A017C01E60EF71ECE01895A21
:104D70009D4FCE15DF0539F4DF91CF911F910F9133
:104D8000FF90EF900895C93A21E0D20740F40E94C5
:104D9000C632F80180830F5F1F4F2196E7CFF801DD
:104DA0001082F9CFCF92DF92EF92FF920F931F9371
:104DB000CF93DF937C016A018C01060F171FEC0172
:104DC000CE01895A9D4FC017D10749F4DF91CF9189
:104DD0001F910F91FF90EF90DF90CF900895C93A07
:104DE00021E0D20740F4FE01EE19FF09EC0DFD1D94
:104DF00060810E94DA322196E3CFCF93DF93C7E53B
:104E0000D2E060E0CE010E94DA322196C11584E042
:104E1000D807B9F7DF91CF910895DF92EF92FF9213
:104E20000F931F93CF93DF9300D000D0CDB7DEB7A1
:104E3000F82E8FE08F1540F08FEF93E00E94C6327E
:104E400007E512E08823C1F00F900F900F900F90AC
:104E5000DF91CF911F910F91FF90EF90DF90089518
:104E6000011584E0180781F3C8010E94C632811140
:104E700001C0FA940F5F1F4FF110F2CF19821A820E
:104E80001B821C82DD24D39478018FEFE81AF80A84
:104E9000C8010E94C63289831A828823A9F29FEF33
:104EA000980F933078F48A83D9820E5F1F4FC70121
:104EB0000E94C6328B83882339F2CE0101960E946C
:104EC0001706E2CF8701F9CFCF93DF93EB0186314D
:104ED0009C4511F50E94B20E9A81992399F08A7A25
:104EE00091E009F490E090938E02811109C089E26B
:104EF0000E948D0E0E94020F80E0DF91CF910895F5
:104F000085E3F6CF80918E02811104C089E20E9470
:104F1000940EF0CF85E3FBCF81E0EFCF0F931F938B
:104F2000CF93DF93C42FD22FFC0182818823C9F055
:104F3000409391020E94032A9093900280938F02E3
:104F400080E28C0F883008F050C0C77081E001C04B
:104F5000880FCA95EAF7DF91CF911F910F910C94BA
:104F6000790710919102141335C080918F029091AE
:104F700090020E941B2A883C910560F5C0E2CD0F8B
:104F80001D17B9F080E2810F883040F4177081E07E
:104F900001C0880F1A95EAF70E948007C83048F4CC
:104FA00081E09D2F977001C0880F9A95EAF70E94C3
:104FB0007907802F0E947107C830B8F4D77081E05C
:104FC00001C0880FDA95EAF7DF91CF911F910F9119
:104FD0000C94800780E28C0F883038F4C77081E031
:104FE00001C0880FCA95EAF7EFCFDF91CF911F91EB
:104FF0000F9108950F939C01CB01233F4CE534079B
:1050000059F1A8F4283DFCE53F0701F1293D4CE5A5
:105010003407D1F1273D3C4591F406E221EE41EE03
:1050200067ED7CE50E948E2780E00F910895253F73
:10503000FCE53F07E9F0B0F0263F3C45F9F0FC0104
:105040008281882339F110929102EFCF07E225EE99
:1050500045EE68ED7CE5E6CF06E221EE40EE63EF3B
:105060007CE5E0CF07E225EE44EE64EF7CE5DACFA5
:1050700006E221EE42EE65EF7CE5D4CF07E225EEB5
:1050800046EE66EF7CE5CECF08E221E045EE69ED25
:105090007CE5C8CF81E0C9CF9093D9018093D80136
:1050A000089590939702809396020895E091960256
:1050B000F0919702309721F00190F081E02D099452
:1050C00080E00895E0919602F0919702309799F070
:1050D00020912D01222359F02091BF0227FF07C004
:1050E000DC012C9111962C93119726E02C930280D1
:1050F000F381E02D09940895E0919602F0919702D2
:10510000309739F022E0DC012C930480F581E02D0A
:105110000994089520919402309195022817390737
:1051200071F09093950280939402E0919602F09131
:105130009702309721F00680F781E02D09940895B9
:1051400020919202309193022817390771F09093C1
:10515000930280939202E0919602F0919702309729
:1051600021F00084F185E02D09940895FC01329628
:1051700080912D01882321F08091BF029EE187FF5D
:1051800096E080E0915008F4089521912223D1F314
:105190008F5FF8CF662301F120912D012223F1F0DA
:1051A0002091BF0227FF1AC0462F46954695469587
:1051B0004E3190F4677021E030E002C0220F331FBF
:1051C0006A95E2F7840F911DFC01828190E028230B
:1051D000392381E0232B69F480E00895FC013296A5
:1051E00008962191261721F0E817F907D1F7F4CF97
:1051F00081E008959C01FC0132969FEF80E041918F
:10520000461751F09F3F19F4411101C0982F8F5F4D
:105210008630A9F79F3F09F40895290F311D97FDA6
:105220003A95F90162830895FC013296089621911E
:10523000261303C0DF0111971C92E817F907B9F78D
:105240000895E62FE695E695E695EE3168F4E80FC9
:10525000F92FF11D677021E030E001C0220F6A953F
:10526000EAF78281822B82830895E62FE695E69500
:10527000E695EE3170F4E80FF92FF11D677021E02B
:1052800030E001C0220F6A95EAF720958281282339
:105290002283089520912D01222329F02091BF021D
:1052A00027FD0C9421290C94FA2820912D0122230A
:1052B00029F02091BF0227FD0C9435290C94142964
:1052C000FC01329680912D01882351F08091BF021C
:1052D00087FF06C08EE1DF011D928A95E9F70895E8
:1052E00086E0F9CF08950C947229811105C081E000
:1052F000809398020C94732982E0FACF83E0809324
:1053000098020C9473290C94752981E0809398027B
:105310000C9473290C948529089580910D03843091
:1053200031F10E94BE041092990288E190E020E4DD
:105330000FB6F894A895809360000FBE209360008C
:1053400083B7817F846083BF83B7816083BF789494
:10535000889583B78E7F83BF0FB6F894A895809108
:105360006000886180936000109260000FBE089515
:1053700008950895CF930E94B8290E9444140E9472
:10538000B929C0E08C2F0E947713892B31F4CF5FAD
:10539000C530C1F780E0CF91089581E0FCCF0E9435
:1053A000ED090C943F051F921FB61F9211248F9395
:1053B0009F93AF93BF9380919902811113C0809105
:1053C000050390910603A0910703B091080341964D
:1053D000A11DB11D8093050390930603A0930703BD
:1053E000B0930803BF91AF919F918F911F901FBE03
:1053F0001F90189582E084BD93E095BD9AEF97BD0C
:1054000080936E0008952FB7F894809105039091D2
:105410000603A0910703B09108032FBF08952FB78B
:10542000F8946091050370910603809107039091B1
:1054300008032FBF08959C014FB7F894809105038E
:1054400090910603A0910703B09108034FBF821B00
:10545000930B089578941F921FB61F9211248F9377
:105460009F93AF93BF938091050390910603A09102
:105470000703B09108030196A11DB11D8093050398
:1054800090930603A0930703B0930803BF91AF91D5
:105490009F918F911F901FBE1F90189581E0809360
:1054A000E00080E28093D8001092C9008FE19EE472
:1054B0000197F1F700C0000087E090EBDC018093DA
:1054C000160390931703A0931803B093190388E170
:1054D0009CE00FB6F894A895809360000FBE90935F
:1054E0006000FFCF8091BD02089508959C0184E083
:1054F0008093E9009FEF8091E800915085FD06C000
:1055000085ED8A95F1F700009111F5CF8091E800C3
:1055100085FF0CC050E040E066E070E0C9010E94E9
:105520001A2D8091E8008E778093E8000895CF933C
:10553000DF93EC0180912D018823B1F18091BF02AE
:1055400087FF32C060E284E08093E9008FEF9091A2
:10555000E800815095FD06C095ED9A95F1F70000A1
:105560008111F5CF8091E80085FF1BC080912D014E
:1055700070E050E040E0811104C050E040E068E09D
:1055800070E0CE010E941A2D8091E8008E77809302
:10559000E80080E2FE01ADE9B2E001900D928A954B
:1055A000E1F7DF91CF91089568E081E0CDCF80935E
:1055B0009A0270939C0260939B0280910D03843049
:1055C000F9F48093E9008FEF9091E800815095FD08
:1055D00006C095ED9A95F1F700008111F5CF809105
:1055E000E80085FF0DC050E040E063E070E08AE92C
:1055F00092E00E941A2D8091E8008E778093E80057
:105600000895BC0184E00C94D72ABC0183E00C947B
:10561000D72ACF93FC01603221F580910D038430AD
:1056200001F5C091E900CF702091EC00922F9170AC
:1056300020FD90E8C92B82E08093E9008091E8008A
:1056400080FF0CC050E040E060E270E0CF010E94BB
:105650001A2D8091E8008E778093E800CF70C09378
:10566000E900CF91089580910C03811109C00E9437
:10567000F92E0E94562F8091E20084608093E20010
:10568000089510920C0308950C94852960910903E4
:1056900081E0611101C080E00C947E2990910D039E
:1056A00081E0943009F080E0609109030C94832933
:1056B00042E061EC81E00E94752E42E261EC84E000
:1056C0000E94752E42E261EC82E00E94752E42E259
:1056D00060EC83E00E94752E90910D0381E0943080
:1056E00009F080E0609109030C94752980910F0303
:1056F000833009F462C030F48130D9F1823009F48A
:105700009EC008958A3009F48AC08B3009F470C0B5
:10571000893009F051C080910E03813209F04CC0EC
:105720008091120390911303009719F0029709F0EA
:1057300043C08091E800877F8093E8008091E80073
:1057400082FF36C09091F3008091F200029731F40D
:105750008091F100813011F0863021F48091F100C8
:105760008093BD028091E8008B778093E8000C94D1
:10577000A92E80910E03813AF9F48091E800877F89
:105780008093E8008091120390911303892B61F4B8
:1057900060E28DE992E070E00E94B82D8091E8000F
:1057A0008B778093E800089560E090E080E0F3CF8D
:1057B00080910D038111C2CF089580910E03813A2B
:1057C000D9F78091120390911303892BA9F7809147
:1057D000E800877F8093E8008091E80080FFFCCF9D
:1057E00080912D018093F1008091E8008E77BDCFEC
:1057F00080910E03813201F780911203909113037F
:10580000892BD1F68091E800877F8093E8000E9481
:10581000A92E8091100380932D010C94ED098091A5
:105820000E03813249F68091E800877F8093E8007B
:105830000E94A92E809111038093BE020895809149
:105840000E03813A09F0B8CF8091E800877F8093FA
:10585000E8008091E80080FFFCCF8091BE02C2CFBB
:1058600084B7877F84BF0FB6F894A89580916000B5
:10587000886180936000109260000FBE80E890E025
:105880000FB6F89480936100909361000FBE0C9462
:105890008A290E94F92E0E94562FE2EEF0E08081C4
:1058A0008460808378940C94DF3181E291E00C94E1
:1058B000512880910D038530A9F480910D03853026
:1058C00011F00C94CF290E948D2980910B0388231D
:1058D000A1F30E94BA29882381F30E94042D0E941B
:1058E000ED09EBCF0895CF93DF93CDB7DEB7A09747
:1058F0000FB6F894DEBF0FBECDBF80910D0384308C
:1059000009F583E08093E9008091E80082FF1AC0E6
:105910008091E80090E085FF09C050E040E060E23F
:1059200070E0CE0101960E94692D91E08091E8001F
:105930008B778093E800992329F060E2CE010196ED
:105940000E94B122A0960FB6F894DEBF0FBECDBF65
:10595000DF91CF9108950C94AD2C292F332723305C
:10596000310521F168F42130310509F443C02230BA
:10597000310509F444C090E080E030E020E026C02A
:105980002132310551F122323105A9F76330710519
:1059900090F7FB01EE0FFF1FE553FE4F2081318191
:1059A00068537E4FFB01808190E010C099278130C1
:1059B000910581F0009729F00297E9F6E3E2F6E01D
:1059C00002C0EDE5F6E0849190E09F01FA01318399
:1059D00020830895E5E3F6E0F6CF6330710558F6CD
:1059E000660F771FFB01EF52FE4F2081318189E066
:1059F00090E0ECCF82E190E02CEB36E0E7CF8BE556
:105A000090E021E636E0E2CF80E189BD82E189BD08
:105A100009B400FEFDCF8091D8008F7D8093D8001F
:105A20008091E00082608093E0008091E00081FD41
:105A3000FCCF0895AF92BF92CF92DF92FF920F9367
:105A40001F93CF93DF936C01EB018A010E94C82E54
:105A5000F82E811123C00115110539F0F80180815C
:105A60009181C81BD90BC80ED91EB12CA12C20972F
:105A7000A9F08091E80085FD22C08091E8008E7732
:105A80008093E80001151105A1F0F8018081918152
:105A9000A80EB91EB182A08285E0F82E8F2DDF916D
:105AA000CF911F910F91FF90DF90CF90BF90AF905B
:105AB00008950E94C82E8823D1F2F82EEFCFF60168
:105AC00081916F018093F1002197FFEFAF1ABF0A18
:105AD000CECFAF92BF92CF92DF92FF920F931F93E0
