:100000000C9426030C946D030C946D030C946D03F7
:100010000C946D030C946D030C946D030C946D03A0
:100020000C946D030C946D030C946D030C94972940
:100030000C94462A0C943C240C946D030C946D0390
:100040000C946D030C946D030C946D030C94952427
:100050000C946D030C946D030C946D030C946D0360
:100060000C946D030C946D030C946D030C946D0350
:100070000C946D037E10811089108E1093109810CF
:100080009D10A210A710AC10B110B610B810BB1084
:10009000BE10C110C410C710C910CE100A130D1322
:1000A0002D133E1346135113541357135A13A01311
:1000B000A3135D136013651372137F1382138613EA
:1000C0009313171A171A491A491A961ABD1BBD1B02
:1000D000BD1BB41A4D1B5E1B5E1B671C671C791C85
:1000E000791C701C791C791C791C671C671C751C99
:1000F000791C791C751CB32ADA2AD22BDA2AD22B66
:10010000262B492BD22BA02BAF2B290014001A0031
:100110000800150017001C0018000C001200130046
:100120002B6104001600070009000A000B000D00F7
:100130000E000F002800E1001D001B000600190042
:100140000500110010003600370038432961E20035
:10015000E3002C412C42E700E600E4000000000030
:100160002A0035021E021F0220022102220223025F
:1001700024022502260227020100010001000100DD
:10018000010001002D022E022F0230023102010077
:1001900001000100010001000100010033003400F2
:1001A00052000100010001000100010001005000A7
:1001B00051004F00000000004C0035001E001F00E1
:1001C0002000210022002300240025002600270013
:1001D0003A003B003C003D003E003F002D002E0059
:1001E0002F00300031004000410042004300440035
:1001F000450032006400010001000100010001001F
:1002000001000100010001000100010000000000E8
:100210004C00A8003A003B003C003D003E003F007F
:1002200040004100420043000100BF5CC05CBE5C76
:10023000135CC25CC55C0A5CC75CC95C45003900E4
:10024000005CC15CBD5C0100C35CC65C0100C85CB5
:10025000CA5C0100A60001000100010001000100CC
:100260000100010000000000440000000000000048
:1002700000002A2B28000000000000000000000001
:10028000000000000029000000002C1E3420212264
:1002900024342627252E362D3738271E1F202122CD
:1002A000232425263333362E37381F040506070846
:1002B000090A0B0C0D0E0F10111213141516171836
:1002C000191A1B1C1D2F3130232D35040506070874
:1002D000090A0B0C0D0E0F10111213141516171816
:1002E000191A1B1C1D2F3130354C00000000000076
:1002F00000000000000000000000000000007E0F71
:1003000000D4FFFFFFC70000007832190A00047F05
:100310003F1F643214643214783C1E1E140A0522F6
:1003200023252628292A2C2D2F3032333536383AEA
:100330003B3D3E4042434547494A4C4E5051535540
:1003400057595A5C5E6062646668696B6D6F717361
:100350007577797B7D7F81838587898A8C8E909262
:100360009496989A9C9E9FA1A3A5A7A8AAACAEAF6D
:10037000B1B3B4B6B8B9BBBCBEBFC1C2C3C5C6C7B2
:10038000C9CACBCCCDCED0D1D2D2D3D4D5D6D7D763
:10039000D8D9D9DADADBDBDBDCDCDCDCDCDDDDDDAB
:1003A000DDDCDCDCDCDCDBDBDBDADAD9D9D8D7D7A7
:1003B000D6D5D4D3D2D2D1D0CECDCCCBCAC9C7C654
:1003C000C5C3C2C1BFBEBCBBB9B8B6B4B3B1AFAE92
:1003D000ACAAA8A7A5A3A19F9E9C9A989694929038
:1003E0008E8C8A89878583817F7D7B797775737110
:1003F0006F6D6B6968666462605E5C5A59575553ED
:1004000051504E4C4A4947454342403E3D3B3A38A5
:1004100036353332302F2D2C2A292826252322FF4A
:10042000AA7F554000010101010101010101020201
:100430000202020202020203030303030303030492
:10044000040404040404050505050506060606065D
:10045000070707070708080808090909090A0A0A17
:100460000B0B0B0C0C0C0D0D0D0E0E0E0F0F0F10B9
:100470001011111112121313141415151616171743
:10048000181819191A1A1B1B1C1D1D1E1E1F2020AF
:10049000212222232424252626272829292A2B2CF9
:1004A0002D2D2E2F30313232333435363738393A1C
:1004B0003B3C3D3E3F404142434445464748494A14
:1004C0004C4D4E4F50515354555658595A5B5D5EE2
:1004D0005F616264656668696B6C6D6F707273757D
:1004E00077787A7B7D7E8082838587888A8C8E8FE1
:1004F00091939596989A9C9EA0A2A3A5A7A9ABAD0F
:10050000AFB1B3B5B7BABCBEC0C2C4C6C9CBCDCFFC
:10051000D1D4D6D8DBDDDFE2E4E7E9EBEEF0F3F5AA
:10052000F8FAFDFF100341004C004500540048005C
:100530003400320000000E03320035004B0045004D
:100540005900530000000403090409025B00030181
:1005500000A0FA09040000010301010009211101B2
:1005600000012240000705810308000A0904010078
:1005700002030000000921110100012222000705E9
:100580008203200001070503032000010904020083
:1005900001030000000921110100012232000705BA
:1005A000840320000A1201100100000008D804C8CA
:1005B000EA0000010200010660FF0961A101096271
:1005C000150026FF00952075088102096315002695
:1005D000FF00952075089102C005010980A10185E1
:1005E0000319012AB700150126B70095017510817E
:1005F00000C0050C0901A101850419012AA00215FA
:100600000126A002950175108100C005010906A10F
:1006100001050719E029E7150025019508750181F5
:10062000029501750881010507190029FF150026AB
:10063000FF00950675088100050819012905950533
:1006400075019102950175039101C00011241FBE2F
:10065000CFEFD4E0DEBFCDBF04B603FE27C080914C
:10066000DE029091DF02A091E002B091E1028730BA
:10067000904BA740B04BD1F41092DE021092DF02F3
:100680001092E0021092E10214BE84B7877F84BF0B
:100690000FB6F894A89580916000886180936000FF
:1006A000109260000FBEE0E0F8E3099511E0A0E0D1
:1006B000B1E0ECEFFAE502C005900D92A43EB1075F
:1006C000D9F722E0A4EEB1E001C01D92AE3DB20721
:1006D000E1F70E947C260C947C2D0C940000CF93B3
:1006E00081112FC0C62F6091830270918402809186
:1006F0008502909186020E948F22823059F08330C9
:10070000D1F0811128C0CC2311F08BE221C08BE203
:1007100092E00AC08091CF02CC2349F082FD02C052
:1007200081E916C085E394E0CF910C94060482FD24
:10073000F9CF80E90DC0CC2311F089EA09C08AEA1B
:1007400007C0813041F4662311F08EE401C08BE4D0
:10075000CF910C94BC19CF9108959C013A95211525
:100760003F4138F5DC01AA27B270AC014427547030
:100770009C012227387094FF0FC090FF02C080E1D7
:1007800001C080E0AB2B09F08062452B09F080644A
:10079000232B69F080680BC0892F8170AB2B09F087
:1007A0008260452B09F08460232B09F08860FB01EF
:1007B00009940895CF93DF93EC01805E9109089727
:1007C00010F0209719F46FEC79E102C061E37CE14D
:1007D000CE010E94AD038C2FDF91CF910C94BB18FA
:1007E000CF93DF93EC010E945D19CE01805E9109E9
:1007F000089710F0209719F466ED79E102C068E3DC
:100800007CE1CE01DF91CF910C94AD03CF93DF93C8
:10081000EC010E94DA03CE01DF91CF910C94F0033A
:1008200081E0089581E008950C94120408950C94D9
:1008300016041F93CF93DF9300D000D01F92CDB743
:10084000DEB749835A836B8330912C0289819A8168
:10085000311114C0662359F0222349F00E946A2105
:10086000182F682F89819A810E940A2103C00E9453
:100870003B21182F69817A81812F04C00E946A214F
:1008800069817A810F900F900F900F900F90DF91F8
:10089000CF911F910C948314FC01262F408151812C
:1008A0006281738184810C941904CF93DF93EC01EE
:1008B00060E00E944C04BE01DF91CF910C941704BC
:1008C000FF920F931F93CF93DF93E82FF0E0E65949
:1008D000FD4FF490C82FC695C695C695D0E0FE0191
:1008E000E650FD4F0491877010E0082E02C0159568
:1008F00007950A94E2F701701127FE01E651FD4FBA
:10090000C491D0E002C0D595C7958A95E2F7C17031
:10091000DD270115110519F081EE0E94BB18209703
:1009200019F086EE0E94BB188F2D0E94BC19CD2BAA
:1009300019F086EE0E945D19012B41F081EEDF91E6
:10094000CF911F910F91FF900C945D19DF91CF9182
:100950001F910F91FF900895EF92FF921F93CF93F5
:10096000DF93EC01162F8881882309F453C081306E
:1009700009F041C08981813041F47E0182E0E80EB6
:10098000F11C8A810E94BC1909C0823049F47E01A1
:10099000E2E0EE0EF11C8A810E94BB18E7012DC037
:1009A000833041F47E01F2E0EF0EF11C8A810E9457
:1009B0005D19F4CF843011F021961FC02A81229650
:1009C00080E090E030E0205331092A30310548F4CE
:1009D0006AE070E00E940F2C820F931F21962881FD
:1009E000F1CF009751F0EFE9FFE03197F1F700C048
:1009F00000000197F6CF0E9460042196812F882382
:100A000009F4B1CFEFE9FFE03197F1F700C0000042
:100A10008150F5CFDF91CF911F91FF90EF90089516
:100A200060E00C94AC048F929F92AF92BF92CF92F1
:100A3000DF92EF92FF920F931F936B017C0181E095
:100A400090E0A0E0B0E04C015D0104C0880C991C6E
:100A5000AA1CBB1C4A95D2F7AC01BD0104C0440FCF
:100A6000551F661F771F2A95D2F7482959296A29E9
:100A70007B2904C0880F991FAA1FBB1F0A95D2F7B4
:100A80008A019B010C211D212E213F214017510776
:100A90006207730739F4BC01CD016C297D298E29C9
:100AA0009F290AC080959095A095B095BC01CD0175
:100AB0006C217D218E219F211F910F91FF90EF903E
:100AC000DF90CF90BF90AF909F908F9008950F933D
:100AD000382F262F609183027091840280918502C5
:100AE00090918602042F432F0E9413050F910C94BE
:100AF00046200E94E1240E94E522811102C00E944A
:100B00008C230C94D2070C94CE0708950E94551C98
:100B10000E9485052FEF84E39CE0215080409040A7
:100B2000E1F700C000000C94BB240F931F93CF93F8
:100B3000DF93EC0161E00E944C048C01BE010E9435
:100B400062128823A9F1BE01C8010E9414048823FF
:100B500079F1BE01C8010E94B815882349F1BE0190
:100B6000C8010E940A16882319F1BE01C8010E941B
:100B700035178823E9F0BE01C8010E946710882359
:100B8000B9F08A81882369F001158CE5180731F0E6
:100B90000E3D1C4531F40E948C230AC00E9486053C
:100BA00007C0CE01DF91CF911F910F910C941004DB
:100BB00080E0DF91CF911F910F91089508950C94DB
:100BC000DE0581E008950C94E105CF93C82F0E94C3
:100BD000DF058C2F0E94E305CF910895CF93DF931B
:100BE0000E9483140E94E606EC0181159245F0F5FF
:100BF000C11581E5D80708F0AEC0C83ED10528F57B
:100C0000C03ED10508F0DEC0C83AD10578F4C53A37
:100C1000D10508F076C0C130D10509F4D3C008F47D
:100C2000CFC0C430D10508F0CDC0CAC0CF3BD1057C
:100C300008F0C6C0C85AD0E0CC0FDD1FCC5DDE4F37
:100C40000990D881C02DD464BDC0C11590E5D907E5
:100C500008F062C0C11520E4D20708F05AC0CE01E6
:100C60009A9581159F4108F4ADC0AAC0C11586E5CB
:100C7000D80728F5C11595E5D90708F087C0C11533
:100C800024E5D20708F07DC09E01237033278C2F06
:100C900086958695C115D34508F062C0C1E0D0E0C5
:100CA00002C0CC0FDD1F2A95E2F790E075E0880FB7
:100CB000991F7A95E1F7C82BD92BDC6883C0C11541
:100CC0002AE5D20778F4C11589E5D80708F068C08D
:100CD000C11598E5D90708F473C0DC2FCC27C06F85
:100CE000D06A70C0CE0190568115904208F068C05D
:100CF0008D2F8F710E947A07DD27D0628F71D82BDC
:100D000061C0C55AD0E0CE5ADE4FC881D0E0D06471
:100D100059C0DF70D06A56C0CE01F4E09695879531
:100D2000FA95E1F7282F23703C2F337081E090E093
:100D300002C0880F991F3A95E2F79C68922BCF70FA
:100D4000C695C695D0E0A5E0CC0FDD1FAA95E1F7CA
:100D5000C82BD92B37C0DC2FCC27C16FD06A32C04B
:100D6000C1E0D0E002C0CC0FDD1F2A95E2F790E091
:100D700065E0880F991F6A95E1F7C82BD92BDA68CF
:100D800021C0DC2FCC27C46FD06A1CC08C2F0E94DE
:100D90007A078F71C82FD0E0DC2FCC27D06212C029
:100DA0008C2F8F700E947A0794E0D695C7959A95FC
:100DB000E1F7CF70D0E0DC2FCC27D069C82B02C080
:100DC000C0E0D0E0CE01DF91CF9108958238910547
:100DD00069F1B0F48133910509F46DC048F48932AA
:100DE000910509F463C08A32910509F469C0089538
:100DF0008533910509F455C089339105B9F00895FB
:100E0000833E910569F138F4803E9105B1F0823E50
:100E1000910509F10895863E9105A9F1873E910556
:100E2000B9F1843E910509F064C023C02091CF023E
:100E300020FD4FC021FD4DC008958091CF0280FD5F
:100E400044C08091D00280FF44C08091CF0284FDD5
:100E500042C083EE4DC08091CF0282FF38C0F5CFF3
:100E60008091CF0282FD33C08091D00280FD31C0DD
:100E7000ECCF8091D00281FF32C08091CF0284FDFF
:100E80002AC087EE35C08091CF0283FF26C0F5CF00
:100E90008091CF0283FD21C08091D00281FD1FC0CF
:100EA000ECCF8091CF0285FD1CC01DC08091CF0288
:100EB00085FD19C016C08091CF0286FD16C017C0EF
:100EC0008091CF0286FD13C010C089E311C082EE6D
:100ED0000FC080EE0DC080E00BC086EE09C084EE2E
:100EE00007C089E205C085E303C08AE201C081E34F
:100EF00090E008959091CF0292FF0DC0282F2871A5
:100F0000283019F4877F846006C0282F247124308C
:100F100011F48B7F886093FF0DC0282F2871283132
:100F200019F4877E846106C0282F2471243111F4BE
:100F30008B7E88612091D00220FF0DC0382F387140
:100F4000383019F4877F816006C0382F3171313015
:100F500011F48E7F886021FF0DC0282F2871283161
:100F600019F4877E816106C0282F2171213111F487
:100F70008E7E886194FD877E0895E82FF0E0EE0F65
:100F8000FF1FE455FD4F808191810895089580EA07
:100F90008A95F1F7089508950C94CB070C94CC072B
:100FA0000C94CB070C94D007F894E82FE295EF70DF
:100FB000F0E031A1282F2F7081E090E001C0880F70
:100FC0002A95EAF7982F9095932391A392A1892BC4
:100FD00082A3789408950F931F93CF93DF9380E3B8
:100FE0000E94D40781E30E94D40782E30E94D407C1
:100FF00083E30E94D407C5E5D1E000E611E08991C2
:101000000E94D4070C171D07D1F71092A502109269
:10101000A4021092AD021092AC021092A70210929C
:10102000A6021092AF021092AE021092A902109284
:10103000A8021092B1021092B0021092AB0210926C
:10104000AA021092B3021092B20284E00E94BA087F
:10105000DF91CF911F910F910C9479057F928F9220
:101060009F92AF92BF92CF92DF92EF92FF920F9337
:101070001F93CF93DF93C0E6D1E084EAA82E82E0ED
:10108000B82E9CEAE92E92E0F92E712C01E010E0D6
:101090006E018881F894E82FE295EF70F0E021A1CD
:1010A0008F70A80102C0440F551F8A95E2F7CA014C
:1010B000922F982B91A392A18095892382A3789453
:1010C0000E94C707E5E5F1E020E030E0812C912C9B
:1010D0004191A42FA295AF70B0E090968C9190E0D2
:1010E0004F7002C0959587954A95E2F780FD08C03C
:1010F000C801022E02C0880F991F0A94E2F702C0AD
:1011000080E090E0882A992A2F5F3F4F2B303105ED
:10111000F9F62196F60180810E94D407F5018081BD
:1011200091818816990621F09182808281E001C028
:1011300080E0782AF2E0AF0EB11CEA14FB0409F05B
:10114000A7CF272D44E06CEA72E084EA92E00E9487
:10115000BB080E948305872DDF91CF911F910F91CE
:10116000FF90EF90DF90CF90BF90AF909F908F90C7
:101170007F9008950895FF920F931F93CF93DF936D
:10118000F82E092F162FD72FC42F222349F081E0E4
:101190008093E6010E946E249093E5018093E40120
:1011A0008091E6018823D9F08091E4019091E501D6
:1011B0000E948624069798F0EF2DF02FA12FBD2FC7
:1011C00080E090E04C2F50E08417950734F4219193
:1011D00031912D933D930196F7CF1092E601DF9167
:1011E000CF911F910F91FF900895EF92FF920F936F
:1011F0001F93CF93DF93E82F71110AC0442321F08E
:10120000F0E0EC5DFB4FE4916E2F7E2F8E2F6CC0D3
:10121000C62FD0E0072F10E0282F30E0442329F01C
:10122000F901EC5DFB4F249130E0CE0166E070E007
:101230000E940F2CEE24EA94F12CB7010E94532C4B
:10124000DB01CC0FDD1FCB016BEA7FEF0E940F2C7F
:101250008C0F9D1FC82FCC0FC80FC701801B910B8F
:10126000B9010E940F2CE92F492FD0E0CE01B8011F
:101270000E940F2C692F70E0C701861B970BB901E4
:101280000E940F2CF92FC7018C1B9D0BB8010E94E7
:101290000F2C692F70E0C701861B970BB9010E94C4
:1012A0000F2CA230B10591F038F4109759F0119736
:1012B000C1F48E2F7F2F0CC0A430B10579F050F00F
:1012C000169779F4722F842FE92F0DC0892F7E2F66
:1012D000E22F09C0822F7E2FEF2F05C0822F792F9A
:1012E00002C0722F8F2F6E2FDF91CF911F910F9120
:1012F000FF90EF90089541E00E94F5080895089549
:101300000E947B090895CF93DF93762FE901682F20
:10131000842F0E948009798368838A83DF91CF912B
:1013200008958091B402282F269530E021153105CB
:1013300019F48170826005C02B32310524F0817070
:1013400084658093B402089588E090E00C941D2D8C
:10135000CF92DF92EF92FF926B017C010E94910984
:10136000B701A60188E090E0FF90EF90DF90CF906A
:101370000C943B2D6091B4027091B5028091B6023D
:101380009091B7020C94A809E4EBF2E083E080832B
:1013900011828FEF828383831482608171818281C5
:1013A00093810C94A8098091B40280FF02C08695B5
:1013B000089580E008959091B802933018F49F5FEB
:1013C0009093B802882351F06091B4027091B502F5
:1013D0008091B6029091B7020C94A809089581E01B
:1013E0000C94DB099091B802992319F091509093D5
:1013F000B802882351F06091B4027091B5028091D7
:10140000B6029091B7020C94A809089581E00C945B
:10141000F2098091B80208958093B802662351F0D2
:101420006091B4027091B5028091B6029091B702BA
:101430000C94A809089560E00C940C0A8091B50200
:1014400008958091B60208958091B702089570E0E2
:101450000C94D810309108018091B40280FF0CC028
:101460008091070190E063E070E00E940F2C632FF1
:1014700087549D4F0C94270A2091090140910A013D
:10148000241770F7822F90E063E070E00E940F2C29
:10149000FC01E754FD4F1182108212822F5FF0CFC2
:1014A000A82FB62F8091B40280FF16C020910901A9
:1014B00030910A01231770F4822F90E063E070E00E
:1014C0000E940F2CFC01E754FD4FA183B08342839F
:1014D0002F5FF0CF0C942A0A0895CF93DF9300D0AA
:1014E0001F92CDB7DEB79091B40290FF0AC09E0163
:1014F0002F5F3F4F0E9483094B8169818A810E943F
:10150000500A0F900F900F90DF91CF910895CF93D5
:10151000DF93EC01EC81F0E0E15EFC4F4491E4EB01
:10152000F2E0628181810E946D0A8C818F5F8C83E1
:10153000DF91CF910895CF93DF93EC01E4EBF2E0DC
:10154000438162818C810E946D0A8C818F5F8C83C4
:10155000DF91CF9108950F931F93CF93DF9300D026
:101560001F92CDB7DEB78C018091E70181110AC0CF
:101570009E012F5F3F4F4FEF6FEF0E9483098A81DB
:101580008093E701F8018481813051F028F08230A6
:1015900061F44091E7010AC08091E70140E007C093
:1015A0006091E70140E080E003C040E080E060E05F
:1015B0000E94500AF801848190E0019663E070E097
:1015C0000E94672C84830F900F900F90DF91CF9132
:1015D0001F910F910895AF92BF92CF92DF92EF9239
:1015E000FF920F931F93CF93DF9300D01F92CDB73D
:1015F000DEB7182FF62E042FE22E9091B40290FF42
:101600006EC0E92FE695AE2FB0E0AC59BE4F8C917D
:10161000809311029E7F923061F49E012F5F3F4FB5
:10162000812F0E9483094B8169818A810E94500A1F
:1016300044C0823019F40091B7023FC0863019F4DB
:101640001091B5023AC08930D9F38931B1F5E95129
:101650004E2F4170D42EE695F0E0E15EFB4FA59051
:10166000B490C12CBB2440910B01C41620F52C2D45
:1016700030E0C501B9010E940F2C642F70E00E9478
:10168000532CE12FD11002C0E60F01C0E61B809160
:101690000901A901480F511DCA0163E070E00E94D1
:1016A0000F2C9C0127543D4F402F6F2D8E2F0E94F1
:1016B0008309C394D8CF0E942A0A1093B502F092EE
:1016C000B6020093B702EE2051F06091B40270911F
:1016D000B5028091B6029091B7020E94A8090F90BE
:1016E0000F900F90DF91CF911F910F91FF90EF908E
:1016F000DF90CF90BF90AF900895E4EBF2E091813E
:10170000282F4381628188E0890F0C94EB0A81E0E5
:101710000C947D0BE4EBF2E09181282F43816281F0
:1017200088EF890F0C94EB0A81E00C948A0BE4EBB0
:10173000F2E0628128E0620F08F46FEF282F438106
:1017400081810C94EB0A81E00C94970BE4EBF2E0BE
:10175000628128E0621B08F460E0282F43818181C8
:101760000C94EB0A81E00C94A60BE4EBF2E04381CD
:1017700028E0420F08F44FEF282F628181810C94FA
:10178000EB0A81E00C94B50BE4EBF2E0438128E036
:10179000421B08F440E0282F628181810C94EB0AFF
:1017A00081E00C94C40B20E00C94EB0AEF92FF92C2
:1017B0001F93CF93DF93EC0110E0EE24EA94F12C19
:1017C00030910B01131700F520910901812F90E052
:1017D000820F911D63E070E00E940F2CFC01E75422
:1017E000FD4F632F70E0C7010E94672C812F0E947C
:1017F000062C9C819F014091B7026091B602890F2F
:101800000E9483091F5FDCCF0E942A0A9A818C8183
:1018100090FF02C08F5F01C081508C83DF91CF9118
:101820001F91FF90EF900895AF92BF92CF92DF92F9
:10183000EF92FF920F931F93CF93DF93FC0182816E
:1018400080FF02C0DFEF01C0D1E0C0E036E0A32E90
:1018500080910B01C81708F043C080910901CC2E7C
:10186000D12C9601280F311DC90163E070E00E9460
:101870000F2C87549D4F7C01FC0111821082128233
:1018800004E010E0B12C8091E9018B0D87302CF041
:101890006A2D0E94452C892F05C087FF03C09091B7
:1018A0000B01890F082E000C990BC816D90691F46C
:1018B0008091B70290E0B8010E940F2C9595879512
:1018C000959587959701482F6091B6028091B50252
:1018D0000E948309BD0E01501109A9F6CF5FB8CF50
:1018E0000E942A0A8091E901D13031F4811102C0AD
:1018F00080910B01815007C090E0019660910B012F
:1019000070E00E94672C8093E901DF91CF911F91D5
:101910000F91FF90EF90DF90CF90BF90AF90089520
:10192000CF932091090130910A01231770F4822F7F
:1019300090E063E070E00E940F2CFC01E754FD4F43
:101940001182108212822F5FF0CFC0E060910B01F4
:10195000C61790F5EC2FF0E070E0CF010E94672CE5
:1019600090910901890F2091E801022E000C330BA0
:1019700090E063E070E00E940F2CE217F307A4F000
:1019800020910601022E000C330B2E173F0764F046
:101990009C0127543D4F4091B7026091B60280915F
:1019A000B5020E94830906C0FC01E754FD4F118275
:1019B00010821282CF5FCACF0E942A0A20910501AD
:1019C0008091E801820F8093E80190910601920FC7
:1019D0009093060119165CF4082E000C990B4091A7
:1019E0000B0150E041505109841795071CF02195D7
:1019F00020930501CF9108954F925F926F927F924D
:101A00008F929F92AF92BF92CF92DF92EF92FF920E
:101A10000F931F93CF93DF938C01FC01C481CC2ED5
:101A2000D12CE12CF12CA7019601C701B6010E942F
:101A3000202CA70196010E94202C4B015C0180E222
:101A400090E06C01CC1AD1080D2C000CEE08FF08B8
:101A500025E530E040E050E0C501B4010E94202CB3
:101A60002B013C01A7019601C701B6010E94202C61
:101A7000A70196010E94202C9B01AC01280D391D65
:101A80004A1D5B1DC301B2010E947B2CD22F822F05
:101A900090E02A3230F025E530E0A901481B590BCF
:101AA000CA0163E070E00E940F2C97FD01969595A6
:101AB0008795C82FC095F12C85E5E82EED1A809109
:101AC0000B01F816D0F4F1FC02C0EE2D01C0ED2F91
:101AD000209109018F2D90E0820F911D63E070E04D
:101AE0000E940F2C9C0127543D4F4C2F6091B60251
:101AF0008E2F0E948309F394E2CF0E942A0AF801F4
:101B00008481811102C091E003C0803219F49FEFFB
:101B10009093040190910401890FF8018483DF916F
:101B2000CF911F910F91FF90EF90DF90CF90BF90DA
:101B3000AF909F908F907F906F905F904F9008959F
:101B40000F931F93CF93DF93EC0100E010E04091DF
:101B50000B01842F90E0081719072CF580910901DB
:101B60009801280F311DC90163E070E00E940F2C1D
:101B70009C0127543D4F469550E08C810417150772
:101B80001CF4882331F002C0811103C04091B702D8
:101B900001C040E06091B6028091B5020E948309C5
:101BA0000F5F1F4FD4CF0E942A0A8C8190E00196CC
:101BB000817099278C83DF91CF911F910F910895A8
:101BC0009F92AF92BF92CF92DF92EF92FF920F93CC
:101BD0001F93CF93DF93FC010281A48081E0848373
:101BE00010E08BE4B82E99249394EE24EA94F12C1F
:101BF0002BE4C22ED12C80910B01181708F096C04F
:101C0000C12FD0E0CE0165E070E00E940F2CFC01F6
:101C1000E651FE4FA11003C0138212826BC02381D4
:101C20002223A1F1215023834481442319F03B2D29
:101C3000321B01C0322FCE0165E070E00E940F2CF4
:101C4000FC01E651FE4F8091B702632F70E090E0F7
:101C50000E940F2CB6010E94532C6283211104C0F4
:101C6000442311F01482B382033008F043C0CE0144
:101C700065E070E00E940F2CFC01E651FE4F809160
:101C8000B50280838091B602818334C00E94F82C13
:101C9000823091407CF5033038F00E94F82CB70177
:101CA0000E94672C282F02C02091B502CE0165E06A
:101CB00070E00E940F2C86519E4FFC012083033060
:101CC00058F00E94F82C2091B6022695622F70E001
:101CD0000E94672C280F02C02091B602CE0165E059
:101CE00070E00E940F2CFC01E651FE4F218312820E
:101CF000B3829482809109019E01280F311DC90190
:101D000063E070E00E940F2C9C0127543D4FCE01F0
:101D100065E070E00E940F2CFC01E651FE4F42810D
:101D2000618180810E9483091F5F65CFDF91CF9120
:101D30001F910F91FF90EF90DF90CF90BF90AF90E9
:101D40009F900C942A0AE4EBF2E080818E7F8083DE
:101D500060817181828193810E94A8091092120290
:101D60002FEF80E792E0215080409040E1F700C0E3
:101D700000000C942A0AE4EBF2E080818E7F8083DD
:101D8000109212022FEF80E792E0215080409040A5
:101D9000E1F700C000000C942A0A10921202809110
:101DA0000F0281110AC081E080930F028091B4027A
:101DB000817080930E020C94BB0E08956091B40262
:101DC000669570E04BE050E08CE091E00E94082DB9
:101DD000892B19F481E0809312020E946E24909363
:101DE00009028093080208959091B40290FF35C0D3
:101DF0009170811102C0926006C08B3210F0946520
:101E000002C0880F982B9093B402662351F0609122
:101E1000B4027091B5028091B6029091B7020E940F
:101E2000A8096091B402669570E04BE050E08CE048
:101E300091E00E94082D892B19F01092120202C025
:101E40000E94DE0E81E080930B024091B702609108
:101E5000B6028091B5020C94D30B0895682F90912F
:101E6000B402969581E0890F8B3208F081E00C94E2
:101E7000F40E81E00C942E0F682F9091B402969589
:101E80008FEF890F09F48AE20C94F40E81E00C9430
:101E90003C0F61E00C94F40EE4EBF2E08081816091
:101EA000808386950C94490F8091B40280FD0C9438
:101EB000A30E0C944C0F60E00C94F40E8091100271
:101EC00081112EC00E94E522811104C00E948C2342
:101ED0000E94C4090E94A4096093B4027093B502E1
:101EE0008093B6029093B7026E7F61F40E94C4099A
:101EF0000E94A4096093B4027093B5028093B60265
:101F00009093B7020E949109109212028091B4023C
:101F100080FF03C086950E945B0F81E080931002D2
:101F20000895E4EBF2E080818160808386950C94D3
:101F30005B0F10920F0280910E0281110E94910F8F
:101F40000C94DE0E0F931F93CF93DF9380911202B8
:101F5000882309F49CC080911102E091B402E695B7
:101F6000E81BE0930A02823049F4F0E0E55EFC4FA2
:101F7000E491CE2FD0E007E81AE059C0863049F44A
:101F8000F0E0E85EFC4FE491CE2FD0E00BE91AE0E0
:101F90004EC0893051F4E695F0E0EB5EFC4FE491E1
:101FA000CE2FD0E006ED1BE042C08F3051F4E69515
:101FB000F0E0EE5EFC4FE491CE2FD0E004E11CE0B7
:101FC00036C0853149F4F0E0E15FFC4FE491CE2F5B
:101FD000D0E000E91CE02BC08831D9F0833239F41D
:101FE000EDE0F3E0C591D4910BEA1AE020C0843211
:101FF000A9F08532C1F48E2F63E00E94392CE92FBD
:10200000F0E0E65FFC4FE491CE2FD0E000EE1DE063
:102010000EC0C8E2D0E00CEF1CE009C0C4EFD1E074
:1020200000EA1DE004C0C0EDD7E00FE719E08091A1
:102030000B02882389F010920B020E946E249E01ED
:1020400020953095820F931F909309028093080288
:1020500010920D0210920C028091080290910902D8
:102060000E9486248C179D0790F0E0910802F09161
:102070000902CE0FDF1FD0930902C093080288E047
:1020800092E0F801DF91CF911F910F910994DF91B8
:10209000CF911F910F910895882311F0FA0101C08B
:1020A000FB010994CF93DF93C82FD62F0E94D30949
:1020B0008C1740F00E94D3098D1720F4DF91CF9147
:1020C0000C94390F8C2FDF91CF910C94490F0F9303
:1020D0001F93CF93FB01C281CC2309F463C08C0111
:1020E0000E94EB218272F801E25CFC45E431F105CB
:1020F00008F059C0E65CFF4F0C949D2C0E94540FD1
:1021000006C046E45FE069E37FE00E944C10C0E057
:102110004AC049E35FE066E47FE0F7CF44E95BE073
:1021200067E87BE0F2CF47E85BE064E97BE0EDCF76
:1021300042EB5BE063EA7BE0E8CF43EA5BE062EB23
:102140007BE0E3CF40ED5BE061EC7BE0DECF41EC98
:102150005BE060ED7BE0D9CF46E05AE06FEE79E0DE
:10216000D4CF4FEE59E066E07AE0CFCF81E017C0E0
:1021700065E082E010C068E086E00DC06EE089E0B6
:102180000AC064E18FE007C067E185E104C088E12F
:1021900006C062E289E10E945210B9CF83E20E9438
:1021A000490FB5CFC1E08C2FCF911F910F910895AA
:1021B0003F9A28B12F7738B130684FB7F894FC01B7
:1021C000CB0163E070E00E940F2C8E0F9F1FE81779
:1021D000F90789F0519168E038B9000000C057FF55
:1021E00028B9550F000000C000C000C028B900C0C9
:1021F0006A9591F7ECCF4FBF8FE594E00197F1F727
:1022000000C0000008950C946F03FF920F931F937A
:10221000CF93DF93C7E1D2E041EA51E02FE931E00B
:1022200061E070E0F2E0C931DF0709F44CC0FA0167
:102230000191AF01A02FA295AF70B0E09196EC9103
:1022400091970F70CB01002E01C0880F0A94EAF716
:10225000982F90959E2391969C93919792969C91FE
:102260009297892B92968C939297F90111919F01E5
:10227000E12FE295EF70F0E0F1A01F70CB01012E8D
:1022800001C0880F0A94EAF7982F90959F2191A397
:1022900092A1892B82A390968C9190E002C0959593
:1022A00087950A95E2F78170E0A1F0E002C0F5950C
:1022B000E7951A95E2F7E0FD02C090E001C092E0D8
:1022C000892B8993AFCFDF91CF911F910F91FF9011
:1022D00008953F924F925F926F927F928F929F925A
:1022E000AF92BF92CF92DF92EF92FF920F931F9324
:1022F000CF93DF9387E1682E82E0782E91EAE92E72
:1023000091E0F92E0FE911E025E1822E22E0922ED4
:10231000C3E1D2E063015301312C32E0432E512C52
:10232000D501ED915D014E2F440F440FF60141930D
:102330006F01D7012D917D01E22FE295EF70F0E062
:1023400080A190E02F7002C0959587952A95E2F7BD
:1023500081709927F80151918F01E52FE295EF7077
:10236000F0E020A130E05F7002C0359527955A95C6
:10237000E2F7F901E170FF2720FF02C0E2E0F0E0A0
:10238000E82BF92BE42BD301ED933D01EF70F0E046
:10239000E157FE4F9081F4018081890F8083823064
:1023A0003CF088818F5F888360E0832D0E94031159
:1023B000D4018C918F3F3CF488818150888361E007
:1023C000832D0E940311F4018081082E000C990BCB
:1023D000B2010E94672CD4018D934D013394219654
:1023E000B2E03B129DCFDF91CF911F910F91FF90F3
:1023F000EF90DF90CF90BF90AF909F908F907F90A5
:102400006F905F904F903F90089582E290E00E941D
:10241000152D813281F483E290E00E94152D8230E7
:1024200051F484E290E00E94152D91E0873009F08C
:1024300090E0892F01C080E081700895CF93C82F6C
:10244000811102C06FEF01C061E282E290E00E9460
:10245000292DC11102C06FEF01C062E083E290E05C
:102460000E94292DC11102C06FEF01C067E084E214
:1024700090E0CF910C94292D80E00E941E120C94C4
:10248000DF22089585E290E00E94152D682F70E00C
:1024900080E090E0089585E290E00C94292D0E9460
:1024A00041120E94051281110CC060E070E0CB0166
:1024B0000E944B120E9405140E94DD1481E00C94CE
:1024C0001E120895CF93FB01C281CC23E9F09C0139
:1024D00022513F452031310520F482510E94ED14F4
:1024E0000CC08031FFE59F0751F481E00E946C2011
:1024F00043E062E081E00E946705C0E018C08131DE
:102500009F45A9F482E0F2CF8031EFE59E0711F4F8
:1025100081E004C081319F4549F482E00E948D2012
:1025200043E062E081E00E94670501C0C1E08C2FBA
:10253000CF9108952FEFFC0120830895CF93DF936F
:10254000EC018881813889F028F48038A1F40E9458
:10255000240A10C0823861F0833869F40E941E0A90
:1025600089830E94210A8A8306C00E94D30902C07F
:102570000E94090A8983DF91CF910895CF93DF9359
:10258000EC0188818138B1F058F4803851F5D98157
:102590000E94210AC82F0E941E0A4D2F6C2F1DC0B9
:1025A0008238B1F08338E9F40E94240A482F6A8106
:1025B000898113C089810E945B0F8981811104C0C8
:1025C000DF91CF910C94BB0EDF91CF910C94910FC2
:1025D0008981DF91CF910C941B0ADF91CF910C94EC
:1025E000D30BDF91CF910895EF92FF920F931F933A
:1025F000CF93DF93EC01162F0196E8814E2F50E028
:10260000FA013197E331F10508F0ACC0E25BFF4F0E
:102610000C949D2C198289E056C08981823039F052
:10262000833061F0813029F50E947A2402C00E9433
:1026300042129A838B837C836D8396C07E0100E077
:10264000802F0E94BD07F701928383830F5FF2E022
:10265000EF0EF11C0430A1F787C08981823049F464
:102660006A817B818C819D810E94A32C0E944B12E8
:102670007BC0612FCE010E949A1276C04B816A8185
:1026800089810E94D7139C838D836EC02C813D81EC
:102690003227232732274B816A8189810E94F013D8
:1026A00063C00E94051460C00E94BE125DC00E94FB
:1026B0009E125AC00E94BA0957C00E94901424C0AA
:1026C0000E94921499838A834FC06B8170E0898144
:1026D0009A81AE014C5F5F4F9827892798270E9407
:1026E000951442C06B8170E089819A81AE014C5F84
:1026F0005F4F9827892798270E94BA1435C00E94F7
:10270000DD1432C00E94BE1389832EC06B8170E03D
:1027100089819A81AE014C5F5F4F9827892798275E
:102720000E943D1421C06B8170E089819A81AE01C5
:102730004C5F5F4F9827892798270E94611414C027
:102740000E943C1211C0CE010E9481252FEF81EE24
:1027500094E0215080409040E1F700C000000E94CA
:10276000BB2402C08FEF8883612FCE01DF91CF9110
:102770001F910F91FF90EF900C94812584E00895B4
:10278000E82F862F90E066E170E00E940F2C242F46
:1027900030E0220F331F280F391F8E2F90E068E59D
:1027A00070E00E940F2C820F931F869608950F935E
:1027B0001F93CF93DF930E94C0138C010E94152DAD
:1027C000C82FD0E0DC2FCC27C80101960E94152D20
:1027D0009E01282BC901DF91CF911F910F91089580
:1027E0000F931F93CF93DF93122F032F0E94C013D9
:1027F000EC01602F0E94292D612FCE010196DF91FF
:10280000CF911F910F910C94292DDF92EF92FF929F
:102810000F931F93CF93DF93C0E0D0E0CE0168E524
:1028200070E00E940F2C7C01D12C00E010E0F80138
:10283000EE0FFF1FEE0DFF1DE65FFE4F2591349159
:10284000402F6D2D8C2F0E94F0130F5F1F4F0B3008
:10285000110569F786E1E80EF11CD39484E0D812E3
:10286000E4CF2196C430D105C9F6DF91CF911F91F5
:102870000F91FF90EF90DF900895EF92FF920F93EA
:102880001F93CF93DF93EA017A01E60EF71E8C01C6
:10289000C8018696CE15DF0569F0003621E01207E3
:1028A00020F40E94152D888301C0188221960F5FA5
:1028B0001F4FEECFDF91CF911F910F91FF90EF90BF
:1028C0000895EF92FF920F931F93CF93DF93EA0146
:1028D0007A01E60EF71E8C01C8018696CE15DF053B
:1028E00059F0003621E0120718F468810E94292D62
:1028F00021960F5F1F4FF0CFDF91CF911F910F9166
:10290000FF90EF900895462F843038F4743028F407
:102910006B3018F4672F0C94D71380E090E0089583
:1029200080E108958AE792E00895EF92FF920F9375
:102930001F93CF93DF93EA017A01E60EF71E8C0115
:10294000C8018A579E4FCE15DF0569F00A3722E08D
:10295000120720F40E94152D888301C01882219649
:102960000F5F1F4FEDCFDF91CF911F910F91FF9020
:10297000EF900895EF92FF920F931F93CF93DF9301
:10298000EA017A01E60EF71E8C01C8018A579E4FB4
:10299000CE15DF0559F00A3722E0120718F46881D6
:1029A0000E94292D21960F5F1F4FEFCFDF91CF910E
:1029B0001F910F91FF90EF900895CF93DF93C6E89A
:1029C000D1E060E0CE010E94292D2196C11584E05E
:1029D000D807B9F7DF91CF910895DF92EF92FF9278
:1029E0000F931F93CF93DF9300D000D0CDB7DEB706
:1029F000F82E8FE08F15E8F18FEF93E00E94152DF0
:102A0000811137C006E811E0FF2069F0011584E06C
:102A1000180779F1C8010E94152D811101C0FA949F
:102A20000F5F1F4FF1CF19821A821B821C82DD2497
:102A3000D39478018FEFE81AF80AC8010E94152D87
:102A400089831A828823A9F09FEF980F933058F456
:102A50008A83D9820E5F1F4FC7010E94152D8B8379
:102A6000882339F07801CE0101960E941005870174
:102A7000E0CF0F900F900F900F90DF91CF911F91AB
:102A80000F91FF90EF90DF9008950F931F93CF93D6
:102A9000DF93C42FD22FFC0182818823C9F0409399
:102AA0001B020E946E2490931A028093190280E206
:102AB0008C0F883008F057C0C77081E001C0880FC4
:102AC000CA95EAF7DF91CF911F910F910C94CF191E
:102AD00080911B02481330C08091190290911A0214
:102AE0000E948624883C910538F510E21D0FCD1711
:102AF000B9F080E28C0F883040F4C77081E001C0EB
:102B0000880FCA95EAF70E94D619183028F581E097
:102B10009D2F977001C0880F9A95EAF70E94CF19F0
:102B2000802F0E94BC191830F0F4D77081E001C0EA
:102B3000880FDA95EAF70AC080E28C0F883098F4A3
:102B4000C77081E001C0880FCA95EAF7DF91CF9185
:102B50001F910F910C94D619802FDF91CF911F9167
:102B60000F910C94BC19DF91CF911F910F91089593
:102B70000F939C01CB01233F4CE5340731F188F4DE
:102B8000283DFCE53F07D9F0293D4CE5340779F1B4
:102B9000273D3C45A9F506E221EE41EE67ED7CE5D7
:102BA0002BC0253FFCE53F07E1F0A8F0263F3C4560
:102BB00039F507E225EE46EE66EF7CE51DC007E23B
:102BC00025EE45EE68ED7CE517C006E221EE40EE0D
:102BD00063EF7CE511C007E225EE44EE64EF7CE58F
:102BE0000BC006E221EE42EE65EF7CE505C008E28F
:102BF00021E045EE69ED7CE50E94451580E008C0C6
:102C0000FC018281882319F010921B0201C081E02F
:102C10000F910895CF93DF93EC01FB01828188230C
:102C200009F41FC1C230FCE5DF0708F41BC1C6313F
:102C30009CE5D90738F09E012A5F3C4529303105D3
:102C400008F010C10E94F8229093D0028093CF0226
:102C5000C031ECE5DE0709F4C3C008F041C0C8305C
:102C60008CE5D80709F49AC0F0F4C430ECE5DE072F
:102C700009F487C068F4C2308CE5D80709F477C03E
:102C8000C330DC4509F0E3C08091CF02826076C09A
:102C9000C630ECE5DE0709F46EC008F07BC0809119
:102CA000CF0288606BC0CC308CE5D80709F485C0B2
:102CB00068F4CA30ECE5DE0709F474C008F079C0A6
:102CC0000E94551C8091CF02806858C0CE308CE5A0
:102CD000D80709F476C008F07FC08091CF028BC07E
:102CE000CB3FECE5DE0709F44FC018F5C3318CE5A6
:102CF000D80709F47DC078F4C131ECE5DE0709F4AA
:102D000073C0C231DC4509F0A2C00E94551C8091FD
:102D1000CF028F7733C0C5318CE5D80709F472C074
:102D200008F486C0CA3FDC4509F091C08091D0020A
:102D30003EC0CF3FFCE5DF0709F45FC058F4CD3F4C
:102D40009CE5D90709F444C008F43FC08091D00243
:102D500082602DC0C130FDE5DF0709F475C008F4BD
:102D60005DC0C230DD4509F072C080E06EC0809168
:102D7000CF02816003C08091CF0280618093CF0237
:102D800066C08091CF0211C08091D0028260809392
:102D9000D0025DC08091CF028062F0CF8091CF02DF
:102DA0008064ECCF8091CF0288608460E7CF81603F
:102DB000EECF8091CF028E7FE1CF8091CF028D7FC9
:102DC000DDCF8091CF02877FD9CF8091D00218C00C
:102DD0008091D0028D7FDBCF8091CF028F7ECECFCE
:102DE0008091CF028F7DCACF8091CF028F7BC6CFDB
:102DF0008091CF02877F8B7FC1CF8091D0028D7F62
:102E00008E7FC5CF8091CF0282FB222720F991E0EF
:102E1000922790FB82F990FB83F9B0CF8091D0028A
:102E2000982F909591708E7F892B90FB81F9AFCF71
:102E30000E94551C8091CF0287FB222720F991E048
:102E4000922790FB87F99ACF81E00E948E23809190
:102E5000CF029091D0020E9409230E94551C80E06D
:102E600001C081E0DF91CF910895CF93DF93863148
:102E70009C4541F5EB010E94EB21982F8A8120911E
:102E8000170130911801882379F09A7A81E009F4CA
:102E900080E080931C02911102C069E201C065E3E9
:102EA000C9010E94D5230AC080911C02811102C071
:102EB00069E201C065E3C9010E94D7230E942C2268
:102EC00080E001C081E0DF91CF91089590932202CC
:102ED000809321020895E0912102F091220230971F
:102EE00021F00190F081E02D099480E00895E091B7
:102EF0002102F0912202309721F00280F381E02D2F
:102F00000994089520911F02309120022817390753
:102F100071F09093200280931F02E0912102F091C2
:102F20002202309721F00680F781E02D0994089560
:102F300020911D0230911E022817390771F09093DD
:102F40001E0280931D02E0912102F091220230972F
:102F500021F00084F185E02D0994089581E0089521
:102F60000C94AE1708950C94B2170C94B2170C94ED
:102F7000B5170C94B2170C94B9170C94B2170E94A1
:102F8000BD170C94BB170E9465240E94EB070E949A
:102F90004F120E94F5240E945E0F0E9405110C94AE
:102FA000B7177F928F929F92AF92BF92CF92DF928C
:102FB000EF92FF920F931F93CF93DF93CDB7DEB7BE
:102FC0002A970FB6F894DEBF0FBECDBF0E94B3178D
:102FD0000E94B2170E942E080E94B017811111C0E2
:102FE0008FEF89838A831B820E946E248160782FF1
:102FF0009D838C8349815A816B818D810E948718C2
:103000004FC044E2A42E42E0B42E00E010E0702E47
:10301000802F0E94BD076C01F501819091905F01A6
:10302000882699268114910431F40F5F1F4F0430D4
:10303000110569F7D5CF8091980281FD0E94C607DE
:1030400080E0EE24E394F12C94012E213F21232BE8
:1030500009F18E837F82CE20DF2081E0CD2809F424
:1030600080E088870E946E248160782F9A87898704
:103070004E815F8168858A850E948718000F111F25
:10308000F801EC5DFD4F80819181E826F926F182FF
:10309000E08206C08F5FEE0CFF1C8B30A9F6C5CF17
:1030A0000E94A20F0E9469110E946B179091230247
:1030B0008917C9F00E946B17809323022A960FB6D6
:1030C000F894DEBF0FBECDBFDF91CF911F910F915E
:1030D000FF90EF90DF90CF90BF90AF909F908F9038
:1030E0007F900C94E5052A960FB6F894DEBF0FBECC
:1030F000CDBFDF91CF911F910F91FF90EF90DF90A7
:10310000CF90BF90AF909F908F907F900895CF9376
:10311000DF93CDB7DEB72B970FB6F894DEBF0FBEA7
:10312000CDBF4F83588769877A878B87DE011196D9
:1031300086E0FD0111928A95E9F785E0FE01379658
:1031400001900D928A95E1F749815A816B817C81CA
:103150008D819E810E94471F2B960FB6F894DEBF8B
:103160000FBECDBFDF91CF910895FC018081918189
:103170000E94AC210895CF93882309F49CC0C82FE6
:103180008238C1F40E946B1781FD95C069E380917C
:103190001701909118010E94D5230E942C222FEF35
:1031A00081EE94E0215080409040E1F700C00000A3
:1031B00069E319C0833801F50E946B1780FD7BC05D
:1031C00063E580911701909118010E94D5230E9418
:1031D0002C222FEF81EE94E0215080409040E1F7C7
:1031E00000C0000063E580911701909118010E94D2
:1031F000D723CF910C942C228438C1F40E946B17F2
:1032000082FD59C067E480911701909118010E94D6
:10321000D5230E942C222FEF81EE94E02150804094
:103220009040E1F700C0000067E4DDCF8CEF8C0F29
:10323000813AD0F46C2F80911701909118010E946F
:103240009F23882349F06C2F8091170190911801DA
:103250000E94D7230E942C226C2F809117019091FD
:1032600018010E94D523C5CF80E28C0F883048F426
:10327000C77081E001C0880FCA95EAF70E94EE216D
:10328000B8CFEBE5EC0FE33040F4F0E0EF52FE4F47
:10329000808190E0CF910C948217C85AC73158F4BE
:1032A000EC2FF0E0EE0FFF1FED55FE4F8081918176
:1032B000CF910C949817CF910895882309F45BC09F
:1032C000682F823879F40E946B1781FF54C069E33C
:1032D00080911701909118010E94D5230E942C2201
:1032E00069E310C08338B1F40E946B1780FF43C0BC
:1032F00063E580911701909118010E94D5230E94E7
:103300002C2263E580911701909118010E94D72328
:103310000C942C22843879F40E946B1782FF2BC006
:1033200067E480911701909118010E94D5230E94B3
:103330002C2267E4E7CF8CEF860F813A18F380E206
:10334000860F883048F4677081E001C0880F6A9565
:10335000EAF70E94F421DCCF8BE5860F833020F45E
:1033600080E090E00C948217685A673120F480E086
:1033700090E00C9498170895CF93C82F0E94BB1823
:10338000C93349F42FEF87EE93E0215080409040FD
:10339000E1F700C000008C2FCF910C945D198823B9
:1033A00021F00E94EE210C942C220895882321F014
:1033B0000E94F4210C942C220895CF92DF92EF9278
:1033C000FF920F931F93CF93DF937C01D62FC72FCC
:1033D000FC01058102950F70128111110E940B22D0
:1033E0000E94E421882399F0112389F08C2F807F9B
:1033F000803421F080E28D0F883048F082E00E9416
:1034000076220E94E42191E0D82ED92601C0D12C49
:10341000CC2EC2948FE0C8228C2D90E08C30910588
:1034200008F0ABC1FC01EF59FF4F0C949D2C8C2F81
:10343000807FCF70882311F0C295C07F112399F04F
:10344000CC2309F486C180E28D0F883010F0D111B1
:1034500004C08C2F0E94EE2103C08C2F0E94FE21FD
:103460000E942C2276C18D2F0E945D19CC2309F475
:1034700084C180E28D0F883010F0D11104C08C2FF0
:103480000E94F42103C08C2F0E9404220E942C224F
:1034900074C18C2F807FCF70803211F0C295C07FB5
:1034A000DD2319F0D130C9F022C0112371F00023BF
:1034B00041F0013031F40E9411228C2B0E9419221C
:1034C0005CC10E9411228C2B1DC0002319F0013019
:1034D00009F453C10E94222225C0112321F0063095
:1034E00008F04BC10EC0053008F047C11BC01123C6
:1034F00061F0002331F0F701858180FF2AC18F70D0
:1035000085838C2F0E94CF1938C1002359F0D933FD
:1035100009F030C1FFEF07EE13E0F150004010401A
:10352000E1F726C18C2F0E94D61927C18C2F8695D2
:103530008695837019F0813061F01FC1112321F04D
:103540008D2F9C2F937002C080E090E00E94821724
:103550001CC1112321F08D2F9C2F937002C080E09D
:1035600090E00E94981711C18C2F837009F047C01A
:10357000111107C12D2F229526952770220F220F9A
:103580006D2F6F70862F90E0A0E0B0E0022E04C097
:10359000880F991FAA1FBB1F0A94D2F7D4FF10C02F
:1035A0004FE050E060E070E004C0440F551F661F1C
:1035B000771F2A95D2F7409550956095709503C076
:1035C00040E050E0BA01C695C695C3708A019B01E0
:1035D000082B192B2A2B3B2BC901B801C23049F00B
:1035E00058F4C13019F00E942020CBC00E940E2058
:1035F000C8C00E943220C5C00E940C20C2C0112346
:1036000019F08C2F817001C08695882309F4B9C008
:103610002D2F229526952770220F220F6D2F6F7068
:10362000862F90E0A0E0B0E0022E04C0880F991F22
:10363000AA1FBB1F0A94D2F7D4FF10C04FE050E07E
:1036400060E070E004C0440F551F661F771F2A9585
:10365000D2F7409550956095709503C040E050E0DA
:10366000BA01C695C695C3708A019B01082B192B18
:103670002A2B3B2BC901B801C23049F058F4C130A4
:1036800019F00E94E5207DC00E94D3207AC00E94DC
:10369000F72077C00E94462074C0CF70112339F004
:1036A0008C2F0E946C208D2F0E94CF196AC08D2F05
:1036B0000E94D6198C2F0E948D2063C0D23F01F149
:1036C00028F4D03F41F0D13FA1F03FC0D33FF9F003
:1036D000D43F39F13AC0112341F0053008F04DC014
:1036E0008C2F8F710E94B22048C0063008F045C070
:1036F000F7CF112339F08C2F8F710E946C203DC0C1
:103700001123C9F38C2F8F710E948D2036C0112395
:1037100029F08C2F8F710E9457202FC00E945220B9
:103720002CC0112349F0CF718C2F0E946C2063E0D4
:103730008C2F0E94612221C081E00E9476220230FB
:10374000E0F082E00E94762218C0112331F00023BD
:1037500091F28D2F0E94BB1810C0002399F2D9332B
:1037600049F41FEF27EE33E0115020403040E1F7DD
:1037700000C000008D2F0E945D1988EF8C0D8430F1
:1037800020F40E946B170E94E505DD20C9F00E941D
:10379000E02180FD15C0F70112820E94DA210E940B
:1037A0006C20C7010E94011C0E94DA21DF91CF9199
:1037B0001F910F91FF90EF90DF90CF900C948D2090
:1037C000DF91CF911F910F91FF90EF90DF90CF90FD
:1037D00008950F931F93CF93DF93EC016881798154
:1037E0008A810E94B7218C010E9409210E94FA1F40
:1037F000B801CE010E94DD19DF91CF911F910F9189
:103800000895CF93DF93EC01988189812B813C81CE
:10381000232B31F08F3F31F481E09F3F19F403C037
:1038200081E001C080E080FD19C0CE010E949505B5
:1038300081110CC00E94E421882381F08A818823B1
:1038400069F082E0DF91CF910C947622CE010E9444
:10385000E91BCE01DF91CF910C945504DF91CF91FC
:103860000895882321F00E94FE210C942C220895B3
:10387000882321F00E9404220C942C2208950E9497
:103880000B220E940E220E942C2280E090E00E94D7
:10389000821780E090E00C94981780911701909126
:1038A00018010E94D9230C943F1C0E94FB210C9408
:1038B0004D1CE92FE295EF704E2F50E0FA01329740
:1038C000EE30F105B0F4E359FF4F0C949D2C803F8E
:1038D00091F018F4883E68F40EC0843F51F40BC098
:1038E000883E48F0813F29F406C093FB882780F981
:1038F000089580E0089581E008950E94AC210E941F
:10390000591C0895CF93DF9300D000D01F92CDB7FC
:10391000DEB70F900F900F900F900F90DF91CF9127
:103920000895CF93DF9300D000D000D0CDB7DEB79D
:1039300026960FB6F894DEBF0FBECDBFDF91CF91B4
:103940000895CF93DF93C0912D0280912E02C81766
:10395000A1F0D0E0CE0166E070E00E940F2CFC01E7
:10396000E15DFD4F40815181628173818481958148
:103970000E94911C2196C770E8CFDF91CF910895E6
:1039800040915F0250916002609161027091620209
:1039900080916302909164020C94911CCF93B82F94
:1039A000C62F20912D02A0912E022A17B1F030E0EF
:1039B000C90166E070E00E940F2CFC01E15DFD4F43
:1039C00081818C1306C080818B1303C08281841394
:1039D00006C02F5F3F4F2770E8CF80E001C081E035
:1039E000CF9108951F93CF93DF93809164028295C6
:1039F0008F7009F05CC080916102882309F457C080
:103A000020912D0210912E02C0915F02D091600290
:103A1000A0916202B091630281E0CF3F09F080E0A3
:103A2000482F211709F443C0109721F0DF3F21F000
:103A300080E003C081E001C0842F30E080FD33C00E
:103A4000C90166E070E00E940F2CFC01E15DFD4FB2
:103A500081818D1328C080818C1325C082818111C2
:103A600022C0838194818A1B9B0B883C9105D8F4EA
:103A7000809164028F70806180936402C90166E066
:103A800070E00E940F2CFC01EC5CFD4F90819F7058
:103A9000906190838FE592E00E94011CDF91CF91AD
:103AA0001F910C94A11C2F5F3F4F2770BACFDF915D
:103AB000CF911F9108958F929F92AF92BF92CF9214
:103AC000DF92EF92FF920F931F93CF93DF93CDB7C7
:103AD000DEB761970FB6F894DEBF0FBECDBF8C0185
:103AE00085E0F801DE011D9601900D928A95E1F7BF
:103AF000D801DC901196EC9011971296CC90909191
:103B00005F02209160024091620250916302411570
:103B1000510531F02F3F31F481E09F3F19F403C08C
:103B200081E001C080E080FD81C1F8018380948044
:103B30008FE5A82E82E0B82EF0906102B401641BDC
:103B4000750BFF2009F418C180916402382F307F73
:103B5000683C710508F0D1C031118AC0E21214C06E
:103B6000D91212C0FC2CC1100FC08F7080618093DD
:103B700064020E94C01CC5010E94011C8091640265
:103B8000D80115968C936FC18114910439F0BFEF61
:103B9000EB1206C081E0DB1203C003C081E001C06C
:103BA00080E080FD03C081E08C2502C080E090E0D1
:103BB00080FF10C04C2D6E2D8D2D0E94CE1C8823B1
:103BC00049F08FE592E00E94011CEFE5F2E086E00B
:103BD000DF01A4C0892839F0BFEFEB1206C081E0F5
:103BE000DB1203C003C081E001C080E080FD03C0A0
:103BF00081E08C2502C080E090E0E82FE170BE2ECD
:103C000080FF2CC04C2D6E2D8D2D0E94CE1CF82EC9
:103C1000811124C0DD86EE868D859E850E94AC21B3
:103C2000292F22952F70223018F0243090F405C0EF
:103C30009F7059F0811109C016C19F7031F0D801F1
:103C400015969C91907F09F40EC1805E883008F42F
:103C50000AC1C8010E94011CFB2C05C1FC2CCC2010
:103C600009F401C1809164028160809364025BC0A9
:103C7000E21206C0D91204C0C11002C0F801A0C0EF
:103C8000DD86EE868D859E850E947D1C882379F1D8
:103C9000CC2069F120916402822F82958F7090E090
:103CA000029774F080915F029091600298878F83F1
:103CB00019869B868A862C87CE0107960E94011C56
:103CC00086E0F801AFE5B2E001900D928A95E1F748
:103CD0000E94F21C0E94C01C0DC0E21631F1DD866C
:103CE000EE868D859E850E947D1C81112DC0C801A8
:103CF0000E94011CFF24F394B6C03111EECF782D41
:103D0000998A888A4D2D5E2D6C2D89890E94821C8E
:103D10008FE592E00E94011C86E0D5011D928A95F4
:103D2000E9F70E94C01CF12C9EC0D912D8CFC11057
:103D3000D6CFF8018583C8010E94011C86E0D50119
:103D40001D928A95E9F78FC0CC2089F220916402F8
:103D5000822F82958F7090E002970CF4B1CF809102
:103D60005F02909160029A8389831B829D828C827C
:103D70002E83CE010196A2CF683C710508F047C0A2
:103D8000FC2CCC2009F4B3CFE21230C0D9122EC0E3
:103D90002091640220FD21C0822F82958F70482FD0
:103DA00050E041155105C9F0F80125834F30510508
:103DB00041F08F5F982F9295907F822F8F70892B83
:103DC0008583C8010E94011C86E0F801AFE5B2E0DE
:103DD00001900D928A95E1F744C086E0F801AFE5C5
:103DE000B2E001900D928A95E1F73DC0DD86EE8646
:103DF0008D859E850E947D1C811162CF8091640219
:103E0000816080936402C8010E94011C2CC0782D3F
:103E1000998A888A4D2D5E2D6C2D89890E94821C7D
:103E200086E0D5011D928A95E9F71BC0CC2009F4E4
:103E30005ECFDD86EE868D859E850E947D1CF82EE8
:103E4000882309F454CF86E0F801AFE5B2E0019091
:103E50000D928A95E1F78FE592E00E94B5180E94D5
:103E6000F21C0E94C01C8F2D61960FB6F894DEBF25
:103E70000FBECDBFDF91CF911F910F91FF90EF90BB
:103E8000DF90CF90BF90AF909F908F900895CF9389
:103E9000DF93CDB7DEB72C970FB6F894DEBF0FBE19
:103EA000CDBF4F83588769877A878B879C87CE01E0
:103EB00007960E945B1D8823D1F09F8188852A8503
:103EC0003B85232B31F08F3F31F481E09F3F19F484
:103ED00003C081E001C080E080FD6FC04F81588544
:103EE00069857A858B859C850E94911C66C086E0D9
:103EF000FE013796DE01119601900D928A95E1F749
:103F0000FF81E8856A857B856115710531F0EF3F9A
:103F100031F481E0FF3F19F403C081E001C080E08B
:103F200080FD4BC080912E0290E09C012F5F3F4F9F
:103F30002770332740912D0250E02417350709F4EC
:103F400043C0F983EA837D836C8366E070E00E945E
:103F50000F2CDC01A15DBD4F96E0FE013196019072
:103F60000D929A95E1F720932E020E94A11C25C084
:103F700090E066E070E00E940F2C815D9D4F0E94F2
:103F80005B1D882371F180912D0290E066E070E066
:103F90000E940F2CFC01E15DFD4F40815181628147
:103FA0007381848195810E94911C80912D0290E003
:103FB00001968770992780932D0280912D02909110
:103FC0002E028913D5CF0DC00E94551C10922E02CF
:103FD00010922D02EFE5F2E086E0DF011D928A9556
:103FE000E9F72C960FB6F894DEBF0FBECDBFDF9178
:103FF000CF910895089508950C94FB1F0C94FC1F15
:104000000E94FE1F6093870270938802809389024A
:1040100090938A020C943F1C0C9400200F931F93E2
:1040200000918702109188022091890230918A02C2
:10403000602B712B822B932B1F910F910C940020DE
:104040000F931F930091870210918802209189029B
:1040500030918A0260237123822393231F910F9151
:104060000C9400200F931F930091870210918802F7
:104070002091890230918A02602771278227932735
:104080001F910F910C9400200C94FB1F0E94442060
:1040900060938302709384028093850290938602DA
:1040A0000C943F1C60E070E0CB010C9446200F9311
:1040B0001F9341E050E060E070E08A019B0104C082
:1040C000000F111F221F331F8A95D2F7C901B801B3
:1040D0001F910F910C9446200F931F9341E050E0E5
:1040E00060E070E004C0440F551F661F771F8A957B
:1040F000D2F78091830290918402A0918502B091C1
:1041000086028A019B01082B192B2A2B3B2BC90104
:10411000B8011F910F910C9446200F931F9341E01B
:1041200050E060E070E004C0440F551F661F771F29
:104130008A95D2F74095509560957095809183024D
:1041400090918402A0918502B09186028A019B0120
:10415000082319232A233B23C901B8011F910F917A
:104160000C9446200F931F9341E050E060E070E014
:1041700004C0440F551F661F771F8A95D2F78091A0
:10418000830290918402A0918502B09186028A01F7
:104190009B01082719272A273B27C901B8011F912E
:1041A0000F910C9446200F931F930091830210915E
:1041B00084022091850230918602602B712B822B24
:1041C000932B1F910F910C9446200F931F930091F6
:1041D000830210918402209185023091860260232F
:1041E0007123822393231F910F910C9446200F93E8
:1041F0001F930091830210918402209185023091D7
:10420000860260277127822793271F910F910C94B4
:1042100046200895282F362F892F6BE00E94062C08
:10422000820F982F9770A1E001C0AA0F9A95EAF724
:1042300086958695869590E065E070E00E940F2C4B
:10424000FC01EB59FD4F40E050E0632F70E090819E
:104250009B01042E02C0369527950A94E2F721703F
:10426000219529272A23292721934F5F5F4F453026
:10427000510569F70895282F892F6BE00E94062CBD
:10428000820FA82FA77086958695869590E065E0A9
:1042900070E00E940F2CBC0140E050E080E0FB0188
:1042A000E40FF51FEB59FD4F208130E00A2E02C0CC
:1042B000369527950A94E2F721703327042E01C022
:1042C000220F0A94EAF7822B4F5F5F4F453051056A
:1042D00031F70895BF92CF92DF92EF92FF920F9342
:1042E0001F93CF93DF938C01C0908302D090840200
:1042F000E0908502F090860280918702909188027A
:10430000A0918902B0918A02C82AD92AEA2AFB2AF6
:10431000CFE1D0E0D701C6010C2E04C0B695A79519
:10432000979587950A94D2F780FD04C0219790F75E
:10433000B12C07C0BC2EB8018C2F0E94EE0501974E
:10434000A9F38B2DDF91CF911F910F91FF90EF90EB
:10435000DF90CF90BF900895CF93DF93EC010E9440
:104360006A21BE010E94EE05DF91CF9108951F934F
:10437000CF93DF93EB0190912C02992321F0CB0195
:104380000E94AC2113C0882349F0CB010E946A210E
:10439000182F682FCE010E940A2104C0CB010E9471
:1043A0003B21182FBE01812F0E94EE05DF91CF9196
:1043B0001F91089580918B02859585958595089527
:1043C00080918B028770089590918B02977081E0A5
:1043D00009F480E0089580919702089590919702E2
:1043E000892B809397020895809590919702892355
:1043F00080939702089510929702089590919602E3
:10440000892B809396020895809590919602892336
:104410008093960208951092960208951092950244
:10442000089580918C02089508950C9414220C94A0
:10443000152290918C02981721F080938C020C9495
:104440001722089580918C02882329F010928C0203
:1044500080E00C9417220895E0911701F091180163
:10446000809197028083E0911701F091180190816B
:1044700080919602892B8083E0911701F0911801B9
:10448000908180919502892B808380918C02882372
:1044900081F0E0911701F09118019081892B8083C0
:1044A00080911701909118010E94932381110E941D
:1044B000222280911701909118010C9477170C9487
:1044C0001422982F990F990F990F692B60938B02E3
:1044D0000E946C2080918B028595859585950C9422
:1044E0005F2210928B0280E00C945F2220918B025D
:1044F0008095822380938B02982F977079F430E017
:10450000482F082E000C550B2417350739F08595D8
:10451000859585950E948D200C9471220895CF92E7
:10452000DF92EF92FF926C01EE24FF24C114D104BC
:10453000E104F10421F0C701B60120E101C020E04F
:10454000C72ED82EE92EFF24C114D104E104F104B2
:1045500019F0285FC701B6016B017C0154E0F694A5
:10456000E794D794C7945A95D1F7C114D104E104C4
:10457000F10419F02C5FC701B6016B017C0142E028
:10458000F694E794D794C7944A95D1F7C114D1040F
:10459000E104F10419F02E5FC701B601DC01CB0183
:1045A000B695A79597958795892B8A2B8B2B09F024
:1045B0002F5F822FFF90EF90DF90CF9008956FEFE5
:1045C0007FEF80E090E00C94472D80E090E00E9427
:1045D000232D21E08C3E9E4F09F020E0822F08958C
:1045E00082E090E00C94152D83E090E00C94152D62
:1045F000CF9384E090E00E94152DC82F81E290E0D7
:104600000E94152D2C2F30E0A901582BCA01CF9103
:104610000895CF93C92F682F84E090E00E94292D40
:104620006C2F81E290E0CF910C94292DAB01BC015D
:104630008FE090E00C943B2DAB01BC0183E190E056
:104640000C943B2D60E070E0CB010C941C2360E0E7
:1046500070E0CB010E9416230C9422236CEE7EEFB7
:1046600080E090E00E94472D60E082E090E00E94B0
:10467000292D60E083E090E00E94292D10928702AE
:10468000109288021092890210928A0260E084E0FF
:1046900090E00E94292D60E081E290E00E94292DA7
:1046A00060E085E090E00E94292D60E086E090E0E7
:1046B0000E94292D6FEF87E090E00E94292D40E0B5
:1046C00050E0BA0188E090E00E943B2D60E08DE070
:1046D00090E00E94292D40E050E0BA0188E190E08E
:1046E0000E943B2D60E087E190E00E94292D40E090
:1046F00050E0BA018CE190E00E943B2D60E080E246
:1047000090E00E94292D40E050E0BA0188E190E05D
:104710000E943B2D0C9427230C942E23682F8EE0AF
:1047200090E00C94292DFC01329697E080E09150A6
:1047300029F021912223D9F38F5FF9CF08956623C1
:1047400049F0FC01329608962191621729F0E8178A
:10475000F907D1F780E0089581E008959C01FC01FC
:1047600032969FEF80E04191461789F09F3F19F400
:10477000411101C0982F8F5F8630A9F79F3F39F014
:10478000F901E90FF11D97FDFA95628308950895E7
:104790009C012A5F3F4FFC014281461301C01282F7
:1047A000019682179307B9F708950C94AE230C94E1
:1047B000C823029626E0FC0111922A95E9F7089594
:1047C00008950C94E0230C94E023CF930E94E323FC
:1047D0000E942E080E94E123C0E08C2F0E94BD079A
:1047E000892B29F4CF5FC430C1F780E001C081E09C
:1047F000CF9108950C94E0230C94FA230E94FC239B
:104800008091D502843059F11092990220E488E118
:1048100090E00FB6F894A895809360000FBE2093A7
:10482000600080E00E94E5050E94CD0E0E94FC23FE
:1048300083B7817F846083BF83B7816083BF7894AF
:10484000889583B78E7F83BF0FB6F894A895809123
:104850006000886180936000109260000FBE089530
:104860000C94E0230E94551C0E946B170E94E505E2
:104870000E94990F0C9430241F920F920FB60F9242
:1048800011248F939F93AF93BF93809199028111CD
:1048900013C08091CB029091CC02A091CD02B09137
:1048A000CE024196A11DB11D8093CB029093CC0204
:1048B000A093CD02B093CE02BF91AF919F918F9103
:1048C0000F900FBE0F901F90189582E084BD93E06B
:1048D00095BD9AEF97BD80936E0008952FB7F89419
:1048E0008091CB029091CC02A091CD02B091CE02EA
:1048F0002FBF08952FB7F8946091CB027091CC022E
:104900008091CD029091CE022FBF08959C014FB7A8
:10491000F8948091CB029091CC02A091CD02B091FD
:10492000CE024FBF821B930B089578941F920F9273
:104930000FB60F9211248F939F93AF93BF938091E3
:10494000CB029091CC02A091CD02B091CE02019603
:10495000A11DB11D8093CB029093CC02A093CD02F8
:10496000B093CE02BF91AF919F918F910F900FBEE8
:104970000F901F90189581E08093E00080E2809373
:10498000D8001092C9008FE19EE40197F1F700C0B2
:10499000000087E090EBDC018093DE029093DF0261
:1049A000A093E002B093E1029CE088E10FB6F89496
:1049B000A895809360000FBE90936000FFCF0C9489
:1049C0003C120E942E088FE39CE90197F1F700C08A
:1049D00000000E942E0880E00E94BD0780FF04C0F6
:1049E0000E94DF240C94BB2408950E94E5228111CB
:1049F00002C00E948C230E94F022809398020E94A1
:104A0000F8229093D0028093CF020E94F422682F64
:104A100070E080E090E00E940C2060918302709131
:104A2000840280918502909186020C9444208091AA
:104A3000A20208950895CF93DF9300D01F92CDB7BF
:104A4000DEB79091D502943011F589837B836A8318
:104A50009093E9008FEF9091E800815095FD06C09A
:104A600095ED9A95F1F700008111F5CF8091E8005E
:104A700085FF0DC040E050E063E070E0CE0101969C
:104A80000E945E278091E8008E778093E8000F9067
:104A90000F900F90DF91CF910895BC0184E00C94AA
:104AA0001B25BC0183E00C941B25CF93DF9321E0F1
:104AB0002093E9002FEF3091E800215035FD06C02A
:104AC00035ED3A95F1F700002111F5CF2091E8007E
:104AD00025FF14C0EC0140E050E068E070E00E9467
:104AE0005E278091E8008E778093E80088E0FE01E1
:104AF000AAE9B2E001900D928A95E1F7DF91CF919A
:104B00000895CF93603219F52091D5022430F9F43D
:104B1000C091E900CF703091EC00232F217030FD5F
:104B200020E8C22B22E02093E9002091E80020FF3A
:104B30000BC040E050E060E270E00E945E27809190
:104B4000E8008E778093E800CF70C093E900CF91A2
:104B50000895089508950C94322442E061EC81E0B8
:104B60000E94AD2842E261EC84E00E94AD2842E25E
:104B700061EC82E00E94AD2842E260EC83E00C949C
:104B8000AD288091D702833009F45EC030F48130C3
:104B900071F0823009F497C008958A3009F483C017
:104BA0008B3009F469C0893009F0A5C020C080911C
:104BB000D602813A09F09FC08091E800877F8093F8
:104BC000E8008091DA029091DB02892B21F468E001
:104BD0008AE992E003C060E080E090E070E00E942B
:104BE000F4278091E8008B778093E8000895809106
:104BF000D602813209F07FC08091DA029091DB0207
:104C0000009719F0029709F076C08091E800877F3D
:104C10008093E8008091E80082FD05C08091D50274
:104C20008111F8CF68C08091F200823029F4809120
:104C3000F1008B7F813021F48091F1008093A202FA
:104C40008091E8008B7753C08091D602813A09F0B9
:104C500052C08091DA029091DB02892B09F04BC09F
:104C60008091E800877F8093E8008091E80080FFD2
:104C7000FCCF8091230136C08091D6028132D9F5D4
:104C80008091DA029091DB02892BA9F58091E800EE
:104C9000877F8093E8000E94E2288091D802809369
:104CA00023010C94551C8091D602813221F580910C
:104CB000E800877F8093E8000E94E2288091D90273
:104CC0008093A30208958091D602813AA1F4809145
:104CD000E800877F8093E8008091E80080FFFCCFA8
:104CE0008091A3028093F1008091E8008E778093F9
:104CF000E8000C94E22808951F93CF93DF93CDB77B
:104D0000DEB7A0970FB6F894DEBF0FBECDBF84B755
:104D1000877F84BF0FB6F894A89580916000886162
:104D200080936000109260000FBE90E080E80FB6A4
:104D3000F89480936100909361000FBE0E94BF17AA
:104D40000E9434290E9487298091E2008460809328
:104D5000E20078940E94EB2B0E94C31789E191E056
:104D60000E94661713E08091D502853069F40E9495
:104D7000FE238091D3028823B1F30E94E523882388
:104D800091F30E944827EFCF0E94D1178091D5025E
:104D9000843009F51093E9008091E80082FF1BC080
:104DA0008091E80085FF0AC040E050E060E270E0DA
:104DB000CE0101960E94A92791E001C090E0809168
:104DC000E8008B778093E800992329F060E2CE0118
:104DD00001960E94F4120E94B3170E94B217C3CF2B
:104DE0000C94F226292F332723303105C9F060F4C3
:104DF0002130310581F02230310509F041C08BE5C9
:104E000090E02AE435E040C021323105E1F0223261
:104E1000310531F135C082E190E025EA35E034C05A
:104E200099278130910549F028F0029749F5E4E28D
:104E3000F5E005C0E6E4F5E002C0E6E3F5E08491C4
:104E400090E09F0121C063307105D0F4660F771F99
:104E5000FB01E352FE4F2081318189E090E014C0D4
:104E60006330710568F4FB01EE0FFF1FE952FE4F3E
:104E700020813181FB01EC52FE4F808190E004C023
:104E800080E090E020E030E0FA0131832083089553
:104E900084E089BD86E089BD09B400FEFDCF809124
:104EA000D8008F7D8093D8008091E000826080934D
:104EB000E0008091E00081FDFCCF0895CF92DF9269
:104EC000EF92FF920F931F93CF93DF93EC018B012F
:104ED0007A010E940129811133C0E114F10439F0F3
:104EE000F70180819181081B190BC80FD91FC12CB4
:104EF000D12C0115110519F18091E80085FD16C02E
:104F00008091E8008E778093E800E114F10449F085
:104F1000F70180819181C80ED91ED182C08285E0BF
:104F20000FC00E940129882321F30AC08991809330
:104F3000F10001501109FFEFCF1ADF0ADACF80E04C
:104F4000DF91CF911F910F91FF90EF90DF90CF9065
:104F50000895CF92DF92EF92FF920F931F93CF931A
:104F6000DF93EC018B017A010E940129811133C08A
:104F7000E114F10439F0F70180819181081B190BCC
:104F8000C80FD91FC12CD12C0115110519F1809121
:104F9000E80085FD16C08091E8008B778093E800DB
:104FA000E114F10449F0F70180819181C80ED91E06
:104FB000D182C08285E00FC00E940129882321F39D
:104FC0000AC08091F100899301501109FFEFCF1AB7
:104FD000DF0ADACF80E0DF91CF911F910F91FF9030
:104FE000EF90DF90CF9008952091DC023091DD02A8
:104FF0002617370748F06115710539F42091E8004C
:105000002E772093E80001C0B901FC0120E0611572
:10501000710561F18091D5028823D9F18530D9F1EC
:105020008091E80083FD39C08091E80082FD2BC0AB
:105030008091E80080FFEBCF8091F20090E0611555
:10504000710551F08830910538F421912093F100D9
:10505000615071090196F3CF21E0089709F020E033
:105060008091E8008E778093E800D1CF2111D2CFD4
:105070000AC08091D502882361F0853061F080916B
:10508000E80083FD0AC08091E80082FFF2CF80E053
:10509000089582E0089583E0089581E008952091C5
:1050A000DC023091DD022617370748F061157105E3
:1050B00039F42091E8002E772093E80001C0B9016F
:1050C000FC0120E06115710579F18091D5028823FA
:1050D00009F43DC0853009F43CC08091E80083FDAF
:1050E0003AC08091E80082FD2CC08091E80080FFEA
:1050F000E9CF8091F20090E06115710559F0883098
:10510000910540F424912093F1003196615071098A
:105110000196F2CF21E0089709F020E08091E800A5
:105120008E778093E800CECF2111CFCF0AC0809137
:10513000D502882361F0853061F08091E80083FD1D
:105140000AC08091E80082FFF2CF80E0089582E0FB
:10515000089583E0089581E00895982F953068F5CB
:105160009093E900981739F07091EC002091ED00D0
:105170005091F00003C0242F762F50E021FD02C093
:105180009F5FECCF3091EB003E7F3093EB0030918E
:10519000ED003D7F3093ED003091EB0031603093B6
:1051A000EB007093EC002093ED005093F000209101
:1051B000EE0027FDE5CF80E008958F708093E90031
:1051C00081E008958091D60287FF11C08091E800A8
:1051D00082FD05C08091D5028111F8CF11C0809168
:1051E000E8008B770BC08091D502882349F080912D
:1051F000E80080FFF8CF8091E8008E778093E80088
:1052000008952091E4003091E50095E64091EC008E
:10521000842F817040FF23C08091E80080FD1DC075
:105220008091D502882399F0853099F08091EB0028
:1052300085FD11C04091E4005091E5002417350729
:1052400029F3915011F09A01E1CF84E0089582E0B2
:10525000089583E0089581E0089580E008954091E5
:10526000E80042FFDDCF08950E9491290E94942911
:10527000E0EEF0E0808181608083E8EDF0E0808105
:105280008F77808319BCE3E6F0E0808181608083C2
:105290001092D40208950E9491290E94942980912D
:1052A000D8008F778093D8008091D8008068809351
:1052B000D8008091D8008F7D8093D80084E089BD8C
:1052C00086E089BD09B400FEFDCF1092D502109290
:1052D000D1021092D3021092D20242E060E080E04C
:1052E0000E94AD288091E1008E7F8093E100809143
:1052F000E20081608093E2008091E2008860809308
:10530000E2008091E0008E7F8093E0000895E3E664
:10531000F0E080818E7F808381E08093D4020C94C2
:105320004B291092E20008951092E10008951F9217
:105330000F920FB60F9211242F933F934F935F93C9
:105340006F937F938F939F93AF93BF93EF93FF934D
:105350008091E10082FF0BC08091E20082FF07C0D4
:105360008091E1008B7F8093E1000E94EA2B809185
:10537000E10080FF19C08091E20080FF15C080919C
:10538000E2008E7F8093E2008091E2008061809352
:10539000E2008091D80080628093D80019BC85E03B
:1053A0008093D5020E94AA258091E10084FF30C03D
:1053B0008091E20084FF2CC084E089BD86E089BD35
:1053C00009B400FEFDCF8091D8008F7D8093D80076
:1053D0008091E1008F7E8093E1008091E2008F7EDA
:1053E0008093E2008091E20081608093E2008091EE
:1053F000D102882311F084E007C08091E30087FD8B
:1054000002C081E001C083E08093D5020E94AB25F9
:105410008091E10083FF29C08091E20083FF25C0D5
:105420008091E100877F8093E10082E08093D50244
:105430001092D1028091E1008E7F8093E1008091F3
:10544000E2008E7F8093E2008091E2008061809391
:10545000E20042E060E080E00E94AD288091F00030
:1054600088608093F0000E94A925FF91EF91BF9181
:10547000AF919F918F917F916F915F914F913F91EC
:105480002F910F900FBE0F901F9018951F920F92A3
:105490000FB60F9211242F933F934F935F936F9307
:1054A0007F938F939F93AF93BF93CF93DF93EF93AC
:1054B000FF93C091E900CF708091EC00D82FD1709C
:1054C00080FDD0E81092E9008091F000877F809302
:1054D000F00078940E948A2A1092E9008091F000EE
:1054E00088608093F000CD2BCF70C093E900FF91CE
:1054F000EF91DF91CF91BF91AF919F918F917F916C
:105500006F915F914F913F912F910F900FBE0F9030
:105510001F9018951F93CF93DF93CDB7DEB7AA974F
:105520000FB6F894DEBF0FBECDBFE6EDF2E080917E
:10553000F100819322E0EE3DF207C9F70E94C125F8
:105540008091E80083FF2EC18091D6029091D7020E
:10555000492F50E04A30510508F024C1FA01E558BE
:10556000FF4F0C949D2C803821F0823809F01AC12D
:1055700008C08091D2029091D302992389F0826071
:105580000FC08091DA028F70853008F00BC18093D4
:10559000E9008091EB0085FB882780F91092E900F3
:1055A0009091E800977F9093E8008093F10010922B
:1055B000F100D1C0282F2D7F09F0F4C0882319F005
:1055C000823061F0EFC08091D802813009F0EAC0EA
:1055D000933009F080E08093D3022EC08091D802EE
:1055E00081112AC08091DA028F702FEF280F2430AA
:1055F00008F0D8C08093E9002091EB0020FF1CC088
:10560000933021F48091EB00806214C09091EB0004
:1056100090619093EB0021E030E0A90102C0440FBB
:10562000551F8A95E2F74093EA001092EA008091B4
:10563000EB0088608093EB001092E9008091E80015
:10564000877F8093E8000E94E228ACC08111AAC045
:105650001091D8021F778091E3008078812B80938E
:10566000E3008091E800877F8093E8000E94E228B1
:105670008091E80080FFFCCF8091E30080688093F8
:10568000E300111102C082E001C083E08093D502E3
:1056900089C08058823008F085C08091D8029091EE
:1056A000D9028C3D53E0950779F583E08A838AE23D
:1056B00089834FB7F894DE01139620E03EE051E273
:1056C000E32FF0E050935700E49120FF03C0E295F0
:1056D000EF703F5FEF708E2F90E0EA3010F0C796CA
:1056E00001C0C0968D939D932F5F243149F74FBF22
:1056F0008091E800877F8093E8006AE270E0CE0145
:1057000001960E94F42716C06091DA027091DB02C4
:10571000AE014F5F5F4F0E94F026BC01892B09F458
:1057200041C09091E800977F9093E80089819A8129
:105730000E944F288091E8008B778093E80032C068
:10574000803881F58091E800877F8093E800809120
:10575000D1028093F1008091E8008E7772CF8111A1
:1057600021C08091D8029091D90299270297D4F450
:105770008091E800877F8093E8008091D802809331
:10578000D1020E94E2288091D102811106C080914D
:10579000E30087FD02C081E001C084E08093D50270
:1057A0000E94AD258091E80083FF0AC08091E80047
:1057B000877F8093E8008091EB0080628093EB000C
:1057C000AA960FB6F894DEBF0FBECDBFDF91CF9182
:1057D0001F9108950895CF938091D5028823A1F059
:1057E000C091E900CF709091EC00892F817090FDFD
:1057F00080E8C82B1092E9008091E80083FD0E94A8
:105800008A2ACF70C093E900CF910895002480FDCB
:10581000060E660F11F08695D1F7802D08950024AD
:10582000552704C0080E591F880F991F009729F0AB
:1058300076956795B8F37105B9F7802D952F089582
:10584000EE27FF27AA27BB2708C0A20FB31FE41F1C
:10585000F51F220F331F441F551F96958795779587
:10586000679598F37040A9F7009799F7BD01CF01AC
:105870000895991B79E004C0991F961708F0961BAC
:10588000881F7A95C9F78095089587FB082E06260C
:1058900087FD819567FD61950E94392C0EF49195E5
:1058A00007FC81950895AA1BBB1B51E107C0AA1FE5
:1058B000BB1FA617B70710F0A61BB70B881F991FB1
:1058C0005A95A9F780959095BC01CD01089597FB55
:1058D000072E16F4009407D077FD09D00E94532CB0
:1058E00007FC05D03EF4909581959F4F08957095E3
:1058F00061957F4F0895A1E21A2EAA1BBB1BFD01E3
:105900000DC0AA1FBB1FEE1FFF1FA217B307E4079E
:10591000F50720F0A21BB30BE40BF50B661F771FF6
:10592000881F991F1A9469F76095709580959095D6
:105930009B01AC01BD01CF010895EE0FFF1F059043
:10594000F491E02D099469279627692778278727FE
:10595000782708958F929F92AF92BF92CF92DF9255
:10596000EF92FF92CF93DF93EC01688179818A8176
:105970009B81611571058105910521F464E279ED42
:105980008BE597E02DE133EF41E050E00E945D2D83
:1059900049015A0127EA31E440E050E00E94202CFE
:1059A0006B017C012CEE34EF4FEF5FEFC501B401CA
:1059B0000E94202CDC01CB018C0D9D1DAE1DBF1D56
:1059C000B7FF03C00197A109B04888839983AA83D0
:1059D000BB839F77DF91CF91FF90EF90DF90CF90C7
:1059E000BF90AF909F908F9008950E94AA2C089529
:1059F00080E091E00E94AA2C0895A0E0B0E080939E
:105A0000000190930101A0930201B0930301089556
:105A1000FC014150504030F001900616D1F731970B
:105A2000CF010895882799270895F999FECF92BD4F
:105A300081BDF89A992780B50895A6E1B0E044E0C9
:105A400050E00C944F2DA8E1B0E042E050E00C94FF
:105A50004F2D262FF999FECF92BD81BDF89A01975F
:105A600000B4021639F01FBA20BD0FB6F894FA9AA6
:105A7000F99A0FBE08950396272F0E942A2D0E949F
:105A8000292D252F0E942A2D242F0C942A2D019692
:105A9000272F0E942A2D0C94292DDC01CB01FC011B
:105AA000F999FECF06C0F2BDE1BDF89A319600B477
:105AB0000D9241505040B8F70895052E97FB1EF403
:105AC00000940E94742D57FD07D00E947B2C07FC88
:105AD00003D04EF40C94742D50954095309521953B
