:100000000C9482020C94C9020C94C9020C94C9028B
:100010000C94C9020C94C9020C94C9020C94C90234
:100020000C94C9020C94C9020C941D170C94D91697
:100030000C9418180C94C9020C94C9020C94C902AF
:100040000C94C9020C94C9020C94C9020C94C90204
:100050000C94C9020C94F4170C94C9020C94C902B4
:100060000C94C9020C94C9020C94C9020C94C902E4
:100070000C94C9020C94C9020C94C9020C94C902D4
:100080000C94C9020C94C9020C94C9020C94C902C4
:100090000C94C9020C94C9020C94C9020C94C902B4
:1000A0000C94C9020C94C9020C94C9020501098080
:1000B000A101850319012AB700150126B700950192
:1000C00075108100C0050C0901A101850419012AE0
:1000D000A002150126A002950175108100C00660DE
:1000E000FF0961A1010962150026FF00952075082E
:1000F00081020963150026FF00952075089102C052
:1001000005010906A101050719E029E715002501E8
:10011000950875018102950175088101050719008F
:1001200029FF150026FF00950675088100050819AE
:10013000012905950575019102950175039101C08D
:1001400000000000000000000000000000000000AF
:10015000000000000000000000000000000000009F
:10016000000000007E0F00D4FFFFFFC700000078F2
:1001700000000000000000002A2B28000000000002
:100180000000000000000000000000290000000046
:100190002C1E3420212224342627252E362D3738B4
:1001A000271E1F202122232425263333362E3738BD
:1001B0001F0405060708090A0B0C0D0E0F1011127B
:1001C000131415161718191A1B1C1D2F3130232D47
:1001D000350405060708090A0B0C0D0E0F10111245
:1001E000131415161718191A1B1C1D2F3130354CF6
:1001F00029001E001F0020002100220023002400EF
:100200002500260027002D002E002A002A004C0081
:100210002B0014001A000800150017001C0018001D
:100220000C00120013002F00300031004E004A0075
:10023000390004001600070009000A000B000D0039
:100240000E000F00330034000000280000004B00B7
:10025000E10064001D001B000600190005001100EC
:100260001000360037003800E500520000000000A2
:10027000E000E300E2000000000000002C000000AD
:10028000000000000000E6000151500051004F0046
:1002900035003A003B003C003D003E003F0040007E
:1002A00041004200430044004500010001000100FC
:1002B0000100010001000100010001000100010036
:1002C00001000100010001000100010001004D00DA
:1002D0000100010001000100010001000100010016
:1002E0000100010001000100000001000000010008
:1002F000010001000100010001000100AA00A900A5
:10030000A800AC00AB00AE0001000100000000003E
:1003100001000100010000000000000001000000D9
:1003200000000000000001000100010001000100C8
:1003300001000100010001000100010001000100B5
:1003400001000100010001000100010001000100A5
:100350000100010001000100010001000100010095
:100360000100010001000100010001000100010085
:100370000100010001000100010001000100010075
:100380000100010001000100000001000000010067
:100390000100010001000100010001000100010055
:1003A0000100010001000100010001000000000047
:1003B0000100010001000000000000000100000039
:1003C0000000000000000100010001000100010028
:1003D0000100010001000100010001000100010015
:1003E0000100010001000100010001000100010005
:1003F00001000100010001000100010001000100F5
:1004000001000100010001000100010001000100E4
:1004100001000100010001000100010001000100D4
:1004200001000100010001000000010000000100C6
:1004300001000100010001000100010001000100B4
:1004400001000100010001000100010000000000A6
:100450000100010001000000000000000100000098
:100460000000000000000100010001000100010087
:1004700009025B00030100A0FA0904000001030166
:100480000100092111010001224000070581030834
:10049000000A090401000203000000092111010003
:1004A0000122220007058203200001070503032023
:1004B00000010904020001030000000921110100EC
:1004C000012232000705840320000A120100020005
:1004D0000000088CA63ED00100010200010E033688
:1004E0000037006D006B005F004500000010036BDB
:1004F0000062005F0065006C006D006F000000048A
:100500000309040011241FBECFEFDAE0DEBFCDBF28
:1005100004B603FE27C08091150290911602A091A7
:100520001702B09118028730904BA740B04BD1F41E
:1005300010921502109216021092170210921802D1
:1005400014BE84B7877F84BF0FB6F894A8958091B6
:100550006000886180936000109260000FBEE0E050
:10056000F8E3099511E0A0E0B1E0E4E4F8E302C0AB
:1005700005900D92A036B107D9F722E0A0E6B1E0D0
:1005800001C01D92A531B207E1F70E943F180C94FB
:10059000E91B0C940000E8EDF0E080818E7F808301
:1005A0001092E2001092DA001092E100A0EEB0E0AA
:1005B0008C9181608C9380818F77808319BCA7EDAB
:1005C000B0E08C918E7F8C9380818F7E808310929F
:1005D000F60108952091E4003091E50095E6A90127
:1005E0002091EC00822F817020FF06C08091E800EE
:1005F00080FF06C080E008952091E80022FD1AC027
:1006000080910302882389F0853089F08091EB0086
:1006100085FD0FC02091E4003091E500421753079B
:10062000F9F29150E1F684E0089582E0089583E0C4
:10063000089581E00895EF92FF920F931F93CF9357
:100640007C018B010E94EA02C82F811117C08091A2
:10065000E80085FD0BC08091E8008E778093E8006C
:100660000E94EA02882399F3C82F08C0F7018191FC
:100670007F018093F1000150110949F78C2FCF9130
:100680001F910F91FF90EF9008958091050287FFD1
:1006900013C08091E80082FF06C08091E8008B774C
:1006A0008093E80004C0809103028111F2CF089585
:1006B000809103028823D9F38091E80080FFF8CF6E
:1006C0008091E8008E77ECCF982F9093E900242F4B
:1006D000762F50E0891731F07091EC002091ED00F9
:1006E0005091F00021FD07C09F5F973071F7809314
:1006F000E90081E008953091EB003E7F3093EB00FC
:100700003091ED003D7F3093ED003091EB00316092
:100710003093EB007093EC002093ED005093F000C9
:100720002091EE0027FDE0CF80E00895CF92DF9288
:10073000EF92FF920F931F93CF93DF93C8EDD0E01A
:1007400088818F7E8883E7EDF0E0808181608083FF
:1007500084E082BF81E08093F60188818E7F888368
:1007600002EE10E0F80110821092DA0081EEC82E3D
:10077000D12CF601108288818F77888388818068E8
:10078000888388818F7D888319BC10920302109220
:100790000402109202021092010290EEE92EF12C56
:1007A000F70180818B7F808388818160888342E02C
:1007B00060E080E00E946403F60180818E7F808388
:1007C000F801808181608083808188608083F70167
:1007D00080818E7F8083888180618883DF91CF9143
:1007E0001F910F91FF90EF90DF90CF900895FC0143
:1007F00080910B0290910C0286179707A0F061156B
:10080000710529F49091E8009E779093E80090E0BC
:100810006115710551F4911108C08091E80082FFC3
:1008200034C080E00895BC01F2CF80910302882398
:10083000C1F18530C1F18091E80083FD30C0809125
:10084000E80082FDEACF8091E80080FFE1CF80914F
:10085000F3002091F200382F6115710519F028304E
:10086000310558F091E02830310509F090E02091F1
:10087000E8002E772093E800CBCF81918093F100A0
:10088000615071092F5F3F4FE7CF809103028823AA
:1008900041F0853041F08091E80083FFBECF81E0D8
:1008A000089582E0089583E0089508958091F80105
:1008B00008952FB7F89480910D0290910E02A091A7
:1008C0000F02B09110022FBF08959C01FC013296D7
:1008D0009FEF80E04191461751F09F3F19F441117D
:1008E00001C0982F8F5F8630A9F79F3F09F40895C4
:1008F000290F311D97FD3A95F901628308952091E2
:10090000F0013091F1012817390771F09093F1014E
:100910008093F001E091EE01F091EF01309721F02A
:100920000084F185E02D099408952091EC01309127
:10093000ED012817390771F09093ED018093EC01D8
:10094000E091EE01F091EF01309721F00680F78100
:10095000E02D09940895E091EE01F091EF013097B8
:1009600021F00190F081E02D099480E0089580E06D
:100970000895F894E82FE295EF70F0E031A1282F68
:100980002F7081E090E001C0880F2A95EAF7982F38
:100990009095932391A392A1892B82A37894089593
:1009A0009091CA0192FF06C0282F28712830F9F4CF
:1009B000877F846093FF06C0282F28712831F1F4C7
:1009C000877E84612091CB0120FF06C0382F3871CB
:1009D0003830D9F4877F816021FF06C0282F287125
:1009E0002831D1F4877E816194FD877E0895282F78
:1009F00024712430F9F68B7F8860DCCF282F247196
:100A0000243101F78B7E8861DDCF382F3171313091
:100A100019F78E7F8860E0CF282F2171213121F7CF
:100A20008E7E8861E1CFCF93DF93EC018238910510
:100A3000A9F1D8F58133910509F496C048F58932BA
:100A4000910509F48AC08A9709F495C0C11522E579
:100A5000D20708F0B6C0C11531E5D30708F026C1AA
:100A6000C83ED10508F09CC0C03ED10560F5C83A2B
:100A7000D10508F087C0C53AD10508F0EFC0C130F4
:100A8000D10509F12097F9F0C430D105E0F440C058
:100A90008533910509F45AC0C997C1F68091CA01FE
:100AA000837089F0C0EED0E00EC0833E910599F1CD
:100AB00070F4803E910501F1823E910539F68091F6
:100AC000CA0182FD21C0CE01DF91CF910895863EFB
:100AD000910561F1873E910571F1843E910509F020
:100AE000B5CF8091CB0181FFEECF8091CA01C7EED7
:100AF000D0E084FD0DC0E7CF8091CA0180FD07C121
:100B00009091CB0190FFDFCFC3EED0E084FFDBCF2D
:100B1000D0E0C0E0D8CF8091CA0182FDFBC09091A7
:100B2000CB0190FDBFCF84FFCECFF2CF8091CA0121
:100B300083FDDDCFC8CF8091CA0183FDEEC09091C7
:100B4000CB0191FFF0CFC4EED0E0BDCF8091CA01C0
:100B500085FFB9CFC9E2D0E0B6CF8091CA0185FF49
:100B6000B2CFC5E3D0E0AFCF8091CA0186FFABCF53
:100B7000CAE2D0E0A8CF8091CA0186FFA4CFC1E32A
:100B8000D0E0A1CFCF3BD10518F6C85AD0E0CC0FAA
:100B9000DD1FC25FDE4F0990D881C02DD46493CF92
:100BA000C11540E5D40708F064C0C11580E4D8073A
:100BB00008F05CC0CE019A9581159F4108F483CF5F
:100BC000A7CFC11536E5D30718F5C11545E5D407FC
:100BD00008F084C0C11584E5D80708F07AC09C2FBE
:100BE000969596959E0123703327C115D34508F439
:100BF00062C0C1E0D0E002C0CC0FDD1F2A95E2F751
:100C000030E2939FC0011124C82BD92BDA685BCF47
:100C1000C1158AE5D80778F4C11599E5D90708F018
:100C200068C0C11528E5D20708F472CFDC2FCC27A5
:100C3000C06FD06A48CFCE0190568115904208F01F
:100C400067CF8D2F8F710E94D00490E0982F882756
:100C500088279F719C012C2BE90149C0C55AD0E01F
:100C6000C55FDE4FC881D0E0D0642DCFDF70D06A81
:100C70002ACFCE01E4E096958795EA95E1F7837057
:100C80002C2F26952695237040E2249F9001112455
:100C9000382B8C2F8370C1E0D0E002C0CC0FDD1F59
:100CA0008A95E2F7C22BD32BDC680DCFDC2FCC2743
:100CB000C16FD06A08CFC1E0D0E002C0CC0FDD1F09
:100CC0002A95E2F720E2929FC0011124C82BD92B6C
:100CD000EBCFDC2FCC27C46FD06AF5CE8C2F0E94CF
:100CE000D004C82FD0E0DC2FCC27CC27DF71D06216
:100CF000EACE8C2F8F700E94D00434E0D695C79531
:100D00003A95E1F7CF709C2FEC01D069DCCEC9E3B6
:100D1000D0E0D9CEC2EED0E0D6CEC6EED0E0D3CE73
:100D20008091C50181111092C50108958091C4017F
:100D30009091C301892B9091C201892B809362010C
:100D40009091C501992391F0892B8093620120E055
:100D500084E691E0FC013191CF0131112F5FF1E088
:100D60008A369F07B9F721110E949006E091EE01A3
:100D7000F091EF01309731F00280F381E02D82E6AF
:100D800091E0099408958091C00190918F0198138A
:100D900001C008958F5F8770FACF9295907F890F79
:100DA000982F977086958695869523E0829FF0010F
:100DB0001124E559FE4F50E040E080E0219130E001
:100DC000092E02C0369527950A94E2F72170332741
:100DD000042E01C0220F0A94EAF7822B4F5F5F4F67
:100DE0004330510559F708959295907F890F982FB8
:100DF000977041E001C0440F9A95EAF78695869571
:100E0000869593E0899FF0011124E559FE4F30E06B
:100E100020E070E05191DF011197CB01022E02C05A
:100E2000969587950A94E2F78170819585278423AA
:100E300085278C932F5F3F4F2330310559F7089555
:100E400090E080E00E94950490E080E00E947F04A2
:100E50001092C3011092C2010C9496068093140262
:100E60000C94200780911402982F9670963019F4F4
:100E700088600C942E07877FFCCF21E030E001C012
:100E8000220F8A95EAF720958091140282230C9410
:100E90002E079091C101809589238093C101282F4D
:100EA000277039F4282F082E000C330B92171306E5
:100EB00021F49091CB0192FF07C08595859585958A
:100EC0000E943D071092C101089521E030E001C069
:100ED000220F8A95EAF780911402822B0C942E0738
:100EE0008093C6010C942007882341F0809590914F
:100EF000C40189238093C4010C9496060895882325
:100F000039F09091C401982B9093C4010C949606EB
:100F100008958823B1F19CEF980F913A70F4E4E6BC
:100F2000F1E09191891303C0DF0111971C9241E018
:100F3000EA36F407B1F70C94960690E2980F9830D1
:100F400088F4877021E030E0A90102C0440F551FEA
:100F50008A95E2F7CA0180959091C4018923809314
:100F6000C401E9CF9BE5980F933020F490E080E036
:100F70000C949504885A873120F490E080E00C941A
:100F80007F040895CF93C82F882309F44EC08CEFB7
:100F90008C0F813AF8F4E4E6F1E08AE691E0DF01B3
:100FA0002D91C21759F08A179B07D1F76C2F82E653
:100FB00091E00E946504CF910C9496062191C21392
:100FC00003C0DF0111971C928E179F07B9F70E948B
:100FD0009606ECCF80E28C0F883068F4C77021E071
:100FE00030E001C0220FCA95EAF78091C401822B3C
:100FF0008093C401E0CFEBE5EC0FE33040F4F0E088
:10100000E55FFE4F808190E0CF910C949504C85A23
:10101000C73158F4EC2FF0E0EE0FFF1FE25FFE4FF8
:1010200080819181CF910C947F04CF91089581FFAD
:1010300002C02F9A08952F9808959091030294303A
:1010400029F58093F3017093F5016093F401909377
:10105000E9008FEF9091E800815095FD06C095ED75
:101060009A95F1F700008111F5CF8091E80085FF96
:101070000DC050E040E063E070E083EF91E00E943B
:101080001B038091E8008E778093E8000895BC01EF
:1010900084E00C941D08BC0183E00C941D08CF93E0
:1010A000DF93EC0181E08093E9008FEF9091E800FD
:1010B000815095FD06C095ED9A95F1F700008111DC
:1010C000F5CF8091E80085FF14C050E040E068E073
:1010D00070E0CE010E941B038091E8008E77809320
:1010E000E80088E0FE01A9EFB1E001900D928A9539
:1010F000E1F7DF91CF91089581E08093E00080E2F5
:101100008093D8001092C9008FE19EE40197F1F717
:1011100000C0000087E090EBDC0180931502909303
:101120001602A0931702B093180288E19CE00FB654
:10113000F894A895809360000FBE90936000FFCF55
:101140001F93CF93DF93182FD0E0C0E0893311F4C1
:10115000C0E5D0E0812F0E94C207209731F4812F93
:10116000DF91CF911F910C9489078FE99FE0019740
:10117000F1F700C000002197F0CF0F931F93CF939A
:10118000DF93C62FD42F022FFC0182818823A1F088
:10119000609313020E9459049093120280931102EB
:1011A000C77081E001C0880FCA95EAF7DF91CF913F
:1011B0001F910F910C947F0780911302681340C018
:1011C00020911102309112024FB7F89480910D02D4
:1011D00090910E02A0910F02B09110024FBF821B9E
:1011E000930B883C910560F510E21D0F6D17B9F067
:1011F00080E2860F883040F4C77081E001C0880F1C
:10120000CA95EAF70E947407183048F481E09D2FD0
:10121000977001C0880F9A95EAF70E947F07802F88
:101220000E94A008183098F4D77081E001C0880FA0
:10123000DA95EAF7DF91CF911F910F910C94740723
:10124000C77081E001C0880FCA95EAF7F3CFDF913C
:10125000CF911F910F910895CF93DF93C7EAD2E00A
:1012600060E0CE010E94A81B2196C11584E0D8073A
:10127000B9F7DF91CF9108956F927F928F929F92ED
:10128000AF92BF92CF92DF92EF92FF920F931F9394
:10129000CF93DF9380EFC82E81E0D82E07EE10E0C9
:1012A000E801C05AD10936011CC0F501859094901F
:1012B000692DC7010E94A81B682DC70101960E94D5
:1012C000A81B82E0A80EB11C82E0E80EF11CCE152E
:1012D000DF0559F780E2680E711CA0960C171D07F8
:1012E00031F07E0180E2E81AF1085301DECF0056AA
:1012F0001F4F80EAC80ED11C073683E0180781F61D
:10130000DF91CF911F910F91FF90EF90DF90CF90E1
:10131000BF90AF909F908F907F906F900895CF93E4
:10132000C82F6FEF811161E283E290E00E94A81B59
:101330006FEFC11161E184E290E00E94A81B6FEFA2
:10134000C11161E085E290E0CF910C94A81B80E090
:101350000E948F0960E086E290E00E94A81B0E9434
:101360003C090E942C0981E00C948F09CF93C09115
:10137000CB01C2FB992790F9981781F080FBC2F945
:10138000C093CB016091CA0184E090E00E94A81B49
:101390006C2F82E290E0CF910C94A81BCF9108951E
:1013A0000F931F93CF93DF9320E2629FE0011124FC
:1013B00050E0440F551FC40FD51F30EA839FC00D66
:1013C000D11D1124CE0187960E949A1B082F10E090
:1013D000102F0027CE0188960E949A1B9801282B77
:1013E000C901DF91CF911F910F910895462F84304D
:1013F00038F4753028F4603118F4672F0C94D00954
:1014000090E080E00895CF92DF92FF920F931F93B8
:10141000CF93DF936C01009114028091C601082BD9
:10142000C7E0D0E010E0FC2EC8010C2E02C095955C
:1014300087950A94E2F780FD0CC02197A0F7F12C64
:101440008F2DDF91CF911F910F91FF90DF90CF9063
:101450000895B6018C2F0E94F6090E94130501978A
:1014600061F3EECFCF93DF93EC010E94030ABE013C
:101470000E94F609DF91CF910C941305FC01808145
:1014800091810E94320A292F2F7092959F7092505D
:101490009E3078F4E92FF0E0E551F44E0C948D1B6A
:1014A000803F19F020F4883E20F481E00895843FC5
:1014B000E1F380E00895883EC0F3813FD1F7F5CF96
:1014C000822F869586958695089583E290E00E9406
:1014D0009A1B813289F484E290E00E949A1B813148
:1014E00059F485E290E00E949A1B91E0813009F066
:1014F00090E0892F8170089580E0FCCFCF9384E045
:1015000090E00E949A1BC82F82E290E00E949A1BF2
:10151000982F8C2FCF9108958F929F92AF92BF9268
:10152000CF92DF92EF92FF920F931F93CF93DF93AF
:10153000CDB7DEB72A970FB6F894DEBF0FBECDBF8A
:101540008E010F5F1F4F8AE0F80111928A95E9F72B
:101550008CE3E82E81E0F82E6801AA24A394B12C34
:10156000F70181917F018F3F09F44BC0F894E82F78
:10157000E295EF70F0E021A18F70A50102C0440F49
:10158000551F8A95E2F7CA01922F982B91A392A139
:101590008095892382A3789400C0E1E4F1E030E0F3
:1015A00020E0912C812C81918F3F09F491C0A82FCC
:1015B000A295AF70B0E090964C9150E08F7002C051
:1015C000559547958A95E2F740FD82C0C501022EE8
:1015D00002C0880F991F0A94E2F7882A992A2F5F80
:1015E0003F4F20313105F9F6F701319780818F3F68
:1015F00011F00E94B90450EA5A95F1F7F601918270
:101600008082F2E0CF0ED11C41E4E41641E0F40602
:1016100009F0A6CF4AE050E0B8018CEC91E00E94BE
:10162000DC1BFF24F394009709F4F12C892B09F4B7
:1016300052C08AE0F801ACECB1E001900D928A95BD
:10164000E1F781E08093C9010E9459049093C80199
:101650008093C7012091C7013091C8014FB7F8941A
:1016600080910D0290910E02A0910F02B091100294
:101670004FBF821B930B059790F18091CC01909105
:10168000CD019093E3018093E2018091CE0190918E
:10169000CF019093E5018093E4018091D001909176
:1016A000D1019093E7018093E6018091D20190915E
:1016B000D3019093E9018093E8018091D401909146
:1016C000D5019093EB018093EA011092C90107C004
:1016D00090E080E082CF8091C9018111BBCF8F2D36
:1016E0002A960FB6F894DEBF0FBECDBFDF91CF9123
:1016F0001F910F91FF90EF90DF90CF90BF90AF9030
:101700009F908F90089569EE7EEF90E080E00E94B8
:10171000C61B60E082E090E00E94A81B60E083E0CE
:1017200090E00E94A81B1092C60160E084E090E067
:101730000E94A81B60E082E290E00E94A81B60E08B
:1017400085E090E00E94A81B60E086E090E00E94A7
:10175000A81B6FEF87E090E00E94A81B40E050E0DC
:10176000BA0188E090E00E94BA1B60E08DE090E052
:101770000E94A81B40E050E0BA0188E190E00E947E
:10178000BA1B60E087E190E00E94A81B40E050E0B7
:10179000BA018CE190E00E94BA1B70E060E080E248
:1017A00090E00E94C61B40E050E0BA0188E190E062
:1017B0000E94BA1B80E00E948F090E94A70940E0A6
:1017C00050E0BA018FE090E00E94BA1B40E050E088
:1017D000BA0183E190E00C94BA1B1092C401E4E6D4
:1017E000F1E086E0DF011D928A95E9F70C9420076D
:1017F0001F93CF93DF93CDB7DEB7AA970FB6F894B8
:10180000DEBF0FBECDBF85E092E02091F100DC018C
:101810002D93CD01B2E08D309B07B9F78091060280
:10182000833009F471C0B8F4813009F448C08230C3
:1018300009F4B2C08091E80083FF88C2809105025C
:10184000909106029A3008F081C2E92FF0E0E7504B
:10185000F44E0C948D1B8A3009F48DC08B3009F442
:1018600070C0893039F780910502813219F7809173
:10187000090290910A02009711F00297D9F680911F
:10188000E800877F8093E8008091E80082FF37C0FE
:101890009091F3008091F200029729F48091F10079
:1018A0008B7F813021F48091F1008093F801809149
:1018B000E8008B778093E8000E944503BBCF8091BE
:1018C0000502813A09F0B6CF8091E800877F8093C6
:1018D000E8008091090290910A02892B61F468E086
:1018E00089EF91E070E00E94F7038091E8008B7728
:1018F0008093E8009FCF60E090E080E0F3CF80919C
:1019000003028111C1CF96CF80910502813A09F07F
:1019100091CF8091090290910A02892B09F08ACF18
:101920008091E800877F8093E8008091E80080FF45
:10193000FCCF80910A018093F1008091E8008E77BE
:10194000B9CF80910502813209F074CF80910902EC
:1019500090910A02892B09F06DCF8091E800877F72
:101960008093E8000E9445038091070280930A015A
:101970000E94ED0B5FCF80910502813209F05ACFB2
:101980008091E800877F8093E8000E944503809162
:1019900008028093F7014ECF80910502813A09F049
:1019A00049CF8091E800877F8093E8008091E8002C
:1019B00080FFFCCF8091F701BECF803899F082384C
:1019C00009F0C4C1809109028F70873008F0BEC150
:1019D0008093E9008091EB0085FB882780F91092C5
:1019E000E90006C08091010290910202911182608B
:1019F0009091E800977F9093E8008093F100109217
:101A0000F1008091E8008E779DC1882309F48BC195
:101A1000823009F09BC18091070281118EC18091B3
:101A200009028F702FEF280F263008F08FC18093A6
:101A3000E9002091EB0020FF80C1933031F48091C8
:101A4000EB0080628093EB0078C19091EB00906195
:101A50009093EB0021E030E001C0220F8A95EAF775
:101A60002093EA001092EA008091EB008860EACFB0
:101A700081116CC1109107021F778091E30080787B
:101A8000812B8093E3008091E800877F8093E800BA
:101A90000E9445038091E80080FFFCCF8091E30025
:101AA00080688093E30082E0111183E08093030259
:101AB0004DC18058823008F049C120910702309111
:101AC00008022C3DE3E03E07A1F583E08A838AE229
:101AD00089834FB7F894DE01139620E03EE051E28F
:101AE000E32FF0E050935700E49120FF03C0E2950C
:101AF000EF703F5FEF708E2F90E0EA30C0F0C79636
:101B00008D939D932F5F243159F74FBF8091E8004B
:101B1000877F8093E8006AE270E0CE0101960E9420
:101B2000F7038091E8008B778093E8000FC1C0969F
:101B3000E7CF8091090290910A02432F5527433045
:101B4000510509F44AC078F54130510509F47AC0CD
:101B50008BE590E0E0E7F4E04230510509F0F6C093
:101B60002091E800277F2093E80020910B0230911C
:101B70000C028217930708F49C0140E021153105FF
:101B800009F065C0411163C08091E80082FDC9CFB2
:101B900080910302882329F2853019F28091E800B0
:101BA00083FFF2CFBECF4132510509F43CC042322F
:101BB000510509F0CBC08330910508F0C7C0FC0186
:101BC000EE0FFF1FEC5AFE4F0190F081E02D8F5A6F
:101BD0009E4FDC018C9190E01AC0332721303105F3
:101BE000D1F02115310561F02230310509F0AEC088
:101BF000EDEDF4E0E4918E2F90E0EDEDF4E007C020
:101C0000EFEFF4E0E4918E2F90E0EFEFF4E0009737
:101C100009F49CC0A5CFEDEEF4E0E4918E2F90E0A6
:101C2000EDEEF4E0F4CF8330910508F08FC0880F1B
:101C3000991FFC01E65AFE4F0190F081E02D89E0EA
:101C400090E08ECF82E190E0EBECF4E089CF8091E0
:101C50000302882309F465CF853009F462CF8091AF
:101C6000E80083FD5ECF8091E80082FD8DCF8091FA
:101C7000E80080FF83CF9091F3008091F20021155E
:101C8000310519F08830910550F041E0089709F0CE
:101C900040E08091E8008E778093E8006FCF449118
:101CA0004093F1003196215031090196E8CF8038F8
:101CB00009F04CC08091E800877F8093E800809114
:101CC00004028093F1009DCE811140C01091070263
:101CD0001230E0F58091E800877F8093E800109350
:101CE00004020E944503112311F084E005C0809195
:101CF000E30087FDFACF81E08093030242E061ECCC
:101D000081E00E94640342E261EC84E00E9464038B
:101D100042E261EC82E00E94640342E260EC83E014
:101D20000E94640313C080910702813079F481E03E
:101D3000933009F080E0809302021092E9008091D4
:101D4000E800877F8093E8000E9445038091E800C7
:101D500083FF0AC08091E800877F8093E80080912C
:101D6000EB0080628093EB00AA960FB6F894DEBF7A
:101D70000FBECDBFDF91CF911F9108953F924F923B
:101D80005F926F927F928F929F92AF92BF92CF920B
:101D9000DF92EF92FF920F931F93CF93DF9300D0C8
:101DA00000D00F92CDB7DEB78C01FC018381948106
:101DB000892B31F08081918189238F3F09F006C5FD
:101DC0000F900F900F900F900F90DF91CF911F9178
:101DD0000F91FF90EF90DF90CF90BF90AF909F90CA
:101DE0008F907F906F905F904F903F9008950E94EA
:101DF000030AF82E682F89819A810E94F40669816E
:101E00007A818F2D0E94F6097C01F8018281882356
:101E100009F4A2C4970122513F452031310508F051
:101E2000C8C48FEF93E00E949A1BFEEEEF0E57EAB4
:101E3000852E52E0952E882381F18091C101877013
:101E400009F4BECFF8018281882309F4B9CF82E07A
:101E50000F900F900F900F900F90DF91CF911F91E7
:101E60000F91FF90EF90DF90CF90BF90AF909F9039
:101E70008F907F906F905F904F903F900C944907A8
:101E8000811424E09206C9F2C4010E949A1B8111B8
:101E900001C0EA943FEF831A930AE110F1CF1C824C
:101EA0001B82442443944AE0342E74018FEFE81AD5
:101EB000F80AC4010E949A1B89831A82882309F4B4
:101EC000BCCF9FEF980F933000F58A83498292E050
:101ED000890E911CC7010E949A1B8B83882309F4E9
:101EE000ACCFFE0131967F01F70120812223E9F278
:101EF000213009F049C091818281913041F4F2E0B2
:101F0000EF0EF11C0E94A00809C04701EACF9230F1
:101F100049F422E0E20EF11C0E94C2073FEFE31AEF
:101F2000F30AE2CF933031F432E0E30EF11C0E9469
:101F30008907F4CF943021F08FEFE81AF80AEECF3A
:101F400092E0E90EF11C30E020E0B7016F5F7F4FB7
:101F5000F70141818053990B8A30910550F021504F
:101F60003109E0F28FE99FE00197F1F700C000002E
:101F7000F6CF329EF001339EF00D11249C012E0FFE
:101F80003F1F842F7B01E1CFE22FF0E0E059FE4FAD
:101F90005490822F86958695869590E0FC01E05AB4
:101FA000FE4F64902770712C022E02C075946794C6
:101FB0000A94E2F7E1E06E227724FC01E05BFE4F39
:101FC000A490B12C022E02C0B594A7940A94E2F713
:101FD000F1E0AF22BB24FC01E05CFE4FC490D12CA9
:101FE00002C0D594C7942A95E2F721E0C222DD24ED
:101FF0006114710419F081EE0E94C207A114B104AA
:1020000019F086EE0E94C207852D0E94A008AB2819
:1020100019F086EE0E948907672819F081EE0E9468
:102020008907CD2809F47ACF8CE26CCF81E00E9439
:1020300065070E94320701CF81E00E943D07F9CF7A
:1020400082E0FBCF95EFE9169CE5F90609F46AC03A
:1020500008F464C027E245EE66EEF6EFEF16FCE505
:10206000FF0609F4A2C3882309F4C1C31092130226
:1020700023E0E2162DE5F20608F05BC03AEFE31626
:102080003CE5F30630F4C70182509C45449708F0C4
:1020900056C00E947E0A9093CB018093CA0190E1C2
:1020A000E9169CE5F90609F433C108F0A5C0F8E08B
:1020B000EF16FCE5FF0609F41DC108F06EC034E020
:1020C000E3163CE5F30609F407C108F050C092E0BE
:1020D000E9169CE5F90609F4F9C08091CA0182600D
:1020E000E3E0EE16ECE5FE0609F4F3C06091CA01E8
:1020F000F090CB0184E090E00E94A81B6F2D82E25B
:1021000090E00E94A81B0E94ED0B97CE27E245EEBF
:1021100065EE4BC326E241EE60EE47C327E245EE93
:1021200064EE43C326E241EE62EE3FC328E241E0A3
:10213000EFCF81E6E8168DE5F80609F4AACFF6E1BF
:10214000EF16FCE5FF0609F06AC38091C4018A7AA4
:1021500091E009F490E090936A0169E2811165E3EE
:1021600082E691E00E9465040E94960666CE809108
:10217000CA018061F6E0EF16FCE5FF0609F4A9C08C
:102180008091CA01886027E0E2162CE5F20608F487
:10219000A0C08091CA0180629CC08091CA018D7FDD
:1021A0003CE0E3163CE5F30609F493C078F4809133
:1021B000CA018C609AE0E9169CE5F90609F489C029
:1021C00008F49CC08091CA018E7F83C08091CA01AF
:1021D000877FFEE0EF16FCE5FF0609F47AC08091E8
:1021E000CA018B7F2FE0E2162CE5F20608F471C0DD
:1021F0008091CA018F7E6DC03CEFE3163CE5F3068B
:1022000009F482C0A0F594E1E9169CE5F90609F409
:1022100093C098F4F2E1EF16FCE5FF0609F47CC0E8
:102220008091CA018F7B23E1E2162CE5F20608F4C7
:1022300050C08091CA01837F4CC03AEFE3163CE561
:10224000F30609F44DC008F051C095E1E9169CE58C
:10225000F90609F04BCF8091CA0182FB992790F9CA
:1022600021E0922790FB82F990FB83F932C0E114C0
:10227000EDE5FE0609F456C0A0F48091CB01836021
:102280002EEFE2162CE5F20671F18091CB018D7FE5
:102290003FEFE3163CE5F30630F18091CB018C7FF4
:1022A00022C082E0E8168DE5F80609F454C008F46F
:1022B0004CC0E1E6EE16EDE5FE0609F017CF909171
:1022C000CA01892F8F7E94FF806103C08091CA016B
:1022D00081608093CA010ACF8091CA018460F9CFDE
:1022E0008091CB0181608093CB0100CF8091CB01A5
:1022F0008260F9CF8091CA018064EBCF0E94ED0B20
:102300008091CA018068E5CF8091CB018E7FEBCFB1
:102310008091CA018F7DDDCF0E94ED0B8091CA01B3
:102320008F77D7CF8091CB01982F909591708E7F2A
:10233000892B90FB81F9D7CF0E94ED0B9091CA01B8
:10234000892F97FB87F98058C4CF61E08EE090E039
:102350000E94A81BCBCE60E0F9CF85E352C20E9459
:10236000ED0B2FEF34E38CE0215030408040E1F75B
:1023700000C000000E947C0881E077C280E075C246
:10238000C7010E94CD06D82E81C22F2D2F70C22EDC
:102390008F2D807F19F0C29490EFC922DD20C9F003
:1023A000CC2069F080E28E0D883010F081100BC0D7
:1023B0008091C401C82AC092C4010E9496068E2D45
:1023C0000E94C20719C08091C301C82AC092C301EC
:1023D000F4CF8E2D0E948907CC2071F0C09480E24A
:1023E0008E0D883010F081103FC08091C401C8224A
:1023F000C092C4010E949606292D2850330B243028
:10240000310520F40E94AB040E941708AA2009F4A9
:10241000D7CC8091C10180FDD3CCF8011282859583
:10242000859585950E946507C8010E94BE0E809122
:10243000C1018595859585950F900F900F900F9010
:102440000F90DF91CF911F910F91FF90EF90DF9050
:10245000CF90BF90AF909F908F907F906F905F9044
:102460004F903F900C943D078091C301C822C092C9
:10247000C301C0CF3F2D3F70B32E8F2D807F8032A0
:1024800019F0B29480EFB822882071F081E08816AC
:1024900081F1DD20D9F1CC2091F1F801858180FF17
:1024A0008ECF8F7085832BC0DD20B1F09091C50158
:1024B0008B2D892BC11003C00E947F079DCFE1E0C7
:1024C000CE12FACF2091CB0122FD96CF981709F4B6
:1024D00093CF8093C50190CFC11006C00E94900693
:1024E0008B2D0E94740788CFF1E0CF1609F484CFBA
:1024F000F5CFDD2031F025E02C1508F47DCF8B2DB4
:10250000DBCF34E03C1508F477CFEACFCC2041F3A1
:10251000F9E38F1209C02FEF37EE83E021503040EE
:102520008040E1F700C000008E2D0E94890764CF33
:102530008F2D86958695837061F0813009F05CCF90
:10254000C7019370D11002C090E080E00E947F0428
:1025500053CFC7019370D11002C090E080E00E9479
:1025600095044ACF8F2D837091F5D11045CF4E2D14
:10257000429546954770440F440F8E2D8F70042E60
:1025800001C0880F0A94EAF72E2D2071E4FE07C0DF
:102590002FE030E001C0220F4A95EAF720953F2D49
:1025A000369536953370323069F050F44091C6015B
:1025B000313029F0822B84230E9470071DCF842B99
:1025C000822BFACF282B8091C6018227F5CF8695E2
:1025D000DD2011F08F2D8170882309F40DCF4E2D51
:1025E000429546954770440F440F8E2D8F70042EF0
:1025F00001C0880F0A94EAF72E2D2071E4FE07C06F
:102600002FE030E001C0220F4A95EAF720953F2DD8
:10261000369536953370323069F050F4409114029B
:10262000313029F0822B84230E942E07E5CE842BA3
:10263000822BFACF282B809114028227F5CF9F2D71
:102640009F70F92EDD2029F0892F0E9465078E2DBD
:1026500033CF8E2D0E9474078F2D0E943D07CCCE64
:102660008E2DE2EF8E1609F44BC0E81570F0F0EFF6
:102670008F1639F121EF8216D9F1DD2009F45CC003
:10268000C1109DCE8F2D8F7138C033EF8316E9F1C5
:1026900094EF8912F2CFDD2009F443C02F2D2F7162
:1026A000F22E822F0E9465078091CB0182FD07C028
:1026B00038E0F39EC001112483608093C1018F2D07
:1026C0001CC0DD2081F0E4E0EC1508F495CE2F2D40
:1026D0002F7181E090E001C0880F2A95EAF7909170
:1026E00014028927A1CFF5E0FC1508F485CEEFCFC1
:1026F0008F2D8F71DD2009F4B0CF0E9465077CCE4D
:102700008F2D8F71DD20C9F3A8CF80E0DD2009F483
:102710008BCF9F2D9F7181E001C0880F9A95EAF7BA
:1027200083CF81E00E94490781E08C1508F064CED8
:1027300082E00E94490760CECC2059F0893309F02D
:10274000F3CE9FEFE7EEF3E09150E040F040E1F789
:10275000E9CE8F2D8F7181CFF0E1EF16FFE5FF06F7
:1027600009F46ACC21E1E2162FE5F20609F468CCFF
:1027700093EFE9169CE5F90609F4CCCC08F062CC9D
:10278000F8EDEF16FCE5FF0609F4C0CC29EDE216E2
:102790002CE5F20609F4CACC37EDE3163CE5F30666
:1027A00009F061CC26E241EE61EEC8010E94BD084D
:1027B00044CB30E1E3163FE5F30609F437CC91E171
:1027C000E9169FE5F906A1F682E031CC85E0DE014D
:1027D000119601900D928A95E1F7F8012281898185
:1027E0009A81211104CB0E94CD06F82E08CBF6E188
:1027F000EF16FCE5FF06D9F580916A018111ADCD98
:1028000089E2E4E6F1E02AE631E09191891303C020
:10281000DF0111971C922E173F07B9F7A5CC2AE5C7
:10282000E2162DE5F20609F4A7CD68F4E1148CE573
:10283000F80609F494CD9EEDE9169CE5F906B9F485
:102840000E94830BFACAEBE5EE16EDE5FE0609F4ED
:1028500095CDFCE5EF16FDE5FF0649F48091CB012F
:1028600082FB882780F991E089270E94B609F80148
:102870008281E080F180882309F482CDC7010E9423
:10288000030AD82E682FC7010E94F406B7018D2DC8
:102890000E94F6090E9413057C01882EF801D2805F
:1028A000C580C2943FE0C3228091C1018770A1F02E
:1028B000AD2CDD2091F08F2D807F803421F080E2DF
:1028C0008E0D883048F082E00E9449078091C10156
:1028D0008770AA24A3948111A12C9F2C92942FE09D
:1028E0009222FBE0F91508F487CDE92DF0E0ED5FC9
:1028F000F34E0C948D1B1F93CF93DF9380918E0129
:10290000807FA9F480918B01882389F08091C00198
:10291000D0918F016091890170918A01A0918C0101
:10292000B0918D01C62FC72316E0D81304C0DF91E4
:10293000CF911F91089590E0109711F0CF3F19F4B7
:1029400001968770F2CF189F9001199F300D1124C6
:10295000F901E057FE4F41814713F2CF4081461302
:10296000EFCF42814111ECCF438154814A1B5B0B75
:10297000483C510528F780918E018F7080618093CB
:102980008E01F901EB56FE4F80818F70806180834C
:1029900089E891E00E94BE0EDF91CF911F910C94C7
:1029A000C306AF92BF92CF92DF92EF92FF920F9346
:1029B0001F93CF93DF93CDB7DEB761970FB6F8942F
:1029C000DEBF0FBECDBF8C0185E0F801DE011D9694
:1029D00001900D928A95E1F7F801E28089E8A82E2E
:1029E00081E0B82E60918C0170918D0161157105A7
:1029F00009F432C19091890140918A01892F842381
:102A00008F3F09F429C120813181C380D480F090A7
:102A10008B01F601E61BF70BFF2009F4E8C080915B
:102A20008E01582F507FE83CF10508F0ABC05111E2
:102A300077C0FE2C431321C092131FC0E1101DC0AC
:102A40008F70806180938E01C5010E94BE0E8091BF
:102A50008E01F80185838F2D61960FB6F894DEBF45
:102A60000FBECDBFDF91CF911F910F91FF90EF90DF
:102A7000DF90CF90BF90AF900895CD2829F0822F9E
:102A800083238F3F09F003C180E0F82FF170DF2E20
:102A900080FF3CC08091C00140918F0156E08413BB
:102AA00015C02D873E878D859E850E94320A292F6D
:102AB00022952F702230F0F0243018F59F70F1F03D
:102AC000F8019581907FD1F4D12C1EC090E0589FE1
:102AD000F001599FF00D1124E057FE4F618136132C
:102AE00006C06081261303C06281E6120FC0019602
:102AF0008770D5CF9F7011F0882331F3805E8830C6
:102B000018F3C8010E94BE0EFD2CA5CFEE2009F4DB
:102B1000A2CF80918E01816080938E01F12C9BCF9A
:102B2000431306C0921304C0F801EE2009F479C0E3
:102B3000C8010E943E0A882309F1EE20F9F0809135
:102B40008E01803270F02091890130918A0138879E
:102B50002F831986DB86CA868C87CE0107960E9452
:102B6000BE0E86E0F801A9E8B1E001900D928A95C9
:102B7000E1F70E947B14FF24F3946DCFC8010E94FB
:102B8000BE0EF9CF51110AC089E891E00E94BE0E35
:102B900086E0F50111928A95E9F7C0CF43130FC083
:102BA00092130DC0E1100BC0F8018583C8010E948B
:102BB000BE0E86E0F50111928A95E9F74CCFC80167
:102BC0000E943E0A8823D1F2EE20C1F280918E014C
:102BD000803238F22091890130918A013A83298329
:102BE0001B82DD82CC828E83CE010196B8CFE83C79
:102BF000F105F8F6FE2CEE2009F243131FC09213E4
:102C00001DC080918E0180FD10C0982F907F69F0CB
:102C1000F8018583903F31F0982F907F905F8F70FF
:102C2000892B8583C8010E94BE0E86E0F801A9E8C1
:102C3000B1E001900D928A95E1F70DCFC8010E9495
:102C40003E0A81118ECF80918E01816080938E012A
:102C5000C8010E94BE0EFFCEEE2009F48FCFC8013E
:102C60000E943E0AF82E882309F488CF86E0F801F6
:102C7000A9E8B1E001900D928A95E1F78091890170
:102C800090918A010E94320A0E947B14E4CE81E076
:102C90008E25FBCE1F93CF93DF93CDB7DEB767971B
:102CA0000FB6F894DEBF0FBECDBF4B8B5C8B6D8B28
:102CB0007E8B8F8B61111092C3011A8A198A85E06D
:102CC000FE017396DE011D9601900D928A95E1F743
:102CD00086E0FE013D96DE01179601900D928A95E1
:102CE000E1F7CE0107960E94D114811112C086E04F
:102CF000FE013796DE01119601900D928A95E1F75B
:102D00008A859B85892B29F088859F8189238F3F20
:102D1000B1F516E08091C00190918F0189131DC01B
:102D200067960FB6F894DEBF0FBECDBFDF91CF918F
:102D30001F91089596E0929FD001939FB00D1124AA
:102D4000A057BE4FFE01319601900D929A95E1F782
:102D500080938F010E94C306DCCF819FC0011124A4
:102D600080579E4F0E94D1148823D1F28091C001D8
:102D700090E00196877099278093C001CBCF209176
:102D80008F0130E0C9010196877099274091C001F9
:102D90004817190679F60E94ED0B10928F011092D8
:102DA000C00186E0E9E8F1E0DF011D928A95E9F7CC
:102DB000B0CF1F920F920FB60F9211242F933F9313
:102DC0004F935F936F937F938F939F93AF93BF9333
:102DD000CF93DF93EF93FF93D091E900DF70809161
:102DE000EC00C82FC17080FDC0E81092E90080910E
:102DF000F000877F8093F00078940E94F80B109287
:102E0000E9008091F00088608093F000CD2BCF70B6
:102E1000C093E900FF91EF91DF91CF91BF91AF9106
:102E20009F918F917F916F915F914F913F912F91E2
:102E30000F900FBE0F901F9018951F920F920FB614
:102E40000F9211242F933F934F935F936F937F9330
:102E50008F939F93AF93BF93EF93FF938091E10084
:102E600082FF09C08091E20082FF05C08091E100ED
:102E70008B7F8093E1008091DA0080FF24C08091F5
:102E8000D80080FF20C08091DA008E7F8093DA0026
:102E90008091D90080FF9BC080E189BD82E189BD1E
:102EA00009B400FEFDCF81E0809303028091F6011A
:102EB000811109C00E94CB020E9496038091E2001A
:102EC00084608093E2008091E10080FF17C08091D0
:102ED000E20080FF13C08091E2008E7F8093E200C9
:102EE0008091E20080618093E2008091D80080624E
:102EF0008093D80019BC85E0809303028091E100A3
:102F000084FF29C08091E20084FF25C080E189BD53
:102F100082E189BD89B5982F917080FFFBCF8091A8
:102F2000D8008F7D8093D8008091E1008F7E8093C0
:102F3000E1008091E2008F7E8093E2008091E200C8
:102F400081608093E20080910402882309F445C0E7
:102F500084E0809303028091E10083FF27C0809189
:102F6000E20083FF23C08091E100877F8093E1002E
:102F700082E080930302109204028091E1008E7F30
:102F80008093E1008091E2008E7F8093E200809147
:102F9000E20080618093E20042E060E080E00E9415
:102FA00064038091F00088608093F000FF91EF91BE
:102FB000BF91AF919F918F917F916F915F914F9151
:102FC0003F912F910F900FBE0F901F90189519BC35
:102FD000109203021092F60176CF8091E30087FDF4
:102FE00093E090930302B7CF78941F921FB61F927D
:102FF00011248F939F93AF93BF9380910D02909173
:103000000E02A0910F02B09110020196A11DB11DF8
:1030100080930D0290930E02A0930F02B0931002C2
:10302000BF91AF919F918F911F901FBE1F901895D8
:103030001F921FB61F9211248F939F93AF93BF933C
:103040008091F201811113C080910D0290910E02C6
:10305000A0910F02B09110024196A11DB11D809365
:103060000D0290930E02A0930F02B0931002BF9135
:10307000AF919F918F911F901FBE1F901895CDB754
:10308000DEB7AA970FB6F894DEBF0FBECDBF84B7E8
:10309000877F84BF0FB6F894A895809160008861FF
:1030A00080936000109260000FBE80E890E00FB641
:1030B000F89480936100909361000FBE85B780689B
:1030C00085BF85B7806885BF87EB94E090936101E9
:1030D000809360010E94CB020E9496038091E200DF
:1030E00084608093E2007894809103028823A1F0A9
:1030F0001091E9001F709091EC00892F817090FD74
:1031000080E8182B1092E9008091E80083FD0E946E
:10311000F80B1F701093E90082E084BD93E095BD29
:103120009AEF97BD80936E000E94650A811102C0DC
:103130000E94A7090CE311E0F80181918F018F3FF4
:1031400011F00E94B904F1E001341F07A9F701E46E
:1031500011E0F80181918F018F3F11F00E94B904B5
:10316000F1E001351F07A9F71092CD011092CC01B3
:103170001092E3011092E2011092CF011092CE0161
:103180001092E5011092E4011092D1011092D00149
:103190001092E7011092E6011092D3011092D20131
:1031A0001092E9011092E8011092D5011092D40119
:1031B0001092EB011092EA0190E080E00E94A21BC5
:1031C000893E9E4F21F40E94650A811102C00E942F
:1031D000830B82E090E00E949A1B8093D7010E94AB
:1031E0007E0A9093CB018093CA010E948C0A8FE3E0
:1031F0009CE90197F1F700C000000E948C0A8091C1
:10320000E20180FF08C06FEF7FEF90E080E00E9456
:10321000C61B0E947C0883E090E00E949A1B0E94DB
:103220007007279A2F9880E091E09093EF018093A8
:10323000EE0158E1E52EF12C60E4862E7CEEC72EDF
:1032400071E0D72EE0E19E2E8091030212E18530DD
:1032500009F4B8C00E948C0A882359F08FB7F894FB
:1032600040910D0250910E0260910F027091100278
:103270008FBFA2EEB1E0E8EDF1E010E000E0702FCA
:103280008D919D91219131912817390709F4ACC096
:1032900060E0AA24A394B12C28273927A9014A2148
:1032A0005B21452B09F49AC069A37AA39C012A21CA
:1032B0003B2191E0232B09F490E09BA30E94590449
:1032C0008160782F9DA38CA349A15AA16BA18DA1E8
:1032D0000E944A16000F111FF801E852FE4F80812C
:1032E0009181A826B926B182A0820E94AB04909158
:1032F000D601891731F00E94AB048093D6010E9459
:10330000170880910302843009F09ECF83E08093F8
:10331000E9008091E80082FF97CF8091E80090E07B
:1033200085FF06C00E94EA02882309F474C091E078
:103330008091E8008B778093E800992309F484CF8B
:10334000E981E150E33108F003C1F0E0E15FF34EC1
:103350000C948D1B80910302843021F180E00E9447
:1033600017081092F2010FB6F894A895E092600049
:103370000FBE8092600083B7817F846083BF83B774
:10338000816083BF7894889583B78E7F83BF0FB6A3
:10339000F894A895809160008861809360001092F5
:1033A00060000FBE80910202882361F00E948C0AA7
:1033B000E2EEF1E081919191892B09F08FC1CE1657
:1033C000DF06C1F780910302853009F4C3CF0E9464
:1033D000ED0B0E94AB040E9417083CCF6F5FAA0C54
:1033E000BB1C603109F05ACF0F5F1F4F053011052C
:1033F00009F045CF8FEF8EA38FA318A60E94590422
:103400008160782F9AA789A74EA15FA168A58AA598
:103410000E944A166ACF00E210E0FE0131965F0179
:103420008091E80085FD0AC08091E8008B77809349
:10343000E8000E94EA02882399F379CF8091F10095
:10344000F50181935F010150110951F770CF1A8284
:1034500089E08B831AC08A81823009F455C1833098
:10346000D9F1813009F074C02FB7F89460910D0242
:1034700070910E0280910F02909110022FBF0E9456
:10348000931B6B837C838D839E83809103028430A6
:1034900009F0DACE1091E9001F709091EC00892FAD
:1034A000817090FD80E8182B82E08093E900809184
:1034B000E80080FF0DC050E040E060E270E0CE0127
:1034C00001960E941B038091E8008E778093E800AC
:1034D0001F701093E900B8CE8091E2019091E30152
:1034E0009827892798279C838B838091E40190916A
:1034F000E5019827892798279E838D838091E6018F
:103500009091E70198278927982798878F83809142
:10351000E8019091E9019827892798279A87898758
:103520008091EA019091EB019827892798279C8741
:103530008B87ABCF8A81823059F46B817C818D81FE
:103540009E810E94931B86E290E00E94A81B9DCF63
:103550008FEF89839ACF4C816B818A810E94D00939
:103560009827892798279E838D838FCFAD80BE8033
:10357000BA24AB24BA248A810B81F0E20F9F800128
:10358000112420EA829F000D111D11248C8190E0EE
:10359000880F991F080F191F6B2DC80187960E946D
:1035A000A81B6A2DC8018896D0CF0E943C096DCF18
:1035B0009A826BCF81E08A8389E54BCF6A807B80DA
:1035C0007624672476248E010F5F1F4FAC80A00EF7
:1035D000B12EB11CC30189559D4F0A151B0509F475
:1035E00054CFE9E56E16E1E07E0650F40E949A1B86
:1035F000F8018483FFEF6F1A7F0A0F5F1F4FEACF36
:10360000F8011482F7CF0A811B81102701271027A8
:10361000CE0101963C01AC80A00EB12EB11CC801B8
:1036200089559D4F0A151B0509F42FCF0935E1E097
:103630001E0720F4F30164810E94A81BFFEF6F1A9C
:103640007F0A0F5F1F4FEBCF0E942C091ECF84E033
:103650008A831BCF6A807B807624672476248E0140
:103660000F5F1F4FAC80A00EB12EB11CC301879617
:10367000A016B10609F409CF20E8621622E072060E
:1036800050F40E949A1BF8018483FFEF6F1A7F0A9F
:103690000F5F1F4FEBCFF8011482F7CF0A811B8118
:1036A000102701271027CE0101963C01AC80A00E07
:1036B000B12EB11CC80187960A151B0509F4E5CE89
:1036C0000038E2E01E0720F4F30164810E94A81B89
:1036D000FFEF6F1A7F0A0F5F1F4FECCF99BC19BD28
:1036E00009B400FEFDCF8091D8008F7D8093D80073
:1036F0008091E00082608093E0008091E00081FD95
:10370000FCCF0E94ED0B5ECE86E290E00E949A1BF9
:103710001B821C821D828E83B8CEEE0FFF1F059088
:10372000F491E02D09946927962769277827872740
:1037300078270895F999FECF92BD81BDF89A99270F
:1037400080B50895A8E1B0E042E050E00C94CE1BB3
:10375000262FF999FECF92BD81BDF89A019700B44A
:10376000021639F01FBA20BD0FB6F894FA9AF99AEA
:103770000FBE08950396272F0E94A91B0E94A81B25
:10378000252F0E94A91B242F0C94A91B0196272FDB
:103790000E94A91B0C94A81BDC01CB01FC01F99928
:1037A000FECF06C0F2BDE1BDF89A319600B40D928D
:1037B00041505040B8F70895FB01DC0104C08D91E1
:1037C0000190801921F441505040C8F7881B990B93
:1037D0000895F894FFCF500A500A590A590A5B0A13
:1037E000590A590A590A500A500A600A590A590ACC
:1037F000600ADD0C050DA60E050DA60E380D590D3F
:10380000A60E570E640EC511C5113A123A1298123F
:10381000FC11FC11FC11B2121F1330133013271AC4
:103820002B1A9A1AAB1AB61AD51AA81AA81AA81AD5
:10383000A81AA81AD81ADA1ADE1A031B241B271B87
:043840002A1B4E1BD6
:1038440056044F0855044B08470801818283E2005F
:10385400E900EA00B500B600B700CD008301CC0052
:103864008A019201940121022302240225022602E4
:1038740027022A02B300B4006F00700097349695B3
:103884003033323194929367663536F7F6F5F0F1BA
:10389400F44022320001DE00AC0082049B04BB042D
:00000001FF
