:100000000C94D0030C9417040C9417040C9417044C
:100010000C9417040C9417040C9417040C941704F4
:100020000C9417040C9417040C9484210C94402114
:100030000C947F220C9417040C9417040C9417044E
:100040000C9417040C9417040C9417040C941704C4
:100050000C9417040C945B220C9417040C94170452
:100060000C9417040C9417040C9417040C941704A4
:100070000C9417040C9417040C9417040C94170494
:100080000C9417040C9417040C9417040C94170484
:100090000C9417040C9417040C9417040C94170474
:1000A0000C9417040C9417040C941704050109020E
:1000B000A10185020901A1000509190129081500FE
:1000C0002501950875018102050109300931158165
:1000D000257F95027508810609381581257F9501D0
:1000E00075088106050C0A38021581257F95017572
:1000F000088106C0C005010980A101850319012AF4
:10010000B700150126B700950175108100C0050CD8
:100110000901A101850419012AA002150126A002E6
:10012000950175108100C005010906A1018505052D
:100130000719E029E71500250195087501810205D9
:1001400007190029EF1500250195F07501810205B9
:10015000081901290595057501910295017503910D
:1001600001C00660FF0961A1010962150026FF00B8
:100170009520750881020963150026FF00952075FA
:10018000089102C005010906A101050719E029E748
:1001900015002501950875018102950175088101F9
:1001A0000507190029FF150026FF0095067508812F
:1001B000000508190129059505750191029501753C
:1001C000039101C0000000000000000000000000DA
:1001D000000000000000000000000000000000001F
:1001E00000000000000000007E0F00D4FFFFFFC7EA
:1001F0000000007800000000000000002A2B28000A
:1002000000000000000000000000000000000029C5
:10021000000000002C1E3420212224342627252E05
:10022000362D3738271E1F2021222324252633333D
:10023000362E37381F0405060708090A0B0C0D0E69
:100240000F101112131415161718191A1B1C1D2F35
:100250003130232D350405060708090A0B0C0D0E55
:100260000F101112131415161718191A1B1C1D2F15
:100270003130354C00047F3F1F64321464321478EF
:100280003C1E1E140A0500010101010101010101CA
:100290000202020202020202020303030303030337
:1002A0000304040404040404050505050506060604
:1002B0000606070707070708080808090909090AC1
:1002C0000A0A0B0B0B0C0C0C0D0D0D0E0E0E0F0F66
:1002D0000F101011111112121313141415151616F4
:1002E0001717181819191A1A1B1B1C1D1D1E1E1F63
:1002F0002020212222232424252626272829292AB2
:100300002B2C2D2D2E2F30313232333435363738D9
:10031000393A3B3C3D3E3F404142434445464748D5
:10032000494A4C4D4E4F50515354555658595A5BAB
:100330005D5E5F616264656668696B6C6D6F70724B
:10034000737577787A7B7D7E8082838587888A8CB7
:100350008E8F91939596989A9C9EA0A2A3A5A7A9EB
:10036000ABADAFB1B3B5B7BABCBEC0C2C4C6C9CBE2
:10037000CDCFD1D4D6D8DBDDDFE2E4E7E9EBEEF098
:10038000F3F5F8FAFDFFFFAA7F5540222325262822
:10039000292A2C2D2F3032333536383A3B3D3E401A
:1003A00042434547494A4C4E5051535557595A5C60
:1003B0005E6062646668696B6D6F71737577797B77
:1003C0007D7F81838587898A8C8E90929496989A76
:1003D0009C9E9FA1A3A5A7A8AAACAEAFB1B3B4B68B
:1003E000B8B9BBBCBEBFC1C2C3C5C6C7C9CACBCCE6
:1003F000CDCED0D1D2D2D3D4D5D6D7D7D8D9D9DAB9
:10040000DADBDBDBDCDCDCDCDCDDDDDDDDDCDCDC2D
:10041000DCDCDBDBDBDADAD9D9D8D7D7D6D5D4D355
:10042000D2D2D1D0CECDCCCBCAC9C7C6C5C3C2C12A
:10043000BFBEBCBBB9B8B6B4B3B1AFAEACAAA8A787
:10044000A5A3A19F9E9C9A98969492908E8C8A893F
:10045000878583817F7D7B79777573716F6D6B691C
:1004600068666462605E5C5A5957555351504E4CF1
:100470004A4947454342403E3D3B3A3836353332A0
:10048000302F2D2C2A29282625232229001E001F43
:100490000020002100220023002400250026002740
:1004A000002D002E0000002A004A002B000000143E
:1004B000001A000800150017001C0018000C00129C
:1004C0000013002F00300031004B00390000000401
:1004D000001600070009000A000B000D000E000FB7
:1004E0000033003400280000004E00E10000001D31
:1004F000001B00060019000500110010003600372F
:100500000038000000E50052004D00E000E300006C
:1005100000E200000000002C00000000000000E6E7
:10052000000151E400500051004F0035003A003BFB
:10053000003C003D003E003F0040004100420043BF
:10054000004400450000004C00490001000000018B
:1005500000520001000100010001000100460047B7
:10056000004800520001000100010001000000509D
:100570000051004F0001000100010001004A004B42
:100580000050004F000100000001000100000001C8
:10059000000100010001000100010001004D004EBA
:1005A000005100000001004B0001000100010000AB
:1005B0000001000000000001000000000000000138
:1005C00000010001004A004E004D00010001000141
:1005D0000001000100010001000100010001000113
:1005E0000001000100000001000100010000000105
:1005F00000010001000100010001000100010001F3
:1006000000010001000100010001000100000001E3
:1006100000010001000100010001000100010001D2
:1006200000010001000100000001000100000001C4
:1006300000010001000100010001000100010001B2
:1006400000010000000100010001000100010000A4
:100650000001000000000001000000000000000197
:100660000001000100010001000100010001000182
:100670000001000100010001000100010001000172
:100680000001000100000001000100010000000164
:100690000001000100010001000100010001000152
:1006A0000001000100010001000100010000000143
:1006B0000001000100010001000100010001000132
:1006C0000001000100010000000100010000000124
:1006D0000001000100010001000100010001000112
:1006E0000001000000010001000100010001000004
:1006F00000010000000000010000000000000001F7
:10070000000100010001000100010009025B00037B
:100710000100A0FA090400000103010100092111F0
:100720000100012240000705810308000A090401B5
:10073000000203000000092111010001222200072C
:1007400005820320000107050303200001090402BC
:1007500000010300000009211101000122B6000779
:1007600005840320000A1201000200000008424B29
:10077000676002000102000110034B0042004400C8
:100780003600370076003200000010034B004200B4
:100790004400460061006E00730000000403090479
:1007A00011241FBECFEFDAE0DEBFCDBF04B603FEDB
:1007B00027C08091CA029091CB02A091CC02B09147
:1007C000CD028730904BA740B04BD1F41092CA02B3
:1007D0001092CB021092CC021092CD0214BE84B7BC
:1007E000877F84BF0FB6F894A895809160008861D8
:1007F00080936000109260000FBEE0E0F8E309957E
:1008000011E0A0E0B1E0EEE5F3E502C005900D9245
:10081000A439B107D9F722E0A4E9B1E001C01D92E3
:10082000AA3CB207E1F70E94A6220C9476290C9408
:100830000000E8EDF0E080818E7F80831092E2007E
:100840001092DA001092E100A0EEB0E08C9181608D
:100850008C9380818F77808319BCA7EDB0E08C9159
:100860008E7F8C9380818F7E808310929702089573
:100870002091E4003091E50095E6A9012091EC007B
:10088000822F817020FF06C08091E80080FF06C0A3
:1008900080E008952091E80022FD1AC08091BC02FA
:1008A000882389F0853089F08091EB0085FD0FC0A9
:1008B0002091E4003091E50042175307F9F291507E
:1008C000E1F684E0089582E0089583E0089581E0F0
:1008D0000895EF92FF920F931F93CF937C018B01AA
:1008E0000E943804C82F811117C08091E80085FD4F
:1008F0000BC08091E8008E778093E8000E94380456
:10090000882399F3C82F08C0F70181917F01809354
:10091000F1000150110949F78C2FCF911F910F91D0
:10092000FF90EF9008958091BE0287FF13C08091E1
:10093000E80082FF06C08091E8008B778093E80092
:1009400004C08091BC028111F2CF08958091BC0255
:100950008823D9F38091E80080FFF8CF8091E800E8
:100960008E77ECCF982F9093E900242F762F50E0CC
:10097000891731F07091EC002091ED005091F0005A
:1009800021FD07C09F5F973071F78093E90081E0F8
:1009900008953091EB003E7F3093EB003091ED00F5
:1009A0003D7F3093ED003091EB0031603093EB00F0
:1009B0007093EC002093ED005093F0002091EE0036
:1009C00027FDE0CF80E00895CF92DF92EF92FF9273
:1009D0000F931F93CF93DF93C8EDD0E088818F7E74
:1009E0008883E7EDF0E080818160808384E082BFCE
:1009F00081E08093970288818E7F888302EE10E0E9
:100A0000F80110821092DA0081EEC82ED12CF60186
:100A1000108288818F778883888180688883888125
:100A20008F7D888319BC1092BC021092BD02109277
:100A3000BB021092BA0290EEE92EF12CF7018081F0
:100A40008B7F808388818160888342E060E080E0E2
:100A50000E94B204F60180818E7F8083F80180813C
:100A600081608083808188608083F70180818E7FB0
:100A70008083888180618883DF91CF911F910F915E
:100A8000FF90EF90DF90CF900895FC018091C40219
:100A90009091C50286179707A0F06115710529F49A
:100AA0009091E8009E779093E80090E061157105C1
:100AB00051F4911108C08091E80082FF34C080E0B9
:100AC0000895BC01F2CF8091BC028823C1F185302A
:100AD000C1F18091E80083FD30C08091E80082FD83
:100AE000EACF8091E80080FFE1CF8091F300209170
:100AF000F200382F6115710519F02830310558F0D2
:100B000091E02830310509F090E02091E8002E773F
:100B10002093E800CBCF81918093F100615071095F
:100B20002F5F3F4FE7CF8091BC02882341F0853093
:100B300041F08091E80083FFBECF81E0089582E01C
:100B4000089583E008958091990208959C014FB71C
:100B5000F89480918E0290918F02A0919002B091B2
:100B600091024FBF821B930B08952FB7F894809189
:100B70008E0290918F02A0919002B09191022FBFAE
:100B80000895209118012223C9F02091920227FF95
:100B900015C0E62FE695E695E695EE31D8F4E80F18
:100BA000F92FF11D677021E030E001C0220F6A9536
:100BB000EAF720958281282322830895FC0132964A
:100BC00008962191621303C0DF0111971C92E81768
:100BD000F907B9F70895209118012223C1F0209157
:100BE000920227FF14C0E62FE695E695E695EE31D2
:100BF000F8F4E80FF92FF11D677021E030E001C033
:100C0000220F6A95EAF78281822B82830895FC0184
:100C100032962FEF30E04191641751F02F3F19F4D5
:100C2000411101C0232F3F5F3630A9F72F3F09F450
:100C30000895820F911D27FD9A95FC016283089506
:100C400020918B0230918C022817390771F0909314
:100C50008C0280938B02E0918902F0918A02309796
:100C600021F00084F185E02D0994089520918702F8
:100C7000309188022817390771F090938802809389
:100C80008702E0918902F0918A02309721F0068074
:100C9000F781E02D09940895E0918902F0918A028C
:100CA000309721F00190F081E02D099480E00895C3
:100CB000CF92DF92EF92FF92843030F5811125C000
:100CC000909180009F77909380002D98282F30E09E
:100CD000AFEFBFEF0E94EB2823E030E040E050E0B0
:100CE0000E94B428C9012C3764E13607A0F469E0FA
:100CF00070E00E948C287093890060938800FF90B8
:100D0000EF90DF90CF90089583E0909180009068FD
:100D100090938000DBCF2A50374D4F4F5F4F942F79
:100D2000832F722F662725EF38E241E050E00E94C2
:100D3000B42869017A01CA01B9010E947C289B018B
:100D4000AC01C701B6010E947C28672F782F892F3C
:100D500099276115710521E08207910561F66FEF12
:100D60007FEFC9CF282F220F220F220F90918602EA
:100D70009770922B90938602987F21E009F420E0EF
:100D80009091860220FB90F9909386020C9458066D
:100D9000FA01811101C0FB0109940895809181023B
:100DA000982F9E7F61F48170826080938102809190
:100DB0008402813F18F080EF8093840208958A3482
:100DC000B0F381708864F1CFAF92BF92DF92EF925F
:100DD000FF920F931F93CF93DF93082F162FE901F4
:100DE000E42FF0E0EA57FD4F611110C0E4915E2F4F
:100DF0004E2F4983E8835A83DF91CF911F910F9142
:100E0000FF90EF90DF90BF90AF900895E62EF12C09
:100E10004491D42EE42FF0E026E0829FC0011124FB
:100E20002FEF30E0B9010E948C28802F90E0880FCE
:100E3000991F55E5569FD001579FB00D11248A1B6D
:100E40009B0B982F990F890F5901AE18BF08AE9EC2
:100E5000D001AF9EB00DBE9EB00D11245B2F189F28
:100E600080011124012F11275901A01AB10AAE9E49
:100E70008001AF9E100DBE9E100D11245901A81ABD
:100E8000B108AE9CC001AF9C900DBE9C900D11248A
:100E9000892F9927281B390B2E9FC0012F9F900D5A
:100EA0003E9F900D1124E92F62307105A1F050F49E
:100EB0006115710509F49DCF6130710581F0EB2F4B
:100EC000512F97CF6430710569F080F0663071055D
:100ED00009F48FCFF4CFE42F4B2F592F8ACFE42F73
:100EE000412F87CFEB2F542F492F83CF4B2F5D2DD1
:100EF000E12F7FCF0E94B5059C0190914202809125
:100F00004302982B21F030933F0220933E029091B0
:100F1000440280914502982B21F030933D022093AA
:100F20003C02E0918902F0918A02309749F082E018
:100F3000809340020480F581E02D80E492E00994E2
:100F4000089540914202803F59F48091430287FF07
:100F50000DC01092430241110BC010923A0208C01A
:100F6000813F81F48091430218169CF3442381F061
:100F70008091440290914502892B09F05AC0109249
:100F800039020895823F49F447FFF0CF10924202A0
:100F9000809143028111ECCFE0CF833F19F4141606
:100FA000ACF3E4CF90914402893F29F41916F4F68A
:100FB00010924402DBCF8A3F19F497FFD7CFF8CFC6
:100FC000909145028B3F29F497FFD0CF10924502B4
:100FD000CDCF8C3F19F41916CCF3C8CF9CE0980FF5
:100FE000953090F4845F990B21E030E0B90102C0A4
:100FF000660F771F8A95E2F7CB01809590914102A9
:10100000892380934102B2CF8D3F31F480913B021E
:101010008E7F80933B02AACF8E3F21F480913B02CA
:101020008D7FF7CF8F3F09F0A1CF80913B028B7F5F
:10103000F0CF089580913B0280FD16C081FD16C05F
:1010400082FD16C0809139028823A1F0883280F495
:1010500028E0829FC001112468E270E00E94A0286D
:10106000862F672B39F0089582E0089584E0089573
:1010700088E0089581E0089580913B0280FD14C0CE
:1010800081FD14C082FD16C080913A02882381F050
:10109000843180F422E3829FC001112464E170E076
:1010A0000E94A028862F08958CE0089589E1089574
:1010B00085E0089582E30895803F31F40E943C0862
:1010C0008195809343020895813F19F40E943C0862
:1010D000F8CF823F31F40E943C0881958093420210
:1010E0000895833F19F40E943C08F8CF893F29F402
:1010F0000E941A088093440208958A3F21F40E94B6
:101100001A088195F7CF8B3F31F40E941A08819518
:101110008093450208958C3F19F40E941A08F8CF75
:101120009CE0980F953070F4845F990B21E030E0DB
:1011300001C0220F8A95EAF780914102822B8093A9
:10114000410208958D3F31F480913B02816080938C
:101150003B0208958E3F21F480913B028260F7CFDD
:101160008F3FB9F780913B028460F1CF80E0089512
:10117000F894E82FE295EF70F0E031A1282F2F705E
:1011800081E090E001C0880F2A95EAF7982F9095AA
:10119000932391A392A1892B82A37894089590918F
:1011A000920292FF06C0282F28712830F9F4877F19
:1011B000846093FF06C0282F28712831F1F4877EC0
:1011C00084612091930220FF06C0382F3871383097
:1011D000D9F4877F816021FF06C0282F287128312C
:1011E000D1F4877E816194FD877E0895282F247134
:1011F0002430F9F68B7F8860DCCF282F24712431CE
:1012000001F78B7E8861DDCF382F3171313019F7CE
:101210008E7F8860E0CF282F2171213121F78E7ECB
:101220008861E1CFCF93DF93EC0182389105A9F17A
:10123000D8F58133910509F496C048F589329105B6
:1012400009F48AC08A9709F495C0C11521E5D2072F
:1012500008F0BCC0C11530E5D30708F014C1C83E82
:10126000D10508F09CC0C03ED10560F5C83AD10553
:1012700008F087C0C53AD10508F0FDC0C130D105DE
:1012800009F12097F9F0C430D105E0F440C085336E
:10129000910509F45AC0C997C1F6809192028370F2
:1012A00089F0C0EED0E00EC0833E910599F170F454
:1012B000803E910501F1823E910539F680919202BE
:1012C00082FD21C0CE01DF91CF910895863E910528
:1012D00061F1873E910571F1843E910509F0B5CF2A
:1012E0008091930281FFEECF80919202C7EED0E011
:1012F00084FD0DC0E7CF8091920280FD12C19091D4
:10130000930290FFDFCFC3EED0E084FFDBCFD0E0CD
:10131000C0E0D8CF8091920282FD06C190919302E5
:1013200090FDBFCF84FFCECFF2CF8091920283FD9C
:10133000DDCFC8CF8091920283FDF9C090919302D6
:1013400091FFF0CFC4EED0E0BDCF8091920285FF37
:10135000B9CFC9E2D0E0B6CF8091920285FFB2CF7B
:10136000C5E3D0E0AFCF8091920286FFABCFCAE257
:10137000D0E0A8CF8091920286FFA4CFC1E3D0E055
:10138000A1CFCF3BD10518F6C85AD0E0CC0FDD1F56
:10139000C45EDE4F0990D881C02DD46493CFC115AF
:1013A00040E2D40758F4C11581E0D80708F08ACF8D
:1013B000C03FD10508F4ABCFD06584CFC11590E410
:1013C000D90708F4A4CFDF70D06A7CCFC11525E51A
:1013D000D20700F5C11534E5D30708F08AC0C1155E
:1013E00043E5D40708F071C0C11582E5D80708F4B9
:1013F00067C0CE018370992721E030E002C0220F40
:10140000331F8A95E2F7C695C69580E2C89FE00132
:10141000112452C0C11599E5D907A8F4C11528E5D2
:10142000D20708F06BC0C11536E5D30708F06FCFBF
:101430008C2F0E94CF08C82FD0E0DC2FCC27CC27E0
:10144000DF71D0623FCFC1154AE5D40708F45BC015
:10145000CE0190568115904208F059CF8D2F8F7193
:101460000E94CF0890E0982F882788279F719C01C1
:101470002C2BE901E6CFC55AD0E0C75EDE4FC8810C
:10148000D0E0D0641FCFCE01E4E096958795EA9531
:10149000E1F783702C2F26952695237040E2249F38
:1014A00090011124382B8C2F8370C1E0D0E002C052
:1014B000CC0FDD1F8A95E2F7C22BD32BDC6802CF5D
:1014C000DC2FCC27C16FD06AFDCECE018370992767
:1014D00021E030E002C0220F331F8A95E2F7C69563
:1014E000C69590E2C99FE0011124C22BD32BDA6884
:1014F000E9CEDC2FCC27C46FD06AE4CEDC2FCC271A
:10150000C06FD06ADFCE8C2F8F700E94CF0834E07E
:10151000D695C7953A95E1F7CF709C2FEC01D0692D
:10152000D1CEC9E3D0E0CECEC2EED0E0CBCEC6EE77
:10153000D0E0C8CE8091110281111092110208955D
:101540008091100290910F02892B90910E02892BAD
:1015500080939601909111029923A1F0892B809399
:10156000960180911801882341F18091920287FFB2
:1015700024C08EE1E8E9F1E090E0815000F591119E
:101580000E949A0AE0918902F0918A023097E1F074
:1015900080911801882359F08091920287FF07C03B
:1015A000809196018093970185E080939601028057
:1015B000F381E02D86E991E0099486E0DBCF21916B
:1015C0002223D9F29F5FD9CF089580910C02909188
:1015D000DB01981301C008958F5F8770FACF929551
:1015E000907F890F982F977086958695869523E032
:1015F000829FF0011124E954FE4F50E040E080E06A
:10160000219130E0092E02C0369527950A94E2F721
:1016100021703327042E01C0220F0A94EAF7822B8F
:101620004F5F5F4F4330510559F708959295907F72
:10163000890F982F977041E001C0440F9A95EAF7FF
:1016400086958695869593E0899FF0011124E9544B
:10165000FE4F30E020E070E05191DF011197CB01A7
:10166000022E02C0969587950A94E2F781708195C3
:101670008527842385278C932F5F3F4F23303105A7
:1016800059F7089590E080E00E94360690E080E0EF
:101690000E94200610920F0210920E020E94A00AD1
:1016A00086E0E0E4F2E0DF011D928A95E9F710920E
:1016B0003A021092390210923B020C947A078093FE
:1016C000C9020C94420B8091C902982F96709630F3
:1016D00019F488600C945F0B877FFCCF21E030E029
:1016E00001C0220F8A95EAF720958091C9028223D2
:1016F0000C945F0B90910D028095892380930D02CD
:10170000282F277039F4282F082E000C330B92173E
:10171000130621F49091930292FF07C08595859559
:1017200085950E946E0B10920D02089521E030E025
:1017300001C0220F8A95EAF78091C902822B0C948E
:101740005F0B809312020C94420B882341F080952A
:10175000909110028923809310020C94A00A08959E
:10176000882339F090911002982B909310020C94DA
:10177000A00A08958823B1F19CEF980F913A38F4AC
:10178000682F86E991E00E94C1050C94A00A90E2BE
:10179000980F983088F4877021E030E0A90102C0EA
:1017A000440F551F8A95E2F7CA0180959091100267
:1017B000892380931002E9CF9BE5980F933020F4A2
:1017C00090E080E00C94360698E5980F973120F46D
:1017D00090E080E00C942006803F20F00E94A1075A
:1017E0000C947A070895CF93C82F882309F46EC00C
:1017F0008CEF8C0F813AB8F580911801882311F194
:101800008091920287FF1EC0EC2FE695E695E69543
:10181000F0E0EA56FE4F828190E04C2F477021E0C5
:1018200030E002C0220F331F4A95E2F78223932350
:10183000892B89F06C2F86E991E00E94C1050E94F6
:10184000A00A09C0E8E9F1E08191C81799F381E0A5
:10185000EE39F807C9F76C2F86E991E00E94EB0595
:10186000CF910C94A00A80E28C0F883068F4C77086
:1018700021E030E001C0220FCA95EAF78091100202
:10188000822B80931002ECCFEBE5EC0FE33040F4B9
:10189000F0E0E75EFE4F808190E0CF910C94360639
:1018A000E8E5EC0FE73150F4F0E0EE0FFF1FE45EE7
:1018B000FE4F80819181CF910C942006C03F30F083
:1018C0008C2F0E945C08CF910C947A07CF910895D9
:1018D00081FD02C05C9A08955C9808959091BC02C5
:1018E000943029F580939402709396026093950248
:1018F0009093E9008FEF9091E800815095FD06C02C
:1019000095ED9A95F1F700008111F5CF8091E800EF
:1019100085FF0DC050E040E063E070E084E992E0B4
:101920000E9469048091E8008E778093E800089512
:10193000BC0184E00C946E0CBC0183E00C946E0C32
:101940009C0184E08093E9009FEF8091E800915032
:1019500085FD06C085ED8A95F1F700009111F5CF60
:101960008091E80085FF0CC050E040E066E070E048
:10197000C9010E9469048091E8008E778093E80095
:101980000895CF93DF93EC01809118018823B1F182
:101990008091920287FF32C060E284E08093E90088
:1019A0008FEF9091E800815095FD06C095ED9A95D6
:1019B000F1F700008111F5CF8091E80085FF1BC091
:1019C0008091180170E050E040E0811104C050E0C7
:1019D00040E068E070E0CE010E9469048091E80078
:1019E0008E778093E80080E2FE01AAE9B2E00190E0
:1019F0000D928A95E1F7DF91CF91089568E081E03B
:101A0000CDCF81E08093E00080E28093D8001092F7
:101A1000C9008FE19EE40197F1F700C0000087E064
:101A200090EBDC018093CA029093CB02A093CC028E
:101A3000B093CD0288E19CE00FB6F894A89580930E
:101A400060000FBE90936000FFCF8091810280FD07
:101A50000AC0E1E5F2E0118210821282339652E070
:101A6000E138F507C1F76A9A3EB13B7F2EB1246099
:101A70004FB7F89481E592E0FC015191CF0168E005
:101A80002EB9000000C057FF3EB9550F000000C03E
:101A900000C000C03EB900C06A9591F7F2E08138FD
:101AA0009F0751F74FBF8FE594E00197F1F700C012
:101AB00000000895EF92FF920F931F93CF93DF934F
:101AC0008C01C1E5D2E0F12CE12CF8019481609108
:101AD000830280918202F8E0EF16F10414F5992355
:101AE00011F140918402413F08F040EF9E010E94B5
:101AF000E4062FEFE21AF20A239680E1E816F104D9
:101B000021F70E94250DF801848190E001968170F3
:101B100099278483DF91CF911F910F91FF90EF90D0
:101B200008959923F1F29E0140E0E1CF8F929F92B8
:101B3000AF92BF92CF92DF92EF92FF920F931F93DB
:101B4000CF93DF93EC014C81042F10E09801D80172
:101B50000E94EB289B01AC010E9401294B015C0112
:101B6000E0E2F0E0E01BF10BA5E5B0E0AC019B0189
:101B70000E9401296B017C019F01DF010E94E32883
:101B80009B01AC010E940C299B01AC01280D391D61
:101B90004A1D5B1DC701B6010E94B428F22E822F98
:101BA00090E039E23F1508F43EC043E0249F9001E5
:101BB000112435952795122F109591E5C92E92E0A5
:101BC000D92E00E085E5E82EEF188E2D01FD8F2D32
:101BD000412F113F08F040EF9601609183020E946F
:101BE000E4060F5F53E0C50ED11C003171F70E946F
:101BF000250D9C8181E0992319F0903219F48FEF23
:101C00008093170180911701890F8C83DF91CF9109
:101C10001F910F91FF90EF90DF90CF90BF90AF900A
:101C20009F908F90089525E530E0A901481B590B3E
:101C3000CA019A01220F331F280F391F37FFB9CF6E
:101C40002F5F3F4FB6CF0F931F93CF93DF93C1E525
:101C5000D2E0FE01118210821282339682E0E138D6
:101C6000F807C1F710E000E080914F02082E000C49
:101C7000990B08171907A4F180911601082E000C82
:101C8000990B8017910764F140918402413F08F05D
:101C900040EF9E0160918302809182020E94E406DF
:101CA0000F5F1F4F239600311105F1F60E94250D9D
:101CB0008091150190914F02980F90934F022091BF
:101CC0001601280F20931601121614F49F301CF0F1
:101CD000819580931501DF91CF911F910F91089508
:101CE000198218821A82DCCFCF92DF92EF92FF9294
:101CF0000F931F93CF93DF93FC018281DD24DA944D
:101D000080FD02C0DD24D394C1E5D2E010E000E004
:101D1000198218821A8294E0E92EF12CC12C80914C
:101D20004E028C0D8131E4F18F70082E000C990B5E
:101D300080179107A9F4809184028E9DA0018F9D48
:101D4000500D11245595479555954795413F08F0FD
:101D500040EF9E0160918302809182020E94E4061E
:101D6000CD0CF1E0EF1AF108D1F60F5F1F4F23966B
:101D70000031110569F60E94250D80914E0291E017
:101D8000D91214C0811110C08FE080934E02DF91F0
:101D9000CF911F910F91FF90EF90DF90CF9008951A
:101DA00087FFC3CF805FC1CF8150EFCF90E0019616
:101DB0008F709927EACFEF92FF921F93CF93DF9313
:101DC000EC0181E5E82E82E0F82E10E040918402DB
:101DD000413F08F040EF8C81970160918302810FB1
:101DE0000E94E406115F83E0E80EF11C103F71F7DA
:101DF0000E94250D9A818C8190FF08C08F5F8C8393
:101E0000DF91CF911F91FF90EF9008958150F7CF10
:101E10009091810290FF0CC0E1E5F2E08183608344
:101E20004283339692E0E138F907C1F70C94250D0F
:101E300008950F931F93CF93DF9300D00F92CDB7E8
:101E4000DEB78C018091500281110AC09E012F5F84
:101E50003F4F40EF6FEF0E94E4068A81809350026B
:101E6000F8016481613069F08091500240E066239E
:101E700061F040E0623011F44091500280E060E097
:101E800004C06091500240E080E00E94080FF80119
:101E9000848190E0019663E070E00E94A028848332
:101EA0000F900F900F90DF91CF911F910F91089598
:101EB000CF93DF9300D00F92CDB7DEB79091810220
:101EC00090FF0DC0413F08F040EF9E012F5F3F4F54
:101ED0000E94E4064B8169818A810E94080F0F905D
:101EE0000F900F90DF91CF910895CF93DF93EC0186
:101EF000E1E8F2E0438162818C810E94580F8C817D
:101F00008F5F8C83DF91CF910895CF93DF93EC01A6
:101F1000EC81F0E0E557FC4F4491E1E8F2E06281AA
:101F200081810E94580F8C818F5F8C83DF91CF91CC
:101F300008951F93CF93DF93182FD0E0C0E089332B
:101F400011F4C0E5D0E0812F0E94F30B209731F40B
:101F5000812FDF91CF911F910C94BA0B8FE99FE0F5
:101F60000197F1F700C000002197F0CF0F931F9366
:101F7000CF93DF93C62FD42F022FFC0182818823B9
:101F8000A1F06093C8020E94B5059093C7028093A8
:101F9000C602C77081E001C0880FCA95EAF7DF91D9
:101FA000CF911F910F910C94B00B8091C8026813D0
:101FB00035C08091C6029091C7020E94A605883C58
:101FC000910560F510E21D0FCD17B9F080E28C0F7E
:101FD000883040F4C77081E001C0880FCA95EAF7E5
:101FE0000E94A50B183048F481E09D2F977001C026
:101FF000880F9A95EAF70E94B00B802F0E94990FE4
:10200000183098F4D77081E001C0880FDA95EAF7AC
:10201000DF91CF911F910F910C94A50BC77081E0B8
:1020200001C0880FCA95EAF7F3CFDF91CF911F91D6
:102030000F910895CF93DF93C7EAD2E060E0CE011D
:102040000E9428292196C11584E0D807B9F7DF91AD
:10205000CF9108956F927F928F929F92AF92BF928D
:10206000CF92DF92EF92FF920F931F93CF93DF9364
:102070008BE8C82E84E0D82E07EE10E0E801C05AA5
:10208000D10936011CC0F50185909490692DC701D6
:102090000E942829682DC70101960E94282982E004
:1020A000A80EB11C82E0E80EF11CCE15DF0559F731
:1020B00080E2680E711CA0960C171D0731F07E019E
:1020C00080E2E81AF1085301DECF00561F4F80EA84
:1020D000C80ED11C073683E0180781F6DF91CF9137
:1020E0001F910F91FF90EF90DF90CF90BF90AF9036
:1020F0009F908F907F906F900895CF93C82F6FEF30
:10210000811161E283E290E00E942829C1110CC094
:10211000CFEF6C2F84E290E00E9428296C2F85E29B
:1021200090E0CF910C942829C1E1F3CF80E00E9488
:102130007D1060E086E290E00E9428290E942A102B
:102140000E941A1081E00C947D10682F86E090E0C8
:102150000C942829CF93C0919302C2FB992790F940
:10216000981781F080FBC2F9C093930260919202AC
:1021700084E090E00E9428296C2F82E290E0CF91C9
:102180000C942829CF9108950F931F93CF93DF9339
:1021900020E2629FE001112450E0440F551FC40F5C
:1021A000D51F30EA839FC00DD11D1124CE01879623
:1021B0000E941429082F10E0102F0027CE018896C6
:1021C0000E9414299801282BC901DF91CF911F91FA
:1021D0000F910895462F843038F4753028F460311B
:1021E00018F4672F0C94C41090E080E00895CF920B
:1021F000DF92FF920F931F93CF93DF936C010091B7
:10220000C90280911202082BC7E0D0E010E0FC2E3A
:10221000C8010C2E02C0959587950A94E2F780FDBF
:102220000CC02197A0F7F12C8F2DDF91CF911F913A
:102230000F91FF90DF90CF900895B6018C2F0E94F0
:10224000EA100E941209019761F3EECFCF93DF935A
:10225000EC010E94F710BE010E94EA10DF91CF91BD
:102260000C941209FC01808191810E942611292F72
:102270002F7092959F7092509E3078F4E92FF0E085
:10228000E858F64D0C94D628803F19F020F4883E8B
:1022900020F481E00895843FE1F380E00895883ED2
:1022A000C0F3813FD1F7F5CF822F8695869586952D
:1022B000089583E290E00E941429813289F484E237
:1022C00090E00E941429813159F485E290E00E9447
:1022D000142991E0813109F090E0892F81700895EF
:1022E00080E0FCCFCF9384E090E00E941429C82FB7
:1022F00082E290E00E941429982F8C2FCF910895AC
:1023000060918102669570E04BE050E08AE091E0D8
:102310000E945C29892B19F481E080934D020E9470
:10232000B50590934702809346020895CF92DF92BD
:10233000EF92FF926B017C010E94CE06B701A601CD
:1023400088E090E0FF90EF90DF90CF900C943A29D6
:102350007F928F929F92AF92BF92CF92DF92EF9235
:10236000FF920F931F93CF93DF9300D00F92CDB7BF
:10237000DEB7082FD62E142FC22E9091810290FF27
:102380002DC0E92FE695AE2FB0E0A15ABE4F8C913B
:1023900080934C029E7F923091F5413F08F040EFD0
:1023A0009E012F5F3F4F6D2D802F0E94E4064B81D1
:1023B00069818A810E94080F00938202D092830271
:1023C00010938402CC2051F06091810270918202BE
:1023D00080918302909184020E9496110F900F9039
:1023E0000F90DF91CF911F910F91FF90EF90DF90B1
:1023F000CF90BF90AF909F908F907F900895823044
:1024000019F410918402D8CF863019F40091820219
:10241000D3CF8930D9F3893179F6E9512E2F217044
:10242000722EE695F0E0EA57FC4F8590949099243F
:1024300031E5E32E32E0F32EB12CA12CC50124E0CE
:10244000969587952A95E1F7711016C0800F412F58
:10245000113F08F040EF97016D2D0E94E406A80C93
:10246000B91C83E0E80EF11C21E8E21622E0F20636
:1024700029F70E94250DA0CF202F281B822FE7CF00
:10248000E1E8F2E0438128E0421B08F440E021E06B
:10249000628181810C94A811E1E8F2E0438128E097
:1024A000420F08F44FEF21E0628181810C94A81162
:1024B000E1E8F2E0628128E0621B08F460E021E0DC
:1024C000438181810C94A811E1E8F2E0628128E067
:1024D000620F08F46FEF21E0438181810C94A81111
:1024E000E1E8F2E0818121E04381628188500C942F
:1024F000A811E1E8F2E0818121E043816281885FF7
:102500000C94A81180918502882319F08150809342
:102510008502609181027091820280918302909184
:1025200084020C94961180918502833018F48F5F99
:102530008093850260918102709182028091830272
:10254000909184020C9496119091810290FF36C074
:102550009170811129C0926090938102662351F09D
:102560006091810270918202809183029091840235
:102570000E94961160918102669570E04BE050E0F8
:102580008AE091E00E945C29892BA9F010924D020B
:1025900081E08093490220E04091840260918302AF
:1025A000809182020C94A811853210F09864D4CFE7
:1025B000880F982BD1CF0E948011EACF0895809187
:1025C00081028695815009F484E261E00C94A412A2
:1025D0008091810286958F5F853208F081E061E00D
:1025E0000C94A4129091810290FF07C096959817C1
:1025F00020F0961710F40C94E81261E00C94A412E9
:10260000E1E8F2E083E0808311828FEF828380EF44
:102610008383148260817181828193810C949611ED
:1026200069EE7EEF90E080E00E94462960E082E063
:1026300090E00E94282960E083E090E00E94282931
:102640001092120260E084E090E00E94282960E08D
:1026500082E290E00E94282960E085E090E00E94FC
:10266000282960E086E090E00E9428296FEF87E04B
:1026700090E00E94282940E050E0BA0188E090E014
:102680000E943A2960E08DE090E00E94282940E015
:1026900050E0BA0188E190E00E943A2960E087E1C9
:1026A00090E00E94282940E050E0BA018CE190E0DF
:1026B0000E943A2970E060E080E290E00E944629A2
:1026C00040E050E0BA0188E190E00E943A2980E0C1
:1026D0000E947D100E94961040E050E0BA018FE009
:1026E00090E00E943A2940E050E0BA0183E190E096
:1026F0000C943A298F929F92AF92BF92CF92DF9221
:10270000EF92FF920F931F93CF93DF93CDB7DEB776
:102710002A970FB6F894DEBF0FBECDBF8E010F5FB4
:102720001F4F8AE0F80111928A95E9F78AE4E82EB2
:1027300081E0F82E6801AA24A394B12CF7018191BD
:102740007F018F3F09F44BC0F894E82FE295EF70BA
:10275000F0E021A18F70A50102C0440F551F8A959A
:10276000E2F7CA01922F982B91A392A18095892319
:1027700082A3789400C0EFE4F1E030E020E0912CF7
:10278000812C81918F3F09F486C0A82FA295AF704C
:10279000B0E090964C9150E08F7002C055954795EF
:1027A0008A95E2F740FD77C0C501022E02C0880F6E
:1027B000991F0A94E2F7882A992A2F5F3F4F203108
:1027C0003105F9F6F701319780818F3F11F00E94B2
:1027D000B80850EA5A95F1F7F60191828082F2E04A
:1027E000CF0ED11C4FE4E41641E0F40609F0A6CF69
:1027F0004AE050E0B80186E192E00E946929FF2496
:10280000F394009709F4F12C892B09F447C08AE06E
:10281000F801A6E1B2E001900D928A95E1F781E01E
:10282000809315020E94B5059093140280931302C1
:1028300080911302909114020E94A605059790F1D1
:1028400080911602909117029093300280932F028C
:102850008091180290911902909332028093310274
:1028600080911A0290911B0290933402809333025C
:1028700080911C0290911D02909336028093350244
:1028800080911E0290911F0290933802809337022C
:102890001092150207C090E080E08DCF8091150264
:1028A0008111C6CF8F2D2A960FB6F894DEBF0FBECA
:1028B000CDBFDF91CF911F910F91FF90EF90DF90EF
:1028C000CF90BF90AF909F908F90089590E080E060
:1028D0000E942229893E9E4F11F40C94591180E0E8
:1028E00008950E94661481110AC00E9410138091FD
:1028F000860284708961809386020E94A51086E01A
:1029000090E00E94142980938602803220F0877024
:1029100088618093860290918602892F817090FF52
:1029200004C0892F8695869586950C94580610923A
:10293000100280911801E8E9F1E0882359F08091B4
:10294000920287FF07C08EE1DF011D928A95E9F7A9
:102950000C94420B86E0F8CF1F93CF93DF93CDB753
:10296000DEB7AA970FB6F894DEBF0FBECDBF8EEBD1
:1029700092E02091F100DC012D93CD01B2E0863C84
:102980009B07B9F78091BF02833009F471C0B8F496
:10299000813009F448C0823009F4B2C08091E80067
:1029A00083FF88C28091BE029091BF029A3008F0E6
:1029B00081C2E92FF0E0EA57F64D0C94D6288A3010
:1029C00009F48DC08B3009F470C0893039F78091DB
:1029D000BE02813219F78091C2029091C302009722
:1029E00011F00297D9F68091E800877F8093E80084
:1029F0008091E80082FF37C09091F3008091F2004F
:102A0000029729F48091F1008B7F813021F480912D
:102A1000F100809399028091E8008B778093E80021
:102A20000E949304BBCF8091BE02813A09F0B6CFD9
:102A30008091E800877F8093E8008091C2029091A6
:102A4000C302892B61F460E28AE992E070E00E949F
:102A500045058091E8008B778093E8009FCF60E088
:102A600090E080E0F3CF8091BC028111C1CF96CF7E
:102A70008091BE02813A09F091CF8091C20290917B
:102A8000C302892B09F08ACF8091E800877F809369
:102A9000E8008091E80080FFFCCF809118018093CE
:102AA000F1008091E8008E77B9CF8091BE0281322B
:102AB00009F074CF8091C2029091C302892B09F072
:102AC0006DCF8091E800877F8093E8000E94930497
:102AD0008091C002809318010E9497145FCF80916B
:102AE000BE02813209F05ACF8091E800877F80933F
:102AF000E8000E9493048091C102809398024ECF17
:102B00008091BE02813A09F049CF8091E800877F29
:102B10008093E8008091E80080FFFCCF80919802CC
:102B2000BECF803899F0823809F0C4C18091C202CA
:102B30008F70873008F0BEC18093E9008091EB0070
:102B400085FB882780F91092E90006C08091BA02BF
:102B50009091BB02911182609091E800977F9093D1
:102B6000E8008093F1001092F1008091E8008E77E8
:102B70009DC1882309F48BC1823009F09BC18091EB
:102B8000C00281118EC18091C2028F702FEF280F79
:102B9000263008F08FC18093E9002091EB0020FFE0
:102BA00080C1933031F48091EB0080628093EB0020
:102BB00078C19091EB0090619093EB0021E030E0C0
:102BC00001C0220F8A95EAF72093EA001092EA00EA
:102BD0008091EB008860EACF81116CC11091C00236
:102BE0001F778091E3008078812B8093E3008091B0
:102BF000E800877F8093E8000E9493048091E800BA
:102C000080FFFCCF8091E30080688093E30082E046
:102C1000111183E08093BC024DC18058823008F0CE
:102C200049C12091C0023091C1022C3DE3E03E0732
:102C3000A1F583E08A838AE289834FB7F894DE01A5
:102C4000139620E03EE051E2E32FF0E0509357006E
:102C5000E49120FF03C0E295EF703F5FEF708E2F8D
:102C600090E0EA30C0F0C7968D939D932F5F24319A
:102C700059F74FBF8091E800877F8093E8006AE2B0
:102C800070E0CE0101960E9445058091E8008B77A7
:102C90008093E8000FC1C096E7CF8091C202909167
:102CA000C302432F55274330510509F44AC078F534
:102CB0004130510509F47AC08BE590E0EBE0F7E094
:102CC0004230510509F0F6C02091E800277F20939B
:102CD000E8002091C4023091C5028217930708F4DE
:102CE0009C0140E02115310509F065C0411163C028
:102CF0008091E80082FDC9CF8091BC02882329F22F
:102D0000853019F28091E80083FFF2CFBECF4132C7
:102D1000510509F43CC04232510509F0CBC0833063
:102D2000910508F0C7C0FC01EE0FFF1FE957FE4FE9
:102D30000190F081E02D8C579E4FDC018C9190E04A
:102D40001AC0332721303105D1F02115310561F04A
:102D50002230310509F0AEC0E8E7F7E0E4918E2FAC
:102D600090E0E8E7F7E007C0ECE9F7E0E4918E2FA8
:102D700090E0ECE9F7E0009709F49CC0A5CFEAE801
:102D8000F7E0E4918E2F90E0EAE8F7E0F4CF8330AB
:102D9000910508F08FC0880F991FFC01E357FE4F83
:102DA0000190F081E02D89E090E08ECF82E190E00B
:102DB000E6E6F7E089CF8091BC02882309F465CF6D
:102DC000853009F462CF8091E80083FD5ECF809169
:102DD000E80082FD8DCF8091E80080FF83CF909145
:102DE000F3008091F2002115310519F0883091052A
:102DF00050F041E0089709F040E08091E8008E77BC
:102E00008093E8006FCF44914093F10031962150B8
:102E100031090196E8CF803809F04CC08091E80074
:102E2000877F8093E8008091BD028093F1009DCE62
:102E3000811140C01091C0021230E0F58091E8008D
:102E4000877F8093E8001093BD020E9493041123B2
:102E500011F084E005C08091E30087FDFACF81E0A6
:102E60008093BC0242E061EC81E00E94B20442E245
:102E700061EC84E00E94B20442E261EC82E00E94D4
:102E8000B20442E260EC83E00E94B20413C080917D
:102E9000C002813079F481E0933009F080E08093C2
:102EA000BB021092E9008091E800877F8093E800E0
:102EB0000E9493048091E80083FF0AC08091E8009B
:102EC000877F8093E8008091EB0080628093EB0025
:102ED000AA960FB6F894DEBF0FBECDBFDF91CF919B
:102EE0001F9108953F924F925F926F927F928F92BF
:102EF0009F92AF92BF92CF92DF92EF92FF920F9389
:102F00001F93CF93DF9300D000D00F92CDB7DEB7E1
:102F10008C01FC0183819481892B31F08081918126
:102F200089238F3F09F0DDC50F900F900F900F9010
:102F30000F90DF91CF911F910F91FF90EF90DF9055
:102F4000CF90BF90AF909F908F907F906F905F9049
:102F50004F903F9008950E94F710F82E682F8981B6
:102F60009A810E94160B69817A818F2D0E94EA1046
:102F70007C01F8018281882309F43BC5C701825195
:102F80009F45409708F06BC58FEF93E00E9414298E
:102F9000FEEEEF0E57EA852E52E0952E882381F142
:102FA00080910D02877009F4BFCFF80182818823D8
:102FB00009F4BACF82E00F900F900F900F900F900E
:102FC000DF91CF911F910F91FF90EF90DF90CF9005
:102FD000BF90AF909F908F907F906F905F904F9039
:102FE0003F900C947A0B811424E09206C9F2C4013C
:102FF0000E941429811101C0EA943FEF831A930AB9
:10300000E110F1CF1C821B82442443944AE0342E09
:1030100074018FEFE81AF80AC4010E941429898309
:103020001A82882309F4BCCF9FEF980F933000F5E4
:103030008A83498292E0890E911CC7010E9414295B
:103040008B83882309F4ACCFFE0131967F01F70111
:1030500020812223E9F2213009F049C09181828147
:10306000913041F4F2E0EF0EF11C0E94990F09C07B
:103070004701EACF923049F422E0E20EF11C0E94AF
:10308000F30B3FEFE31AF30AE2CF933031F432E06F
:10309000E30EF11C0E94BA0BF4CF943021F08FEFB5
:1030A000E81AF80AEECF92E0E90EF11C30E020E0D9
:1030B000B7016F5F7F4FF70141818053990B8A30D1
:1030C000910550F021503109E0F28FE99FE001971E
:1030D000F1F700C00000F6CF329EF001339EF00DF4
:1030E00011249C012E0F3F1F842F7B01E1CFE22F83
:1030F000F0E0EC50FE4F5490822F86958695869591
:1031000090E0FC01EC51FE4F64902770712C022E70
:1031100002C0759467940A94E2F7E1E06E22772486
:10312000FC01EC52FE4FA490B12C022E02C0B594CB
:10313000A7940A94E2F7F1E0AF22BB24FC01EC5320
:10314000FE4FC490D12C02C0D594C7942A95E2F7C3
:1031500021E0C222DD246114710419F081EE0E9485
:10316000F30BA114B10419F086EE0E94F30B852D28
:103170000E94990FAB2819F086EE0E94BA0B6728BF
:1031800019F081EE0E94BA0BCD2809F47ACF8CE2B7
:103190006CCF81E00E94960B0E94630B01CF81E00F
:1031A0000E946E0BF9CF82E0F5CF82E0F9CF2FEBD2
:1031B000E2162CE5F20609F455C008F43FC080EC95
:1031C000E8168CE5F80609F06BC490918602892F09
:1031D0008695869586958F5F8F719770843008F0FD
:1031E00059C0880F880F880F892B809386028091A1
:1031F000860210C083E00E94B206809186020E947F
:10320000A510CECE80918602982F987F79F08850B5
:1032100080938602887F91E009F490E08091860295
:1032200090FB80F9809386020E94A510809186020F
:103230008695869586950E945806B2CE8091860224
:10324000982F969596959695933040F49F5F990F99
:10325000990F990F8770892B80938602809186023F
:103260008160E0CF8091860280FF07C08E7F8093CF
:1032700086020E94A51080E0DECF80FD91CE8160A5
:1032800080938602813019F489E0809386028091D0
:103290008602CACF90938602AACF27E245EE65EE5A
:1032A0001CC426E241EE60EE18C427E245EE64EE4F
:1032B00014C426E241EE62EE10C428E241E0EFCFF2
:1032C000F1E6EF16FDE5FF0609F42DC58091100229
:1032D00096E1E9169CE5F90609F014C48A7A91E0B2
:1032E00009F490E09093B60169E2811165E386E903
:1032F00091E00E94EB050E94A00A52CE86E0E816FB
:103300008CE5F80609F4B7C080919202886097E0D6
:10331000E9169CE5F90608F49DC08091920280624E
:1033200099C0809192028D7FECE0EE16ECE5FE06EE
:1033300009F490C078F4809192028C602AE0E21641
:103340002CE5F20609F486C008F49DC08091920233
:103350008E7F80C08EE0E8168CE5F80609F499C0EF
:10336000809192028B7F9FE0E9169CE5F90608F4B4
:1033700071C0809192028F7E6DC0ECEFEE16ECE58D
:10338000FE0609F48AC0A0F524E1E2162CE5F20657
:1033900009F49BC098F482E1E8168CE5F80609F47C
:1033A00084C0809192028F7B93E1E9169CE5F90637
:1033B00008F450C080919202837F4CC0EAEFEE1671
:1033C000ECE5FE0609F44DC008F051C025E1E21617
:1033D0002CE5F20609F0D4C48091920282FB992771
:1033E00090F921E0922790FB82F990FB83F932C09B
:1033F000E1143DE5F30609F45EC0A0F48091930268
:1034000083609EEFE9169CE5F90671F180919302C5
:103410008D7FEFEFEE16ECE5FE0630F18091930222
:103420008C7F22C0F2E0EF16FDE5FF0609F45CC0D8
:1034300008F454C031E6E3163DE5F30609F0A0C4F4
:1034400090919202892F8F7E94FF806103C08091BA
:10345000920281608093920293C480919202846070
:10346000F9CF8091930281608093930289C4809107
:1034700093028260F9CF809192028061EBCF8091BC
:1034800092028064E7CF0E94971480919202806834
:10349000E1CF80919202877FDDCF809193028E7F72
:1034A000E3CF809192028F7DD5CF0E9497148091B7
:1034B00092028F77CFCF80919302982F9095917041
:1034C0008E7F892B90FB81F9CFCF0E94971490912A
:1034D0009202892F97FB87F98058BCCF61E08EE07C
:1034E00090E00E9428294CC460E0F9CF80918102CD
:1034F00080FF1BC08E7F809381026091810270915A
:10350000820280918302909184020E94961110920F
:103510004D02EFEFF0E722E0E150F0402040E1F70C
:1035200000C000000E94250D3BCD81608093810288
:1035300061E086950E94A41233CD4FED52E168EE12
:1035400072E10E94C8062CCD48EE52E16FED72E1A7
:10355000F8CF49E752E160E772E1F3CF48E552E185
:1035600064E672E1EECF40E452E16CE472E1E9CF4F
:103570004CE452E160E472E1E4CF43E952E162E8F5
:1035800072E1DFCF61E081E0D5CF65E082E00E94AB
:10359000F21206CD68E086E0FACF64E18FE0F7CF63
:1035A00067E185E1F4CF62E289E1F1CF61E083E296
:1035B000C1CFFBE5EF16FDE5FF0611F12CE5E216A4
:1035C0002DE5F20609F0D0C28091930282FB882794
:1035D00080F991E089270E94AA10C6C20E94971420
:1035E0003FEF84E39CE0315080409040E1F700C021
:1035F00000000E94010D0E941013D2CC81E0EBCF9D
:1036000080E0E9CFC7010E94EF0AD82EBCC22F2D5F
:103610002F70C22E8F2D807F19F0C29490EFC92297
:10362000DD20C9F0CC2069F080E28E0D883010F0EA
:1036300081100BC080911002C82AC09210020E9413
:10364000A00A8E2D0E94F30B19C080910F02C82A88
:10365000C0920F02F4CF8E2D0E94BA0BCC2071F0D5
:10366000C09480E28E0D883010F081103FC08091B0
:103670001002C822C09210020E94A00A292D2850D0
:10368000330B2430310520F40E944C060E94680C54
:10369000AA2009F449CC80910D0280FD45CCF801A7
:1036A00012828595859585950E94960BC8010E948A
:1036B000721780910D028595859585950F900F90D5
:1036C0000F900F900F90DF91CF911F910F91FF906E
:1036D000EF90DF90CF90BF90AF909F908F907F90B2
:1036E0006F905F904F903F900C946E0B80910F0203
:1036F000C822C0920F02C0CF3F2D3F70B32E8F2D36
:10370000807F803219F0B29480EFB822882071F067
:1037100081E0881681F1DD20D9F1CC2091F1F8010A
:10372000858180FF8ECF8F7085832BC0DD20B1F027
:10373000909111028B2D892BC11003C00E94B00BF8
:103740009DCFE1E0CE12FACF2091930222FD96CFD9
:10375000981709F493CF8093110290CFC11006C03F
:103760000E949A0A8B2D0E94A50B88CFF1E0CF16FC
:1037700009F484CFF5CFDD2031F025E02C1508F4D5
:103780007DCF8B2DDBCF34E03C1508F477CFEACF2B
:10379000CC2041F3F9E38F1209C02FEF37EE83E01D
:1037A000215030408040E1F700C000008E2D0E9483
:1037B000BA0B64CF8F2D86958695837061F081302A
:1037C00009F05CCFC7019370D11002C090E080E097
:1037D0000E94200653CFC7019370D11002C090E021
:1037E00080E00E9436064ACF8E2DDD2029F00E940F
:1037F0005C080E947A0742CF0E94A107FACF8F2D62
:10380000837091F5D1103ACF4E2D42954695477071
:10381000440F440F8E2D8F70042E01C0880F0A9420
:10382000EAF72E2D2071E4FE07C02FE030E001C042
:10383000220F4A95EAF720953F2D3695369533703D
:10384000323069F050F440911202313029F0822B6D
:1038500084230E94A10B12CF842B822BFACF282B1A
:10386000809112028227F5CF8695DD2011F08F2DF1
:103870008170882309F402CF4E2D429546954770FA
:10388000440F440F8E2D8F70042E01C0880F0A94B0
:10389000EAF72E2D2071E4FE07C02FE030E001C0D2
:1038A000220F4A95EAF720953F2D369536953370CD
:1038B000323069F050F44091C902313029F0822B46
:1038C00084230E945F0BDACE842B822BFACF282B25
:1038D0008091C9028227F5CF9F2D9F70F92EDD20A0
:1038E00029F0892F0E94960B8E2D28CF8E2D0E94B5
:1038F000A50B8F2D0E946E0BC1CE8E2DE2EF8E1682
:1039000009F44BC0E81570F0F0EF8F1639F121EF94
:103910008216D9F1DD2009F45CC0C11092CE8F2D42
:103920008F7138C033EF8316E9F194EF8912F2CF2B
:10393000DD2009F443C02F2D2F71F22E822F0E941B
:10394000960B8091930282FD07C038E0F39EC00180
:103950001124836080930D028F2D1CC0DD2081F027
:10396000E4E0EC1508F48ACE2F2D2F7181E090E071
:1039700001C0880F2A95EAF79091C9028927A1CF43
:10398000F5E0FC1508F47ACEEFCF8F2D8F71DD2096
:1039900009F4B0CF0E94960B71CE8F2D8F71DD2070
:1039A000C9F3A8CF80E0DD2009F48BCF9F2D9F7154
:1039B00081E001C0880F9A95EAF783CF81E00E94E9
:1039C0007A0B81E08C1508F059CE82E00E947A0BC8
:1039D00055CECC2059F0893309F0E8CE9FEFE7EEC1
:1039E000F3E09150E040F040E1F7DECE8F2D8F7193
:1039F00081CFF0E1EF16FFE5FF0609F4D0CB21E11E
:103A0000E2162FE5F20609F4D0CB83EFE8168CE539
:103A1000F80609F446CC08F0C3C1E8EDEE16ECE573
:103A2000FE0609F43ACCF9EDEF16FCE5FF0609F4C1
:103A300044CC27EDE2162CE5F20609F44BC0F6E182
:103A4000EF16FCE5FF0609F08FC08091B60169E230
:103A5000811165E386E991E00E94C1054CCC30E11B
:103A6000E3163FE5F30609F494CB81E1E8168FE510
:103A7000F80609F498CB8DEBE8168CE5F80609F406
:103A8000C1CB08F094CBEBEBEE16ECE5FE0609F4A7
:103A9000B1CB80E0FCEBEF16FCE5FF0609F4ABCB05
:103AA00023EFE2162CE5F20609F4FBCB08F01AC16D
:103AB00088EDE8168CE5F80609F4EFCB99EDE916E8
:103AC0009CE5F90609F4F9CBE7EDEE16ECE5FE0608
:103AD00009F016C126E241EE61EEC8010E94B60F60
:103AE0005FCA85E0DE01119601900D928A95E1F79B
:103AF000F801228189819A8121112DCA0E94EF0A41
:103B0000F82E31CA82722CECE2162CE5F20609F48A
:103B100034CD08F0A7C096ECE9169CE5F90609F447
:103B200018CD08F076C0F3ECEF16FCE5FF0609F4BB
:103B300004CD08F05DC032ECE3163CE5F30609F471
:103B4000D5CC3AE5E3163DE5F30609F457CD08F088
:103B500030CDE1149CE5F90609F440CDEEEDEE160A
:103B6000ECE5FE0609F447CDF8018281E080F180A2
:103B7000882309F447CDC7010E94F710D82E682F7B
:103B8000C7010E94160BB7018D2D0E94EA100E94FA
:103B900012097C01882EF801D280C580C2943FE0D2
:103BA000C32280910D028770A1F0AD2CDD2091F031
:103BB0008F2D807F803421F080E28E0D883048F098
:103BC00082E00E947A0B80910D028770AA24A39450
:103BD0008111A12C9F2C92942FE09222FBE0F915E9
:103BE00008F44CCDE92DF0E0E057F64D0C94D628C2
:103BF00094ECE9169CE5F90609F4A6CC40E752E1FD
:103C000069E772E1E5ECEE16ECE5FE0609F499CC05
:103C100098CFF9ECEF16FCE5FF0609F4A4CC88F484
:103C200037ECE3163CE5F30609F498CC44E652E1A0
:103C300068E572E198ECE9169CE5F90609F481CC97
:103C400080CFEAECEE16ECE5FE0609F491CC42E8F2
:103C500052E163E972E1FBECEF16FCE5FF0609F4C3
:103C600070CC6FCF21EDE2162CE5F20609F495CC6D
:103C7000B8F48EECE8168CE5F80609F486CC08F466
:103C800081CCEFECEE16ECE5FE0609F483CC6EE099
:103C900089E0F0EDEF16FCE5FF0609F478CC51CF92
:103CA00024EDE2162CE5F20609F47DCC78F482EDE1
:103CB000E8168CE5F80609F473CC61E088E193ED31
:103CC000E9169CE5F90609F435CC3BCFE5EDEE1697
:103CD000ECE5FE0609F46ACCFDE5EF16FF0609F4F3
:103CE0005FC92FCFF5EFEF16FCE5FF0609F4E1CA37
:103CF00008F4DBCA36EFE3163CE5F30609F45EC0D0
:103D00001092C80293E0E9169DE5F90608F0D8CABA
:103D1000EAEFEE16ECE5FE0630F4C70182509C4552
:103D2000449708F0D3CA0E94721190939302809333
:103D3000920220E1E2162CE5F20609F4B2CB08F07B
:103D40001CCB88E0E8168CE5F80609F498CB08F05F
:103D5000E8CAE4E0EE16ECE5FE0609F47ECB08F0D6
:103D6000CDCA22E0E2162CE5F20609F470CB809170
:103D70009202826033E0E3163CE5F30609F46ACB75
:103D800060919202F090930284E090E00E942829D2
:103D90006F2D82E290E00E9428290E94971400C9AA
:103DA00035EFE3163CE5F30609F483CA08F47DCA4F
:103DB00096EFE9169CE5F90609F041CE27E245EEBB
:103DC00066EE8BCE1F93CF93DF938091DA01807FD5
:103DD000A9F48091D701882389F080910C02D091B9
:103DE000DB016091D5017091D601A091D801B0910D
:103DF000D901C62FC72316E0D81304C0DF91CF9195
:103E00001F91089590E0109711F0CF3F19F401969B
:103E10008770F2CF189F9001199F300D1124F9017E
:103E2000E452FE4F41814713F2CF40814613EFCF5A
:103E300042814111ECCF438154814A1B5B0B483CCA
:103E4000510528F78091DA018F7080618093DA0143
:103E5000F901EF51FE4F80818F708061808385ED85
:103E600091E00E947217DF91CF911F910C94E50AA7
:103E7000AF92BF92CF92DF92EF92FF920F931F9378
:103E8000CF93DF93CDB7DEB761970FB6F894DEBF5F
:103E90000FBECDBF8C0185E0F801DE011D960190BB
:103EA0000D928A95E1F7F801E28085EDA82E81E078
:103EB000B82E6091D8017091D9016115710509F48E
:103EC00032C19091D5014091D601892F84238F3F33
:103ED00009F429C120813181C380D480F090D701B9
:103EE000F601E61BF70BFF2009F4E8C08091DA0128
:103EF000582F507FE83CF10508F0ABC0511177C056
:103F0000FE2C431321C092131FC0E1101DC08F70FF
:103F100080618093DA01C5010E9472178091DA01F5
:103F2000F80185838F2D61960FB6F894DEBF0FBE22
:103F3000CDBFDF91CF911F910F91FF90EF90DF9058
:103F4000CF90BF90AF900895CD2829F0822F832382
:103F50008F3F09F003C180E0F82FF170DF2E80FF62
:103F60003CC080910C024091DB0156E0841315C0E7
:103F70002D873E878D859E850E942611292F2295AB
:103F80002F702230F0F0243018F59F70F1F0F80116
:103F90009581907FD1F4D12C1EC090E0589FF00104
:103FA000599FF00D1124E452FE4F6181361306C073
:103FB0006081261303C06281E6120FC001968770EC
:103FC000D5CF9F7011F0882331F3805E883018F3CD
:103FD000C8010E947217FD2CA5CFEE2009F4A2CFD4
:103FE0008091DA0181608093DA01F12C9BCF431339
:103FF00006C0921304C0F801EE2009F479C0C8018C
:104000000E943211882309F1EE20F9F08091DA0143
:10401000803270F02091D5013091D60138872F83FE
:104020001986DB86CA868C87CE0107960E94721796
:1040300086E0F801A5EDB1E001900D928A95E1F7D7
:104040000E94E21EFF24F3946DCFC8010E947217F4
:10405000F9CF51110AC085ED91E00E94721786E0F8
:10406000F50111928A95E9F7C0CF43130FC092135F
:104070000DC0E1100BC0F8018583C8010E947217C2
:1040800086E0F50111928A95E9F74CCFC8010E94AC
:1040900032118823D1F2EE20C1F28091DA01803210
:1040A00038F22091D5013091D6013A8329831B82C1
:1040B000DD82CC828E83CE010196B8CFE83CF1053B
:1040C000F8F6FE2CEE2009F243131FC092131DC018
:1040D0008091DA0180FD10C0982F907F69F0F8017F
:1040E0008583903F31F0982F907F905F8F70892B60
:1040F0008583C8010E94721786E0F801A5EDB1E042
:1041000001900D928A95E1F70DCFC8010E943211FE
:1041100081118ECF8091DA0181608093DA01C8012C
:104120000E947217FFCEEE2009F48FCFC8010E94C3
:104130003211F82E882309F488CF86E0F801A5ED26
:10414000B1E001900D928A95E1F78091D5019091AF
:10415000D6010E9426110E94E21EE4CE81E08E2547
:10416000FBCE1F93CF93DF93CDB7DEB767970FB624
:10417000F894DEBF0FBECDBF4B8B5C8B6D8B7E8BFF
:104180008F8B611110920F021A8A198A85E0FE0145
:104190007396DE011D9601900D928A95E1F786E0F7
:1041A000FE013D96DE01179601900D928A95E1F78A
:1041B000CE0107960E94381F811112C086E0FE01D1
:1041C0003796DE01119601900D928A95E1F78A8566
:1041D0009B85892B29F088859F8189238F3FB1F5A5
:1041E00016E080910C029091DB0189131DC0679647
:1041F0000FB6F894DEBF0FBECDBFDF91CF911F91F8
:10420000089596E0929FD001939FB00D1124A4527F
:10421000BE4FFE01319601900D929A95E1F7809381
:10422000DB010E94E50ADCCF819FC001112484528A
:104230009E4F0E94381F8823D1F280910C0290E09B
:1042400001968770992780930C02CBCF2091DB01D8
:1042500030E0C90101968770992740910C024817F8
:10426000190679F60E9497141092DB0110920C0245
:1042700086E0E5EDF1E0DF011D928A95E9F7B0CF28
:104280001F920F920FB60F9211242F933F934F93CB
:104290005F936F937F938F939F93AF93BF93CF93CE
:1042A000DF93EF93FF93D091E900DF708091EC00F2
:1042B000C82FC17080FDC0E81092E9008091F00025
:1042C000877F8093F00078940E94AC141092E900EC
:1042D0008091F00088608093F000CD2BCF70C09368
:1042E000E900FF91EF91DF91CF91BF91AF919F9145
:1042F0008F917F916F915F914F913F912F910F908F
:104300000FBE0F901F9018951F920F920FB60F922D
:1043100011242F933F934F935F936F937F938F93CA
:104320009F93AF93BF93EF93FF938091E10082FF40
:1043300009C08091E20082FF05C08091E1008B7F7F
:104340008093E1008091DA0080FF24C08091D80042
:1043500080FF20C08091DA008E7F8093DA00809108
:10436000D90080FF9BC080E189BD82E189BD09B48D
:1043700000FEFDCF81E08093BC0280919702811105
:1043800009C00E9419040E94E4048091E200846044
:104390008093E2008091E10080FF17C08091E200ED
:1043A00080FF13C08091E2008E7F8093E2008091B5
:1043B000E20080618093E2008091D8008062809367
:1043C000D80019BC85E08093BC028091E10084FF95
:1043D00029C08091E20084FF25C080E189BD82E18F
:1043E00089BD89B5982F917080FFFBCF8091D8004F
:1043F0008F7D8093D8008091E1008F7E8093E100D3
:104400008091E2008F7E8093E2008091E2008160E3
:104410008093E2008091BD02882309F445C084E0C6
:104420008093BC028091E10083FF27C08091E2006D
:1044300083FF23C08091E100877F8093E10082E0C9
:104440008093BC021092BD028091E1008E7F809328
:10445000E1008091E2008E7F8093E2008091E20093
:1044600080618093E20042E060E080E00E94B2045C
:104470008091F00088608093F000FF91EF91BF91F0
:10448000AF919F918F917F916F915F914F913F91EC
:104490002F910F900FBE0F901F90189519BC10927E
:1044A000BC021092970276CF8091E30087FD93E0E3
:1044B0009093BC02B7CF78941F921FB61F9211241D
:1044C0008F939F93AF93BF9380918E0290918F02B1
:1044D000A0919002B09191020196A11DB11D80930F
:1044E0008E0290938F02A0939002B0939102BF919D
:1044F000AF919F918F911F901FBE1F9018951F9293
:104500001FB61F9211248F939F93AF93BF938091F7
:104510008D02811113C080918E0290918F02A09123
:104520009002B09191024196A11DB11D80938E021F
:1045300090938F02A0939002B0939102BF91AF919C
:104540009F918F911F901FBE1F901895CDB7DEB71A
:10455000AA970FB6F894DEBF0FBECDBF84B7877F92
:1045600084BF0FB6F894A89580916000886180930D
:104570006000109260000FBE80E890E00FB6F894E3
:1045800080936100909361000FBE85B7806885BFFE
:1045900085B7806885BF86EB98E0909395018093FE
:1045A00094010E9419040E94E4048091E200846056
:1045B0008093E20078948091BC028823A1F010914E
:1045C000E9001F709091EC00892F817090FD80E8C8
:1045D000182B1092E9008091E80083FD0E94AC1432
:1045E0001F701093E90082E084BD93E095BD9AEFBF
:1045F00097BD80936E000E945911811102C00E94E4
:1046000096100AE411E0F80181918F018F3F11F0BB
:104610000E94B808F1E00F341F07A9F70FE411E07A
:10462000EFE5EE2EE1E0FE2EF80181918F018F3F44
:1046300011F00E94B808E016F106B1F710921702C7
:10464000109216021092300210922F02109219024C
:1046500010921802109232021092310210921B0234
:1046600010921A02109234021092330210921D021C
:1046700010921C02109236021092350210921F0204
:1046800010921E0210923802109237020E94661495
:10469000811102C00E94101382E090E00E94142950
:1046A000809324020E94721190939302809392024D
:1046B0000E947A138FE39CE90197F1F700C0000094
:1046C0000E947A1380912F0280FF08C06FEF7FEF66
:1046D00090E080E00E9446290E94010D83E090E076
:1046E0000E9414290E94A10B549A5C9A259A2D9835
:1046F00082E88093800089E1809381008FEF9FEFB3
:1047000090938700809386000E9471140E94711418
:1047100080912002811133C00E946614811104C06F
:104720000E9410130E94001388E090E00E941C2950
:10473000609381027093820280938302909384023B
:104740006E7F71F40E94001388E090E00E941C29A3
:10475000609381027093820280938302909384021B
:104760000E94CE0610924D028091810280FF04C00B
:1047700060E086950E94A41281E08093200280E090
:1047800091E090938A028093890258E1E52EF12C02
:1047900060E4B62E79E3C72E72E0D72E8091BC027A
:1047A0009924939400E112E1853009F4DEC10E945E
:1047B0007A13882359F08FB7F89440918E02509164
:1047C0008F0260919002709191028FBFAFE2B2E0D0
:1047D000E5E2F2E010E000E0702F8D919D912191D3
:1047E00031912817390709F4E5C160E088248394E2
:1047F000912C28273927A90148215921452B09F453
:10480000D3C169A37AA39C012821392191E0232BEC
:1048100009F490E09BA30E94B5058160782F9DA3C9
:104820008CA349A15AA16BA18DA10E94B120000FB8
:10483000111FF801EB5DFD4F80819181882699263B
:104840009182808280914D028823D1F180914C0227
:10485000E0918102E695E81BE0934802823009F07E
:10486000C0C1F0E0EE57FD4FE4910E2F10E0B5E827
:104870008B2EBFE09B2E80914902882361F010921D
:1048800049020E94B5059093470280934602109218
:104890004B0210924A020E94B505E0914602F09147
:1048A00047028E1B9F0B8F3F9F4750F4E00FF11F75
:1048B000F0934702E093460286E492E0F401099502
:1048C00086E0E0E4F2E0DE01119601900D928A9517
:1048D000E1F79090420280904302109144020091CF
:1048E000450210924202109243021092440210922A
:1048F0004502892D882909F448C080913E02909193
:104900003F020E94A6059C0190913A02992309F466
:10491000EEC323333105C8F19F3F19F09F5F909399
:104920003A02992059F00E943C089FEF19140CF4A8
:1049300091E0899F802D112480934202882059F0B4
:104940000E943C089FEF18140CF491E0899F802D81
:10495000112480934302309142023323B1F020911D
:104960004302222391F045EB3403C0011124992323
:1049700009F491C19093420245EB24039001112464
:10498000332309F48CC130934302812F802B09F427
:1049900048C080913C0290913D020E94A6059C0176
:1049A00090913902992309F49DC325363105C8F148
:1049B0009F3F19F09F5F90933902112359F00E9495
:1049C0001A089FEF11160CF491E0899F802D112495
:1049D00080934402002359F00E941A089FEF10169A
:1049E0000CF491E0899F802D112480934502309131
:1049F00044023323B1F020914502222391F045EB8C
:104A00003403C0011124992309F44DC19093440249
:104A100045EB240390011124332309F448C130935A
:104A200045028091420290914302892B9091440269
:104A3000892B90914502892B11F00E947A0786E01C
:104A4000FE013196A0E4B2E001900D928A95E1F763
:104A50000E944C0690912302891731F00E944C0667
:104A6000809323020E94680C8091BC02843009F07C
:104A700095CE83E08093E9008091E80082FF8ECE9E
:104A80008091E80090E085FF06C00E9438048823EA
:104A900009F411C191E08091E8008B778093E800E0
:104AA000992309F47BCEE981E150E33108F0A0C1FC
:104AB000F0E0E456F64D0C94D6288091BC02843088
:104AC00009F443C080E00E94580680E00E94680C10
:104AD00010924D0280912202811116C09092220202
:104AE00080918102982F9170909321028E7F809304
:104AF00081029FEFE0E7F2E09150E040F040E1F703
:104B000000C000000E94250D10928D020FB6F8948F
:104B1000A895E09260000FBEB092600083B7817FDD
:104B2000846083BF83B7816083BF7894889583B79F
:104B30008E7F83BF0FB6F894A8958091600088613E
:104B400080936000109260000FBE8091BB028823AA
:104B500061F00E947A13EFE2F2E081919191892B4A
:104B600009F0A1C2CE16DF06C1F78091BC028530E4
:104B700009F4A3CF0E9497140E9471140E944C065E
:104B80000E94680C1092220280912102882349F031
:104B90008091810281608093810260E086950E940D
:104BA000A4120E94801103CE6F5F880C991C6031A3
:104BB00009F021CE0F5F1F4F0530110509F00CCE13
:104BC0008FEF8EA38FA318A60E94B5058160782F62
:104BD0009AA789A74EA15FA168A58AA50E94B120C6
:104BE00031CE863059F4F0E0E158FD4FE4910E2FBC
:104BF00010E0A5E78A2EAFE09A2E3DCE893061F411
:104C0000E695F0E0E458FD4FE4910E2F10E0FBED47
:104C10008F2EFEE09F2E2FCE8F3061F4E695F0E0D0
:104C2000E758FD4FE4910E2F10E0E4E78E2EEEE002
:104C30009E2E21CE853159F4F0E0EA58FD4FE491E3
:104C40000E2F10E073E2872E7EE0972E14CE08E23E
:104C500010E046E9842E4DE0942E883109F40BCE05
:104C6000833249F4E4E7F2E00591149169E1862E7C
:104C70006FE0962E00CE04EF11E05AE5852E5DE040
:104C8000952E843209F4F7CD00ED17E03DEC832E2C
:104C900036E0932EF0CD81E0809342026DCE81E02C
:104CA0008093430272CE81E080934402B1CE81E0D2
:104CB00080934502B6CE00E210E0CE0101964C0191
:104CC0008091E80085FD0AC08091E8008B77809391
:104CD000E8000E943804882399F3DCCE8091F1002B
:104CE000F40181934F010150110951F7D3CE1A827B
:104CF00089E08B831AC08A81823009F4EAC183304B
:104D0000D9F1813009F074C02FB7F89460918E0208
:104D100070918F0280919002909191022FBF0E941A
:104D2000DC286B837C838D839E838091BC028430DE
:104D300009F034CD1091E9001F709091EC00892F9B
:104D4000817090FD80E8182B82E08093E9008091CB
:104D5000E80080FF0DC050E040E060E270E0CE016E
:104D600001960E9469048091E8008E778093E800A4
:104D70001F701093E90012CD80912F0290913002A4
:104D80009827892798279C838B8380913102909163
:104D900032029827892798279E838D83809133023A
:104DA0009091340298278927982798878F8380913C
:104DB0003502909136029827892798279A87898704
:104DC00080913702909138029827892798279C87ED
:104DD0008B87ABCF8A81823059F46B817C818D8146
:104DE0009E810E94DC2886E290E00E9428299DCFC7
:104DF0008FEF89839ACF4C816B818A810E94C41086
:104E00009827892798279E838D838FCF8D809E80BA
:104E10009824892498248A810B81F0E20F9F8001D5
:104E2000112420EA829F000D111D11248C8190E035
:104E3000880F991F080F191F692DC80187960E94B6
:104E40002829682DC8018896D0CF0E942A106DCFDE
:104E50008A81893061F48B8143E0849FC0011124F1
:104E60006FEF70E00E948C28862F0E94B2068A8124
:104E70008138C1F060F4803809F057CF20E04B81D1
:104E800060918302809182020E94A8114ECF8238E5
:104E900059F1833809F049CF20E0409184026C81B8
:104EA0008B81F2CF60E08B810E94A4129B81809164
:104EB0008102911111C08E7F8093810210924D0268
:104EC0008FEF90E7E2E081509040E040E1F700C0D2
:104ED00000000E94250D29CF81608093810260E04F
:104EE00086950E94A41221CF8B81809385021DCFCD
:104EF0008A81893059F08A30C1F0813821F1B8F4C3
:104F0000803809F012CF80918402F3CE809186021E
:104F1000869586958695FFEF8F9FC001112463E0EB
:104F200070E00E948C286B8300CF1B82FECE8238FB
:104F300091F0833809F0F9CE809182028B838091C1
:104F400083028C83F2CE8091810280FF02C086951D
:104F5000D0CE80E0CECE80918502CBCE80918602ED
:104F60000E94A5106091810270918202809183025B
:104F7000909184020E949611D8CE80E18A83D5CE8A
:104F800081E08A8389E5B5CE0A811B81102701273C
:104F90001027CE0101963C018C80FC01E80DF11D2B
:104FA0004F01C80189559D4F6814790409F4BDCE9D
:104FB0000935F1E01F0750F40E941429F30184839E
:104FC0000F5F1F4FFFEF6F1A7F0AEBCFF3011482C1
:104FD000F7CF0A811B81102701271027CE010196E8
:104FE0003C018C80800E912E911CC80189559D4FEB
:104FF0008016910609F499CE0935E1E01E0720F4E8
:10500000F30164810E942829FFEF6F1A7F0A0F5F66
:105010001F4FEBCF0E941A1088CE84E0AFCF0A81D9
:105020001B81102701271027CE0101963C018C809F
:10503000FC01E80DF11D4F01C80187966814790441
:1050400009F473CE0038F2E01F0750F40E941429CF
:10505000F30184830F5F1F4FFFEF6F1A7F0AECCFBE
:10506000F3011482F7CF0A811B8110270127102733
:10507000CE0101963C018C80800E912E911CC801BE
:1050800087960815190509F450CE0038E2E01E078E
:1050900020F4F30164810E942829FFEF6F1A7F0A30
:1050A0000F5F1F4FECCF09BD19BD09B400FEFDCF46
:1050B0008091D8008F7D8093D8008091E00082603D
:1050C0008093E0008091E00081FDFCCF0E94971466
:1050D0004CCD86E290E00E9414291B821C821D8226
:1050E0008E8323CE2D32314008F064CC9ACC2D3201
:1050F000314008F013CC49CCDB018F939F930E9481
:105100000129BF91AF91A29F800D911DA39F900D8A
:10511000B29F900D11240895AA1BBB1B51E107C03B
:10512000AA1FBB1FA617B70710F0A61BB70B881F37
:10513000991F5A95A9F780959095BC01CD010895C6
:1051400097FB072E16F4009407D077FD09D00E9434
:105150008C2807FC05D03EF4909581959F4F0895CB
:10516000709561957F4F0895A1E21A2EAA1BBB1B73
:10517000FD010DC0AA1FBB1FEE1FFF1FA217B30723
:10518000E407F50720F0A21BB30BE40BF50B661F39
:10519000771F881F991F1A9469F7609570958095FD
:1051A00090959B01AC01BD01CF010895EE0FFF1F4B
:1051B0000590F491E02D09946927962769277827AF
:1051C0008727782708950E94EB28332312F48A1B3F
:1051D0009B0B0C94FC28A29FB001B39FC001A39F1E
:1051E000700D811D1124911DB29F700D811D112420
:1051F000911D08950E94EB28B7FF0895821B930B21
:1052000008950E94EB28A59F900DB49F900DA49F38
:10521000800D911D11240895B7FF0C9401290E945F
:105220000129821B930B0895F999FECF92BD81BD90
:10523000F89A992780B50895A6E1B0E044E050E0DF
:105240000C944E29A8E1B0E042E050E00C944E29C5
:10525000262FF999FECF92BD81BDF89A019700B42F
:10526000021639F01FBA20BD0FB6F894FA9AF99ACF
:105270000FBE08950396272F0E9429290E942829EE
:10528000252F0E942929242F0C9429290196272FA4
:105290000E9429290C942829DC01CB01FC01F999F1
:1052A000FECF06C0F2BDE1BDF89A319600B40D9272
:1052B00041505040B8F70895FC014150504030F043
:1052C00001900616D1F73197CF01089588279927C5
:1052D0000895FB01DC0104C08D910190801921F437
:1052E00041505040C8F7881B990B0895F894FFCFA0
:1052F000441144114D114D114F114D114D114D11CE
:105300004411441154114D114D1154119115B915F9
:105310005A17B9155A17EC150D165A170B171817F7
:10532000071B071B7C1B7C1BDA1BF41B3E1B3E1B55
:10533000FF1B6C1C7D1C7D1C77267B26EA26FB262A
:105340000627252728277827AE27F826F826BD2701
:0E535000C027C427E9270A280D280F28332874
:10535E00A305C10CA00C9C0C980C01191A1B1C1D4A
:10536E001E1F20212201020101818283E200E90039
:10537E00EA00B500B600B700CD008301CC008A016B
:10538E009201940121022302240225022602270201
:10539E002A02B300B4006F0070003790F0F1F430C1
:1053AE00313233919293969734366667F7F6F5005D
:1053BE0001020202020606060909090909090F0F70
:1053CE000F0F0F0F15151518191919191919191974
:1053DE00191923244022B684016201AC001D073640
:0453EE000756070057
:00000001FF
