:100000000C941D020C9464020C947F020C94640204
:100010000C9464020C9464020C941C1D0C946402F5
:100020000C9464020C9464020C9464020C946402B8
:100030000C9464020C9464020C94731D0C9464027E
:100040000C9464020C9464020C9464020C94640298
:100050000C9464020C9464020C9464020C94640288
:100060000C9464020C94640229001F0021002300F8
:10007000250027002B001A0015001C000C0013009F
:100080002900160009000B000E003300E1001B00E0
:1000900019001100360038001E0020002200240044
:1000A00026004C00140008001700180012002A0057
:1000B000040007000A000D000F0031001D000600BB
:1000C0000500100037002800E00001512C0002510B
:1000D000E20000003A003C003E00400042004400C4
:1000E0000100010001000100010001000100010008
:1000F00001000100010001000100010001000100F8
:10010000010001003B003D003F004100430045006D
:1001100001000100010001000100010001000100D7
:1001200001000100010001000100010001000100C7
:1001300001000100E00001002C000100E2000000CD
:10014000005C1F00210023002500270001000100A2
:100150000100010001000100010001000100010097
:100160000100010001000100010001000100010087
:100170001E0020002200240026004C000100010087
:100180000100010001000100010001000100010067
:100190000100010001000100010001000100010057
:1001A000E00001002C000100E2000000010001005D
:1001B0000100010001000100010001000100010037
:1001C0000100010001000100010001000100010027
:1001D0000100010001000100010001000100010017
:1001E0000100010001000100010001000100010007
:1001F00001000100010001000100010001000100F7
:1002000001000100010001000100010001000100E6
:1002100001000100010000000000000000000000DB
:100220002A2B280000000000000000000000000051
:1002300000000029000000002C1E3420212224345C
:100240002627252E362D3738271E1F20212223242E
:1002500025263333362E37381F0405060708090ACA
:100260000B0C0D0E0F101112131415161718191A66
:100270001B1C1D2F3130232D350405060708090AE4
:100280000B0C0D0E0F101112131415161718191A46
:100290001B1C1D2F3130354C0000000000000000F9
:1002A000000000000000000000000000000000004E
:1002B0000000000000000000000000007E0F00D4DD
:1002C000FFFFFFC70000007809025B00030100A0E8
:1002D000FA090400000103010100092101010001E4
:1002E0002240000705810308000109040100020300
:1002F00000000009210101000122220007058403FA
:1003000008000107050403080001090402000103B5
:10031000000000092101010001227B000705830381
:1003200008000112011001000000084C41450001C5
:1003300000010200010E03520061007200740034DB
:100340000035000000120341006C00610062006192
:10035000006800750079000000040309040660FFCE
:100360000961A1010962150026FF00952075088129
:10037000020963150026FF00952075089102C0054B
:10038000010902A10185020901A10005091901293C
:10039000081500250195087501810205010930093C
:1003A000311581257F95027508810609381581254B
:1003B0007F950175088106050C0A38021581257F95
:1003C000950175088106C0C005010980A10185035A
:1003D00019012AB700150126B70095017510810093
:1003E000C0050C0901A101850419012AA00215010B
:1003F00026A002950175108100C005010906A10122
:10040000050719E029E71500250195087501810206
:100410009501750881030507190029FF150026FFBE
:1004200000950675088100050819012905950575CF
:10043000019102950175039103C011241FBECFEFF6
:10044000D8E0DEBFCDBF04B603FE27C080914503D0
:1004500090914603A0914703B09148038730904B99
:10046000A740B04BD1F4109245031092460310926E
:1004700047031092480314BE84B7877F84BF0FB62A
:10048000F894A89580916000886180936000109234
:1004900060000FBEE0E0F8E3099511E0A0E0B1E0F4
:1004A000ECEAF3E402C005900D92A838B107D9F741
:1004B00023E0A8E8B1E001C01D92A534B207E1F73E
:1004C0000E94B11D0C94A3210C940000A82FB92FF9
:1004D00080E090E041E050EA609530E009C02D9165
:1004E00082279795879510F084279527305EC8F36B
:1004F0006F5FA8F30895EADF8D939D930895CF93DE
:10050000CFB7CF93DF93C3954B9BE9F74B9B10C0BD
:100510004B9B0EC04B9B0CC04B9B0AC04B9B08C017
:100520004B9B06C0C0911C03C395C0931C038EC097
:100530006F93C0911B03DD27CD5DDC4F2F9365E5E5
:100540004B9B03C02F916F91E1CF0F931F934F935C
:1005500020E040E15F9309B10C7003FB27F93F9362
:1005600050E03BE039C01C7040642F77012F5F5F83
:100570001EC0406819B11C702F7752501FC04064D4
:1005800009B12F770C70D1F15F5F00C023C04062CA
:1005900019B12F771C7091F15F5F00C025C00C70FE
:1005A0001027515012F45D5F0000115027952C3F29
:1005B00019B1C8F61C700127015027952C3FC8F6C9
:1005C0004227499309B10C7010274F73115027959A
:1005D0002C3FA8F64695469519B11C7079F0012775
:1005E000015027952C3F98F66B5A60F3315009B1B2
:1005F000B0F600C012E01CBB00271CC03B50319578
:10060000C31BD04012E01CBB0881033C21F10B341A
:1006100011F1209118031981110F1213EDCF4A81A6
:10062000441F093679F10D3211F0013E29F74F7060
:1006300009F0042F009321033F915F914F911F9187
:100640000F912F916F91CCB3C1FD5DCFDF91CF9111
:10065000CFBFCF91189520912103222369F31091E8
:100660001F03112309F049C034300AF448C0309305
:100670001F0320931A0310911B033BE0311B30939F
:100680001B033DC000911F030130BCF50AE54F700C
:1006900049F43091150134FD33C000931501C5EFC5
:1006A000D2E032C0433059F0443091F03091000331
:1006B00034FD26C000930003C1E0D3E025C0309193
:1006C000390334FD1DC000933903CAE3D3E01CC0D5
:1006D00030910C0334FD14C000930C03CDE0D3E043
:1006E00013C0052710E000C000000BB91AC0052791
:1006F00010E0221F1DC010E021C04AE502C032ED0B
:10070000432FC4E1D0E032E01AB11C605B9A0BB118
:100710001AB95CE020E865E320FF05270BB92795AF
:1007200017951C3FF0F66695B8F7B1F720FF05273F
:100730000BB9279517951C3FD0F62795179517FFEE
:10074000052700001C3F0BB9B0F629913A9519F71F
:10075000037F10912003110FC651D0400BB911F047
:100760001093180312E01CBB08601AB1137F402FCE
:10077000437F54E05A95F1F70BB91AB94BB95CCFE6
:1007800081E0089581E008950C94C20308950C94CB
:10079000C6031F93CF93DF9300D000D00F92CDB745
:1007A000DEB749835A836B833091B60189819A8180
:1007B00031111DC06623B9F02223A9F00E94501AFE
:1007C000182F682F89819A810E94F91969817A818D
:1007D000812F0F900F900F900F900F90DF91CF917E
:1007E0001F910C94AD0D0E94271A182FEFCF0E9475
:1007F000501A69817A81EDCFFC01262F4081518109
:100800006281738184810C94C903CF93DF93EC01DF
:1008100060E00E94FC03BE01DF91CF910C94C703FE
:100820008F929F92AF92BF92CF92DF92EF92FF9200
:100830000F931F936B017C0181E090E0A0E0B0E09A
:100840004C015D0104C0880C991CAA1CBB1C4A9574
:10085000D2F7B501A4014C015D0104C0880C991CBC
:10086000AA1CBB1C2A95D2F7482959296A297B2939
:1008700004C0880F991FAA1FBB1F0A95D2F78A01CF
:100880009B010C211D212E213F210417150726074E
:10089000370789F48C299D29AE29BF29BC01CD01D8
:1008A0001F910F91FF90EF90DF90CF90BF90AF908E
:1008B0009F908F90089580959095A095B0958C21EC
:1008C0009D21AE21BF21EACF0F93382F262F6091B3
:1008D0001202709113028091140290911502042F5C
:1008E000432F0E9410040F910C9437190E94E707C0
:1008F0000E94C9050C940C080C940F0808950E94DE
:1009000063150E947E042FEF84E39CE02150804019
:100910009040E1F700C000000C94971D0F931F93C7
:10092000CF93DF938C0161E00E94FC03EC01B801DE
:100930000E94F50B8823D9F1B801CE010E94C403AF
:100940008823A9F1B801CE010E94E40E882379F131
:10095000B801CE010E94360F882349F1B801CE01BB
:100960000E945910882319F1F8018281882361F0CF
:10097000CA35FDE5DF0721F170F4C115ECE5DE07AE
:10098000A1F0CE3DDC45C9F0C801DF91CF911F91A8
:100990000F910C94C003CB358DE5D807A1F0CC3571
:1009A000DD4591F70E94F71AEFCF0E947F0480E0A7
:1009B000DF91CF911F910F9108950E94701CF7CF86
:1009C0000E94001BE1CF0E94031BDECFDF92EF925B
:1009D000FF920F931F93CF93DF93E82FF0E0E85E31
:1009E000FD4FD490282F26952695269530E0F901C5
:1009F000E854FD4F0491877010E0082E02C0159551
:100A000007950A94E2F701701127F901E855FD4FA7
:100A1000E490F12C082E02C0F594E7940A94E2F7D2
:100A200091E0E922FF24F901E856FD4FC491D0E09E
:100A300002C0D595C7958A95E2F7C170DD270115EB
:100A4000110519F081EE0E94E311E114F10419F08F
:100A500086EE0E94E3118D2D0E94E212EF2819F01C
:100A600086EE0E947512012B19F081EE0E9475121C
:100A7000CD2B51F08CE2DF91CF911F910F91FF9020
:100A8000EF90DF900C94E212DF91CF911F910F91C4
:100A9000FF90EF90DF900895EF92FF920F931F93D6
:100AA000CF93DF93EC01162F0AE08881882309F4A5
:100AB00054C0813009F04EC08981813099F47E01A3
:100AC00022E0E20EF11C8A810E94E212E7012196E7
:100AD000812F815050F3EFE9FFE03197F1F700C02B
:100AE0000000F7CF823041F47E0182E0E80EF11C75
:100AF0008A810E94E311EACF833041F47E01E2E073
:100B0000EE0EF11C8A810E947512E0CF843011F044
:100B10002196DDCF2A81229690E080E0AE014F5FE2
:100B20005F4F2053330B2A30310548F0019778F29C
:100B3000EFE9FFE03197F1F700C00000F7CF089F21
:100B4000B001099F700D1124C901860F971F2981DB
:100B5000EA01E4CF0E94E604BACFDF91CF911F9162
:100B60000F91FF90EF90089560E00C944C0508956C
:100B70000C94B70581E00895CF93C82F0E94BA0561
:100B8000882319F0C1FD03C05D9ACF9108955D9847
:100B9000FCCF559A5D9A0895CF93C82F0E94B8054F
:100BA0008C2FCF910C94BC0590E080E008950895BF
:100BB000FC01EE0FFF1FE853FD4F859194910895BE
:100BC000CF93DF930E94AD0D0E94F506EC018115D5
:100BD00020E5920708F042C0811530E4930708F041
:100BE000BDC0883E910528F5803E910508F09DC066
:100BF000883A910588F4853A910508F08FC08130D4
:100C0000910509F492C0009709F48FC0049708F089
:100C10008CC0D0E0C0E089C08F3B910508F489C04A
:100C2000805C9109C03CD105A0F30E94D805EC017D
:100C30007CC08115904250F4C11581E0D80708F0BE
:100C400074C0C03FD10528F3D0656FC0C11590E3D3
:100C5000D90708F079C0CE019F70E7CF811525E54F
:100C6000920758F5811534E5930708F0A6C0811561
:100C700042E5940750F4C11581E5D80708F471C026
:100C8000DC2FCC27C16FD06A50C0982F96959695CF
:100C90009E0123703327C115D34508F07FC0C1E002
:100CA000D0E002C0CC0FDD1F2A95E2F720E2929F30
:100CB000C0011124C82BD92B6FC0C11589E5D807F5
:100CC000A8F4C11598E5D90708F07CC0C11526E540
:100CD000D20708F09ECF8C2F0E948C07C82FD0E03F
:100CE000DC2FCC27CC27DF71D0621FC0C1153AE5BD
:100CF000D30708F46CC0CE0190568115904208F0DD
:100D000088CF8D2F8F710E948C0790E0982F8827B5
:100D100088279F719C012C2BE901E6CFC55AD0E0B2
:100D2000CC5BDE4FC881D0E0D064CE01DF91CF91A3
:100D30000895C85AD0E0CC0FDD1FCA5EDE4F09907F
:100D4000D881C02DD464F1CFCE019927D3FF03C041
:100D5000EC01D86CEACFEC01D06CE7CFDF70D06A41
:100D6000E4CFCE01E4E096958795EA95E1F78370AC
:100D70002C2F26952695237090E2299F900111240F
:100D8000382B8C2F8370C1E0D0E002C0CC0FDD1F68
:100D90008A95E2F7C22BD32BDC68C7CFC1E0D0E045
:100DA00002C0CC0FDD1F2A95E2F730E2939FC0010D
:100DB0001124C82BD92BDA68B8CFD82FCC27C46F11
:100DC000D06AB3CFDC2FCC27C06FD06AAECF8C2FC8
:100DD0008F700E948C0734E0D695C7953A95E1F75D
:100DE000CF709C2FEC01D069A0CF82389105B1F172
:100DF000B0F48133910509F475C048F48932910546
:100E000009F469C08A32910509F473C008958533E5
:100E1000910509F459C08933910501F10895833E84
:100E20009105A9F138F4803E9105F9F0823E9105D3
:100E300049F10895863E9105A9F1873E9105C9F1D2
:100E4000843E910519F52091DE0221FF1FC080919B
:100E5000DD0284FD14C087EE90E008952091DD024C
:100E60002370A1F080EE90E008952091DD0220FD36
:100E700047C03091DE0230FF09C024FF44C090E03B
:100E800080E004C02091DD0222FDF7CF089520917B
:100E9000DD0222FD3BC03091DE0230FDE3CF24FFB6
:100EA000F5CFEDCF2091DD0223FFF0CF24FDE7CF7A
:100EB000D2CF2091DD0223FD2CC03091DE0231FF24
:100EC000EECF84EE90E008952091DD0225FFDECF85
:100ED00089E290E008952091DD0225FFD7CF85E3D8
:100EE00090E008952091DD0226FFD0CF8AE290E0C5
:100EF00008952091DD0226FFC9CF81E390E0089597
:100F000089E390E0089583EE90E0089582EE90E00A
:100F1000089586EE90E008959091DD0292FF06C05C
:100F2000282F28712830F9F4877F846093FF06C04A
:100F3000282F28712831F1F4877E84612091DE0208
:100F400020FF06C0382F38713830D9F4877F816090
:100F500021FF06C0282F28712831D1F4877E8161B6
:100F600094FD877E0895282F24712430F9F68B7F15
:100F70008860DCCF282F2471243101F78B7E8861B3
:100F8000DDCF382F3171313019F78E7F8860E0CF97
:100F9000282F2171213121F78E7E8861E1CF0C94B9
:100FA000CF0B0E9465088FE39CE90197F1F700C021
:100FB00000000E94650880E00E94110880FF04C0C4
:100FC0000E94CF070C94971D08950C94D1070E949E
:100FD000CB1B811102C00E94701C0E94D61B809303
:100FE00027020E94DE1B9093DE028093DD020E94A6
:100FF000E5070E94DA1B682F70E090E080E00E9415
:10100000FB1860911202709113028091140290916A
:1010100015020C94351908950C940B0808950C943E
:101020000E08E82FF0E0E851FD4F80810895089503
:1010300080EA8A95F1F7089500C008950C94180885
:10104000F894E82FE295EF70F0E031A1282F2F708F
:1010500081E090E001C0880F2A95EAF7982F9095DB
:10106000932391A392A1892B82A378940895CF937F
:10107000DF93CDE4D1E089910E94200881E0C6355C
:10108000D807C9F786E90E94200884E90E94200851
:1010900082E30E94200885E30E94200884E30E94E6
:1010A000200883E30E942008EFEDF2E0A8EEB2E012
:1010B00011921D9282E0E83EF807D1F789E00E9484
:1010C000DC08DF91CF910C947604CF92DF92EF92FF
:1010D000FF920F931F93CF93DF93CDE4D1E00FEDF9
:1010E00012E0D12CEE24E394F12C8991F894E82FAE
:1010F000E295EF70F0E021A18F70A70102C0440FCC
:10110000551F8A95E2F7CA01922F982B91A392A1BD
:101110008095892382A378940E941C08E7E4F1E07B
:1011200030E020E0C12C4191A42FA295AF70B0E037
:1011300090968C9190E04F7002C0959587954A9556
:10114000E2F780FD35C08E2D022E01C0880F0A9473
:10115000EAF7C82A2F5F3F4F2630310521F7FE01FD
:10116000319780810E9420080E941E08F80180812A
:10117000C81601F1C08281E0D82A0F5F1F4FF1E04D
:10118000C635DF0709F0B1CF2D2D49E068EE72E0DA
:101190008FED92E00E94DD080E947C048D2DDF918E
:1011A000CF911F910F91FF90EF90DF90CF90089516
:1011B00080E0CFCF80E0E0CF0895FF920F931F93A0
:1011C000CF93DF93F82E092F162FD72FC42F22236A
:1011D00049F081E080938C010E944C1D90938B011B
:1011E00080938A0180918C018823A1F080918A01EB
:1011F00090918B010E94641D069760F0EF2DF02FF7
:10120000A12FBD2FCE0FDF2FD11DEC17FD0741F40D
:1012100010928C01DF91CF911F910F91FF90089553
:1012200081918D93F2CF8091930180FF12C06091E4
:10123000050185E0689FB001112475956795759546
:10124000679560387105A8F561157105A1F1862FC4
:10125000089581FF09C06091050185E0689FB00194
:10126000112475956795EDCF6091050182FD0AC047
:10127000809192018823D1F0909104016091050141
:10128000891728F085E0689FB0011124DACF869F86
:10129000B001112485E0869F9001879F300D1124B5
:1012A000692F70E0C9010E942C21CBCF65E070E06E
:1012B000CECF8FE7089581E008958091930180FF5C
:1012C0000CC06091010170E0759567957595679503
:1012D0006115710549F1862F089581FF06C060915F
:1012E000010170E075956795F3CF6091010182FD72
:1012F0000BC0909191019923A1F060910001809120
:101300000101961738F0682F70E06038710500F31E
:101310008FE70895899FC001112470E00E942C215D
:10132000F4CF61E070E0D7CF81E00895803F31F4E1
:101330000E9413098195809397010895813F19F4C4
:101340000E941309F8CF823F31F40E94130981955E
:10135000809396010895833F19F40E941309F8CFF2
:10136000893F29F40E945D098093980108958A3F7E
:1013700021F40E945D098195F7CF8B3F31F40E94E3
:101380005D0981958093990108958C3F19F40E941D
:101390005D09F8CF9CE0980F953070F4845F990B4D
:1013A00021E030E001C0220F8A95EAF78091950193
:1013B000822B8093950108958D3F31F480919301A4
:1013C00081608093930108958E3F21F48091930171
:1013D0008260F7CF8F3FB9F7809193018460F1CF9E
:1013E00040919601803F59F48091970187FF0DC08D
:1013F0001092970141110BC01092920108C0813FD9
:1014000081F48091970118169CF3442381F0809118
:10141000980190919901892B09F05AC0109291017D
:101420000895823F49F447FFF0CF109296018091D2
:1014300097018111ECCFE0CF833F19F41416ACF380
:10144000E4CF90919801893F29F41916F4F610928F
:101450009801DBCF8A3F19F497FFD7CFF8CF90914F
:1014600099018B3F29F497FFD0CF10929901CDCFEE
:101470008C3F19F41916CCF3C8CF9CE0980F953027
:1014800090F4845F990B21E030E0B90102C0660F4F
:10149000771F8A95E2F7CB0180959091950189237A
:1014A00080939501B2CF8D3F31F4809193018E7F6F
:1014B00080939301AACF8E3F21F4809193018D7F79
:1014C000F7CF8F3F09F0A1CF809193018B7FF0CFB1
:1014D00008950E944C1D9C01909196018091970166
:1014E000982B21F03093900120938F0190919801D7
:1014F00080919901982B21F030938E0120938D01DA
:1015000084E991E00C949F10EF92FF920F931F9348
:10151000CF93DF9300D000D000D0CDB7DEB786E008
:10152000E4E9F1E0DE01119601900D928A95E1F770
:10153000E0909601F0909701009198011091990127
:1015400010929601109297011092980110929901B1
:101550008E2D8F2991F080918F01909190010E94A2
:10156000641DAC0190919201992309F43FC08091D0
:1015700006018417150608F447C0802F812B91F0CF
:1015800080918D0190918E010E94641DAC0190911B
:101590009101992309F477C08091020184171506FF
:1015A00008F47FC08091960190919701892B9091CA
:1015B0009801892B90919901892B11F00E94690A59
:1015C00086E0FE013196A4E9B1E001900D928A9582
:1015D000E1F726960FB6F894DEBF0FBECDBFDF91C0
:1015E000CF911F910F91FF90EF90089520910701E7
:1015F0008AE0289F900111242417350708F0BDCFF9
:101600009F5F9093920102C09F3FD1F7EE2059F067
:101610000E9413099FEF1E140CF491E0899F802D06
:10162000112480939601FF2059F00E9413099FEF27
:101630001F140CF491E0899F802D11248093970151
:1016400030919601332309F498CF209197012223FA
:1016500009F493CF45EB3403C0011124992359F0C9
:101660009093960145EB240390011124332339F024
:101670003093970182CF81E080939601F3CF81E090
:10168000809397017ACF209103018AE0289F9001EF
:1016900011242417350708F085CF9F5F909391019F
:1016A00002C09F3FD1F7002359F00E945D099FEFD0
:1016B00010160CF491E0899F802D112480939801DD
:1016C000112359F00E945D099FEF11160CF491E06F
:1016D000899F802D112480939901309198013323A3
:1016E00009F460CF20919901222309F45BCF45EBE7
:1016F0003403C0011124992359F09093980145EBCC
:10170000240390011124332339F0309399014ACFF7
:1017100081E080939801F3CF81E08093990142CFDB
:1017200086E0E4E9F1E0DF011D928A95E9F7109285
:1017300092011092910110929301089583E290E03A
:101740000E946121813289F484E290E00E9461214B
:10175000873059F485E290E00E94612191E0853163
:1017600009F090E0892F8170089580E0FCCFCF933D
:10177000C82F6FEF811161E283E290E00E946F2138
:101780006FEFC11167E084E290E00E946F216FEF7C
:10179000C11165E185E290E0CF910C946F2180E06A
:1017A0000E94B70B0C94C51B089586E290E00E943E
:1017B0006121682F70E090E080E0089586E290E07B
:1017C0000C946F210E94D40B0E949E0B81110CC0BF
:1017D00060E070E0CB010E94DE0B0E94250D0E94AC
:1017E000110E81E00C94B70B0895CF93FB01C281D9
:1017F000CC2309F19C0122513F452031310520F5D0
:1018000082510E94210EC0E08C2FCF91089581E07B
:101810000E945D1943E062E081E00E946404F3CF1E
:1018200081E00E947E1943E062E081E00E9464044E
:10183000EBCF82E0F6CF8031FFE59F0789F381315E
:101840009F45B9F3C1E0E0CF8031EFE59E07F9F2A3
:1018500081319F45C9F682E0DBCF2FEFFC01208369
:101860000895EF92FF920F931F93CF93DF93EC01B4
:10187000062FE881E150E33108F05EC0F0E0EB555F
:10188000FE4D0C944021198289E08A83602FCE019D
:10189000DF91CF911F910F91FF90EF900C94D31E89
:1018A0008981823069F0833071F08130D9F40E94EF
:1018B000581D0E9446216A837B838C839D83E6CFDB
:1018C0000E94D50BF6CF7E0182E0E80EF11C10E0FD
:1018D000812F0E941108F70181937F011F5F19304A
:1018E000B9F7D4CF602FCE010E942D0CCFCF8981C4
:1018F0008230C1F76A817B818C819D810E94462163
:101900000E94DE0BC3CF4B816A8189810E94F70C54
:101910009827892798279D838C83B8CF2C813D8178
:101920003227232732274B816A8189810E94100D3B
:10193000ADCF0E94250DAACF8FEF8883A7CF0E943D
:10194000BA0D8983A3CF0E94BC0D982789279827B9
:101950009A8389839BCF6B8170E089819A81AE01E4
:101960004C5F5F4F9827892798270E94BF0D8ECF25
:101970006B8170E089819A81AE014C5F5F4F98273F
:10198000892798270E94E60D81CF0E94110E7ECFF5
:101990000E94E50CD6CF6B8170E089819A81AE01FF
:1019A0004C5F5F4F9827892798270E945D0D6ECF67
:1019B0006B8170E089819A81AE014C5F5F4F9827FF
:1019C000892798270E94830D61CF84E0089550E015
:1019D000440F551F9CE0699F400D511D11249CE64A
:1019E000899F400D511D1124CA01879608950F93B8
:1019F0001F93CF93DF930E94E70C8C010E9461211B
:101A0000C82FD0E0DC2FCC27C80101960E946121AD
:101A10009E01282BC901DF91CF911F910F9108954D
:101A20000F931F93CF93DF93122F032F0E94E70C86
:101A3000EC01602F0E946F21612FCE010196DF9192
:101A4000CF911F910F910C946F21AF92BF92CF92C3
:101A5000DF92EF92FF921F93CF93DF9388E6C82E19
:101A600080E0D82ED0E07601C0E014C0F5012591C9
:101A70003491412F6C2F8D2F0E94100D82E0A80E03
:101A8000B11C1F5F163091F78CE0E80EF11CCF5FA0
:101A9000C93019F0570110E0E9CFDF5F8CE6C80EBE
:101AA000D11CD43001F7DF91CF911F91FF90EF90BF
:101AB000DF90CF90BF90AF900895EF92FF920F9379
:101AC0001F93CF93DF93EC018A017C01E60EF71E92
:101AD000CE018796CE15DF0539F4DF91CF911F91A6
:101AE0000F91FF90EF900895C03B21E0D20740F4A2
:101AF0000E946121F80180830F5F1F4F2196E8CF7C
:101B0000F8011082F9CFCF92DF92EF92FF920F93FC
:101B10001F93CF93DF937C016A018C01060F171F7F
:101B2000EC01CE018796C017D10749F4DF91CF9120
:101B30001F910F91FF90EF90DF90CF900895C03BE1
:101B400021E0D20740F4FE01EE19FF09EC0DFD1D66
:101B500060810E946F212196E4CF462F843038F4B3
:101B6000793028F4663018F4672F0C94F70C90E065
:101B700080E0089580E1089589E292E00895EF926F
:101B8000FF920F931F93CF93DF93EC018A017C01A7
:101B9000E60EF71ECE0189529E4FCE15DF0539F4B1
:101BA000DF91CF911F910F91FF90EF900895C9326F
:101BB00022E0D20740F40E946121F80180830F5F88
:101BC0001F4F2196E7CFF8011082F9CFCF92DF9215
:101BD000EF92FF920F931F93CF93DF937C016A01E3
:101BE0008C01060F171FEC01CE0189529E4FC017C2
:101BF000D10749F4DF91CF911F910F91FF90EF90A2
:101C0000DF90CF900895C93222E0D20740F4FE0160
:101C1000EE19FF09EC0DFD1D60810E946F212196D8
:101C2000E3CFCF93DF93C7EDD1E060E0CE010E9418
:101C30006F212196C11584E0D807B9F7DF91CF91C4
:101C40000895DF92EF92FF920F931F93CF93DF934C
:101C500000D000D0CDB7DEB7F82E8FE08F1540F062
:101C60008FEF93E00E94612107ED11E08823C1F01E
:101C70000F900F900F900F90DF91CF911F910F91C8
:101C8000FF90EF90DF900895011584E0180781F32D
:101C9000C8010E946121811101C0FA940F5F1F4F9A
:101CA000F110F2CF19821A821B821C82DD24D39498
:101CB00078018FEFE81AF80AC8010E946121898330
:101CC0001A828823A9F29FEF980F933078F48A83C1
:101CD000D9820E5F1F4FC7010E9461218B83882329
:101CE00039F2CE0101960E94B405E2CF8701F9CF07
:101CF0000F931F93CF93DF93C42FD22FFC018281C8
:101D00008823C9F040939C010E944C1D90939B0135
:101D100080939A0180E28C0F883008F050C0C77021
:101D200081E001C0880FCA95EAF7DF91CF911F913A
:101D30000F910C94EA1210919C01141335C08091FC
:101D40009A0190919B010E94641D883C910560F569
:101D5000C0E2CD0F1D17B9F080E2810F883040F44A
:101D6000177081E001C0880F1A95EAF70E94F112FE
:101D7000C83048F481E09D2F977001C0880F9A9574
:101D8000EAF70E94EA12802F0E94E212C830B8F4EB
:101D9000D77081E001C0880FDA95EAF7DF91CF9123
:101DA0001F910F910C94F11280E28C0F883038F45F
:101DB000C77081E001C0880FCA95EAF7EFCFDF91C5
:101DC000CF911F910F9108950F939C01CB01233F59
:101DD0004CE5340759F1A8F4283DFCE53F0701F133
:101DE000293D4CE53407D1F1273D3C4591F406E20D
:101DF00021EE41EE67ED7CE50E94780E80E00F91C8
:101E00000895253FFCE53F07E9F0B0F0263F3C454B
:101E1000F9F0FC018281882339F110929C01EFCF07
:101E200007E225EE45EE68ED7CE5E6CF06E221EE21
:101E300040EE63EF7CE5E0CF07E225EE44EE64EF91
:101E40007CE5DACF06E221EE42EE65EF7CE5D4CF09
:101E500007E225EE46EE66EF7CE5CECF08E221E014
:101E600045EE69ED7CE5C8CF81E0C9CFCF93DF9324
:101E7000EC01FB018281882309F419C1C230FCE521
:101E8000DF07C0F1C6319CE5D90730F09E012A5F1B
:101E90003C452930310570F50E94DE1B9093DE022F
:101EA0008093DD02C031ECE5DE0709F4CFC008F015
:101EB0005BC0C8308CE5D80709F4B6C088F5C430DB
:101EC000ECE5DE0709F4A8C0C0F4C2308CE5D80701
:101ED00009F49CC08091DD028260C330DC4509F4C6
:101EE00098C08091DD029091DE020E94EC1B0E945E
:101EF000631580E0DF91CF9108958091DD028061CC
:101F0000C630ECE5DE0709F484C08091DD0288600C
:101F1000C730DC4508F47DC08091DD02806279C065
:101F2000CC308CE5D80709F489C070F48091DD02CB
:101F30008C60CA30ECE5DE0709F46BC008F478C0A9
:101F40008091DD028E7F65C0CE308CE5D80709F424
:101F500079C08091DD028B7FCF30DC4508F459C019
:101F60008091DD028F7E55C0CB3FECE5DE0709F4A2
:101F700057C030F5C3318CE5D80709F46FC078F449
:101F8000C131ECE5DE0709F465C0C231DC4509F07A
:101F9000A8CF0E9463158091DD028F773AC0C531CA
:101FA0008CE5D80709F462C008F476C08091DE029F
:101FB0008160CA3FDC4509F094CF8093DE0291CF67
:101FC000CF3FFCE5DF0709F44DC088F48091DE02C5
:101FD0008D7FCD3F9CE5D90781F38091DE028E7F16
:101FE000CE3FDC4550F38091DE028360E6CFC13006
:101FF000FDE5DF0709F459C008F444C080E0C230B1
:10200000DD4509F06ECF0E94721C6BCF8091DD021E
:1020100081608093DD0265CF8091DD028460F9CF1D
:102020008091DE028260C9CF8091DD028064F1CFB1
:102030000E9463158091DD028068EBCF8091DD0204
:102040008D7FE7CF8091DD02877FE3CF8091DD0236
:102050008F7DDFCF8091DD028F7BDBCF8091DD0232
:10206000837FD7CF8091DE028C7FA7CF8091DD0266
:1020700082FB992790F921E0922790FB82F990FB4F
:1020800083F9C7CF8091DE02982F909591708E7F53
:10209000892B90FB81F991CF0E9463159091DD020D
:1020A000892F97FB87F98058B4CF81E0ACCF81E0CE
:1020B00021CFCF93DF93EB0186319C4511F50E9430
:1020C000061B9A81992399F08A7A91E009F490E0AD
:1020D00090939D01811109C089E20E94C01A0E945B
:1020E000561B80E0DF91CF91089585E3F6CF809174
:1020F0009D01811104C089E20E94C71AF0CF85E3D7
:10210000FBCF81E0EFCF9093A3018093A2010895CC
:10211000E091A201F091A301309721F00190F081AC
:10212000E02D099480E00895E091A201F091A301CF
:10213000309721F00280F381E02D09940895E09119
:10214000A201F091A301309739F022E0DC012C9339
:102150000480F581E02D099408952091A00130912B
:10216000A1012817390771F09093A1018093A00174
:10217000E091A201F091A301309721F00680F78150
:10218000E02D0994089520919E0130919F01281718
:10219000390771F090939F0180939E01E091A20115
:1021A000F091A301309721F00084F185E02D09948E
:1021B00008950E94581D6093B2017093B3018093FB
:1021C000B4019093B5016093AE017093AF01809319
:1021D000B0019093B1010895089508950C94EC1006
:1021E00008950C94F01083EC9BE10E94AC1D0E94BA
:1021F000ED100C94EE1081E008950C94FB100895FE
:1022000008950E94FF100C9400110E94431D0E942B
:1022100037080E94E20B0C94F1109F92AF92BF928C
:10222000CF92DF92EF92FF920F931F93CF93DF93A2
:10223000CDB7DEB72A970FB6F894DEBF0FBECDBF7D
:102240000E94650881110E94D91085EAA82E81E0BC
:10225000B82E10E000E0902E802F0E941108E82E8A
:10226000F501C1905F01C81609F44DC080912702A5
:1022700081FD0E941708D12CFF24F394CE248C2DCD
:102280008F21E1F10E94FD10882399F0DE829F8268
:10229000EF2081E009F480E088870E944C1D816076
:1022A000782F9A8789874E815F8168858A850E9409
:1022B000AC11F801EB55FE4F8081F826F0820E94A8
:1022C000840A0E9488109091A401891799F10E94B4
:1022D00088108093A4012A960FB6F894DEBF0FBE33
:1022E000CDBFDF91CF911F910F91FF90EF90DF90C5
:1022F000CF90BF90AF909F900C94CC05D394FF0CDF
:10230000F6E0DF12BCCF0F5F1F4F0930110509F057
:10231000A2CF8FEF89838A831B820E944C1D81602C
:10232000782F9D838C8349815A816B818D810E9496
:10233000AC11C5CF2A960FB6F894DEBF0FBECDBF45
:10234000DF91CF911F910F91FF90EF90DF90CF9091
:10235000BF90AF909F900895DF92EF92FF920F93FE
:102360001F93CF93DF93CDB7DEB72B970FB6F894BB
:10237000DEBF0FBECDBF7A878B87F42E052F162FB9
:10238000E72ED82E61110E94261B1E821D827E2DF3
:10239000EC82DD824F2D502F612F8D2D9E812B964B
:1023A0000FB6F894DEBF0FBECDBFDF91CF911F9166
:1023B0000F91FF90EF90DF900C94D917FC01808172
:1023C00091810C94921ACF93C82F882309F48BC063
:1023D0008238C1F40E94881081FD85C089E30E9483
:1023E000C01A0E94561B2FEF81EE94E021508040CE
:1023F0009040E1F700C0000089E30E94C71ACF9126
:102400000C94561B8338A1F40E94881080FD6BC089
:1024100083E50E94C01A0E94561B2FEF81EE94E0C4
:10242000215080409040E1F700C0000083E5E5CFF7
:102430008438A1F40E94881082FD55C087E40E9470
:10244000C01A0E94561B2FEF81EE94E0215080406D
:102450009040E1F700C0000087E4CFCF8CEF8C0FF5
:10246000813A90F46C2F80910801909109010E94AB
:10247000891C882329F08C2F0E94C71A0E94561BA2
:102480008C2F0E94C01ABBCF80E28C0F883048F49A
:10249000C77081E001C0880FCA95EAF70E94091B46
:1024A000AECFEBE5EC0FE33040F4F0E0EC57FE4F3D
:1024B000808190E0CF910C94AD10E8E5EC0FE7310E
:1024C00050F4F0E0EE0FFF1FEA5AFE4F8081918139
:1024D000CF910C94C310C03F30F08C2F0E9496090E
:1024E000CF910C94690ACF910895882309F452C0C2
:1024F000823871F40E94881081FF4CC089E30E94E9
:10250000C01A0E94561B89E30E94C71A0C94561BDE
:10251000833859F40E94881080FF3CC083E50E94F4
:10252000C01A0E94561B83E5EFCF843859F40E94ED
:10253000881082FF2FC087E40E94C01A0E94561B99
:1025400087E4E2CF9CEF980F913AF0F290E2980F77
:10255000983050F4877091E001C0990F8A95EAF79E
:10256000892F0E940F1BD2CF9BE5980F933020F448
:1025700090E080E00C94AD1098E5980F973120F42E
:1025800090E080E00C94C310803F20F00E94F0099E
:102590000C94690A08951F93CF93DF93182FEB01D2
:1025A0000E94E311209731F4812FDF91CF911F9189
:1025B0000C9475128FE99FE00197F1F700C00000BD
:1025C0002197F0CF70E060E0893311F460E570E0AE
:1025D0000C94CB12882321F00E94091B0C94561BEB
:1025E0000895882321F00E940F1B0C94561B089518
:1025F000BF92CF92DF92EF92FF920F931F93CF93F0
:10260000DF936C01D62FC72FFC0112810581029543
:102610000F700E94DE1AE82E8823A1F0E12E11230C
:1026200089F08C2F807F803429F080E28D0FE12C9F
:10263000883040F082E00E94A71B0E94DE1A91E0E1
:10264000E82EE926BC2EB2949FE0B922EB2DF0E0F3
:10265000E854FE4D0C9440210C2F0F70C07F11F0F8
:102660000295007F1123A9F0002359F080E28D0F1D
:10267000883010F0D11109C0802F0E94091B0E94E0
:10268000561B8D2F0E94E31114C0802F0E94191B2E
:10269000F6CF8D2F0E947512002359F080E28D0F26
:1026A000883010F0D1112CC0802F0E940F1B0E9487
:1026B000561B2B2D2850330B2430310520F40E945B
:1026C00088100E94CC05EE2009F49EC10E94DA1AFF
:1026D00080FD9AC1F60112820E94D41A0E945D19EF
:1026E000C6010E9425150E94D41ADF91CF911F9137
:1026F0000F91FF90EF90DF90CF90BF900C947E19D8
:10270000802F0E941F1BD3CFFC2FFF70FF2EC07F96
:10271000C03219F0F29480EFF822DD2369F0D13055
:1027200049F1112391F1002351F1F601858180FFD8
:10273000A8CF8F70858323C0112381F0011106C0BB
:102740000E94391B8F290E94EA12B3CF0130C1F7D2
:102750000E94391B8F290E943F1BABCF011106C07D
:102760000E944C1B8F2D0E94F112A3CF013009F45F
:10277000A0CFF6CF112329F0063008F09ACF8F2D85
:10278000E2CF053008F095CFEDCF002359F3D933D0
:1027900049F4FFEF27EE33E0F15020403040E1F7FD
:1027A00000C000008D2F0E94751283CF8C2F86955C
:1027B0008695837069F0813009F07BCF8D2F9C2F37
:1027C0009370111102C090E080E00E94C31071CF9D
:1027D0008D2F9C2F9370111102C090E080E00E9419
:1027E000AD1067CF8D2F112329F00E9496090E940A
:1027F000690A5FCF0E94F009FACF8C2F837009F02D
:1028000041C0111156CF4D2F429546954770440F48
:10281000440F0D2F0F7010E030E020E0042E04C0B4
:10282000000F111F221F331F0A94D2F760E070E0DF
:10283000CB01D4FF0FC06FE070E080E090E004C0F7
:10284000660F771F881F991F4A95D2F7609570957C
:1028500080959095C695C695C370602B712B822B81
:10286000932BC23049F058F4C13019F00E940F196F
:1028700020CF0E94FD181DCF0E9421191ACF0E945F
:10288000FB1817CF8695112311F08C2F81708823A8
:1028900009F40FCF4D2F429546954770440F440FD2
:1028A0000D2F0F7010E030E020E0042E04C0000F68
:1028B000111F221F331F0A94D2F760E070E0CB0192
:1028C000D4FF0FC06FE070E080E090E004C0660FBE
:1028D000771F881F991F4A95D2F76095709580954C
:1028E0009095C695C695C370602B712B822B932B48
:1028F000C23049F058F4C13019F00E94D419D9CE31
:102900000E94C219D6CE0E94E619D3CE0E94371972
:10291000D0CECF70112329F08C2F0E945D198D2FFE
:1029200012CF8D2F0E94F1128C2F0E947E19C1CEE2
:10293000D23F89F160F4D03FC9F0D13F29F1112392
:1029400009F442C001119DCE8C2F8F7121C0D33F5D
:1029500039F1D43FA1F7112369F1CF718C2F0E9477
:102960005D1963E08C2F0E948C1BA3CE112341F0D4
:10297000053008F09ECE8C2F8F710E94A11999CE40
:10298000063008F096CEF7CF8C2F8F71112369F2A5
:102990000E945D198ECE8C2F8F711123C9F3C5CF84
:1029A000112329F08C2F8F710E94481982CE0E942A
:1029B00043197FCE81E00E94A71B023008F479CE34
:1029C00082E00E94A71B75CE002359F0D93309F08D
:1029D000E9CE8FEF97EEE3E081509040E040E1F7E1
:1029E000DFCE8C2F8F71A1CF4C2F4F706D2FC60172
:1029F0000E94D4050E9473185CCE4C2F4F706D2F2F
:102A0000C6010E94D70555CEDF91CF911F910F913E
:102A1000FF90EF90DF90CF90BF9008950F931F939A
:102A2000CF93DF93EC01688179818A810E949C1A9F
:102A30008C010E94F8190E94FA18B801CE01DF91AA
:102A4000CF911F910F910C94F812CF93DF93EC016B
:102A50008B819C81892B29F08881998189238F3FE3
:102A600059F4DF91CF910895CE010E940E15CE0149
:102A7000DF91CF910C940504CE010E948E04811148
:102A8000F3CF0E94DE1A882361F38A81882349F3F9
:102A900082E0DF91CF910C94A71B90E080E00E9430
:102AA000AD1090E080E00E94C3100E94261B0E949F
:102AB000361B0E94561B0E94900B0C94690A0E94C0
:102AC000CE1A0C944D150E94161B0C945F15E92F1D
:102AD000E295EF70E250EE3070F4F0E0E853FE4D16
:102AE0000C944021803F19F020F4883E20F481E0CE
:102AF0000895843FE1F380E00895883EC0F3813F6C
:102B0000D1F7F5CF93FB882780F908950E94921A98
:102B10000C946715CF93DF9300D000D00F92CDB700
:102B2000DEB70F900F900F900F900F90DF91CF9125
:102B30000895CF93DF9300D000D000D0CDB7DEB79B
:102B400026960FB6F894DEBF0FBECDBFDF91CF91B2
:102B500008951F93CF93DF93C091B70116E0809142
:102B6000B8018C1304C0DF91CF911F910895D0E07C
:102B70001C9FF0011D9FF00D1124E754FE4F408172
:102B8000518162817381848195810E94991521967A
:102B9000C770E5CF4091E9015091EA016091EB01E6
:102BA0007091EC018091ED019091EE010C949915DA
:102BB0001F93CF93DF938091EE01807FA9F48091E2
:102BC000EB01882389F08091B701C091B801609131
:102BD000E9017091EA01A091EC01B091ED01D62FCD
:102BE000D72316E0C81304C0DF91CF911F91089539
:102BF00090E0109711F0DF3F19F401968770F2CF43
:102C0000189F9001199F300D1124F901E754FE4FD0
:102C100041814713F2CF40814613EFCF42814111EA
:102C2000ECCF438154814A1B5B0B483C510528F78C
:102C30008091EE018F7080618093EE01F901E25482
:102C4000FE4F80818F708061808389EE91E00E94C9
:102C50002515DF91CF911F910C94A915AF92BF92CA
:102C6000CF92DF92EF92FF920F931F93CF93DF9358
:102C7000CDB7DEB761970FB6F894DEBF0FBECDBFFC
:102C80008C0185E0F801DE011D9601900D928A9578
:102C9000E1F7F80140815181E28089EEC82E81E0A0
:102CA000D82E6091EC017091ED016115710509F468
:102CB00061C19091E9012091EA01892F82238F3F20
:102CC00009F458C1A380B480F090EB01F501E61B34
:102CD000F70BFF2009F4FCC08091EE01382F307F04
:102CE000E83CF10508F0B2C0311179C0FE2C251383
:102CF00023C0941321C0E1101FC08F7080618093A6
:102D0000EE010E94CA15C6010E9425158091EE01B0
:102D1000F80185838F2D61960FB6F894DEBF0FBE44
:102D2000CDBFDF91CF911F910F91FF90EF90DF907A
:102D3000CF90BF90AF900895AB2829F0842F8523C2
:102D40008F3F09F033C180E0F82FF170DF2E80FF54
:102D50003CC08091B7012091B80136E0821315C0C4
:102D60004D875E878D859E850E94921A292F229518
:102D70002F702230F0F0243018F59F70F1F0F80138
:102D80009581907FD1F4D12C1EC090E0389FF00146
:102D9000399FF00D1124E754FE4F6181651306C081
:102DA0006081641303C062816E110FC00196877049
:102DB000D5CF9F7011F0882331F3805E883018F3EF
:102DC000C8010E942515FD2CA5CFEE2009F4A2CF45
:102DD0008091EE0181608093EE01F12C9BCF251351
:102DE00006C0941304C0F801EE2009F48DC04D878D
:102DF0005E878D859E850E948615882319F1EE20B9
:102E000009F18091EE01803270F02091E90130915A
:102E1000EA0138872F831986BB86AA868C87CE0164
:102E200007960E94251586E0F801A9EEB1E0019011
:102E30000D928A95E1F70E94D8150E94CA15FF24C9
:102E4000F39468CFC8010E942515F9CF311113C042
:102E50007A2DB98AA88A6E2D89890E948A1589EEF1
:102E600091E00E94251586E0F60111928A95E9F716
:102E70000E94CA15B2CF25130FC094130DC0E110E4
:102E80000BC0F8018583C8010E94251586E0F60174
:102E900011928A95E9F73ECF4D875E878D859E8595
:102EA0000E948615882371F2EE2061F28091EE0176
:102EB000803208F4B8CF2091E9013091EA013A83D9
:102EC00029831B82BD82AC828E83CE010196A9CF5D
:102ED000E83CF10508F041C0FE2CEE2009F4B2CF29
:102EE00025132AC0941328C08091EE0180FD1BC0D9
:102EF000982F907FC1F0F8018583903F31F0982F93
:102F0000907F905F8F70892B8583C8010E94251563
:102F100086E0F801A9EEB1E001900D928A95E1F703
:102F20000E94CA15F7CE86E0F801A9EEB1E0019043
:102F30000D928A95E1F7EECE4D875E878D859E8551
:102F40000E94861581116FCF8091EE018160809380
:102F5000EE01C8010E942515DDCE7A2DB98AA88A16
:102F60006E2D89890E948A1586E0F60111928A9554
:102F7000E9F7D6CFEE2009F465CF4D875E878D85C2
:102F80009E850E948615F82E882309F45BCF86E083
:102F9000F801A9EEB1E001900D928A95E1F789EE72
:102FA00091E00E94DE110E94D815BACF81E08E25F3
:102FB000CBCE1F93CF93DF93CDB7DEB72C970FB651
:102FC000F894DEBF0FBECDBF4F83588769877A87DD
:102FD0008B879C87CE0107960E942E16882369F066
:102FE0008A859B85892B39F04F815885842F8523CD
:102FF0008F3F09F071C016E05FC086E0FE01379692
:10300000DE01119601900D928A95E1F78A859B85E4
:10301000892B89F388859F8189238F3F61F32091D4
:10302000B80130E0C9010196877099274091B70136
:103030004817190671F40E9463151092B801109296
:10304000B70186E0E9EEF1E0DF011D928A95E9F72C
:10305000D2CF96E0929FD001939FB00D1124A75438
:10306000BE4FFE01319601900D929A95E1F7809343
:10307000B8010E94A915BFCF819FC00111248754B8
:103080009E4F0E942E168823E9F0E091B7011E9F03
:10309000F0011124E754FE4F408151816281738118
:1030A000848195810E9499158091B70190E00196E5
:1030B000877099278093B7018091B7019091B801EB
:1030C0008913DACF2C960FB6F894DEBF0FBECDBFB2
:1030D000DF91CF911F91089569857A858B859C85B5
:1030E0000E94991588CFEF92FF920F931F93CF9371
:1030F000DF938C01892B81F0F12CEE24E394E8011D
:103100002196F8018491843770F4843008F05FC010
:103110008130B1F08230A1F1DF91CF911F910F91F9
:10312000FF90EF900895853709F44CC008F43DC036
:103130009CE7980F903780F78F770E94751249C0EF
:103140000E5F1F4FFE01849190E2980F983060F45B
:103150008770FE2D01C0FF0F8A95EAF78F2F0E941E
:10316000291B0E94561B02C00E94E3118F2D815023
:1031700030F2EFE9FFE03197F1F700C00000F7CF40
:103180000E5F1F4FFE01849190E2980F983050F42B
:103190008770FE2D01C0FF0F8A95EAF78F2F0E94DE
:1031A0002F1BDFCF0E947512E1CF0E5F1F4FFE0174
:1031B000C491C150D8F28FE99FE00197F1F700C0A8
:1031C0000000F7CF0E5F1F4FFE01F490CFCF0E949B
:1031D000E3118E01CBCF08950C94EB180E94EC18EC
:1031E000609316027093170280931802909319024D
:1031F0000C944D1508950C94EE180F931F930091A5
:103200001602109117022091180230911902602BBA
:10321000712B822B932B1F910F910C94EE180F930F
:103220001F930091160210911702209118023091FD
:10323000190260237123822393231F910F910C9411
:10324000EE180F931F930091160210911702209110
:1032500018023091190260277127822793271F9146
:103260000F910C94EE180C94EB180C9433190E94E7
:103270003519609312027093130280931402909395
:1032800015020C944D1560E070E0CB010C943719D9
:103290000F931F9341E050E060E070E08A019B01D2
:1032A00004C0000F111F221F331F8A95D2F7C901D6
:1032B000B8011F910F910C9437190F931F9341E0A0
:1032C00050E060E070E004C0440F551F661F771F98
:1032D0008A95D2F78091120290911302A091140264
:1032E000B09115028A019B01082B192B2A2B3B2B2D
:1032F000C901B8011F910F910C9437190F931F93B7
:1033000041E050E060E070E004C0440F551F661FCC
:10331000771F8A95D2F7CB01BA0160957095809599
:103320009095009112021091130220911402309195
:10333000150260237123822393231F910F910C9414
:1033400037190F931F9341E050E060E070E004C034
:10335000440F551F661F771F8A95D2F7809112027E
:1033600090911302A0911402B09115028A019B0161
:10337000082719272A273B27C901B8011F910F9158
:103380000C9437190F931F9300911202109113029E
:103390002091140230911502602B712B822B932BFC
:1033A0001F910F910C9437190F931F9300911202E4
:1033B00010911302209114023091150260237123A1
:1033C000822393231F910F910C9437190F931F930E
:1033D00000911202109113022091140230911502F3
:1033E00060277127822793271F910F910C9437191B
:1033F0000895E92FEE0FE90FEE0F8E0F982F9770BB
:1034000041E001C0440F9A95EAF786958695869526
:1034100095E0899FF0011124E151FE4F30E020E05A
:1034200070E05191DF011197CB01022E02C09695F9
:1034300087950A94E2F781708195852784238527F3
:103440008C932F5F3F4F2530310559F70895E92FB1
:10345000EE0FE90FEE0F8E0F982F977086958695D9
:10346000869525E0829FF0011124E151FE4F50E046
:1034700040E080E0219130E0092E02C0369527958A
:103480000A94E2F721703327042E01C0220F0A9418
:10349000EAF7822B4F5F5F4F4530510559F708958A
:1034A000BF92CF92DF92EF92FF920F931F93CF9331
:1034B000DF938C01C0901202D0901302E0901402AE
:1034C000F09015028091160290911702A0911802B7
:1034D000B0911902C82AD92AEA2AFB2ACFE1D0E002
:1034E000BC2ED701C6010C2E04C0B695A7959795A2
:1034F00087950A94D2F780FD0EC0219788F7B12CEA
:103500008B2DDF91CF911F910F91FF90EF90DF9066
:10351000CF90BF900895B8018C2F0E94E0050197CD
:1035200061F3EECFCF93DF93EC010E94501ABE01FE
:10353000DF91CF910C94E0051F93CF93DF93EB01C4
:103540009091B601992331F0CB01DF91CF911F917A
:103550000C94921A882379F0CB010E94501A182FEC
:10356000682FCE010E94F919BE01812FDF91CF9102
:103570001F910C94E005CB010E94271A182FF4CF5D
:10358000682F80910801909109010C94BF1C682F4D
:1035900080910801909109010C94C11C809108014F
:1035A000909109010C94C31C80911A028595859510
:1035B0008595089580911A028770089590911A0256
:1035C000977081E009F480E008959091DE0292FB0B
:1035D000222720F9281751F080FB92F99093DE0200
:1035E0008091DD029091DE020C94EC1B0895809195
:1035F000DE0282FB882780F991E089270C94E51A86
:1036000081E00C94E51A80E00C94E51A8091260282
:10361000089590912602892B809326020895809523
:1036200090912602982390932602089510922602E4
:10363000089590912502892B809325020895809505
:1036400090912502982390932502089510922502C7
:10365000089590912402892B8093240208958095E7
:1036600090912402982390932402089510922402AA
:10367000089580911B02089508950C943C1B90912D
:10368000DE0292FD08C090911B02981721F08093F2
:103690001B020C943D1B089580911B02882329F086
:1036A00010921B0280E00C943D1B0895E0910801EC
:1036B000F0910901809126028083E0910801F09148
:1036C0000901808190912502892B8083E091080176
:1036D000F0910901808190912402892B808390913F
:1036E0001B02992381F0E0910801F091090180818A
:1036F000892B808380910801909109010E94771C99
:1037000081110E944C1B80910801909109010C9439
:10371000941008950C94891B9091DE0292FD10C0C4
:1037200098E0899F90011124622B60931A020E94F5
:103730005D1980911A028595859585950C948A1B53
:103740000C945D1910921A0280E00C948A1B9091DF
:103750001A028095892380931A02282F277039F442
:10376000282F082E000C330B9217130621F490918A
:10377000DE0292FF07C08595859585950E947E198A
:103780000C94A21B089580E008956FEF7FEF90E006
:1037900080E00C948D2190E080E00E94692121E07E
:1037A0008A3E9E4F09F020E0822F089582E090E04B
:1037B0000C94612183E090E00C946121CF9384E02C
:1037C00090E00E946121C82F82E290E00E94612176
:1037D000982F8C2FCF910895CF93C92F682F84E015
:1037E00090E00E946F216C2F82E290E0CF910C94C8
:1037F0006F21AB01BC018FE090E00C948121AB0103
:10380000BC0183E190E00C94812160E070E0CB0189
:103810000C94FF1B60E070E0CB010E94F91B0C943C
:10382000051C6AEE7EEF90E080E00E948D2160E052
:1038300082E090E00E946F2160E083E090E00E94CF
:103840006F21109216021092170210921802109215
:10385000190260E084E090E00E946F2160E082E263
:1038600090E00E946F2160E085E090E00E946F216F
:1038700060E086E090E00E946F216FEF87E090E0CB
:103880000E946F2140E050E0BA0188E090E00E9481
:10389000812160E08DE090E00E946F2140E050E0E7
:1038A000BA0188E190E00E94812160E087E190E028
:1038B0000E946F2140E050E0BA018CE190E00E944C
:1038C000812170E060E080E290E00E948D2140E084
:1038D00050E0BA0188E190E00E9481210C940A1C1A
:1038E0000C94111C682F8EE090E00C946F219C01C9
:1038F0002E5F3F4FAC01485F5F4F80E024173507D4
:1039000009F40895F90191919F019923B9F38F5F0B
:10391000F5CF662349F0FC013296089621912617CF
:1039200029F0E817F907D1F780E0089581E00895BC
:103930009C01FC0132969FEF80E04191461751F0C7
:103940009F3F19F4411101C0982F8F5F8630A9F76E
:103950009F3F09F40895290F311D97FD3A95F9010C
:1039600062830895FC01329608962191261303C0C4
:10397000DF0111971C92E817F907B9F708950C9425
:10398000981C0C94B21C029626E0FC0111922A9518
:10399000E9F70895089508950C94CB1C80912902AD
:1039A000882349F10E94CC1C80E00E94CC05109233
:1039B000280288E190E020E40FB6F894A89580935F
:1039C00060000FBE2093600083B7817F846083BF57
:1039D00083B7816083BF7894889583B78E7F83BFD8
:1039E0000FB6F894A895809160008861809360007C
:1039F000109260000FBE08950895CF930E94CA1CD4
:103A00000E9465080E94FC1CC0E08C2F0E941108D7
:103A1000811105C0CF5FC930C1F7CF91089581E012
:103A2000FCCF08950C94111D0E9463150E9488100C
:103A30000E94CC050C94121D1F921FB61F921124D8
:103A40008F939F93AF93BF9380912802811113C0EE
:103A50008091F1029091F202A091F302B091F402F0
:103A60004196A11DB11D8093F1029093F202A093A3
:103A7000F302B093F402BF91AF919F918F911F9089
:103A80001FBE1F90189582E084BD93E095BD9AEF0C
:103A900097BD80936E0008952FB7F8948091F1023E
:103AA0009091F202A091F302B091F4022FBF089519
:103AB0002FB7F8946091F1027091F2028091F302B5
:103AC0009091F4022FBF08959C014FB7F894809114
:103AD000F1029091F202A091F302B091F4024FBF73
:103AE000821B930B089578941F921FB61F92112486
:103AF0008F939F93AF93BF938091F1029091F202C5
:103B0000A091F302B091F4020196A11DB11D809322
:103B1000F1029093F202A093F302B093F402BF91EA
:103B2000AF919F918F911F901FBE1F90189588E1B4
:103B300098E00FB6F894A895809360000FBE90931C
:103B40006000A895F894D8E0CEEF28E3299320E010
:103B5000299314BEFFCF0895909389018093880123
:103B600008950E944C1DEC0180E890E00FB6F89497
:103B700080936100909361000FBE0E94F3100E9439
:103B80001121539A80E0815009F047C053987894EE
:103B90000E9405110E940D1F0E948310FFEF20E775
:103BA00032E0F15020403040E1F700C0000001E079
:103BB0001CE080911C038823C1F110921C030E9419
:103BC0004C1DEC0180912902882321F010922902DA
:103BD0000E94141D809129028823A9F10E94CE1C05
:103BE0000E94FD1C882329F3F8949AB15B9A892FCF
:103BF0008C608AB98BB181278BB98FE7E8E3F1E05C
:103C00008150E040F040E1F700C000008BB1812717
:103C10008BB99AB95B987894CCCFA895EFE9FFE07F
:103C20003197F1F700C00000AECF809129028111D9
:103C3000D1CFCE010E94641D069760F20093290245
:103C40000E94CE1CC7CF0E9421208091220388238E
:103C500029F08091000384FD0E940D110E947A1EBC
:103C60000E94212080912203882329F0809139032A
:103C700084FD0E94011F0E9401119BCF8091DC02F4
:103C80000895CF93DF9300D00F92CDB7DEB7909118
:103C90002C02981307C020912A0230912B0226177C
:103CA000370791F080932C0270932B0260932A02C5
:103CB00089837B836A838091390384FF05C063E035
:103CC000CE0101960E9419200F900F900F90DF9166
:103CD000CF910895BC0184E00C94411EBC0183E0A7
:103CE0000C94411E2091390324FF03C066E00C941C
:103CF00019200895CF93DF93CAE0D0E080910003AC
:103D000084FF1AC08091590290915A02981789F045
:103D100028E0829FC001112468E0855A9D4F0E94CF
:103D200015208091590290E001968F709927809319
:103D30005902DF91CF9108950E9421208FE99FE0E1
:103D40000197F1F700C000002197C1F6F2CFCF93A1
:103D5000DF93EC01A0915A02B0E0CD0101968F7083
:103D6000992720915902281779F093E0AA0FBB1FD9
:103D70009A95E1F7A55ABD4F98E0FE0101900D928A
:103D80009A95E1F780935A020E9421200E947A1EA0
:103D900088E0FE01A1E5B2E001900D928A95E1F77D
:103DA000DF91CF9108950F931F93CF93DF93EC0191
:103DB000603211F58C01005E1F4F02C00E9421206D
:103DC00080910C0384FFFACF68E0CE010E941D2091
:103DD00028960C171D07A1F780910C0384FF09C0DA
:103DE00060E090E080E0DF91CF911F910F910C9403
:103DF0001D200E942120F0CFDF91CF911F910F91C4
:103E0000089580913002803239F460E281E392E0DB
:103E10000E94310C1092300208958AE091E00895DA
:103E2000FC01808180768032F1F48181813061F4FF
:103E300084819581892BB9F481E592E090931E03EA
:103E400080931D0388E00895823041F48BED92E069
:103E500090931E0380931D0381E008958A3029F416
:103E600083818093DB0280E008958930E1F78281CD
:103E700093818115924069F484819581892B49F45D
:103E800081E080932F028681978190932E02809308
:103E90002D028FEF0895FC0180912D0290912E024A
:103EA000892B61F080912F02813041F490819093B1
:103EB000DC0210922E0210922D0208958FEF0895C9
:103EC000683019F0109230020895209130022931A3
:103ED000C8F7FC01A22FB0E0AF5CBD4F089631914E
:103EE0003D93E817F907D9F7285F2093300208952A
:103EF000FC018381833089F130F48130F1F082302C
:103F000021F180E00895813209F441C08232C9F77D
:103F1000248135812130310509F457C0211531053F
:103F200009F44BC02230310561F78FE793E090939D
:103F30001E0380931D038BE7089583E293E0909323
:103F40001E0380931D0382E1089588EC92E0909314
:103F50001E0380931D038BE5089582818130A1F0BB
:103F6000882351F0823069F685E393E090931E0335
:103F700080931D038EE0089589E593E090931E03DE
:103F800080931D0384E0089585E493E0D8CF828177
:103F9000813081F0882331F0823009F0B2CF83E1A3
:103FA00093E002C08AED92E090931E0380931D037C
:103FB00089E0089583EF92E0F7CF8AEF93E0909342
:103FC0001E0380931D0380E408952DE533E03093B4
:103FD0001E0320931D0308951F93CF93DF93E82FB3
:103FE000792F162FEA01888184FF1CC0298188E877
:103FF00028272983CE010296DC012E2F372F512F3F
:104000005E0FF90121912D939F01452F4E1B141630
:10401000C4F3612F0E947B021C5F1883DF91CF9154
:104020001F9108958AE58883E5CF40E053E00C9422
:10403000EC1F49E353E00C94EC1F4CE053E00C946C
:10404000EC1FCF93DF9360911F03635067FD12C095
:1040500080911B03CCE0D0E0C81BD109CD5DDC4FC3
:1040600080911A03803108F054C0CE010E94601F75
:1040700010921F038091150184FF3EC080911401AE
:104080008F3FD1F1C82F893008F0C8E0982F9C1BD2
:10409000909314019091F50228E892279093F502ED
:1040A0008823E9F080911D0390911E03209119034C
:1040B00026FFAEC0FC012C2FA6EFB2E034913D9359
:1040C00031962150D9F79C012F5F3F4F8FEF8C0F16
:1040D000820F932F911D90931E0380931D036C2FCD
:1040E00086EF92E00E947B02CC5FCC3019F08FEF1C
:1040F00080931401C093150184E199B19C7031F44F
:104100008150D9F71092200310921803DF91CF91BC
:1041100008958D3209F069C0683009F0A9CF83ECA9
:104120008093F5028AE58093150110921903888126
:10413000807671F0CE010E94101F8F3FC1F49881EC
:1041400097FD8E8190E8909319038093140190CF8E
:104150002A811092FE029981911111C01092FF02E2
:104160002EEF32E082E030931E0320931D039F81E7
:104170009111EBCF9E81981740F7892FE6CF9530AC
:1041800029F4209320032EEF32E0EDCF963099F4FE
:104190009B81913021F4CE010E94781F08C092309B
:1041A000D1F39330C1F39132B1F39232A1F390E4A1
:1041B00090931903C2CF983089F0993019F4209365
:1041C0002203E1CF9A3071F09B30E9F69BE49093A3
:1041D000010390933A0390930D03D5CF22E233E08D
:1041E00081E0C1CF2EEF32E0FBCF8091190387FF32
:1041F0003FCFCE010E944B1F8F3F21F48EE1809371
:10420000150136CF882309F433CF1092140130CF33
:10421000DC012C2FE6EFF2E03D9131932150E1F7E4
:1042200052CFCF93DF93E9E6F0E08081886080830E
:10423000E99AC0E0D3E08BE48983A9E3B3E0119667
:104240008C931197ECE0F3E081838AE588838C936B
:104250008083DF91CF91089597FB072E16F4009489
:1042600007D077FD09D00E944D2107FC05D03EF410
:10427000909581959F4F0895709561957F4F089512
:10428000EE0FFF1F0590F491E02D09946927962702
:1042900069277827872778270895AA1BBB1B51E138
:1042A00007C0AA1FBB1FA617B70710F0A61BB70BA6
:1042B000881F991F5A95A9F780959095BC01CD014B
:1042C0000895F999FECF92BD81BDF89A992780B5DE
:1042D0000895A8E1B0E042E050E00C949521262F2B
:1042E000F999FECF92BD81BDF89A019700B40216EC
:1042F00039F01FBA20BD0FB6F894FA9AF99A0FBE9A
:1043000008950396272F0E9470210E946F21252F68
:104310000E947021242F0C9470210196272F0E9457
:1043200070210C946F21DC01CB01FC01F999FECFC7
:1043300006C0F2BDE1BDF89A319600B40D9241502D
:104340005040B8F70895F894FFCF430C500C770C09
:10435000830C8E0C990C9C0C9C0C9C0C9C0C9C0C47
:104360009F0CA30CAB0CB80CC50CC80CCB0CD80C18
:104370002C132C1384138413D613F21359135913CB
:10438000FD13891498149814F41459135913FD1437
:10439000721572157B157B157D157B157B157B15AD
:0C43A0007215721582157B157B158215B5
:1043AC002808641E140A321E1C023E1EA71E721E12
:1043BC006E1E6A1EFF5AE200E900EA00B500B60064
:1043CC00B700CD008301CC008A0192019401210237
:1043DC00230224022502260227022A02B300B4007B
:1043EC006F00700081828396943235343391626110
:1043FC00319063609730E200E900EA00B500B60046
:10440C00B700CD008301CC008A01920194012102F6
:10441C00230224022502260227022A02B300B4003A
:08442C006F0070008182830023
:00000001FF
