:100000000C94CE050C9415060C9415060C9415064C
:100010000C9415060C9415060C9415060C941506F4
:100020000C9415060C9415060C9454220C949021F3
:100030000C94B0190C9415060C9415060C94150626
:100040000C9415060C9415060C9415060C941506C4
:100050000C9415060C9472190C9415060C94150644
:100060000C9415060C9415060C9415060C941506A4
:100070000C9415060C9415060C9415060C94150694
:100080000C9415060C9415060C9415060C94150684
:100090000C9415060C9415060C9415060C94150674
:1000A0000C9415060C9415060C941506580A580A5B
:1000B000920A920AE50A880C880C880C010BDF0B67
:1000C000F00BF00BFF0F02102B1038103F105F10D9
:1000D000001100110011001100116210641069106C
:1000E0008F10B310B610B910DE101F150D15311595
:1000F000A713061606160A15061606165E15061628
:100100007215E4150616061606160616A01506162E
:1001100006168D1506164A15061606160016001642
:10012000001600160016001600160016001602161D
:1001300006161F15021506160616061606160616CC
:1001400006160616061606160616021606160616D3
:100150000A150616FE15FE15FE15FE15FE15FE15F2
:10016000FE15FE15FE1502169E1FC51F7221C51F26
:1001700072211120342072212A213A21EE23EE230C
:1001800001240124F723012401240124EE23EE237A
:10019000FC2301240124FC230000000000000000D7
:1001A000000000000000000000000000000000004F
:1001B0000000000000000000000000007E0F00D4DE
:1001C000FFFFFFC7000000780000000000000000F3
:1001D0002A2B2800000000000000000000000000A2
:1001E00000000029000000002C1E342021222434AD
:1001F0002627252E362D3738271E1F20212223247F
:1002000025263333362E37381F0405060708090A1A
:100210000B0C0D0E0F101112131415161718191AB6
:100220001B1C1D2F3130232D350405060708090A34
:100230000B0C0D0E0F101112131415161718191A96
:100240001B1C1D2F3130354C44454255473A206424
:10025000697361626C65642E0A0044454255473AF1
:1002600020656E61626C65642E0A000A00253031DB
:100270003662003A200025303258000A722F63207F
:1002800030313233343536373839414243444546CC
:100290000A000A0025303258006B6579626F61727E
:1002A000645F7365745F6C65643A20005B735D0026
:1002B0004B6579626F6172642073746172742E0A87
:1002C000000A002575002E6E6B726F3A20000A003E
:1002D0002575002E737761705F6261636B736C616B
:1002E00073685F6261636B73706163653A20000AD3
:1002F000002575002E737761705F67726176655FA8
:100300006573633A20000A002575002E6E6F5F67E3
:1003100075693A20000A002575002E737761705FB9
:1003200072616C745F726775693A20000A00257506
:10033000002E737761705F6C616C745F6C677569B8
:100340003A20000A002575002E737761705F726392
:10035000746C5F726775693A20000A002575002E7B
:10036000737761705F6C63746C5F6C6775693A205A
:10037000000A002575002E636170736C6F636B5FFC
:10038000746F5F636F6E74726F6C3A20000A0025A1
:1003900075002E737761705F636F6E74726F6C5F40
:1003A000636170736C6F636B3A20000A0025303212
:1003B00058006B65796D61705F636F6E6669672E5B
:1003C0007261773A20000A002575002E6D6F7573F3
:1003D000653A20000A002575002E6B6579626F6111
:1003E00072643A20000A002575002E6D61747269EE
:1003F000783A20000A002575002E656E61626C65F2
:100400003A20000A00253032580064656275675F43
:10041000636F6E6669672E7261773A20000A002565
:10042000750064656661756C745F6C617965723ABC
:1004300020000A092D204D61676963202D0A443A86
:10044000094465627567204D657373616765205463
:100450006F67676C650A583A094D61747269782054
:100460004465627567204D6F646520546F67676CE3
:1004700065202D2053686F77206B657970726573E6
:1004800073657320696E206D61747269782067727C
:1004900069640A4B3A094B6579626F617264204462
:1004A0006562756720546F67676C65202D205368FF
:1004B0006F77206B65797072657373207265706FEA
:1004C00072740A4D3A094465627567204D6F757301
:1004D0006520546F67676C650A563A0956657273F2
:1004E000696F6E0A533A095374617475730A433A1B
:1004F00009416374697661746520436F6E736F6C34
:1005000065204D6F64650A46312D4631303A0953F6
:10051000776974636820746F204C6179657220304C
:100520002D392028463130203D204C30290A302DED
:10053000393A0953776974636820746F204C617984
:10054000657220302D390A47524156453A09537792
:100550006974636820746F204C6179657220302063
:1005600028616C7465726E617465290A423A094AA1
:10057000756D7020746F20426F6F746C6F6164656D
:10058000720A4553433A094A756D7020746F2042D0
:100590006F6F746C6F616465722028616C74657232
:1005A0006E617465290A453A095072696E74204576
:1005B0004550524F4D2053657474696E67730A42FB
:1005C00053504143453A09436C656172204545509B
:1005D000524F4D0A4E3A094E4B524F20546F6767A7
:1005E0006C650A004743433A20352E342E302041B3
:1005F00056522D4C4942433A20322E302E30204163
:1006000056525F415243483A20617672350A004F94
:100610005054494F4E533A204C554641204558546A
:1006200052414B455920434F4E534F4C4520434F69
:100630004D4D414E44204E4B524F204C544F203490
:100640003039360A004255494C443A2020284D6141
:10065000722020322032303231290A005649443A81
:10066000203078353334322853706163656D616EA4
:1006700029205049443A203078353034422850619E
:100680006E63616B6529205645523A2030783030D0
:1006900030310A000A092D2056657273696F6E2089
:1006A0002D0A0074696D65725F726561643332286A
:1006B000293A202530346C580A006B65796D6170D9
:1006C0005F636F6E6669672E6E6B726F3A20255896
:1006D0000A006B6579626F6172645F69646C653A88
:1006E0002025580A006B6579626F6172645F7072D1
:1006F0006F746F636F6C3A2025580A00686F7374CB
:100700005F6B6579626F6172645F6C6564732829E1
:100710003A2025580A000A092D2053746174757314
:10072000202D0A003F004E4B524F3A206F66660A5A
:10073000004E4B524F3A206F6E0A000A6D6F757370
:10074000653A206F66660A000A6D6F7573653A2018
:100750006F6E0A000A6B6579626F6172643A206F8E
:1007600066660A000A6B6579626F6172643A206F8F
:100770006E0A000A6D61747269783A206F66660AC3
:10078000000A6D61747269783A206F6E0A000A641B
:10079000656275673A206F66660A000A646562756D
:1007A000673A206F6E0A000A0A4A756D70696E67B3
:1007B00020746F20626F6F746C6F616465722E2E8F
:1007C0002E2000433E2000436C656172696E6720F5
:1007D000454550524F4D0A006565636F6E66696707
:1007E0003A0A004C25640A00290014001A00080087
:1007F000150017001C0018000C00120013002A003E
:100800002B0004001600070009000A000B000D0071
:100810000E000F0034003300E1001D001B00060035
:1008200019000500110010003600370052002800A2
:10083000E000E200E300035101512C002C000251C2
:100840003800500051004F0035021E021F022002E6
:1008500021022202230224022502260227022A0064
:100860000100010001000100010001000100010080
:100870002D022E02010031020100010001000100E1
:1008800001000100010001002F023002A900010057
:100890000100010001000100010001000100010050
:1008A00038020100AA00010035001E001F002000D0
:1008B00021002200230024002500260027002A0012
:1008C0000100010001000100010001000100010020
:1008D0002D002E0001003100010001000100010087
:1008E00001000100010001002F003000A9000100FB
:1008F00001000100010001000100010001000100F0
:1009000001000100AA000100005C3A003B003C002D
:100910003D003E003F004000410042004300010016
:1009200001000100010001000100010001000100BF
:100930000100440045000100010001000100010028
:10094000010001000100010001000100010001009F
:10095000010001000100010001000100010001008F
:1009600001000100010001000A002530325820007A
:100970006B6579626F6172645F7265706F72743AF1
:1009800020006164645F6B65795F6269743A20631B
:10099000616E2774206164643A20253032580A0061
:1009A00064656C5F6B65795F6269743A2063616E40
:1009B00027742064656C3A20253032580A000631CD
:1009C000FF0974A1010975150026FF00952075081F
:1009D00081020976150026FF00952075089102C056
:1009E00005010980A101850319012AB70015012617
:1009F000B700950175108100C0050C0901A10185A2
:100A00000419012AA002150126A002950175108182
:100A100000C005010906A1018505050719E029E7C0
:100A2000150025019508750181020507190029EFB8
:100A30001500250195F075018102050819012905A8
:100A4000950575019102950175039101C00660FF3E
:100A50000961A1010962150026FF00952075088132
:100A6000020963150026FF00952075089102C00554
:100A7000010906A101050719E029E71500250195DF
:100A80000875018102950175088101050719002982
:100A9000FF150026FF00950675088100050819015D
:100AA0002905950575019102950175039101C05BBA
:100AB000435D005B445D005B535D005B575D005B25
:100AC000525D0009027B00040100A0FA0904000045
:100AD0000103010100092111010001224000070565
:100AE000810308000A090401000203000000092133
:100AF00011010001222200070582032000010705E1
:100B00000303200001090402000103000000092181
:100B100011010001226D000705840320000A090469
:100B2000030002030000000921110100012222003C
:100B300007058503200001070505032000011201B8
:100B400010010000000842534B5001000102000157
:100B50001003500061006E00630061006B006500CF
:100B600000001203530070006100630065006D0017
:100B700061006E000000040309040A092D20436F80
:100B80006E736F6C65202D0A4553432F713A0971BE
:100B90007569740A003F00433E20000011241FBE07
:100BA000CFEFDAE0DEBFCDBF04B603FE27C08091F1
:100BB000460290914702A0914802B09149028730C5
:100BC000904BA740B04BD1F41092460210924702CE
:100BD000109248021092490214BE84B7877F84BFE6
:100BE0000FB6F894A89580916000886180936000AA
:100BF000109260000FBEE0E0F8E3099511E0A0E07C
:100C0000B1E0EAE2FBE402C005900D92A036B10724
:100C1000D9F722E0A0E6B1E001C01D92A634B207E8
:100C2000E1F70E948F0D0C9493250C940000FF9324
:100C3000EF93E0916001F0916101309709F009951F
:100C4000EF91FF910895FC018591803011F0EFDF65
:100C5000FBCF0895FF27E0E230E247FF0CC041954B
:100C600097FF09C0EDE26095709580959095611DA4
:100C7000711D811D911D27FF02C0219530E350E2B7
:100C8000AA27660F771F881F991FAA1FA41710F0A5
:100C9000A41B63955A95A9F7AA3008F0A95FA05D37
:100CA000AF93F395611571058105910541F7ED321B
:100CB00011F4EF93F395F21718F43F93F395FBCFEC
:100CC0008F91B5DFFA95E1F70895E991F991859152
:100CD000803021F0853219F0AADFF9CF089520E0A5
:100CE000E89455915532C1F3503311F468945591FD
:100CF0005A3348F4505390F3220F022E220F220F42
:100D0000200D250FF4CF0EF421958991999153363A
:100D100019F3533729F1533559F1BC018827992725
:100D2000E8945C3621F489919991689455915436F0
:100D300039F446EF7EF077FF0DC08FEF9FEF0AC0CA
:100D400055374AE039F0583540E121F0523642E05B
:100D500009F00895FF93EF937DDFEF91FF91B7CFF7
:100D6000FF93EF93FC0181918030B9F360DFFBCFFB
:100D7000FF93EF9368DFF1CFDF93CF93CDB7DEB76B
:100D80002596A3DFCF91DF9108953F924F925F9216
:100D90006F927F928F929F92AF92BF92CF92DF928B
:100DA000EF92FF920F931F93CF93DF93CDB7DEB7F0
:100DB00029970FB6F894DEBF0FBECDBFFC0180812E
:100DC000918123813481232B31F09F3F31F491E0D5
:100DD0008F3F19F403C091E001C090E090FDD5C5AC
:100DE0007F0185E0DE01119601900D928A95E1F771
:100DF000F701228189819A81222349F00E945D1B9B
:100E0000182F682F89819A810E94D61B03C00E94E7
:100E1000AA1B182F69817A81812F0E948C138C0163
:100E2000F7018281882309F4F2C0980122513F45DD
:100E30002031310508F019C18FEF93E00E94382569
:100E40008111EFC0025136EA832E99249394002336
:100E500079F08114F4E09F0609F4E3C0C4010E9414
:100E60003825811101C001501FEF811A910AEFCF7F
:100E70001E821F8218861986442443942AE0322E4B
:100E800084010F5F1F4FC4010E9438258E831F828B
:100E9000882309F4C6C09FEF980F933060F48F83C6
:100EA0004E8222E0820E911CC8010E94382588875C
:100EB000811102C0B6C048018E010A5F1F4FF801C0
:100EC00020812223E9F2213009F04CC08181813058
:100ED00049F46801F2E0CF0ED11CF80182810E9432
:100EE0001A250AC0823051F46801F2E0CF0ED11CFD
:100EF000F80182810E946F24860186C0833049F404
:100F00006801F2E0CF0ED11CF80182810E943D24DD
:100F1000F3CF843019F00F5F1F4F76C0F8012281A4
:100F20000E5F1F4F80E090E030E0205331092A30FF
:100F3000310568F4389EA001399E500D1124C90175
:100F4000840F951F0F5F1F4FF8012081EDCF009791
:100F500009F45AC0EFE9FFE03197F1F700C0000053
:100F60000197F5CFE22FF0E0E853FE4F5490822F27
:100F700086958695869590E0FC01E854FE4F649036
:100F80002770712C022E02C0759467940A94E2F7C0
:100F9000F1E06F227724FC01E855FE4FA490B12CBC
:100FA000022E02C0B594A7940A94E2F731E0A3227E
:100FB000BB24FC01E856FE4FC490D12C02C0D5944E
:100FC000C7942A95E2F781E0C822DD2461147104F8
:100FD00019F081EE0E946F24A114B10419F086EE7D
:100FE0000E946F24852D0E941A25AB2819F086EEE9
:100FF0000E943D24672819F081EE0E943D24CD28EF
:1010000019F08CE20E941A250F5F1F4F58CF003154
:101010003FE5130709F0B0C481E00E940B1C0E9459
:10102000991E80910202877009F4AFC4F701828192
:10103000882309F4AAC482E029960FB6F894DEBF8B
:101040000FBECDBFDF91CF911F910F91FF90EF9019
:10105000DF90CF90BF90AF909F908F907F906F90D8
:101060005F904F903F900C94301C0031FFE51F07BC
:1010700011F481E005C001312FE5120721F482E06F
:101080000E94491CCCCF033FFCE51F0799F406E200
:1010900021EE40EE63EF7CE509C0073DECE51E075D
:1010A00011F506E221EE41EE67ED7CE5C7010E94F5
:1010B000A312B7CF043F2CE5120708F040C1083D4A
:1010C0003CE5130731F407E225EE45EE68ED7CE5DB
:1010D000EDCF093D9CE5190701F708E221E045EE57
:1010E00069ED7CE5E3CF882309F45EC110926201CB
:1010F00002309CE5190708F441C10631ECE51E07F2
:1011000038F098012A5F3C452930310508F036C196
:101110000E94581A90936D0180936C010031FCE598
:101120001F0709F4C3C008F041C008303CE51307AD
:1011300009F49AC0F0F404309CE5190709F487C05B
:1011400068F40230FCE51F0709F477C003301C4542
:1011500009F0E5C080916C01826076C006303CE504
:10116000130709F46EC008F07BC080916C018860A1
:101170006BC00C309CE5190709F485C068F40A308F
:10118000FCE51F0709F474C008F079C00E9413241D
:1011900080916C01806858C00E303CE5130709F45B
:1011A00076C008F07FC080916C018BC00B3F9CE53E
:1011B000190709F44FC018F50331FCE51F0709F4BE
:1011C0007DC078F401313CE5130709F473C00231A6
:1011D0001C4509F0A4C00E94132480916C018F77F4
:1011E00033C005319CE5190709F472C008F486C0C4
:1011F0000A3F1C4509F093C080916D013EC00F3F2E
:101200002CE5120709F45FC058F40D3F8CE5180770
:1012100009F444C008F43FC080916D0182602DC084
:101220000130EDE51E0709F475C008F45DC0023019
:101230001D4509F074C060E06EC080916C01816052
:1012400003C080916C01806180936C0168C08091C3
:101250006C0111C080916D01826080936D015FC04F
:1012600080916C018062F0CF80916C018064ECCF42
:1012700080916C0188608460E7CF8160EECF8091BF
:101280006C018E7FE1CF80916C018D7FDDCF8091ED
:101290006C01877FD9CF80916D0118C080916D015D
:1012A0008D7FDBCF80916C018F7ECECF80916C01E2
:1012B0008F7DCACF80916C018F7BC6CF80916C01EE
:1012C000877F8B7FC1CF80916D018D7F8E7FC5CF52
:1012D00080916C0182FB222720F991E0922790FBFC
:1012E00082F990FB83F9B0CF80916D01982F909592
:1012F00091708E7F892B90FB81F9AFCF0E941324D0
:1013000080916C0187FB222720F991E0922790FBC6
:1013100087F99ACF61E08EE090E00E9446256091C7
:101320006C0110916D0184E090E00E944625612FD0
:1013300081E290E00E9446250E94132472CE053F70
:10134000FCE51F0731F406E221EE42EE65EF7CE595
:10135000ADCE053F2CE5120730F407E225EE44EE52
:1013600064EF7CE5A3CE063F3CE5130709F0BBCE56
:1013700007E225EE46EE66EF7CE598CE06319CE569
:10138000190711F5809105028A7A91E009F490E03D
:1013900090936301882311F065E301C069E28CE852
:1013A00091E00E94121A0DC006311C45E1F58091B2
:1013B0006301882309F4E7C265E38CE891E00E94A9
:1013C000D9190E94D91A2DCE01303CE51307A9F096
:1013D0000E3D9CE5190721F101151C4521F50E94E0
:1013E0001324FFEF04E31CE0F15000401040E1F74C
:1013F00000C000000E94611914CE80917201982FE4
:101400009095917090FB80F980937201992319F067
:101410008AE592E002C088E492E00E94230601CEB1
:101420000E94691AFECDF70100811181882349F0DD
:10143000C8010E945D1BD82E682FC8010E94D61BD0
:1014400004C0C8010E94AA1BD82EB8018D2D0E948D
:10145000F1168C01982EF701B280A580A2949FE02E
:10146000A92280910202877099F0BB2089F0812F18
:10147000807F803421F080E2800F883048F082E065
:101480000E94301C809102028770DD24D394811168
:10149000D12CC12EC2948FE0C8228C2D90E08C30CC
:1014A000910508F035C2FC01EA5AFF4F0C948625DD
:1014B000812F807F1F70882311F01295107FBB2031
:1014C000B9F0112309F40FC280E2800F883010F0C8
:1014D000911006C080910502182B1093050205C0DB
:1014E00080910402182B109304020E94D91AFBC1A8
:1014F000802F0E943D24112309F40AC2005E10953A
:10150000083010F0911006C0809105021823109346
:10151000050205C0809104021823109304020E9462
:10152000D91AF6C1812F807F1F70803211F0129579
:10153000107F992021F0F1E09F16E1F02AC0BB2036
:1015400081F080910602AA2051F001E0A01207C0AC
:10155000182B181709F4DCC110930602D9C1812B8E
:1015600010C0AA2021F021E0A21609F4D1C10E94E6
:10157000D31A27C0BB2041F035E03A1508F4C8C1A2
:10158000812F0E943324C4C184E08A1508F4C0C1AD
:1015900018C0BB2049F0AA2099F3F701858180FF8C
:1015A000A2C18F708583ECCFAA2059F0093309F0CE
:1015B000ACC1FFEF17EE23E0F15010402040E1F7FF
:1015C000A2C1812F0E942824A3C1812F86958695D0
:1015D000837019F0813059F09BC1BB2019F0C8010C
:1015E000937002C080E090E00E94811297C1BB20FE
:1015F00019F0C801937002C080E090E00E946B1265
:101600008DC1812F837009F069C0B11085C1902F01
:10161000929596959770990F990F802F8F70882EBD
:10162000912CA12CB12C092E04C0880C991CAA1C49
:10163000BB1C0A94D2F704FF12C04FE050E060E0F8
:1016400070E004C0440F551F661F771F9A95D2F7AC
:10165000DB01CA0180959095A095B09503C080E00C
:1016600090E0DC0116951695412F4370423019F138
:10167000C8F40091070210910802209109023091EC
:101680000A02413059F088299929AA29BB29BC01AD
:10169000CD0160237123822393230AC0802A912ADB
:1016A000A22AB32ABC01CD01682979298A299B295C
:1016B0000E946A1C31C188299929AA29BB29009155
:1016C0000702109108022091090230910A02BC0120
:1016D000CD016027712782279327EACFBB2019F01D
:1016E000812F817001C08695882309F415C1902F40
:1016F000929596959770990F990F802F8F70882EDD
:10170000912CA12CB12C092E04C0880C991CAA1C68
:10171000BB1C0A94D2F704FF12C04FE050E060E017
:1017200070E004C0440F551F661F771F9A95D2F7CB
:10173000DB01CA0180959095A095B09503C080E02B
:1017400090E0DC0116951695412F43704230D9F098
:1017500068F50091410210914202209143023091BC
:101760004402413059F088299929AA29BB29BC0192
:10177000CD0160237123822393231EC0802A912AE6
:10178000A22AB32A13C088299929AA29BB29009122
:101790004102109142022091430230914402BC0167
:1017A000CD01602771278227932706C0BC01CD0198
:1017B000682979298A299B290E94011CADC01F70C4
:1017C000BB2039F0812F0E94491C802F0E943324B6
:1017D000A3C0802F0E942824812F0E940B1C9CC034
:1017E000802F32EF931609F440C0391538F090EF8E
:1017F000991661F0E1EF9E1699F170C0F3EF9F1614
:10180000D9F124EF921609F44EC068C0BB2019F13B
:1018100034E03A1508F47CC01F7181E090E0A0E04C
:10182000B0E0AC01BD0104C0440F551F661F771F17
:101830001A95D2F78091410290914202A091430201
:10184000B09144028A019B01082719272A273B27C8
:10185000C901B80125C025E02A1508F459C0DCCF1C
:10186000BB2029F0812F8F712CC0BB20D9F3812F91
:101870008F710E940B1C4CC0BB2079F01F7181E05E
:1018800090E0A0E0B0E0BC01CD0104C0660F771F7E
:10189000881F991F1A95D2F703C060E070E0CB0152
:1018A0000E94011C35C0BB2079F01F71812F0E945E
:1018B000491C38E0139FC001112483608093020209
:1018C000812F0E94491C24C081E00E94301C81E0CD
:1018D0008A15F0F482E00E94301C1AC0BB2039F057
:1018E000AA2009F4BFCF802F0E946F2411C0AA2024
:1018F00009F4BDCF893349F49FEFE7EEF3E091504F
:10190000E040F040E1F700C00000802F0E943D243D
:1019100088EF8C0D843010F40E949712DD20A9F11D
:101920008091020280FD31C0F70112828595859574
:1019300085950E94491CC7010E94C506809102023C
:1019400085958595859529960FB6F894DEBF0FBECF
:10195000CDBFDF91CF911F910F91FF90EF90DF905E
:10196000CF90BF90AF909F908F907F906F905F903F
:101970004F903F900C940B1C01319FE5190709F023
:1019800082CB82E04ACB69E218CD29960FB6F89453
:10199000DEBF0FBECDBFDF91CF911F910F91FF90A2
:1019A000EF90DF90CF90BF90AF909F908F907F90FF
:1019B0006F905F904F903F9008958091390287FF1C
:1019C00011C08091E80082FD05C08091370281112D
:1019D000F8CF11C08091E8008B770BC0809137025F
:1019E000882349F08091E80080FFF8CF8091E800DB
:1019F0008E778093E8000895982F973068F590933C
:101A0000E900981739F07091EC002091ED005091A9
:101A1000F00003C0242F762F50E021FD02C09F5F0D
:101A2000ECCF3091EB003E7F3093EB003091ED0036
:101A30003D7F3093ED003091EB0031603093EB004F
:101A40007093EC002093ED005093F0002091EE0095
:101A500027FDE5CF80E008958F708093E90081E055
:101A6000089520913F02309140022617370748F031
:101A70006115710539F42091E8002E772093E80074
:101A800001C0B901FC0120E06115710579F1809177
:101A900037028823F1F18530F1F18091E80083FD70
:101AA0003CC08091E80082FD2EC08091E80080FF5C
:101AB000EBCF2091F3008091F20090E0922B611522
:101AC000710551F08830910538F421912093F1008F
:101AD000615071090196F3CF21E0089709F020E0E9
:101AE0008091E8008E778093E800CECF2111CFCF90
:101AF0000AC080913702882361F0853061F08091BF
:101B0000E80083FD0AC08091E80082FFF2CF80E008
:101B1000089582E0089583E0089581E00895CF93C9
:101B2000DF93CDB7DEB7AB970FB6F894DEBF0FBE2D
:101B3000CDBF84B7877F84BF0FB6F894A8958091F6
:101B40006000886180936000109260000FBE90E09A
:101B500080E80FB6F89480936100909361000FBE07
:101B600085B7806885BF85B7806885BF83E898E1C1
:101B700090936101809360010E94D4210E94F3211F
:101B80008091E20084608093E20078948091370233
:101B90008823A1F01091E9001F709091EC00892F2B
:101BA000817090FD80E8182B1092E9008091E80088
:101BB00083FD0E94B71E1F701093E90082E084BD70
:101BC00093E095BD9AEF97BD80936E0081E30E94EC
:101BD0000F1683E30E940F1682E30E940F1686E31E
:101BE0000E940F160FE011E0F80181918F010E9411
:101BF0000F16F1E00B311F07B9F710926501109233
:101C0000640110927C0110927B0110926701109286
:101C1000660110927E0110927D011092690110926E
:101C200068011092800110927F0110926B01109256
:101C30006A0110928201109281010E9426162FEFF4
:101C400046E751E0215040405040E1F700C000001D
:101C50000E94261680917B0180FF17C06FEF82E201
:101C600090E00E9446256FEF83E290E00E944625B7
:101C70006FEF84E290E00E9446256FEF7FEF80E0F7
:101C800090E00E9464250E94611980E090E00E942B
:101C900040258B3E9E4F11F00E94691A82E290E02F
:101CA0000E943825813281F483E290E00E94382539
:101CB000833051F484E290E00E94382591E0823034
:101CC00009F090E0892F01C080E080FFEAC280E047
:101CD00090E00E9440258B3E9E4F11F00E94691AB1
:101CE00082E090E00E943825809372010E94581A89
:101CF00090936D0180936C0183E090E00E94382501
:101D0000682F70E080E090E00E946A1C80E091E023
:101D100090936F0180936E0180EB92E00E94230606
:101D200080913702853009F04AC08CEA92E00E9427
:101D3000230600E112E180913702853009F03BC0B3
:101D400080913702843021F11092700148E150E017
:101D500080E40FB6F894A895409360000FBE80937E
:101D6000600083B7817F846083BF83B7816083BF56
:101D70007894889583B78E7F83BF0FB6F894A89523
:101D800080916000886180936000109260000FBEB7
:101D900080913602882309F4CECF0E942616EBE705
:101DA000F1E081919191892B09F053C291E0E338E0
:101DB000F907B9F7C0CF0E9413240E9497120E941E
:101DC000261681110E94981973E7472E71E0572E4D
:101DD000EBE76E2EE1E07E2E00E010E00BA7F301B2
:101DE000A190B1903F01F201C190D1902F01CA247E
:101DF000DB24C114D104B1F40F5F1F4F043011056F
:101E000069F78FEF8EA38FA318A60E94A419816093
:101E1000782F9AA789A74EA15FA168A58AA50E94DD
:101E2000CD1177C08091720181FD05C080E0EE2464
:101E3000E394F12C48C08BE792E00E9423065BE715
:101E4000852E51E0952EE12CF12CFF92EF9246E782
:101E500052E05F934F930E94BC0683E792E00E949A
:101E60002306F40180812180F2E08F0E911C0E94F4
:101E70006D18382E822D0E946D18232D30E0322FE0
:101E80002227A901482BCA019F938F938DE692E0E8
:101E90009F938F930E94BC068BE692E00E942306DC
:101EA000FFEFEF1AFF0A0FB6F894DEBF0FBECDBFEB
:101EB00054E0E516F10449F6B9CF8F5FEE0CFF1C34
:101EC0008C3009F499CF96012E213F21232BA9F3C1
:101ED00089A38BA58AA3AE20BF2081E0AB2809F49B
:101EE00080E08BA30E94A4198160782F9DA38CA30E
:101EF00049A15AA16BA18DA10E94CD11000F111F04
:101F0000F801ED58FE4F80819181E826F926F18293
:101F1000E0820E94971290917101891739F10E9415
:101F20009712182F809371018091720182FF1EC059
:101F300080FF04C089E992E00E942306809172012B
:101F400080FF0CC01F921F9384E992E09F938F93B0
:101F50000E94BC060F900F900F900F90809172011D
:101F600080FF04C082E992E00E942306809137023C
:101F7000843009F0D5CE83E08093E9008091E800B9
:101F800082FFCECE8091E80085FF23C00E947D2392
:101F900081111DC080E2E82EF12C8E010F5F1F4FD2
:101FA00009C08091F100F80181938F01F1E0EF1AEF
:101FB000F10869F08091E80085FDF3CF8091E80099
:101FC0008B778093E8000E947D23882399F391E02A
:101FD00001C090E08091E8008B778093E80099231E
:101FE00009F49ECEE9818E2F90E0FC013197E33118
:101FF000F10508F005C1EE59FF4F0C9486251A82B1
:1020000089E065C08A81823009F442C1833051F091
:10201000813009F0F5C00E9498199B838C837D83E1
:102020006E83F0C080917B0190917C019B838C83B7
:1020300080917D0190917E019D838E8380917F01AF
:10204000909180019F838887809181019091820186
:1020500099878A87D7C08A81823009F0D1C06B8185
:102060007C818D819E810E948C2585E290E024C038
:102070004C816B818A810E9466139D8310C10D8102
:102080001E811027012710278C81EB809A8128E17F
:10209000E29E7001112440E6949FE00CF11C112493
:1020A000E80EF11CE80EF11C612FC70186960E9414
:1020B0004625602FC70187960E944625A3C00E942F
:1020C0003213A0C080E153C082E08A838AE58B830B
:1020D00099C00A811B81102701271027CC80D12CA1
:1020E000CE0101965C017C01C8018A559E4F970183
:1020F0002A193B092C153D0508F084C00A35E2E099
:102100001E0728F40E943825F701848302C0F701D6
:1021100014820F5F1F4FFFEFEF1AFF0AE5CF0A810E
:102120001B81102701271027CC80D12CAE014F5FD7
:102130005F4F5A017A01C8018A559E4F97012A19AB
:102140003B092C153D0508F05DC00A3552E0150726
:1021500020F4F70164810E9446250F5F1F4FFFEFB7
:10216000EF1AFF0AE8CF0E9422134CC084E08A8352
:1021700049C00A811B81102701271027CC80D12C50
:10218000AE014F5F5F4F5A017A01C80186969701F1
:102190002A193B092C153D05A8F5003851E0150713
:1021A00028F40E943825F701848302C0F7011482C5
:1021B0000F5F1F4FFFEFEF1AFF0AE7CF0A811B8166
:1021C000102701271027CC80D12CAE014F5F5F4F25
:1021D0005A017A01C801869697012A193B092C15E4
:1021E0003D0580F4003851E0150720F4F7016481C3
:1021F0000E9446250F5F1F4FFFEFEF1AFF0AEACF3D
:102200008FEF898380913702843009F089CD109156
:10221000E9001F709091EC00892F817090FD80E89B
:10222000182B82E08093E9008091E80080FF0DC0C8
:1022300040E050E060E270E0CE0101960E94B023E1
:102240008091E8008E778093E8001F701093E9007A
:1022500067CD09BD19BD09B400FEFDCF8091D8003E
:102260008F7D8093D8008091E00082608093E000B1
:102270008091E00081FDFCCF0E941324EFEFF3EC8E
:1022800029E0E150F0402040E1F700C0000053CDCC
:1022900085E290E00E9438251B821C821D828E837D
:1022A000B1CF60E085E290E00E9446250E943213A3
:1022B0000E94221361E282E290E00E94462563E0E0
:1022C00083E290E00E94462562E084E290E00E9472
:1022D0004625FDCC90916C0192FF0DC0282F2871EE
:1022E000283019F4877F846006C0282F2471243099
:1022F00011F48B7F886093FF0DC0282F287128313F
:1023000019F4877E846106C0282F2471243111F4CA
:102310008B7E886120916D0120FF0DC0382F3871B0
:10232000383019F4877F816006C0382F3171313021
:1023300011F48E7F886021FF0DC0282F287128316D
:1023400019F4877E816106C0282F2171213111F493
:102350008E7E886194FD877E0895CF93C82F1F924B
:102360008F9383EE97E09F938F930E94BC0681E04A
:1023700090E0A0E0B0E0BC01CD0104C0660F771F83
:10238000881F991FCA95D2F70E946A1C0F900F9060
:102390000F900F90CF910C9413241F93CF93DF9342
:1023A000CDB7DEB767970FB6F894DEBF0FBECDBFCF
:1023B000342F4B8B252F5C8B6D8B7E8B8F8B4E89B7
:1023C0005F8961111092040286E0FE013D96DF01F3
:1023D000982F1D929A95E9F73D872E876F87598B25
:1023E000488BDE01179601900D928A95E1F7CE0198
:1023F00007960E94EA1C81113EC086E0FE013796D6
:10240000DE01119601900D928A95E1F7FF81E88532
:102410006A857B856115710531F0EF3F31F481E00C
:10242000FF3F19F403C081E001C080E080FD23C0BC
:102430002091B20130E0C90101968770992740913F
:10244000E30150E08417950779F1F983EA837D83EE
:102450006C8396E0929FD001939FB00D1124AD54F0
:10246000BE4FFE01319601900D929A95E1F780934F
:10247000B2010E94741C16E08091E3019091B201B8
:102480008917F9F0189FC00111248D549E4F0E94A6
:10249000EA1C8823B1F08091E30190E001968770F7
:1024A00099278093E301E8CF0E9413241092B20190
:1024B0001092E301ECEAF1E086E0DF011D928A95DB
:1024C000E9F767960FB6F894DEBF0FBECDBFDF9178
:1024D000CF911F91089520918A0130918B01281787
:1024E000390771F090938B0180938A01E0916E011E
:1024F000F0916F01309721F00084F185E02D09946F
:10250000089520918801309189012817390771F0C9
:102510009093890180938801E0916E01F0916F01A1
:10252000309721F00680F781E02D09940895E0911D
:102530006E01F0916F01309721F00190F081E02D54
:10254000099480E008950F931F93CF93DF93C42FD6
:10255000122FFC0182818823C9F0409362010E94FE
:10256000A419909387018093860180E28C0F8830B4
:1025700008F063C0C77081E001C0880FCA95EAF710
:10258000DF91CF911F910F910C94332480916201C0
:1025900048133CC020918601309187014FB7F894D1
:1025A00080910B0290910C02A0910D02B0910E024D
:1025B0004FBF821B930B883C910540F5D0E2D10FB1
:1025C000C117B9F080E28C0F883040F4C77081E009
:1025D00001C0880FCA95EAF70E942824D83030F548
:1025E00081E0912F977001C0880F9A95EAF70E94B9
:1025F0003324802F0E941A25D830F8F4212F277019
:1026000081E001C0880F2A95EAF70AC080E28C0FAA
:10261000883098F4C77081E001C0880FCA95EAF746
:10262000DF91CF911F910F910C942824802FDF917F
:10263000CF911F910F910C941A25DF91CF911F918B
:102640000F910895CF93DF93C6EAD1E060E0CE0109
:102650000E9446252196C11584E0D807B9F7DF917D
:10266000CF910895CF92DF92EF92FF920F931F9335
:10267000CF93DF93C0E0D0E08E01005A1F4F6E0170
:1026800088E1C80ED11CFE01E851F84FE590F490A6
:102690006F2DCE0186960E9446256E2DCE0187961F
:1026A0000E9446252296CC15DD0569F70C171D07FB
:1026B00031F7E80100381140F9F6DF91CF911F9111
:1026C0000F91FF90EF90DF90CF9008950F931F939D
:1026D000CF93DF93C42FD0E0CC0FDD1F28E1629FA2
:1026E000C00DD11D112430E6839FC00DD11D1124D2
:1026F000CE0186960E943825082F10E0102F002763
:10270000CE0187960E9438259801282BC901DF91B8
:10271000CF911F910F910895462F843038F4743073
:1027200028F46C3018F4672F0C94661380E090E066
:102730000895CF93DF93482F50E0FA013597EF3398
:10274000F10508F063C2EB58FF4F0C94862588ED25
:1027500097E00E94230682E294E00E94230683E031
:1027600090E00E9438251F928F938FE194E09F9311
:102770008F930E94BC068DE194E00E94230682E0C4
:1027800090E00E943825C82F8AE094E00E9423063A
:102790001F92CF9385E094E09F938F930E94BC0695
:1027A00083E094E00E94230689EF93E00E942306D1
:1027B0008C2F81701F928F9386EF93E09F938F935E
:1027C0000E94BC0684EF93E00E9423068AEE93E009
:1027D0000E942306C1FB882780F91F928F9387EE02
:1027E00093E09F938F930E94BC0685EE93E00E9436
:1027F000230689ED93E00E942306C2FB882780F917
:102800001F928F9386ED93E09F938F930E94BC0657
:1028100084ED93E00E9423068BEC93E00E94230654
:10282000C3FBCC27C0F91F92CF9388EC93E09F9312
:102830008F930E94BC0686EC93E00E9423060E94C0
:10284000581AEC0182EB93E00E942306DF93CF93AA
:102850008DEA93E09F938F930E94BC068BEA93E0EE
:102860000E94230682E993E00E9423068C2F817048
:102870001F928F938FE893E09F938F930E94BC06E3
:102880008DB79EB780960FB6F8949EBF0FBE8DBFD2
:102890008DE893E00E94230686E793E00E942306DA
:1028A000C1FB882780F91F928F9383E793E09F9362
:1028B0008F930E94BC0681E793E00E9423068FE578
:1028C00093E00E9423068D2F81701F928F938CE5D9
:1028D00093E09F938F930E94BC068AE593E00E9449
:1028E000230688E493E00E942306D695D1701F92B8
:1028F000DF9385E493E09F938F930E94BC0683E46B
:1029000093E00E94230681E393E00E942306C2FB2A
:10291000882780F91F928F938EE293E09F938F9385
:102920000E94BC068CE293E00E9423068AE193E0B9
:102930000E942306C3FB882780F91F928F9387E1AB
:1029400093E09F938F930E94BC0685E193E00E94E1
:1029500023068BE093E00E942306C4FB882780F9BE
:102960001F928F9388E093E09F938F930E94BC0601
:1029700086E093E00E94230684EF92E00E94230603
:10298000C5FB882780F91F928F9381EF92E09F9378
:102990008F930E94BC068FEE92E00E94230683ED87
:1029A00092E00E942306C6FB882780F91F928F932E
:1029B00080ED92E09F938F930E94BC068DB79EB7E7
:1029C00080960FB6F8949EBF0FBE8DBF8EEC92E03E
:1029D0000E94230686EC92E00E942306C7FBCC27C8
:1029E000C0F91F92CF9383EC92E09F938F930E9444
:1029F000BC0681EC92E00E9423060F900F900F908E
:102A00000F9006C087EC97E00E9423060E94691A87
:102A1000C1E001C182E394E0EEC080917201817F48
:102A20008E7F809372018AE79BE00E94230683ECED
:102A300097E00E94230681E080934502E9CF87EA70
:102A400097E00E9423060E9413249FEF24E38CE06A
:102A5000915020408040E1F700C000000E946119C1
:102A6000D7CF80917201C82FC095C170C0FB80F98B
:102A700080937201CC2319F08BE997E0B7C08EE800
:102A800097E00E94230680917201897F877F80935F
:102A90007201BECF9091720191FBCC27C0F981E009
:102AA000C827892FC0FB81F980937201CC2319F0CC
:102AB00081E897E027C083E797E09DC0909172017D
:102AC00092FBCC27C0F981E0C827892FC0FB82F98F
:102AD00080937201CC2319F084E697E013C084E55B
:102AE00097E089C09091720193FBCC27C0F981E0F7
:102AF000C827892FC0FB83F980937201CC2351F042
:102B000088E497E00E94230680917201816080939F
:102B1000720181C08BE397E06EC084E996E00E9469
:102B200023068CE596E00E94230685E496E00E9449
:102B300023068FE096E00E94230684EE95E05BC0BA
:102B400086E197E00E9423060E9497121F928F93BE
:102B50008CEF96E09F938F930E94BC0680910A01B0
:102B60001F928F9385EE96E09F938F930E94BC06F1
:102B7000809113021F928F9382ED96E09F938F9323
:102B80000E94BC0680916C0187FB882780F91F9208
:102B90008F938AEB96E09F938F930E94BC060E94CE
:102BA00098199F938F937F936F9383EA96E09F93F7
:102BB0008F930E94BC068DB79EB746960FB6F894C9
:102BC0009EBF0FBE8DBF24CF0E94132490916C0135
:102BD00097FBCC27C0F981E0C827892FC0FB87F974
:102BE00080936C01CC2329F081E397E00E942306B7
:102BF00012C086E297E00E9423060ACF895303C0E1
:102C00008D5101C080E00E94AD1102CF84E297E0B7
:102C10000E942306C0E08C2FDF91CF910895F89495
:102C2000E82FE295EF70F0E031A1282F2F7081E0BE
:102C300090E001C0880F2A95EAF7982F909593238A
:102C400091A392A1892B82A3789408959F92AF9229
:102C5000BF92CF92DF92EF92FF920F931F93CF9389
:102C6000DF9304E611E08BE0E82E81E0F82EC0E06F
:102C7000D0E0912CCC24C394D12CB701D7018C91F6
:102C8000F894E82FE295EF70F0E021A18F70A60193
:102C900002C0440F551F8A95E2F7CA01922F982B64
:102CA00091A392A18095892382A3789400C0EFE03C
:102CB000F1E020E030E0A12CB12C4191842F8295ED
:102CC0008F7090E0DC0190968C9190E04F7002C084
:102CD000959587954A95E2F780FD08C0C601022EBA
:102CE00002C0880F991F0A94E2F702C080E090E0CA
:102CF000A82AB92A2F5F3F4F2C303105F1F6BFEFDC
:102D0000EB1AFB0AFB0180810E940F16C330D1052C
:102D100019F0F0EAFA95F1F7D8018D919C9111978D
:102D2000A816B90621F0AD92BC9281E001C080E006
:102D3000982A21960E5F1F4FC430D10509F09DCF10
:102D4000992049F081E0809385010E94A419909315
:102D5000840180938301809185018823A9F12091CA
:102D60008301309184014FB7F89480910B029091C8
:102D70000C02A0910D02B0910E024FBF821B930B6B
:102D8000069710F1809164019091650190937C0108
:102D900080937B01809166019091670190937E0101
:102DA00080937D01809168019091690190938001E9
:102DB00080937F0180916A0190916B0190938201D1
:102DC0008093810110928501892DDF91CF911F9110
:102DD0000F91FF90EF90DF90CF90BF90AF909F90BA
:102DE0000895CF93DF930E948C13EC0182389105F4
:102DF00059F1A0F48133910509F473C040F489328C
:102E0000910509F467C08A9709F472C084C08533BC
:102E1000910509F458C0C997B9F07DC0833E91056A
:102E200071F138F4803E9105B1F0823E910511F1C7
:102E300072C0863E9105B9F1873E9105C9F1843E85
:102E4000910509F068C024C080916C0180FD5DC0CF
:102E500081FD5BC060C080916C0180FD50C080919D
:102E60006D0180FF36C180916C0184FD30C1C3EEDD
:102E7000D0E02FC180916C0182FF2BC1F4CF8091F3
:102E80006C0182FD3FC080916D0180FD3EC0EBCFA3
:102E900080916D0181FF1DC180916C0184FD17C17E
:102EA000C7EED0E016C180916C0183FF12C1F4CF50
:102EB00080916C0183FD2CC080916D0181FFECCF6E
:102EC000C4EED0E006C180916C0185FF02C1C9E269
:102ED000D0E0FFC080916C0185FFFBC0C5E3D0E06E
:102EE000F8C080916C0186FFF4C0CAE2D0E0F1C066
:102EF00080916C0186FFEDC0C1E3D0E0EAC0C9E378
:102F0000D0E0E7C0C2EED0E0E4C0C0EED0E0E1C067
:102F1000C6EED0E0DEC0C11582E5D80708F066C075
:102F2000C11591E5D90728F0DC2FCC27C16FD06AF5
:102F3000D0C0C83ED10560F5C03ED10508F0C9C07B
:102F4000C83AD105B0F4C53AD10540F0C55AD0E031
:102F5000C15DDE4FC881D0E0D064BBC0C130D105B7
:102F600009F4B7C008F4B3C0C430D10508F4AFC049
:102F7000B0C0CF3BD10508F0AAC0C85AD0E0CC0FF2
:102F8000DD1FCE5CDE4F0990D881C02DD464A1C076
:102F9000C11520E5D207E0F0CE0174E09695879543
:102FA0007A95E1F783709C2F937021E030E002C0A6
:102FB000220F331F9A95E2F73C68382BCF70C695E5
:102FC000C69580E2C89FE0011124C22BD32B81C09B
:102FD000C11580E4D80718F0DF70D06A7AC0CE013E
:102FE0009A9581159F4108F474C071C0C11586E59A
:102FF000D807F0F5C11595E5D90750F08C2F0E9440
:103000006A118F71C82FD0E0DC2FCC27D06261C04D
:10301000C11524E5D20728F0DC2FCC27C46FD06A75
:1030200058C09E01237033278C2F86958695C11535
:10303000D34578F4C1E0D0E002C0CC0FDD1F2A9563
:10304000E2F720E2829FC0011124C82BD92BDC6853
:1030500040C0C1E0D0E002C0CC0FDD1F2A95E2F7EE
:1030600020E2829FC0011124C82BD92BDA6831C01D
:10307000C1152AE5D207E8F4C11589E5D80780F023
:103080008C2F8F700E946A1194E0D695C7959A95FF
:10309000E1F7CF70D0E0DC2FCC27D069C82B19C066
:1030A000C11598E5D90798F0DC2FCC27C06FD06AFE
:1030B00010C0CE0190568115904248F48D2F8F712B
:1030C0000E946A11DD27D0628F71D82B02C0C0E048
:1030D000D0E0CE01DF91CF9108958295982F937320
:1030E00044E0949F900111248C7C86958695282B32
:1030F000822F8575880F2A7A2695822B0895089548
:103100008091140208959FB7F894109210029FBF07
:1031100090913702943009F057C09091E9009F7068
:103120003091EC00232F217030FD20E8922B25E018
:103130002093E9002091EB0020FF43C02091EE0096
:1031400027FF3FC020910F02222321F02091E800A9
:1031500025FF37C010920F0226E03091E80035FDC0
:1031600015C030913702343061F53091EB0035FDF8
:1031700028C0215021F481E080930F0222C0EFE9A2
:10318000FFE03197F1F700C00000E7CF8093F10036
:103190008091E80085FD0AC08091E80080FFFCCFA7
:1031A0008091E8008E778093E80006C08FB7F8948E
:1031B00021E0209310028FBF9F709093E90080E080
:1031C00008959F709093E9008FEF0895CF93DF9358
:1031D00000D01F92CDB7DEB790913702943011F531
:1031E00089837B836A839093E9008FEF9091E80055
:1031F000815095FD06C095ED9A95F1F7000081117B
:10320000F5CF8091E80085FF0DC040E050E063E01D
:1032100070E0CE0101960E94B0238091E8008E7785
:103220008093E8000F900F900F90DF91CF91089559
:10323000BC0184E00C94E618BC0183E00C94E61811
:10324000CF93DF9320910A01222339F020916C0162
:1032500027FF03C060E224E002C068E021E0209381
:10326000E9002FEF3091E800215035FD06C035ED23
:103270003A95F1F700002111F5CF2091E80025FFE4
:103280001DC0EC0180910A01811105C040E050E0B1
:1032900068E070E003C070E040E050E0CE010E94C2
:1032A000B0238091E8008E778093E80080E2FE01F1
:1032B000A5E1B2E001900D928A95E1F7DF91CF91FF
:1032C000089587E797E790930108809300089AE0B4
:1032D00088E10FB6F894A895809360000FBE909394
:1032E0006000FFCF78941F920F920FB60F921124B7
:1032F0008F939F93AF93BF9380910B0290910C0299
:10330000A0910D02B0910E020196A11DB11D8093F6
:103310000B0290930C02A0930D02B0930E02BF918A
:10332000AF919F918F910F900FBE0F901F901895A6
:103330002FB7F89460910B0270910C0280910D02EE
:1033400090910E022FBF08952FB7F89480910B0231
:1033500090910C02A0910D02B0910E022FBF089522
:103360001F920F920FB60F9211248F939F93AF93DA
:10337000BF9380917001811113C080910B029091D5
:103380000C02A0910D02B0910E024196A11DB11D3B
:1033900080930B0290930C02A0930D02B0930E0247
:1033A000BF91AF919F918F910F900FBE0F901F9083
:1033B000189520910A01222351F120916C0127FFD9
:1033C00026C0262F2695269526952E3178F4FC01C9
:1033D000E20FF11D677081E090E001C0880F6A95EF
:1033E000EAF7809592818923828308958091720102
:1033F00080FF17C01F926F9380EA99E09F938F938D
:103400000E94BC060F900F900F900F900895FC0142
:1034100006962281621301C012823196E817F907DD
:10342000C1F7089520910A01222349F120916C01EE
:1034300027FF25C0262F2695269526952E3170F438
:10344000FC01E20FF11D677081E090E001C0880F80
:103450006A95EAF79281892B82830895809172019F
:1034600080FF25C01F926F9382E899E09F938F930E
:103470000E94BC060F900F900F900F900895FC01D2
:1034800032962FEF30E04191641789F02F3F19F405
:10349000411101C0232F3F5F3630A9F72F3F39F08C
:1034A000FC01E20FF11D27FDFA956283089508954E
:1034B000CF9384E090E00E943825C82F81E290E00D
:1034C0000E9438252C2F30E0A901582BCA01CF913A
:1034D00008956BEE7EEF80E090E00E94642560E04E
:1034E00082E090E00E94462560E083E090E00E9448
:1034F00046251092070210920802109209021092BB
:103500000A0260E084E090E00E94462560E081E2EB
:1035100090E00E94462560E085E090E00E9446250C
:1035200060E086E090E00E9446256FEF87E090E043
:103530000E94462540E050E0BA0188E090E00E94F9
:10354000582560E08DE090E00E94462540E050E084
:10355000BA0188E190E00E94582560E087E190E0A0
:103560000E94462540E050E0BA018CE190E00E94C4
:10357000582560E080E290E00E94462540E050E05F
:10358000BA0188E190E00E94582540E050E0BA017D
:103590008FE090E00E94582540E050E0BA0183E1BE
:1035A00090E00C9458258091060281111092060239
:1035B0000895EF92FF920F931F93CF93909105027E
:1035C00080910402892B20910302982F922B9093D3
:1035D0008C01809106028823D9F0892B80938C017D
:1035E00080910A01882331F080916C0187FF02C02D
:1035F0008EE101C086E0EEE8F1E090E0815028F035
:1036000021912223D9F39F5FF9CF91110E94D31A00
:10361000E0916E01F0916F01309709F448C08091FC
:103620000A01882359F080916C0187FF07C08091BF
:103630008C0180938D0185E080938C010280F38161
:10364000E02D8CE891E009958091720182FF2FC0F6
:1036500080FF04C080E799E00E9423060CE811E097
:10366000C8E08AE6E82E89E0F82E8091720180FF9A
:103670000CC0F80180811F928F93FF92EF920E94FD
:10368000BC060F900F900F900F90C1500F5F1F4F0F
:10369000C111EBCF8091720180FF09C088E699E0EB
:1036A000CF911F910F91FF90EF900C942306CF9133
:1036B0001F910F91FF90EF900895BF92CF92DF92EC
:1036C000EF92FF920F931F93CF93DF938C01C090E3
:1036D0004102D0904202E0904302F0904402809177
:1036E000070290910802A0910902B0910A02C82A2B
:1036F000D92AEA2AFB2ACFE1D0E0D701C6010C2E55
:1037000004C0B695A795979587950A94D2F780FD42
:1037100004C0219790F7B12C07C0BC2EB8018C2FA4
:103720000E94F1160197A9F38B2DDF91CF911F9184
:103730000F91FF90EF90DF90CF90BF900895CF93BF
:10374000DF93EC010E945D1BBE010E94F116DF9128
:10375000CF9108952CE0929F800D1124682F6695DB
:1037600066956695982F977085E0689FB001112443
:1037700040E050E080E0FB01E40FF51FEC51FE4F0C
:10378000208130E0092E02C0369527950A94E2F791
:1037900021703327042E01C0220F0A94EAF7822BEE
:1037A0004F5F5F4F4530510531F708952CE0929FF0
:1037B000800D1124E82FE695E695E695877051E097
:1037C00001C0550F8A95EAF785E0E89FF0011124C2
:1037D000EC51FE4F20E030E070E04081CB01022E42
:1037E00002C0969587950A94E2F7817081958427A7
:1037F0008523842781932F5F3F4F2530310569F75B
:103800000895609341027093420280934302909323
:1038100044020C9405240F931F9341E050E060E0B4
:1038200070E004C0440F551F661F771F8A95D2F7BA
:10383000409550956095709580914102909142021B
:10384000A0914302B09144028A019B0108231923ED
:103850002A233B23C901B8011F910F910C94011C2D
:10386000209102028095822380930202982F977004
:1038700079F430E0482F082E000C550B241735073B
:1038800039F08595859585950E940B1C1092020252
:1038900008950F931F9341E050E060E070E004C092
:1038A000440F551F661F771F8A95D2F780914102FA
:1038B00090914202A0914302B09144028A019B017F
:1038C000082B192B2A2B3B2BC901B8011F910F91F3
:1038D0000C94011C60930702709308028093090204
:1038E00090930A020C9405248091E3019091B20117
:1038F000891719F08F5F8770FBCF08950F931F937F
:10390000CF93DF938091B10182958F7009F05DC0F4
:103910008091AE01882309F458C08091E301109191
:10392000B2016091AC017091AD01C091AF01D09135
:10393000B00191E06F3F09F090E0292F06E0811778
:1039400009F443C0209721F07F3F21F030E003C00D
:1039500031E001C0322F90E030FD34C0089FF0010B
:10396000099FF00D1124DF01AD54BE4F11963C911B
:103970001197371327C03C91361324C012963C91FF
:10398000129731111FC013964D915C9114974C1BE7
:103990005D0B483C5105B0F48091B1018F7080619E
:1039A0008093B101E854FE4F80818F7080618083E5
:1039B0008CEA91E00E94C506DF91CF911F910F9193
:1039C0000C94741C01968770BACFDF91CF911F9130
:1039D0000F9108959F92AF92BF92CF92DF92EF9294
:1039E000FF920F931F93CF93DF93CDB7DEB761970D
:1039F0000FB6F894DEBF0FBECDBF8C0185E0F80195
:103A0000DE011D9601900D928A95E1F7F8019081F3
:103A10008181E2803091AC016091AD014091AF01B4
:103A20005091B0014115510531F06F3F31F421E063
:103A30003F3F19F403C021E001C020E0F22FF170F4
:103A40009F2E20FD23C1F801C380D4802CEAA22E32
:103A500021E0B22EF090AE01F601E41BF50BFF2041
:103A600009F4CEC02091B101E83CF10508F099C0FD
:103A7000422F407F09F051C0681311C039130FC0A5
:103A8000FE2CE1100CC02F7020612093B101C50104
:103A90000E94C5068091B101F801858337C1CD2808
:103AA00031F08F3F31F421E09F3F19F403C021E052
:103AB00001C020E020FD03C021E02E2502C020E04F
:103AC00030E0F22FF170FF2E20FF1DC02091E301A6
:103AD0004091B20156E0241709F4F6C030E0529F3D
:103AE000F001539FF00D1124ED54FE4F61818613B8
:103AF00006C06081961303C06281E61204C02F5F86
:103B00003F4F2770E8CFFE2CEE2009F4FFC08091D4
:103B1000B10181608093B10150C0681307C03913AF
:103B200005C0E11003C0F80125838DC09D878E87F5
:103B30008D859E850E94DC23882369F1EE2059F152
:103B40002091B101822F82958F7090E0029774F0DE
:103B50008091AC019091AD0198878F831986DB86A7
:103B6000CA862C87CE0107960E94C50686E0F8011A
:103B7000ACEAB1E001900D928A95E1F70E947E1CBB
:103B80000DC06817E1F09D878E878D859E850E9408
:103B9000DC2381111EC0C8010E94C506FF24F394D6
:103BA000B5C0422F407F69F78CEA91E00E94C506BC
:103BB00086E0F50111928A95E9F7F12CA7C0391337
:103BC000E2CFE110E0CFF8012583C8010E94C506CD
:103BD00057C0EE2001F32091B101822F82958F70A2
:103BE00090E002971CF28091AC019091AD019A8314
:103BF00089831B82DD82CC822E83CE010196B4CFD5
:103C0000E83CF105E8F5FE2CEE2029F2681327C008
:103C1000391325C02091B10120FD18C0822F829553
:103C20008F70482F50E04115510581F0F801258330
:103C30004F30510541F08F5F982F9295907F822FE2
:103C40008F70892B8583C8010E94C50686E0F80124
:103C5000ACEAB1E001900D928A95E1F757C09D87DB
:103C60008E878D859E850E94DC2381117FCF809178
:103C7000B10181608093B101C8010E94C50646C0B0
:103C800086E0F50111928A95E9F740C0EE2009F42B
:103C900082CF9D878E878D859E850E94DC23F82E9E
:103CA000882309F478CF86E0F801ACEAB1E001900E
:103CB0000D928A95E1F78091AC019091AD010E943F
:103CC0009F1B0E947E1C22C09D878E878D859E85AE
:103CD0000E949F1B292F22952F70223028F49F705D
:103CE00039F0811105C00BC0243028F49F7049F4CD
:103CF000805E883020F0C8010E94C5069F2CF92CF8
:103D000005C0F8019581907F99F7F9CF8F2D6196C5
:103D10000FB6F894DEBF0FBECDBFDF91CF911F91DC
:103D20000F91FF90EF90DF90CF90BF90AF909F905A
:103D300008950F931F938091410290914202A091A8
:103D40004302B09144028C019D0106701127222785
:103D50003327BC01CD01063011052105310511F4D1
:103D6000686001C0677F1F910F910C94011C1F9325
:103D7000CF93DF93CDB7DEB7AA970FB6F894DEBF27
:103D80000FBECDBFE9E3F2E081E492E02091F100C3
:103D900021938E179F07D1F780913A02833009F45F
:103DA00062C030F4813071F0823009F49CC0B3C03D
:103DB0008A3009F488C08B3009F46DC0893009F06D
:103DC000AAC020C080913902813A09F0A4C0809134
:103DD000E800877F8093E80080913D0290913E0249
:103DE000892B21F460E285E192E003C060E080E08D
:103DF00090E070E00E94310D8091E8008B77809315
:103E0000E80089C080913902813209F084C0809134
:103E10003D0290913E02009719F0029709F07BC095
:103E20008091E800877F8093E8008091E80082FD20
:103E300005C0809137028111F8CF6DC02091F30049
:103E40008091F20090E0922B029729F48091F1008A
:103E50008B7F813021F48091F10080931402809156
:103E6000E8008B7754C080913902813A09F053C041
:103E700080913D0290913E02892B09F04CC08091C7
:103E8000E800877F8093E8008091E80080FFFCCF06
:103E900080910A0137C0809139028132E1F5809129
:103EA0003D0290913E02892BB1F58091E800877F19
:103EB0008093E8000E94DD0C80913B0280930A0110
:103EC0000E94132428C080913902813221F580910B
:103ED000E800877F8093E8000E94DD0C80913C021F
:103EE0008093130218C080913902813AA1F4809125
:103EF000E800877F8093E8008091E80080FFFCCF96
:103F0000809113028093F1008091E8008E77809376
:103F1000E8000E94DD0C8091E80083FFE3C18091FE
:103F2000390290913A02492F50E04A30510508F089
:103F3000D9C1FA01EC54FF4F0C948625803821F04A
:103F4000823809F0CFC108C08091350290913602C5
:103F5000992389F082600FC080913D028F70873075
:103F600008F0C0C18093E9008091EB0085FB8827B1
:103F700080F91092E9009091E800977F9093E80013
:103F80008093F1001092F10071C1282F2D7F09F06C
:103F9000A9C1882319F0823061F0A4C180913B024D
:103FA000813009F09FC1933009F080E080933602A0
:103FB0002EC080913B0281112AC080913D028F70FA
:103FC0002FEF280F263008F08DC18093E900209153
:103FD000EB0020FF1CC0933021F48091EB00806245
:103FE00014C09091EB0090619093EB0021E030E0E1
:103FF000A90102C0440F551F8A95E2F74093EA00D9
:104000001092EA008091EB0088608093EB001092A0
:10401000E9008091E800877F8093E8000E94DD0C32
:1040200061C181115FC110913B021F778091E30054
:104030008078812B8093E3008091E800877F8093D4
:10404000E8000E94DD0C8091E80080FFFCCF8091A9
:10405000E30080688093E300111102C082E001C098
:1040600083E0809337023EC18058823008F03AC125
:1040700020913B0230913C022C3D53E0350779F50D
:1040800083E08A838AE289834FB7F894DE0113962E
:1040900020E03EE051E2E32FF0E050935700E4913E
:1040A00020FF03C0E295EF703F5FEF708E2F90E02E
:1040B000EA3010F0C79601C0C0968D939D932F5F94
:1040C000243149F74FBF8091E800877F8093E80053
:1040D0006AE270E0CE0101960E94310DB5C0809178
:1040E0003D0290913E02432F552743305105A9F0E0
:1040F00068F44130510509F404C14230510509F01A
:10410000F1C08BE790E0E3ECFAE04BC0413251059F
:1041100029F14232510589F1E5C0C9019927813061
:104120009105A1F058F0029709F0DCC0E0E5FBE052
:10413000E4918E2F90E0E0E5FBE030C0E6E7FBE0A5
:10414000E4918E2F90E0E6E7FBE028C0E2E6FBE09A
:10415000E4918E2F90E0E2E6FBE020C084309105F0
:1041600008F0C0C0880F991FFC01E95DFE4F019067
:10417000F081E02D89E090E014C08430910508F0D2
:10418000B1C0FC01EE0FFF1FE15EFE4F0190F08118
:10419000E02DDC01A55EBE4F8C9190E0009709F404
:1041A000A1C02091E800277F2093E80020913F02E2
:1041B000309140028217930708F49C0140E02115DA
:1041C000310589F180913702882309F43DC085309B
:1041D000D9F18091E80083FD37C08091E80082FD2D
:1041E0002FC08091E80080FFEACF4091F3008091DA
:1041F000F20090E0942B2115310559F0883091059B
:1042000040F444914093F1003196215031090196D8
:10421000F2CF41E0089709F040E08091E8008E7706
:104220008093E800CCCF4111CDCF0AC080913702F6
:10423000882351F0853041F08091E80083FD04C06F
:104240008091E80082FFF2CF8091E8008B77809325
:10425000E80048C0803809F045C08091E800877FB9
:104260008093E800809138028093F1008091E8000B
:104270008E77D2CE811136C080913B0290913C0264
:10428000992702977CF58091E800877F8093E8006A
:1042900010913B02109338020E94DD0C111106C0F0
:1042A0008091E30087FD02C081E001C084E080933B
:1042B000370242E061EC81E00E94FC0C42E261ECDA
:1042C00084E00E94FC0C42E261EC82E00E94FC0C63
:1042D00042E260EC83E00E94FC0C42E261EC85E08B
:1042E0000E94FC0C8091E80083FF10C08091E800E0
:1042F000877F8093E8008091EB0080628093EB00E1
:1043000005C082E190E0EEE3FBE04BCFAA960FB64A
:10431000F894DEBF0FBECDBFDF91CF911F910895FE
:104320001F920F920FB60F9211242F933F934F932A
:104330005F936F937F938F939F93AF93BF93CF932D
:10434000DF93EF93FF93C091E900CF708091EC0071
:10435000D82FD17080FDD0E81092E9008091F00054
:10436000877F8093F00078940E94B71E1092E90036
:104370008091F00088608093F000CD2BCF70C093C7
:10438000E900FF91EF91DF91CF91BF91AF919F91A4
:104390008F917F916F915F914F913F912F910F90EE
:1043A0000FBE0F901F901895E8EDF0E080818E7F92
:1043B00080831092E2001092DA001092E100A0EEE9
:1043C000B0E08C9181608C9380818F77808319BC61
:1043D000A7EDB0E08C918E7F8C9380818F7E80835F
:1043E000109212020895CF92DF92EF92FF920F93F4
:1043F0001F93CF93DF93C8EDD0E088818F7E8883B1
:10440000E7EDF0E080818160808384E082BF81E01D
:104410008093120288818E7F888302EE10E0F8017B
:1044200010821092DA0081EEC82ED12CF601108293
:1044300088818F77888388818068888388818F7D51
:10444000888319BC109237021092380210923602FB
:104450001092350290EEE92EF12CF70180818B7FCE
:10446000808388818160888342E060E080E00E94F0
:10447000FC0CF60180818E7F8083F8018081816051
:104480008083808188608083F70180818E7F808334
:10449000888180618883DF91CF911F910F91FF9078
:1044A000EF90DF90CF9008951F920F920FB60F926A
:1044B00011242F933F934F935F936F937F938F9329
:1044C0009F93AF93BF93EF93FF938091E10082FF9F
:1044D00049C08091E20082FF45C08091E1008B7F5E
:1044E0008093E100209111022F5F822F62E30E94EE
:1044F0007A25992319F02093110234C010921102E9
:1045000080911002882371F180913702843041F547
:104510008091E9008F702091EC00922F917020FD26
:1045200090E8892B95E09093E9009091EB0090FF43
:1045300014C09091EE0097FF10C09091E80095FF95
:1045400003C01092F100F9CF9091E80090FF05C0F0
:104550009091E8009E779093E8008F708093E90037
:10456000109210028091DA0080FF32C08091D80052
:1045700080FF2EC08091DA008E7F8093DA008091D8
:10458000D90080FF1CC080E189BD82E189BD09B4EA
:1045900000FEFDCF81E0809337028FEA9AE00E940F
:1045A000230680911202811113C00E94D4210E941F
:1045B000F3218091E20084608093E20009C019BC7D
:1045C0001092370283EB9AE00E94230610921202A7
:1045D0008091E10080FF1BC08091E20080FF17C046
:1045E0008091E2008E7F8093E2008091E200806102
:1045F0008093E2008091D80080628093D80019BC3B
:1046000085E08093370287EB9AE00E942306809131
:10461000E10084FF32C08091E20084FF2EC080E17F
:1046200089BD82E189BD09B400FEFDCF8091D8002B
:104630008F7D8093D8008091E1008F7E8093E10090
:104640008091E2008F7E8093E2008091E2008160A1
:104650008093E20080913802882311F084E007C043
:104660008091E30087FD02C081E001C083E0809378
:1046700037028BEB9AE00E9423068091E10083FFD2
:104680002BC08091E20083FF27C08091E100877FEB
:104690008093E10082E0809337021092380280918B
:1046A000E1008E7F8093E1008091E2008E7F809315
:1046B000E2008091E20080618093E20042E060E0ED
:1046C00080E00E94FC0C8091F00088608093F000F4
:1046D0008FEB9AE00E942306FF91EF91BF91AF917B
:1046E0009F918F917F916F915F914F913F912F910A
:1046F0000F900FBE0F901F9018952091E4003091FD
:10470000E50095E64091EC00842F817040FF23C0C6
:104710008091E80080FD1DC080913702882399F0C8
:10472000853099F08091EB0085FD11C04091E40047
:104730005091E5002417350729F3915011F09A01A3
:10474000E1CF84E0089582E0089583E0089581E058
:10475000089580E008954091E80042FFDDCF08957C
:10476000EF92FF920F931F93CF93DF937C018B0106
:104770000E947D23811119C0E70101151105A1F0E7
:104780008091E80085FD0AC08091E8008E778093D3
:10479000E8000E947D23882381F307C089918093DC
:1047A000F10001501109E9CF80E0DF91CF911F9115
:1047B0000F91FF90EF9008950E949F1B292F2F705B
:1047C000E92FE295EF704E2F50E0FA013297EE306C
:1047D000F105B8F4E254FF4F0C948625803F99F020
:1047E00018F4883E70F40FC0843F59F40CC0883E22
:1047F00050F0813F31F407C0822F869586958695CB
:10480000089580E0089581E0089580E090E00E949E
:10481000811280E090E00E946B12109204021092CC
:1048200003020C94D91A1092050280910A01882380
:1048300031F080916C0187FF02C08EE101C086E0FB
:10484000EEE8F1E0DF011D928A95E9F70C9405246A
:10485000882341F080959091050289238093050279
:104860000C94D91A0895882339F090910502892B68
:10487000809305020C94D91A0895882379F19CEF4E
:10488000980F913A30F4682F8CE891E00E94D91982
:1048900014C090E2980F983090F4877021E030E0D7
:1048A000A90102C0440F551F8A95E2F7CA018095FD
:1048B000909105028923809305020C94D91A9BE5F7
:1048C000980F933020F480E090E00C948112885A85
:1048D000873120F480E090E00C946B120895CF9320
:1048E000882309F4A5C09CEF980F913AB0F5C82F22
:1048F00080914502882319F0813051F02BC08091BE
:104900000502823209F05CC08C2F0E94991356C0B8
:10491000809105028232C1F3C43191F018F4CB309A
:1049200029F011C0C93261F0C83369F48AE79BE00D
:104930000E94230687E99BE00E94230681E008C0CD
:104940001092450204C085E99BE00E94230680E0A6
:10495000817034C01092450233C090E2980F9830B5
:1049600090F4877021E030E0A90102C0440F551F88
:104970008A95E2F7CA0190910502892B809305027E
:10498000CF910C94D91AEBE5E80FE33040F4F0E056
:10499000E15DFE4F808190E0CF910C948112885AA6
:1049A000873108F045C0E82FF0E0EE0FFF1FEE5C06
:1049B000FE4F80819181CF910C946B12811138C090
:1049C00080910A018823E1F080916C0187FF18C073
:1049D000EC2FE695E695E695F0E0E457FE4F8281F0
:1049E000282F30E04C2F477081E090E002C0880F04
:1049F000991F4A95E2F782239323892B61F412C011
:104A0000EEE8F1E084E991E02191C21721F08E17E0
:104A10009F07D1F707C06C2F8CE891E00E94D9194D
:104A20000E94D91A6C2F8CE891E00E94121AA8CF2C
:104A3000CF9108951F93CF93DF93182F893319F0E7
:104A4000C0E0D0E002C0C0E5D0E0812F0E946F241A
:104A5000209741F08FE99FE00197F1F700C0000037
:104A60002197F6CF812FDF91CF911F910C943D2498
:104A7000F999FECF92BD81BDF89A992780B5089526
:104A8000A8E1B0E042E050E00C946C25262FF999A3
:104A9000FECF92BD81BDF89A019700B4021639F09D
:104AA0001FBA20BD0FB6F894FA9AF99A0FBE08956E
:104AB0000396272F0E9447250E944625252F0E94F6
:104AC0004725242F0C9447250196272F0E94472520
:104AD0000C944625DC01CB01FC01F999FECF06C000
:104AE000F2BDE1BDF89A319600B40D9241505040AC
:104AF000B8F70895991B79E004C0991F961708F03C
:104B0000961B881F7A95C9F780950895EE0FFF1FB1
:104B10000590F491E02D0994692796276927782755
:0A4B2000872778270895F894FFCF47
:104B2A00801820197F181C1918190131333236F4EC
:104B3A00F5F6F7C63435976694909140226D226F48
:104B4A000A4D0AE009BE09D50AEE0A0E0B270B81A7
:104B5A008283E200E900EA00B500B600B700CD00A2
:104B6A008301CC008A0192019401210223022402CA
:104B7A002502260227022A02B300B4006F00700041
:00000001FF
