:100000000C9490020C94C8020C94C8020C94C80280
:100010000C94C8020C94C8020C94C8020C94C80238
:100020000C94C8020C94C8020C9433300C94073121
:100030000C94982A0C94C8020C94C8020C94C80220
:100040000C94C8020C94C8020C94C8020C94C80208
:100050000C94C8020C943B2B0C94C8020C94C8025C
:100060000C94C8020C94C8020C94C8020C94C802E8
:100070000C94C8020C94C8020C94C8020C94C802D8
:100080000C94C8020C94C8020C94C8020C94C802C8
:100090000C94C8020C94C8020C94C8020C94C802B8
:1000A0000C94C8020C94C8020C94C80229001E00CB
:1000B0001F0020002100220023002400250026002C
:1000C00027002D002E002A002B0014001A00080023
:1000D000150017001C0018000C00120013002F0060
:1000E00030004C00390004001600070009000A0027
:1000F0000B000D000E000F0033003400310028000B
:10010000E10064001D001B0006001900050011003D
:100110001000360037003800E5002152E000E3000F
:10012000E200000000002C0000002C0000002C0069
:100130007600E600E700E40035003A003B003C00B2
:100140003D003E003F0040004100420043004400AB
:1001500045004C0001004A0052004D004B000100D8
:100160000100010001000100010001000100010087
:100170000100500051004F004E000100010001003D
:100180000100010001000100010001000100010067
:10019000010001000100010001000100A800AA0007
:1001A000A9000100010001000100010001000000A0
:1001B00000002800000028000000280001000100C5
:1001C0000100010000010101010101010101020220
:1001D00002020202020202030303030303030304F5
:1001E00004040404040405050505050606060606C0
:1001F000070707070708080808090909090A0A0A7A
:100200000B0B0B0C0C0C0D0D0D0E0E0E0F0F0F101B
:1002100010111111121213131414151516161717A5
:10022000181819191A1A1B1B1C1D1D1E1E1F202011
:10023000212222232424252626272829292A2B2C5B
:100240002D2D2E2F30313232333435363738393A7E
:100250003B3C3D3E3F404142434445464748494A76
:100260004C4D4E4F50515354555658595A5B5D5E44
:100270005F616264656668696B6C6D6F70727375DF
:1002800077787A7B7D7E8082838587888A8C8E8F43
:1002900091939596989A9C9EA0A2A3A5A7A9ABAD71
:1002A000AFB1B3B5B7BABCBEC0C2C4C6C9CBCDCF5F
:1002B000D1D4D6D8DBDDDFE2E4E7E9EBEEF0F3F50D
:1002C000F8FAFDFF00000000000000002A2B2800C3
:1002D00000000000000000000000000000000029F5
:1002E000000000002C1E3420212224342627252E35
:1002F000362D3738271E1F2021222324252633336D
:10030000362E37381F0405060708090A0B0C0D0E98
:100310000F101112131415161718191A1B1C1D2F64
:100320003130232D350405060708090A0B0C0D0E84
:100330000F101112131415161718191A1B1C1D2F44
:100340003130354C000000000000000000000000CB
:10035000000000000000000000000000000000009D
:1003600000000000000000007E0F00D4FFFFFFC768
:10037000000000780803300036003000000016034B
:10038000530079006E007400680020004C0061008A
:100390006200730000000403090409025B0003010A
:1003A00000A0FA0904000001030101000921110164
:1003B0000001224000070581030800010904010033
:1003C000020300000009211101000122220007059B
:1003D0008203200001070503032000010904020035
:1003E000010300000009211101000122B6000705E8
:1003F000840320000112010002000000084E533067
:10040000360100010200010660FF0961A1010962D5
:10041000150026FF00952075088102096315002646
:10042000FF00952075089102C005010902A1018510
:10043000020901A1000509190129081500250195E6
:1004400008750181020501093009311581257F9563
:10045000027508810609381581257F950175088187
:1004600006050C0A38021581257F9501750881065D
:10047000C0C005010980A101850319012AB7001533
:100480000126B700950175108100C0050C0901A176
:1004900001850419012AA002150126A00295017503
:1004A000108100C005010906A1018506050719E0B4
:1004B00029E7150025019508750181020507190036
:1004C00029EF1500250195F0750181020508190134
:1004D0002905950575019102950175039101C005E6
:1004E000010906A101050719E029E7150025019575
:1004F0000875018102950175088101050719002918
:10050000FF150026FF0095067508810005081901F2
:100510002905950575019102950175039101C000AA
:1005200011241FBECFEFDAE0DEBFCDBF04B603FE5D
:1005300018C08091E8059091E905A091EA05B09175
:10054000EB058730904BA740B04B59F41092E8056B
:100550001092E9051092EA051092EB05E0E0F8E34D
:10056000099512E0A0E0B1E0EEEAF9E602C00590DC
:100570000D92A23CB107D9F725E0A2ECB2E001C090
:100580001D92A83EB207E1F70E949F110C944D34D2
:100590000C94000082E008958230B8F46530A8F42D
:1005A0004E3098F450E09EE0699F400D511D11249B
:1005B000FA0196E4899FE00DF11D1124EE0FFF1F53
:1005C000E455FF4F85919491089580E090E008955F
:1005D00081E0089581E008950E94EA020895089557
:1005E0000E94EF020895A5E0B0E0E9EFF2E00C947C
:1005F0003F3349835A833091C90289819A813111ED
:1006000019C0662399F0222389F00E949A08182FB6
:10061000682F89819A810E94760869817A81812F69
:100620000E94120F2596E3E00C945B330E94880829
:10063000182FF3CF0E949A0869817A81F1CFFC01CB
:10064000262F408151816281738184810E94F3024F
:10065000089581E00895CF93DF93EC0160E00E945C
:100660001F03BE010E94F002DF91CF910895E1E0E7
:10067000F0E0DF0102C0AA0FBB1F6A95E2F7BD01DF
:10068000DF0102C0AA0FBB1F4A95E2F76A2B01C027
:10069000EE0F2A95EAF7962F9823961302C08E2B19
:1006A0000895E0958E230895242F462F682F80917A
:1006B000E5020E9437030E94D80708950E94401067
:1006C00008950E944410089508950E946C070E94A6
:1006D00064032FEF84E39CE0215080409040E1F7D9
:1006E00000C0000008950E9465030E945F2B0895DA
:1006F0000E9465030E94832B08950F931F93CF934D
:10070000DF938C0161E00E941F03EC01B8010E949D
:100710005523811106C080E0DF91CF911F910F9189
:100720000895B801CE010E94EC028823A1F3B8011C
:10073000CE010E94B928882371F3B801CE010E942E
:10074000E024882341F3B801CE010E942B2888239E
:1007500011F3B801CE010E9466228823E1F2F8016C
:100760008281882361F0C330FCE7DF07E9F058F4A9
:10077000C115ECE7DE07A9F0C130DC47B9F0C801CC
:100780000E94E802C9CFCB358CE7D807A9F0CC3559
:10079000ECE7DE0771F0CA35DC4789F70E94970C59
:1007A000EECF0E947303B7CF0E949F0C0E94780384
:1007B000B2CF0E948D0CE3CF0E949B0CE0CF0E9431
:1007C000742A0E94DF1F0E94110481E00E94FE2013
:1007D00008950E94150480E00E94FE200E94792A5C
:1007E000089508950E94F103089581E00895089501
:1007F000CF93DF93D82F0E94F503C82F882319F0D9
:100800008D2F0E94F7038C2FDF91CF9108950895CB
:10081000CF93C82F0E94F2038C2F0E94F803CF9130
:10082000089580E00E94080408950E9407290E940C
:1008300008040895CF930E940729C82F8091C4020D
:100840008C1779F0C093C4020E94042B6093C502F8
:100850007093C6028093C7029093C8028C2F0E94A7
:100860000804CF910895ABE0B0E0E9E3F4E00C9424
:1008700040334F83588769877A878B8761110E943D
:10088000D80B1E821D8285E0FE013796DE0111968F
:1008900001900D928A95E1F78C819D81892B61F4FD
:1008A00049815A816B817C818D819E810E94010BDF
:1008B0002B96E2E00C945C3389819A8189238F3FE7
:1008C00079F3CE0101960E9429038111E9CFF0CF7F
:1008D000FC01808191810E94C7080895662329F058
:1008E0000E9423120E94F61208950E947D12FACFF0
:1008F000CF93C82F8823B9F08CEF8C0F813AA8F4DE
:100900006C2F80910702909108020E949A298823F7
:1009100029F08C2F0E94980B0E94F90B8C2F0E94BB
:10092000900B0E94F90BCF91089580E28C0F8830D4
:1009300048F4C77081E001C0880FCA95EAF70E94A9
:10094000BB0BEFCFEBE5EC0FE33040F4F0E0E95AFE
:10095000FD4F808190E00E943C29E5CFE8E5EC0F57
:10096000E93150F4F0E0EE0FFF1FEB5DFD4F8081A9
:1009700091810E946129D7CF83E38C0F833198F650
:1009800061E08C2F0E946E04CECF882381F19CEF12
:10099000980F913A28F40E94980B0E94F90B089541
:1009A00090E2980F983050F4877091E001C0990F51
:1009B0008A95EAF7892F0E94C10BEFCF9BE5980F2C
:1009C000933028F490E080E00E943C29089598E557
:1009D000980F993128F490E080E00E9461290895F1
:1009E00093E3980F933118F460E00E946E04089529
:1009F0001F93CF93DF93182FEB010E947804209769
:100A000039F4812F0E94C504DF91CF911F91089581
:100A10008FE99FE00197F1F700C000002197EFCF29
:100A200070E060E0893311F460E570E00E94F80442
:100A30000895882321F00E94BB0B0E94F90B0895B2
:100A4000882321F00E94C10B0E94F90B0895B0E0A9
:100A5000A0E0EDE2F5E00C9439336C01D62FC72FFE
:100A6000FC011281F580F2949FE0F9220E94B10B03
:100A7000E82E8823B9F0E12E1123A1F08C2F807F7E
:100A8000803421F080E28D0F8830D0F08091D20444
:100A900082FF16C082E00E945C0C0E94B10B91E0C4
:100AA000E82EE926BC2EB2948FE0B822FBE0FB15BD
:100AB00008F468C0EB2DF0E0E15BFB4C0C942333B1
:100AC000E12CF0CF0C2F0F70C07F11F00295007F4A
:100AD000112399F0002359F080E28D0F883010F037
:100AE000D11107C0802F0E94BB0B0E94F90B8D2FE4
:100AF00041C0802F0E94CB0BF8CF8D2F0E94C504E0
:100B0000002309F43FC080E28D0F883010F0D1112E
:100B100004C0802F0E94C10B03C0802F0E94D10B04
:100B20000E94F90B2FC00C2F0F70C07FC03211F044
:100B30000295007FDD2381F0D13009F468C01123D4
:100B400009F472C0FF2009F468C0F601858180FFB6
:100B5000CECF8F70858361C08091D20482FD33C077
:100B6000112359F0002329F0802F0E94BB0B0E9413
:100B7000F90B80E00E94780405C080E00E94C50463
:100B80000111C7CFEB2DE850FF0B349720F40E94E2
:100B900007290E940804EE2089F00E94AD0B80FD19
:100BA0000DC0F60112820E94A70B0E94EA07C6013F
:100BB0000E942C070E94A70B0E94F607CDB7DEB754
:100BC000E9E00C945533112389F0F11006C00E941E
:100BD000DB0B802B0E941905D5CF21E0F212F7CF55
:100BE0000E94DB0B802B0E94E20BCCCFF11006C0E1
:100BF0000E94EF0B802F0E942005C4CF31E0F31636
:100C000009F2802F0E9420050E94EF0BBBCF112319
:100C100031F085E08F1508F4B5CF802FDBCF94E05D
:100C20009F1508F4AFCFE6CFFF2021F3D93349F465
:100C3000FFEF27EE33E0F15020403040E1F700C0F5
:100C400000008D2F0E94C5049DCF8C2F8695869520
:100C5000837069F0813009F095CF8D2F9C2F9370B0
:100C6000111102C080E090E00E9461298BCF8D2F8E
:100C70009C2F9370111102C080E090E00E943C29EB
:100C800081CF612F8D2F0E946E047CCF8C2F8370BB
:100C900079F5111177CF4D2F429546954770440F46
:100CA000440F8D2F8F70042E01C0880F0A94EAF72D
:100CB0002D2F2071D4FF07C02FE030E001C0220F9C
:100CC0004A95EAF72095C695C695C370822BC23027
:100CD00049F058F4C13019F00E94C60753CF0E9462
:100CE000C00750CF0E94CC074DCF0E94BD074ACF0E
:100CF0008695112311F08C2F8170882309F442CF3F
:100D00004D2F429546954770440F440F8D2F8F709D
:100D1000042E01C0880F0A94EAF72D2F2071D4FF0A
:100D200007C02FE030E001C0220F4A95EAF7209576
:100D3000C695C695C370822BC23049F058F4C130B5
:100D400019F00E9415081ECF0E940F081BCF0E94A9
:100D50001B0818CF0E94D80715CFCF70112329F098
:100D60008C2F0E94EA078D2F35CF8D2F0E942005F2
:100D70008C2F0E94F60706CFD23F51F160F4D03F8E
:100D8000B9F0D13F81F0112309F449C0F110AFCE81
:100D90008C2F8F7121C0D33F11F1D43FA1F78091E7
:100DA000D20482FD26C08C2F8F71112311F314C041
:100DB000112349F084E08F1508F4E4CE8C2F8F7155
:100DC0000E940308DFCE95E09F1508F4DBCEF6CF36
:100DD0008C2F8F711111CDCF0E94EA07D3CE112332
:100DE00029F08C2F8F710E94E107CCCE0E94DD0785
:100DF000C9CE112349F0CF718C2F0E94EA0763E01E
:100E00008C2F0E943E0CBECE81E00E945C0CE1E083
:100E1000EF1508F0B7CE82E00E945C0CB3CEF11063
:100E200005CF8C2F8F71A5CF0F931F93CF93DF9397
:100E3000EC01688179818A810E94D2088C010E942C
:100E400021080E94BC07B801CE010E942705DF914E
:100E5000CF911F910F910895CF93DF93EC018B8178
:100E60009C81892B29F08881998189238F3F51F4B6
:100E7000DF91CF910895CE010E941407CE010E9408
:100E80002B03F6CFCE010E947D038111F4CF0E9487
:100E9000B10B882369F38A81882351F38091D204AE
:100EA00082FFE6CF82E00E945C0CE2CF90E080E01F
:100EB0000E943C2990E080E00E9461290E94D80BAA
:100EC0000E94F90B0E9412130E94F61208950E94CC
:100ED000A00B0E94560708950E94C80B0E94670746
:100EE000089592959F70963091F058F4925F9F709C
:100EF000923058F4803F19F030F4883E30F481E0AD
:100F000008959A5FF4CF843FD1F380E00895883E3E
:100F1000B0F3813FD1F7F3CFFC0183819481892B1A
:100F200029F08081918189238F3F11F480E0089519
:100F3000808191810E94C7080E9471070895A5E0F1
:100F4000B0E0E5EAF7E00C9440332596E2E00C943B
:100F50005C33A6E0B0E0EFEAF7E00C94403326966D
:100F6000E2E00C945C3308950E94B30708950E9458
:100F7000B4078093E602089508950E94B707089584
:100F80009091E602892B0E94B70708959091E6029E
:100F900089230E94B70708959091E60289270E944D
:100FA000B70708950E94B30708950E94D2070895D5
:100FB0000E94D5078093E502089580E00E94D8073B
:100FC000089591E001C0990F8A95EAF7892F0E9450
:100FD000D807089521E030E001C0220F8A95EAF792
:100FE0008091E502822B0E94D807089521E030E02D
:100FF00001C0220F8A95EAF720958091E5028223AD
:101000000E94D807089521E030E001C0220F8A95A0
:10101000EAF78091E50282270E94D807089590910F
:10102000E502892B0E94D80708959091E502892353
:101030000E94D80708959091E50289270E94D80759
:1010400008950895262F277091E001C0990F2A95E1
:10105000EAF723E0769567952A95E1F7FB01EE0F15
:10106000FF1FE60FF71FE40FF51F50E040E0682F69
:1010700070E08191DF0111979B01042E02C036952B
:1010800027950A94E2F721702195282729232827FC
:101090002C934F5F5F4F4330510559F70895A82FA8
:1010A000A77023E0969587952A95E1F7FC01EE0F4E
:1010B000FF1FE80FF91FE60FF71F50E040E080E048
:1010C000219130E00A2E02C0369527950A94E2F766
:1010D00021703327042E01C0220F0A94EAF7822BD5
:1010E0004F5F5F4F4330510559F70895262F9530D4
:1010F00070F48E3060F4682F70E08EE0989F600D81
:10110000711D11244AEC52E0822F0E94220808959A
:10111000292F953068F48E3058F490E06AEC72E034
:101120003EE0239F800D911D11240E944F080895D9
:1011300080E00895CF92DF92FF920F931F93CF9399
:10114000DF936C010091E5028091E602082BC7E075
:10115000D0E010E0FC2EC8010C2E02C095958795BA
:101160000A94E2F780FD0CC02197A0F7F12C8F2D97
:10117000DF91CF911F910F91FF90DF90CF90089555
:10118000B6018C2F0E941E0F019771F3F0CFCF9301
:10119000DF93EC010E949A08BE010E941E0FDF91AE
:1011A000CF9108951F93CF93DF93EB019091C902E4
:1011B000992339F0CB010E94C708DF91CF911F918D
:1011C0000895882369F0CB010E949A08182F682F90
:1011D000CE010E947608BE01812F0E941E0FEDCF26
:1011E000CB010E948808182FF6CF1F93CF93DF936F
:1011F000C091E70216E08091E8028C1304C0DF91F1
:10120000CF911F910895D0E01C9FF0011D9FF00D1C
:101210001124E751FD4F40815181628173818481A6
:1012200095810E94A9072196C770E5CF40911903C7
:1012300050911A0360911B0370911C0380911D0350
:1012400090911E030E94A90708951F93CF93DF93E7
:1012500080911E03807F09F049C080911B03882381
:1012600009F444C08091E702C091E802609119033B
:1012700070911A03A0911C03B0911D03D62FD723A0
:1012800016E0C81799F190E0109711F0DF3F19F4BC
:1012900001968770F6CF189F9001199F300D112489
:1012A000F901E751FD4F41814713F2CF40814613C9
:1012B000EFCF42814111ECCF438154814A1B5B0B3C
:1012C000483C510528F780911E038F708061809300
:1012D0001E03F901E251FD4F80818F708061808390
:1012E00089E193E00E942C070E94F508DF91CF91DD
:1012F0001F910895A1E1B0E0E0E8F9E00C943833E3
:101300008C0185E0F801DE011D9601900D928A9511
:10131000E1F7F801E28089E1C82E83E0D82E6091E0
:101320001C0370911D036115710509F44EC1909164
:10133000190320911A03892F82238F3F09F445C195
:1013400040815181A380B480F0901B03F501E61B1E
:10135000F70BFF2009F4EAC080911E03382F307F7D
:10136000E83CF10508F0A3C031116DC0FE2C251337
:1013700016C0941314C0E11012C08F708061809366
:101380001E030E941609C6010E942C0780911E03AD
:10139000F80185838F2D6196EAE00C945433A114F3
:1013A000B10429F0842F85238F3F09F027C180E005
:1013B000F82FF170DF2E80FF3CC08091E702209172
:1013C000E80236E0821315C04D875E878D859E85C5
:1013D0000E94C708292F22952F702230F0F0243068
:1013E00018F59F70F1F0F8019581907FD1F4D12C20
:1013F0001EC090E0389FF001399FF00D1124E75195
:10140000FD4F6181651306C06081641303C0628172
:10141000E6120FC001968770D5CF9F7011F0882318
:1014200031F3805E883018F3C8010E942C07FD2C30
:10143000B1CFEE2009F4AECF80911E03816080937E
:101440001E03F12CA7CF251306C0941304C0F80186
:10145000EE2009F487C0C8010E948C07882319F187
:10146000EE2009F180911E03803270F02091190363
:1014700030911A0338872F831986BB86AA868C87FA
:10148000CE0107960E942C0786E0F801A9E1B3E09F
:1014900001900D928A95E1F70E9425090E94160994
:1014A000FF24F39477CFC8010E942C07F9CF3111A4
:1014B00013C07A2DB98AA88A6E2D89890E949F0748
:1014C00089E193E00E942C0786E0F60111928A954B
:1014D000E9F70E941609B5CF25130FC094130DC06C
:1014E000E1100BC0F8018583C8010E942C0786E03B
:1014F000F60111928A95E9F74DCFC8010E948C0739
:10150000882389F2EE2079F280911E03803208F45C
:10151000BBCF2091190330911A033A8329831B8290
:10152000BD82AC828E83CE010196ACCFE83CF10542
:1015300008F03EC0FE2CEE2009F4B5CF25132AC0DA
:10154000941328C080911E0380FD1BC0982F907FAC
:10155000C1F0F8018583903F31F0982F907F905F24
:101560008F70892B8583C8010E942C0786E0F801C3
:10157000A9E1B3E001900D928A95E1F70E94160966
:1015800009CF86E0F801A9E1B3E001900D928A95B8
:10159000E1F700CFC8010E948C07811175CF8091BF
:1015A0001E03816080931E03C8010E942C07F2CEA7
:1015B0007A2DB98AA88A6E2D89890E949F0786E0B4
:1015C000F60111928A95E9F7D9CFEE2009F46BCF95
:1015D000C8010E948C07F82E882309F464CF86E0A6
:1015E000F801A9E1B3E001900D928A95E1F789E154
:1015F00093E00E9468040E942509C0CF81E08E25F7
:10160000D7CEACE0B0E0E7E0FBE00C943F334F8393
:10161000588769877A878B879C87CE0107960E94B7
:101620007A09882369F08A859B85892B39F04F8157
:101630005885842F85238F3F09F06BC016E05FC06B
:1016400086E0FE013796DE01119601900D928A9593
:10165000E1F78A859B85892B89F388859F8189237A
:101660008F3F61F32091E80230E0C9010196877055
:1016700099274091E7024817190671F40E946C07F8
:101680001092E8021092E70286E0E9E1F3E0DF0160
:101690001D928A95E9F7D2CF96E0929FD001939F51
:1016A000B00D1124A751BD4FFE01319601900D924E
:1016B0009A95E1F78093E8020E94F508BFCF819FD9
:1016C000C001112487519D4F0E947A098823E9F0B7
:1016D000E091E7021E9FF0011124E751FD4F408188
:1016E000518162817381848195810E94A9078091D3
:1016F000E70290E00196877099278093E702809136
:10170000E7029091E8028913DACF2C96E3E00C947B
:101710005B3369857A858B859C850E94A9078ECF6E
:10172000682F80910702909108020E941A2A08955A
:10173000682F80910702909108020E94282A08953C
:1017400080910702909108020E94362A08958091A4
:101750003F03859585958595089580913F03877012
:10176000089590913F03977081E009F480E0089517
:1017700080916203089590916203892B80936203A4
:101780000895809590916203982390936203089541
:1017900010926203089590916103892B80936103F5
:1017A0000895809590916103982390936103089523
:1017B00010926103089580914003089508950E9456
:1017C000DE0B08959091D20492FF08C090914003DF
:1017D000981721F0809340030E94DF0B08958091B9
:1017E0004003882329F01092400380E00E94DF0B21
:1017F0000895CF93DF93E0910702F0910802809162
:1018000062038083E0910702F09108028081909149
:101810006103892B808390914003992381F0E091AB
:101820000702F09108028081892B80838091070252
:10183000909108020E94862981110E94EF0BC091AD
:101840000702D091080240E250E06FE173E0CE0160
:101850000E94C333892B59F080E2FE01AFE1B3E06F
:1018600001900D928A95E1F7CE010E941429DF9133
:10187000CF91089508950E943A0C08959091D20452
:1018800092FF11C098E0899F90011124622B609310
:101890003F030E94EA0780913F03859585958595D2
:1018A0000E943B0C08950E94EA07089510923F039E
:1018B00080E00E943B0C089590913F03809589231E
:1018C00080933F03282F277091F4282F082E000CB7
:1018D000330B9217130659F09091D20492FF07C070
:1018E0008595859585950E94F6070E94560C08956A
:1018F0009091D20492FB222720F9281769F080FBEF
:1019000092F99093D2048091D1049091D2040E94D4
:10191000C10C82E00E945C0C08958091D20482FB8D
:10192000882780F991E089270E94780C089581E04A
:101930000E94780C089580E00E94780C08956FEF63
:101940007FEF90E080E00E942534089590E080E0F1
:101950000E94F133873E9E4F19F40E94ED220895B4
:1019600080E0089582E090E00E94E933089583E0EA
:1019700090E00E94E933089584E090E00E94F13302
:101980000895BC0184E090E00E9425340895AB01E5
:10199000BC018FE090E00E9419340895AB01BC01B6
:1019A00083E190E00E941934089560E070E0CB017B
:1019B0000E94CE0C089560E070E0CB010E94C70C3D
:1019C0000E94D50C089567EE7EEF90E080E00E94C3
:1019D000253460E082E090E00E94073460E083E01C
:1019E00090E00E9407341092E60260E074E184E027
:1019F00090E00E94253460E086E090E00E94073489
:101A00006FEF87E090E00E94073440E050E0BA01B9
:101A100088E090E00E94193460E08DE090E00E9440
:101A2000073440E050E0BA0188E190E00E941934A8
:101A300060E087E190E00E94073440E050E0BA01A6
:101A40008CE190E00E94193470E060E080E290E068
:101A50000E94253440E050E0BA0188E190E00E9405
:101A6000193480E00E9406230E9435230E94DB0C7B
:101A700008950E94E30C0895682F8EE090E00E9484
:101A8000073408950E94042B6093730370937403CA
:101A9000809375039093760360936F037093700344
:101AA00080937103909372030895089508950E949E
:101AB000560D089508950E945A0D089588E090E10A
:101AC0000E94FD280E94550D0E94570D089581E047
:101AD00008950E94670D0895089508950E946C0D61
:101AE0000E946D0D08950E9424100E9407040E9418
:101AF000972008950E94EF2A0E9445230E9400111A
:101B00000E94730DE1EDF4E0808180688083809114
:101B1000D1049091D2040E94C10C0E945B0D0895E3
:101B2000AAE0B0E0E6E9FDE00C9434330E9416111F
:101B300025E6822E23E0922E640110E0F601E1906A
:101B4000F1906F01812F0E9447101F5F153009F43B
:101B500050C0E816F90691F38091770381FD0E9449
:101B600050100E94690D682E10E0812F0E944710CE
:101B70007C01F401A190B1904F018A159B0591F170
:101B800000E0CC24C394D12CAE24BF24C5018C2109
:101B90009D21892BF1F077247394C7018C219D211D
:101BA000892B09F4712C662079F00E831F837886C7
:101BB0000E94F82A8160782F9A8789874E815F81F9
:101BC00068858A850E943304472D602F812F0E94EB
:101BD000621C0F5FCC0CDD1C0E30C1F6F401329795
:101BE000F182E0821F5F153009F0BFCF0E94420DE5
:101BF00022C0E816F90609F0AFCF0E94F82A8C013E
:101C0000809163039091640308171907A1F08FEF87
:101C100089838A831B820E94F82A8160782F9D83A2
:101C20008C8349815A816B818D810E94330410938A
:101C30006403009363030E94DF1F0E9434130E9419
:101C40001A042A96EEE00C945033CF93DF930E944F
:101C5000230FEC01811520E59207D0F5811530E4C2
:101C6000930708F086C0803E910518F58D3C9105DC
:101C700008F07DC0883A910570F4853A910508F026
:101C80006EC08130910501F10097F1F00497E0F406
:101C9000D0E0C0E019C0813C9105D0F7C85AD0E02F
:101CA000CC0FDD1FC65ADD4F0990D881C02DD464FA
:101CB0000BC08115904208F0A8C0C11581E0D8077B
:101CC00018F4C83ED10520F7CE01DF91CF910895D9
:101CD000803622E5920710F5803432E5930708F04C
:101CE00052C08032924508F047C0C11582E5D8073E
:101CF00008F47DC02C2F2695269540E2249F900164
:101D000011248C2F8370C1E0D0E002C0CC0FDD1F06
:101D10008A95E2F7C22BD32BDD68D6CF803A22E535
:101D2000920760F4803832E5930708F441C0CF7120
:101D3000D0E0DC2FCC27C46FD06AC6CF803C42E510
:101D4000940708F449C0C03E82E5D80708F0A0CF48
:101D5000DC2FCC27CC27DF71C06FD06AB5CFC55A36
:101D6000D0E0C457DD4FC881D0E0D064ADCFD0659E
:101D7000ABCFDF70D06AA8CFCF71D0E0DC2FCC27FB
:101D8000C16FD06AA1CF282F26952695277080E2B3
:101D9000289F900111248C2F8370C1E0D0E002C0F5
:101DA000CC0FDD1F8A95E2F7C22BD32BDC688CCFDA
:101DB000282F26952695277040E2249F9001112414
:101DC0008370C1E0D0E002C0CC0FDD1F8A95E2F73E
:101DD000C22BD32BDA6878CF8F710E94C50FC82F22
:101DE000D0E0DC2FCC27CC27DF71D0626DCF8C2FD9
:101DF0008F710E94C50F35E0D695C7953A95E1F7EA
:101E0000CF709C2FEC01D0695FCF8D2F8F710E9416
:101E1000C50F90E0982F882788279F719C012C2B55
:101E2000E901E3CF462F753030F46E3020F4672F90
:101E30000E944327089590E080E008950E94120FC9
:101E40000E94250E089582389105B9F1B0F48133CE
:101E5000910509F47DC048F48932910509F46DC0FB
:101E60008A32910509F47BC008958533910509F400
:101E70005FC08933910509F10895833E9105D9F139
:101E800038F4803E910529F1823E910579F108955B
:101E9000863E9105D9F1873E910509F43EC0843E06
:101EA000910541F52091D20421FF24C08091D104F5
:101EB00084FD19C087EE90E008952091D10423702D
:101EC00009F05AC02091D20423FF14C089E290E0A7
:101ED00008952091D10420FD38C03091D20430FF04
:101EE00009C024FF43C090E080E008952091D10410
:101EF00022FDF7CF08952091D10422FD3AC0309100
:101F0000D20430FD39C024FFF5CFEDCF2091D104AC
:101F100023FFF0CF24FDE7CFCDCF2091D10423FDC7
:101F20002EC03091D20431FFEECF84EE90E00895C0
:101F30002091D10425FFDECFC9CF2091D10425FD0A
:101F400021C02091D20423FFD5CF89E390E0D2CFE6
:101F50002091D10426FFCECF8AE290E0089520910F
:101F6000D10426FFC7CF81E390E0089583EE90E08F
:101F7000089582EE90E0089580EE90E0089586EE58
:101F800090E0089585E390E008959091D10492FF48
:101F900006C0282F28712830F9F4877F846093FFCA
:101FA00006C0282F28712831F1F4877E84612091A2
:101FB000D20420FF06C0382F38713830D9F4877F1B
:101FC000816021FF06C0282F28712831D1F4877E37
:101FD000816194FD877E0895282F24712430F9F6BD
:101FE0008B7F8860DCCF282F2471243101F78B7E12
:101FF0008861DDCF382F3171313019F78E7F8860DD
:10200000E0CF282F2171213121F78E7E8861E1CF29
:1020100080E008950E949F0C08950E9416118FE39E
:102020009CE90197F1F700C000000E94161180E0C2
:102030000E94471080FF04C00E940A100E945F2B7C
:1020400008950E940D1008950E94A60C811102C0EF
:102050000E94390D0E94B20C809377030E94BC0C41
:102060009093D2048093D1040E9421100E94B70C57
:102070000E94BD078091E5020E94D507089508954A
:102080000E943F10089508950E9443100895E82F7C
:10209000F0E0EE0FFF1FE352FB4F80819181089526
:1020A000089580EA8A95F1F7089500C008950E9486
:1020B00051100895F894E82FE295EF70F0E031A107
:1020C000282F2F7081E090E001C0880F2A95EAF751
:1020D000982F9095932391A392A1892B82A3789412
:1020E00008950F931F93CF93DF93CDE9D2E08991A9
:1020F0008F3F11F00E945A1082E0C23AD807B9F718
:10210000CFE8D2E00DE912E089918F3F11F00E94F3
:102110005A100C171D07C1F7DF91CF911F910F9136
:102120000895AF92BF92DF92EF92FF920F931F93A9
:10213000CF93DF938C01D62EC62FD0E0CE018356ED
:102140009D4F7C01FC0120812F3F09F44CC0F89485
:10215000E22FE295EF70F0E031A12F7081E090E086
:1021600001C0880F2A95EAF7932F982B91A392A18B
:102170008095892382A378940E945510EFE8F2E0BD
:1021800041E050E0B12CA12C21912F3FB1F1A22FC1
:10219000A295AF70B0E090968C9190E02F7002C045
:1021A000959587952A95E2F780FD27C0CA01A82A50
:1021B000B92A440F551F82E0ED39F80729F7F701D6
:1021C00080818F3F11F00E945A1061E0A114B10488
:1021D00009F460E08D2D0E945710CC0FDD1FC00F59
:1021E000D11FB982A882DF91CF911F910F91FF90EB
:1021F000EF90DF90BF90AF90089590E080E0D7CF50
:102200000E9471108AE0EDEDF4E0DF01982F1D923D
:102210009A95E9F7E3EDF4E0DF011D928A95E9F77D
:1022200085E00E9451110E945E030895AAE0B0E08B
:10223000ECE1F1E10C943D338E010F5F1F4F8AE01A
:10224000F80111928A95E9F7F12C6F2DC8010E94CF
:102250009110F394F5E0FF12F8CF4AE050E0B80196
:1022600083ED94E00E94C33321E0009709F420E05D
:10227000892B41F08AE0F801A3EDB4E001900D92C2
:102280008A95E1F745E06DED74E083ED94E00E94FE
:102290005211182F0E946103812F2A96E5E00C94B9
:1022A00059330895CF92DF92EF92FF921F93CF930D
:1022B000DF936C017B01C42F222349F081E08093DE
:1022C0007A030E94F82A90937903809378031091FF
:1022D0007A0311110AC010E0812FDF91CF911F9175
:1022E000FF90EF90DF90CF900895809178039091C8
:1022F00079030E94102B059770F3D0E0CC0FDD1FFF
:10230000AE01B601C7010E94C333892B41F0AE0173
:10231000B601C7010E94D03310927A03DDCF10E0DE
:10232000FBCF0E940D2D0E947A0D0E941A2D089558
:102330000E941F2D0E94900D0E94392D08950E9429
:10234000912A0E94F32C0E945E0D0E9491110E941E
:1023500098110E946E0DFBCF8091810380FF0DC00C
:1023600060910E0270E0660F771F6038710570F59E
:102370006115710569F1862F089581FF07C060918D
:102380000E0284E0689FB0011124EFCF60910E022D
:1023900082FD0AC0809180038823A9F020910D025C
:1023A00060910E02821710F088E0ECCF869FC0018A
:1023B000112433E0880F991F3A95E1F7622F70E0FE
:1023C0000E94CE32D2CF68E070E0D5CF8FE708957B
:1023D00081E008958091810380FF0CC060910A0222
:1023E00070E075956795759567956115710549F16B
:1023F000862F089581FF06C060910A0270E07595EE
:102400006795F3CF60910A0282FD0BC090917F0324
:102410009923A1F06091090280910A02961738F081
:10242000682F70E06038710500F38FE70895899F89
:10243000C001112470E00E94CE32F4CF61E070E060
:10244000D7CF81E008958D3C31F40E94AC11819585
:102450008093850308958E3C19F40E94AC11F8CF47
:102460008F3C31F40E94AC118195809384030895D0
:10247000803D19F40E94AC11F8CF893D29F40E94E7
:10248000EA118093860308958A3D21F40E94EA119F
:102490008195F7CF8B3D31F40E94EA1181958093AD
:1024A000870308958C3D19F40E94EA11F8CF9FE24A
:1024B000980F983070F4815D990B21E030E001C0F5
:1024C000220F8A95EAF780918303822B80938303FE
:1024D00008958D3D31F48091810381608093810363
:1024E00008958E3D21F4809181038260F7CF8F3D66
:1024F000B9F7809181038460F1CF409184038D3CD2
:1025000059F48091850387FF0DC010928503411116
:102510000BC01092800308C08E3C81F4809185032B
:1025200018169CF3442381F08091860390918703D1
:10253000892B09F05AC010927F0308958F3C49F40B
:1025400047FFF0CF10928403809185038111ECCF77
:10255000E0CF803D19F41416ACF3E4CF90918603DC
:10256000893D29F41916F4F610928603DBCF8A3DD3
:1025700019F497FFD7CFF8CF909187038B3D29F4BB
:1025800097FFD0CF10928703CDCF8C3D19F4191649
:10259000CCF3C8CF9FE2980F983090F4815D990BEF
:1025A00021E030E0B90102C0660F771F8A95E2F79B
:1025B000CB01809590918303892380938303B2CFCD
:1025C0008D3D31F4809181038E7F80938103AACF6A
:1025D0008E3D21F4809181038D7FF7CF8F3D09F0EF
:1025E000A1CF809181038B7FF0CF08950E94F82ABC
:1025F0009C019091840380918503982B21F0309366
:102600007E0320937D039091860380918703982B0E
:1026100021F030937C0320937B0382E893E00E94B7
:102620002E29089586E0E2E8F3E0DF011D928A9505
:10263000E9F71092800310927F03109281030895AE
:10264000FC01828181110EC0838181110BC08481C4
:10265000811108C091E08581811101C090E0892F2E
:102660008170089581E0FCCFA6E0B0E0EAE3F3E1F9
:102670000C943F3386E0E2E8F3E0DE01119601902E
:102680000D928A95E1F710928403109285031092BF
:102690008603109287038B819C81892B89F080911E
:1026A0007D0390917E030E94102BAC0190918003DA
:1026B0009923C9F180910F028417150608F440C0D0
:1026C0008D819E81892B91F080917B0390917C0379
:1026D0000E94102BAC0190917F03992309F471C0E3
:1026E00080910B028417150608F479C0BE016F5F54
:1026F0007F4F82E893E00E94482A811105C082E85A
:1027000093E00E94201381110E94F61286E0FE01E0
:102710003196A2E8B3E001900D928A95E1F72696F2
:10272000E3E00C945B33209110028AE0289F900133
:1027300011242417350720F69F5F9093800302C071
:102740009F3FD1F71B81112359F00E94AC119FEFDD
:1027500011160CF491E0899F802D1124809384033D
:102760001C81112359F00E94AC119FEF11160CF43B
:1027700091E0899F802D11248093850330918403FB
:10278000332309F49DCF20918503222309F498CFA8
:1027900045EB3403C0011124992359F0909384032D
:1027A00045EB240390011124332339F03093850342
:1027B00087CF81E080938403F3CF81E0809385030A
:1027C0007FCF20910C028AE0289F900111242417CA
:1027D000350708F08BCF9F5F90937F0302C09F3F28
:1027E000D1F71D81112359F00E94EA119FEF1116B4
:1027F0000CF491E0899F802D1124809386031E8123
:10280000112359F00E94EA119FEF11160CF491E088
:10281000899F802D11248093870330918603332371
:1028200009F464CF20918703222309F45FCF45EB9D
:102830003403C0011124992359F09093860345EB8A
:10284000240390011124332339F0309387034ECFB2
:1028500081E080938603F3CF81E08093870346CFA6
:10286000EF92FF920F931F93CF93DF93EB01E82F2B
:10287000D1110EC0442321F0F0E0EC53FE4FE4915F
:102880006E2F7E2F8E2FCDB7DEB7E6E00C94583337
:102890000D2F10E0282F30E0442329F02C533E4F19
:1028A000F901249130E0F6E0CF9FC0011124EFEF51
:1028B000F0E0BF010E94BA32AB018C2F90E0880F8C
:1028C000991FA5E5A49FB001A59F700D1124861B3B
:1028D000970B982F990F980FBF01601B710B629F88
:1028E000D001639FB00D729FB00D11248B2F9D9F5F
:1028F000B0011124672F7727EF01C61BD70BBE014C
:10290000629FE001639FD00D729FD00D11247F0163
:10291000E91AF108E09EB001E19E700DF09E700D85
:102920001124672F7727E61BF70BE29F8001E39FB7
:10293000100DF29F100D1124E12F722F423051051E
:1029400099F048F44115510569F04130510581F085
:10295000EB2F8D2F07C04430510569F080F04630D1
:102960005105B1F76E2F8FCFE22F7B2F812FFACF3A
:10297000E22F7D2FF7CFEB2F822F712FF3CF7B2FFD
:10298000822FED2FEFCF41E00E943014089530E008
:1029900020E0869F212D969F200D311D1124C90115
:1029A0000895AC018230910508F408959FEF413EEF
:1029B0008EE1580740F49A0195E0369527959A954F
:1029C000E1F798E0920F61E0E62FE90FFF27FF1F84
:1029D0009F0135952795822F229FF001239FF00DAF
:1029E000F00D11244E175F0738F49FEF920F9617E2
:1029F00058F78FEF860F08952F3FE9F361E0620FDC
:102A0000F6CF409117025091180225E038E0429F1E
:102A1000C001439F900D529F900D1124875E994CE9
:102A20009093180280931702890F0895E82F86FD6E
:102A3000E0952E2F2F7086FD2F5FE695E695E695A3
:102A4000E670F0E0EE55FD4F9181929F902D212D83
:102A5000112492959F702295207F922B2081920FB6
:102A600087FD919580E8890F0895E42FF0E0EE0F3F
:102A7000FF1FE65BFE4F408134EE439F412D112442
:102A8000E72FF0E050E0445E5F4FDA01A21BB1098E
:102A90009D01B7FF03C031952195310993E0220FC5
:102AA000331F9A95E1F7AF01421B530B9A0157FD73
:102AB00020E0279F212D1124722F0895E42FF0E0AC
:102AC000EE0FFF1FE65BFE4F408134EE439F412D2A
:102AD0001124E82FF0E050E0445E5F4FDA01A21BC2
:102AE000B1099D01B7FF03C031952195310993E0EC
:102AF000220F331F9A95E1F7AF01421B530B9A0146
:102B000057FD20E0582F259F212D1124822F089555
:102B1000622F0895E42FF0E0EE0FFF1FE65BFE4FFB
:102B20006081621B0895E42FF0E0EE0FFF1FE55B6C
:102B3000FE4F6081621B0895322F50E0FA01EE0FC4
:102B4000FF1FE55BFE4F9081905297FD9195440FDA
:102B5000551FFA01E65BFE4F2081231B330B290F23
:102B6000311D97FD3A95620F0895EF920F93972FBD
:102B700023E0029FB0011124759567956E0D792FA2
:102B80000F91EF9008950F931F93CF93DF938B01D5
:102B9000D82FC42F822F0E941615EC2FF0E0EE0FD5
:102BA000FF1FE65BFE4F90819058890F87FD81954E
:102BB000880F682F2CE0629F612D1124600F712F08
:102BC0008D2FDF91CF911F910F910895E42FF0E0A9
:102BD000EE0FFF1FE65BFE4F9081921B97FD9195D4
:102BE000292F38E1239F212D1124620F0895209170
:102BF000EB0430E1230F08F42FEF60E1822F90E027
:102C00000E94C714BC0188EB9BE00E94BA3290E09E
:102C100080E008954095282F429F412D1124842F54
:102C2000089522E8241B08F420E0620F0895EF9233
:102C3000FF920F93970195E0099F200D311D1124FC
:102C40002F3F310519F010F02FEF30E02095382F8D
:102C5000320F08F43FEF832F0F91FF90EF9008950C
:102C6000EF92FF920F931F930E0D1F2D111DF9016F
:102C700037FF03C0F195E195F10924E0EE0FFF1F46
:102C80002A95E1F7EF3FF10519F014F0EFEFF0E0CE
:102C90009A0157FF03C031952195310994E0220F25
:102CA000331F9A95E1F72E173F070CF4F901E00F57
:102CB000F11FEF3FF10519F010F0EFEFF0E0E095B4
:102CC000282F3E2F230F08F42FEF822F1F910F91F3
:102CD000FF90EF900895EF92FF920F93972F093492
:102CE00038F4B701601B71096F3F710519F010F0DE
:102CF0006FEF70E0485F5F4F4131510540F0A9012F
:102D0000485F5F4F4131510510F06FEF70E0609503
:102D1000482F460F08F44FEF842F37FF02C02D5F76
:102D20003F4F35952795359527956091E804620FBB
:102D3000792F0F91FF90EF900895EF92FF920F93EC
:102D40009701201B31092F3F310519F010F02FEFAB
:102D500030E0322F3095482F430F08F44FEF842F87
:102D6000620F0F91FF90EF900895EF92FF920F93F3
:102D70009701201B31092F3F310519F010F02FEF7B
:102D800030E02095382F320F08F43FEF832F0F915A
:102D9000FF90EF90089590917404892B80937404B0
:102DA000089546E050E06CE170E087EE94E00E9408
:102DB000F7331092740408950E94C31408950E947A
:102DC000D1160895E7EEF4E085E280838091220237
:102DD00090912302A091240281839283A3838FE7A1
:102DE00084838FEF85830E94D116089580E0089533
:102DF0000F931F93CF93DF93C82FD62F8A010E9482
:102E0000F6169EE0C99FB00111246C5F7E4F6D0FD6
:102E1000711DFB0190819F3F29F0F801E80FF11D22
:102E200090838F5FDF91CF911F910F910895E09173
:102E3000B002F091B10209950895E091AC02F091D1
:102E4000AD0209950895B0E0A0E0E9E2F7E10C9445
:102E500033335C014B01FC01C0818DE0C89FC02D64
:102E600011241DE01C0FF12E103410F03FE3F32E5F
:102E70006091EB0466958091ED049091EE040E94C0
:102E8000C714582ED0E0CF1548F081E01F3308F06A
:102E900080E0CDB7DEB7EFE00C944F33FE01E8538E
:102EA000FE4F8081F50191818923C9F1CE01880F00
:102EB000991F8C5F9E4FFC01EA5BFF4F2081422FE0
:102EC0004057550B6A01895B9F4FFC018081282F79
:102ED0002052330B3901449F9001459F300D300D36
:102EE0001124669CC001679C900D900D1124820FE7
:102EF000931F0E94D114082F6091E8047091E90497
:102F00008091EA04E52C9301A601F40109950E9441
:102F1000DC16462F282F672FCE010E941D17219601
:102F2000B2CF65EB75E10E9423170895B0E0A0E0F1
:102F3000ECE9F7E10C9439337C018B01FC01C08191
:102F40008DE0C89FC02D11249DE0D92EDC0ECD2C24
:102F5000FFE3FD1510F48FE3C82E6091EB04669536
:102F6000669521E0620F08F46FEF8091ED04909177
:102F7000EE040E94C714B82ED0E0CC1550F081E0CA
:102F80009EE39D1508F480E0CDB7DEB7E9E00C9430
:102F90005533FE01E853FE4F8081F701918189236B
:102FA00091F06091E8047091E9048091EA042B2D7E
:102FB0004C2FF80109950E94DC16462F282F672F09
:102FC000CE010E941D172196D8CF65E375E10E94BE
:102FD000961708956EE575E10E949617089568E8C2
:102FE00075E10E94961708956AE875E10E949617A8
:102FF000089563E975E10E94961708956CE975E1FB
:103000000E949617089563EC75E10E949617089543
:1030100066EE75E10E9496170895B0E0A0E0E3E146
:10302000F8E10C9438338C017B01FC01C0818DE008
:10303000C89FC02D11242DE0B22EBC0EAB2CFFE397
:10304000FB1510F49FE3A92E2091EB0431E0230F30
:1030500008F42FEF30E050E040E06FEF7FEF80E0CA
:1030600090E00E9404336901D0E02C2FCA1550F083
:1030700081E0FEE3FB1508F480E0CDB7DEB7EAE0BF
:103080000C945433FE01E853FE4F8081F801918186
:10309000892311F14091F1044150042E000C550B8D
:1030A00047FF1CC0C6016091EB0421E0620F08F4E9
:1030B0006FEF0E94C714AC016091E8047091E904BD
:1030C0008091EA04F70109950E94DC16462F282F0B
:1030D000672FCE010E941D172196C7CFFA01EF502E
:1030E000FB4F818982130AC0FA01EE0FFF1FEF50D8
:1030F000FB4F818D928D8C159D05A8F24150510991
:10310000CFCF6AE076E10E940D18089561E176E183
:103110000E940D180895ABE0B0E0E1E9F8E10C94ED
:1031200030338C832B015F834E83FB01F0818DE074
:10313000F89F802D11248983835F8A838B83803459
:1031400010F02FE32B833091F1043D839981892F77
:1031500090E09B878A87880F991FFC01E65BFE4FF2
:103160006F01FC818F2F90E09C012F5F3F4F3987CB
:103170002887EB81FA85FE1748F081E02A812F33FA
:1031800008F080E02B96E2E10C944C33EA85FB8555
:10319000E853FE4F8081F2019181892301F1209053
:1031A000E8043090E904288539852F503B4F3901D8
:1031B0003C81398310E029813D812317C8F020919B
:1031C000EA04129F112D1124B101812F0E94DC16F7
:1031D000462F282F672F8A859B850E941D178A8579
:1031E0009B8501969B878A8792E0C90ED11CC1CF2F
:1031F000F30181913F01F601A080A81ABB088180EC
:10320000F3018781881A9908AA9C9001AB9C300D24
:10321000300D1124889CC001899C900D900D1124C3
:10322000820F931F0E94D114082F6091EB0421E0BC
:10323000620F08F46FEFF301EE0FFF1FE15FF44040
:10324000858996890E94C7147C019401A501B1016A
:10325000812FEE81FF8109951B01F981FF5FF983C1
:10326000182FA9CF2091F10431E0231B08F420E0AE
:1032700047E156E1BC01822F0E948B18089547E177
:1032800056E1BC0180E00E948B1808952091F10462
:1032900031E0231B08F420E040E356E1BC01822F1B
:1032A0000E948B18089540E356E1BC0180E00E9423
:1032B0008B1808952091F10431E0231B08F420E0DD
:1032C0004BE656E1BC01822F0E948B1808954BE615
:1032D00056E1BC0180E00E948B1808952091F10412
:1032E00031E0231B08F420E04DE956E1BC01822FB8
:1032F0000E948B1808954DE956E1BC0180E00E94C0
:103300008B1808952091F10431E0231B08F420E08C
:1033100045EB56E1BC01822F0E948B18089545EBC6
:1033200056E1BC0180E00E948B180895B0E0A0E057
:10333000ECE9F9E10C9439337C01FC01C0818DE0AA
:10334000C89FC02D11241DE01C0F012F103408F060
:103350000FE36091E8047091E9048091EA040E940F
:10336000DC16D62EC72EB82ED0E0C01748F081E06C
:103370001F3308F080E0CDB7DEB7E9E00C94553399
:10338000FE01E853FE4F8081F7019181892331F0DE
:103390002B2D4D2D6C2DCE010E941D172196E5CFB2
:1033A000B0E0A0E0E6EDF9E10C9436337C01FC01DD
:1033B000C0818DE0C89FC02D11241DE01C0F012F7E
:1033C000103408F00FE3C090E904D090EA04D091E3
:1033D000E8046D2F7C2D8D2D0E94DC16B62EA72EB5
:1033E000982E6091EB046D0F7C2D8D2D0E94DC16C4
:1033F000D62EC72E882ED0E0C01748F081E01F33AC
:1034000008F080E0CDB7DEB7ECE00C945233FE015B
:10341000E853FE4F9081F7018181892359F0282DCF
:103420004D2D6C2D90FD03C0292D4B2D6A2DCE0105
:103430000E941D172196E0CFB0E0A0E0E2E2FAE1A1
:103440000C9439337C01FC01C0818DE0C89FC02DF4
:1034500011241DE01C0FD12E103410F09FE3D92E43
:10346000C090E904B090EA042091EB0400E4029FCC
:10347000012D1124D0E0CD1548F081E01F3308F074
:1034800080E0CDB7DEB7E9E00C945533FE01E85398
:10349000FE4F8081F70191818923B9F0FE01EE0F83
:1034A000FF1FE55BFE4F808182958F706091E8047D
:1034B000809F600D11247C2D8B2D0E94DC16462FE1
:1034C000282F672FCE010E941D172196D4CFB0E080
:1034D000A0E0EDE6FAE10C9439338C01FC01C081E7
:1034E0008DE0C89FC02D11245DE0F52EFC0EDF2C71
:1034F000FFE3FF1510F44FE3D42EC090E904B09021
:10350000EA042091EB0430E4E32E3E2D329F312D6E
:103510001124E32ED0E0CD1550F081E03EE33F15BD
:1035200008F480E0CDB7DEB7E9E00C945533FE0136
:10353000E853FE4F8081F80191818923D9F0FE0183
:10354000EE0FFF1FE65BFE4F6081E69EB001112487
:1035500095E0759567959A95E1F78091E804680F75
:103560007C2D8B2D0E94DC16462F282F672FCE0135
:103570000E941D172196CFCFB0E0A0E0E2ECFAE167
:103580000C9439338C01FC01C0818DE0C89FC02DA3
:1035900011249DE0F92EFC0EEF2CFFE3FF1510F433
:1035A0008FE3E82ED090E804D091E904C090EA04BB
:1035B0006091EB046695669566958091ED04909117
:1035C000EE040E94C7140E941615805887FD81954D
:1035D000880F282F3C2D239F212D1124822F6D2D04
:1035E0007D2F0E94DC16D62EC72EB82ED0E0CE1529
:1035F00050F081E02EE32F1508F480E0CDB7DEB760
:10360000E9E00C945533FE01E853FE4F8081F80148
:103610009181892331F02B2D4D2D6C2DCE010E94EF
:103620001D172196E4CFB0E0A0E0E9E1FBE10C94A6
:103630003B338C01FC01E853FE4F8081682349F144
:10364000D090E904D091EA04C091E804EC2EF12C6A
:103650000E940115282FC7018C549F4F68E671E026
:103660000E94CE328E199F0997FD039695958795F6
:103670009595879523706C2F289F600D11247D2DC3
:103680008D2F0E94DC16462F282F672FC8010E941D
:103690001D17CDB7DEB7E7E00C945733FF920F93B9
:1036A0001F93CF93DF938C01FC01C0818DE0C89FF5
:1036B000C02D11248DE0F82EFC0E8281D0E0811106
:1036C0002DC06091EB0420E1620F08F46FEF809150
:1036D000ED049091EE040E94C7146AE070E00E942D
:1036E000BA32892B59F40E9401156FE30E94AE3261
:1036F000F8016181892F90E00E94131B81E09EE315
:103700009F1508F480E0CDB7DEB7E5E00C9459339F
:10371000F8016181CE010E94131B21968F2DFFE3DA
:10372000FF1508F48FE38C171D0609F08CF7E6CF20
:103730001F93CF93DF93EC01FC01E853FE4F808190
:103740006823B1F00E94B333182F0E94B3338F77F0
:10375000782F20E8720F08F47FEF612F8091EA0440
:103760000E94DC16462F282F672FCE010E941D17BE
:10377000DF91CF911F910895B0E0A0E0E2ECFBE172
:103780000C943B338C01FC01C281C11122C06091B9
:10379000EB0420E1620F08F46FEF8091ED0490914B
:1037A000EE040E94C71465E070E00E94BA32892BD3
:1037B00051F40E94B3336FE370E00E94CE32F801FF
:1037C00061810E94981B8C2FCDB7DEB7E7E00C9487
:1037D0005733C0818DE0C89FC02D11248DE0D82EB5
:1037E000DC0E8D2DFFE3FD1508F48FE3D0E0E82E0D
:1037F000F12CCE15DF0534F0C1E0FEE3FD1518F71E
:10380000C0E0E1CFF8016181CE010E94981B2196B2
:10381000F0CFB0E0A0E0EFE0FCE10C9439337C01A4
:10382000FC01C0818DE0C89FC02D11241DE01C0F3C
:10383000012F103408F00FE3C090E904D090EA049F
:10384000D091E8046091EB04669566956695809149
:10385000ED049091EE040E94C7140E941615805842
:1038600087FD8195880F682F2CE0629F612D1124C0
:103870006D0F7C2D8D2D0E94C314D62EC72EB82E11
:10388000D0E0C01748F081E01F3308F080E0CDB7EA
:10389000DEB7E9E00C945533FE01E853FE4F80811A
:1038A000F7019181892331F02B2D4D2D6C2DCE0107
:1038B0000E941D172196E5CFE091AE02F091AF0274
:1038C00009950895CF92DF92FF920F931F93CF93A4
:1038D000DF93CDB7DEB728970FB6F894DEBF0FBEE3
:1038E000CDBF182F062FF42E0E94670D882309F4F0
:1038F0004CC0FF2009F457C0AE014F5F5F4F602FEF
:10390000812F0E94F816F82E0F2D10E0809175047B
:10391000800F912F911D09976CF188E090E06C0168
:10392000C01AD10AB8016A587B4FA60186E794E015
:103930000E94D033B80162587B4FA6018EE794E015
:103940000E94D033A601440F551FB801660F771FA0
:1039500062577B4F8EE894E00E94D033B8016A57DB
:103960007B4FA60186E894E00E94D03388E08F194F
:103970008093750410917504DE01119640E0842F48
:10398000810FF41212C08093750428960FB6F89434
:10399000DEBF0FBECDBFDF91CF911F910F91FF9082
:1039A000DF90CF900895F12CAFCF5D91252F30E0BF
:1039B00090E0BC016B587B4FF901EE0FFF1FE65BF7
:1039C000FE4F0081FB010183220F331FF901E55BEC
:1039D000FE4F2081FB012187518B880F991FFC012D
:1039E000EB58FB4F128E118E4F5FC9CFB0E0A0E0B5
:1039F000ECEFFCE10C943233F82E809115028F111C
:103A000024C09091E70493702091160230E081E089
:103A10009217130609F480E081708093140280915C
:103A2000EC0490911302981739F08093130240E050
:103A300060E080E00E945C1C20E22F1588F0EF2DF2
:103A4000F0E0E55AFB4C0C94233381E0E5CF809104
:103A50001402882359F040E060E080E00E945C1C82
:103A600080E004C082E192E00E94961990911202D7
:103A70009F5F9093120281110CC082E0809311022B
:103A800080911402811105C0F11003C083E080937E
:103A90001102CDB7DEB7E0E10C944E3382E192E043
:103AA0000E94D019E3CF82E192E00E941C1ADECF7F
:103AB00082E192E00E94671AD9CF82E192E00E94EF
:103AC000BC1AD4CF82E192E00E94E517CFCF82E109
:103AD00092E00E94EA17CACF82E192E00E94EF17BB
:103AE000C5CF82E192E00E94F417C0CF82E192E05C
:103AF0000E94F917BBCF82E192E00E94FE17B6CF79
:103B000082E192E00E949117B1CF82E192E00E949F
:103B10004E1BACCF82E192E00E94BC1BA7CF82E19A
:103B200092E00E94091CA2CF82E192E00E94031859
:103B30009DCF82E192E00E94081898CF80911202F6
:103B40001DE0819F100D11244091ED045091EE0471
:103B50006091EF047091F004809170049091710471
:103B6000A0917204B091730484179507A607B70754
:103B700008F053C00E940115082F0E9401159FE311
:103B8000891BF0F7890FC82FD0E0FE01E853FE4FE4
:103B9000809113029081892309F43FC020E040E026
:103BA00060E001FD13C00E940115082F0E9401155D
:103BB0008695782F2FE7720F08F47FEF602F8091A2
:103BC000EA040E94DC16462F282F672FCE010E94A0
:103BD0001D172091EB0430E1230F08F42FEF60E173
:103BE000822F90E00E94C714BC0184EF91E00E94F4
:103BF000BA328091ED049091EE04A091EF04B0915F
:103C0000F004860F971FA11DB11D8093700490933F
:103C10007104A0937204B093730481E01F3308F41D
:103C200025CF1ECF40916C0450916D0460916E04BD
:103C300070916F048091ED049091EE04A091EF04D7
:103C4000B091F00484179507A607B70708F408CFCA
:103C500080911402811120C0C09112028DE0C89F92
:103C6000C02D11241DE01C0F012F103408F00FE3AC
:103C7000CC2ED12C33E0C39FE0011124C155DC4F81
:103C8000C01608F441C0EFEAF3E089E694E01F3380
:103C900008F053C081E0EACE40E060E080E00E949E
:103CA0005C1C0FEA13E0D0E0C0E03FE7E32E0E9487
:103CB000011581FF0BC0F80110821182128221963A
:103CC0000D5F1F4FCF33D10591F7C6CF0E9401156D
:103CD000B82E0E9401158695782F2E2D720F08F4AC
:103CE0007FEFCE01880F991F8C0F9D1FFC01E155BE
:103CF000FC4F6F016B2D8091EA040E94C314F60102
:103D0000608371838283DBCFF601E853FE4F8081AD
:103D100090911302892331F02A8148816981C6017B
:103D20000E941D172396FFEFCF1ADF0AA9CF238128
:103D3000348145812193319341938E179F07B9F7C1
:103D40000E94011581FF1FC01092690410926A043D
:103D500010926B040E94F7150091ED041091EE048F
:103D60002091EF043091F004DC01CB01800F911F12
:103D7000A21FB31F80936C0490936D04A0936E04F4
:103D8000B0936F046DCE0E940115C82F0E940115DB
:103D90008695782F2FE7720F08F47FEF6C2F8091B4
:103DA000EA040E94C3146093690470936A048093C8
:103DB0006B04D0CF80911402882329F040E060E0AA
:103DC00080E00E945C1C909112028DE0E82E989F8A
:103DD000E00C11244091ED045091EE046091EF0449
:103DE0007091F0048091AB039091AC03A091AD036E
:103DF000B091AE0384179507A607B70708F070C007
:103E00006091E8047091E9048091EA040E94DC1654
:103E1000762E672E582E08E813E0C4E0D1E05E014C
:103E20004E01680186E0482EF60121916F01F401F0
:103E300081914F0190E0222309F458C0252D472D90
:103E4000662D0E941D17F5018585252D472D662DB0
:103E500090E00E941D17F6018081319780834A947B
:103E6000F1E0AF1AB1084110DFCF8E8190E0F80188
:103E70002681222309F445C0252D472D662D0E9459
:103E80001D178F81252D472D662D90E00E941D174F
:103E90000E940115837091E009F090E0F80196838B
:103EA000095F1F4F2E96F1E0CA34DF0709F0B7CF44
:103EB0000E94F7150091ED041091EE042091EF049B
:103EC0003091F004DC01CB01800F911FA21FB31FC2
:103ED0008093AB039093AC03A093AD03B093AE0378
:103EE00081E02EE32E1508F0C1CDBACD20E040E0F0
:103EF00060E00E941D17F501858520E040E060E04C
:103F0000A7CF20E040E060E00E941D178F8120E0F5
:103F100040E060E0BACF82E192E00E948118A6CD35
:103F200082E192E00E948618A1CD82E192E00E9497
:103F300032199CCD82E192E00E943F1997CD82E137
:103F400092E00E94461992CD82E192E00E945319BC
:103F50008DCD82E192E00E945A1988CD82E192E0F3
:103F60000E94671983CD82E192E00E946E197ECD96
:103F700082E192E00E947B1979CD82E192E00E9479
:103F8000821974CD82E192E00E948F196FCD81E099
:103F900008950E94C71F089581E008950E94CC1FD4
:103FA0000895FC0180819DE0899F802D1124682F58
:103FB000803408F06FE38D500E94CE1F08954F9219
:103FC0005F926F927F928F929F92AF92BF92CF92A9
:103FD000DF92EF92FF92CF9360919E0470919F04C5
:103FE0008091A0049091A1040E941F2B6B017C0181
:103FF0000E94042B4B015C0180929E0490929F04CE
:10400000A092A004B092A104A0917504E5E7F4E0A9
:104010008A2F90E04FEF5FEF60E070E04C195D0990
:104020006E097F09A9132AC0809375048091A204A8
:10403000C0E0811108C08091E704C82FC37019F057
:10404000C82FC695C69580911102813009F440C0F1
:10405000882339F1823009F447C0833009F44FC016
:10406000CF91FF90EF90DF90CF90BF90AF909F9057
:104070008F907F906F905F904F900895218D328D3B
:104080002901712C612C441555056605770520F42E
:1040900081509F5F3296C6CF2C0D3D1D328F218FF0
:1040A000F8CF109212028092ED049092EE04A0924A
:1040B000EF04B092F00489E2E5E7F4E0A1EFB4E0A8
:1040C00001900D928A95E1F781E080931102C8CFAB
:1040D0008C2F0E94F61CCC2319F20E94C91F82E18A
:1040E00092E00E94D11FBCCFC09315028091E704DB
:1040F0008370809316020E94171783E0E6CF8091A9
:10410000740481110E94D1166091ED047091EE0447
:104110008091EF049091F0040E941F2B6031710593
:104120008105910508F49CCF1092110299CFE0917E
:10413000AA02F091AB0209951092F1048FEF9FEF64
:1041400090930B0580930A0590930D0580930C05C1
:1041500090930F0580930E059093110580931005A1
:104160009093130580931205909315058093140581
:104170009093170580931605909319058093180561
:104180001092750490938F0480938E049093910401
:104190008093900490939304809392049093950459
:1041A0008093940490939704809396049093990439
:1041B0008093980490939B0480939A0490939D0419
:1041C00080939C040E94A60C811104C00E94390DAA
:1041D0000E94E21681E08093740446E050E06CE1B6
:1041E00070E087EE94E00E94D933109274048091BD
:1041F000E7048C7F11F40E94E2160895CF93C82F34
:10420000882391F08091A20481110EC00E94F61CB7
:10421000109215028091E7048370809316020E9429
:10422000171783E080931102C093A204CF910895E1
:10423000E7EEF4E0908121E0922790831092110242
:104240000E94CB16089580E00E941821089581E015
:104250000E94182108958091E704837011F4109250
:1042600011028091E7048C7F81608093E7040895B8
:104270008091E704837011F0109211028091E7049D
:104280008C7F8093E70408958091E70483700895FC
:104290009091E704937051F0811109C0946090935C
:1042A000E70410921102862F0E94CB1608958132E6
:1042B00010F09068F4CF282F220F220F922BEFCF0F
:1042C00060E00E944821089561E00E94482108951D
:1042D0008091E704869586950895682F9091E7046C
:1042E0009695969581E0890F813208F081E00E94D1
:1042F0004821089581E00E946D210895682F9091D2
:10430000E704969596958FEF890F09F480E20E9455
:104310004821089581E00E947E2108959091E7044C
:10432000937049F08093E8046093E9044093EA04B1
:10433000822F0E94CB16089520E00E948E210895BE
:104340008091E80408958091E90408958091EA0439
:104350000895A7EEB4E01196EC911197F0E0282FA4
:1043600013964C91139712966C91CF0108960E9468
:104370008E21089581E00E94A9210895E7EEF4E0DE
:104380009181282F43816281E92FE850FF0BCF01F3
:104390000E948E21089581E00E94BE210895E7EEDB
:1043A000F4E0628120E1620F08F46FEF9181282F21
:1043B0004381892F90E00E948E21089581E00E9420
:1043C000CF210895E7EEF4E0628120E1621B08F45A
:1043D00060E09181282F4381892F90E00E948E21F7
:1043E000089581E00E94E2210895E7EEF4E0438120
:1043F00020E1420F08F44FEF9181282F6281892F2D
:1044000090E00E948E21089581E00E94F521089598
:10441000E7EEF4E0438120E1421B08F440E09181A3
:10442000282F6281892F90E00E948E21089581E0DB
:104430000E94082208958093EB0480E00E94CB162E
:1044400008958091EB040895E7EEF4E0248130E1D3
:10445000230F08F42FEF24830E94CB16089581E0E8
:104460000E9424220895E7EEF4E0248130E1231B2A
:1044700008F420E024830E94CB16089581E00E9476
:10448000332208950895FC01EE0FFF1FE80FF91F76
:10449000E65EFA4F6183408322830895EAE1F5E006
:1044A000818360834283339695E0E73DF907C1F746
:1044B00008956FE370E08AE195E00E94C1220895BB
:1044C000FA01811101C0FB01099508951F93CF9353
:1044D000DF93EC01FB011281111110C00E94B80B97
:1044E0008272FE01E052F847E531F10508F047C05D
:1044F000E458FB4C0C9423330E942721812FDF9139
:10450000CF911F9108954AE851E26AE771E20E9453
:104510006022F4CF4AE751E26AE871E2F8CF4BEC4F
:1045200051E26AEB71E2F3CF4AEB51E26BEC71E2DC
:10453000EECF41EF51E26EED71E2E9CF4EED51E287
:1045400061EF71E2E4CF47E152E264E072E2DFCF73
:1045500044E052E267E172E2DACF4EE352E26FE208
:1045600072E2D5CF4FE252E26EE372E2D0CF81E049
:104570000E946421C3CF85E0FBCF89E0F9CF11E031
:10458000BDCF6E9A4EB14F7B5EB15064EFB7F894D9
:104590009B01220F331F260F371F280F391F2817A3
:1045A000390741F4EFBF8FE594E00197F1F700C0C0
:1045B00000000895DC016D91CD0178E05EB9000046
:1045C00000C067FF4EB9660F000000C000C000C009
:1045D0004EB900C07A9591F7E2CF82E290E00E9456
:1045E000E933833289F483E290E00E94E933823038
:1045F00059F484E290E00E94E93391E0883109F0B7
:1046000090E0892F8170089580E0FCCFCF93C82F70
:104610006FEF811163E282E290E00E9407346FEF56
:10462000C11162E083E290E00E9407346FEFC11194
:1046300068E184E290E00E940734CF9108950895E4
:1046400085E290E00E94E933682F70E090E080E01E
:1046500008950895CF93C62F0E9429236C2F85E2D9
:1046600090E00E940734CF91089580E00E940623D5
:1046700060E070E0CB010E942A230E94CF260E94B6
:104680009E2781E00E94062308950E941F230E9416
:1046900020230E9429230E94ED22811102C00E9442
:1046A000352308950E9423210895CF93FB01C281F1
:1046B000CC2309F19C01225037472031310520F5E8
:1046C00082500E94AE27C0E08C2FCF91089581E0E8
:1046D0000E94EA0743E062E081E00E945403F3CFC6
:1046E00081E00E94F60743E062E081E00E9454030B
:1046F000EBCF82E0F6CF8115F7E79F0789F3813092
:104700009747B9F3C1E0E0CF8115E7E79E07F9F2DB
:1047100081309747C9F682E0DBCF2FEFFC01208381
:10472000089580E00895CF93DF93EC018881823073
:10473000E9F028F4813071F0DF91CF910895833052
:10474000E1F08430C9F70E94A02189830E94A3214F
:104750008A83F2CF0E94A6212FEF829FC0011124ED
:104760006FEF70E00E94BA326983E6CF0E94442165
:1047700081110E9468218983DFCF0E942122FBCF13
:104780001F93CF93DF93EC018881823011F130F4D5
:10479000813079F0DF91CF911F910895833029F115
:1047A0008430C1F70E94A6219981482F6A81892F00
:1047B0000CC019812FEF129F112D11240E94A321EB
:1047C000C82F0E94A021412F6C2F90E00E949C21B5
:1047D000E1CF8981811103C00E943821DBCF0E9483
:1047E0002B2189810E946021D5CF89810E941B22C3
:1047F000D1CFFC019C012E5F3F4F9081983041F05A
:10480000993051F0973059F4C9010E94C02308959E
:10481000C9010E94932308950E94DF1608958FEF27
:1048200080830895FC012181233019F40E94F9232B
:1048300008950E948D230895EF92FF920F931F9386
:10484000CF93DF93EC01062F0E949123811110C0BA
:10485000E881E150E331B8F4F0E0EF56FB4C0C9402
:10486000233319828BE08A83602FCE010E94E72BCD
:10487000CDB7DEB7E6E00C94583389818230C1F0C1
:1048800028F4813061F08FEF8883EECF833099F088
:104890008430C9F71A821B821C821D82E5CF0E94D8
:1048A000042B0E9429336A837B838C839D83DCCF16
:1048B0000E942023F6CF7E0110E0812F0E94471036
:1048C000F701928383831F5FF2E0EF0EF11C153036
:1048D000A1F7CACF8981823031F08530A1F68A8173
:1048E0000E945223C1CF6A817B818C819D810E946D
:1048F00029330E942A23B8CF4B816A8189810E9483
:1049000091269827892798279D838C83ADCF2C816A
:104910003D813227232732274B816A8189810E947A
:10492000B326A2CF0E94CF269FCF602FCE010E9438
:1049300012249ACF0E944F27898396CF0E94512735
:104940009827892798279A8389838ECF6B8170E077
:1049500089819A81AE014C5F5F4F982789279827FC
:104960000E94542781CF6B8170E089819A81AE01CA
:104970004C5F5F4F9827892798270E94792774CF2B
:104980000E949E2771CF0E947F26D6CF6B8170E058
:1049900089819A81AE014C5F5F4F982789279827BC
:1049A0000E94FB2661CF6B8170E089819A81AE0104
:1049B0004C5F5F4F9827892798270E941F2754CF65
:1049C000CF93DF93EC01FB018281882309F4D2C0ED
:1049D0009E0130572332310508F0B2C00E94BC0C52
:1049E0009093D2048093D104FE01E150F047E2326B
:1049F000F10520F4EC55FB4C0C9423338091D10449
:104A000081608093D10493C08091D20488608093A8
:104A1000D2048DC08091D1048260F3CF8091D10403
:104A20008460EFCF8091D1048860EBCF8091D20475
:104A30008160EDCF8091D2048260E9CF8091D10472
:104A40008061DFCF8091D1048062DBCF8091D1047F
:104A50008064D7CF0E946C078091D1048068D1CF49
:104A60008091D1048C60CDCF8091D2048360CFCF70
:104A70008091D1048E7FC5CF8091D204877FC7CF2C
:104A80008091D1048D7FBDCF8091D1048B7FB9CF30
:104A90008091D104877FB5CF8091D2048E7FB7CF2C
:104AA0008091D2048D7FB3CF8091D1048F7EA9CF26
:104AB0008091D1048F7DA5CF8091D1048F7BA1CF30
:104AC0000E946C078091D1048F779BCF8091D10495
:104AD000837F97CF8091D2048C7F99CF8091D1042E
:104AE00082FB992790F921E0922790FB82F990FBB5
:104AF00083F987CF8091D204982F909591708E7F03
:104B0000892B90FB81F983CF9091D104892F8F7BE2
:104B100096FF806476CF0E946C079091D104892F14
:104B200097FB87F980586DCF81E00E943C0D809102
:104B3000D1049091D2040E94C10C0E946C0780E0C5
:104B4000DF91CF91089580E0F0CF9091D104892F2B
:104B50008F7E94FF806155CF9091D104892F8E7FF5
:104B600090FF81604ECF9091D204892F877F93FF71
:104B700088604DCF81E0E4CFB0E0A0E0E2ECF5E268
:104B80000C943B33E82FF0E0EC53FD4FD490282FEA
:104B900026952695269530E0F901EC59FC4F0491B5
:104BA000877010E0082E02C0159507950A94E2F769
:104BB00001701127F901EC5AFC4FE490F12C082EFA
:104BC00002C0F594E7940A94E2F791E0E922FF2409
:104BD000F901EC5BFC4FC491D0E002C0D595C795BC
:104BE0008A95E2F7C170DD270115110519F081EEF4
:104BF0000E947804E114F10419F086EE0E94780412
:104C00008D2D0E941005E114F10419F086EE0E942A
:104C1000C5040115110519F081EE0E94C504CD2BC4
:104C200019F08CE20E941005CDB7DEB7E7E00C94D6
:104C30005733EF92FF920F931F93CF93DF93EC01C3
:104C4000162F0AE08881882309F454C0813009F0C6
:104C50004EC08981813099F47E0122E0E20EF11C80
:104C60008A810E941005E7012196812F815050F31F
:104C7000EFE9FFE03197F1F700C00000F7CF823095
:104C800041F47E0182E0E80EF11C8A810E947804E2
:104C9000EACF833041F47E01E2E0EE0EF11C8A811E
:104CA0000E94C504E0CF843011F02196DDCF2A8127
:104CB000229690E080E0AE014F5F5F4F2053330BB0
:104CC0002A30310548F0019778F2EFE9FFE031979B
:104CD000F1F700C00000F7CF089FB001099F700DE9
:104CE0001124C901860F971F2981EA01E4CF0E9490
:104CF000BC25BACFCDB7DEB7E6E00C94583384E0DC
:104D0000089550E0440F551F9CE1699F400D511DCF
:104D100011249CE8899F400D511D1124CA018696DB
:104D200008950F931F93CF93DF938430C8F46530B9
:104D3000B8F44E30A8F40E9481268C010E94E93319
:104D4000C82FD0E0DC2FCC27C80101960E94E933A0
:104D50009E01282BC901DF91CF911F910F910895DA
:104D600090E080E0F8CF0F931F93CF93DF93122F43
:104D7000032F843078F4653068F44E3058F40E9484
:104D80008126EC01602F0E940734612FCE0101962D
:104D90000E940734DF91CF911F910F9108950F93D7
:104DA0001F93CF93DF93D0E0C0E010E019C00E94C2
:104DB000CA0221E030E08C171D0639F034F0402F94
:104DC000612F8C2F0E94CC029C01402F612F8C2FD1
:104DD0000E94B3260F5F0E3051F71F5F153011F0A0
:104DE00000E0E5CF2196C430D105F9F6DF91CF91EF
:104DF0001F910F910895EF92FF920F931F93CF93FE
:104E0000DF93EC018A017C01E60EF71ECE01869647
:104E1000CE15DF0529F4CDB7DEB7E6E00C945833A4
:104E2000C03322E0D20740F40E94E933F8018083C6
:104E30000F5F1F4F2196EACFF8011082F9CFB0E043
:104E4000A0E0E5E2F7E20C943A337C016A018C01C0
:104E5000060F171FEC01CE018696C017D10729F463
:104E6000CDB7DEB7E8E00C945633C03322E0D2076A
:104E700040F4FE01EE19FF09EC0DFD1D60810E945A
:104E800007342196E8CF843038F4653028F44E306A
:104E900018F40E949126089590E080E0089580E142
:104EA00008958AEA91E00895EF92FF920F931F937D
:104EB000CF93DF93EC018A017C01E60EF71ECE0151
:104EC0008A5A9D4FCE15DF0529F4CDB7DEB7E6E04F
:104ED0000C945833CA3A21E0D20740F40E94E933D7
:104EE000F80180830F5F1F4F2196E9CFF8011082F0
:104EF000F9CFB0E0A0E0EFE7F7E20C943A337C01A1
:104F00006A018C01060F171FEC01CE018A5A9D4FD2
:104F1000C017D10729F4CDB7DEB7E8E00C945633BB
:104F2000CA3A21E0D20740F4FE01EE19FF09EC0D68
:104F3000FD1D60810E9407342196E7CFCF93DF9358
:104F4000C6E5D2E060E0CE010E9407342196C1158B
:104F500084E0D807B9F7DF91CF910895A8E0B0E0D9
:104F6000E4EBF7E20C943833F82E8FE08F1508F459
:104F70006EC08FEF93E00E94E933811168C006E5AF
:104F800012E0F11035C0FE0131966F0188E01192F8
:104F90008A95E9F77801FFEFEF1AFF0AC8010E942E
:104FA000E93389831A82882309F451C08130D1F40E
:104FB000580182E0A80EB11CC7010E94E9338A8320
:104FC000882309F444C09FEF980F9330F0F47801E0
:104FD00093E0E90EF11CC5010E94E9338B8388231D
:104FE000B1F11C8260E0C6010E9419268701D2CF70
:104FF000011594E0190759F1C8010E94E9338111A4
:1050000001C0FA940F5F1F4FBCCF7501843051F778
:1050100002E010E07501EFEFEE1AFE0AC5010E94F2
:10502000E933F601E00FF11F8083882381F08C378C
:1050300041F4E2E0F0E0EC0FFD1FE00FF11F108201
:10504000D1CF0F5F1F4F57010730110519F7289671
:10505000EAE00C945433CF93DF93EB0186319C4705
:1050600011F50E94B80B9A81992399F08A7A91E000
:1050700009F490E09093A304811109C089E20E9491
:10508000900B0E94F90B80E0DF91CF91089585E3AA
:10509000F6CF8091A304811104C089E20E94980B8D
:1050A000F0CF85E3FBCF81E0EFCF0F931F93CF933A
:1050B000DF93C42FD22FFC0182818823C9F0409353
:1050C000A6040E94F82A9093A5048093A40480E289
:1050D0008C0F883040F4C77081E001C0880FCA95FA
:1050E000EAF70E941905DF91CF911F910F91089562
:1050F0001091A604141332C08091A4049091A504C9
:105100000E94102B883C910548F5C0E2CD0F1D1779
:10511000B9F080E2810F883040F4177081E001C05F
:10512000880F1A95EAF70E942005C83048F481E0FC
:105130009D2F977001C0880F9A95EAF70E94190574
:10514000802F0E941005C83070F6D77081E001C032
:10515000880FDA95EAF70E942005C5CF80E28C0F10
:10516000883008F6C77081E001C0880FCA95EAF759
:10517000F2CF0F93DB0188519C4787309105A0F552
:10518000FC01EA53FB4C0C94233306E221EE41EE82
:105190006AE17CE7CD010E94552880E00F910895D7
:1051A00007E225EE45EE6BE17CE7F4CF06E221EE67
:1051B00040EE68E17CE7EECF07E225EE44EE69E1E0
:1051C0007CE7E8CF06E221EE42EE6CE17CE7E2CF3D
:1051D00007E225EE46EE6DE17CE7DCCF08E221E058
:1051E00045EE6EE17CE7D6CF12968C91882319F0BC
:1051F0001092A604D3CF81E0D1CF9093C3028093C5
:10520000C20208959093AC048093AB040895E0919A
:10521000AB04F091AC04309729F00190F081E02DBF
:105220000995089580E00895E091AB04F091AC04F5
:10523000309799F020912102222359F02091D10436
:1052400027FF07C0DC012C9111962C93119726E0C3
:105250002C930280F381E02D09950895E091AB0431
:10526000F091AC04309739F022E0DC012C930480FB
:10527000F581E02D09950895A3E0B0E0E2E4F9E2BC
:105280000C9440332091A9043091AA0428173907BF
:10529000A1F09093AA048093A904E091AB04F0914B
:1052A000AC04309751F023E029839B838A830680E6
:1052B000F781E02DCE01019609952396E2E00C944A
:1052C0005C33A3E0B0E0E7E6F9E20C9440332091D0
:1052D000A7043091A80428173907A1F09093A804D7
:1052E0008093A704E091AB04F091AC04309751F0A7
:1052F00024E029839B838A830680F781E02DCE01F9
:10530000019609952396E2E00C945C33FC013296F9
:1053100080912102882321F08091D1049EE187FFB2
:1053200096E080E0915008F4089521912223D1F372
:105330008F5FF8CF662301F1209121022223F1F043
:105340002091D10427FF1AC0462F469546954695D1
:105350004E3190F4677021E030E002C0220F331F1D
:105360006A95E2F7840F911DFC01828190E0282369
:10537000392381E0232B69F480E00895FC01329603
:1053800008962191261721F0E817F907D1F7F4CFF5
:1053900081E008959C01FC0132969FEF80E04191ED
:1053A000461751F09F3F19F4411101C0982F8F5FAC
:1053B0008630A9F79F3F09F40895290F311D97FD05
:1053C0003A95F90162830895FC013296089621917D
:1053D000261303C0DF0111971C92E817F907B9F7EC
:1053E0000895E62FE695E695E695EE3168F4E80F28
:1053F000F92FF11D677021E030E001C0220F6A959E
:10540000EAF78281822B82830895E62FE695E6955E
:10541000E695EE3170F4E80FF92FF11D677021E089
:1054200030E001C0220F6A95EAF720958281282397
:105430002283089520912102222339F02091D10462
:1054400027FF03C00E94F12908950E94CA290895E8
:1054500020912102222339F02091D10427FF03C09B
:105460000E94052A08950E94E4290895FC013296BD
:1054700080912102882351F08091D10487FF06C0DA
:105480008EE1DF011D928A95E9F7089586E0F9CF54
:1054900046E050E00E94C33321E0892B09F420E06C
:1054A000822F089508950E94522A0895811106C0FE
:1054B00081E08093AD040E94532A089582E0F9CFE1
:1054C00083E08093AD040E94532A08950E94562AD7
:1054D000089581E08093AD040E94532A08950E94AC
:1054E000692A0895089508950E94732A08950895D9
:1054F00008950E94722A0895CF930E94772A0E94ED
:1055000016110E94782AC0E08C2F0E944710892B28
:1055100031F4CF5FC530C1F780E0CF91089581E0CD
:10552000FCCF85B7806885BF85B7806885BF089543
:105530001F921FB61F9211248F939F93AF93BF9317
:105540008091AE04811113C08091D7059091D80548
:10555000A091D905B091DA054196A11DB11D8093A6
:10556000D7059093D805A093D905B093DA05BF91DC
:10557000AF919F918F911F901FBE1F9018958091A2
:10558000DF05843031F10E94DF031092AE0488E120
:1055900090E020E40FB6F894A895809360000FBEC9
:1055A0002093600083B7817F846083BF83B781606D
:1055B00083BF7894889583B78E7F83BF0FB6F894A6
:1055C000A8958091600088618093600010926000CF
:1055D0000FBE08950E946C070E94E903089582E0BF
:1055E00084BD93E095BD9AEF97BD80936E000895BA
:1055F0002FB7F8948091D7059091D805A091D9053F
:10560000B091DA052FBF08952FB7F8946091D705B0
:105610007091D8058091D9059091DA052FBF089532
:105620009C014FB7F8948091D7059091D805A0912F
:10563000D905B091DA054FBF821B930B0895CF9225
:10564000DF92EF92FF922FB7F894C090D705D090D9
:10565000D805E090D905F090DA052FBFA701960193
:10566000261B370B480B590BCA01B901FF90EF906D
:10567000DF90CF90089578941F921FB61F92112447
:105680008F939F93AF93BF938091D7059091D80547
:10569000A091D905B091DA050196A11DB11D8093A5
:1056A000D7059093D805A093D905B093DA05BF919B
:1056B000AF919F918F911F901FBE1F90189581E011
:1056C0008093E00080E28093D8001092C9008FE1BF
:1056D0009EE40197F1F700C0000087E090EBDC0149
:1056E0008093E8059093E905A093EA05B093EB0554
:1056F00088E19CE00FB6F894A895809360000FBEF7
:1057000090936000FFCF88E19CE00FB6F894A895D5
:10571000809360000FBE90936000FFCF8091CF0414
:1057200008959B01BA019091DF059430E9F48F70E0
:105730008093E9009FEF8091E800915085FD06C0BD
:1057400085ED8A95F1F700009111F5CF8091E80081
:1057500085FF0AC050E040E0C9010E94D82D809129
:10576000E8008E778093E800089543E050E0BC01A4
:1057700084E00E94912B089546E050E0BC0184E053
:105780000E94912B0895CF93DF93EC018091210229
:10579000811111C048E050E0BE0181E00E94912BD0
:1057A00080E2FE01AFEAB4E001900D928A95E1F744
:1057B000DF91CF9108958091D10487FF05C040E229
:1057C00084E050E0BE01EACF48E081E0FACF6032E9
:1057D00031F440E250E0BC0182E00E94912B089538
:1057E0008091DE05811109C00E94B72F0E941430FC
:1057F0008091E20084608093E20008951092DE05BB
:1058000008950E94692A08956091DB0581E0611185
:1058100001C080E00E94602A08959091DF0581E038
:10582000943009F080E06091DB050E94662A0895BB
:1058300042E061EC81E00E94332F42E261EC84E0BF
:105840000E94332F42E261EC82E00E94332F42E259
:1058500060EC83E00E94332F9091DF0581E094306B
:1058600009F080E06091DB050E94562A089580913E
:10587000E105833009F463C030F48130E1F1823016
:1058800009F4A0C008958A3009F48CC08B3009F463
:1058900071C0893009F052C08091E005813209F071
:1058A0004DC08091E4059091E505009719F00297AD
:1058B00009F044C08091E800877F8093E8008091E0
:1058C000E80082FF37C09091F3008091F2000297C8
:1058D00031F48091F100813011F0863021F4809113
:1058E000F1008093CF048091E8008B778093E800EB
:1058F0000E94672F23C08091E005813AF9F48091DE
:10590000E800877F8093E8008091E4059091E505A9
:10591000892B61F460E28FEA94E070E00E94762EB9
:105920008091E8008B778093E800089560E090E034
:1059300080E0F3CF8091DF058111C1CF0895809180
:10594000E005813AD9F78091E4059091E505892B2E
:10595000A9F78091E800877F8093E8008091E800B4
:1059600080FFFCCF809121028093F1008091E800BC
:105970008E77BCCF8091E005813201F78091E405FC
:105980009091E505892BD1F68091E800877F80937F
:10599000E8000E94672F8091E205809321020E9417
:1059A0006C0708958091E005813241F68091E8000E
:1059B000877F8093E8000E94672F8091E3058093A2
:1059C000D00408958091E005813A09F0B7CF809125
:1059D000E800877F8093E8008091E80080FFFCCF9B
:1059E0008091D004C1CF84B7877F84BF0FB6F8946D
:1059F000A89580916000886180936000109260009B
:105A00000FBE80E890E00FB6F89480936100909309
:105A100061000FBE0E946F2A08950E94B72F0E9456
:105A20001430E2EEF0E080818460808378940E94FC
:105A30009332089589E192E00E94022908958091AD
:105A4000DF05853031F48091DF05853019F00E9443
:105A5000EA2A08950E94BF2A8091DD05882399F3E0
:105A60000E947C2A882379F30E94C22D0E946C0731
:105A7000EACFA0E2B0E0EFE3FDE20C944033809186
:105A8000DF05843009F583E08093E9008091E80028
:105A900082FF1AC08091E80090E085FF09C050E0C5
:105AA00040E060E270E0CE0101960E94272E91E076
:105AB0008091E8008B778093E800992329F060E2D9
:105AC000CE0101960E941C24A096E2E00C945C3367
:105AD0000E946B2D0895292F33272330310521F1A2
