:100000000C940B020C9428020C9443020C942802CA
:100010000C9428020C9428020C946F170C9428025C
:100020000C9428020C9428020C9428020C942802A8
:100030000C9428020C9428020C944B170C94280260
:100040000C9428020C9428020C9428020C94280288
:100050000C9428020C9428020C9428020C94280278
:100060000C9428020C9428020000000000000000FC
:100070000000000000000000000000000000000080
:100080000000000000000000000000007E0F00D40F
:10009000FFFFFFC700000078000000000000000024
:1000A0002A2B2800000000000000000000000000D3
:1000B00000000029000000002C1E342021222434DE
:1000C0002627252E362D3738271E1F2021222324B0
:1000D00025263333362E37381F0405060708090A4C
:1000E0000B0C0D0E0F101112131415161718191AE8
:1000F0001B1C1D2F3130232D350405060708090A66
:100100000B0C0D0E0F101112131415161718191AC7
:100110001B1C1D2F3130354C2B0014001A00080019
:10012000150017001C0018000C00120013002A0014
:10013000390004001600070009000A000B000D003A
:100140000E000F0000003400E10038001D001B000D
:100150000600190005001100100036003700E50008
:10016000E000E300E20000002C0000002C002C0066
:100170000000E6000151E40029001E001F002000DD
:100180002100220023002400250026002700005C17
:10019000A900010001000100010001005000510010
:1001A00052004F0000002800AA00010001000100D9
:1001B00001000100010001002D002E0038000100A7
:1001C0000100010001000000010000000100010029
:1001D0000000010001000100010001000100010018
:1001E0000100010001000100010001000100010007
:1001F00001000100010001000100010001000100F7
:1002000001000100000001000100010001000100E7
:1002100001000100010001000100010001000100D6
:1002200001000100010000000100000001000100C8
:1002300000000100010001000100010001000100B7
:1002400001000100010001000100010001000100A6
:100250000100010001000100010001000100010096
:100260000100010000000100010001000100010087
:100270000100010001000100010001000100010076
:100280000100010001000000010000000100010068
:10029000000001000100010005010902A101850221
:1002A0000901A10005091901290815002501950872
:1002B000750181020501093009311581257F9502FB
:1002C0007508810609381581257F95017508810615
:1002D000050C0A38021581257F950175088106C035
:1002E000C005010980A101850319012AB700150184
:1002F00026B700950175108100C0050C0901A10108
:10030000850419012AA002150126A0029501751085
:100310008100C00660FF0961A1010962150026FF86
:10032000009520750881020963150026FF009520BD
:1003300075089102C005010906A101050719E02908
:10034000E715002501950875018102950175088161
:10035000030507190029FF150026FF0095067508FB
:10036000810005081901290595057501910295017E
:1003700075039103C00C0352004F004D0045004F20
:10038000000000200363006F0073006500790066C1
:100390000061006E006E00690074007500740074E6
:1003A00000690000000403090409025B0003010066
:1003B000A0FA090400000103010100092101010064
:1003C0000122400007058103080001090401000221
:1003D0000300000009210101000122220007058419
:1003E00003080001070504030800010904020001D5
:1003F00003000000092101010001227B00070583A1
:10040000030800011201100100000008626B69403E
:1004100001000102000111241FBECFEFD8E0DEBFB2
:10042000CDBF22E0A0E5B1E001C01D92AE3EB20713
:10043000E1F711E0A0E0B1E0EEE9F8E302C00590D9
:100440000D92A035B107D9F70E9496170C942E1C77
:100450000C940000A82FB92F80E090E041E050EA12
:10046000609530E009C02D9182279795879510F00F
:1004700084279527305EC8F36F5FA8F30895EADFFD
:100480008D939D930895CF93CFB7CF93DF93C3956B
:100490004B9BE9F74B9B10C04B9B0EC04B9B0CC07A
:1004A0004B9B0AC04B9B08C04B9B06C0C091C80227
:1004B000C395C093C8028EC06F93C091C702DD2759
:1004C000C453DD4F2F9365E54B9B03C02F916F9174
:1004D000E1CF0F931F934F9320E040E15F9309B169
:1004E0000C7003FB27F93F9350E03BE039C01C70D0
:1004F00040642F77012F5F5F1EC0406819B11C70E8
:100500002F7752501FC0406409B12F770C70D1F182
:100510005F5F00C023C0406219B12F771C7091F15A
:100520005F5F00C025C00C701027515012F45D5F52
:100530000000115027952C3F19B1C8F61C700127F7
:10054000015027952C3FC8F64227499309B10C70FA
:1005500010274F73115027952C3FA8F646954695C6
:1005600019B11C7079F00127015027952C3F98F69E
:100570006B5A60F3315009B1B0F600C012E01CBBF9
:1005800000271CC03B503195C31BD04012E01CBB60
:100590000881033C21F10B3411F12091C50219812E
:1005A000110F1213EDCF4A81441F093679F10D3234
:1005B00011F0013E29F74F7009F0042F0093CB0290
:1005C0003F915F914F911F910F912F916F91CCB3FC
:1005D000C1FD5DCFDF91CF91CFBFCF911895209115
:1005E000CB02222369F31091C902112309F049C0FB
:1005F00034300AF448C03093C9022093C6021091E7
:10060000C7023BE0311B3093C7023DC00091C902D5
:100610000130BCF50AE54F7049F430910D0134FD0D
:1006200033C000930D01C2EAD2E032C0433059F02A
:10063000443091F03091AD0234FD26C00093AD02FC
:10064000CEEAD2E025C03091E20234FD1DC0009315
:10065000E202C3EED2E01CC03091B90234FD14C0F6
:100660000093B902CAEBD2E013C0052710E000C026
:1006700000000BB91AC0052710E0221F1DC010E0B2
:1006800021C04AE502C032ED432FC4E1D0E032E0A0
:100690001AB11C605B9A0BB11AB95CE020E865E303
:1006A00020FF05270BB9279517951C3FF0F6669597
:1006B000B8F7B1F720FF05270BB9279517951C3F11
:1006C000D0F62795179517FF052700001C3F0BB99B
:1006D000B0F629913A9519F7037F1091CA02110FCC
:1006E000C651D0400BB911F01093C50212E01CBBEB
:1006F00008601AB1137F402F437F54E05A95F1F7F9
:100700000BB91AB94BB95CCFFC018381833089F1F5
:1007100030F48130F1F0823021F180E008958132AF
:1007200009F446C08232C9F7248135812130310570
:1007300009F45CC02115310509F450C0223031059F
:1007400061F788E992E090939D0280939C028BE789
:10075000089584E094E090939D0280939C0282E14E
:10076000089589EA93E090939D0280939C028BE523
:10077000089582818130A1F0882351F0823069F69A
:1007800085E793E090939D0280939C028CE008950E
:1007900085EA93E090939D0280939C0284E0089503
:1007A00083E893E090939D0280939C0280E20895F9
:1007B0008281813081F0882331F0823009F0ADCF21
:1007C00084EF93E002C08BEB93E090939D028093C3
:1007D0009C0289E0089584ED93E0F7CF85E393E0F0
:1007E00090939D0280939C0280E4089523E133E07E
:1007F00030939D0220939C02089508958091970262
:10080000089588E198E00FB6F894A8958093600069
:100810000FBE90936000A895F894D8E0CEEF28E33F
:10082000299320E0299314BEFFCF08959C014FB770
:10083000F8948091E0019091E101A091E201B091E2
:10084000E3014FBF821B930B08952FB7F89480915B
:10085000E0019091E101A091E201B091E3012FBF8D
:1008600008952091DC013091DD012817390771F0DE
:100870009093DD018093DC01E091DA01F091DB01DE
:10088000309721F00084F185E02D0994089520919E
:10089000D8013091D9012817390771F09093D90107
:1008A0008093D801E091DA01F091DB01309721F0DB
:1008B0000680F781E02D09940895E091DA01F09126
:1008C000DB01309721F00190F081E02D099480E068
:1008D00008950E9425049C019091D4018091D50136
:1008E000982B21F03093D1012093D0019091D60123
:1008F0008091D701982B21F03093CF012093CE0126
:10090000E091DA01F091DB01309749F082E08093C9
:10091000D2010480F581E02D82ED91E009940895E3
:100920004091D401803F59F48091D50187FF0DC0DB
:100930001092D50141110BC01092CC0108C0813F2B
:1009400081F48091D50118169CF3442381F08091A5
:10095000D6019091D701892B09F05AC01092CB0192
:100960000895823F49F447FFF0CF1092D40180915F
:10097000D5018111ECCFE0CF833F19F41416ACF30D
:10098000E4CF9091D601893F29F41916F4F610921C
:10099000D601DBCF8A3F19F497FFD7CFF8CF9091DC
:1009A000D7018B3F29F497FFD0CF1092D701CDCF3D
:1009B0008C3F19F41916CCF3C8CF9CE0980F9530F2
:1009C00090F4845F990B21E030E0B90102C0660F1A
:1009D000771F8A95E2F7CB0180959091D301892307
:1009E0008093D301B2CF8D3F31F48091CD018E7FC2
:1009F0008093CD01AACF8E3F21F48091CD018D7FD0
:100A0000F7CF8F3F09F0A1CF8091CD018B7FF0CF41
:100A100008958091CD0180FD16C081FD16C082FD34
:100A200016C08091CB018823A1F0883280F428E0A1
:100A3000829FC001112468E270E00E94AA1B862FE9
:100A4000672B39F0089582E0089584E0089588E0E6
:100A5000089581E008958091CD0180FD14C081FD4D
:100A600014C082FD16C08091CC01882381F08E31A4
:100A700080F420E5829FC00111246EE170E00E94A5
:100A8000AA1B862F089584E1089588E2089588E0DE
:100A9000089580E50895803F31F40E942B058195EB
:100AA0008093D5010895813F19F40E942B05F8CF5A
:100AB000823F31F40E942B0581958093D4010895E3
:100AC000833F19F40E942B05F8CF893F29F40E9437
:100AD00009058093D60108958A3F21F40E940905F3
:100AE0008195F7CF8B3F31F40E9409058195809362
:100AF000D70108958C3F19F40E940905F8CF9CE0B6
:100B0000980F953070F4845F990B21E030E001C0BC
:100B1000220F8A95EAF78091D301822B8093D3012B
:100B200008958D3F31F48091CD0181608093CD0196
:100B300008958E3F21F48091CD018260F7CF8F3FE1
:100B4000B9F78091CD018460F1CF80E00895F894E9
:100B5000E82FE295EF70F0E031A1282F2F7081E0AF
:100B600090E001C0880F2A95EAF7982F909593237B
:100B700091A392A1892B82A3789408959091B501B5
:100B800092FF06C0282F28712830F9F4877F8460EF
:100B900093FF06C0282F28712831F1F4877E8461E5
:100BA0002091B60120FF06C0382F38713830D9F4B3
:100BB000877F816021FF06C0282F28712831D1F45A
:100BC000877E816194FD877E0895282F24712430CB
:100BD000F9F68B7F8860DCCF282F2471243101F750
:100BE0008B7E8861DDCF382F3171313019F78E7FE0
:100BF0008860E0CF282F2171213121F78E7E886116
:100C0000E1CFCF93DF93EC0182389105A9F1D8F5BC
:100C10008133910509F496C048F58932910509F4AC
:100C20008AC08A9709F495C0C11521E5D20708F05A
:100C3000BCC0C11530E5D30708F014C1C83ED105CA
:100C400008F09CC0C03ED10560F5C83AD10508F057
:100C500087C0C53AD10508F0FDC0C130D10509F102
:100C60002097F9F0C430D105E0F440C085339105F8
:100C700009F45AC0C997C1F68091B501837089F013
:100C8000C0EED0E00EC0833E910599F170F4803E35
:100C9000910501F1823E910539F68091B50182FD01
:100CA00021C0CE01DF91CF910895863E910561F17B
:100CB000873E910571F1843E910509F0B5CF809191
:100CC000B60181FFEECF8091B501C7EED0E084FD83
:100CD0000DC0E7CF8091B50180FD12C19091B601A2
:100CE00090FFDFCFC3EED0E084FFDBCFD0E0C0E0E9
:100CF000D8CF8091B50182FD06C19091B60190FDDB
:100D0000BFCF84FFCECFF2CF8091B50183FDDDCF81
:100D1000C8CF8091B50183FDF9C09091B60191FFD4
:100D2000F0CFC4EED0E0BDCF8091B50185FFB9CF43
:100D3000C9E2D0E0B6CF8091B50185FFB2CFC5E35F
:100D4000D0E0AFCF8091B50186FFABCFCAE2D0E053
:100D5000A8CF8091B50186FFA4CFC1E3D0E0A1CF99
:100D6000CF3BD10518F6C85AD0E0CC0FDD1FCF5EBF
:100D7000DE4F0990D881C02DD46493CFC11540E2D5
:100D8000D40758F4C11581E0D80708F08ACFC03FD6
:100D9000D10508F4ABCFD06584CFC11590E4D90755
:100DA00008F4A4CFDF70D06A7CCFC11525E5D20747
:100DB00000F5C11534E5D30708F08AC0C11543E535
:100DC000D40708F071C0C11582E5D80708F467C0E0
:100DD000CE018370992721E030E002C0220F331F3B
:100DE0008A95E2F7C695C69580E2C89FE001112476
:100DF00052C0C11599E5D907A8F4C11528E5D20755
:100E000008F06BC0C11536E5D30708F06FCF8C2F03
:100E10000E94BE05C82FD0E0DC2FCC27CC27DF7185
:100E2000D0623FCFC1154AE5D40708F45BC0CE01BC
:100E300090568115904208F059CF8D2F8F710E94E6
:100E4000BE0590E0982F882788279F719C012C2B46
:100E5000E901E6CFC55AD0E0C25FDE4FC881D0E0DD
:100E6000D0641FCFCE01E4E096958795EA95E1F72F
:100E700083702C2F26952695237040E2249F9001A5
:100E80001124382B8C2F8370C1E0D0E002C0CC0F2E
:100E9000DD1F8A95E2F7C22BD32BDC6802CFDC2F53
:100EA000CC27C16FD06AFDCECE018370992721E097
:100EB00030E002C0220F331F8A95E2F7C695C6952F
:100EC00090E2C99FE0011124C22BD32BDA68E9CE4E
:100ED000DC2FCC27C46FD06AE4CEDC2FCC27C06FC8
:100EE000D06ADFCE8C2F8F700E94BE0534E0D6957D
:100EF000C7953A95E1F7CF709C2FEC01D069D1CE20
:100F0000C9E3D0E0CECEC2EED0E0CBCEC6EED0E08C
:100F1000C8CE8091A80181111092A80108958095F2
:100F20009091A70198239093A70108958091A7011C
:100F30009091A601892B809352019091A801992349
:100F400091F0892B8093520120E084E591E0FC012F
:100F50003191CF0131112F5FF1E08A359F07B9F749
:100F600021110E948907E091DA01F091DB013097AD
:100F700031F00280F381E02D82E591E0099408953B
:100F8000E4E5F1E09191891303C0DF0111971C9210
:100F900091E0EA35F907B1F70895A4E5B1E0EFEF84
:100FA00090E02D91821751F0EF3F19F4211101C00B
:100FB000E92F9F5F9630A9F7EF3F09F408950E2EB1
:100FC000000CFF0BEE5AFE4F828308958091A4011E
:100FD00090917301981301C008958F5F8770FACFC5
:100FE0002CE0929F800D1124982F977086958695FE
:100FF000869523E0829FF0011124E55AFE4F50E0D0
:1010000040E080E0219130E0092E02C0369527951E
:101010000A94E2F721703327042E01C0220F0A94AC
:10102000EAF7822B4F5F5F4F4330510559F7089520
:101030002CE0929F800D1124982F977041E001C001
:10104000440F9A95EAF786958695869593E0899F51
:10105000F0011124E55AFE4F90E080E070E05191DC
:10106000DF0111979B01082E02C0369527950A943F
:10107000E2F7217021952527242325272C9301961B
:101080008330910561F7089590E080E00E94470465
:1010900090E080E00E9431041092A6010E94960721
:1010A00086E0E2EDF1E0DF011D928A95E9F710920A
:1010B000CC011092CB011092CD010C946904809365
:1010C000A1020C9444088091A102982F967096304A
:1010D00019F488600C945F08877FFCCF21E030E032
:1010E00001C0220F8A95EAF720958091A102822300
:1010F0000C945F089091A501809589238093A501A8
:10110000282F277091F4282F082E000C330B9217EC
:10111000130659F09091B60192FD07C0859585950B
:1011200085950E946E081092A501089521E030E097
:1011300001C0220F8A95EAF78091A102822B0C94BC
:101140005F088093A9010C944408882321F00E9431
:101150008F070C9496070895882339F09091A70182
:10116000982B9093A7010C9496070895882309F46F
:1011700052C0823871F40E945D0481FF4CC089E343
:101180000E94CD070E94960789E30E94C0070C9435
:101190009607833859F40E945D0480FF3CC083E5C4
:1011A0000E94CD070E94960783E5EFCF843859F45B
:1011B0000E945D0482FF2FC087E40E94CD070E9439
:1011C000960787E4E2CF9CEF980F913AF0F290E215
:1011D000980F983050F4877091E001C0990F8A956C
:1011E000EAF7892F0E948F07D2CF9BE5980F9330A3
:1011F00020F490E080E00C94470498E5980F973134
:1012000020F490E080E00C943104803F20F00E94B4
:1012100090040C94690408958091DF01882321F1E2
:101220001092DE0188E190E020E40FB6F894A895D2
:10123000809360000FBE2093600083B7817F84603D
:1012400083BF83B7816083BF7894889583B78E7F8F
:1012500083BF0FB6F894A895809160008861809351
:101260006000109260000FBE0895CF93DF938091CD
:10127000C902835087FD14C09091C702CCE0D0E032
:10128000C91BD109C453DD4F9091C602903108F0BB
:101290006BC0883009F453C010928C021092C902BE
:1012A00080910D0184FF3EC080910C018F3FD1F1F0
:1012B000C82F893008F0C8E0982F9C1B90930C0130
:1012C0009091A20228E892279093A2028823E9F045
:1012D00080919C0290919D0220919B0226FF06C165
:1012E000FC012C2FA3EAB2E034913D9331962150BA
:1012F000D9F79C012F5F3F4F8FEF8C0F820F932FF9
:10130000911D90939D0280939C026C2F83EA92E042
:101310000E943F02CC5FCC3019F08FEF80930C011C
:10132000C0930D0184E199B19C7031F48150D9F7DB
:101330001092CA021092C502DF91CF910895809158
:101340008C02893108F0A8CFE82FF0E0E459FD4F76
:101350009E01285F3F4F99919193C217D307D9F708
:10136000885F80938C029ACF9D3209F0A3C08830A9
:1013700009F094CF83EC8093A2028AE580930D015B
:1013800010929B028881807609F447C0803229F54B
:101390008981813099F48C819D81892BF1F48EE8CB
:1013A00092E090939D0280939C0288E09F8191112E
:1013B00031C09E81981770F5892F2CC0823041F47E
:1013C0008DE892E090939D0280939C0281E0EECFA5
:1013D0008A3029F48B8180938D0280E0E7CF8930B9
:1013E000E1F78A819B818115924069F48C819D810E
:1013F000892B49F481E080939A028E819F8190939A
:10140000990280939802888187FF52C08E8190E86C
:1014100090939B0280930C0141CF2A811092AB02E2
:10142000998191110AC01092AC022BEA32E082E05D
:1014300030939D0220939C02B9CF953029F42093DC
:10144000CA022BEA32E0F4CF9630C1F49B8191308E
:1014500049F4CE010E94840390E490939B028F3F55
:1014600091F2A4CF9230A9F3933099F3913289F39A
:10147000923279F390E490939B0298CF983089F060
:10148000993019F420939602DCCF9A3071F09B309A
:10149000C1F69BE49093AE029093E3029093BA025C
:1014A000D0CF26E932E081E0C3CF2BEA32E0FBCF98
:1014B0008FEFADCF80919B0287FFF0CE8091980295
:1014C00090919902892B71F080919A02813051F4A8
:1014D000888180939702109299021092980210923C
:1014E0000C01DCCE8EE180930D01D8CEDC012C2FD7
:1014F000E3EAF2E03D9131932150E1F7FACE1F93F8
:10150000CF93DF93E82F792F162FEA01888184FF8C
:101510001CC0298188E828272983CE010296DC0196
:101520002E2F372F512F5E0FF90121912D939F01FF
:10153000452F4E1B1416C4F3612F0E943F021C5FFF
:101540001883DF91CF911F9108958AE58883E5CFB5
:101550002091E20224FF05C042EE52E066E00C94C6
:101560007F0A089590916B02981307C02091690239
:1015700030916A0226173707B9F080936B02709397
:101580006A026093690280936602709368026093B6
:1015900067028091E20284FF07C042EE52E063E0FE
:1015A00086E692E00C947F0A0895BC0184E00C94D6
:1015B000B20ABC0183E00C94B20ACF93DF93CAE075
:1015C000D0E08091AD0284FF1CC0809164029091B4
:1015D0006502981799F028E0829FC00111244DEA16
:1015E00052E068E08C519E4F0E947F0A8091640215
:1015F00090E001968F70992780936402DF91CF91DC
:1016000008950E9435098FE99FE00197F1F700C026
:1016100000002197B1F6F2CFCF93DF93EC01A091B8
:101620006502B0E0CD0101968F7099272091640288
:10163000281779F093E0AA0FBB1F9A95E1F7AC51F8
:10164000BE4F98E0FE0101900D929A95E1F78093CC
:1016500065020E9435090E94DD0A88E0FE01AEE8BD
:10166000B2E001900D928A95E1F7DF91CF91089554
:10167000CF93C82F882309F490C08238C1F40E9408
:101680005D0481FD8AC089E30E94CD070E94960710
:101690002FEF81EE94E0215080409040E1F700C0B0
:1016A000000089E30E94C007CF910C94960783380D
:1016B000A1F40E945D0480FD70C083E50E94CD0707
:1016C0000E9496072FEF81EE94E0215080409040D9
:1016D000E1F700C0000083E5E5CF8438A1F40E9463
:1016E0005D0482FD5AC087E40E94CD070E949607E0
:1016F0002FEF81EE94E0215080409040E1F700C050
:10170000000087E4CFCF8CEF8C0F813A68F4E4E5DA
:10171000F1E08191C817D9F121E0EA35F207C9F764
:101720008C2F0E94CD07C0CF80E28C0F883068F4E8
:10173000C77021E030E001C0220FCA95EAF780911E
:10174000A701822B8093A701AFCFEBE5EC0FE3302D
:1017500040F4F0E0E25FFE4F808190E0CF910C9486
:101760004704E8E5EC0FE73150F4F0E0EE0FFF1F1F
:10177000EF5EFE4F80819181CF910C943104C03F88
:1017800060F08C2F0E944B05CF910C9469048C2F34
:101790000E94C0070E949607C3CFCF9108951F9360
:1017A000CF93DF93182FD0E0C0E0893311F4C0E568
:1017B000D0E0812F0E94380B209731F4812FDF91E8
:1017C000CF911F910C94B6088FE99FE00197F1F734
:1017D00000C000002197F0CF0F931F93CF93DF93AA
:1017E000C62FD42F022FFC0182818823A1F06093A1
:1017F000A0020E94250490939F0280939E02C770CE
:1018000081E001C0880FCA95EAF7DF91CF911F915F
:101810000F910C94AC088091A002681335C08091A0
:101820009E0290919F020E941604883C910560F5EB
:1018300010E21D0FCD17B9F080E28C0F883040F414
:10184000C77081E001C0880FCA95EAF70E94A50819
:10185000183048F481E09D2F977001C0880F9A9549
:10186000EAF70E94AC08802F0E94CF0B183098F442
:10187000D77081E001C0880FDA95EAF7DF91CF9148
:101880001F910F910C94A508C77081E001C0880FCB
:10189000CA95EAF7F3CFDF91CF911F910F91089589
:1018A000CF93DF93C7EAD1E060E0CE010E94FA1B3C
:1018B0002196C11584E0D807B9F7DF91CF9108953B
:1018C0006F927F928F929F92AF92BF92CF92DF9250
:1018D000EF92FF920F931F93CF93DF9388E1C82E6F
:1018E00081E0D82E9FE9E92EF12CE701C056D109FD
:1018F00036011BC0F50185909490692DC8010E94A6
:10190000FA1B682DC80101960E94FA1B82E0A80EFE
:10191000B11C0E5F1F4FC017D10761F788E1680E39
:10192000711C6896CE15DF0529F08E01085111094A
:101930005301E0CF7E0180E6E80EF11C80E6C80E80
:10194000D11C8FE1E81682E0F80679F6DF91CF919D
:101950001F910F91FF90EF90DF90CF90BF90AF90CD
:101960009F908F907F906F900895CF93C82F6FEFC7
:10197000811162E283E290E00E94FA1B6FEFC111D5
:1019800064E084E290E00E94FA1B6FEFC11165E20F
:1019900085E290E0CF910C94FA1B80E00E94B50C98
:1019A00060E086E290E00E94FA1B0E94600C0E94B8
:1019B000500C81E00C94B50CCF93C091B601C2FBE2
:1019C000992790F9981799F080FBC2F9C093B60156
:1019D0006091B50184E090E00E94FA1B6C2F82E2D6
:1019E00090E00E94FA1B82E0CF910C947A08CF918C
:1019F00008950F931F93CF93DF93C42FD0E0CC0FA4
:101A0000DD1F28E1629FC00DD11D112430E6839FA8
:101A1000C00DD11D1124CE0187960E94EC1B082F0A
:101A200010E0102F0027CE0188960E94EC1B980131
:101A3000282BC901DF91CF911F910F910895462F57
:101A4000843038F4743028F46C3018F4672F0C9418
:101A5000F90C90E080E00895CF92DF92FF920F930F
:101A60001F93CF93DF936C010091A1028091A90194
:101A7000082BC7E0D0E010E0FC2EC8010C2E02C0FD
:101A8000959587950A94E2F780FD0CC02197A0F701
:101A9000F12C8F2DDF91CF911F910F91FF90DF904F
:101AA000CF900895B6018C2F0E941F0D0E94010651
:101AB000019761F3EECFCF93DF93EC010E942C0DE1
:101AC000BE010E941F0DDF91CF910C940106FC0115
:101AD000808191810E945B0D92959F70963091F06C
:101AE00058F4925F9F70923058F4803F19F030F4B0
:101AF000883E30F481E008959A5FF4CF843FD1F3BB
:101B000080E00895883EB0F3813FD1F7F3CF83E2C0
:101B100090E00E94EC1B823289F484E290E00E9403
:101B2000EC1B843059F485E290E00E94EC1B91E0BC
:101B3000853209F090E0892F8170089580E0FCCF14
:101B4000CF9384E090E00E94EC1BC82F82E290E0EB
:101B50000E94EC1B982F8C2FCF9108951092A70113
:101B6000E4E5F1E086E0DF011D928A95E9F70C9447
:101B700044088F929F92AF92BF92CF92DF92EF92E2
:101B8000FF920F931F93CF93DF93CDB7DEB72897C4
:101B90000FB6F894DEBF0FBECDBF8E010F5F1F4F93
:101BA00088E0F80111928A95E9F79FE3E92E91E028
:101BB000F92E6801AA24A394B12CF70181917F0129
:101BC0008F3F09F446C0F894E82FE295EF70F0E0FB
:101BD00021A18F70A50102C0440F551F8A95E2F71D
:101BE000CA01922F982B91A392A18095892382A359
:101BF000789400C0E3E4F1E021E030E0912C812C06
:101C000041914F3F09F479C0A42FA295AF70B0E085
:101C100090968C9190E04F7002C0959587954A956B
:101C2000E2F780FD6AC0C901882A992A220F331F72
:101C300051E0EF34F50721F7F701319780818F3FAD
:101C400011F00E94A70580EA8A95F1F7F6019182CA
:101C50008082F2E0CF0ED11C43E4E41641E0F406AA
:101C600009F0ABCF48E050E0B8018DEA91E00E9466
:101C7000DF1BFF24F394009709F4F12C892B09F45E
:101C80003FC088E0F801ADEAB1E001900D928A957D
:101C9000E1F781E08093AC010E9425049093AB01B1
:101CA0008093AA018091AA019091AB010E94160431
:101CB000059750F18091AD019091AE019093C201D2
:101CC0008093C1018091AF019091B0019093C401C4
:101CD0008093C3018091B1019091B2019093C601AC
:101CE0008093C5018091B3019091B4019093C80194
:101CF0008093C7011092AC0107C090E080E094CFC0
:101D00008091AC018111CECF8F2D28960FB6F8941B
:101D1000DEBF0FBECDBFDF91CF911F910F91FF901E
:101D2000EF90DF90CF90BF90AF909F908F900895ED
:101D300069EE7EEF90E080E00E94181C60E082E097
:101D400090E00E94FA1B60E083E090E00E94FA1BA2
:101D50001092A90160E084E090E00E94FA1B60E02C
:101D600082E290E00E94FA1B60E085E090E00E9431
:101D7000FA1B60E086E090E00E94FA1B6FEF87E0BC
:101D800090E00E94FA1B40E050E0BA0188E090E049
:101D90000E940C1C60E08DE090E00E94FA1B40E085
:101DA00050E0BA0188E190E00E940C1C60E087E1FD
:101DB00090E00E94FA1B40E050E0BA018CE190E014
:101DC0000E940C1C70E060E080E290E00E94181C11
:101DD00040E050E0BA0188E190E00E940C1C80E0F5
:101DE0000E94B50C0E94CD0C40E050E0BA018FE09B
:101DF00090E00E940C1C40E050E0BA0183E190E0CA
:101E00000C940C1C3F924F925F926F927F928F9234
:101E10009F92AF92BF92CF92DF92EF92FF920F9379
:101E20001F93CF93DF9300D000D00F92CDB7DEB7D2
:101E30008C01FC0183819481892B31F08081918117
:101E400089238F3F09F03BC50F900F900F900F90A3
:101E50000F90DF91CF911F910F91FF90EF90DF9046
:101E6000CF90BF90AF909F908F907F906F905F903A
:101E70004F903F9008950E942C0DF82E682F898175
:101E80009A810E94180869817A818F2D0E941F0D06
:101E90007C01F8018281882309F4D7C4970122517B
:101EA0003F452031310508F0FDC48FEF93E00E94DB
:101EB000EC1BFEEEEF0E57EA852E992493948823AF
:101EC000A1F18091A501877009F4BECFF80182814C
:101ED000882309F4B9CF8091B60182FDB5CF82E0A5
:101EE0000F900F900F900F900F90DF91CF911F9157
:101EF0000F91FF90EF90DF90CF90BF90AF909F90A9
:101F00008F907F906F905F904F903F900C947A08E5
:101F1000811424E09206A9F2C4010E94EC1B8111F5
:101F200001C0EA943FEF831A930AE110F1CF1C82BB
:101F30001B82442443944AE0342E74018FEFE81A44
:101F4000F80AC4010E94EC1B89831A82882309F4D1
:101F5000B8CF9FEF980F933000F58A83498292E0C3
:101F6000890E911CC7010E94EC1B8B83882309F406
:101F7000A8CFFE0131967F01F70120812223E9F2EB
:101F8000213009F049C091818281913041F4F2E021
:101F9000EF0EF11C0E94CF0B09C04701EACF92302F
:101FA00049F422E0E20EF11C0E94380B3FEFE31AE5
:101FB000F30AE2CF933031F432E0E30EF11C0E94D9
:101FC000B608F4CF943021F08FEFE81AF80AEECF7C
:101FD00092E0E90EF11C30E020E0B7016F5F7F4F27
:101FE000F70141818053990B8A30910550F02150BF
:101FF0003109E0F28FE99FE00197F1F700C000009E
:10200000F6CF329EF001339EF00D11249C012E0F6D
:102010003F1F842F7B01E1CFE22FF0E0E856FF4F16
:102020005490822F86958695869590E0FC01E8571E
:10203000FF4F64902770712C022E02C07594679434
:102040000A94E2F7E1E06E227724FC01E858FF4FA2
:10205000A490B12C022E02C0B594A7940A94E2F782
:10206000F1E0AF22BB24FC01E859FF4FC490D12C12
:1020700002C0D594C7942A95E2F721E0C222DD245C
:102080006114710419F081EE0E94380BA114B1049F
:1020900019F086EE0E94380B852D0E94CF0BAB28DD
:1020A00019F086EE0E94B608672819F081EE0E94AA
:1020B000B608CD2809F47ACF8CE26CCF81E00E947B
:1020C00096080E946308FDCE81E00E946E08F9CF59
:1020D00082E0FBCF95EFE9169CE5F90609F46CC0A8
:1020E00008F466C027E245EE66EEF6EFEF16FCE573
:1020F000FF0609F4D3C3882309F4F2C31092A002A7
:1021000023E0E2162DE5F20608F05DC03AEFE31693
:102110003CE5F30630F4C70182509C45449708F033
:102120005EC00E94A00D9093B6018093B501E1E1DD
:10213000EE16ECE5FE0609F436C108F0A4C029E06D
:10214000E2162CE5F20609F41CC108F06DC085E02A
:10215000E8168CE5F80609F408C108F056C0E3E07B
:10216000EE16ECE5FE0609F4F6C008F0FAC0809120
:10217000B501816022E0E2162CE5F20609F4EEC01A
:102180006091B501F090B60184E090E00E94FA1BE6
:102190006F2D82E290E00E94FA1B0E94AE0D91CE5C
:1021A00027E245EE65EE7AC326E241EE60EE76C3A5
:1021B00027E245EE64EE72C326E241EE62EE6EC3A4
:1021C00028E241E0EFCF81E6E8168DE5F80609F454
:1021D000A8CF95EAE9169DE5F90609F4A2CF36E104
:1021E000E3163CE5F30609F088C38091A7018A7ADB
:1021F00091E009F490E090935A01811102C189E2C3
:102200000E94CD070E9496075CCE8091B501806246
:1022100037E0E3163CE5F30609F4A0C008F4ADC0CE
:102220008091B50180649AC08091B5018B7F9DE05B
:10223000E9169CE5F90609F491C0B0F48091B50166
:102240008E7FFBE0EF16FCE5FF0609F487C0809166
:10225000B5018C602CE0E2162CE5F20608F47EC095
:102260008091B5018D7F7AC08091B5018F7E3FE06E
:10227000E3163CE5F30609F471C008F488C08091C8
:10228000B5018F7D6BC09DEFE9169CE5F90609F459
:1022900086C078F5F5E1EF16FCE5FF0609F491C07C
:1022A000A0F48091B501837F33E1E3163CE5F306AA
:1022B00009F454C008F47BC00E94AE0D9091B501A2
:1022C000892F97FB87F9805849C09BEFE9169CE559
:1022D000F90609F44EC008F05EC08091B601816035
:1022E000FAEFEF16FCE5FF0609F04ACF8093B6013E
:1022F00047CF21E0E2162DE5F20609F46EC0B8F4EE
:102300008FEFE8168CE5F80609F457C08091B60106
:102310008360E1149DE5F90648F38091B601982F9A
:10232000909591708E7F892B90FB81F9DFCFE1E64C
:10233000EE16EDE5FE0609F456C0F5EAEF16FDE5EA
:10234000FF0609F457C022E0E2162DE5F20609F077
:1023500017CF60E043C08091B50182608093B501E2
:102360000FCF8091B5018460F9CF8091B50188606D
:10237000F5CF8091B6018260B9CF8091B5018061BF
:10238000EDCF0E94AE0D8091B5018068E7CF8091BE
:10239000B501877FE3CF8091B6018E7FA7CF809173
:1023A000B6018D7FA3CF8091B5018F7BD7CF0E94DF
:1023B000AE0D8091B5018F77D1CF8091B6018C7F22
:1023C00095CF8091B50182FB992790F921E0922762
:1023D00090FB82F990FB83F9C1CF61E08EE090E041
:1023E0000E94FA1BCDCE9091B501892F8F7E94FF6C
:1023F0008061B4CF9091B501892F8E7F90FF81606D
:10240000ADCF85E3FDCE85E375C20E94AE0D8FEFA3
:1024100094E3ECE081509040E040E1F700C0000020
:102420000E9401044ECD81E08EC280E08CC2C701C3
:102430000E94F007D82E98C22F2D2F70C22E8F2DFC
:10244000807F19F0C29490EFC922DD20B9F0CC2032
:1024500069F080E28E0D883010F0811009C0809103
:10246000A701C82AC092A7010E9496078E2D4DC0D1
:102470008091A601C82AC092A601F6CF8E2D0E9497
:10248000B608CC2009F443C080E28E0D883010F0ED
:10249000811004C08C2D0E948F0706C0C0948091CB
:1024A000A601C822C092A6010E94960730C03F2D07
:1024B0003F70C32E8F2D807F803219F0C29480EF41
:1024C000C822882089F081E0881609F47FC0DD20C9
:1024D00009F489C0BB2009F47FC0F801858180FF21
:1024E000C5CF8F70858378C02091B60122FF4BC085
:1024F000DD2009F442C0CC2039F08091A701C82A20
:10250000C092A7010E94960780E00E94380B292DF7
:102510002850330B2430310510F40E945D04AA20AA
:1025200009F492CC8091A50180FD8ECCF801128235
:102530008595859585950E949608C8010E94020F91
:102540008091A5018595859585950F900F900F90A9
:102550000F900F90DF91CF911F910F91FF90EF900F
:10256000DF90CF90BF90AF909F908F907F906F90B3
:102570005F904F903F900C946E0880E00E94B608E8
:10258000CC2029F287CFDD20A1F09091A8018C2DDD
:10259000892BB11003C00E94AC08B9CFE1E0BE1294
:1025A000FACF22FDB4CF981709F4B1CF8093A801D8
:1025B000AECFB11006C00E9489078C2D0E94A508DD
:1025C000A6CFF1E0BF1609F4A2CFF5CFDD2031F0A0
:1025D00025E02B1508F49BCF8C2DDDCF34E03B1587
:1025E00008F495CFEACFBB2041F3F9E38F1209C07D
:1025F0002FEF37EE83E0215030408040E1F700C0FC
:1026000000008E2D0E94B60882CF8F2D869586956C
:10261000837061F0813009F07ACFC7019370D110D7
:1026200002C090E080E00E94310471CFC701937036
:10263000D11002C090E080E00E94470468CF8E2D48
:10264000DD2029F00E944B050E94690460CF0E94A2
:102650009004FACF8F2D837091F5D11058CF4E2D65
:10266000429546954770440F440F8E2D8F70042E6F
:1026700001C0880F0A94EAF72E2D2071E4FE07C0EE
:102680002FE030E001C0220F4A95EAF720953F2D58
:10269000369536953370323069F050F44091A90187
:1026A000313029F0822B84230E94A10830CF842B63
:1026B000822BFACF282B8091A9018227F5CF86950E
:1026C000DD2011F08F2D8170882309F420CF4E2D4D
:1026D000429546954770440F440F8E2D8F70042EFF
:1026E00001C0880F0A94EAF72E2D2071E4FE07C07E
:1026F0002FE030E001C0220F4A95EAF720953F2DE8
:10270000369536953370323069F050F44091A1021D
:10271000313029F0822B84230E945F08F8CE842B6D
:10272000822BFACF282B8091A1028227F5CF9F2DF3
:102730009F70F92EDD2029F0892F0E9496088E2D9A
:102740002ACF8E2D0E94A5088F2D0E946E08DFCE05
:102750008E2DE2EF8E16B1F1E81570F0F0EF8F16C6
:10276000D1F021EF821691F0DD2009F45EC0B110A6
:102770007DCE8F2D8F712AC033EF831651F194EFE8
:102780008912F2CF8091B60182FF2FC08F2D8F71F9
:10279000DD20D9F21BC0DD2081F0E4E0EB1508F468
:1027A000B6CE2F2D2F7181E090E001C0880F2A95C1
:1027B000EAF79091A1028927AFCFF5E0FB1508F465
:1027C000A6CEEFCF8F2D8F71D110BFCF0E9496086C
:1027D0009ECE80E0DD2009F49FCF9F2D9F7181E088
:1027E00001C0880F9A95EAF797CFDD2099F02F2D39
:1027F0002F71F22E822F0E9496088091B60182FDE1
:1028000007C038E0F39EC001112483608093A501C6
:102810008F2DDCCF81E00E947A0881E08B1508F0D3
:1028200076CE82E00E947A0872CEBB2059F08933BE
:1028300009F0E7CE9FEFE7EEF3E09150E040F04083
:10284000E1F7DDCE8F2D8F7180CFF0E1EF16FFE540
:10285000FF0609F439CC21E1E2162FE5F20609F46E
:1028600037CC93EFE9169CE5F90609F49DCC08F006
:1028700031CCF8EDEF16FCE5FF0609F491CC29ED1B
:10288000E2162CE5F20609F49BCC37EDE3163CE5A5
:10289000F30609F030CC26E241EE61EEC8010E9459
:1028A000EC0B0FCB30E1E3163FE5F30609F406CC61
:1028B00091E1E9169FE5F906A1F682E000CC85E0FA
:1028C000DE01119601900D928A95E1F7F8012281BF
:1028D00089819A812111CFCA0E94F007F82ED3CAAC
:1028E000F6E1EF16FCE5FF0681F580915A018111B2
:1028F0008ACD89E20E94C00785CC2AE5E2162DE543
:10290000F20609F490CD68F4E1148CE5F80609F4B8
:102910007CCD9EEDE9169CE5F906B9F40E94980E6F
:10292000D0CAEBE5EE16EDE5FE0609F47ECDFCE53A
:10293000EF16FDE5FF0649F48091B60182FB88277A
:1029400080F991E089270E94DC0CF8018281E08007
:10295000F180882309F46BCDC7010E942C0DD82E7D
:10296000682FC7010E941808B7018D2D0E941F0D06
:102970000E9401067C01882EF801D280B580B294B5
:102980003FE0B3228091A5018770C1F0AD2CDD201E
:10299000B1F08F2D807F803421F080E28E0D883061
:1029A00068F08091B60182FD09C082E00E947A0839
:1029B0008091A5018770AA24A3948111A12C9F2C3A
:1029C00092942FE09222FBE0F91508F4A0CDE92DB6
:1029D000F0E0E05DF34E0C94BE1B1F93CF93DF93AA
:1029E00080917201807FA9F480916F01882389F022
:1029F0008091A401D091730160916D0170916E017D
:102A0000A0917001B0917101C62FC72316E0D813B1
:102A100004C0DF91CF911F91089590E0109711F0BD
:102A2000CF3F19F401968770F2CF189F9001199F3C
:102A3000300D1124F901EC58FE4F41814713F2CFBC
:102A400040814613EFCF42814111ECCF4381548145
:102A50004A1B5B0B483C510528F7809172018F702F
:102A6000806180937201F901E758FE4F80818F7079
:102A7000806180838DE691E00E94020FDF91CF910B
:102A80001F910C94E607AF92BF92CF92DF92EF9224
:102A9000FF920F931F93CF93DF93CDB7DEB761976C
:102AA0000FB6F894DEBF0FBECDBF8C0185E0F801F4
:102AB000DE011D9601900D928A95E1F7F801E28002
:102AC0008DE6A82E81E0B82E6091700170917101A1
:102AD0006115710509F432C190916D0140916E014B
:102AE000892F84238F3F09F429C120813181C3803C
:102AF000D480F0906F01F601E61BF70BFF2009F47C
:102B0000E8C080917201582F507FE83CF10508F031
:102B1000ABC0511177C0FE2C431321C092131FC0CC
:102B2000E1101DC08F70806180937201C5010E9409
:102B3000020F80917201F80185838F2D61960FB687
:102B4000F894DEBF0FBECDBFDF91CF911F910F91E3
:102B5000FF90EF90DF90CF90BF90AF900895CD2879
:102B600029F0822F83238F3F09F003C180E0F82FE3
:102B7000F170DF2E80FF3CC08091A4014091730171
:102B800056E0841315C02D873E878D859E850E9453
:102B90005B0D292F22952F702230F0F0243018F58C
:102BA0009F70F1F0F8019581907FD1F4D12C1EC077
:102BB00090E0589FF001599FF00D1124EC58FE4F02
:102BC0006181361306C06081261303C06281E6125C
:102BD0000FC001968770D5CF9F7011F0882331F315
:102BE000805E883018F3C8010E94020FFD2CA5CF2B
:102BF000EE2009F4A2CF809172018160809372016E
:102C0000F12C9BCF431306C0921304C0F801EE20B1
:102C100009F479C0C8010E94670D882309F1EE20EC
:102C2000F9F080917201803270F020916D01309145
:102C30006E0138872F831986DB86CA868C87CE0182
:102C400007960E94020F86E0F801ADE6B1E0019020
:102C50000D928A95E1F70E94ED14FF24F3946DCF55
:102C6000C8010E94020FF9CF51110AC08DE691E010
:102C70000E94020F86E0F50111928A95E9F7C0CF14
:102C800043130FC092130DC0E1100BC0F8018583F0
:102C9000C8010E94020F86E0F50111928A95E9F7BA
:102CA0004CCFC8010E94670D8823D1F2EE20C1F2FB
:102CB00080917201803238F220916D0130916E0165
:102CC0003A8329831B82DD82CC828E83CE010196DA
:102CD000B8CFE83CF105F8F6FE2CEE2009F24313DC
:102CE0001FC092131DC08091720180FD10C0982FEB
:102CF000907F69F0F8018583903F31F0982F907FA5
:102D0000905F8F70892B8583C8010E94020F86E037
:102D1000F801ADE6B1E001900D928A95E1F70DCF93
:102D2000C8010E94670D81118ECF80917201816070
:102D300080937201C8010E94020FFFCEEE2009F4B9
:102D40008FCFC8010E94670DF82E882309F488CF21
:102D500086E0F801ADE6B1E001900D928A95E1F7C9
:102D600080916D0190916E010E945B0D0E94ED14A7
:102D7000E4CE81E08E25FBCE1F93CF93DF93CDB7BA
:102D8000DEB767970FB6F894DEBF0FBECDBF4B8B93
:102D90005C8B6D8B7E8B8F8B61111092A6011A8AD2
:102DA000198A85E0FE017396DE011D9601900D9251
:102DB0008A95E1F786E0FE013D96DE0117960190C7
:102DC0000D928A95E1F7CE0107960E944315811175
:102DD00012C086E0FE013796DE01119601900D9239
:102DE0008A95E1F78A859B85892B29F088859F81C3
:102DF00089238F3FB1F516E08091A4019091730172
:102E000089131DC067960FB6F894DEBF0FBECDBF05
:102E1000DF91CF911F91089596E0929FD001939FEB
:102E2000B00D1124AC58BE4FFE01319601900D92A9
:102E30009A95E1F7809373010E94E607DCCF819FAA
:102E4000C00111248C589E4F0E9443158823D1F253
:102E50008091A40190E00196877099278093A40146
:102E6000CBCF2091730130E0C9010196877099277B
:102E70004091A4014817190679F60E94AE0D1092F0
:102E800073011092A40186E0EDE6F1E0DF011D92EE
:102E90008A95E9F7B0CF78941F921FB61F9211243C
:102EA0008F939F93AF93BF938091E0019091E10145
:102EB000A091E201B091E3010196A11DB11D8093A3
:102EC000E0019093E101A093E201B093E301BF918F
:102ED000AF919F918F911F901FBE1F9018951F92C9
:102EE0001FB61F9211248F939F93AF93BF9380912E
:102EF000DE01811113C08091E0019091E101A09168
:102F0000E201B091E3014196A11DB11D8093E00162
:102F10009093E101A093E201B093E301BF91AF91DF
:102F20009F918F911F901FBE1F901895CDB7DEB750
:102F300060970FB6F894DEBF0FBECDBF0E94250488
:102F40009093CA018093C90180E890E00FB6F8948D
:102F500080936100909361000FBE85EA95E09093A5
:102F600051018093500180916900886080936900CD
:102F7000E99A8BE48093AE028093E3028093BA02D5
:102F80008AE58093AD028093E2028093B902539A5E
:102F900080E0815009F0BAC05398789482E084BDF3
:102FA00093E095BD9AEF97BD80936E000E94870DC8
:102FB000811102C00E94CD0C81E30E94A70584E329
:102FC0000E94A70583E30E94A70582E30E94A7054C
:102FD00003E411E0F80181918F018F3F11F00E940D
:102FE000A705F1E00F341F07A9F788E0E1ECF1E055
:102FF000DF01282F1D922A95E9F7EDEAF1E0DF01C4
:103000001D928A95E9F790E080E00E94F41B893ECA
:103010009E4F21F40E94870D811102C00E94980EDC
:1030200082E090E00E94EC1B8093B7010E94A00D0B
:103030009093B6018093B5010E94B90DEFE3FCE9CE
:103040003197F1F700C000000E94B90D8091C101D5
:1030500080FF08C06FEF7FEF90E080E00E94181CB7
:103060000E94010483E090E00E94EC1B0E94A108F2
:1030700080E091E09093DB018093DA01FFEF20E79D
:1030800032E0F15020403040E1F700C00000EE2473
:10309000EA9459E5252E60E1362E70E6472EE8E1E8
:1030A0005E2EF9E06F2EFF24F394A9EC8A2EA1E0A6
:1030B0009A2EBCE07B2E8091C8021091DF018823FC
:1030C00069F11092C8020E9425049093CA0180936E
:1030D000C901112309F4FCC11092DF010E94AE0D59
:1030E0000E945D048091DF01882309F4F1C10E94F0
:1030F0000C090E94B90DE1ECF1E081919191892BCD
:1031000009F0B6C18E169F06C1F7D5CFA895AFE9D5
:10311000BFE01197F1F700C000003BCF1111E7CFDE
:103120008091C9019091CA010E941604069708F483
:10313000CFC1F092DF010E940C09D9CF6F5FCC0C98
:10314000DD1C6C3009F0F3C10F5F1F4F0430110517
:1031500009F0DEC1EC86ED861E860E9425048160A2
:10316000782F988B8F874C855D856E8588890E9426
:10317000BC1604C2F092D4015DC2F092D50163C2C4
:10318000F092D601A3C2F092D701A9C210926D02AB
:1031900060926E020CE612E04AC180916D028230AC
:1031A00009F47FC18330C9F0813009F056C02FB7D0
:1031B000F8946091E0017091E1018091E2019091B9
:1031C000E3012FBF0E94C41B60936E0270936F02D5
:1031D0008093700290937102DDCF8091C101909134
:1031E000C20198278927982790936F0280936E02D7
:1031F0008091C3019091C4019827892798279093C3
:103200007102809370028091C5019091C601982748
:103210008927982790937302809372028091C70147
:103220009091C801982789279827909375028093D9
:103230007402B0CF80916D02823079F460916E0299
:1032400070916F0280917002909171020E94C41B74
:1032500086E290E00E94FA1B9DCFE0926C029ACF2A
:1032600040916F0260916E0280916D020E94F90C94
:1032700098278927982790937102809370028ACFAC
:103280000091700210917102102701271027809180
:103290006D02C0906E02C59C60011124849DC00C1B
:1032A000D11C112480916F0290E0880F991FC80EE5
:1032B000D91E612FC60187960E94FA1B602FC60196
:1032C0008896C8CF0E94600C65CF30926D0262CFA5
:1032D00082E080936D0220926E025CCF00916D02BD
:1032E00010916E021027012710273CE6C32E32E012
:1032F000D32EA0906F02B12CD501A459BD4F5D0112
:10330000C80189559E4FAC14BD0409F443CF09355B
:10331000B2E01B0750F40E94EC1BF60184830F5FA0
:103320001F4FBFEFCB1ADB0AEBCFD60114961C92CE
:10333000F6CF00916D0210916E0210270127102721
:103340002CE6A22E22E0B22EC0906F02C00ED12E2B
:10335000D11CC80189559E4FC016D10609F41ACF59
:103360000935E2E01E0728F4D50114966C910E94FD
:10337000FA1BBFEFAB1ABB0A0F5F1F4FEACF0E94C9
:10338000500C08CFE4E0E0936D0204CF00916D0291
:1033900010916E021027012710279CE6C92E92E09B
:1033A000D92EA0906F02B12C950124593D4F59019F
:1033B000C8018796AC14BD0409F4ECCE003831E0A6
:1033C000130758F40E94EC1BD60114968C930F5FE0
:1033D0001F4FFFEFCF1ADF0AEBCFF6011482F7CFB2
:1033E00000916D0210916E021027012710278CE6C4
:1033F000A82E82E0B82EC0906F02C00ED12ED11C34
:10340000C80187960C151D0509F4C4CE003821E0CB
:10341000120728F4D50114966C910E94FA1BBFEF95
:10342000AB1ABB0A0F5F1F4FEBCF0E94350980918B
:10343000B90284FFFACF49EB52E068E0C8010E946C
:103440007F0A085F1F4FE2E00C381E0781F780916A
:10345000B90284FF0AC049EB52E060E090E080E0EE
:103460000E947F0A10928C0226CE0E943509EFCF6F
:10347000F8949AB15B9A892F8C608AB98BB18725B1
:103480008BB9FFE728E331E0F15020403040E1F70D
:1034900000C000008BB187258BB99AB95B987894EE
:1034A0000ACE86E290E00E94EC1B10926E0210920F
:1034B0006F0210927002809371026CCE2B30310536
:1034C00008F0D6C00CC12B30310508F085C0BBC058
:1034D0000E94350980919602882309F41EC18091CB
:1034E000AD0284FF1AC10E94B90D882359F08FB72D
:1034F000F8944091E0015091E1016091E2017091F6
:10350000E3018FBFA1ECB1E0E8EBF1E010E000E0F7
:10351000702F8D919D91219131912817390709F4D0
:1035200013CE60E0CC24C394D12C28273927A901DD
:103530004C215D21452B09F401CE6F8378879C01D6
:103540002C213D2191E0232B09F490E099870E94E2
:1035500025048160782F9B878A874F8158856985EC
:103560008B850E94BC16000F111FF801E854FE4F16
:1035700080819181C826D926D182C08286E0E2ED81
:10358000F1E0DE01119601900D928A95E1F7D0905D
:10359000D401C090D5011091D6010091D7011092AD
:1035A000D4011092D5011092D6011092D7018D2D21
:1035B0008C2909F448C08091D0019091D1010E94DA
:1035C00016049C019091CC01992309F47CCF2531FC
:1035D0003105C8F19F3F19F09F5F9093CC01DD202A
:1035E00059F00E942B059FEF1D140CF491E0899F68
:1035F000802D11248093D401CC2059F00E942B05FA
:103600009FEF1C140CF491E0899F802D112480936E
:10361000D5013091D4013323B1F02091D50122237B
:1036200091F045EB3403C0011124992309F4A2CD94
:103630009093D40145EB240390011124332309F422
:103640009CCD3093D501812F802B09F448C0809107
:10365000CE019091CF010E9416049C019091CB0164
:10366000992309F42BCF21353105C8F19F3F19F07B
:103670009F5F9093CB01112359F00E9409059FEFA2
:1036800011160CF491E0899F802D11248093D601AE
:10369000002359F00E9409059FEF10160CF491E0E9
:1036A000899F802D11248093D7013091D601332337
:1036B000B1F02091D701222391F045EB3403C001F2
:1036C0001124992309F45CCD9093D60145EB240392
:1036D00090011124332309F456CD3093D701809102
:1036E000D4019091D501892B9091D601892B90918D
:1036F000D701892B11F00E94690486E0FE01319602
:10370000A2EDB1E001900D928A95E1F70E945D046F
:103710009091C00189138093C0010E94DD0A0E942C
:10372000350980919602882309F4C5CC8091B902AD
:1037300084FFC1CC80918C02803209F0BCCCE09136
:103740006C02E150E33108F088CDF0E0E45CF34E28
:103750000C94BE1B97FB072E16F4009407D077FD40
:1037600009D00E94CB1B07FC05D03EF490958195B3
:103770009F4F0895709561957F4F0895EE0FFF1F3D
:103780000590F491E02D09946927962769277827F9
:10379000872778270895AA1BBB1B51E107C0AA1FE2
:1037A000BB1FA617B70710F0A61BB70B881F991FE2
:1037B0005A95A9F780959095BC01CD010895FB011C
:1037C000DC0104C08D910190801921F441505040DA
:1037D000C8F7881B990B0895F999FECF92BD81BD5A
:1037E000F89A992780B50895A8E1B0E042E050E04A
:1037F0000C94201C262FF999FECF92BD81BDF89A1A
:10380000019700B4021639F01FBA20BD0FB6F89424
:10381000FA9AF99A0FBE08950396272F0E94FB1B70
:103820000E94FA1B252F0E94FB1B242F0C94FB1BCC
:103830000196272F0E94FB1B0C94FA1BDC01CB0185
:10384000FC01F999FECF06C0F2BDE1BDF89A3196B0
:1038500000B40D9241505040B8F70895F894FFCF4E
:103860001C121C125712571205131F1387128712AE
:103870002A139713A813A813C618CD181A193019AC
:10388000401962192D192D192D192D192D19651988
:0E38900068196E199919BF19C219C619F019D5
:10389E00FE030C0BA80AD90AD50AFD03FF5A818232
:1038AE0083E200E900EA00B500B600B700CD008360
:1038BE0001CC008A019201940121022302240225E7
:1038CE0002260227022A02B300B4006F00700031F4
:1038DE0034333265646390629161609430979600E0
:00000001FF
