:100000000C94A7030C94DF030C94DF030C94DF0320
:100010000C94DF030C94DF030C94DF030C94DF03D8
:100020000C94DF030C94DF030C94422B0C94162CDD
:100030000C9475250C94DF030C94DF030C94DF0300
:100040000C94DF030C94DF030C94DF030C94DF03A8
:100050000C94DF030C94FC250C94DF030C94DF0359
:100060000C94DF030C94DF030C94DF030C94DF0388
:100070000C94DF030C94DF030C94DF030C94DF0378
:100080000C94DF030C94DF030C94DF030C94DF0368
:100090000C94DF030C94DF030C94DF030C94DF0358
:1000A0000C94DF030C94DF030C94DF0329001E0083
:1000B0001F0020002100220023002400250026002C
:1000C00027002D002E002A0000002B0014001A002B
:1000D0000800150017001C0018000C001200130087
:1000E0002F00300031004C00396104001600070079
:1000F00009000A000B000D000E000F003300340051
:10010000320028004A00E10064001D001B000600C8
:100110001900050011001000360037003800E50016
:1001200052004D00E000E300E2000000000000008B
:100130002C00000000000000E400015150005100BC
:100140004F000100C05CC25CC35C01000100010003
:100150000100010001000100010001000100000098
:100160000100010001000100010001000100010087
:100170000100010001000100010001000100010077
:100180000100010001000100010001000100010067
:100190000100010001000100010001000100010057
:1001A0000100010001000100010001000100010047
:1001B0000100010001000100010001000100010037
:1001C0000000000000002C00000000000000010002
:1001D00001000100010001000100C05CC25CC35CC1
:1001E0000100010001000100010001000100010007
:1001F00001000100000001000100010001000100F8
:1002000001000100010001000100010001000100E6
:1002100001000100010001000100010001000100D6
:1002200001000100010001000100010001000100C6
:1002300001000100010001000100010001000100B6
:1002400001000100010001000100010001000100A6
:100250000100010001000000000000002C0000006F
:100260000000000001000100010001000100010088
:10027000C05CC25CC35C0100010001000100010020
:100280000100010001000100010000000100010067
:100290000100010001000100010001000100010056
:1002A0000100010001000100010001000100010046
:1002B0000100010001000100010001000100010036
:1002C0000100010001000100010001000100010026
:1002D0000100010001000100010001000100010016
:1002E0000100010001000100010001000000000008
:1002F00000002C00000000000000010001000100CF
:100300000100010000000000000000002A2B28006E
:1003100000000000000000000000000000000029B4
:10032000000000002C1E3420212224342627252EF4
:10033000362D3738271E1F2021222324252633332C
:10034000362E37381F0405060708090A0B0C0D0E58
:100350000F101112131415161718191A1B1C1D2F24
:100360003130232D350405060708090A0B0C0D0E44
:100370000F101112131415161718191A1B1C1D2F04
:100380003130354C0000000000000000000000008B
:10039000000000000000000000000000000000005D
:1003A00000000000000000007E0F00D4FFFFFFC728
:1003B0000000007800047F3F1F6432146432147818
:1003C0003C1E1E140A052223252628292A2C2D2FFF
:1003D0003032333536383A3B3D3E4042434547495B
:1003E0004A4C4E5051535557595A5C5E6062646690
:1003F00068696B6D6F71737577797B7D7F8183859C
:1004000087898A8C8E90929496989A9C9E9FA1A39D
:10041000A5A7A8AAACAEAFB1B3B4B6B8B9BBBCBEC1
:10042000BFC1C2C3C5C6C7C9CACBCCCDCED0D1D23D
:10043000D2D3D4D5D6D7D7D8D9D9DADADBDBDBDC3F
:10044000DCDCDCDCDDDDDDDDDCDCDCDCDCDBDBDBEB
:10045000DADAD9D9D8D7D7D6D5D4D3D2D2D1D0CE4B
:10046000CDCCCBCAC9C7C6C5C3C2C1BFBEBCBBB950
:10047000B8B6B4B3B1AFAEACAAA8A7A5A3A19F9ECE
:100480009C9A98969492908E8C8A89878583817F96
:100490007D7B79777573716F6D6B69686664626077
:1004A0005E5C5A5957555351504E4C4A4947454343
:1004B00042403E3D3B3A3836353332302F2D2C2AE0
:1004C000292826252322FFAA7F554000010101018A
:1004D00001010101010202020202020202020303FF
:1004E00003030303030304040404040404050505CF
:1004F0000505060606060607070707070808080891
:10050000090909090A0A0A0B0B0B0C0C0C0D0D0D3D
:100510000E0E0E0F0F0F10101111111212131314D3
:1005200014151516161717181819191A1A1B1B1C4B
:100530001D1D1E1E1F2020212222232424252626A5
:10054000272829292A2B2C2D2D2E2F3031323233DA
:100550003435363738393A3B3C3D3E3F40414243E3
:100560004445464748494A4C4D4E4F5051535455C7
:100570005658595A5B5D5E5F616264656668696B77
:100580006C6D6F7072737577787A7B7D7E808283F5
:100590008587888A8C8E8F91939596989A9C9EA039
:1005A000A2A3A5A7A9ABADAFB1B3B5B7BABCBEC046
:1005B000C2C4C6C9CBCDCFD1D4D6D8DBDDDFE2E40F
:1005C000E7E9EBEEF0F3F5F8FAFDFF1203500069EE
:1005D0000073006300650073003600350000001EE4
:1005E000035400650061006D002E004D006500633E
:1005F0000068006C006F00760069006E0000000467
:1006000003090409025B00030100A0FA09040000C9
:100610000103010100092111010001224000070529
:100620008103080001090401000203000000092100
:1006300011010001222200070582032000010705A5
:100640000303200001090402000103000000092146
:1006500011010001227B0007058403200001120123
:100660000002000000084C4D01650100010200017C
:100670000660FF0961A1010962150026FF009520AF
:10068000750881020963150026FF00952075089101
:1006900002C005010902A10185020901A1000509A5
:1006A0001901290815002501950875018102050128
:1006B000093009311581257F9502750881060938B1
:1006C0001581257F950175088106050C0A380215EC
:1006D00081257F950175088106C0C005010980A1AB
:1006E00001850319012AB700150126B70095017588
:1006F000108100C0050C0901A101850419012AA07F
:1007000002150126A002950175108100C00501099E
:1007100006A101050719E029E715002501950875CF
:100720000181029501750881010507190029FF154E
:100730000026FF00950675088100050819012905A6
:10074000950575019102950175039101C000112471
:100750001FBECFEFDAE0DEBFCDBF04B603FE18C088
:100760008091DF029091E002A091E102B091E2025B
:100770008730904BA740B04B59F41092DF02109293
:10078000E0021092E1021092E202E0E0F8E3099543
:1007900011E0A0E0B1E0E6E6FEE502C005900D92B2
:1007A000A43DB107D9F722E0A4EDB1E001C01D924C
:1007B000AF3DB207E1F70E9436130C94082F0C945A
:1007C000000081E0089581E008950E94E303089508
:1007D00008950E94E8030895A5E0B0E0E2EFF3E099
:1007E0000C94722E49835A833091D70189819A8162
:1007F000311119C0662399F0222389F00E943E0A24
:10080000182F682F89819A810E941A0A69817A813A
:10081000812F0E94DD222596E3E00C948E2E0E940B
:100820002C0A182FF3CF0E943E0A69817A81F1CFFA
:10083000FC01262F408151816281738184810E9455
:10084000EC03089581E00895CF93DF93EC0160E01D
:100850000E941804BE010E94E903DF91CF91089520
:10086000E1E0F0E0DF0102C0AA0FBB1F6A95E2F7EA
:10087000BD01DF0102C0AA0FBB1F4A95E2F76A2B38
:1008800001C0EE0F2A95EAF7962F9823961302C01F
:100890008E2B0895E0958E230895242F462F682FE0
:1008A0008091F6010E9430040E947A0908950E9406
:1008B000DD1108950E94E111089508950E9417091D
:1008C0000E945D042FEF84E39CE021508040904023
:1008D000E1F700C0000008950E945E040E942026F7
:1008E00008950E945E040E94442608950F931F936A
:1008F000CF93DF938C0161E00E941804EC01B801F2
:100900000E94501F811106C080E0DF91CF911F919E
:100910000F910895B801CE010E94E5038823A1F349
:10092000B801CE010E94D21D882371F3B801CE0117
:100930000E942224882341F3B801CE010E94D020D6
:10094000882311F3B801CE010E9494238823E1F299
:10095000B801CE010E94171C8823B1F2F8018281F0
:10096000882361F0CA35FDE5DF0701F158F4C115B0
:10097000ECE5DE0791F0CE3DDC4591F0C8010E9428
:10098000E103C3CFCC358DE5D80769F090F0C73AC5
:10099000DD45A1F70E947104B7CF0E946C04B4CF6B
:1009A0000E94F70EF7CF0E94310EE8CF0E943B0E57
:1009B000E5CF0E943F0EE2CF0E94512580E00E94C9
:1009C000071E0E94D5050E948D1A08950E94FE1CE4
:1009D0000E94D9050E94641B0E9456250895B0E02C
:1009E000A0E0E5EFF4E00C946E2EE82FF0E0EC5F71
:1009F000FC4FD490282F26952695269530E0F901B6
:100A0000EC55FC4F0491877010E0082E02C015953C
:100A100007950A94E2F701701127F901EC56FC4F93
:100A2000E490F12C082E02C0F594E7940A94E2F7C2
:100A300091E0E922FF24F901EC57FC4FC491D0E08A
:100A400002C0D595C7958A95E2F7C170DD270115DB
:100A5000110519F081EE0E942406E114F10419F049
:100A600086EE0E9424068D2D0E94BA06E114F10440
:100A700019F086EE0E9470060115110519F081EE3D
:100A80000E947006CD2B19F08CE20E94BA06CDB7F9
:100A9000DEB7E7E00C948A2EEF92FF920F931F933C
:100AA000CF93DF93EC01162F0AE08881882309F4A5
:100AB00054C0813009F04EC08981813099F47E01A3
:100AC00022E0E20EF11C8A810E94BA06E70121961B
:100AD000812F815050F3EFE9FFE03197F1F700C02B
:100AE0000000F7CF823041F47E0182E0E80EF11C75
:100AF0008A810E942406EACF833041F47E01E2E03D
:100B0000EE0EF11C8A810E947006E0CF843011F055
:100B10002196DDCF2A81229690E080E0AE014F5FE2
:100B20005F4F2053330B2A30310548F0019778F29C
:100B3000EFE9FFE03197F1F700C00000F7CF089F21
:100B4000B001099F700D1124C901860F971F2981DB
:100B5000EA01E4CF0E94EF04BACFCDB7DEB7E6E0FA
:100B60000C948B2E60E00E944C05089508950E941D
:100B7000B605089581E00895CF93C82F0E94BA0565
:100B8000882319F0C1FF03C02A9ACF9108952A98AB
:100B9000FCCF229A2A980895CF93C82F0E94B705B8
:100BA0008C2F0E94BC05CF91089580E00E94CC0557
:100BB00008950E947E240E94CC0508950E947E2400
:100BC0009091D601981721F08093D6010E94CC0510
:100BD0000895ABE0B0E0EFEEF5E00C94732E4F8398
:100BE000588769877A878B8761110E947C0D1E82E6
:100BF0001D8285E0FE013796DE01119601900D926F
:100C00008A95E1F78C819D81892B61F449815A8114
:100C10006B817C818D819E810E94A50C2B96E2E0E8
:100C20000C948F2E89819A8189238F3F79F3CE018D
:100C300001960E9422048111E9CFF0CFFC0180814E
:100C400091810E946B0A0895CF93C82F8823B9F031
:100C50008CEF8C0F813AA8F46C2F80910001909159
:100C600001010E94E224882329F08C2F0E943C0D70
:100C70000E949D0D8C2F0E94340D0E949D0DCF91DE
:100C8000089580E28C0F883048F4C77081E001C07D
:100C9000880FCA95EAF70E945F0DEFCFEBE5EC0FE6
:100CA000E33040F4F0E0E85AFE4F808190E00E948B
:100CB000A424E5CFE8E5EC0FE73150F4F0E0EE0FC7
:100CC000FF1FE65DFE4F808191810E94BA24D7CF3D
:100CD000C03FA8F28C2F0E94BA130E948D14CFCF70
:100CE000882379F19CEF980F913A28F40E943C0DEB
:100CF0000E949D0D089590E2980F983050F48770EF
:100D000091E001C0990F8A95EAF7892F0E94650D3D
:100D1000EFCF9BE5980F933028F490E080E00E949D
:100D2000A424089598E5980F973128F490E080E086
:100D30000E94BA240895803F20F00E9414140E945B
:100D40008D1408951F93CF93DF93182FEB010E940A
:100D50002406209739F4812F0E947006DF91CF91ED
:100D60001F9108958FE99FE00197F1F700C00000FF
:100D70002197EFCF70E060E0893311F460E570E017
:100D80000E94A2060895882321F00E945F0D0E9410
:100D90009D0D0895882321F00E94650D0E949D0DF0
:100DA0000895B0E0A0E0E7EDF6E00C946C2E6C0145
:100DB000D62FC72FFC011281F580F2949FE0F92213
:100DC0000E94550DE82E8823B9F0E12E1123A1F0E1
:100DD0008C2F807F803421F080E28D0F8830D0F01E
:100DE00080918F0282FF16C082E00E94000E0E9456
:100DF000550D91E0E82EE926BC2EB2948FE0B82282
:100E0000FBE0FB1508F468C0EB2DF0E0E65FF04D69
:100E10000C94252EE12CF0CF0C2F0F70C07F11F019
:100E20000295007F112399F0002359F080E28D0F85
:100E3000883010F0D11107C0802F0E945F0D0E94F2
:100E40009D0D8D2F41C0802F0E946F0DF8CF8D2FEB
:100E50000E947006002309F43FC080E28D0F8830A5
:100E600010F0D11104C0802F0E94650D03C0802FA7
:100E70000E94750D0E949D0D2FC00C2F0F70C07F1A
:100E8000C03211F00295007FDD2381F0D13009F4EA
:100E900063C0112309F46DC0FF2009F463C0F6019B
:100EA000858180FFCECF8F7085835CC080918F025B
:100EB00082FD33C0112359F0002329F0802F0E94B6
:100EC0005F0D0E949D0D80E00E94240605C080E019
:100ED0000E9470060111C7CFEB2DE850FF0B34972D
:100EE00020F40E947E240E94CC05EE2089F00E940E
:100EF000510D80FD0DC0F60112820E944B0D0E9423
:100F00008E09C6010E94D7080E944B0D0E949A09C3
:100F1000CDB7DEB7E9E00C94882E112389F0F110EB
:100F200006C00E947F0D802B0E94C306D5CF21E012
:100F3000F212F7CF0E947F0D802B0E94860DCCCF3E
:100F4000F11006C00E94930D802F0E94CA06C4CFE4
:100F500031E0F31609F2F6CF112331F085E08F1559
:100F600008F4BACF802FE0CF94E09F1508F4B4CFF7
:100F7000EBCFFF2049F3D93349F4FFEF27EE33E0FD
:100F8000F15020403040E1F700C000008D2F0E945A
:100F90007006A2CF8C2F86958695837069F081307C
:100FA00009F09ACF8D2F9C2F9370111102C090E001
:100FB00080E00E94BA2490CF8D2F9C2F9370111146
:100FC00002C090E080E00E94A42486CF8D2F1123E0
:100FD00029F00E94BA130E948D147ECF0E9414142F
:100FE000FACF8C2F837079F5111176CF4D2F429562
:100FF00046954770440F440F8D2F8F70042E01C00B
:10100000880F0A94EAF72D2F2071D4FF07C02FE034
:1010100030E001C0220F4A95EAF72095C695C695A3
:10102000C370822BC23049F058F4C13019F00E94CD
:10103000680952CF0E9462094FCF0E946E094CCFBF
:101040000E945F0949CF8695112311F08C2F817082
:10105000882309F441CF4D2F429546954770440FA0
:10106000440F8D2F8F70042E01C0880F0A94EAF769
:101070002D2F2071D4FF07C02FE030E001C0220FD8
:101080004A95EAF72095C695C695C370822BC23063
:1010900049F058F4C13019F00E94B9091DCF0E94DF
:1010A000B3091ACF0E94BF0917CF0E947A0914CF43
:1010B000CF70112329F08C2F0E948E098D2F34CFF1
:1010C0008D2F0E94CA068C2F0E949A0905CFD23F0D
:1010D00051F160F4D03FB9F0D13F81F0112309F410
:1010E00049C0F110AECE8C2F8F7121C0D33F11F1CA
:1010F000D43FA1F780918F0282FD26C08C2F8F7183
:10110000112311F314C0112349F084E08F1508F462
:10111000E3CE8C2F8F710E94A709DECE95E09F153C
:1011200008F4DACEF6CF8C2F8F711111CDCF0E943B
:101130008E09D2CE112329F08C2F8F710E94850940
:10114000CBCE0E948109C8CE112349F0CF718C2FDC
:101150000E948E0963E08C2F0E94E20DBDCE81E0DB
:101160000E94000EE1E0EF1508F0B6CE82E00E948A
:10117000000EB2CEF110FFCE8C2F8F71A5CF0F9342
:101180001F93CF93DF93EC01688179818A810E945C
:10119000760A8C010E94C5090E945E09B801CE0141
:1011A0000E94D106DF91CF911F910F910895CF93A7
:1011B000DF93EC018B819C81892B29F088819981B7
:1011C00089238F3F51F4DF91CF910895CE010E9482
:1011D000BF08CE010E942404F6CFCE010E947604FF
:1011E0008111F4CF0E94550D882369F38A818823E9
:1011F00051F380918F0282FFE6CF82E00E94000EC1
:10120000E2CF90E080E00E94A42490E080E00E9481
:10121000BA240E947C0D0E949D0D0E949E150E9482
:101220008D1408950E94440D0E94010908950E94A2
:101230006C0D0E941209089592959F70963091F05E
:1012400058F4925F9F70923058F4803F19F030F458
:10125000883E30F481E008959A5FF4CF843FD1F363
:1012600080E00895883EB0F3813FD1F7F3CFFC01D1
:10127000808191810E946B0A0E941C090895A5E05B
:10128000B0E0E5E4F9E00C94732E2596E2E00C94CE
:101290008F2EA6E0B0E0EFE4F9E00C94732E2696D2
:1012A000E2E00C948F2E08950E94530908950E9445
:1012B00054098093F7010E940109089508950E943E
:1012C000570908959091F701892B0E9457090895B5
:1012D0009091F70189230E94570908959091F70191
:1012E00089270E94570908950E94530908950E9472
:1012F000740908950E9477098093F6010E940109FC
:10130000089580E00E947A09089591E001C0990F44
:101310008A95EAF7892F0E947A09089521E030E042
:1013200001C0220F8A95EAF78091F601822B0E9474
:101330007A09089521E030E001C0220F8A95EAF78A
:1013400020958091F60182230E947A09089521E078
:1013500030E001C0220F8A95EAF78091F6018227DA
:101360000E947A0908959091F601892B0E947A09CA
:1013700008959091F60189230E947A090895909129
:10138000F60189270E947A0908950895262F27706B
:1013900091E001C0990F2A95EAF723E076956795C9
:1013A0002A95E1F7FB01EE0FFF1FE60FF71FE40F91
:1013B000F51F50E040E0682F70E08191DF01119748
:1013C0009B01042E02C0369527950A94E2F72170FE
:1013D00021952827292328272C934F5F5F4F4330DF
:1013E000510559F70895A82FA77023E09695879582
:1013F0002A95E1F7FC01EE0FFF1FE80FF91FE60F3A
:10140000F71F50E040E080E0219130E00A2E02C05A
:10141000369527950A94E2F721703327042E01C0F0
:10142000220F0A94EAF7822B4F5F5F4F433051053A
:1014300059F70895262F953070F48F3060F4682F97
:1014400070E08FE0989F600D711D112448ED51E010
:10145000822F0E94C6090895292F953068F48F3095
:1014600058F490E068ED71E03FE0239F800D911DFE
:1014700011240E94F309089580E00895CF92DF922D
:10148000FF920F931F93CF93DF936C010091F601AE
:101490008091F701082BC7E0D0E010E0FC2EC801D6
:1014A0000C2E02C0959587950A94E2F780FD0CC03A
:1014B0002197A0F7F12C8F2DDF91CF911F910F91E4
:1014C000FF90DF90CF900895B6018C2F0E94C3103B
:1014D000019771F3F0CFCF93DF93EC010E943E0AA6
:1014E000BE010E94C310DF91CF9108951F93CF9347
:1014F000DF93EB019091D701992339F0CB010E9442
:101500006B0ADF91CF911F910895882369F0CB0179
:101510000E943E0A182F682FCE010E941A0ABE01AF
:10152000812F0E94C310EDCFCB010E942C0A182FEF
:10153000F6CF1F93CF93DF93C091F80116E080910F
:10154000F9018C1304C0DF91CF911F910895D0E071
:101550001C9FF0011D9FF00D1124E650FE4F4081AD
:10156000518162817381848195810E94490921960C
:10157000C770E5CF40912A0250912B0260912C0256
:1015800070912D0280912E0290912F020E944909A4
:1015900008951F93CF93DF9380912F02807F09F0EE
:1015A00049C080912C02882309F444C08091F8013D
:1015B000C091F90160912A0270912B02A0912D0235
:1015C000B0912E02D62FD72316E0C81799F190E0DC
:1015D000109711F0DF3F19F401968770F6CF189F2E
:1015E0009001199F300D1124F901E650FE4F418101
:1015F0004713F2CF40814613EFCF42814111ECCF28
:10160000438154814A1B5B0B483C510528F780916C
:101610002F028F70806180932F02F901E150FE4FFD
:1016200080818F70806180838AE292E00E94D70877
:101630000E94990ADF91CF911F910895A1E1B0E036
:10164000E4E2FBE00C946B2E8C0185E0F801DE01F6
:101650001D9601900D928A95E1F7F801E2808AE2E9
:10166000C82E82E0D82E60912D0270912E02611555
:10167000710509F44EC190912A0220912B02892F05
:1016800082238F3F09F445C140815181A380B480FA
:10169000F0902C02F501E61BF70BFF2009F4EAC0DD
:1016A00080912F02382F307FE83CF10508F0A3C06D
:1016B00031116DC0FE2C251316C0941314C0E11017
:1016C00012C08F70806180932F020E94BA0AC601F7
:1016D0000E94D70880912F02F80185838F2D619693
:1016E000EAE00C94872EA114B10429F0842F8523FD
:1016F0008F3F09F027C180E0F82FF170DF2E80FFC7
:101700003CC08091F8012091F90136E0821315C0A8
:101710004D875E878D859E850E946B0A292F2295B5
:101720002F702230F0F0243018F59F70F1F0F8019E
:101730009581907FD1F4D12C1EC090E0389FF001AC
:10174000399FF00D1124E650FE4F6181651306C0EC
:101750006081641303C06281E6120FC00196877036
:10176000D5CF9F7011F0882331F3805E883018F355
:10177000C8010E94D708FD2CB1CFEE2009F4AECFEE
:1017800080912F02816080932F02F12CA7CF251327
:1017900006C0941304C0F801EE2009F487C0C80104
:1017A0000E943709882319F1EE2009F180912F0258
:1017B000803270F020912A0230912B0238872F83DB
:1017C0001986BB86AA868C87CE0107960E94D70809
:1017D00086E0F801AAE2B2E001900D928A95E1F765
:1017E0000E94C90A0E94BA0AFF24F39477CFC80165
:1017F0000E94D708F9CF311113C07A2DB98AA88A6F
:101800006E2D89890E943F098AE292E00E94D708E2
:1018100086E0F60111928A95E9F70E94BA0AB5CFDF
:1018200025130FC094130DC0E1100BC0F801858380
:10183000C8010E94D70886E0F60111928A95E9F75F
:101840004DCFC8010E943709882389F2EE2079F232
:1018500080912F02803208F4BBCF20912A02309170
:101860002B023A8329831B82BD82AC828E83CE01F8
:101870000196ACCFE83CF10508F03EC0FE2CEE200E
:1018800009F4B5CF25132AC0941328C080912F02E4
:1018900080FD1BC0982F907FC1F0F8018583903F99
:1018A00031F0982F907F905F8F70892B8583C801CE
:1018B0000E94D70886E0F801AAE2B2E001900D92FA
:1018C0008A95E1F70E94BA0A09CF86E0F801AAE2F8
:1018D000B2E001900D928A95E1F700CFC8010E9415
:1018E0003709811175CF80912F02816080932F027B
:1018F000C8010E94D708F2CE7A2DB98AA88A6E2D27
:1019000089890E943F0986E0F60111928A95E9F7DC
:10191000D9CFEE2009F46BCFC8010E943709F82E09
:10192000882309F464CF86E0F801AAE2B2E00190CE
:101930000D928A95E1F78AE292E00E941E060E94CB
:10194000C90AC0CF81E08E25D7CEACE0B0E0EBEA8B
:10195000FCE00C94722E4F83588769877A878B87B7
:101960009C87CE0107960E941E0B882369F08A850A
:101970009B85892B39F04F815885842F85238F3F94
:1019800009F06BC016E05FC086E0FE013796DE010D
:10199000119601900D928A95E1F78A859B85892B96
:1019A00089F388859F8189238F3F61F32091F90115
:1019B00030E0C9010196877099274091F8014817D6
:1019C000190671F40E9417091092F9011092F8019A
:1019D00086E0EAE2F2E0DF011D928A95E9F7D2CFD4
:1019E00096E0929FD001939FB00D1124A650BE4F58
:1019F000FE01319601900D929A95E1F78093F901DD
:101A00000E94990ABFCF819FC001112486509E4F2A
:101A10000E941E0B8823E9F0E091F8011E9FF0015F
:101A20001124E650FE4F408151816281738184818F
:101A300095810E9449098091F80190E00196877094
:101A400099278093F8018091F8019091F901891309
:101A5000DACF2C96E3E00C948E2E69857A858B85FF
:101A60009C850E9449098ECF682F8091000190913A
:101A700001010E9418250895682F8091000190911E
:101A800001010E941B2508958091000190910101A0
:101A90000E941E250895809138028595859585952B
:101AA0000895809138028770089590913802977058
:101AB00081E009F480E008958091430208959091B7
:101AC0004302892B809343020895809590914302AD
:101AD00098239093430208951092430208959091A1
:101AE0004202892B80934202089580959091420290
:101AF0009823909342020895109242020895809193
:101B00003902089508950E94820D089590918F02E0
:101B100092FF08C090913902981721F08093390202
:101B20000E94830D089580913902882329F0109234
:101B3000390280E00E94830D0895CF93DF93E091F6
:101B40000001F0910101809143028083E091000146
:101B5000F0910101808190914202892B80839091C4
:101B60003902992381F0E0910001F0910101808117
:101B7000892B808380910001909101010E94D024E3
:101B800081110E94930DC0910001D091010148E0A4
:101B900050E060E372E0CE010E94B32E892B59F031
:101BA00088E0FE01A0E3B2E001900D928A95E1F792
:101BB000CE010E948B24DF91CF91089508950E9459
:101BC000DE0D089590918F0292FF11C098E0899FD9
:101BD00090011124622B609338020E948E0980913B
:101BE00038028595859585950E94DF0D08950E94A0
:101BF0008E0908951092380280E00E94DF0D08954A
:101C0000909138028095892380933802282F27707D
:101C100091F4282F082E000C330B9217130659F05D
:101C200090918F0292FF07C08595859585950E94BA
:101C30009A090E94FA0D089590918F0292FB222733
:101C400020F9281769F080FB92F990938F02809118
:101C50008E0290918F020E946E0E82E00E94000E12
:101C6000089580918F0282FB882780F991E089276F
:101C70000E941C0E089581E00E941C0E089580E0D1
:101C80000E941C0E08956FEF7FEF90E080E00E94AD
:101C9000F22E089590E080E00E94CE2E883E9E4F66
:101CA00019F40E94EB1E089580E0089582E090E010
:101CB0000E94C02E089583E090E00E94C02E0895F7
:101CC000CF9384E090E00E94C02EC82F82E290E083
:101CD0000E94C02E982F8C2FCF910895CF93C92F9B
:101CE000682F84E090E00E94D42E6C2F82E290E076
:101CF0000E94D42ECF910895AB01BC018FE090E0FB
:101D00000E94E62E0895AB01BC0183E190E00E94A1
:101D1000E62E089560E070E0CB010E94830E0895E6
:101D200060E070E0CB010E947C0E0E948A0E089554
:101D300068EE7EEF90E080E00E94F22E60E082E0AC
:101D400090E00E94D42E60E083E090E00E94D42EC8
:101D50001092F70160E084E090E00E94D42E64E0ED
:101D600082E290E00E94D42E60E085E090E00E9444
:101D7000D42E60E086E090E00E94D42E6FEF87E0E2
:101D800090E00E94D42E40E050E0BA0188E090E05C
:101D90000E94E62E60E08DE090E00E94D42E40E0AC
:101DA00050E0BA0188E190E00E94E62E60E087E111
:101DB00090E00E94D42E40E050E0BA018CE190E027
:101DC0000E94E62E70E060E080E290E00E94F22E39
:101DD00040E050E0BA0188E190E00E94E62E80E009
:101DE0000E94041F0E94331F0E94900E08950E94BB
:101DF000980E0895682F8EE090E00E94D42E0895EA
:101E00000E94E12560935202709353028093540222
:101E10009093550260934E0270934F02809350024C
:101E2000909351020895089508950E94140F089503
:101E300008950E94180F089582EA91E10E94742487
:101E40000E94130F0E94150F089581E008950E94CB
:101E5000250F0895089508950E942A0F0E942B0FC0
:101E600008950E94C1110E94C9050E94AE1E0895E6
:101E70000E94CC250E94431F0E949D120E94310F98
:101E80000E94FE1C0E94281B0E94190F0895AAE0C0
:101E9000B0E0EDE4FFE00C94662E0E94B312A82E91
:101EA00081110E94000F34E4832E32E0932E10E063
:101EB00000E0502E802F0E94E4116C01F40161902B
:101EC00071904F016816790609F443C0809156025B
:101ED00081FD0E94ED11B12CEE24E394F12C6C24D1
:101EE0007D24C3018E219F21892B69F10E94270F38
:101EF0008823B1F0BE825F82CE20DF2081E0C11452
:101F0000D10409F480E088870E94D5258160782F6C
:101F10009A8789874E815F8168858A850E94E90555
:101F2000000F111FF801EC5BFD4F80819181E826C5
:101F3000F926F182E08281E0A11001C080E02A96BA
:101F4000EFE00C94822EB394EE0CFF1CFFE0BF1266
:101F5000C8CF0F5F1F4F0530110509F0AACF8FEFD3
:101F600089838A831B820E94D5258160782F9D8377
:101F70008C8349815A816B818D810E94E905DBCF79
:101F80000E94470F0E946E1B0E94AD1E0E94A91462
:101F90000E94DE050895CF93DF930E94C810EC01E4
:101FA000811521E5920708F042C0811530E59307BD
:101FB00008F09DC0883E910530F5803E910508F0FF
:101FC00092C0883A910588F4853A910508F084C05A
:101FD0008130910509F487C0009709F484C0049703
:101FE00008F081C0D0E0C0E07EC08F3B9105D0F703
:101FF000C85AD0E0CC0FDD1FC55ADE4F0990D881FA
:10200000C02DD46470C08115904250F4C11581E098
:10201000D80708F068C0C03FD10520F3D06563C081
:10202000C11590E4D907F0F2DF70D06A5CC0811569
:1020300025E5920700F5811534E5930708F08BC07C
:10204000811543E5940708F073C0C11582E5D807F0
:1020500008F469C0CE018370992721E030E002C006
:10206000220F331F8A95E2F7C695C69580E2C89F76
:10207000E001112454C0C11599E5D907A8F4C11590
:1020800028E5D20708F06CC0C11536E5D30708F083
:10209000A9CF8C2F0E945F11C82FD0E0DC2FCC2756
:1020A000CC27DF71D0621FC0C1154AE5D40708F400
:1020B0005CC0CE0190568115904208F093CF8D2FD1
:1020C0008F710E945F1190E0982F882788279F7159
:1020D0009C012C2BE901E6CFC55AD0E0C757DE4F53
:1020E000C881D0E0D064CE01DF91CF910895E4E0C3
:1020F00096958795EA95E1F783702C2F269526957E
:10210000237040E2249F90011124382B8C2F837080
:10211000C1E0D0E002C0CC0FDD1F8A95E2F7C22BF0
:10212000D32BDC68E0CFDC2FCC27C16FD06ADBCFAC
:102130008370992721E030E002C0220F331F8A9577
:10214000E2F7C695C69590E2C99FE0011124C22B23
:10215000D32BDA68C8CFD82FCC27C46FD06AC3CFAF
:10216000DC2FCC27C06FD06ABECF8C2F8F700E941F
:102170005F1134E0D695C7953A95E1F7CF709C2F63
:10218000EC01D069B0CF0E94DD220E94CB0F0895F0
:1021900082389105B1F1B0F48133910509F475C02D
:1021A00048F48932910509F469C08A32910509F42D
:1021B00073C008958533910509F459C08933910599
:1021C00001F10895833E9105A9F138F4803E91050F
:1021D000F9F0823E910549F10895863E9105A9F1F5
:1021E000873E9105C9F1843E910519F520918F0232
:1021F00021FF1FC080918E0284FD14C087EE90E005
:10220000089520918E022370A1F080EE90E0089551
:1022100020918E0220FD47C030918F0230FF09C00F
:1022200024FF44C090E080E004C020918E0222FD93
:10223000F7CF089520918E0222FD3BC030918F028E
:1022400030FDE3CF24FFF5CFEDCF20918E0223FFA9
:10225000F0CF24FDE7CFD2CF20918E0223FD2CC0FA
:1022600030918F0231FFEECF84EE90E008952091FF
:102270008E0225FFDECF89E290E0089520918E0244
:1022800025FFD7CF85E390E0089520918E0226FFA9
:10229000D0CF8AE290E0089520918E0226FFC9CF28
:1022A00081E390E0089589E390E0089583EE90E063
:1022B000089582EE90E0089586EE90E00895909162
:1022C0008E0292FF06C0282F28712830F9F4877FEC
:1022D000846093FF06C0282F28712831F1F4877E8F
:1022E000846120918F0220FF06C0382F387138306A
:1022F000D9F4877F816021FF06C0282F28712831FB
:10230000D1F4877E816194FD877E0895282F247102
:102310002430F9F68B7F8860DCCF282F247124319C
:1023200001F78B7E8861DDCF382F3171313019F79D
:102330008E7F8860E0CF282F2171213121F78E7E9A
:102340008861E1CF80E008950E94430E08950E94C5
:10235000B3122FEF86E791E0215080409040E1F7E3
:1023600000C000000E94B31280E00E94E41180FFD0
:1023700004C00E94A4110E94202608950E94A71163
:1023800008950E944A0E811102C00E94F70E0E9419
:10239000560E809356020E94600E90938F02809397
:1023A0008E020E94BE110E945B0E0E945F09809106
:1023B000F6010E947709089508950E94DC1108959E
:1023C00008950E94E0110895E82FF0E0EE0FFF1F3E
:1023D000E656FD4F808191810895089580EA8A959F
:1023E000F1F7089500C008950E94EE110895F89441
:1023F000E82FE295EF70F0E031A1282F2F7081E0F7
:1024000090E001C0880F2A95EAF7982F90959323C2
:1024100091A392A1892B82A3789408950F931F937F
:10242000CF93DF93CBE9D1E089918F3F11F00E94E8
:10243000F71181E0C03AD807B9F7CCE8D1E00BE951
:1024400011E089918F3F11F00E94F7110C171D07C1
:10245000C1F7DF91CF911F910F910895AF92BF9275
:10246000DF92EF92FF920F931F93CF93DF938C0134
:10247000D62EC62FD0E0CE0185569E4F7C01FC01A2
:1024800020812F3F09F44CC0F894E22FE295EF70C1
:10249000F0E031A12F7081E090E001C0880F2A9513
:1024A000EAF7932F982B91A392A18095892382A379
:1024B00078940E94F211ECE8F1E041E050E0B12C98
:1024C000A12C21912F3FB1F1A22FA295AF70B0E0C6
:1024D00090968C9190E02F7002C0959587952A95E3
:1024E000E2F780FD27C0CA01A82AB92A440F551F68
:1024F00081E0EB39F80729F7F70180818F3F11F070
:102500000E94F71161E0A114B10409F460E08D2D7F
:102510000E94F411CC0FDD1FC00FD11FB982A88219
:10252000DF91CF911F910F91FF90EF90DF90BF90BF
:10253000AF90089590E080E0D7CF0E940E128AE01D
:10254000EAE9F2E0DF01982F1D929A95E9F7E0E9B8
:10255000F2E0DF011D928A95E9F785E00E94EF1213
:102560000E9457040895AAE0B0E0E9EBF2E10C9470
:10257000702E8E010F5F1F4F8AE0F80111928A952D
:10258000E9F7F12C6F2DC8010E942E12F394F5E0AB
:10259000FF12F8CF4AE050E0B80180E992E00E94D3
:1025A000B32EFF24F394009709F4F12C892B41F00A
:1025B0008AE0F801A0E9B2E001900D928A95E1F776
:1025C0002F2D45E06AE972E080E992E00E94F01266
:1025D0000E945A048F2D2A96E5E00C948C2E0895C3
:1025E000FF920F931F93CF93DF93F82E092F162F8F
:1025F000D72FC42F222349F081E0809359020E94F3
:10260000D5259093580280935702809159028823D0
:10261000A1F080915702909158020E94ED250597F4
:1026200060F0EF2DF02FA12FBD2F90E080E0D0E0E3
:102630008C179D073CF010925902CDB7DEB7E5E04C
:102640000C948C2E219131912D933D930196F0CFD6
:102650000E941C280E94380F0E94292808950E9479
:102660002E280E94C00F0E94482808950E946E25BF
:102670000E9402280E941C0F0E9428130E942F1300
:102680000E942C0FFBCF8091600280FF0DC06091F3
:10269000070170E0660F771F6038710570F56115EE
:1026A000710569F1862F089581FF07C060910701C8
:1026B00084E0689FB0011124EFCF6091070182FD93
:1026C0000AC080915F028823A9F0209106016091E1
:1026D0000701821710F088E0ECCF869FC00111241B
:1026E00033E0880F991F3A95E1F7622F70E00E945E
:1026F000EF2DD2CF68E070E0D5CF8FE7089581E06D
:1027000008958091600280FF0CC06091030170E029
:1027100075956795759567956115710549F1862FD2
:10272000089581FF06C06091030170E0759567957B
:10273000F3CF6091030182FD0BC090915E0299235B
:10274000A1F06091020180910301961738F0682F83
:1027500070E06038710500F38FE70895899FC0012C
:10276000112470E00E94EF2DF4CF61E070E0D7CF2C
:1027700081E00895803F31F40E9443138195809356
:1027800064020895813F19F40E944313F8CF823FF9
:1027900031F40E9443138195809363020895833F2F
:1027A00019F40E944313F8CF893F29F40E94811342
:1027B0008093650208958A3F21F40E9481138195D8
:1027C000F7CF8B3F31F40E9481138195809366028D
:1027D00008958C3F19F40E948113F8CF9CE0980F64
:1027E000953070F4845F990B21E030E001C0220F36
:1027F0008A95EAF780916202822B809362020895A3
:102800008D3F31F480916002816080936002089571
:102810008E3F21F4809160028260F7CF8F3FB9F73D
:10282000809160028460F1CF40916302803F59F44F
:102830008091640287FF0DC01092640241110BC0A9
:1028400010925F0208C0813F81F4809164021816E3
:102850009CF3442381F08091650290916602892B5C
:1028600009F05AC010925E020895823F49F447FF72
:10287000F0CF10926302809164028111ECCFE0CF1F
:10288000833F19F41416ACF3E4CF90916502893FAD
:1028900029F41916F4F610926502DBCF8A3F19F479
:1028A00097FFD7CFF8CF909166028B3F29F497FF1F
:1028B000D0CF10926602CDCF8C3F19F41916CCF30D
:1028C000C8CF9CE0980F953090F4845F990B21E07D
:1028D00030E0B90102C0660F771F8A95E2F7CB019D
:1028E000809590916202892380936202B2CF8D3FDE
:1028F00031F4809160028E7F80936002AACF8E3F78
:1029000021F4809160028D7FF7CF8F3F09F0A1CF36
:10291000809160028B7FF0CF08950E94D5259C01A5
:102920009091630280916402982B21F030935D02B4
:1029300020935C029091650280916602982B21F0B1
:1029400030935B0220935A0281E692E00E94962423
:102950000895A6E0B0E0EFEAF4E10C94722E86E070
:10296000E1E6F2E0DE01119601900D928A95E1F721
:102970001092630210926402109265021092660235
:102980008B819C81892B81F080915C0290915D020A
:102990000E94ED25AC0190915F02992391F1809105
:1029A000080184171506D0F18D819E81892B91F045
:1029B00080915A0290915B020E94ED25AC019091AA
:1029C0005E02992309F46BC08091040184171506F7
:1029D00008F473C0BE016F5F7F4F81E692E00E94F2
:1029E000252581110E948D1486E0FE013196A1E615
:1029F000B2E001900D928A95E1F72696E3E00C94FF
:102A00008E2E209109018AE0289F9001112424171D
:102A1000350750F69F5F90935F0202C09F3FD1F74A
:102A20001B81112359F00E9443139FEF11160CF4E0
:102A300091E0899F802D1124809363021C811123D2
:102A400059F00E9443139FEF11160CF491E0899FF7
:102A5000802D11248093640230916302332309F4A2
:102A6000A3CF20916402222309F49ECF45EB3403C7
:102A7000C0011124992359F09093630245EB24037C
:102A800090011124332339F0309364028DCF81E01B
:102A900080936302F3CF81E08093640285CF20911D
:102AA00005018AE0289F900111242417350708F0BA
:102AB00091CF9F5F90935E0202C09F3FD1F71D812F
:102AC000112359F00E9481139FEF11160CF491E02D
:102AD000899F802D1124809365021E81112359F056
:102AE0000E9481139FEF11160CF491E0899F802DB5
:102AF00011248093660230916502332309F46ACF72
:102B000020916602222309F465CF45EB3403C0010E
:102B10001124992359F09093650245EB2403900109
:102B20001124332339F03093660254CF81E080932F
:102B30006502F3CF81E0809366024CCF86E0E1E648
:102B4000F2E0DF011D928A95E9F710925F02109280
:102B50005E02109260020895EF92FF920F931F930E
:102B6000CF93DF93EB01E82FD1110EC0442321F066
:102B7000F0E0E553FB4FE4916E2F7E2F8E2FCDB703
:102B8000DEB7E6E00C948B2E0D2F10E0282F30E0FE
:102B9000442329F025533B4FF901249130E0F6E01E
:102BA000CF9FC0011124EFEFF0E0BF010E94DB2DA9
:102BB000AB018C2F90E0880F991FA5E5A49FB00171
:102BC000A59F700D1124861B970B982F990F980FB6
:102BD000BF01601B710B629FD001639FB00D729F9C
:102BE000B00D11248B2F9D9FB0011124672F7727E3
:102BF000EF01C61BD70BBE01629FE001639FD00DA2
:102C0000729FD00D11247F01E91AF108E09EB001F6
:102C1000E19E700DF09E700D1124672F7727E61B43
:102C2000F70BE29F8001E39F100DF29F100D11241E
:102C3000E12F722F4230510599F048F441155105AA
:102C400069F04130510581F0EB2F8D2F07C04430E2
:102C5000510569F080F046305105B1F76E2F8FCFE6
:102C6000E22F7B2F812FFACFE22F7D2FF7CFEB2F93
:102C7000822F712FF3CF7B2F822FED2FEFCF41E0EB
:102C80000E94AC15089508950E943F160895CF93B1
:102C9000DF93762FE901682F842F0E9444167983F1
:102CA00068838A83DF91CF9108958091A402982F41
:102CB0009E7F29F4817082608093A40208958A34F3
:102CC000E8F381708864F8CF88E090E00E94C82E15
:102CD0000895CF92DF92EF92FF926B017C010E94E8
:102CE0005516B701A60188E090E00E94E62EFF90FD
:102CF000EF90DF90CF9008956091A4027091A502AB
:102D00008091A6029091A7020E9469160895E4EAB4
:102D1000F2E083E0808311828FEF828383831482C9
:102D200060817181828193810E94691608958091EA
:102D3000A40280FF02C08695089580E008959091D6
:102D4000A802933018F49F5F9093A802882351F053
:102D50006091A4027091A5028091A6029091A702B1
:102D60000E946916089581E00E949F16089590912F
:102D7000A802992319F091509093A802882351F04A
:102D80006091A4027091A5028091A6029091A70281
:102D90000E946916089581E00E94B71608958091F7
:102DA000A80208958093A802662351F06091A402BE
:102DB0007091A5028091A6029091A7020E946916C7
:102DC000089560E00E94D21608958091A5020895AA
:102DD0008091A60208958091A702089570E00E9454
:102DE000BF1E089560910E018091A40280FF0BC068
:102DF00080910D0123E0829FC001112487559D4FD2
:102E00000E94EE16089580910F019091100123E029
:102E1000829FF0011124E755FD4F891748F7118271
:102E2000108212828F5F3396F8CF9091A40290FFA8
:102E30000EC090910F012091100133E0939FF0019B
:102E40001124E755FD4F921718F00E94F2160895CD
:102E50008183608342839F5F3396F5CFA3E0B0E028
:102E6000E4E3F7E10C94732E9091A40290FF0AC062
:102E70009E012F5F3F4F0E9447164B8169818A81D7
:102E80000E9415172396E2E00C948F2ECF93DF93C8
:102E9000EC01EC81F0E0EA53FC4F4491E4EAF2E00B
:102EA000628181810E942E178C818F5F8C83DF91DC
:102EB000CF910895CF93DF93EC01E4EAF2E04381F0
:102EC00062818C810E942E178C818F5F8C83DF91B1
:102ED000CF910895A3E0B0E0E0E7F7E10C94712E04
:102EE0008C018091670281110AC09E012F5F3F4FC4
:102EF0004FEF6FEF0E9447168A8180936702F801B7
:102F00006481613069F08091670240E0662361F07E
:102F100040E0623011F44091670280E060E004C05C
:102F20006091670240E080E00E941517F8018481FB
:102F300090E0019663E070E00E94EF2D8483239679
:102F4000E4E00C948D2EA3E0B0E0E9EAF7E10C9404
:102F50006C2E082FD62EE42EC22E9091A40290FF44
:102F600029C0E92FE695AE2FB0E0A056BE4F8C9158
:102F7000809373029E7F923009F59E012F5F3F4F31
:102F8000802F0E9447164B8169818A810E94151704
:102F90000093A502D092A602E092A702CC2051F0A5
:102FA0006091A4027091A5028091A6029091A7025F
:102FB0000E9469162396E9E00C94882E823019F459
:102FC000E090A702E5CF863019F40091A502E0CF8A
:102FD0008930D9F38931E1F6E9516E2F6170B62E4F
:102FE000E695F0E0EA53FB4F1491F12C609111014A
:102FF000F61618F00E94F216CBCFF19EC0011124F4
:1030000070E00E94DB2D802FB11014C0860F20913C
:103010000F01622F6F0D7727771F9B01220F331F40
:10302000260F371F27553D4F4E2D6D2D0E944716F9
:10303000F394DCCF861BEBCFE4EAF2E09181282FFA
:103040004381628188E0890F0E94A317089581E07F
:103050000E941C180895E4EAF2E09181282F438130
:10306000628188EF890F0E94A317089581E00E9472
:103070002B180895E4EAF2E0628128E0620F08F478
:103080006FEF282F438181810E94A317089581E06B
:103090000E943A180895E4EAF2E0628128E0621B97
:1030A00008F460E0282F438181810E94A3170895CE
:1030B00081E00E944B180895E4EAF2E0438128E0A1
:1030C000420F08F44FEF282F628181810E94A317DD
:1030D000089581E00E945C180895E4EAF2E04381DB
:1030E00028E0421B08F440E0282F628181810E9481
:1030F000A317089581E00E946D18089520E00E94B2
:10310000A3170895EF92FF921F93CF93DF93EC01E3
:1031100010E0EE24EA94F12C60911101161770F082
:103120000E94F2169A818C8190FF27C08F5F8C835A
:10313000DF91CF911F91FF90EF90089520910F01A3
:10314000422F410F5527551FCA019A01220F331FE5
:10315000280F391F27553D4F70E0C7010E94EF2D02
:10316000962F8C814091A7026091A602199F800D35
:1031700011240E9447161F5FCFCF8150D8CFB0E0F7
:10318000A0E0E5ECF8E10C946B2EFC0182810FEFDE
:1031900080FF01E010E04CE0A42E8091110118178F
:1031A00098F00E94F21680916902013009F04FC038
:1031B000811102C080911101815080936902CDB7C5
:1031C000DEB7EAE00C94872EC0910F01C12ED12CFE
:1031D000CC0DDD2DD11DCE01880F991FC80FD91F31
:1031E000C755DD4F198218821A8234E0E32EF12C84
:1031F000B12C809169028B0D8D301CF16A2D0E94DB
:10320000CD2D892F082E000C990BC816D90691F4E4
:103210008091A7028E9DA0018F9D500D1124559580
:103220004795559547959E016091A6028091A5020C
:103230000E944716B00EF1E0EF1AF108D1F61F5FB9
:10324000ACCF87FFDFCF90911101890FDBCF90E0EA
:1032500001966091110170E00E94EF2DAECF0F93A7
:103260001F93CF93DF9380910F019091100123E082
:10327000829FF0011124E755FD4F891740F1C0E00E
:10328000D3E060911101C61740F10E94F21620911F
:103290000B0180916802820F8093680290910C016B
:1032A000920F90930C01191654F4082E000C990BF0
:1032B000409111014150550B841795071CF0219541
:1032C00020930B01DF91CF911F910F9108951182EF
:1032D000108212828F5F3396D0CF0C2F10E070E0F7
:1032E000C8010E94EF2D20910F01820F482F50E05E
:1032F00020916802022E000C330B02171307BCF05A
:1033000020910C01022E000C330B201731077CF0AA
:103310008D9F9001112427553D4F4091A702609148
:10332000A6028091A5020E944716CF5FAACFFA019C
:10333000EE0FFF1FE40FF51FE755FD4F11821082BE
:103340001282F3CFB0E0A0E0E8EAF9E10C94692E34
:10335000EC014C81042F10E09801D8010E943A2E14
:103360009B01AC010E94502E4B015C01E0E2F0E0B9
:10337000E01BF10BA5E5B0E0AC019B010E94502ED3
:103380006B017C019F01DF010E94322E9B01AC0189
:103390000E945B2E9B01AC01280D391D4A1D5B1D4F
:1033A000C701B6010E94032EF22E822F90E039E26F
:1033B0003F1520F143E0249F900111243595279576
:1033C000122F109500E085E5E82EEF18809111018D
:1033D000081718F10E94F2169C8181E0992319F0D8
:1033E000903219F48FEF80930A0180910A01890FBE
:1033F0008C83CDB7DEB7ECE00C94852E25E530E06C
:10340000B901681B790B9B01220F331F260F371F51
:1034100037FFD4CF2F5F3F4FD1CF8E2D01FD8F2DA2
:1034200020910F01622F600F7727771F9B01220FDA
:10343000331F260F371F27553D4F412F6091A6029E
:103440000E9447160F5FC2CF0F931F93CF93DF9356
:10345000EC0110E000E0909111019017110609F0C5
:103460006CF40E94F2168C8190E00196817099278D
:103470008C83DF91CF911F910F91089520910F01BF
:10348000A801420F511D9A01220F331F240F351F2F
:1034900027553D4F4C816091A6028091A5029695DB
:1034A0009017110651F04CF0442349F04091A702C7
:1034B0000E9447160F5F1F4FCECF4423B9F340E061
:1034C000F7CFE4EAF2E080818E7F808360817181B2
:1034D000828193810E946916109274022FEF80E717
:1034E00092E0215080409040E1F700C000000E942F
:1034F000F2160895E4EAF2E080818E7F80831092D4
:1035000074022FEF80E792E0215080409040E1F775
:1035100000C000000E94F21608951092740280917B
:10352000710281110AC081E0809371028091A4022E
:103530008170809370020E947A1A08956091A402AB
:10354000669570E04BE050E082E191E00E94A62E8B
:10355000892B19F481E0809374020E94D525909301
:103560006B0280936A0208959091A40290FF2BC091
:103570009170811129C092609093A402662351F04A
:103580006091A4027091A5028091A6029091A70279
:103590000E9469166091A402669570E04BE050E0CD
:1035A00082E191E00E94A62E892BA9F0109274026C
:1035B00081E080936D024091A7026091A602809104
:1035C000A5020E947E180895853210F09864D4CF29
:1035D000880F982BD1CF0E949E1AEACF682F909126
:1035E000A402969581E0890F853208F081E00E945F
:1035F000B41A089581E00E94EE1A0895682F909100
:10360000A40296958FEF890F09F484E20E94B41A00
:10361000089581E00E94FE1A089561E00E94B41AA4
:103620000895E4EAF2E080818160808386950E94BB
:103630000D1B08958091A40280FF03C00E94611AAF
:1036400008950E94111B089560E00E94B41A089525
:103650008091720281112EC00E944A0E811104C015
:103660000E94F70E0E9487160E9464166093A402BF
:103670007093A5028093A6029093A7026E7F61F4D7
:103680000E9487160E9464166093A4027093A5029C
:103690008093A6029093A7020E945516109274027E
:1036A0008091A40280FF03C086950E94241B81E0C4
:1036B000809372020895E4EAF2E080818160808361
:1036C00086950E94241B08951092710280917002C9
:1036D00081110E945B1B0E949E1A08950F931F93F5
:1036E000CF93DF93809174028823B9F180917302A4
:1036F000E091A402E695E81BE0936C02823091F51C
:10370000F0E0EE53FC4FE491CE2FD0E006E417E159
:1037100080916D02882361F010926D020E94D52580
:1037200090936B0280936A0210926F0210926E0265
:103730000E94D525E0916A02F0916B028E1B9F0BCF
:103740008F3F9F4750F4EC0FFD1FF0936B02E09307
:103750006A028AE692E0F8010995DF91CF911F9104
:103760000F910895863049F4F0E0E154FC4FE49164
:10377000CE2FD0E00AE517E1CBCF893051F4E695A2
:10378000F0E0E454FC4FE491CE2FD0E002E818E1E1
:10379000BFCF8F3051F4E695F0E0E754FC4FE49151
:1037A000CE2FD0E00FEB18E1B3CF853149F4F0E034
:1037B000EA54FC4FE491CE2FD0E00FE219E1A8CFFC
:1037C000C8E2D0E002EA19E1883109F4A1CF8332DE
:1037D00039F4E4EBF3E0C591D4910AE617E198CF10
:1037E000C4EFD1E004E21AE1843209F491CFC0EDD4
:1037F000D7E003E416E18CCFFA01811101C0FB018F
:1038000009950895CF93DF93C82FD62F0E9497165E
:103810008C1748F00E9497168D1728F40E94FA1A08
:10382000DF91CF9108958C2F0E940D1BF9CF1F932C
:10383000CF93DF93EC01FB01128111117EC00E9436
:103840005C0D8272CC3CFCE5DF0709F49CC008F0FB
:1038500041C0C63CECE5DE0709F481C0D8F4C33CA6
:103860009CE5D90709F471C030F4C23CDC4509F489
:1038700069C011E062C0C43C9CE5D90709F46AC084
:1038800046E358E167E278E1C53CDC4591F70E94E8
:10389000FC1B53C0C93CFCE5DF0709F46AC068F4AF
:1038A000C73CECE5DE0709F45FC047E458E168E592
:1038B00078E1C83CDC4559F3DCCFCA3C9CE5D9072C
:1038C00009F45CC04BEC56E163EB76E1CB3CDC45A4
:1038D000F1F2CFCFC13DFCE5DF0709F465C098F4F4
:1038E000CE3C9CE5D90709F457C008F451C0CF3C41
:1038F000FCE5DF0709F455C0C03DDC4509F0B9CF50
:103900006EE089E04BC0C43D9CE5D90709F452C084
:1039100058F4C23DFCE5DF0709F449C0C33DDC456E
:1039200009F0A7CF88E135C0C53D9CE5D90709F46A
:1039300044C0CD35DD4509F09CCF812FDF91CF917B
:103940001F9108950E941A1BF8CF49E05BE16AEFCE
:103950007AE19DCF4AEF5AE169E07BE198CF47E2F7
:1039600058E166E378E193CF48E558E167E478E110
:103970008ECF4AE758E169E678E189CF49E658E118
:103980006AE778E184CF43EB56E16BEC76E17FCFD9
:1039900081E00E940D1BD1CF65E082E00E94021CF5
:1039A000CCCF68E086E0FACF64E18FE0F7CF67E143
:1039B00085E1F4CF62E289E1F1CF83E2EACF86E0EC
:1039C00090E00E94C02E0895682F86E090E00E944B
:1039D000D42E08958091CD020E94E41C0895EDEC50
:1039E000F2E080818470896180830E94E41C0895E4
:1039F0008091CD0286958695869508950E944A0EFF
:103A0000811104C00E94F70E0E94EF1C0E94DF1C6F
:103A10008093CD02803220F0877088618093CD0240
:103A20009091CD02892F817090FF04C0892F8695D7
:103A3000869586950E94071E08958091CD02982F45
:103A4000969596959695933040F49F5F990F990FB0
:103A5000990F8770892B8093CD028091CD02816070
:103A60008093CD020E94E41C8091CD0286958695BC
:103A700086950E94071E08958091CD02982F987F09
:103A800079F088508093CD02887F91E009F490E02E
:103A90008091CD0290FB80F98093CD020E94E41CBE
:103AA0008091CD028695869586950E94071E089581
:103AB0008091CD0280FD13C081608093CD02813062
:103AC00019F489E08093CD028091CD020E94E41C1C
:103AD0008091CD028695869586950E94071E089551
:103AE0008091CD0280FF08C08E7F8093CD020E941E
:103AF000E41C80E00E94071E08958091CD0280FFA3
:103B000003C00E94701D08950E94581D0895909151
:103B1000CD02892F8695869586958F5F8F719770D8
:103B20008430E0F4880F880F880F892B8093CD02B2
:103B30008091CD02887F91E009F490E08091CD02E0
:103B400090FB80F98093CD020E94E41C8091CD020D
:103B50008695869586950E94071E08959093CD02BE
:103B6000E7CF843008F083E09091CD029770282F42
:103B7000220F220F220F922B9093CD02987F21E0EB
:103B800009F420E09091CD0220FB90F99093CD02B2
:103B90000E94071E08950E94B11D8091CD020E94CF
:103BA000E41C08959C01FB018281882349F12D3B8F
:103BB000FCE53F07C9F040F42B3BECE53E0769F01C
:103BC0002C3B3C4579F008952F3B9CE5390791F05B
:103BD00070F0203C3C4589F0089583E00E94CB1DA5
:103BE00080E0089580E0FACF0E943C1DF9CF0E944A
:103BF0001D1DF6CF0E947D1DF3CF0E94871DF0CFC3
:103C000081E00895279A2F9808952F9808958F920C
:103C10009F92AF92BF92EF92FF920F931F93CF9319
:103C2000DF93C82F8430C0F5811137C080918000A8
:103C3000877F809380000E94051EA0918600B0912E
:103C400087002C2F30E00E943A2E23E030E040E045
:103C500050E00E94032E89019A0180918600909184
:103C600087006CE070E00E94DB2D60177107D8F0D0
:103C7000C80169E070E00E94DB2D70938D006093B5
:103C80008C00DF91CF911F910F91FF90EF90BF902B
:103C9000AF909F908F900895C3E0809180008860DE
:103CA00080938000CACF8091860090918700E09039
:103CB0008600F0908700E0918600F0918700C6E0D2
:103CC000D0E0BE010E94DB2D060F171F211D311D04
:103CD0004801590185E0880C991CAA1CBB1C8A95D7
:103CE000D1F7C701BE010E94DB2D9F0150E040E0EB
:103CF000260F371F411D511DC501B4010E94032E1F
:103D000049015A01E0918600F0918700CA01B9018A
:103D10000E94BD2D9B01AC01DF010E94502E9B0132
:103D2000AC01C501B4010E94BD2D2FE09695879589
:103D3000779567952A95D1F70091860010918700B5
:103D400030E020E0061717072807390708F095CF5D
:103D5000609186007091870090CF08950E94021EA6
:103D60008AE08093800089E1809381008FEF9FEF4C
:103D700090938700809386000E94FE1C08956A9AA3
:103D80004EB14B7F5EB15460EFB7F8949B01220FA8
:103D9000331F260F371F280F391F2817390741F403
:103DA000EFBF8FE594E00197F1F700C000000895A0
:103DB000DC016D91CD0178E05EB9000000C067FFC5
:103DC0004EB9660F000000C000C000C04EB900C070
:103DD0007A9591F7E2CF83E290E00E94C02E823282
:103DE00089F484E290E00E94C02E863059F485E286
:103DF00090E00E94C02E91E0853009F090E0892F7C
:103E00008170089580E0FCCFCF93C82F6FEF8111B0
:103E100062E283E290E00E94D42E6FEFC11166E06F
:103E200084E290E00E94D42E6FEFC11165E085E23C
:103E300090E00E94D42ECF910895089586E290E0FC
:103E40000E94C02E682F70E090E080E008950895F1
:103E5000CF93C62F0E94271F6C2F86E290E00E940E
:103E6000D42ECF91089580E00E94041F60E070E09E
:103E7000CB010E94281F0E945D220E943A2381E00C
:103E80000E94041F08950E941D1F0E941E1F0E9471
:103E9000271F0E94EB1E811102C00E94331F08954C
:103EA000CF93FB01C281CC2309F19C0122513F45F4
:103EB0002031310520F582510E944A23C0E08C2F29
:103EC000CF91089581E00E948E0943E062E081E095
:103ED0000E944D04F3CF81E00E949A0943E062E022
:103EE00081E00E944D04EBCF82E0F6CF8031FFE508
:103EF0009F0789F381319F45B9F3C1E0E0CF80315D
:103F0000EFE59E07F9F281319F45C9F682E0DBCFEC
:103F10002FEFFC0120830895CF93DF93EC0188817C
:103F2000893029F08A3079F0DF91CF9108950E948D
:103F3000F81C2FEF829FC001112463E070E00E9403
:103F4000DB2D6983F1CF1982EFCFFC01208129306D
:103F500061F48181F3E08F9FC00111246FEF70E065
:103F60000E94DB2D862F0E94B11D0895CF93DF9311
:103F7000EC0188818138A9F028F4803871F0DF9154
:103F8000CF910895823881F08338C9F70E94E516F1
:103F900089830E94E8168A83F2CF0E94EB168983F8
:103FA000EECF0E949716FBCF0E94CF16F8CFCF938B
:103FB000DF93EC0188818138D9F028F4803869F0EA
:103FC000DF91CF9108958238F9F08338C9F70E94C4
:103FD000EB16482F6A81898108C0D9810E94E816B2
:103FE000C82F0E94E5164D2F6C2F0E947E18E8CF37
:103FF00089810E94241B8981811103C00E947A1A41
:10400000DFCF0E945B1BDCCF89810E94E116D8CFF5
:10401000B0E0A0E0EEE0F0E20C946E2EEC01D62EC3
:10402000DC01ED918D01E150E33108F0B6C0F0E024
:10403000EA5EF04D0C94252E198289E08A836D2D5D
:10404000CE010E94D526CDB7DEB7E7E00C948A2ECC
:104050008981823069F0833071F08130D9F40E9417
:10406000E1250E942B2E6A837B838C839D83E7CF7F
:104070000E941E1FF6CF7E0110E0812F0E94E411E6
:10408000F701928383831F5FF2E0EF0EF11C15307E
:10409000A1F7D5CF6D2DCE010E94881FD0CF898189
:1040A0008230C1F76A817B818C819D810E942B2E99
:1040B0000E94281FC4CF4B816A8189810E941F22E0
:1040C0009827892798279D838C83B9CF2C813D81A0
:1040D0003227232732274B816A8189810E9441221E
:1040E000AECF0E945D22ABCFCD010E94A51FC801BB
:1040F0000E94D71FA4CFCD010E948C1FC8010E942F
:10410000B61F9DCF0E94EA1C0E947C1698CF0E9489
:10411000EB22898394CF0E94ED2298278927982744
:104120009A8389838CCF6B8170E089819A81AE01FB
:104130004C5F5F4F9827892798270E94F0227FCFF6
:104140006B8170E089819A81AE014C5F5F4F982747
:10415000892798270E94152372CF0E943A236FCF98
:104160000E940D22D6CF6B8170E089819A81AE01C9
:104170004C5F5F4F9827892798270E9495225FCF31
:104180006B8170E089819A81AE014C5F5F4F982707
:10419000892798270E94B92252CF8FEF88834FCF6B
:1041A000CF93DF93EC01FB018281882309F433C1B3
:1041B000C330FDE5DF07C0F5CA3F9CE5D90730F401
:1041C0009E0122503C4524313105B0F50E94600E1D
:1041D00090938F0280938E02C1318CE5D80709F449
:1041E000EEC008F069C0C930ECE5DE0709F4D5C0BF
:1041F000C8F5C5308CE5D80709F4C7C000F5C33051
:10420000ECE5DE0709F4B9C008F0BBC0C230DC45FC
:1042100009F4ADC080918E0290918F020E946E0EC3
:104220000E94170980E008C0C136EDE5DE0771F293
:10423000C53AFDE5DF0751F2DF91CF9108958091F6
:104240008E028062C7309CE5D90709F493C0809143
:104250008E028061C830DC4508F48CC080918E02EB
:10426000806488C080918E028B7FCD30FCE5DF07B3
:1042700009F480C098F480918E028E7FCB309CE54B
:10428000D90709F477C080918E028C60CC30DC4570
:1042900008F470C080918E028D7F6CC080918E0278
:1042A0008F7ECF30FCE5DF0709F464C008F47BC0E3
:1042B00080918E028F7D5EC0CD3F9CE5D90709F4C9
:1042C0007AC050F5C531FCE5DF0709F486C098F4E3
:1042D00080918E02837FC3319CE5D90709F44AC0DF
:1042E00008F471C00E94170990918E02892F97FBE4
:1042F00087F980583FC0CB3FFCE5DF0709F449C090
:1043000008F055C080918F028160CA3FDC4509F0FA
:1043100081CF80938F027ECFC130EDE5DE0709F4B7
:1043200068C0A8F4CF3F8CE5D80709F452C080914B
:104330008F028360C115DD4560F380918F02982F55
:10434000909591708E7F892B90FB81F9E2CFC136D9
:10435000EDE5DE0709F451C0C53AFDE5DF0709F4D4
:1043600053C0C230DD4509F055CF80E043C0809195
:104370008E02816080938E024DCF80918E0282608A
:10438000F9CF80918E028460F5CF80918E02886093
:10439000F1CF80918F028260BCCF0E94170980917B
:1043A0008E028068E7CF80918E02877FE3CF809175
:1043B0008F028E7FAECF80918F028D7FAACF8091AA
:1043C0008E028F7BD7CF0E94170980918E028F7744
:1043D000D1CF80918F028C7F9CCF80918E0282FB07
:1043E000992790F921E0922790FB82F990FB83F9BD
:1043F000C1CF81E00E94FA0E0DCF90918E02892FDD
:104400008F7E94FF8061B6CF90918E02892F8E7F30
:1044100090FF8160AFCF81E00FCF84E0089550E03E
:10442000440F551F9EE1699F400D511D112496E9CF
:10443000899F400D511D1124CA01879608950F933D
:104440001F93CF93DF938430C8F46530B8F44F30B6
:10445000A8F40E940F228C010E94C02EC82FD0E029
:10446000DC2FCC27C80101960E94C02E9E01282B6C
:10447000C901DF91CF911F910F91089590E080E0E5
:10448000F8CF0F931F93CF93DF93122F032F843016
:1044900078F4653068F44F3058F40E940F22EC0134
:1044A000602F0E94D42E612FCE0101960E94D42E3F
:1044B000DF91CF911F910F910895AF92BF92CF924C
:1044C000DF92EF92FF921F93CF93DF938CEAC82E77
:1044D00080E0D82ED0E07601C0E014C0F50125912F
:1044E0003491412F6C2F8D2F0E94412282E0A80E23
:1044F000B11C1F5F1F3091F78EE1E80EF11CCF5FFA
:10450000C53019F0570110E0E9CFDF5F86E9C80E2A
:10451000D11CD43001F7DF91CF911F91FF90EF9024
:10452000DF90CF90BF90AF900895EF92FF920F93DE
:104530001F93CF93DF93EC018A017C01E60EF71EF7
:10454000CE018796CE15DF0529F4CDB7DEB7E6E0BC
:104550000C948B2EC83522E0D20740F40E94C02E66
:10456000F80180830F5F1F4F2196EACFF801108278
:10457000F9CFB0E0A0E0EFEBF2E20C946D2E7C01FD
:104580006A018C01060F171FEC01CE018796C01738
:10459000D10729F4CDB7DEB7E8E00C94892EC835F1
:1045A00022E0D20740F4FE01EE19FF09EC0DFD1DDB
:1045B00060810E94D42E2196E8CF462F843040F4AB
:1045C000753030F46F3020F4672F0E941F22089559
:1045D00090E080E0089580E1089581E891E00895F9
:1045E000EF92FF920F931F93CF93DF93EC018A0119
:1045F0007C01E60EF71ECE0181589D4FCE15DF05DA
:1046000029F4CDB7DEB7E6E00C948B2EC13821E05B
:10461000D20740F40E94C02EF80180830F5F1F4F25
:104620002196E9CFF8011082F9CFB0E0A0E0EBE1EC
:10463000F3E20C946D2E7C016A018C01060F171FAA
:10464000EC01CE0181589D4FC017D10729F4CDB799
:10465000DEB7E8E00C94892EC13821E0D20740F49F
:10466000FE01EE19FF09EC0DFD1D60810E94D42EA4
:104670002196E7CFCF93DF93CFE7D2E060E0CE0182
:104680000E94D42E2196C11584E0D807B9F7DF9196
:10469000CF910895A4E0B0E0E0E5F3E20C946E2E33
:1046A000F82E8FE08F1548F18FEF93E00E94C02E17
:1046B000811123C00FE712E0F11023C019821A8282
:1046C0001B821C82DD24D39478018FEFE81AF80A4C
:1046D000C8010E94C02E89831A82882371F09FEF3F
:1046E000980F9330D8F48A83D9820E5F1F4FC70189
:1046F0000E94C02E8B83811112C02496E7E00C9497
:104700008A2E011584E01807C1F3C8010E94C02E4B
:10471000811101C0FA940F5F1F4FCECF8701CE01E8
:1047200001960E94B205D0CFCF93DF93EB01863183
:104730009C4511F50E945C0D9A81992399F08A7A23
:1047400091E009F490E090937502811109C089E22B
:104750000E94340D0E949D0D80E0DF91CF9108955D
:1047600085E3F6CF80917502811104C089E20E9431
:104770003C0DF0CF85E3FBCF81E0EFCF0F931F938C
:10478000CF93DF93C42FD22FFC0182818823C9F0FD
:10479000409378020E94D525909377028093760209
:1047A00080E28C0F883040F4C77081E001C0880F30
:1047B000CA95EAF70E94C306DF91CF911F910F912E
:1047C000089510917802141332C08091760290916E
:1047D00077020E94ED25883C910548F5C0E2CD0F97
:1047E0001D17B9F080E2810F883040F4177081E026
:1047F00001C0880F1A95EAF70E94CA06C83048F42B
:1048000081E09D2F977001C0880F9A95EAF70E946A
:10481000C306802F0E94BA06C83070F6D77081E0B8
:1048200001C0880FDA95EAF70E94CA06C5CF80E278
:104830008C0F883008F6C77081E001C0880FCA95D8
:10484000EAF7F2CF0F939C01CB01233F4CE53407ED
:1048500059F1A8F4283DFCE53F0701F1293D4CE55D
:104860003407D1F1273D3C4591F406E221EE41EEBB
:1048700067ED7CE50E94BE2380E00F910895253FFF
:10488000FCE53F07E9F0B0F0263F3C45F9F0FC01BC
:104890008281882339F110927802EFCF07E225EE6A
:1048A00045EE68ED7CE5E6CF06E221EE40EE63EFF3
:1048B0007CE5E0CF07E225EE44EE64EF7CE5DACF5D
:1048C00006E221EE42EE65EF7CE5D4CF07E225EE6D
:1048D00046EE66EF7CE5CECF08E221E045EE69EDDD
:1048E0007CE5C8CF81E0C9CF9093D5018093D401F6
:1048F000089590937E0280937D020895E0917D0259
:10490000F0917E02309729F00190F081E02D099519
:10491000089580E00895E0917D02F0917E02309745
:1049200021F00280F381E02D09950895E0917D0248
:10493000F0917E02309739F022E0DC012C93048064
:10494000F581E02D0995089520917B0230917C023C
:104950002817390771F090937C0280937B02E091D5
:104960007D02F0917E02309721F00680F781E02DE4
:10497000099508952091790230917A022817390714
:1049800071F090937A0280937902E0917D02F09128
:104990007E02309721F00084F185E02D099508957D
:1049A0009C012E5F3F4FAC01485F5F4F80E02417B2
:1049B000350709F40895F90191919F019923B9F3FD
:1049C0008F5FF5CF662349F0FC013296089621915E
:1049D000261729F0E817F907D1F780E0089581E05C
:1049E00008959C01FC0132969FEF80E041914617AB
:1049F00051F09F3F19F4411101C0982F8F5F86300D
:104A0000A9F79F3F09F40895290F311D97FD3A95A5
:104A1000F90162830895FC013296089621912613CC
:104A200003C0DF0111971C92E817F907B9F7089541
:104A30000E94F12408950E940B250895029626E015
:104A4000FC0111922A95E9F7089546E050E00E9492
:104A5000B32E21E0892B09F420E0822F08950895D8
:104A60000E942F250895811106C081E080937F0266
:104A70000E943025089582E0F9CF83E080937F0281
:104A80000E94302508950E943325089581E0809387
:104A90007F020E94302508950E94462508950895BA
:104AA00008950E9450250895089508950E944F2565
:104AB0000895CF930E9454250E94B3120E94552559
:104AC000C0E08C2F0E94E411892B31F4CF5FC530F8
:104AD000C1F780E0CF91089581E0FCCF85B7806871
:104AE00085BF85B7806885BF08951F921FB61F9246
:104AF00011248F939F93AF93BF9380918002811174
:104B000013C08091CE029091CF02A091D002B091BB
:104B1000D1024196A11DB11D8093CE029093CF0288
:104B2000A093D002B093D102BF91AF919F918F918A
:104B30001F901FBE1F9018958091D602843031F1CE
:104B40000E94DC041092800288E190E020E40FB61D
:104B5000F894A895809360000FBE2093600083B7FF
:104B6000817F846083BF83B7816083BF7894889599
:104B700083B78E7F83BF0FB6F894A89580916000AD
:104B8000886180936000109260000FBE08950E94BB
:104B900017090E94E604089582E084BD93E095BD64
:104BA0009AEF97BD80936E0008952FB7F894809187
:104BB000CE029091CF02A091D002B091D1022FBF2E
:104BC00008952FB7F8946091CE027091CF02809132
:104BD000D0029091D1022FBF08959C014FB7F89455
:104BE0008091CE029091CF02A091D002B091D102DB
:104BF0004FBF821B930B089578941F921FB61F928C
:104C000011248F939F93AF93BF938091CE02909185
:104C1000CF02A091D002B091D1020196A11DB11D89
:104C20008093CE029093CF02A093D002B093D10292
:104C3000BF91AF919F918F911F901FBE1F901895AC
:104C400081E08093E00080E28093D8001092C90058
:104C50008FE19EE40197F1F700C0000087E090EB40
:104C6000DC018093DF029093E002A093E102B09315
:104C7000E20288E19CE00FB6F894A895809360006A
:104C80000FBE90936000FFCF88E19CE00FB6F894D0
:104C9000A895809360000FBE90936000FFCF809135
:104CA0008C02089508959C0184E08093E9009FEFB1
:104CB0008091E800915085FD06C085ED8A95F1F759
:104CC00000009111F5CF8091E80085FF0CC050E005
:104CD00040E066E070E0C9010E94E7288091E800AA
:104CE0008E778093E8000895CF93DF93EC0181E005
:104CF0008093E9008FEF9091E800815095FD06C008
:104D000095ED9A95F1F700008111F5CF8091E800BB
:104D100085FF14C050E040E068E070E0CE010E94E2
:104D2000E7288091E8008E778093E80088E0FE0114
:104D3000A4E8B2E001900D928A95E1F7DF91CF915E
:104D40000895809381027093830260938202809120
:104D5000D6028430F9F48093E9008FEF9091E80057
:104D6000815095FD06C095ED9A95F1F700008111EF
:104D7000F5CF8091E80085FF0DC050E040E063E092
:104D800070E081E892E00E94E7288091E8008E7749
:104D90008093E8000895BC0184E00E94A126089554
:104DA000BC0183E00E94A1260895CF93FC016032EC
:104DB00021F58091D602843001F5C091E900CF70D1
:104DC0002091EC00922F917020FD90E8C92B82E099
:104DD0008093E9008091E80080FF0CC050E040E043
:104DE00060E270E0CF010E94E7288091E8008E77B2
:104DF0008093E800CF70C093E900CF91089580912F
:104E0000D502811109C00E94C62A0E94232B8091DD
:104E1000E20084608093E20008951092D502089524
:104E20000E94462508956091D20281E0611101C07F
:104E300080E00E943D2508959091D60281E0943053
:104E400009F080E06091D2020E944325089542E07B
:104E500061EC81E00E94422A42E261EC84E00E941F
:104E6000422A42E261EC82E00E94422A42E260EC85
:104E700083E00E94422A9091D60281E0943009F0AA
:104E800080E06091D2020E94332508958091D8027B
:104E9000833009F463C030F48130E1F1823009F4E9
:104EA000A0C008958A3009F48CC08B3009F471C019
:104EB000893009F052C08091D702813209F04DC08B
:104EC0008091DB029091DC02009719F0029709F0C3
:104ED00044C08091E800877F8093E8008091E800DB
:104EE00082FF37C09091F3008091F200029731F475
:104EF0008091F100813011F0863021F48091F10031
:104F000080938C028091E8008B778093E8000E9468
:104F1000762A23C08091D702813AF9F48091E80083
:104F2000877F8093E8008091DB029091DC02892BDF
:104F300061F468E084E892E070E00E948529809145
:104F4000E8008B778093E800089560E090E080E0CF
:104F5000F3CF8091D6028111C1CF08958091D702FD
:104F6000813AD9F78091DB029091DC02892BA9F775
:104F70008091E800877F8093E8008091E80080FFBF
:104F8000FCCF809129018093F1008091E8008E7719
:104F9000BCCF8091D702813201F78091DB029091E2
:104FA000DC02892BD1F68091E800877F8093E800AE
:104FB0000E94762A8091D902809329010E941709C4
:104FC00008958091D702813241F68091E800877F71
:104FD0008093E8000E94762A8091DA0280938D0205
:104FE00008958091D702813A09F0B7CF8091E80007
:104FF000877F8093E8008091E80080FFFCCF80915C
:105000008D02C1CF84B7877F84BF0FB6F894A8956F
:1050100080916000886180936000109260000FBEF4
:1050200080E890E00FB6F89480936100909361005F
:105030000FBE0E944C2508950E94C62A0E94232B71
:10504000E2EEF0E080818460808378940E94A22D5B
:1050500008958DE191E00E94792408958091D6020F
:10506000853031F48091D602853019F00E94C72531
:1050700008950E949C258091D402882399F30E9470
:105080005925882379F30E94D1280E941709EACF75
:10509000A0E2B0E0EEE4F8E20C94732E8091D60228
:1050A000843009F583E08093E9008091E80082FF75
:1050B0001AC08091E80090E085FF09C050E040E010
:1050C00060E270E0CE0101960E94362991E0809165
:1050D000E8008B778093E800992329F060E2CE0105
:1050E00001960E940820A096E2E00C948F2E0E9468
:1050F0007A280895292F33272330310521F168F4C8
:105100002130310509F443C02230310509F444C08F
:1051100090E080E030E020E026C02132310551F1FE
:1051200022323105A9F76330710590F7FB01EE0FCC
:10513000FF1FE853FE4F208131816B537E4FFB01EF
:10514000808190E010C099278130910581F000970F
:1051500029F00297E9F6EBECF5E002C0EFEFF5E09D
:10516000849190E09F01FA01318320830895EFED4F
:10517000F5E0F6CF6330710558F6660F771FFB0137
:10518000E253FE4F2081318189E090E0ECCF82E153
:1051900090E02EE536E0E7CF8BE590E023E036E0C7
:1051A000E2CF80E189BD82E189BD09B400FEFDCF77
:1051B0008091D8008F7D8093D8008091E00082603C
:1051C0008093E0008091E00081FDFCCF0895AF92D4
:1051D000BF92CF92DF92FF920F931F93CF93DF93F3
:1051E0006C01EB018A010E94952AF82E811123C0DF
:1051F0000115110539F0F80180819181C81BD90B87
:10520000C80ED91EB12CA12C2097A9F08091E800DE
:1052100085FD22C08091E8008E778093E80001151B
:105220001105A1F0F80180819181A80EB91EB1820B
:10523000A08285E0F82E8F2DDF91CF911F910F91E5
:10524000FF90DF90CF90BF90AF9008950E94952A75
:105250008823D1F2F82EEFCFF60181916F01809370
:10526000F1002197FFEFAF1ABF0ACECFAF92BF92E6
:10527000CF92DF92FF920F931F93CF93DF936C0136
:10528000EB018A010E94952AF82E811123C0011595
:10529000110539F0F80180819181C81BD90BC80E26
:1052A000D91EB12CA12C2097A9F08091E80085FD92
:1052B00022C08091E8008B778093E80001151105EA
:1052C000A1F0F80180819181A80EB91EB182A0825F
:1052D00085E0F82E8F2DDF91CF911F910F91FF90D8
:1052E000DF90CF90BF90AF9008950E94952A8823B9
:1052F000D1F2F82EEFCF8091F100F60181936F018A
:105300002197FFEFAF1ABF0ACECFFC018091DD02DB
:105310009091DE0286179707A0F06115710529F4B8
:105320009091E8009E779093E80090E061157105F8
:1053300051F4911108C08091E80082FF34C080E0F0
:105340000895BC01F2CF8091D6028823C1F1853047
:10535000C1F18091E80083FD30C08091E80082FDBA
:10536000EACF8091E80080FFE1CF8091F3002091A7
:10537000F200382F6115710519F02830310558F009
:1053800091E02830310509F090E02091E8002E7777
:105390002093E800CBCF81918093F1006150710997
:1053A0002F5F3F4FE7CF8091D602882341F08530B1
:1053B00041F08091E80083FFBECF81E0089582E054
:1053C000089583E00895FC018091DD029091DE0252
:1053D00086179707A0F06115710529F48091E80000
:1053E0008E778093E80090E06115710551F491117A
:1053F00008C08091E80082FF35C080E00895BC01BC
:10540000F2CF8091D6028823C9F18530C9F180910D
:10541000E80083FD31C08091E80082FDEACF8091F1
:10542000E80080FFE1CF8091F3002091F200382F57
:105430006115710519F02830310558F091E02830D8
:10544000310509F090E08091E8008E778093E800C4
:10545000CBCF84918093F1003196615071092F5F19
:105460003F4FE6CF8091D602882341F0853041F04E
:105470008091E80083FFBDCF81E0089582E0089528
:1054800083E00895982F973028F08F708093E9007B
:1054900081E008959093E900242F762F50E098172B
:1054A00031F07091EC002091ED005091F00021FD61
:1054B00002C09F5FE8CF3091EB003E7F3093EB005E
:1054C0003091ED003D7F3093ED003091EB00316085
:1054D0003093EB007093EC002093ED005093F000BC
:1054E0002091EE0027FDE5CF80E008958091D7025E
:1054F00087FF13C08091E80082FF06C08091E8001A
:105500008B778093E80004C08091D6028111F2CF9E
:1055100008958091D6028823D9F38091E80080FF16
:10552000F8CF8091E8008E77ECCF2091E4003091A5
:10553000E50095E6A9012091EC00822F817020FF03
:1055400006C08091E80080FF06C080E008952091A9
:10555000E80022FD1AC08091D602882389F08530A8
:1055600089F08091EB0085FD0FC02091E40030911F
:10557000E50042175307F9F29150E1F684E00895EF
:1055800082E0089583E0089581E008950E94352B1C
:105590000E943D2BE0EEF0E0808181608083E8EDA9
:1055A000F0E080818F77808319BCA7EDB0E08C910B
:1055B0008E7F8C9380818F7E80831092D502089598
:1055C0000F931F93CF93DF930E94352B0E943D2BA7
:1055D000C8EDD0E088818F77888388818068888350
:1055E00088818F7D888319BC1092D6021092D202D6
:1055F0001092D4021092D30200EE10E0F8018081E4
:105600008B7F808388818160888342E060E080E0D6
:105610000E94422AE1EEF0E080818E7F8083E2EEFC
:10562000F0E0808181608083808188608083F801E0
:1056300080818E7F8083888180618883DF91CF9194
:105640001F910F910895E8EDF0E080818F7E8083B7
:10565000E7EDF0E080818160808384E082BF81E0BB
:105660008093D5020E94E02A0895E8EDF0E0808161
:105670008E7F80831092E20008951092DA001092DB
:10568000E10008951F920F920FB60F9211242F93ED
:105690003F934F935F936F937F938F939F93AF93BA
:1056A000BF93EF93FF938091E10082FF0BC0809145
:1056B000E20082FF07C08091E1008B7F8093E100D0
:1056C0000E94A12D8091DA0080FF19C08091D8003E
:1056D00080FF15C08091DA008E7F8093DA00809180
:1056E000D90080FF96C080E189BD82E189BD09B4FF
:1056F00000FEFDCF81E08093D6020E94FF268091BC
:10570000E10080FF19C08091E20080FF15C0809108
:10571000E2008E7F8093E2008091E20080618093BE
:10572000E2008091D80080628093D80019BC85E0A7
:105730008093D6020E9413278091E10084FF2BC042
:105740008091E20084FF27C080E189BD82E189BDAC
:1057500089B5982F917080FFFBCF8091D8008F7D05
:105760008093D8008091E1008F7E8093E10080914A
:10577000E2008F7E8093E2008091E200816080935E
:10578000E2008091D202882309F449C084E080932A
:10579000D6020E941C278091E10083FF29C08091DE
:1057A000E20083FF25C08091E100877F8093E100C4
:1057B00082E08093D6021092D2028091E1008E7F27
:1057C0008093E1008091E2008E7F8093E2008091DF
:1057D000E20080618093E20042E060E080E00E94AD
:1057E000422A8091F00088608093F0000E94102788
:1057F000FF91EF91BF91AF919F918F917F916F91A9
:105800005F914F913F912F910F900FBE0F901F907E
:10581000189519BC1092D6020E940D2770CF809166
:10582000E30087FD93E09093D602B3CF1F920F92CF
:105830000FB60F9211242F933F934F935F936F9363
:105840007F938F939F93AF93BF93CF93DF93EF9308
:10585000FF93D091E900DF708091EC00C82FC170F8
:1058600080FDC0E81092E9008091F000877F80936E
:10587000F00078940E945A2C1092E9008091F00078
:1058800088608093F000CD2BCF70C093E900FF912A
:10589000EF91DF91CF91BF91AF919F918F917F91C8
:1058A0006F915F914F913F912F910F900FBE0F908D
:1058B0001F901895AAE2B0E0E0E6FCE20C94722E8C
:1058C00087ED92E02091F100FC012193CF01F2E0FD
:1058D0008F3D9F07B9F70E9446278091E80083FF1C
:1058E0001EC18091D7029091D8029A3008F017C15A
:1058F000E92FF0E0E75DF04D0C94252E803899F00B
:10590000823809F00CC18091DB028F70873008F07B
:1059100006C18093E9008091EB0085FB882780F920
:105920001092E90006C08091D3029091D4029111A7
:1059300082609091E800977F9093E8008093F10057
:105940001092F1008091E8008E77E5C0882309F479
:10595000D3C0823009F0E3C08091D9028111D6C052
:105960008091DB028F702FEF280F263008F0D7C010
:105970008093E9002091EB0020FFC8C0933031F400
:105980008091EB0080628093EB00C0C09091EB00AF
:1059900090619093EB0021E030E001C0220F8A95E6
:1059A000EAF72093EA001092EA008091EB00886009
:1059B000EACF8111B4C01091D9021F778091E30022
:1059C0008078812B8093E3008091E800877F80932B
:1059D000E8000E94762A8091E80080FFFCCF809149
:1059E000E30080688093E30082E0111183E08093FC
:1059F000D60295C08058823008F091C08091D902BB
:105A00009091DA028C3D23E09207A1F583E08A832E
:105A10008AE289834FB7F894DE01139620E03EE0D6
:105A200051E2E32FF0E050935700E49120FF03C0D0
:105A3000E295EF703F5FEF708E2F90E0EA30C0F09C
:105A4000C7968D939D932F5F243159F74FBF809157
:105A5000E800877F8093E8006AE270E0CE0101965B
:105A60000E9485298091E8008B778093E80057C0D9
:105A7000C096E7CF6091DB027091DC02AE014F5F10
:105A80005F4F0E947728BC01892B09F448C0909190
:105A9000E800977F9093E80089819A810E94E3292A
:105AA000E1CF8038E1F58091E800877F8093E800BE
:105AB0008091D2028093F10045CF811130C0909146
:105AC000D902923060F58091E800877F8093E800EA
:105AD0009093D2020E94762A8091D202882311F0FC
