:100000000C94B7020C94EF020C94EF020C94EF02E4
:100010000C94EF020C94EF020C94EF020C94EF029C
:100020000C94EF020C94EF020C94871A0C94431A70
:100030000C94841B0C94EF020C94EF020C94EF02CE
:100040000C94EF020C94EF020C94EF020C94EF026C
:100050000C94EF020C94601B0C94EF020C94EF02D2
:100060000C94EF020C94EF020C94EF020C94EF024C
:100070000C94EF020C94EF020C94EF020C94EF023C
:100080000C94EF020C94EF020C94EF020C94EF022C
:100090000C94EF020C94EF020C94EF020C94EF021C
:1000A0000C94EF020C94EF020C94EF02050109028C
:1000B000A10185020901A1000509190129081500FE
:1000C0002501950875018102050109300931158165
:1000D000257F95027508810609381581257F9501D0
:1000E00075088106050C0A38021581257F95017572
:1000F000088106C0C005010980A101850319012AF4
:10010000B700150126B700950175108100C0050CD8
:100110000901A101850419012AA002150126A002E6
:10012000950175108100C005010906A1018506052C
:100130000719E029E71500250195087501810205D9
:1001400007190029EF1500250195F07501810205B9
:10015000081901290595057501910295017503910D
:1001600001C00660FF0961A1010962150026FF00B8
:100170009520750881020963150026FF00952075FA
:10018000089102C005010906A101050719E029E748
:1001900015002501950875018102950175088101F9
:1001A0000507190029FF150026FF0095067508812F
:1001B000000508190129059505750191029501753C
:1001C000039101C0000000000000000000000000DA
:1001D000000000000000000000000000000000001F
:1001E00000000000000000007E0F00D4FFFFFFC7EA
:1001F0000000007800000000000000002A2B28000A
:1002000000000000000000000000000000000029C5
:10021000000000002C1E3420212224342627252E05
:10022000362D3738271E1F2021222324252633333D
:10023000362E37381F0405060708090A0B0C0D0E69
:100240000F101112131415161718191A1B1C1D2F35
:100250003130232D350405060708090A0B0C0D0E55
:100260000F101112131415161718191A1B1C1D2F15
:100270003130354C167C1E001F002000210022006A
:10028000230024002500260027002D002E002A0030
:100290004A002B0014001A000800150017001C006B
:1002A00018000C00120013002F00300031004B002A
:1002B000392104001600070009000A000B000D0098
:1002C0000E000F0033003400000028004E00E10053
:1002D0001D001B000600190005002152110010002E
:1002E000360037003800E50052004C00E000000006
:1002F000E300E20000002C000000E6000000E40043
:1003000000000000500051004F00167C3A003B00F6
:100310003C003D003E003F004000410042004300E1
:1003200044004500007C4A000100207821782378B1
:100330002478257826782778287801004600470019
:100340004800007C4B00392129782A7801000100FF
:100350000100010001000100010001000100000096
:10036000037C4E00E10001000100010001000100DA
:10037000010001000100010001000100A900A80026
:100380000100010000000100010000000100000068
:1003900001000000010000000000AC00AA00AB005A
:1003A0000100010001000100010001000100010045
:1003B0000100010001000100010001000100010035
:1003C0000100010001000100010001000100010025
:1003D0000100010001000100010001000100010015
:1003E0000100010001000100010001000100010005
:1003F00001000100000001000100010001000100F6
:1004000001000100010001000100010001000100E4
:1004100001000100010001000100000001000100D5
:1004200000000100000001000000010000000000C9
:1004300001000100010001000100010001000100B4
:1004400001000100010001000100010001000100A4
:100450000100010001000100010001000100010094
:100460000100010001000100010001000100010084
:100470000100010001000100010001000100010074
:100480000100010001000100010000000100010065
:100490000100010001000100010001000100010054
:1004A0000100010001000100010001000100010044
:1004B0000000010001000000010000000100000038
:1004C00001000000000001000100010009025B00C2
:1004D000030100A0FA090400000103010100092141
:1004E00011010001224000070581030800010904F1
:1004F0000100020300000009211101000122220075
:1005000007058203200001070503032000010904F9
:100510000200010300000009211101000122B600C0
:1005200007058403200001120100020000000842B8
:100530004B69600100010200011C034D0061006A6B
:10054000006100200053006F006C006400650072C1
:100550000065006400000010034B004200440046A8
:100560000061006E00730000000403090400112400
:100570001FBECFEFDAE0DEBFCDBF04B603FE18C06A
:100580008091730290917402A0917502B0917602ED
:100590008730904BA740B04B59F4109273021092E1
:1005A00074021092750210927602E0E0F8E3099569
:1005B00011E0A0E0B1E0E0EEF2E402C005900D929F
:1005C000A236B107D9F722E0A2E6B1E001C01D9240
:1005D000A337B207E1F70E94AB1B0C941C210C94CB
:1005E0000000E8EDF0E080818E7F80831092E200D1
:1005F0001092DA001092E100A0EEB0E08C918160E0
:100600008C9380818F77808319BCA7EDB0E08C91AB
:100610008E7F8C9380818F7E80831092400208951C
:100620002091E4003091E50095E6A9012091EC00CD
:10063000822F817020FF06C08091E80080FF06C0F5
:1006400080E008952091E80022FD1AC080916502A3
:10065000882389F0853089F08091EB0085FD0FC0FB
:100660002091E4003091E50042175307F9F29150D0
:10067000E1F684E0089582E0089583E0089581E042
:1006800008958091670287FF13C08091E80082FF80
:1006900006C08091E8008B778093E80004C08091C9
:1006A00065028111F2CF0895809165028823D9F304
:1006B0008091E80080FFF8CF8091E8008E77ECCF42
:1006C000982F9093E900242F762F50E0891731F06E
:1006D0007091EC002091ED005091F00021FD07C0D9
:1006E0009F5F973071F78093E90081E00895309122
:1006F000EB003E7F3093EB003091ED003D7F309377
:10070000ED003091EB0031603093EB007093EC0022
:100710002093ED005093F0002091EE0027FDE0CFF4
:1007200080E00895B0E0A0E0E8E9F3E00C94A020B8
:10073000C8EDD0E088818F7E8883E7EDF0E080818E
:100740008160808384E082BF81E080934002888161
:100750008E7F888302EE10E0F80110821092DA009A
:1007600081EEC82ED12CF601108288818F77888384
:1007700088818068888388818F7D888319BC1092E6
:10078000650210926602109264021092630290EE6B
:10079000E92EF12CF70180818B7F80838881816035
:1007A000888342E060E080E00E946003F60180817F
:1007B0008E7F8083F8018081816080838081886062
:1007C0008083F70180818E7F808388818061888328
:1007D000CDB7DEB7E8E00C94BC20FC0180916D023F
:1007E00090916E0286179707A0F06115710529F4A4
:1007F0009091E8009E779093E80090E06115710574
:1008000051F4911108C08091E80082FF34C080E06B
:100810000895BC01F2CF809165028823C1F1853033
:10082000C1F18091E80083FD30C08091E80082FD35
:10083000EACF8091E80080FFE1CF8091F300209122
:10084000F200382F6115710519F02830310558F084
:1008500091E02830310509F090E02091E8002E77F2
:100860002093E800CBCF81918093F1006150710912
:100870002F5F3F4FE7CF80916502882341F085309D
:1008800041F08091E80083FFBECF81E0089582E0CF
:10089000089583E008958091420208959C014FB726
:1008A000F89480913A0290913B02A0913C02B09161
:1008B0003D024FBF821B930B08952FB7F894809190
:1008C0003A0290913B02A0913C02B0913D022FBFB1
:1008D0000895A3E0B0E0EFE6F4E00C94A6202091A8
:1008E00037023091380228173907A1F09093380267
:1008F00080933702E0913502F0913602309751F043
:1009000024E029839B838A830680F781E02DCE0132
:10091000019609952396E2E00C94C220A3E0B0E092
:10092000E4E9F4E00C94A6202091330230913402E3
:1009300028173907A1F09093340280933302E09195
:100940003502F0913602309751F023E029839B83E2
:100950008A830680F781E02DCE01019609952396C2
:10096000E2E00C94C220E0913502F091360230971B
:1009700029F00190F081E02D0995089580E0089517
:100980008F929F92AF92BF92EF92FF920F931F931D
:10099000CF93DF938430B8F5811136C090918000F9
:1009A0009F77909380002D98A0918600B09187004A
:1009B000282F30E00E947C2023E030E040E050E02F
:1009C0000E944D2089019A018091860090918700B4
:1009D0006CE070E00E94252060177107D8F0C80114
:1009E00069E070E00E942520709389006093880080
:1009F000DF91CF911F910F91FF90EF90BF90AF903B
:100A00009F908F90089583E09091800090689093DC
:100A10008000CACF8091860090918700E090860088
:100A2000F0908700E0918600F0918700C6E0D0E06A
:100A3000BE010E942520060F171F211D311D4801F0
:100A4000590185E0880C991CAA1CBB1C8A95D1F71A
:100A5000C701BE010E9425209F0150E040E0260F03
:100A6000371F411D511DC501B4010E944D20490190
:100A70005A01E0918600F0918700CA01B9010E94F5
:100A800015209B01AC01DF010E948B209B01AC0172
:100A9000C501B4010E9415202FE0969587957795A2
:100AA00067952A95D1F7009186001091870030E074
:100AB00020E0061717072807390708F095CF60913F
:100AC00086007091870090CF282F220F220F220FCF
:100AD000909132029770922B90933202987F21E08E
:100AE00009F420E09091320220FB90F990933202B9
:100AF0000E94C00408950E945D049C0190912E0202
:100B000080912F02982B21F030932B0220932A0200
:100B10009091300280913102982B21F0309329027C
:100B200020932802E0913502F0913602309749F087
:100B300082E080932C020480F581E02D8CE292E02B
:100B4000099508958091270280FD16C081FD16C089
:100B500082FD16C0809126028823A1F0883280F49D
:100B600028E0829FC001112468E270E00E943920D1
:100B7000862F672B39F0089582E0089584E0089568
:100B800088E0089581E008958091270280FD14C0D7
:100B900081FD14C082FD16C080912502882381F05A
:100BA0008E3180F420E5829FC00111246EE170E057
:100BB0000E943920862F089584E1089588E20895DF
:100BC00088E0089580E5089580E00895F894E82F7E
:100BD000E295EF70F0E031A1282F2F7081E090E0D6
:100BE00001C0880F2A95EAF7982F9095932391A337
:100BF00092A1892B82A37894089590913E0292FF4E
:100C000006C0282F28712830F9F4877F846093FF6D
:100C100006C0282F28712831F1F4877E8461209145
:100C20003F0220FF06C0382F38713830D9F4877F53
:100C3000816021FF06C0282F28712831D1F4877EDA
:100C4000816194FD877E0895282F24712430F9F660
:100C50008B7F8860DCCF282F2471243101F78B7EB5
:100C60008861DDCF382F3171313019F78E7F886080
:100C7000E0CF282F2171213121F78E7E8861E1CFCD
:100C8000CF93DF93EC0182389105B9F108F041C0B0
:100C90008133910509F49FC050F58932910509F41B
:100CA0008FC08A9709F49EC0C11520E5D20708F0CD
:100CB000BDC0C11530E4D30708F00AC1C03ED1055C
:100CC00008F0A5C0CD3CD10508F000C1C83AD10557
:100CD00008F08FC0C53AD10508F0F0C0C130D10589
:100CE00039F1209729F1C430D10510F546C085337C
:100CF000910509F460C0C997B9F680913E028370EE
:100D000009F044C180913F0283FF12C0C9E2D0E0E4
:100D10000FC0833E9105A1F178F4803E910509F161
:100D2000823E910509F0C0CF80913E0282FD21C034
:100D3000CE01DF91CF910895863E910561F1873E06
:100D4000910571F1843E910509F0AECF80913F028B
:100D500081FFEECF80913E02C7EED0E084FD0DC052
:100D6000E7CF80913E0280FD33C090913F0290FF1B
:100D7000DFCFC3EED0E084FFDBCFD0E0C0E0D8CF40
:100D800080913E0282FDFFC090913F0290FDFEC027
:100D900084FFCECFF2CF80913E0283FDDDCFC8CF5E
:100DA00080913E0283FDF5C090913F0291FFF0CF0C
:100DB000C4EED0E0BDCF80913E0285FFB9CFA6CF73
:100DC00080913E0285FDE8C080913F0283FFB0CF55
:100DD000C9E3D0E0ADCF80913E0286FFA9CFCAE241
:100DE000D0E0A6CF80913E0286FFA2CFC1E3D0E043
:100DF0009FCFC13CD10508F6C85AD0E0CC0FDD1F0B
:100E0000C45FDE4F0990D881C02DD46491CFC11545
:100E100040E2D40708F0AAC0C11581E0D80708F065
:100E200087CFC83ED10508F483CFA7CFC03622E5CF
:100E3000D20718F5C03432E5D30708F053C0C032EA
:100E400042E5D40708F047C0C11582E5D80708F489
:100E50007FC02C2F2695269540E2249F90011124D7
:100E60008C2F8370C1E0D0E002C0CC0FDD1F8A95CB
:100E7000E2F7C22BD32BDD685BCFC03A22E5D20765
:100E800060F4C03832E5D30708F441C0CF71D0E038
:100E9000DC2FCC27C46FD06A4BCFC03C42E5D407CF
:100EA00008F44AC0C03E82E5D80708F066CFDC2FC0
:100EB000CC27CC27DF71C06FD06A3ACFC55AD0E0BB
:100EC000C75FDE4FC881D0E0D06432CFD06530CF6D
:100ED000DF70D06A2DCFCF71D0E0DC2FCC27C16F6F
:100EE000D06A26CF2C2F26952695277080E2289F42
:100EF000900111248C2F8370C1E0D0E002C0CC0F90
:100F0000DD1F8A95E2F7C22BD32BDC6811CF2C2F83
:100F100026952695277040E2249F900111248C2F5E
:100F20008370C1E0D0E002C0CC0FDD1F8A95E2F7EC
:100F3000C22BD32BDA68FCCE8C2F8F710E94FD055B
:100F4000C82FD0E0DC2FCC27CC27DF71D062F0CEC9
:100F50008C2F8F710E94FD0535E0D695C7953A9587
:100F6000E1F7CF709C2FEC01D069E2CE8D2F8F710D
:100F70000E94FD0590E0982F882788279F719C018B
:100F80002C2BE901E3CFC2EED0E0D2CEC0EED0E010
:100F9000CFCEC6EED0E0CCCEC5E3D0E0C9CE8091B6
:100FA000FE0181111092FE01089580959091FD013E
:100FB00098239093FD010895909108019923D1F011
:100FC00090913E0297FF16C0E82FE695E695E695CC
:100FD000EE31E0F4F0E0EC59FE4F282F277081E06D
:100FE00090E001C0880F2A95EAF7809592818923C5
:100FF00082830895E6E6F1E09191891303C0DF0151
:1010000011971C9291E0EC36F907B1F70895909191
:1010100008019923C1F090913E0297FF14C0E82F78
:10102000E695E695E695EE31F8F4F0E0EC59FE4FE2
:10103000877021E030E001C0220F8A95EAF78281B3
:10104000822B82830895A6E6B1E0EFEF90E02D9128
:10105000821751F0EF3F19F4211101C0E92F9F5F72
:101060009630A9F7EF3F09F408950E2E000CFF0B00
:10107000EC59FE4FE6CF8091DA019091A9019813C7
:1010800001C008958F5F8770FACF292F953078F5CA
:101090008F3068F590E03FE0239F800D911D112473
:1010A000682F677023E0969587952A95E1F7FC01F4
:1010B000EE0FFF1FE80FF91FEB57FE4F50E040E027
:1010C00080E0219130E0062E02C0369527950A94E3
:1010D000E2F721703327042E01C0220F0A94EAF7A9
:1010E000822B4F5F5F4F4330510559F7089580E0E1
:1010F0000895292F953098F58F3088F590E03FE0DE
:10110000239F800D911D1124282F277041E001C0DD
:10111000440F2A95EAF723E0969587952A95E1F7FB
:10112000FC01EE0FFF1FE80FF91FEB57FE4F30E0F9
:1011300020E070E05191DF011197CB01022E02C037
:10114000969587950A94E2F7817081958527842387
:1011500085278C932F5F3F4F2330310559F7089532
:1011600080937202089580917202982F9670963043
:1011700021F488600E94B0080895877FFBCF21E0AA
:1011800030E001C0220F8A95EAF720958091720223
:1011900082230E94B00808959091DB0180958923F5
:1011A0008093DB01282F277091F4282F082E000C44
:1011B000330B9217130659F090913F0292FF07C02C
:1011C0008595859585950E94BF081092DB0108954D
:1011D00021E030E001C0220F8A95EAF78091720287
:1011E000822B0E94B00808958093FF010895662322
:1011F00009F45DC08D3C41F40E94C4058195809343
:101200002F020E947B0508958E3C19F40E94C405AC
:10121000F6CF8F3C31F40E94C405819580932E0255
:10122000F0CF803D19F40E94C405F8CF893D29F420
:101230000E94A20580933002E4CF8A3D21F40E94EF
:10124000A2058195F7CF8B3D31F40E94A2058195CF
:1012500080933102D6CF8C3D19F40E94A205F8CFBD
:101260009FE2980F983070F4815D990B21E030E097
:1012700001C0220F8A95EAF780912D02822B80937C
:101280002D02BFCF8D3D31F4809127028160809384
:101290002702B7CF8E3D21F4809127028260F7CFDD
:1012A0008F3D09F0AECF809127028460F0CF40914E
:1012B0002E028D3C59F480912F0287FF0DC01092B1
:1012C0002F0241110BC01092250208C08E3C81F400
:1012D00080912F0218169CF3442381F080913002F4
:1012E00090913102892B09F08CCF1092260289CF80
:1012F0008F3C49F447FFF0CF10922E0280912F02CD
:101300008111ECCFE0CF803D19F41416ACF3E4CF9B
:1013100090913002893D29F41916F4F610923002AA
:10132000DBCF8A3D19F497FFD7CFF8CF90913102E8
:101330008B3D29F497FFD0CF10923102CDCF8C3D59
:1013400019F41916CCF3C8CF9FE2980F983090F497
:10135000815D990B21E030E0B90102C0660F771F73
:101360008A95E2F7CB01809590912D028923809395
:101370002D02B2CF8D3D31F4809127028E7F809374
:101380002702AACF8E3D21F4809127028D7FF7CFCF
:101390008F3D09F0A1CF809127028B7FF0CF81FD97
:1013A00002C05C9A08955C9808950F931F93CF93A1
:1013B000DF938B01EA0190916502943061F580938F
:1013C000E9008FEF9091E800815095FD06C095ED02
:1013D0009A95F1F700008111F5CF8091E80085FF23
:1013E0001AC00E941003811111C08091E80085FD90
:1013F00006C08091E8008E778093E800F2CFF80174
:1014000081918F018093F100219779F78091E80015
:101410008E778093E800DF91CF911F910F9108950F
:1014200043E050E0BC0184E00E94D509089546E005
:1014300050E0BC0184E00E94D5090895CF93DF936A
:10144000EC0180910801811111C048E050E0BE011B
:1014500081E00E94D50980E2FE01A3E4B2E00190A0
:101460000D928A95E1F7DF91CF91089580913E0228
:1014700087FF05C040E284E050E0BE01EACF48E0CB
:1014800081E0FACF81E08093E00080E28093D80091
:101490001092C9008FE19EE40197F1F700C00000AF
:1014A00087E090EBDC018093730290937402A09329
:1014B0007502B093760288E19CE00FB6F894A89587
:1014C000809360000FBE90936000FFCFCF93DF93B7
:1014D000CEE7D2E060E0CE010E94DB202196C1156C
:1014E00084E0D807B9F7DF91CF9108951F93CF9388
:1014F000DF93122F8430E0F46530D0F44F30C0F425
:10150000C42FD0E0CC0FDD1F9EE1699FC00DD11D1F
:10151000112496E9899FC00DD11D1124632FCE019E
:1015200086960E94DB20612FCE0187960E94DB20E9
:10153000DF91CF911F910895AF92BF92CF92DF922A
:10154000EF92FF921F93CF93DF9384E7C82E82E040
:10155000D82ED0E07601C0E014C0F5012591349179
:10156000412F6C2F8D2F0E94760A82E0A80EB11CAD
:101570001F5F1F3091F78EE1E80EF11CCF5FC53081
:1015800019F0570110E0E9CFDF5F86E9C80ED11CE2
:10159000D43001F7DF91CF911F91FF90EF90DF9052
:1015A000CF90BF90AF900895CF93DF93D82FCFEF18
:1015B0008111C2E26C2F82E290E00E94DB206FEF8B
:1015C000D11162E183E290E00E94DB206C2F84E283
:1015D00090E00E94DB20DF91CF91089580E00E948F
:1015E000D40A60E085E290E00E94DB200E949C0A21
:1015F0000E94660A81E00E94D40A0895682F86E05E
:1016000090E00E94DB2008958091320280FF08C0A4
:101610008E7F809332020E94FE0A80E00E94C00406
:1016200008958091320280FD13C081608093320260
:10163000813019F489E080933202809132020E9455
:10164000FE0A809132028695869586950E94C00496
:1016500008950F931F93CF93DF93843030F5653057
:1016600020F54F3010F5C42FD0E0CC0FDD1F2EE158
:10167000629FC00DD11D112436E9839FC00DD11D7D
:101680001124CE0186960E94CD20082F10E0102F45
:101690000027CE0187960E94CD209801282BC901F2
:1016A000DF91CF911F910F91089590E080E0F8CFE6
:1016B000462F753040F46F3030F4843020F4672FBB
:1016C0000E94290B089590E080E00895CF92DF9268
:1016D000FF920F931F93CF93DF936C0100917202DF
:1016E0008091FF01082BC7E0D0E010E0FC2EC8017C
:1016F0000C2E02C0959587950A94E2F780FD0CC0E8
:101700002197A0F7F12C8F2DDF91CF911F910F9191
:10171000FF90DF90CF900895B6018C2F0E94580B58
:101720000E944006019761F3EECFCF93DF93EC0167
:101730000E94660BBE010E94580B0E944006DF917A
:10174000CF910895FC0183819481892B29F08081B8
:10175000918189238F3F51F480E00895843FE1F720
:1017600017C0883EA8F0813FB9F712C080819181EF
:101770000E94950B92959F70963099F358F4925F62
:101780009F70923048F7803F19F040F7883E20F76D
:1017900081E008959A5FF4CF82E290E00E94CD202C
:1017A000823289F483E290E00E94CD20823159F4A4
:1017B00084E290E00E94CD2091E0823209F090E036
:1017C000892F8170089580E0FCCF8091FD01909178
:1017D000FC01892B809364019091FE019923A1F073
:1017E000892B80936401809108018823E1F1809125
:1017F0003E0287FF38C08EE1E6E6F1E090E08150DE
:10180000A0F591110E94CF0740E250E06CED71E02D
:1018100084E691E00E940F21892B21F180E2E4E629
:10182000F1E0ACEDB1E001900D928A95E1F7E09125
:101830003502F09136023097A9F080910801882393
:1018400059F080913E0287FF07C080916401809328
:10185000650186E0809364010280F381E02D84E6D7
:1018600091E00995089586E0C7CF2191222339F2AE
:101870009F5FC5CF882321F00E94D5070E94E50B0A
:101880000895882339F09091FD01982B9093FD01E4
:101890000E94E50B0895882309F456C0823879F434
:1018A0000E94B30481FF50C089E30E9407080E9490
:1018B000E50B89E30E94DC070E94E50B089583385D
:1018C00059F40E94B30480FF3FC083E50E940708DB
:1018D0000E94E50B83E5EECF843859F40E94B304EF
:1018E00082FF32C087E40E9407080E94E50B87E46C
:1018F000E1CF9CEF980F913AE8F290E2980F983080
:1019000050F4877091E001C0990F8A95EAF7892F0A
:101910000E94D507D1CF9BE5980F933028F490E033
:1019200080E00E948E04089598E5980F993128F47C
:1019300090E080E00E946904089593E3980F93314A
:1019400018F460E00E94F7080895CF93C82F882309
:10195000C9F08238C9F40E94B30481FD13C089E341
:101960000E9407080E94E50B2FEF87EE93E02150BD
:1019700080409040E1F700C0000089E30E94DC074E
:101980000E94E50BCF9108958338A1F40E94B3041F
:1019900080FDF8CF83E50E9407080E94E50B2FEF3A
:1019A00081EE94E0215080409040E1F700C00000BB
:1019B00083E5E4CF8438A1F40E94B30482FDE2CF32
:1019C00087E40E9407080E94E50B2FEF81EE94E068
:1019D000215080409040E1F700C0000087E4CECF66
:1019E0008CEF8C0F813A90F580910801882301F1EA
:1019F00080913E0287FF1CC0EC2FE695E695E695A8
:101A0000F0E0EC59FE4F828190E04C2F477021E0CE
:101A100030E002C0220F331F4A95E2F7822393235E
:101A2000892B81F08C2F0E94DC070E94E50B0AC0F5
:101A3000E6E6F1E08CE691E02191C21799F38E176A
:101A40009F07D1F78C2F0E9407089ACF80E28C0F56
:101A5000883068F4C77021E030E001C0220FCA95D9
:101A6000EAF78091FD01822B8093FD0189CFEBE5A0
:101A7000EC0FE33040F4F0E0E75FFE4F808190E050
:101A80000E948E047FCFE8E5EC0FE93150F4F0E0DE
:101A9000EE0FFF1FE45FFE4F808191810E94690479
:101AA00071CF83E38C0F833108F06CCF61E08C2F12
:101AB0000E94F70867CF1F93CF93DF93182FD0E0D2
:101AC000C0E0893311F4C0E5D0E0812F0E94A50C5D
:101AD000209739F4812F0E944B0CDF91CF911F91F9
:101AE00008958FE99FE00197F1F700C0000021976A
:101AF000EFCF0F931F93CF93DF93C62FD42F022FD7
:101B0000FC0182818823A9F0609371020E945D0428
:101B10009093700280936F02C77081E001C0880FBC
:101B2000CA95EAF70E94410CDF91CF911F910F9166
:101B3000089580917102681332C080916F02909174
:101B400070020E944E04883C910548F510E21D0F7A
:101B5000CD17B9F080E28C0F883040F4C77081E077
:101B600001C0880FCA95EAF70E943A0C183048F471
:101B700081E09D2F977001C0880F9A95EAF70E9427
:101B8000410C802F0E945B0D183070F6D77081E0F9
:101B900001C0880FDA95EAF70E943A0CC5CFC770EA
:101BA00081E001C0880FCA95EAF7F6CF90913F0215
:101BB00092FB222720F9281779F080FB92F9909365
:101BC0003F0260913E0270913F0284E090E00E94EB
:101BD000F92082E00E94CC08089590E080E00E9405
:101BE000D520873E9E4F19F40E94CC0B089580E0CB
:101BF00008951092FD0180910801E6E6F1E0882346
:101C000029F180913E0287FF21C08EE1DF011D9204
:101C10008A95E9F790E080E00E948E0490E080E0F1
:101C20000E9469041092FC010E94E50B86E0ECE240
:101C3000F2E0DF011D928A95E9F7109225021092D9
:101C40002602109227020E947B05089586E0DECFCF
:101C5000AAE2B0E0EEE2FEE00C94A52087E692E076
:101C60002091F100DC012D93CD01B2E08F369B076E
:101C7000B9F780916802833009F472C0B8F48130FA
:101C800009F449C0823009F4B3C08091E80083FFB1
:101C90008BC280916702909168029A3008F084C2EA
:101CA000E92FF0E0E25EFE4D0C946F208A3009F4DB
:101CB0008EC08B3009F471C0893039F7809167028A
:101CC000813219F780916B0290916C02009711F0AC
:101CD0000297D9F68091E800877F8093E800809191
:101CE000E80082FF38C09091F3008091F2000297E3
:101CF00031F48091F100813011F0863021F480912F
:101D0000F100809342028091E8008B778093E80095
:101D10000E944103BACF80916702813A09F0B5CFA2
:101D20008091E800877F8093E80080916B0290911A
:101D30006C02892B61F460E283E492E070E00E941F
:101D4000ED038091E8008B778093E8009ECF60E000
:101D500090E080E0F3CF809165028111C0CF95CFF4
:101D600080916702813A09F090CF80916B02909147
:101D70006C02892B09F089CF8091E800877F8093DE
:101D8000E8008091E80080FFFCCF809108018093FB
:101D9000F1008091E8008E77B9CF8091670281329F
:101DA00009F073CF80916B0290916C02892B09F03E
:101DB0006CCF8091E800877F8093E8000E94410308
:101DC00080916902809308010E94F90D5ECF809195
:101DD0006702813209F059CF8091E800877F8093B4
:101DE000E8000E94410380916A02809341024DCF36
:101DF00080916702813A09F048CF8091E800877F9F
:101E00008093E8008091E80080FFFCCF8091410240
:101E1000BECF803899F0823809F0C6C180916B023C
:101E20008F70873008F0C0C18093E9008091EB008B
:101E300085FB882780F91092E90006C08091630233
:101E400090916402911182609091E800977F909345
:101E5000E8008093F1001092F1008091E8008E7705
:101E60009FC1882309F48DC1823009F09DC1809102
:101E70006902811190C180916B028F702FEF280F42
:101E8000263008F091C18093E9002091EB0020FFFB
:101E900082C1933031F48091EB0080628093EB003B
:101EA0007AC19091EB0090619093EB0021E030E0DB
:101EB00001C0220F8A95EAF72093EA001092EA0007
:101EC0008091EB008860EACF81116EC110916902A8
:101ED0001F778091E3008078812B8093E3008091CD
:101EE000E800877F8093E8000E9441038091E8002A
:101EF00080FFFCCF8091E30080688093E30082E064
:101F0000111183E0809365024FC18058823008F040
:101F10004BC12091690230916A022C3DE3E03E07FB
:101F2000A1F583E08A838AE289834FB7F894DE01C2
:101F3000139620E03EE051E2E32FF0E0509357008B
:101F4000E49120FF03C0E295EF703F5FEF708E2FAA
:101F500090E0EA30C0F0C7968D939D932F5F2431B7
:101F600059F74FBF8091E800877F8093E8006AE2CD
:101F700070E0CE0101960E94ED038091E8008B771E
:101F80008093E80011C1C096E7CF80916B029091D9
:101F90006C02432F55274330510509F44AC078F5A8
:101FA0004130510509F47AC08BE590E0ECECF4E0A7
:101FB0004230510509F0F8C02091E800277F2093B6
:101FC000E80020916D0230916E028217930708F4A9
:101FD0009C0140E02115310509F065C0411163C045
:101FE0008091E80082FDC9CF80916502882329F2A3
:101FF000853019F28091E80083FFF2CFBECF4132E5
:10200000510509F43CC04232510509F0CDC083307E
:10201000910508F0C9C0FC01EE0FFF1FEB5AFE4FFF
:102020000190F081E02D8E5A9E4FDC018C9190E062
:102030001AC0332721303105D1F02115310561F067
:102040002230310509F0B0C0E9E3F5E0E4918E2FCC
:1020500090E0E9E3F5E007C0E9E6F5E0E4918E2FD2
:1020600090E0E9E6F5E0009709F49EC0A5CFE7E52A
:10207000F5E0E4918E2F90E0E7E5F5E0F4CF8330D2
:10208000910508F091C0880F991FFC01E55AFE4F99
:102090000190F081E02D89E090E08ECF82E190E028
:1020A000E7E2F5E089CF80916502882309F465CFE6
:1020B000853009F462CF8091E80083FD5ECF809186
:1020C000E80082FD8DCF8091E80080FF83CF909162
:1020D000F3008091F2002115310519F08830910547
:1020E00050F041E0089709F040E08091E8008E77D9
:1020F0008093E8006FCF44914093F10031962150D6
:1021000031090196E8CF803809F04EC08091E8008F
:10211000877F8093E800809166028093F1009DCED6
:10212000811142C0109169021230F0F58091E800EF
:10213000877F8093E800109366020E944103112379
:1021400011F084E005C08091E30087FDFACF81E0C3
:102150008093650242E061EC81E00E94600342E20C
:1021600061EC84E00E94600342E261EC82E00E9444
:10217000600342E260EC83E00E94600380916502AC
:1021800013C080916902813079F481E0933009F0C5
:1021900080E0809364021092E9008091E800877FDC
:1021A0008093E8000E9441038091E80083FF0AC009
:1021B0008091E800877F8093E8008091EB00806247
:1021C0008093EB00AA96E3E00C94C1200E94F90DE5
:1021D0002FEF84E39CE0215080409040E1F700C065
:1021E000000088E19CE00FB6F894A8958093600009
:1021F0000FBE90936000FFCFAAE0B0E0E2E0F1E113
:102200000C9498208E010F5F1F4F8AE0F801119205
:102210008A95E9F79EE3E92E91E0F92E680123E41F
:10222000422E21E0522E66246394712C42E5842EC6
:1022300041E0942EF70181917F018F3F09F445C061
:10224000F894E82FE295EF70F0E021A18F70A301E0
:1022500002C0440F551F8A95E2F7CA01922F982BAE
:1022600091A392A18095892382A3789400C0E3E48E
:10227000F1E021E030E0B12CA12C41914F3F09F475
:1022800064C0A42FA295AF70B0E090968C9190E0BE
:102290004F7002C0959587954A95E2F780FD55C02D
:1022A000C901A82AB92A220F331F8E169F0629F7C3
:1022B000F701319780818F3F11F00E94E60550EAC7
:1022C0005A95F1F7F601B182A082F2E0CF0ED11C4F
:1022D0004E145F0409F0AECF4AE050E0B80183E04D
:1022E00092E00E940F21892B99F18AE0F801A3E086
:1022F000B2E001900D928A95E1F781E080930202AD
:102300000E945D049093010280930002809100027C
:10231000909101020E944E040397F0F04AE050E0D1
:1023200063E072E08BE192E00E940F21892BC9F0FB
:102330008AE0E3E0F2E0ABE1B2E001900D928A9531
:10234000E1F781E01092020208C090E080E0A9CF9E
:10235000809102028111DACF80E02A96E0E10C94AC
:10236000B42080E0EFCF67EE7EEF90E080E00E9447
:10237000F92060E082E090E00E94DB2060E083E0F2
:1023800090E00E94DB201092FF0160E074E184E0A5
:1023900090E00E94F92060E086E090E00E94DB205F
:1023A0006FEF87E090E00E94DB2040E050E0BA0150
:1023B00088E090E00E94ED2060E08DE090E00E94D7
:1023C000DB2040E050E0BA0188E190E00E94ED207F
:1023D00060E087E190E00E94DB2040E050E0BA013D
:1023E0008CE190E00E94ED2070E060E080E290E0FF
:1023F0000E94F92040E050E0BA0188E190E00E949C
:10240000ED2080E00E94D40A0E94EE0A40E050E0F5
:10241000BA018FE090E00E94ED2040E050E0BA0168
:1024200083E190E00E94ED2008950E94ED0D81115E
:102430000AC00E94B3118091320284708961809336
:1024400032020E94FE0A86E090E00E94CD20809336
:102450003202803220F0877088618093320290913E
:102460003202892F817090FF04C0892F869586954E
:1024700086950E94C0040895A8E0B0E0E2E4F2E18D
:102480000C9498208C01DC0113968D919C911497EB
:10249000892B39F08C9111969C9189238F3F09F0FB
:1024A00069C52896E0E10C94B4200E94660BF82ED2
:1024B000682F89819A810E94790869817A818F2D9C
:1024C0000E94580B7C01F8018281882309F433C5EE
:1024D000C70182509747409708F004C58FEF93E0FB
:1024E0000E94CD20811185C0EA94EA946EE7A62E61
:1024F00062E0B62EE11047C0FE01339686E0DF01B0
:102500001D928A95E9F75AE0452E7501BFEFEB1A47
:10251000FB0AC5010E94CD2089831A82882309F411
:1025200068C0813009F078C06501E2E0CE0ED11CB0
:10253000C7010E94CD208A83882309F45AC09FEFE7
:10254000980F933070F5F3E0AF0EB11CC6010E94F6
:10255000CD208B83882309F44CC01C82DE011196A8
:102560007D01F7012081222381F2213009F094C0FE
:1025700091818281913009F051C0F2E0EF0EF11C9F
:102580000E945B0D52C0A114F4E0BF0691F1C50199
:102590000E94CD20811101C0EA942FEFA21AB20A45
:1025A000A9CF56018430D1F642E0E42EF12C560139
:1025B0002FEFA21AB20AC6010E94CD20E1E0F0E09E
:1025C000EC0FFD1FEE0DFF1D8083882391F08C37EB
:1025D00041F4E2E0F0E0EC0FFD1FEE0DFF1D108274
:1025E000BDCF3FEFE31AF30A650187E0E816F10477
:1025F000F1F68091DB01877009F453CFD801129670
:102600008C91882309F44DCF80913F0282FF49CFFE
:1026100082E00E94CC0845CF5701A0CF923049F408
:1026200022E0E20EF11C0E94A50CEFEFEE1AFE0A6A
:1026300098CF933031F432E0E30EF11C0E944B0C42
:10264000F4CF943021F08FEFE81AF80AEECF92E041
:10265000E90EF11C30E020E0B7016F5F7F4FD7013A
:1026600011964C918053990B8A30910550F021506E
:102670003109D8F2EFE9FFE03197F1F700C000002F
:10268000F6CF429EF001439EF00D11249C012E0FC7
:102690003F1F842F7B01E0CFE22FF0E0EC50FE4F94
:1026A0005490822F86958695869590E0FC01EC519A
:1026B000FE4F64902770712C022E02C075946794AF
:1026C0000A94E2F731E063227724FC01EC52FE4FDA
:1026D0008490912C022E02C0959487940A94E2F77C
:1026E000A1E08A229924FC01EC53FE4FC490D12C26
:1026F00002C0D594C7942A95E2F7B1E0CB22DD243D
:102700006114710419F081EE0E94A50C81149104EA
:1027100019F086EE0E94A50C852D0E945B0D811498
:10272000910419F086EE0E944B0C6114710419F0AB
:1027300081EE0E944B0CC114D10409F476CF8CE2D7
:102740001FCF81E00E94E8080E94B30852CF81E0C9
:102750000E94BF08F9CF82E0F5CF82E0F9CF94E084
:10276000E91698E7F90609F442C028F1B5E0EB163E
:10277000B8E7FB0609F0D4C390913202892F869501
:10278000869586958F5F8F719770843008F04DC065
:10279000880F880F880F892B809332028091320234
:1027A00012C083E00E946405809132020E94FE0AFA
:1027B00020CF80E0F7CF80913202982F987F79F078
:1027C000885080933202887F91E009F490E08091F4
:1027D000320290FB80F9809332020E94FE0A8091BF
:1027E00032028695869586950E94C00402CF80911C
:1027F0003202982F969596959695933040F49F5F68
:10280000990F990F990F8770892B809332028091CD
:1028100032028160E0CF8091320280FF03C00E94CB
:10282000040BE7CE0E94110BE4CE90933202B6CF98
:1028300026E241EE61EEC8010E94790DDACE27E270
:1028400045EE65EEF8CF26E241EE60EEF4CF27E2EA
:1028500045EE64EEF0CF26E241EE62EEECCF27E2E9
:1028600045EE66EEE8CF28E241E0EBCF1092710230
:10287000C7019057839708F090C384E090E00E94CE
:10288000D52090933F0280933E02F701E150F0473C
:10289000E232F10520F4E85DFE4D0C946F2080914A
:1028A0003E02816080933E0295C080913F02886025
:1028B00080933F028FC080913E028260F3CF80916F
:1028C0003E028460EFCF80913E028860EBCF809122
:1028D0003F028160EDCF80913F028260E9CF80911D
:1028E0003E028061DFCF80913E028062DBCF80912B
:1028F0003E028064D7CF0E94F90D80913E0280682D
:10290000D1CF80913E028C60CDCF80913F02836019
:10291000CFCF80913E028E7FC5CF80913F02877FCF
:10292000C7CF80913E028D7FBDCF80913E028B7FCD
:10293000B9CF80913E02877FB5CF80913F028E7FD5
:10294000B7CF80913F028D7FB3CF80913E028F7EC3
:10295000A9CF80913E028F7DA5CF80913E028F7BD3
:10296000A1CF0E94F90D80913E028F779BCF80917D
:102970003E02837F97CF80913F028C7F99CF8091D9
:102980003E0282FB992790F921E0922790FB82F981
:1029900090FB83F987CF80913F02982F909591709B
:1029A0008E7F892B90FB81F983CF90913E02892FF6
:1029B0008F7B96FF806476CF0E94F90D90913E0246
:1029C000892F97FB87F980586DCF61E08EE090E00A
:1029D0000E94DB2060913E0270913F0284E090E013
:1029E0000E94F9200E94F90D04CE60E0EFCF909193
:1029F0003E02892F8F7E94FF806154CF90913E02DA
:102A0000892F8E7F90FF81604DCF90913F02892F5B
:102A1000877F93FF88604CCF85E3CFC285E3A7C251
:102A20000E94F90DEFEFF4E32CE0E150F04020407C
:102A3000E1F700C000000E94420A6FEF7FEF90E0D4
:102A400080E00E94F9200E94E61080913F0282FB04
:102A5000882780F991E089270E94D60DF8018281AC
:102A6000E080F180882309F446C0C7010E94660B0C
:102A7000D82E682FC7010E947908B7018D2D0E94BA
:102A8000580B0E9440067C01882ED8011296AC900B
:102A9000129715969C9092943FE093228091DB01CF
:102AA0008770C1F0CA2CAA20B1F08F2D807F8034AE
:102AB00021F080E28E0D883068F080913F0282FF25
:102AC00009C082E00E94CC088091DB018770CC2491
:102AD000C3948111C12CBF2CB2942FE0B222BBE071
:102AE000BB1508F477C0EB2DF0E0E65BFE4D0C94CF
:102AF0006F2080E0B1CFC7010E944508D82EBDCF1E
:102B0000EF2DEF70DE2E8F2D807F19F0D29490EF95
:102B1000D922AA20B9F0DD2069F080E28E0D88303C
:102B200010F0811009C08091FD01D82AD092FD01DA
:102B30000E94E50B8E2D4CC08091FC01D82AD092CA
:102B4000FC01F6CF8E2D0E944B0CDD2009F442C013
:102B500080E28E0D883010F0811004C08D2D0E940F
:102B6000D50706C0D0948091FC01D822D092FC01F8
:102B70000E94E50B2FC0FF2DFF70DF2E8F2D807F71
:102B8000803219F0D29480EFD822882089F021E099
:102B9000821609F46EC0AA2009F478C0992009F4BD
:102BA0006EC0F801858180FFC5CF8F70858367C0B7
:102BB00020913F0222FD36C0AA2071F1DD2039F0BC
:102BC0008091FD01D82AD092FD010E94E50B80E0A2
:102BD0000E94A50CAB2DA850BB0B149720F40E94AB
:102BE000B3040E94CF09CC2009F45BCC8091DB01B7
:102BF00080FD57CCF80112828595859585950E94B8
:102C0000E808C8010E943C128091DB0185958595FA
:102C100085950E94BF0845CC80E00E944B0CDD20CA
:102C2000C9F29CCFAA2099F09091FE018D2D892B9D
:102C3000911003C00E94410CCDCF31E09312FACF26
:102C400022FFC8CF891731F28093FE01C3CF9110C4
:102C500006C00E94CF078D2D0E943A0CBBCF81E0A9
:102C6000981609F4B7CF8D2D0E943A0C0E94CF0719
:102C7000B1CFAA2031F095E0991508F4ABCF8D2D96
:102C8000D9CFA4E0A91508F4A5CFE5CF992019F371
:102C9000F9E38F1209C02FEF37EE83E02150304067
:102CA0008040E1F700C000008E2D0E944B0C92CFB7
:102CB0008F2D86958695837061F0813009F08ACFDB
:102CC000C7019370A11002C080E090E00E946904E7
:102CD00081CFC7019370A11002C080E090E00E94F4
:102CE0008E0478CF6A2D8E2D0E94F70873CF8F2D1A
:102CF000837091F5A1106ECF4E2D42954695477089
:102D0000440F440F8E2D8F70042E01C0880F0A943B
:102D1000EAF72E2D2071E4FE07C02FE030E001C05D
:102D2000220F4A95EAF720953F2D36953695337058
:102D3000323069F050F44091FF01313029F0822B9C
:102D400084230E94F40846CF842B822BFACF282BB1
:102D50008091FF018227F5CF8695AA2011F08F2D53
:102D60008170882309F436CF4E2D429546954770E1
:102D7000440F440F8E2D8F70042E01C0880F0A94CB
:102D8000EAF72E2D2071E4FE07C02FE030E001C0ED
:102D9000220F4A95EAF720953F2D369536953370E8
:102DA000323069F050F440917202313029F0822BB8
:102DB00084230E94B0080ECF842B822BFACF282BBD
:102DC000809172028227F5CF9F2D9F70F92EAA2045
:102DD00029F0892F0E94E8088E2D2CCF8E2D0E947D
:102DE0003A0C8F2D0E94BF08F5CE8E2DA2EF8A16C9
:102DF000B1F1A81570F0B0EF8B16D1F0E1EF8E169F
:102E000091F0AA2009F45EC0911094CE8F2D8F719D
:102E10002AC0F3EF8F1651F124EF8212F2CF809186
:102E20003F0282FD2FC08F2D8F71AA20D9F21BC0C7
:102E3000AA2081F034E0391508F4CCCE2F2D2F7163
:102E400081E090E001C0880F2A95EAF79091720224
:102E50008927AFCF85E0891508F4BCCEEFCF8F2D41
:102E60008F71A110BFCF0E94E808B4CE80E0AA20E5
:102E700009F49FCF9F2D9F7181E001C0880F9A9523
:102E8000EAF797CFAA2099F09F2D9F71F92E892FED
:102E90000E94E80880913F0282FF07C0A8E0FA9EE6
:102EA000C001112483608093DB018F2DDCCF81E092
:102EB0000E94CC08B1E0B91508F08CCE82E00E94E7
:102EC000CC0888CE992059F0893309F0EDCEEFEF88
:102ED000F7EE23E0E150F0402040E1F7E3CE8F2D04
:102EE0008F7180CFE114F7E7FF0609F42ACC21E0C7
:102EF000E21627E7F20609F42ECCF2E0EF16F8E727
:102F0000FF0609F488CC08F02ACCE11438E7F30670
:102F100009F447CC81E0E81688E7F80609F449CCC3
:102F2000F701E851FC47E730F10508F09FCCEA5A79
:102F3000FE4D0C946F20E11437E7F30609F407CC3B
:102F400081E0E81687E7F80609F407CCF701E851B5
:102F5000FC47E730F10558F3E6E1EE16ECE7FE0634
:102F600009F07CCD80918401811158CD89E20E94C5
:102F7000DC0725C085E0F801DE01119601900D9275
:102F80008A95E1F7D80112962C9189819A812111B5
:102F90008CCA0E944508F82E90CAB6E1EB16BCE731
:102FA000FB0681F48091FD018A7A91E009F490E0BA
:102FB00090938401811130CD89E20E9407080E941C
:102FC000E50B17CBF3E0EF16FCE7FF0609F435CD70
:102FD00060F4E1143CE7F30609F422CD81E0E81641
:102FE0008CE7F80609F42FCD39CD9BE5E9169CE76F
:102FF000F90609F47ECDACE5EA16ACE7FA0609F469
:1030000024CDBAE5EB16BCE7FB0609F027CD81E03D
:1030100023CD1F93CF93DF938091A801807F09F088
:1030200049C08091A501882309F444C08091DA0148
:10303000D091A9016091A3017091A401A091A60172
:10304000B091A701C62FC72316E0D81799F190E0D9
:10305000109711F0CF3F19F401968770F6CF189FA3
:103060009001199F300D1124F901E655FE4F418161
:103070004713F2CF40814613EFCF42814111ECCF8D
:10308000438154814A1B5B0B483C510528F78091D2
:10309000A8018F7080618093A801F901E155FE4F6E
:1030A00080818F708061808383EA91E00E943C126E
:1030B0000E943B08DF91CF911F910895A1E1B0E0FC
:1030C000E4E6F8E10C949E208C0185E0F801DE0135
:1030D0001D9601900D928A95E1F7F801E28083EA4E
:1030E000A82E81E0B82E6091A6017091A70161150C
:1030F000710509F426C19091A3014091A401892F83
:1031000084238F3F09F41DC120813181C380D48085
:10311000F090A501F601E61BF70BFF2009F4DCC0D7
:103120008091A801582F507FE83CF10508F09FC01E
:1031300051116BC0FE2C431314C0921312C0E11046
:1031400010C08F7080618093A801C5010E943C125D
:103150008091A801F80185838F2D6196EAE00C9497
:10316000BA20C114D10429F0822F83238F3F09F0A4
:1031700003C180E0F82FF170DF2E80FF3CC080910A
:10318000DA014091A90156E0841315C02D873E87CE
:103190008D859E850E94950B292F22952F702230B8
:1031A000F0F0243018F59F70F1F0F8019581907FD0
:1031B000D1F4D12C1EC090E0589FF001599FF00D22
:1031C0001124E655FE4F6181361306C06081261337
:1031D00003C06281E6120FC001968770D5CF9F7041
:1031E00011F0882331F3805E883018F3C8010E9403
:1031F0003C12FD2CB1CFEE2009F4AECF8091A80196
:1032000081608093A801F12CA7CF431306C09213CD
:1032100004C0F801EE2009F479C0C8010E94A20B95
:10322000882309F1EE20F9F08091A801803270F036
:103230002091A3013091A40138872F831986DB8662
:10324000CA868C87CE0107960E943C1286E0F80160
:10325000A3EAB1E001900D928A95E1F70E94091866
:10326000FF24F39479CFC8010E943C12F9CF511189
:103270000AC083EA91E00E943C1286E0F5011192B7
:103280008A95E9F7C0CF43130FC092130DC0E11028
:103290000BC0F8018583C8010E943C1286E0F5014D
:1032A00011928A95E9F758CFC8010E94A20B882392
:1032B000D1F2EE20C1F28091A801803238F2209143
:1032C000A3013091A4013A8329831B82DD82CC8241
:1032D0008E83CE010196B8CFE83CF105F8F6FE2CBE
:1032E000EE2009F243131FC092131DC08091A80164
:1032F00080FD10C0982F907F69F0F8018583903F82
:1033000031F0982F907F905F8F70892B8583C80153
:103310000E943C1286E0F801A3EAB1E001900D9210
:103320008A95E1F719CFC8010E94A20B81118ECFB7
:103330008091A80181608093A801C8010E943C127D
:103340000BCFEE2009F48FCFC8010E94A20BF82EFC
:10335000882309F488CF86E0F801A3EAB1E0019060
:103360000D928A95E1F78091A3019091A4010E94AA
:10337000950B0E940918F0CE81E08E25FBCEA7E1C7
:10338000B0E0E5ECF9E10C94A5204B8B5C8B6D8BE8
:103390007E8B8F8B61111092FC011A8A198A85E04D
:1033A000FE017396DE011D9601900D928A95E1F75C
:1033B00086E0FE013D96DE01179601900D928A95FA
:1033C000E1F7CE0107960E945E18811112C086E0D7
:1033D000FE013796DE01119601900D928A95E1F774
:1033E0008A859B85892B29F088859F8189238F3F3A
:1033F00081F516E08091DA019091A901891317C037
:103400006796E3E00C94C12096E0929FD001939FD1
:10341000B00D1124A655BE4FFE01319601900D92BC
:103420009A95E1F78093A9010E943B08E2CF819F22
:10343000C001112486559E4F0E945E18882301F317
:103440008091DA0190E00196877099278093DA01E4
:10345000D1CF2091A90130E0C90101968770992749
:103460004091DA014817190679F60E94F90D109279
:10347000A9011092DA0186E0E3EAF1E0DF011D9292
:103480008A95E9F7B6CF1F920F920FB60F921124CB
:103490002F933F934F935F936F937F938F939F935C
:1034A000AF93BF93CF93DF93EF93FF93D091E90056
:1034B000DF708091EC00C82FC17080FDC0E81092D1
:1034C000E9008091F000877F8093F00078940E945B
:1034D000280E1092E9008091F00088608093F0003F
:1034E000CD2BCF70C093E900FF91EF91DF91CF9189
:1034F000BF91AF919F918F917F916F915F914F910C
:103500003F912F910F900FBE0F901F9018951F9213
:103510000F920FB60F9211242F933F934F935F9307
:103520006F937F938F939F93AF93BF93EF93FF938B
:103530008091E10082FF09C08091E20082FF05C016
:103540008091E1008B7F8093E1008091DA0080FF21
:1035500024C08091D80080FF20C08091DA008E7F47
:103560008093DA008091D90080FF9DC080E189BD01
:1035700082E189BD09B400FEFDCF81E08093650240
:1035800080914002811109C00E94F1020E949203C1
:103590008091E20084608093E2008091E10080FFEE
:1035A00017C08091E20080FF13C08091E2008E7FFF
:1035B0008093E2008091E20080618093E20080913C
:1035C000D80080628093D80019BC85E080936502A2
:1035D0008091E10084FF2BC08091E20084FF27C02E
:1035E00080E189BD82E189BD89B5982F917080FF06
:1035F000FBCF8091D8008F7D8093D8008091E1002F
:103600008F7E8093E1008091E2008F7E8093E200C4
:103610008091E20081608093E200809166028823BD
:1036200009F447C084E0809365028091650280912F
:10363000E10083FF27C08091E20083FF23C08091D7
:10364000E100877F8093E10082E080936502109221
:1036500066028091E1008E7F8093E1008091E2001C
:103660008E7F8093E2008091E20080618093E2008F
:1036700042E060E080E00E9460038091F00088609A
:103680008093F000FF91EF91BF91AF919F918F9147
:103690007F916F915F914F913F912F910F900FBE4E
:1036A0000F901F90189519BC10926502109240025D
:1036B00074CF8091E30087FD93E090936502B5CFCE
:1036C00078941F921FB61F9211248F939F93AF93EC
:1036D000BF9380913A0290913B02A0913C02B0913D
:1036E0003D020196A11DB11D80933A0290933B02C9
:1036F000A0933C02B0933D02BF91AF919F918F91F7
:103700001F901FBE1F9018951F921FB61F92112465
:103710008F939F93AF93BF9380913902811113C010
:1037200080913A0290913B02A0913C02B0913D02FF
:103730004196A11DB11D80933A0290933B02A09344
:103740003C02B0933D02BF91AF919F918F911F902A
:103750001FBE1F901895CDB7DEB7AA970FB6F89485
:10376000DEBF0FBECDBF85B7806885BF85B78068D7
:1037700085BF84B7877F84BF0FB6F894A8958091E2
:103780006000886180936000109260000FBE80E846
:1037900090E00FB6F89480936100909361000FBEA3
:1037A00084EE95E090936301809362010E94F102A0
:1037B0000E9492038091E20084608093E2007894FA
:1037C000809165028823A1F01091E9001F7090910B
:1037D000EC00892F817090FD80E8182B1092E90091
:1037E0008091E80083FD0E94280E1F701093E9006D
:1037F00082E084BD93E095BD9AEF97BD80936E0003
:103800000E94CC0B811102C00E94EE0A0EE311E06F
:1038100063E4E62E61E0F62ED8018D918D018F3F95
:1038200011F00E94E605E016F106B1F703E411E09D
:10383000F80181918F018F3F11F00E94E605F1E0C0
:1038400002351F07A9F78AE0EBE1F2E0DF01282F3C
:103850001D922A95E9F7E3E0F2E0DF011D928A95D7
:10386000E9F7549A0E94ED0D811102C00E94B31134
:1038700082E090E00E94CD2080930F0284E090E0EF
:103880000E94D52090933F0280933E020E94FC103C
:10389000EFEBFDE53197F1F700C000000E94FC104E
:1038A00080911B0280FF08C06FEF7FEF90E080E007
:1038B0000E94F9200E94420A83E090E00E94CD20FD
:1038C0000E94F408259A2D9882E88093800089E16F
:1038D000809381008FEF9FEF909387008093860005
:1038E0000E9415120E94151280E091E0909336021A
:1038F0008093350240E4242E5AE1652E52E0752E65
:10390000552453948091650200E112E1853009F459
:103910009CC00E94FC1020E1A22E22E0B22E3BE1CE
:10392000832E32E0932ED401F501219131918D91B6
:103930009D916E167F0609F496C028173907A9F3E2
:10394000412CD4010D911D914D01F501C190D190F3
:103950005F01C016D10659F1312CEE24E394F12C0D
:10396000C026D126C6018E219F21892BB1F03EA20F
:103970004FA221E0C8018E219F21892B09F420E06C
:1039800028A70E945D048160782F9AA789A74EA17D
:103990005FA168A58AA50E94BF193394EE0CFF1C95
:1039A000FFE03F12DFCFF50132971183008343948C
:1039B00025E04212C6CF8FB7F89440913A02509159
:1039C0003B0260913C0270913D028FBF6EC08091BE
:1039D0006502843049F180E00E94C00480E00E94CA
:1039E000CF091092390288E190E00FB6F894A895BB
:1039F000809360000FBE2092600083B7817F846057
:103A000083BF83B7816083BF7894889583B78E7FA7
:103A100083BF0FB6F894A895809160008861809369
:103A20006000109260000FBE80916402882369F0EC
:103A30000E94FC10EBE1F2E081919191892B09F059
:103A4000CBC292E0E532F907B9F780916502853083
:103A500009F4BDCF0E94F90D0E9415120E94B30413
:103A60000E94CF0956CF2817390709F069CF0E9465
:103A70005D048C0180910D0290910E0208171907C8
:103A8000A1F08FEF89A38AA31BA20E945D0481602D
:103A9000782F9DA38CA349A15AA16BA18DA10E944F
:103AA000BF1910930E0200930D0286E0ECE2F2E0E3
:103AB000DE01119601900D928A95E1F710922E0287
:103AC00010922F0210923002109231028B819C8151
:103AD000892B09F44AC080912A0290912B020E94FE
:103AE0004E049C0190912502992309F499C2253135
:103AF0003105D8F19F3F19F09F5F909325021B81FC
:103B0000112359F00E94C4059FEF11160CF491E0A7
:103B1000899F802D112480932E021C81112359F03E
:103B20000E94C4059FEF11160CF491E0899F802D2F
:103B3000112480932F0230912E023323B1F0209173
:103B40002F02222391F045EB3403C0011124992365
:103B500009F4B9C090932E0245EB2403900111247F
:103B6000332309F4B3C030932F028D819E81892BBA
:103B700009F44AC080912802909129020E944E04C3
:103B80009C0190912602992309F445C22135310503
:103B9000D8F19F3F19F09F5F909326021D8111235A
:103BA00059F00E94A2059FEF11160CF491E0899F35
:103BB000802D1124809330021E81112359F00E9420
:103BC000A2059FEF11160CF491E0899F802D11241E
:103BD00080933102309130023323B1F020913102D1
:103BE000222391F045EB3403C0011124992309F4F9
:103BF00070C09093300245EB2403900111243323CD
:103C000009F46AC03093310246E050E0BE016F5FB4
:103C10007F4F8CE292E00E940F21892B61F480910A
:103C20002E0290912F02892B90913002892B909136
:103C30003102892B11F00E947B0586E0FE0131964E
:103C4000ACE2B2E001900D928A95E1F70E94B304D4
:103C500090911A02891779F080931A029FB7F8940D
:103C600040913A0250913B0260913C0270913D02BA
:103C70009FBF0E94CF0980916502843009F042CE37
:103C800083E08093E9008091E80082FF3BCE809141
:103C9000E80090E085FF05C00E9410038823F9F03A
:103CA00091E08091E8008B778093E800992309F4F4
:103CB00029CE8981EFEFE80FE331C0F5F0E0E35A58
:103CC000FE4D0C946F2050922E0246CF50922F0240
:103CD0004CCF509230028FCF5092310295CF00E2FC
:103CE00010E0CE0101967C018091E80085FD0AC0BC
:103CF0008091E8008B778093E8000E94100388236E
:103D000099F3CECF8091F100D7018D937D010150C1
:103D1000110951F7C5CF1A828BE08B8324C08A81A9
:103D2000823009F46FC128F4813061F08FEF89830C
:103D30001AC0833009F18430C9F71B821C821D82AE
:103D40001E8211C02FB7F89460913A0270913B0225
:103D500080913C0290913D022FBF0E9475206B83A1
:103D60007C838D839E8340E250E0BE016F5F7F4F76
:103D700082E00E94D509C6CD80911B0290911C0261
:103D80009827892798279C838B8380911D02909187
:103D90001E029827892798279E838D8380911F0272
:103DA0009091200298278927982798878F83809160
:103DB0002102909122029827892798279A8789873C
:103DC00080912302909124029827892798279C8725
:103DD0008B87C9CF8A81823051F0853009F0A6CF18
:103DE0008091320280FF0EC00E94040BBCCF6B8119
:103DF0007C818D819E810E94752085E290E00E94E9
:103E0000DB20B1CF0E94110BAECF4C816B818A8138
:103E10000E94290B9827892798279E838D83A3CFFB
:103E20002D813E813227232732274C816B818A8165
:103E30000E94760A98CF0E949C0A95CF9A81913071
:103E400009F074CF883099F0893041F18B8181304D
:103E500009F089CF8C81B3E08B9FC00111246FEFF3
:103E600070E00E942520862F0E9464057CCF8B8104
:103E7000813029F0823009F076CF1C8274CF809196
:103E80003202869586958695EFEF8E9FC0011124AC
:103E900063E070E00E9425206C8365CF8091320240
:103EA0000E94FE0A60CF80E18A835DCF5A8282E859
:103EB00034CF0A811B81102701271027CE010196DC
:103EC0006C01EC80DC01AE0DB11D7D01C801825892
:103ED0009D4FEC14FD0409F446CF0238B1E01B07F6
:103EE00050F40E94CD20F60184830F5F1F4FBFEF77
:103EF000CB1ADB0AEBCFD60114961C92F6CF0A81BF
:103F00001B81102701271027FE0131966F01EC80DD
:103F1000E00EF12EF11CC80182589D4F0E151F05B1
:103F200009F421CF0238F1E01F0728F4D6011496D6
:103F30006C910E94DB20BFEFCB1ADB0A0F5F1F4F93
:103F4000EACF0E94660A0FCF84E0AECF0A811B81C0
:103F5000102701271027FE0131966F01EC80CF0159
:103F60008E0D911D7C01C8018696CE14DF0409F4E4
:103F7000FACE0835A2E01A0750F40E94CD20F601CF
:103F800084830F5F1F4FBFEFCB1ADB0AECCFD60144
:103F900014961C92F6CF0A811B8110270127102747
:103FA000FE0131966F01EC80E00EF12EF11CC8018C
:103FB0008696E016F10609F4D6CE0835F2E01F0722
:103FC00028F4D60114966C910E94DB20BFEFCB1A27
:103FD000DB0A0F5F1F4FEBCF09BD19BD09B400FE0F
:103FE000FDCF8091D8008F7D8093D8008091E00034
:103FF00082608093E0008091E00081FDFCCF0E9410
:10400000F90D23CD85E290E00E94CD201B821C8219
:104010001D828E83A8CE2B30310508F0BCCDF4CDA7
:104020002B30310508F068CDA0CDDB018F939F9335
:104030000E948B20BF91AF91A29F800D911DA39FE5
:10404000900DB29F900D11240895AA1BBB1B51E146
:1040500007C0AA1FBB1FA617B70710F0A61BB70BF8
:10406000881F991F5A95A9F780959095BC01CD019D
:10407000089597FB072E16F4009407D077FD09D01A
:104080000E94252007FC05D03EF4909581959F4F16
:104090000895709561957F4F0895A1E21A2EAA1B8D
:1040A000BB1BFD010DC0AA1FBB1FEE1FFF1FA217E8
:1040B000B307E407F50720F0A21BB30BE40BF50BE5
:1040C000661F771F881F991F1A9469F7609570956E
:1040D000809590959B01AC01BD01CF010895EE0F35
:1040E000FF1F0590F491E02D099469279627692711
:1040F0007827872778270895A29FB001B39FC00132
:10410000A39F700D811D1124911DB29F700D811D03
:104110001124911D08950E947C20A59F900DB49FAD
:10412000900DA49F800D911D112408952F923F9210
:104130004F925F926F927F928F929F92AF92BF92B7
:10414000CF92DF92EF92FF920F931F93CF93DF9363
:10415000CDB7DEB7CA1BDB0B0FB6F894DEBF0FBEC0
:10416000CDBF09942A88398848885F846E847D840D
:104170008C849B84AA84B984C884DF80EE80FD800F
:104180000C811B81AA81B981CE0FD11D0FB6F89485
:10419000DEBF0FBECDBFED010895F999FECF92BDF0
:1041A00081BDF89A992780B50895A8E1B0E042E072
:1041B00050E00C940121262FF999FECF92BD81BDCC
:1041C000F89A019700B4021639F01FBA20BD0FB655
:1041D000F894FA9AF99A0FBE08950396272F0E9431
:1041E000DC200E94DB20252F0E94DC20242F0C9451
:1041F000DC200196272F0E94DC200C94DB20DC01C0
:10420000CB01FC01F999FECF06C0F2BDE1BDF89AE1
:10421000319600B40D9241505040B8F70895FB011B
:10422000DC0104C08D910190801921F4415050406F
:10423000C8F7881B990B0895F894FFCF090F310F29
:10424000D410310FD410640F850FD4108310901048
:104250008914FE1491145B145F149514631499145B
:10426000A5146F14F7147314A9147714AD14D5148E
:104270007B14B114DC148114B714BF1467149D149B
:104280006B14A1148514BB14CB14E514F514551448
:104290008D14051580158015BB15BB1558167216A3
:1042A000EA15EA157716E416F516F5162314271401
:1042B00018141F142B142F1433148B1E8F1EEA1E78
:1042C000051F101F1B1F1E1F1E1F1E1F961E961E42
:1042D000531F561F591F7F1FA11FA41FA61FCB1FAF
:1042E0004B041E0A170A100A01818283E200E900CA
:1042F000EA00B500B600B700CD008301CC008A010A
:10430000920194012102230224022502260227029F
:104310002A02B300B4006F0070009F01CB01F03699
:104320009634976667F7F6F5F4F130313233379209
:1043300093954022B684016201AC00DE04F70417B5
:02434000050076
:00000001FF
