:100000000C9491020C94C9020C94C9020C94C9027C
:100010000C94C9020C94C9020C94C9020C94C90234
:100020000C94C9020C94C9020C9457210C942B22F5
:100030000C94E11B0C94C9020C94C9020C94C902E3
:100040000C94C9020C94C9020C94C9020C94C90204
:100050000C94C9020C94681C0C94C9020C94C9023B
:100060000C94C9020C94C9020C94C9020C94C902E4
:100070000C94C9020C94C9020C94C9020C94C902D4
:100080000C94C9020C94C9020C94C9020C94C902C4
:100090000C94C9020C94C9020C94C9020C94C902B4
:1000A0000C94C9020C94C9020C94C902167C1E005F
:1000B0001F0020002100220023002400250026002C
:1000C00027002D002E002A002A002B0014001A0001
:1000D0000800150017001C0018000C001200130087
:1000E0002F00300000003100390004001600070026
:1000F00009000A000B000D000E000F003300340051
:10010000000028000000E10000001D001B000600A8
:1001100019000500110010003600370038000000FB
:10012000E5002152E000E300E200000000000000D2
:100130002C00000000000000E600E7000000650061
:10014000E400007C3A003B003C003D003E003F00E4
:100150004000410042004300440045004C004C0078
:100160000100010001000100010001000100010087
:100170000100010001000100010000000100010078
:100180000100010001000100010001000100010067
:100190000100010001000000010000000100010059
:1001A0000100010001000100010001000100010047
:1001B0000100010000000100010001000100010038
:1001C000000001000000010000000100000001002B
:1001D0000100000001000100010001000100010018
:1001E0000100010001000100010001000100010007
:1001F00001000100010001000100010001000100F7
:1002000001000100010001000100010001000100E6
:1002100000000100010001000100010001000100D7
:1002200001000100010001000100010000000100C7
:1002300000000100010001000100010001000100B7
:1002400001000100010001000100000001000100A7
:100250000100010001000000010000000100000099
:100260000100000001000100000001000100010088
:100270000100010001000100010001000100010076
:100280000100010001000100010001000100010066
:100290000100010001000100010001000100010056
:1002A0000100010001000000010001000100010047
:1002B0000100010001000100010001000100010036
:1002C0000100000001000000010001000100010028
:1002D0000100010001000100010001000100010016
:1002E0000000010001000100010001000000010008
:1002F00000000100000001000000010001000000FA
:100300000100010000000000000000002A2B28006E
:1003100000000000000000000000000000000029B4
:10032000000000002C1E3420212224342627252EF4
:10033000362D3738271E1F2021222324252633332C
:10034000362E37381F0405060708090A0B0C0D0E58
:100350000F101112131415161718191A1B1C1D2F24
:100360003130232D350405060708090A0B0C0D0E44
:100370000F101112131415161718191A1B1C1D2F04
:100380003130354C0000000000000000000000008B
:10039000000000000000000000000000000000005D
:1003A00000000000000000007E0F00D4FFFFFFC728
:1003B000000000780A034D006F006E00610000002D
:1003C0000E0352004D0049002D004B00420000007A
:1003D0000403090409025B00030100A0FA090400F8
:1003E000000103010100092111010001224400075D
:1003F000058103080001090401000203000000094F
:1004000021110100012222000705820320000107BB
:100410000503032000010904020001030000000994
:100420002111010001227B00070584032000011235
:10043000010002000000086BB14B401100010200F6
:10044000010660FF0961A1010962150026FF009500
:1004500020750881020963150026FF0095207508A4
:100460009102C005010902A10185020901A100054F
:100470000919012908150025019508750181020552
:1004800001093009311581257F950275088106091A
:10049000381581257F950175088106050C0A3802FB
:1004A0001581257F950175088106C0C00501098069
:1004B000A101850319012AB700150126B70095018E
:1004C00075108100C0050C0901A101850419012ADC
:1004D000A002150126A002950175108100C005013A
:1004E0000906A101050719E029E71500250195086E
:1004F000750181029501750881010507190029FF21
:10050000150026FF009506750881000508190129C8
:100510000515002501950575019102950175039159
:1005200001C011241FBECFEFDAE0DEBFCDBF04B69D
:1005300003FE18C080918E0290918F02A0919002CC
:10054000B09191028730904BA740B04B59F4109274
:100550008E0210928F021092900210929102E0E0AF
:10056000F8E3099511E0A0E0B1E0E4EFF9E402C09E
:1005700005900D92AE3AB107D9F722E0AEEAB1E0AC
:1005800001C01D92AE38B207E1F70E94C8110C9469
:10059000A6240C9400008430B8F46530A8F44F30E1
:1005A00098F450E09FE0699F400D511D1124FA011D
:1005B0009BE4899FE00DF11D1124EE0FFF1FE45510
:1005C000FF4F85919491089581E090E0089581E036
:1005D00008950E94E702089581E008950E94E702CD
:1005E00008950E94EE02089508950E94F40208956D
:1005F000A6E0B0E0EEEFF2E00C94022449835A83C7
:100600009E833091B50189819A8131111AC03E8152
:10061000332399F0222389F00E946F08182F682F46
:1006200089819A810E944B0869817A81812F0E9479
:10063000730F2696E3E00C941E240E945D08182F89
:10064000F3CF0E946F0869817A81F1CFFC01262FD8
:100650004081518162817381848195810E94F80279
:100660000895CF93DF93EC0161E00E942603BE0161
:100670000E94E902DF91CF910895CF93DF93EC01BF
:1006800060E00E942603BE010E94F502DF91CF9137
:10069000089581E008950E9449030895CF93C82FDB
:1006A0000E9447078C2F0E944B032FEF84E39CE0AE
:1006B000215080409040E1F700C00000CF910895A4
:1006C00081E00E944E030E948C1C089580E00E94ED
:1006D0004E030E94B01C08950F931F93CF93DF9396
:1006E0008C0161E00E942603EC01B8010E94A71969
:1006F000811106C080E0DF91CF911F910F91089585
:10070000B801CE010E94F1028823A1F3B801CE0105
:100710000E94B418882371F3B801CE010E94CF1350
:10072000882341F3B801CE010E94A513882311F359
:10073000B801CE010E94F8188823E1F2F801858102
:10074000882361F0C330FCE7DF07E9F058F4C115F6
:10075000ECE7DE07A9F0C130DC47B9F0C8010E9420
:10076000EC02C9CFCB358CE7D807A9F0CC35ECE744
:10077000DE0771F0CA35DC4789F70E94A80CEECF7E
:100780000E946003B7CF0E94B00C0E946603B2CFF4
:100790000E949E0CE3CF0E94AC0CE0CF0E94BD1BD8
:1007A0000E94FC0308950E9400040E94C21B089549
:1007B000089581E0089581FF02C02B9A08952B9837
:1007C0000895CF93DF93D82F0E94D903C82F882391
:1007D00019F08D2F0E94DB038C2FDF91CF910895AC
:1007E000239A2B980895CF93C82F0E94D8038C2F5B
:1007F0000E94E103CF91089580E00E94F3030895E1
:100800000E94931A0E94F3030895CF930E94931AB3
:10081000C82F8091B0018C1779F0C093B0010E946D
:100820004D1C6093B1017093B2018093B30190931A
:10083000B4018C2F0E94F303CF910895ADE0B0E096
:10084000E4E2F4E00C940324488759876A877B87A5
:100850008C879D8791110E94DE0B1F8286E0FE012E
:100860003896DE01119601900D928A95E1F78D81FF
:1008700081110DC029813A814B815C816D817E811E
:100880008F810E94280B2D96E2E00C941F24CE014C
:1008900001960E9431038111EDCFF5CFFC01248137
:1008A000213021F4808191810E949C080895662363
:1008B00029F00E9430150E94151608950E949C157B
:1008C000FACFCF93C82F882399F08CEF8C0F813A01
:1008D00088F48C2F0E94181B882329F08C2F0E94EB
:1008E0005B1B0E944D0C8C2F0E94531B0E944D0CD1
:1008F000CF91089580E28C0F883048F4C77081E072
:1009000001C0880FCA95EAF70E94C10BEFCFEBE553
:10091000EC0FE33040F4F0E0E25BFE4F808190E0CA
:100920000E94B91AE5CFE8E5EC0FEB3150F4F0E0A6
:10093000EE0FFF1FE85EFE4F808191810E94DE1A5C
:10094000D7CF83E38C0F833198F661E08C2F0E9420
:100950005704CECF882381F19CEF980F913A28F469
:100960000E945B1B0E944D0C089590E2980F9830F6
:1009700050F4877091E001C0990F8A95EAF7892FAA
:100980000E94C70BEFCF9BE5980F933028F490E0BF
:1009900080E00E94B91A089598E5980F9B3128F4D9
:1009A00090E080E00E94DE1A089593E3980F93315F
:1009B00018F460E00E94570408951F93CF93DF93CB
:1009C000182FEB010E946104209739F4812F0E94B7
:1009D000AA04DF91CF911F9108958FE99FE00197BD
:1009E000F1F700C000002197EFCF70E060E089339D
:1009F00011F460E570E00E94DD040895882321F081
:100A00000E94C10B0E944D0C0895882321F00E9482
:100A1000C70B0E944D0C0895B0E0A0E0E2E1F5E0C4
:100A20000C94FC236C01D62FC72FFC011581068185
:100A300002950F700E94B70BE82E8823F9F0E12E83
:100A40001123E1F08C2F807F803461F080E28D0FE4
:100A5000883008F18C2F807E803221F4D230D8F09B
:100A60000023C9F08091680282FF15C082E00E94D5
:100A7000720C0E94B70B91E0E82EE926BC2EB294CE
:100A80009FE0B922FBE0FB15B8F1EB2DF0E0E85553
:100A9000FB4D0C94E623E12CF1CF0C2F0F70C07F9F
:100AA00011F00295007F112399F0002359F080E2A4
:100AB0008D0F883010F0D11107C0802F0E94C10B1C
:100AC0000E944D0C8D2F5AC0802F0E94D10BF8CF61
:100AD0008D2F0E94AA04002379F080E28D0F8830C8
:100AE00010F0D11104C0802F0E94C70B03C0802FCB
:100AF0000E94D70B0E944D0CEB2DE850FF0B349752
:100B000020F40E94931A0E94F303EE2089F00E94C1
:100B1000B30B80FD0DC0F60115820E94AD0B0E9443
:100B2000BF07C6010E940E070E94AD0B0E94CB07B3
:100B3000CDB7DEB7E9E00C9418242C2F2F70F22EDD
:100B4000C07FC03219F0F29480EFF822DD2341F02B
:100B5000D130D1F1112309F444C00023F1F0B2CF18
:100B60008091680282FD15C0112359F0FF2029F001
:100B70008F2D0E94C10B0E944D0C80E00E946104E9
:100B8000BBCF80E00E94AA04FF2009F4B5CF8F2DCF
:100B9000ABCF112369F0011104C08F2D0E94FE0418
:100BA000ABCF013009F0A8CF8F2D0E94F50BA4CF59
:100BB0000111A2CF8F2D0E9405058F2D0E94010CDF
:100BC0008F2D0E94E50B98CF112321F0063008F0FD
:100BD00093CFE3CF053008F08FCF8F2D0E9405050E
:100BE0008BCF0023D1F3D93349F43FEF87EE93E065
:100BF000315080409040E1F700C000008D2F0E94EE
:100C0000AA047ACF8C2F86958695837069F08130FF
:100C100009F072CF8D2F9C2F9370111102C080E0CC
:100C200090E00E94DE1A68CF8D2F9C2F93701111D7
:100C300002C080E090E00E94B91A5ECF612F8D2F34
:100C40000E94570459CF8C2F837079F5111154CF1E
:100C50004D2F429546954770440F440F8D2F8F704E
:100C6000042E01C0880F0A94EAF72D2F2071D4FFBB
:100C700007C02FE030E001C0220F4A95EAF7209527
:100C8000C695C695C370822BC23049F058F4C13066
:100C900019F00E949B0730CF0E9495072DCF0E942C
:100CA000A1072ACF0E94920727CF8695112311F022
:100CB0008C2F8170882309F41FCF4D2F42954695C4
:100CC0004770440F440F8D2F8F70042E01C0880F82
:100CD0000A94EAF72D2F2071D4FF07C02FE030E0EF
:100CE00001C0220F4A95EAF72095C695C695C370B4
:100CF000822BC23049F058F4C13019F00E94EA0743
:100D0000FBCE0E94E407F8CE0E94F007F5CE0E94C9
:100D1000AD07F2CECF70112329F08C2F0E94BF07B0
:100D20008D2F3CCF8D2F0E9405058C2F0E94CB0765
:100D3000E3CED23F41F160F4D03FB9F0D13F81F032
:100D4000112309F443C00111BDCE8C2F8F711FC038
:100D5000D33F01F1D43FA1F78091680282FD24C006
:100D60008C2F8F71112311F312C0112341F0053024
:100D700008F0C2CE8C2F8F710E94D807BDCE0630EE
:100D800008F0BACEF7CF8C2F8F711111CFCF0E9400
:100D9000BF07B2CE112329F08C2F8F710E94B607A6
:100DA000ABCE0E94B207A8CE112331F063E08C2FA6
:100DB0008F710E94540CA0CE81E00E94720C023010
:100DC00008F49ACE82E00E94720C96CE002359F06D
:100DD000D93309F013CFEFEFF7EE23E0E150F04005
:100DE0002040E1F709CF8C2F8F71A0CF0F931F9375
:100DF000CF93DF93EC01688179818D810E94A708F0
:100E00008C010E94F6070E949107B801CE010E9452
:100E10000C05DF91CF911F910F910895CF93DF9330
:100E2000EC018C81882399F0CE010E946C03811122
:100E300011C00E94B70B882351F08D81882339F0AF
:100E40008091680282FF03C082E00E94720CDF91F1
:100E5000CF910895CE010E94F606CE010E943D0377
:100E6000F6CF90E080E00E94B91A90E080E00E9406
:100E7000DE1A0E94DE0B0E944D0C0E9431160E9469
:100E8000151608950E94631B0E94310708950E9461
:100E9000CE0B0E944207089592959F70963091F074
:100EA00058F4925F9F70923058F4803F19F030F4FC
:100EB000883E30F481E008959A5FF4CF843FD1F307
:100EC00080E00895883EB0F3813FD1F7F3CFFC0175
:100ED0002481222339F0808191810E949C080E9404
:100EE0004C07089580E00895A6E0B0E0EAE7F7E057
:100EF0000C9403242696E2E00C941F24A7E0B0E0B3
:100F0000E4E8F7E00C9403242796E2E00C941F2415
:100F100008950E94880708950E9489078093D5014B
:100F2000089508950E948C0708959091D501892B0A
:100F30000E948C0708959091D50189230E948C0707
:100F400008959091D50189270E948C0708950E94E9
:100F5000880708950E94A70708950E94AA07809312
:100F6000D401089580E00E94AD07089591E001C08A
:100F7000990F8A95EAF7892F0E94AD07089521E01D
:100F800030E001C0220F8A95EAF78091D401822BCC
:100F90000E94AD07089521E030E001C0220F8A953C
:100FA000EAF720958091D40182230E94AD0708952D
:100FB00021E030E001C0220F8A95EAF78091D40148
:100FC00082270E94AD0708959091D401892B0E9439
:100FD000AD0708959091D40189230E94AD0708952B
:100FE0009091D40189270E94AD0708950895262F76
:100FF000277091E001C0990F2A95EAF723E07695D2
:1010000067952A95E1F7FB01EE0FFF1FE60FF71F2B
:10101000E40FF51F50E040E0682F70E08191DF01A0
:1010200011979B01042E02C0369527950A94E2F78A
:10103000217021952827292328272C934F5F5F4F64
:101040004330510559F70895A82FA77023E09695CE
:1010500087952A95E1F7FC01EE0FFF1FE80FF91FB6
:10106000E60FF71F50E040E080E0219130E00A2ECB
:1010700002C0369527950A94E2F721703327042E93
:1010800001C0220F0A94EAF7822B4F5F5F4F433073
:10109000510559F70895262F953070F48F3060F47C
:1010A000682F70E08FE0989F600D711D112446EB52
:1010B00051E0822F0E94F7070895292F953068F498
:1010C0008F3058F490E066EB71E03FE0239F800D95
:1010D000911D11240E942408089580E00895CF9264
:1010E000DF92FF920F931F93CF93DF936C010091D8
:1010F000D4018091D501082BC3E0D0E010E0FC2E94
:10110000C8010C2E02C0959587950A94E2F780FDE0
:101110000CC02197A0F7F12C8F2DDF91CF911F915B
:101120000F91FF90DF90CF900895B6018C2F0E9411
:101130007F0F019771F3F0CFCF93DF93EC010E9403
:101140006F08BE010E947F0FDF91CF9108951F931A
:10115000CF93DF93EB019091B501992339F0CB0147
:101160000E949C08DF91CF911F910895882369F018
:10117000CB010E946F08182F682FCE010E944B08E8
:10118000BE01812F0E947F0FEDCFCB010E945D0831
:10119000182FF6CFE1E0F0E0DF0102C0AA0FBB1F7D
:1011A0006A95E2F7BD01DF0102C0AA0FBB1F4A9595
:1011B000E2F76A2B01C0EE0F2A95EAF7962F9823E3
:1011C000961302C08E2B0895E0958E230895242F48
:1011D000462F682F8091D4010E94CA080E94AD0753
:1011E00008951F93CF93DF93C091D60117E08091AC
:1011F000D7018C1304C0DF91CF911F910895D0E0E7
:101200001C9FF0011D9FF00D1124E852FE4F20811C
:101210003181428153816481758186810E947E077C
:101220002196C770E4CF20911002309111024091B5
:101230001202509113026091140270911502809174
:1012400016020E947E070895CF93DF9380911602C5
:10125000807F09F04DC080911502882309F448C0B1
:10126000E091D6015091D701C0911102D0911002A6
:10127000609112027091130247E05E17C9F18E2F40
:1012800090E0E49FF0011124E852FE4F24812223D4
:1012900091F1489FF001499FF00D1124DF01A85200
:1012A000BE4F11962C9111972C1325C02C912D1304
:1012B00022C015962C91159721111DC012962D91C3
:1012C0003C91261B370B283C3105A8F4809116026F
:1012D0008F70806180931602E252FE4F80818F7082
:1012E0008061808380E192E00E940E070E94F108F5
:1012F000DF91CF910895FC013196E770BECF482F62
:101300002091D6019091D70157E0291302C080E0C7
:10131000089530E0529FF001539FF00D1124E852E0
:10132000FE4F8181681306C08081481303C0858108
:101330008111EECF2F5F3F4F2770E7CFA4E1B0E0E0
:10134000E4EAF9E00C94F9238C0186E0F801DE016F
:101350001F9601900D928A95E1F7F8018481E5804E
:1013600090E1A92E92E0B92E9091140291111FC024
:101370008823D1F0EE20A9F0C8010E946707F82E5B
:10138000882379F087E0F801D50101900D928A95C4
:10139000E1F7C5010E944E040E9424090E9413092E
:1013A0005FC0C8010E940E07FF24F39459C0C0809B
:1013B000D18082809380F0901502209112023091AA
:1013C0001302A401421B530BFF2009F4F9C0483C4F
:1013D000510508F0A7C0882309F442C0909111027A
:1013E00080911602282F207F09F05CC09D1116C045
:1013F00090911002C91212C0E1104EC08F7080612E
:10140000809316020E94130980E192E00E940E0769
:1014100080911602F8018683F12C22C0E1103CC0B5
:101420006D2D8C2D0E947F096D2D8C2D0E947F09C2
:10143000E82E8111F1CFCF86D88A8F8598890E94B6
:101440009C08292F22952F70243078F49F70223029
:10145000A8F09923B9F0F8019681907F99F4FE2CB9
:101460008F2D6496ECE00C9415242A5F2F702230A7
:1014700068F0C8010E940E07EF2CF1CF992311F0FC
:10148000882369F3805E883050F3F3CF803F38F3D0
:10149000815F833070F7E3CF809116028160809383
:1014A0001602BACF9D1113C090911002C9120FC03D
:1014B000E1100DC08683C8010E940E0787E0F80185
:1014C000A0E1B2E001900D928A95E1F767CFC801E3
:1014D0000E946707882309F464CFEE2009F461CFE6
:1014E00080911602803288F0209110023091110212
:1014F000398728879B868A86909114029C871D864F
:101500008E87CE0108960E940E0787E0F801A0E1C1
:10151000B2E001900D928A95E1F70E9424090E94A1
:10152000130942CF90911602292F207FA1F4682D34
:101530009A8A898AA6017A899E2D0E94740780E181
:1015400092E00E940E0787E0F50111928A95E9F773
:101550000E94130961CF882309F482CF8091110280
:101560008D1110C080911002C8120CC0E1100AC089
:101570009683C8010E940E0787E0F50111928A95B3
:10158000E9F76ECFC8010E946707882309F409CFE5
:10159000EE2009F406CF80911602803208F4B5CF10
:1015A00020911002309111023A8329839C828B8210
:1015B000909114029D831E828F83CE010196A3CF4A
:1015C000483C5105B8F5882309F4EECEFE2CEE20F8
:1015D00009F4E7CE809111028D111EC08091100296
:1015E000C8121AC08091160280FD0DC0982F907FFE
:1015F00051F08683903F09F45ECF982F907F905FE3
:101600008F70892B57CF87E0F801A0E1B2E00190FD
:101610000D928A95E1F724CFC8010E9467078111D6
:1016200074CF80911602816080931602C8010E94D7
:101630000E0716CF682D9A8A898AA6017A899E2D6F
:101640000E94740787E0F50111928A95E9F7A6CE0A
:10165000AEE0B0E0EEE2FBE00C940224288739878C
:101660004A875B876C877D878E87CE0108960E94AC
:101670009E098823B1F06C85662341F02885398561
:101680004A855B857D858E850E947E0717E0809167
:10169000D6019091D70189133DC02E96E3E00C94BA
:1016A0001E2487E0FE013896DE01119601900D920E
:1016B0008A95E1F78C85882349F32091D70130E0A2
:1016C000C9010196877099274091D60148171906DC
:1016D00099F097E0929FD001939FB00D1124A852EA
:1016E000BE4FFE01319601900D929A95E1F78093DD
:1016F000D7010E94F108CACF0E9447071092D70174
:101700001092D60187E0E0E1F2E0DF011D928A95B8
:10171000E9F7BCCF819FC001112488529E4F0E94DF
:101720009E09882309F4B9CFE091D6011E9FF001EC
:101730001124E852FE4F208131814281538164811E
:10174000758186810E947E078091D60190E0019686
:10175000877099278093D6019ACF80911F02869532
:1017600086958695089580911F02877008959091BF
:101770001F02977081E009F480E0089580912B02A8
:10178000089590912B02892B80932B0208958095C8
:1017900090912B02982390932B02089510922B0284
:1017A000089590912A02892B80932A0208958095AA
:1017B00090912A02982390932A02089510922A0267
:1017C000089508950E94E10B089590912002292F19
:1017D000282331F080958923809320020E94E20B18
:1017E000089508950E94F10B089590912102292FE8
:1017F0002823281729F0982B909321020E94F20B9E
:10180000089590912102292F282331F08095892372
:10181000809321020E94F20B089580912102882377
:1018200029F01092210280E00E94F20B08950F939C
:101830001F93CF93DF930091000110910101C0919C
:101840002B0280912A02C82B80912102882331F03B
:10185000C82B0E94031B81110E940D0CF801C0834C
:10186000C0910001D091010148E050E067E172E0D1
:10187000CE010E943E24892B59F088E0FE01A7E1A9
:10188000B2E001900D928A95E1F7CE010E94A01A74
:10189000DF91CF911F910F9108950E94170C089529
:1018A00008950E94500C08959091680292FF11C013
:1018B00098E0899F90011124622B60931F020E947F
:1018C000BF0780911F028695869586950E94510CD0
:1018D00008950E94BF07089510921F0280E00E94A1
:1018E000510C089590911F028095892380931F02C7
:1018F000282F277069F4891759F09091680292FF98
:1019000007C08695869586950E94CB070E946C0C31
:1019100008959091680292FB222720F9281769F018
:1019200080FB92F99093680280916702909168021F
:101930000E94D20C82E00E94720C0895809168028D
:1019400082FB882780F991E089270E94890C0895FD
:1019500081E00E94890C089580E00E94890C08951E
:101960006FEF7FEF90E080E00E949024089590E078
:1019700080E00E945C24853E9E4F19F40E9441192C
:10198000089580E0089582E090E00E945424089534
:1019900083E090E00E945424089584E090E00E9447
:1019A0005C240895BC0184E090E00E949024089596
:1019B000AB01BC018FE090E00E9484240895AB014C
:1019C000BC0183E190E00E948424089560E070E00F
:1019D000CB010E94DF0C089560E070E0CB010E9413
:1019E000D80C0E94E60C0895A8E0B0E0EAEFFCE015
:1019F0000C94032465EE7EEF90E080E00E9490243A
:101A000060E082E090E00E94722481E08093D50142
:101A100061E083E090E00E94722460E074E184E081
:101A200090E00E94902460E086E090E00E947224A2
:101A300060E087E090E00E94722440E050E0BA014C
:101A400088E090E00E94842460E083E290E00E94BD
:101A5000722460E08CE090E00E94722460E08DE0EF
:101A600090E00E94722419821A821B821C821D82BD
:101A70001E821F82188648E050E067E170E0CE01C8
:101A800001960E94622440E050E0BA018FE190E0AC
:101A90000E94842480E00E945A190E9489190E94A1
:101AA000EC0C2896E2E00C941F240E94F40C08959C
:101AB000682F8EE090E00E9472240895A6E0B0E0C6
:101AC000E4E6FDE00C9401240E94411C8C0180910D
:101AD0002C0290912D028017910781F019821A82B1
:101AE0000E94411C682F49815A81792F80E090E043
:101AF0000E941E0410932D0200932C022696E4E00F
:101B00000C941D240E944D1C60933C0270933D0276
:101B100080933E0290933F026093380270933902A3
:101B200080933A0290933B020895089508950E948D
:101B3000950D089508950E949A0D089585E790E106
:101B40000E94DF110E94960D0E94970D089581E07A
:101B500008950E94A70D08950E94A70D0895089565
:101B600008950E94AF0D0E94B00D08950E94B70C19
:101B7000811102C00E94550D0E94C30C8093400247
:101B80000E94CD0C90936802809367020E9402121B
:101B90000E94C80C0E9492078091D4010E94AA075B
:101BA00008950E94381C0E9499190E9438110E94C1
:101BB000B60D0E94F0030E949B0D0895A6E0B0E0D0
:101BC000E4EEFDE00C94F7230E94A90D81110AC0F8
:101BD0000E945E0D0E9453160E9405042696EEE0B8
:101BE0000C9413240E944E112EE2822E22E0922E9B
:101BF000640110E0F601E190F1906F01812F0E94E5
:101C00007F101F5F153009F44BC0E816F90691F3F9
:101C10008091400281FD0E9488100E94AC0D782EB8
:101C200010E066246394812F0E947F107C01F401F0
:101C3000A190B1904F018A159B0561F100E0CC2481
:101C4000C394D12CAE24BF24C5018C219D21892BA6
:101C5000C1F07720B1F009831A830E94411C9C8354
:101C60008B836D8221E0C7018C219D21892B09F492
:101C700020E049815A816B817C818D81922F0E9465
:101C80001E040F5FCC0CDD1C0F30F1F6F40132970F
:101C9000F182E0821F5F153031F60E94820D9ACFEB
:101CA000E816F90609F0B4CF93CF1F93CF93DF93D3
:101CB0000E94840FEC01C11580E5D807F0F5C1152D
:101CC00080E4D80708F09CC0C03ED10520F5CD3C8B
:101CD000D10508F082C0C83AD10578F4C53AD105DB
:101CE00008F073C0C130D10519F1209709F1C43053
:101CF000D105F0F4D0E0C0E01BC0C33CD105D0F763
:101D0000C85AD0E0CC0FDD1FCF5ADE4F0990D881E2
:101D1000C02DD4640DC0C11580E2D80708F0D1C031
:101D2000C11581E0D80708F05AC0C83ED10510F7A8
:101D3000CE01DF91CF911F910895C03682E5D8077B
:101D400018F5C03482E5D80708F06BC0C03282E5D0
:101D5000D80708F05FC0C11582E5D80708F497C01E
:101D60002C2F2695269580E2289F900111248C2FF8
:101D70008370C1E0D0E002C0CC0FDD1F8A95E2F78E
:101D8000C22BD32BDD68D4CFC03A82E5D80760F4EC
:101D9000C03882E5D80708F459C0CF71D0E0DC2FF5
:101DA000CC27C46FD06AC4CFC03C82E5D80708F402
:101DB00062C0C03E82E5D80708F09CCFDC2FCC275C
:101DC000CC27DF71C06FD06AB3CFC55AD0E0C957F6
:101DD000DE4FC881D0E0D064ABCFD065A9CF8D2FC6
:101DE0000E942610182FCE0199270E94840FC12F20
:101DF000D0E0DC2FCC27CC27DF71C82BD92B98CF94
:101E0000CE0199270E94840FCC27DF70C82BD92BD5
:101E1000D06A8ECFCF71D0E0DC2FCC27C16FD06AD3
:101E200087CF2C2F26952695277080E2289F90013A
:101E300011248C2F8370C1E0D0E002C0CC0FDD1FD5
:101E40008A95E2F7C22BD32BDC6872CF2C2F269514
:101E50002695277080E2289F900111248C2F837093
:101E6000C1E0D0E002C0CC0FDD1F8A95E2F7C22BA3
:101E7000D32BDA685DCF8C2F8F710E942610C82F6C
:101E8000D0E0DC2FCC27CC27DF71D06251CF8C2F54
:101E90008F710E94261055E0D695C7955A95E1F7A7
:101EA000CF70D0E0DC2FCC27282F30E084FF05C096
:101EB00044E0220F331F4A95E1F7C22BD32BD069A0
:101EC00037CF8D2F8F710E942610182FCE019927A2
:101ED0000E94840FC12FD0E0DC2FCC27CC27DF71EC
:101EE000C82BD92BD2CF462F753030F46F3020F469
:101EF000672F0E94BD12089590E080E008950E942F
:101F0000730F0E94550E089582389105B9F1B0F40F
:101F10008133910509F47DC048F48932910509F4B3
:101F20006DC08A32910509F47BC00895853391050F
:101F300009F45FC08933910509F10895833E910545
:101F4000D9F138F4803E910529F1823E910579F16D
:101F50000895863E9105D9F1873E910509F43EC06A
:101F6000843E910541F52091680221FF24C08091B3
:101F7000670284FD19C087EE90E008952091670202
:101F8000237009F05AC02091680223FF14C089E22F
:101F900090E008952091670220FD38C030916802DA
:101FA00030FF09C024FF43C090E080E008952091F5
:101FB000670222FDF7CF08952091670222FD3AC003
:101FC0003091680230FD39C024FFF5CFEDCF20916C
:101FD000670223FFF0CF24FDE7CFCDCF209167022A
:101FE00023FD2EC03091680231FFEECF84EE90E0E9
:101FF00008952091670225FFDECFC9CF20916702A7
:1020000025FD21C02091680223FFD5CF89E390E010
:10201000D2CF2091670226FFCECF8AE290E00895CA
:102020002091670226FFC7CF81E390E0089583EEF9
:1020300090E0089582EE90E0089580EE90E008959B
:1020400086EE90E0089585E390E008959091670210
:1020500092FF10C041E0282F2471243009F040E0A5
:1020600031E0282F2871283009F030E0431711F0B3
:102070002CE0822793FF10C041E0282F24712431E7
:1020800009F040E031E0282F2871283109F030E0D4
:10209000431711F02CE082273091680230FF10C006
:1020A00051E0282F2171213009F050E041E0282F24
:1020B0002871283009F040E0541711F029E08227F8
:1020C00031FF10C041E0282F2171213109F040E09B
:1020D00031E0282F2871283109F030E0431711F042
:1020E00029E0822794FD877E089580E00895089571
:1020F0000E947710089508950E947B100895E82F9C
:10210000F0E0EE0FFF1FED58FD4F808191810895A3
:10211000089580EA8A95F1F7089500C008950E9415
:1021200089100895F894E82FE295EF70F0E031A15E
:10213000282F2F7081E090E001C0880F2A95EAF7E0
:10214000982F9095932391A392A1892B82A37894A1
:1021500008950F931F93CF93DF93C9E9D1E089913D
:102160008F3F11F00E94921081E0CE39D807B9F765
:10217000CAE8D1E009E911E089918F3F11F00E948E
:1021800092100C171D07C1F7DF91CF911F910F918E
:102190000895AF92BF92DF92EF92FF920F931F9339
:1021A000CF93DF938C01D62EC62FD0E0CE01875679
:1021B0009E4F7C01FC0120812F3F09F44CC0F89414
:1021C000E22FE295EF70F0E031A12F7081E090E016
:1021D00001C0880F2A95EAF7932F982B91A392A11B
:1021E0008095892382A378940E948D10EAE8F1E01B
:1021F00041E050E0B12CA12C21912F3FB1F1A22F51
:10220000A295AF70B0E090968C9190E02F7002C0D4
:10221000959587952A95E2F780FD27C0CA01A82ADF
:10222000B92A440F551F81E0E939F80729F7F7016A
:1022300080818F3F11F00E94921061E0A114B104DF
:1022400009F460E08D2D0E948F10CC0FDD1FC00FB0
:10225000D11FB982A882DF91CF911F910F91FF907A
:10226000EF90DF90BF90AF90089590E080E0D7CFDF
:102270000E94A9108AE0E3E7F2E0DF01982F1D92A7
:102280009A95E9F7E9E6F2E0DF011D928A95E9F710
:1022900085E00E9489110E9478100895AAE0B0E0BC
:1022A000E4E5F1E10C9400248E010F5F1F4F8AE0FA
:1022B000F80111928A95E9F7F12C6F2DC8010E945F
:1022C000C910F394F5E0FF12F8CF4AE050E0B801EE
:1022D00089E692E00E943E2421E0009709F420E084
:1022E000892B41F08AE0F801A9E6B2E001900D9255
:1022F0008A95E1F745E063E772E089E692E00E94A3
:102300008A11182F0E947C10812F2A96E5E00C94E8
:102310001C240895B0E0A0E0E0E9F1E10C94FD2375
:102320006C017B01042FC22F222379F081E080937E
:1023300043020E94411C909342028093410280E03C
:10234000CDB7DEB7E8E00C941924D0914302DD2329
:10235000B1F380914102909142020E94591C05976D
:1023600070F310E0000F111FA801B601C7010E9411
:102370003E24892B31F0A801B601C7010E944B24ED
:10238000CD2F109243028C2FDBCF0E94DE0D0895DB
:102390000E94DA1B0E94401E0E949E0D0E945A1E3F
:1023A0000E94D10D0E94671E0E946C1E0E94C511E2
:1023B0000E94861E0E940E1D0E94B10DF5CF9093C3
:1023C000AF018093AE0108950E94B00C089580E0A3
:1023D0000E947F10817008950E944E112FEF86E7B2
:1023E00091E0215080409040E1F700C000000E9441
:1023F0004E110E94E711882321F00E94E4110E94EF
:102400008C1C08950E94EC11089584E0089550E01A
:10241000440F551F9EE1699F400D511D112496E9FF
:10242000899F400D511D1124CA01889608950F936C
:102430001F93CF93DF938430C8F46530B8F44F30E6
:10244000A8F40E9407128C010E945424C82FD0E0E7
:10245000DC2FCC27C80101960E9454249E01282B12
:10246000C901DF91CF911F910F91089590E080E015
:10247000F8CF0F931F93CF93DF93122F032F843046
:1024800078F4653068F44F3058F40E940712EC017C
:10249000602F0E947224612FCE0101960E94722447
:1024A000DF91CF911F910F9108951F93CF93DF93E9
:1024B000D0E0C0E011C0412F6C2F8D2F0E94CB02C5
:1024C0009C01412F6C2F8D2F0E9439121F5F1F30EE
:1024D00091F7CF5FC53011F010E0EDCFDF5FD43062
:1024E00041F7DF91CF911F910895EF92FF920F93E3
:1024F0001F93CF93DF93EC018A017C01E60EF71E58
:10250000CE018896CE15DF0529F4CDB7DEB7E6E01B
:102510000C941B24C83522E0D20740F40E945424B6
:10252000F80180830F5F1F4F2196EACFF8011082D8
:10253000F9CFB0E0A0E0EFE9F2E10C94FD237C01DB
:102540006A018C01060F171FEC01CE018896C01797
:10255000D10729F4CDB7DEB7E8E00C941924C835CB
:1025600022E0D20740F4FE01EE19FF09EC0DFD1D3B
:1025700060810E9472242196E8CF843038F465305F
:1025800028F44F3018F40E941712089590E080E06C
:10259000089580E1089580E891E00895EF92FF9218
:1025A0000F931F93CF93DF93EC018A017C01E60E1A
:1025B000F71ECE0180589D4FCE15DF0529F4CDB70B
:1025C000DEB7E6E00C941B24C03821E0D20740F4CB
:1025D0000E945424F80180830F5F1F4F2196E9CF9A
:1025E000F8011082F9CFB0E0A0E0E9EFF2E10C943D
:1025F000FD237C016A018C01060F171FEC01CE013F
:1026000080589D4FC017D10729F4CDB7DEB7E8E059
:102610000C941924C03821E0D20740F4FE01EE19D1
:10262000FF09EC0DFD1D60810E9472242196E7CF09
:10263000CF93DF93C0E8D2E060E0CE010E94722425
:102640002196C11584E0D807B9F7DF91CF9108959D
:10265000A8E0B0E0EEE2F3E10C94FB23F82E8FE06B
:102660008F1508F46EC08FEF93E00E9454248111FF
:1026700068C000E812E0F11035C0FE0131966F012C
:1026800088E011928A95E9F77801FFEFEF1AFF0AC7
:10269000C8010E94542489831A82882309F451C0F6
:1026A0008130D1F4580182E0A80EB11CC7010E940C
:1026B00054248A83882309F444C09FEF980F9330F1
:1026C000F0F4780193E0E90EF11CC5010E94542456
:1026D0008B838823B1F11C8260E0C6010E94E5175C
:1026E0008701D2CF011594E0190759F1C8010E9462
:1026F0005424811101C0FA940F5F1F4FBCCF7501A4
:10270000843051F702E010E07501EFEFEE1AFE0A97
:10271000C5010E945424F601E00FF11F8083882335
:1027200081F08C3741F4E2E0F0E0EC0FFD1FE00FA8
:10273000F11F1082D1CF0F5F1F4F570107301105D6
:1027400019F72896EAE00C941724CF93DF93EB0156
:1027500086319C4711F50E94BE0B9D81992399F00B
:102760008A7A91E009F490E090934402811109C0C3
:1027700089E20E94531B0E944D0C80E0DF91CF91B3
:10278000089585E3F6CF80914402811104C089E267
:102790000E945B1BF0CF85E3FBCF81E0EFCFCF93AF
:1027A000DF93EC01FB018581882309F4D2C09E01EF
:1027B00030572332310508F0B2C00E94CD0C9093FF
:1027C000680280936702FE01E150F047E232F105B2
:1027D00020F4EC54FB4D0C94E62380916702816059
:1027E0008093670293C0809168028860809368023A
:1027F0008DC0809167028260F3CF80916702846010
:10280000EFCF809167028860EBCF80916802816092
:10281000EDCF809168028260E9CF8091670280618C
:10282000DFCF809167028062DBCF80916702806496
:10283000D7CF0E944707809167028068D1CF8091EF
:1028400067028C60CDCF809168028360CFCF80918A
:1028500067028E7FC5CF80916802877FC7CF809146
:1028600067028D7FBDCF809167028B7FB9CF80914A
:102870006702877FB5CF809168028E7FB7CF809146
:1028800068028D7FB3CF809167028F7EA9CF809140
:1028900067028F7DA5CF809167028F7BA1CF0E94B9
:1028A0004707809167028F779BCF80916702837F74
:1028B00097CF809168028C7F99CF8091670282FBCD
:1028C000992790F921E0922790FB82F990FB83F9F8
:1028D00087CF80916802982F909591708E7F892B79
:1028E00090FB81F983CF90916702892F8F7B96FFB0
:1028F000806476CF0E94470790916702892F97FBEB
:1029000087F980586DCF81E00E94580D8091670251
:10291000909168020E94D20C0E94470780E0DF91EC
:10292000CF91089580E0F0CF90916702892F8F7E3C
:1029300094FF806155CF90916702892F8E7F90FF21
:1029400081604ECF90916802892F877F93FF8860C6
:102950004DCF81E0E4CF282F35EB2303C0011124B4
:1029600097FF04C080589109892F089580589F4F80
:10297000FBCF80914B0280FF0DC06091070170E09A
:10298000660F771F6038710570F56115710569F183
:10299000862F089581FF07C06091070184E0689F3A
:1029A000B0011124EFCF6091070182FD0AC0809130
:1029B0004A028823A9F0209106016091070182173D
:1029C00010F088E0ECCF869FC001112433E0880F1F
:1029D000991F3A95E1F7622F70E00E94D223D2CF7F
:1029E00068E070E0D5CF8FE7089581E00895809189
:1029F0004B0280FF0CC06091030170E075956795F4
:102A0000759567956115710549F1862F089581FFC8
:102A100006C06091030170E075956795F3CF6091F2
:102A2000030182FD0BC0909149029923A1F06091AE
:102A3000020180910301961738F0682F70E060382A
:102A4000710500F38FE70895899FC001112470E09C
:102A50000E94D223F4CF61E070E0D7CF81E00895E7
:102A600090914E0220914F02922B20915102922B75
:102A700020915002922B31F098E090934A0291E01D
:102A8000909349028D3C31F40E94B9148195809352
:102A90004F0208958E3C19F40E94B914F8CF8F3C70
:102AA00031F40E94B914819580934E020895803DBF
:102AB00019F40E94B914F8CF893D29F40E94F71443
:102AC0008093500208958A3D21F40E94F714819565
:102AD000F7CF8B3D31F40E94F7148195809351021A
:102AE00008958C3D19F40E94F714F8CF9FE2980FD7
:102AF000983070F4815D990B21E030E001C0220F25
:102B00008A95EAF780914D02822B80934D020895B9
:102B10008D3D31F480914B02816080934B0208958A
:102B20008E3D21F480914B028260F7CF8F3DB9F743
:102B300080914B028460F1CF40914E028D3C59F45C
:102B400080914F0287FF0DC010924F0241110BC0C0
:102B500010924A0208C08E3C81F480914F021816F0
:102B60009CF3442381F08091500290915102892B73
:102B700009F05AC01092490208958F3C49F447FF6A
:102B8000F0CF10924E0280914F028111ECCFE0CF36
:102B9000803D19F41416ACF3E4CF90915002893DB6
:102BA00029F41916F4F610925002DBCF8A3D19F47D
:102BB00097FFD7CFF8CF909151028B3D29F497FF23
:102BC000D0CF10925102CDCF8C3D19F41916CCF311
:102BD000C8CF9FE2980F983090F4815D990B21E067
:102BE00030E0B90102C0660F771F8A95E2F7CB018A
:102BF000809590914D02892380934D02B2CF8D3DF7
:102C000031F480914B028E7F80934B02AACF8E3D90
:102C100021F480914B028D7FF7CF8F3D09F0A1CF3A
:102C200080914B028B7FF0CF08950E94411C9C0144
:102C300090914E0280914F02982B21F030934802E0
:102C4000209347029091500280915102982B21F0DD
:102C500030934602209345028CE492E00E94AB1A26
:102C6000089586E0ECE4F2E0DF011D928A95E9F731
:102C700010924A021092490210924B020895FC01F0
:102C8000828181110EC0838181110BC084818111E9
:102C900008C091E08581811101C090E0892F817089
:102CA000089581E0FCCFA6E0B0E0E9E5F6E10C9400
:102CB000022486E0ECE4F2E0DE01119601900D9230
:102CC0008A95E1F710924E0210924F021092500234
:102CD000109251028B819C81892B89F0809147024F
:102CE000909148020E94591CAC0190914A0299238C
:102CF000C9F1809108018417150608F440C08D8140
:102D00009E81892B91F080914502909146020E940C
:102D1000591CAC0190914902992309F46AC0809131
:102D200004018417150608F472C0BE016F5F7F4F5F
:102D30008CE492E00E946E1B811105C08CE492E04D
:102D40000E943F1681110E94151686E0FE01319601
:102D5000ACE4B2E001900D928A95E1F72696E3E0AB
:102D60000C941E24209109018AE0289F90011124CF
:102D70002417350720F69F5F90934A0202C09F3FB9
:102D8000D1F71B81112359F00E94B9149FEF11163E
:102D90000CF491E0899F802D112480934E021C81B8
:102DA000112359F00E94B9149FEF11160CF491E011
:102DB000899F802D112480934F0280914E02882399
:102DC00009F49DCF10914F02112309F498CF0E946E
:102DD000AB14882351F080934E02812F0E94AB14D4
:102DE000882329F080934F028ACF81E0F4CF81E0DD
:102DF000F9CF209105018AE0289F90011124241722
:102E0000350708F092CF9F5F9093490202C09F3F21
:102E1000D1F71D81112359F00E94F7149FEF11166D
:102E20000CF491E0899F802D1124809350021E8123
:102E3000112359F00E94F7149FEF11160CF491E042
:102E4000899F802D11248093510280915002882304
:102E500009F46BCF10915102112309F466CF0E943F
:102E6000AB14882351F080935002812F0E94AB1441
:102E7000882329F08093510258CF81E0F4CF81E07C
:102E8000F9CFB0E0A0E0E7E4F7E10C94FC23E82FF1
:102E9000F0E0EC5FFC4FB490282F26952695269500
:102EA00030E0F901EC55FC4F0491877010E0082EDA
:102EB00002C0159507950A94E2F701701127F901F0
:102EC000EC56FC4FE490F12C082E02C0F594E794E8
:102ED0000A94E2F791E0E922FF24F901EC57FC4F54
:102EE000C491D0E002C0D595C7958A95E2F7C1702C
:102EF000DD27C62ED12C0115110549F5E114F10489
:102F000031F086EE0E946104C601009771F5B601AA
:102F10008B2D0E94DD04C601009779F5E114F104C0
:102F2000A1F50115110531F081EE0E94AA04C60138
:102F30000097C9F5CD2B31F08CE20E94F504C11445
:102F4000D104C9F5CDB7DEB7E9E00C94182481EEC1
:102F50000E946104C601009789F2EFE9FFE0319712
:102F6000F1F700C000000197F6CFEFE9FFE03197DD
:102F7000F1F700C000000197C8CFEFE9FFE03197FB
:102F8000F1F700C000000197C7CF86EE0E94AA04A7
:102F9000C601009731F2EFE9FFE03197F1F700C089
:102FA00000000197F6CFEFE9FFE03197F1F700C09D
:102FB00000000197BDCF8FE99FE00197F1F700C0B6
:102FC000000091E0C91AD108BACFEF92FF920F9397
:102FD0001F93CF93DF93EC01162F0AE0888188239B
:102FE00009F459C0813009F052C08981813071F4EF
:102FF0007E0182E0E80EF11C8A810E94F504E7015F
:10300000812F90E00097D9F52196E8CF823041F4E6
:103010007E01E2E0EE0EF11C8A810E946104EFCF96
:10302000833041F47E01F2E0EF0EF11C8A810E94B0
:10303000AA04E5CF843011F02196E2CF2A812296AE
:1030400090E080E0AE014F5F5F4F2053330B2A309A
:10305000310550F00097A1F2EFE9FFE03197F1F769
:1030600000C000000197F6CF089FB001099F700DC6
:103070001124C901860F971F2981EA01E3CFEFE9E7
:10308000FFE03197F1F700C000000197BBCF612F3F
:103090000E944117B9CFCDB7DEB7E6E00C941B24F0
:1030A0000F931F93CF93DF93C42FD22FFC01858101
:1030B0008823C9F0409354020E94411C909353020C
:1030C0008093520280E28C0F883040F4C77081E018
:1030D00001C0880FCA95EAF70E94FE04DF91CF91E4
:1030E0001F910F91089510915402141332C08091D2
:1030F0005202909153020E94591C883C910548F558
:10310000C0E2CD0F1D17B9F080E2810F883040F486
:10311000177081E001C0880F1A95EAF70E94050533
:10312000C83048F481E09D2F977001C0880F9A95B0
:10313000EAF70E94FE04802F0E94F504C83070F662
:10314000D77081E001C0880FDA95EAF70E94050583
:10315000C5CF80E28C0F883008F6C77081E001C0CF
:10316000880FCA95EAF7F2CF0F93DB0188519C478D
:1031700087309105A0F5FC01EA52FB4D0C94E62343
:1031800006E221EE41EE6AE17CE7CD010E94501893
:1031900080E00F91089507E225EE45EE6BE17CE7B4
:1031A000F4CF06E221EE40EE68E17CE7EECF07E2E5
:1031B00025EE44EE69E17CE7E8CF06E221EE42EE3F
:1031C0006CE17CE7E2CF07E225EE46EE6DE17CE7BD
:1031D000DCCF08E221E045EE6EE17CE7D6CF159624
:1031E0008C91882319F010925402D3CF81E0D1CF73
:1031F0001F93CF93DF9387372CE7920759F0C1E0F5
:1032000088379C47E1F4FB01C581CC2371F10E9412
:103210003B1906C0FB01C581CC23B1F00E943819CF
:103220000E94BF070E943E19D82F0E943B19C82F49
:103230000E9438194D2F6C2F0E94E708C0E08C2F98
:10324000DF91CF911F9108950E9438190E94CB07FA
:103250000E943E19182F0E943B19D82F0E9438193E
:10326000412F6D2F0E94E708EACF0E943B19EECF55
:1032700080910C01089580910B01089580910A01BD
:10328000089584E290E00E945424843289F485E217
:1032900090E00E945424863059F486E290E00E9427
:1032A000542491E0843109F090E0892F81700895D1
:1032B00080E0FCCFCF93C82F6FEF811164E284E2EE
:1032C00090E00E9472246FEFC11166E085E290E009
:1032D0000E9472246FEFC11164E186E290E00E94C7
:1032E0007224CF910895089587E290E00E945424BB
:1032F000682F70E090E080E008950895CF93C62F86
:103300000E947D196C2F87E290E00E947224CF9179
:10331000089580E00E945A1960E070E0CB010E949D
:103320007E190E9455120E94181381E00E945A19BA
:1033300008950E9473190E9474190E947D190E94B9
:103340004119811102C00E948919089508959C01B4
:10335000FB018581882351F0A90157574038510559
:1033600030F4822F0E94281380E0089581E00895B0
:103370002FEFFC01208308950E94B819089580E082
:103380000895B0E0A0E0E7ECF9E10C94FD23EC0136
:10339000C62E0E94BF19811110C0E881E150E331AF
:1033A000B8F4F0E0E352FB4D0C94E62319828CE074
:1033B0008A836C2DCE010E94051DCDB7DEB7E8E0F3
:1033C0000C94192489818230C1F028F4813061F095
:1033D0008FEF8883EECF833099F08430C9F71A825B
:1033E0001B821C821D82E5CF0E944D1C0E94EC2393
:1033F0006A837B838C839D83DCCF0E947419F6CF14
:103400008A81082F10E07E019EE0D92ED80E05306B
:10341000110578F6802F0E947F10F7019383848333
:103420000F5F1F4FF2E0EF0EF11CD012F0CFC1CFB3
:103430008981823031F0853059F68A810E94A6193F
:10344000B8CF6A817B818C819D810E94EC230E9490
:103450007E19AFCF4B816A8189810E94171298270C
:10346000892798279D838C83A4CF2C813D81322787
:10347000232732274B816A8189810E94391299CF93
:103480000E94551296CF6C2DCE010E94BC1991CF8F
:103490000E94C91289838DCF0E94CB129827892759
:1034A00098279A83898385CF6B8170E089819A817F
:1034B000AE014C5F5F4F9827892798270E94CE1254
:1034C00078CF6B8170E089819A81AE014C5F5F4F4C
:1034D0009827892798270E94F3126BCF0E94181310
:1034E00068CF0E940512D6CF6B8170E089819A81E6
:1034F000AE014C5F5F4F9827892798270E9475126D
:1035000058CF6B8170E089819A81AE014C5F5F4F2B
:103510009827892798270E9499124BCF90935A0297
:10352000809359020895E0915902F0915A02309720
:1035300029F00190F081E02D0995089580E008952B
:10354000E0915902F0915A02309721F00280F38104
:10355000E02D09950895E0915902F0915A023097B3
:1035600039F022E0DC012C930680F781E02D0995EB
:103570000895A3E0B0E0EFEBFAE10C94032420916E
:1035800057023091580228173907A1F0909358023A
:1035900080935702E0915902F0915A02309751F00E
:1035A00023E029839B838A830084F185E02DCE016B
:1035B000019609952396E2E00C941F24A3E0B0E065
:1035C000E4EEFAE10C940324209155023091560266
:1035D00028173907A1F09093560280935502E09185
:1035E0005902F0915A02309751F024E029839B83CD
:1035F0008A830084F185E02DCE01019609952396FA
:10360000E2E00C941F2440910001509101019A01C5
:103610002E5F3F4F485F5F4F80E02417350709F466
:103620000895F90191919F019923B9F38F5FF5CF27
:10363000882371F02091000130910101F901329647
:10364000285F3F4F9191981729F0E217F307D1F7C0
:1036500080E0089581E008959C01FC0132969FEF7F
:1036600080E04191461751F09F3F19F4411101C08C
:10367000982F8F5F8630A9F79F3F09F40895290F8F
:10368000311D97FD3A95F90162830895FC01329648
:1036900008962191261303C0DF0111971C92E817A9
:1036A000F907B9F70895682F809100019091010101
:1036B0000E942C1B0895682F8091000190910101B8
:1036C0000E94461B0895E0910001F091010132969D
:1036D00086E0DF011D928A95E9F70895DC01FB0180
:1036E00011969C9111978181981322C012968C910A
:1036F0001297882319F0928189131AC013968C911E
:103700001397882319F09381891312C015968C9111
:103710001597882319F0958189130AC014969C91F6
:10372000992321F081E02481291303C080E001C0A6
:1037300081E08170089508950E949B1B0895811176
:1037400006C081E080935B020E949C1B089582E08A
:10375000F9CF83E080935B020E949C1B08950E9436
:103760009F1B089581E080935B020E949C1B08953B
:103770000E94B21B0895089508950E94BC1B0895ED
:10378000089508950E94BB1B0895CF930E94C01B0B
:103790000E944E110E94C11BC0E08C2F0E947F101E
:1037A000892B31F4CF5FC530C1F780E0CF91089508
:1037B00081E0FCCF85B7806885BF85B7806885BF0D
:1037C00008951F921FB61F9211248F939F93AF935A
:1037D000BF9380915C02811113C080917D02909112
:1037E0007E02A0917F02B09180024196A11DB11D81
:1037F00080937D0290937E02A0937F02B09380021B
:10380000BF91AF919F918F911F901FBE1F901895F0
:1038100080918502843031F10E94CE0310925C02C7
:1038200088E190E020E40FB6F894A89580936000BA
:103830000FBE2093600083B7817F846083BF83B70E
:10384000816083BF7894889583B78E7F83BF0FB6DE
:10385000F894A89580916000886180936000109230
:1038600060000FBE08950E9447070E94D303089589
:1038700082E084BD93E095BD9AEF97BD80936E0082
:1038800008952FB7F89480917D0290917E02A091C7
:103890007F02B09180022FBF08952FB7F8946091F6
:1038A0007D0270917E0280917F02909180022FBFF5
:1038B00008959C014FB7F89480917D0290917E020B
:1038C000A0917F02B09180024FBF821B930B08959D
:1038D00078941F921FB61F9211248F939F93AF93DA
:1038E000BF9380917D0290917E02A0917F02B09162
:1038F00080020196A11DB11D80937D0290937E02EE
:10390000A0937F02B0938002BF91AF919F918F915E
:103910001F901FBE1F90189581E08093E00080E209
:103920008093D8001092C9008FE19EE40197F1F7CF
:1039300000C0000087E090EBDC0180938E02909342
:103940008F02A0939002B093910288E19CE00FB6A1
:10395000F894A895809360000FBE90936000FFCF0D
:1039600088E19CE00FB6F894A895809360000FBEA4
:1039700090936000FFCF80916502089508959B01A8
:10398000BA01909185029430E9F48F708093E90038
:103990009FEF8091E800915085FD06C085ED8A95E6
:1039A000F1F700009111F5CF8091E80085FF0AC082
:1039B00050E040E0C9010E94FC1E8091E8008E7733
:1039C0008093E800089543E050E0BC0184E00E9449
:1039D000BF1C089546E050E0BC0184E00E94BF1C7B
:1039E0000895CF93DF93EC0148E050E0BC0181E003
:1039F0000E94BF1C88E0FE01ADE5B2E001900D928F
:103A00008A95E1F7DF91CF910895603231F440E279
:103A100050E0BC0182E00E94BF1C0895A0E2B0E02B
:103A2000E4E1FDE10C94032480918502843009F5E2
:103A300083E08093E9008091E80082FF1AC08091C2
:103A4000E80090E085FF09C050E040E060E270E0EF
:103A5000CE0101960E944B1F91E08091E8008B7788
:103A60008093E800992329F060E2CE0101960E943C
:103A7000C119A096E2E00C941F2480918402811168
:103A800009C00E94DB200E9438218091E2008460FE
:103A90008093E20008951092840208950E94B21B60
:103AA00008956091810281E0611101C080E00E946F
:103AB000A91B08959091850281E0943009F080E07F
:103AC000609181020E94AF1B089542E061EC81E0A9
:103AD0000E94572042E261EC84E00E94572042E2BB
:103AE00061EC82E00E94572042E260EC83E00E9499
:103AF00057209091850281E0943009F080E0609138
:103B000081020E949F1B089580918702833009F4EF
:103B100063C030F48130E1F1823009F4A0C008952F
:103B20008A3009F48CC08B3009F471C0893009F0F7
:103B300052C080918602813209F04DC080918A0284
:103B400090918B02009719F0029709F044C0809180
:103B5000E800877F8093E8008091E80082FF37C00B
:103B60009091F3008091F200029731F48091F1007E
:103B7000813011F0863021F48091F100809365024C
:103B80008091E8008B778093E8000E948B2023C00F
:103B900080918602813AF9F48091E800877F8093D2
:103BA000E80080918A0290918B02892B61F468E091
:103BB0008DE592E070E00E949A1F8091E8008B777B
:103BC0008093E800089560E090E080E0F3CF80917A
:103BD00085028111C1CF089580918602813AD9F77B
:103BE00080918A0290918B02892BA9F78091E8003D
:103BF000877F8093E8008091E80080FFFCCF809170
:103C000017018093F1008091E8008E77BCCF8091FE
:103C10008602813201F780918A0290918B02892B72
:103C2000D1F68091E800877F8093E8000E948B2086
:103C300080918802809317010E9447070895809120
:103C40008602813241F68091E800877F8093E80008
:103C50000E948B2080918902809366020895809152
:103C60008602813A09F0B7CF8091E800877F809380
:103C7000E8008091E80080FFFCCF80916602C1CF10
:103C800084B7877F84BF0FB6F894A89580916000B1
:103C9000886180936000109260000FBE80E890E021
:103CA0000FB6F89480936100909361000FBE0E945C
:103CB000B81B08950E94DB200E943821E2EEF0E05C
:103CC00080818460808378940E94B72308958DE07A
:103CD00091E00E948E1A089580918502853031F41A
:103CE00080918502853019F00E94331C08950E944E
:103CF000081C80918302882399F30E94C51B8823A6
:103D000079F30E94E61E0E944707EACF08959A01C0
:103D100040918C0250918D020E948F1E0895492F70
:103D200055274330510521F168F44130510509F41C
:103D300043C04230510509F444C090E080E050E0B7
:103D400040E026C04132510551F142325105A9F7F8
:103D50006330710590F7FB01EE0FFF1FEF55FE4F2B
:103D60004081518162567E4FFB01808190E010C0FE
:103D700099278130910581F0009729F00297E9F6A3
:103D8000E4EBF3E002C0E0EDF3E0849190E0AF01FA
:103D9000F901518340830895E0ECF3E0F6CF6330FE
:103DA000710558F6660F771FFB01E955FE4F4081FC
:103DB000518189E090E0ECCF82E190E04FE254E065
:103DC000E7CF8BE590E044ED53E0E2CF80E189BDA1
:103DD00082E189BD09B400FEFDCF8091D8008F7DBE
:103DE0008093D8008091E00082608093E000809111
:103DF000E00081FDFCCF0895AF92BF92CF92DF9299
:103E0000FF920F931F93CF93DF936C01EB018A0115
:103E10000E94AA20F82E811123C00115110539F046
:103E2000F80180819181C81BD90BC80ED91EB12C15
:103E3000A12C2097A9F08091E80085FD22C08091F7
:103E4000E8008E778093E80001151105A1F0F801D4
:103E500080819181A80EB91EB182A08285E0F82EE2
:103E60008F2DDF91CF911F910F91FF90DF90CF9019
:103E7000BF90AF9008950E94AA208823D1F2F82E17
:103E8000EFCFF60181916F018093F1002197FFEF51
:103E9000AF1ABF0ACECFAF92BF92CF92DF92FF92FE
:103EA0000F931F93CF93DF936C01EB018A010E9464
:103EB000AA20F82E811123C00115110539F0F8014F
:103EC00080819181C81BD90BC80ED91EB12CA12CA1
:103ED0002097A9F08091E80085FD22C08091E8003C
:103EE0008B778093E80001151105A1F0F80180811E
:103EF0009181A80EB91EB182A08285E0F82E8F2D87
:103F0000DF91CF911F910F91FF90DF90CF90BF90E5
:103F1000AF9008950E94AA208823D1F2F82EEFCF07
:103F20008091F100F60181936F012197FFEFAF1AA5
:103F3000BF0ACECFFC0180918C0290918D02861732
:103F40009707A0F06115710529F49091E8009E771C
:103F50009093E80090E06115710551F4911108C04B
:103F60008091E80082FF34C080E00895BC01F2CF68
:103F7000809185028823C1F18530C1F18091E800EC
:103F800083FD30C08091E80082FDEACF8091E80097
:103F900080FFE1CF8091F3002091F200382F61156E
:103FA000710519F02830310558F091E028303105BD
:103FB00009F090E02091E8002E772093E800CBCF25
:103FC00081918093F100615071092F5F3F4FE7CFDE
:103FD00080918502882341F0853041F08091E8008E
:103FE00083FFBECF81E0089582E0089583E00895C5
:103FF000FC0180918C0290918D0286179707A0F0AA
:104000006115710529F48091E8008E778093E800AE
:1040100090E06115710551F4911108C08091E8009C
:1040200082FF35C080E00895BC01F2CF8091850207
:104030008823C9F18530C9F18091E80083FD31C042
:104040008091E80082FDEACF8091E80080FFE1CF17
:104050008091F3002091F200382F6115710519F05D
:104060002830310558F091E02830310509F090E012
:104070008091E8008E778093E800CBCF8491809385
:10408000F1003196615071092F5F3F4FE6CF80916B
:104090008502882341F0853041F08091E80083FF5C
:1040A000BDCF81E0089582E0089583E00895982FC0
:1040B000973028F08F708093E90081E00895909305
:1040C000E900242F762F50E0981731F07091EC0022
:1040D0002091ED005091F00021FD02C09F5FE8CFDC
:1040E0003091EB003E7F3093EB003091ED003D7F4F
:1040F0003093ED003091EB0031603093EB00709322
:10410000EC002093ED005093F0002091EE0027FD8D
:10411000E5CF80E008958091860287FF13C08091EB
:10412000E80082FF06C08091E8008B778093E8006A
:1041300004C0809185028111F2CF0895809185029B
:104140008823D9F38091E80080FFF8CF8091E800C0
:104150008E77ECCF2091E4003091E50095E6A9013F
:104160002091EC00822F817020FF06C08091E80032
:1041700080FF06C080E008952091E80022FD1AC06B
:1041800080918502882389F0853089F08091EB0049
:1041900085FD0FC02091E4003091E50042175307E0
:1041A000F9F29150E1F684E0089582E0089583E009
:1041B000089581E008950E944A210E945221E0EE74
:1041C000F0E0808181608083E8EDF0E080818F778E
:1041D000808319BCA7EDB0E08C918E7F8C93808199
:1041E0008F7E80831092840208950F931F93CF9344
:1041F000DF930E944A210E945221C8EDD0E08881BD
:104200008F77888388818068888388818F7D888381
:1042100019BC1092850210928102109283021092B2
:10422000820200EE10E0F80180818B7F808388811C
:104230008160888342E060E080E00E945720E1EEE8
:10424000F0E080818E7F8083E2EEF0E0808181600B
:104250008083808188608083F80180818E7F808365
:10426000888180618883DF91CF911F910F9108959C
:10427000E8EDF0E080818F7E8083E7EDF0E08081E3
:104280008160808384E082BF81E0809384020E9409
:10429000F5200895E8EDF0E080818E7F8083109214
:1042A000E20008951092DA001092E10008951F9242
:1042B0000F920FB60F9211242F933F934F935F935A
:1042C0006F937F938F939F93AF93BF93EF93FF93DE
:1042D0008091E10082FF0BC08091E20082FF07C065
:1042E0008091E1008B7F8093E1000E94B623809152
:1042F000DA0080FF19C08091D80080FF15C080913E
:10430000DA008E7F8093DA008091D90080FF96C01A
:1043100080E189BD82E189BD09B400FEFDCF81E065
:10432000809385020E943D1D8091E10080FF19C0AD
:104330008091E20080FF15C08091E2008E7F809323
:10434000E2008091E20080618093E2008091D800D9
:1043500080628093D80019BC85E0809385020E941A
:10436000511D8091E10084FF2BC08091E20084FF09
:1043700027C080E189BD82E189BD89B5982F917000
:1043800080FFFBCF8091D8008F7D8093D8008091F3
:10439000E1008F7E8093E1008091E2008F7E809328
:1043A000E2008091E20081608093E20080918102CE
:1043B000882309F449C084E0809385020E945A1D35
:1043C0008091E10083FF29C08091E20083FF25C036
:1043D0008091E100877F8093E10082E080938502F5
:1043E000109281028091E1008E7F8093E1008091A4
:1043F000E2008E7F8093E2008091E20080618093F2
:10440000E20042E060E080E00E9457208091F000EE
:1044100088608093F0000E944E1DFF91EF91BF9144
:10442000AF919F918F917F916F915F914F913F914C
:104430002F910F900FBE0F901F90189519BC1092DE
:1044400085020E944B1D70CF8091E30087FD93E0B1
:1044500090938502B3CF1F920F920FB60F92112443
:104460002F933F934F935F936F937F938F939F937C
:10447000AF93BF93CF93DF93EF93FF93D091E90076
:10448000DF708091EC00C82FC17080FDC0E81092F1
:10449000E9008091F000877F8093F00078940E947B
:1044A0006F221092E9008091F00088608093F00004
:1044B000CD2BCF70C093E900FF91EF91DF91CF91A9
:1044C000BF91AF919F918F917F916F915F914F912C
:1044D0003F912F910F900FBE0F901F901895AAE259
:1044E000B0E0E5E7F2E20C94022486E892E0209145
:1044F000F100FC012193CF01F2E08E389F07B9F75C
:104500000E94841D8091E80083FF1EC18091860275
:10451000909187029A3008F017C1E92FF0E0E0513E
:10452000FB4D0C94E623803899F0823809F00CC1D9
:1045300080918A028F70873008F006C18093E9006D
:104540008091EB0085FB882780F91092E90006C076
:104550008091820290918302911182609091E80093
:10456000977F9093E8008093F1001092F100809182
:10457000E8008E77E5C0882309F4D3C0823009F0C3
:10458000E3C0809188028111D6C080918A028F7029
:104590002FEF280F263008F0D7C08093E900209134
:1045A000EB0020FFC8C0933031F48091EB008062B3
:1045B0008093EB00C0C09091EB0090619093EB0072
:1045C00021E030E001C0220F8A95EAF72093EA004B
:1045D0001092EA008091EB008860EACF8111B4C0AC
:1045E000109188021F778091E3008078812B80935F
:1045F000E3008091E800877F8093E8000E948B2091
:104600008091E80080FFFCCF8091E3008068809378
:10461000E30082E0111183E08093850295C0805809
:10462000823008F091C080918802909189028C3D7F
:1046300023E09207A1F583E08A838AE289834FB75A
:10464000F894DE01139620E03EE051E2E32FF0E023
:1046500050935700E49120FF03C0E295EF703F5F55
:10466000EF708E2F90E0EA30C0F0C7968D939D9347
:104670002F5F243159F74FBF8091E800877F8093E7
:10468000E8006AE270E0CE0101960E949A1F8091D4
:10469000E8008B778093E80057C0C096E7CF609121
:1046A0008A0270918B02AE014F5F5F4F0E94871E9E
:1046B000BC01892B09F448C09091E800977F909342
:1046C000E80089819A810E94F81FE1CF8038E1F5E6
:1046D0008091E800877F8093E80080918102809339
:1046E000F10045CF811130C090918802923060F581
:1046F0008091E800877F8093E800909381020E9478
:104700008B2080918102882311F084E005C0809184
:10471000E30087FDFACF81E0809385020E94651D4A
:1047200013C080918802813079F481E0933009F0E0
:1047300080E0809383021092E9008091E800877FF7
:104740008093E8000E948B208091E80083FF0AC0DC
:104750008091E800877F8093E8008091EB00806281
:104760008093EB00AA96E3E00C941E240895CF9367
:10477000809185028823A1F0C091E900CF709091CB
:10478000EC00892F817090FD80E8C82B1092E90021
:104790008091E80083FD0E946F22CF70C093E900F2
:1047A000CF91089597FB072E16F4009407D077FD5C
:1047B00009D00E942A2407FC05D03EF490958195EB
:1047C0009F4F0895709561957F4F0895EE0FFF1FDD
:1047D0000590F491E02D0994692796276927782799
:1047E0008727782708952F923F924F925F926F927A
:1047F0007F928F929F92AF92BF92CF92DF92EF9271
:10480000FF920F931F93CF93DF93CDB7DEB7CA1BF1
:10481000DB0B0FB6F894DEBF0FBECDBF09942A881C
:10482000398848885F846E847D848C849B84AA84C4
:10483000B984C884DF80EE80FD800C811B81AA8151
:10484000B981CE0FD11D0FB6F894DEBF0FBECDBF1C
:10485000ED010895AA1BBB1B51E107C0AA1FBB1F96
:10486000A617B70710F0A61BB70B881F991F5A95FC
:10487000A9F780959095BC01CD010895FB01DC015D
:1048800004C08D910190801921F441505040C8F727
:10489000881B990B0895FB01DC0102C001900D9269
:1048A00041505040D8F70895F999FECF92BD81BD8F
:1048B000F89A992780B50895A8E1B0E042E050E069
:1048C0000C949824DC01A40FB51F4150504048F0CF
:1048D000CB01840F951F2E910E94732441505040AC
:1048E000D0F70895262FF999FECF92BD81BDF89A91
:1048F000019700B4021639F01FBA20BD0FB6F89424
:10490000FA9AF99A0FBE08950396272F0E947324EE
:104910000E947224252F0E947324242F0C94732448
:104920000196272F0E9473240C947224DC01CB0182
:10493000FC01F999FECF06C0F2BDE1BDF89A3196AF
:1049400000B40D9241505040B8F70895F894FFCF4D
:104950004D054D059D059D0502061E067C057C0541
:1049600023068A069906990627149B142F14F91317
:10497000FD1333140114371443140D14941411143B
:10498000471415144B14731419144F147A141F146C
:1049900055145D1405143B1409143F1423145914C1
:1049A000691483149214F3132B14A214D118D7187A
:1049B000C018CB18DD18E318E918D619E219181A2F
:1049C0002A1A351A401A431A431A431AE819E819E1
:1049D000481A4C1A541A611A6E1A711A741A811AEA
:1049E0009322BB22A423BB22A423EE220F23A423C1
:0449F00066237223A5
:1049F4002202280850011E0A1401030201BB1CF103
:104A04001CBE1CEA1CE31C01E200E900EA00B5003C
:104A1400B600B700CD008301CC008A019201940155
:104A24002102230224022502260227022A02B300BD
:104A3400B4006F0070009F01CB019F02A00281822D
:104A440083E200E900EA00B500B600B700CD0083B8
:104A540001CC008A0192019401210223022402253F
:104A640002260227022A02B300B4006F0070009FDE
:104A740001CB019F02A002818283909392F4F5F608
:104A8400F76766363534979694919537F0F144225A
:0E4A94007BDE0441046304E603FF031F0400FD
:00000001FF
