:100000000C9490020C94C8020C94C8020C94C80280
:100010000C94C8020C94C8020C94C8020C94C80238
:100020000C94C8020C94C8020C94471F0C941B201B
:100030000C94D2190C94C8020C94C8020C94C802F7
:100040000C94C8020C94C8020C94C8020C94C80208
:100050000C94C8020C94591A0C94C8020C94C8024F
:100060000C94C8020C94C8020C94C8020C94C802E8
:100070000C94C8020C94C8020C94C8020C94C802D8
:100080000C94C8020C94C8020C94C8020C94C802C8
:100090000C94C8020C94C8020C94C8020C94C802B8
:1000A0000C94C8020C94C8020C94C80229001E00CB
:1000B0001F0020002100220023002400250026002C
:1000C00027002D002E002A004A002B0014001A00E1
:1000D0000800150017001C0018000C001200130087
:1000E0002F00300031004B003900040016000700DB
:1000F00009000A000B000D000E000F003300340051
:1001000028002A004E00E10000001D001B00060030
:100110001900050011001000360037003800E50016
:1001200052004D00E000E300E2000000000000008B
:100130002C00000000000000E60021525000510099
:100140004F0035003A003B003C003D003E003F00C0
:100150004000410042004300440045004C000100C3
:100160000100010001000100010001000100010087
:1001700046004700480001000100010001000100A5
:10018000AA00A900A800B0000100010001000100C0
:1001900001000100010001004C000100010001000C
:1001A0000100010001000100010001000100010047
:1001B0000100010001000100010001000100010037
:1001C000000000000000010000000000000001002D
:1001D0000100010001000100010001000100010017
:1001E0000100010001000100010001000100010007
:1001F00001000100010001000100010001000100F7
:1002000001000100010001000100010001000100E6
:1002100001000100010001000100010001000100D6
:1002200001000100010001000100010001000100C6
:1002300001000100010001000100010001000100B6
:1002400001000100010001000100010001000100A6
:10025000010001000100000000000000010000009A
:100260000000000001000100010001000100010088
:100270000100010001000100010001000100010076
:100280000100010001000100010001000100010066
:100290000100010001000100010001000100010056
:1002A0000100010001000100010001000100010046
:1002B0000100010001000100010001000100010036
:1002C0000100010001000100010001000100010026
:1002D0000100010001000100010001000100010016
:1002E0000100010001000100010001000000000008
:1002F00000000100000000000000010001000100FA
:100300000100010000000000000000002A2B28006E
:1003100000000000000000000000000000000029B4
:10032000000000002C1E3420212224342627252EF4
:10033000362D3738271E1F2021222324252633332C
:10034000362E37381F0405060708090A0B0C0D0E58
:100350000F101112131415161718191A1B1C1D2F24
:100360003130232D350405060708090A0B0C0D0E44
:100370000F101112131415161718191A1B1C1D2F04
:100380003130354C0000000000000000000000008B
:10039000000000000000000000000000000000005D
:1003A00000000000000000007E0F00D4FFFFFFC728
:1003B000000000780E0357005400360035002D0071
:1003C000470000001603770069006C0062006100BE
:1003D0002E00740065006300680000000403090437
:1003E00009025B00030100A0FA09040000010301F7
:1003F00001000921110100012244000705810308C1
:10040000000109040100020300000009211101009C
:1004100001222200070582032000010705030320B3
:10042000000109040200010300000009211101007C
:1004300001226D0007058403200001120100020063
:10044000000008826522000100010200010660FF31
:100450000961A1010962150026FF00952075088138
:10046000020963150026FF00952075089102C0055A
:10047000010980A101850319012AB700150126B7DA
:1004800000950175108100C0050C0901A1018504CA
:1004900019012AA002150126A002950175108100FC
:1004A000C005010906A1018506050719E029E71520
:1004B0000025019508750181020507190029EF152E
:1004C00000250195F075018102050819012905959E
:1004D0000575019102950175039101C00501090699
:1004E000A101050719E029E7150025019508750107
:1004F00081029501750881010507190029FF150082
:1005000026FF0095067508810005081901290515C3
:10051000002501950575019102950175039101C0B2
:1005200011241FBECFEFDAE0DEBFCDBF04B603FE5D
:1005300018C08091BB029091BC02A091BD02B09105
:10054000BE028730904BA740B04B59F41092BB02CB
:100550001092BC021092BD021092BE02E0E0F8E3DD
:10056000099511E0A0E0B1E0E4E8F5E402C00590EF
:100570000D92A83AB107D9F722E0A8EAB1E001C08C
:100580001D92AB3BB207E1F70E9468120C946E22F9
:100590000C9400008430B8F46530A8F44F3098F41F
:1005A00050E09FE0699F400D511D1124FA019BE42A
:1005B000899FE00DF11D1124EE0FFF1FE455FF4F41
:1005C00085919491089581E090E0089581E00895E7
:1005D0000E94E602089581E008950E94E6020895CF
:1005E0000E94ED02089508950E94F3020895A6E086
:1005F000B0E0EDEFF2E00C94DE2149835A839E8354
:100600003091AF0189819A8131111AC03E81332323
:1006100099F0222389F00E94B108182F682F898150
:100620009A810E948D0869817A81812F0E94D00F62
:100630002696E3E00C94FA210E949F08182FF3CF2E
:100640000E94B10869817A81F1CFFC01262F408197
:10065000518162817381848195810E94F70208959E
:10066000CF93DF93EC0161E00E942503BE010E945D
:10067000E802DF91CF910895CF93DF93EC0160E022
:100680000E942503BE010E94F402DF91CF910895DC
:1006900081E008950E9448030895CF93C82F0E94D7
:1006A00089078C2F0E944A032FEF84E39CE021509E
:1006B00080409040E1F700C00000CF91089581E0B4
:1006C0000E944D030E947D1A089580E00E944D0310
:1006D0000E94A11A08950F931F93CF93DF938C016B
:1006E00061E00E942503EC01B8010E943A178111D4
:1006F00006C080E0DF91CF911F910F910895B8015E
:10070000CE010E94F0028823A1F3B801CE010E941D
:100710004716882371F3B801CE010E944414882340
:1007200041F3B801CE010E941A14882311F3B801D5
:10073000CE010E948B168823E1F2F801858188237F
:1007400061F0C330FCE7DF07E9F058F4C115ECE7CE
:10075000DE07A9F0C130DC47B9F0C8010E94EB0206
:10076000C9CFCB358CE7D807A9F0CC35ECE7DE074D
:1007700071F0CA35DC4789F70E941A0DEECF0E944E
:100780005F03B7CF0E94220D0E946503B2CF0E9483
:10079000100DE3CF0E941E0DE0CF0E94AE190E9403
:1007A000F40308950E94F8030E94B3190895089570
:1007B00081E008950895CF93DF93D82F0E94D80346
:1007C000C82F882319F08D2F0E94DA038C2FDF9118
:1007D000CF9108950895CF93C82F0E94D7038C2FEF
:1007E0000E94DB03CF91089580E00E94EB030895FF
:1007F0000E9426180E94EB030895CF930E942618AA
:10080000C82F8091AA018C1779F0C093AA010E9489
:100810003E1A6093AB017093AC018093AD0190934D
:10082000AE018C2F0E94EB03CF910895ADE0B0E0B4
:10083000ECE1F4E00C94DF21488759876A877B87D5
:100840008C879D8791110E94200C1F8286E0FE01FB
:100850003896DE01119601900D928A95E1F78D810F
:1008600081110DC029813A814B815C816D817E812E
:100870008F810E946A0B2D96E2E00C94FB21CE0141
:1008800001960E9430038111EDCFF5CFFC01248148
:10089000213021F4808191810E94DE080895CF9358
:1008A000C82F8823C9F08238C9F40E94331881FD0B
:1008B00013C089E30E9444190E94B40C2FEF87EE05
:1008C00093E0215080409040E1F700C0000089E3B0
:1008D0000E945B190E94B40CCF9108958338A1F453
:1008E0000E94331880FDF8CF83E50E9444190E94CE
:1008F000B40C2FEF81EE94E0215080409040E1F75E
:1009000000C0000083E5E4CF8438A1F40E943318CE
:1009100082FDE2CF87E40E9444190E94B40C2FEFBD
:1009200081EE94E0215080409040E1F700C000004B
:1009300087E4CECF8CEF8C0F813A70F48C2F0E941D
:10094000BB18882329F08C2F0E945B190E94B40CDD
:100950008C2F0E944419BECF80E28C0F883048F45F
:10096000C77081E001C0880FCA95EAF70E94030CA6
:10097000B1CFEBE5EC0FE33040F4F0E0E85BFE4F85
:10098000808190E00E944F18A7CFC85ACB3108F061
:10099000A3CFEC2FF0E0EE0FFF1FEE5EFE4F808145
:1009A00091810E94741898CF882309F44DC0823831
:1009B00079F40E94331881FF47C089E30E944419EB
:1009C0000E94B40C89E30E945B190E94B40C089544
:1009D000833859F40E94331880FF36C083E50E94A3
:1009E00044190E94B40C83E5EECF843859F40E9478
:1009F000331882FF29C087E40E9444190E94B40C76
:100A000087E4E1CF9CEF980F913AE8F290E2980FDB
:100A1000983050F4877091E001C0990F8A95EAF7F9
:100A2000892F0E94090CD1CF9BE5980F933028F4B1
:100A300090E080E00E944F180895885A8B3120F48E
:100A400090E080E00E94741808951F93CF93DF9385
:100A5000182FEB010E944F04209739F4812F0E9438
:100A6000D404DF91CF911F9108958FE99FE0019702
:100A7000F1F700C000002197EFCF70E060E089330C
:100A800011F460E570E00E9425050895882321F0A7
:100A90000E94030C0E94B40C0895882321F00E9448
:100AA000090C0E94B40C0895B0E0A0E0EAE5F5E07E
:100AB0000C94D8216C01D62FC72FFC01158106811B
:100AC00002950F700E94F90BE82E8823F9F0E12EB1
:100AD0001123E1F08C2F807F803461F080E28D0F54
:100AE000883008F18C2F807E803221F4D230D8F00B
:100AF0000023C9F08091950282FF15C082E00E9418
:100B0000E40C0E94F90B91E0E82EE926BC2EB29489
:100B10009FE0B922FBE0FB15B8F1EB2DF0E0E059C6
:100B2000FD4D0C94C221E12CF1CF0C2F0F70C07F32
:100B300011F00295007F112399F0002359F080E213
:100B40008D0F883010F0D11107C0802F0E94030C48
:100B50000E94B40C8D2F5AC0802F0E94130CF8CF26
:100B60008D2F0E94D404002379F080E28D0F88300D
:100B700010F0D11104C0802F0E94090C03C0802FF7
:100B80000E94190C0E94B40CEB2DE850FF0B349717
:100B900020F40E9426180E94EB03EE2089F00E94A8
:100BA000F50B80FD0DC0F60115820E94EF0B0E942F
:100BB0000108C6010E9454070E94EF0B0E940D0815
:100BC000CDB7DEB7E9E00C94F4212C2F2F70F22E74
:100BD000C07FC03219F0F29480EFF822DD2341F09B
:100BE000D130D1F1112309F444C00023F1F0B2CF88
:100BF0008091950282FD15C0112359F0FF2029F044
:100C00008F2D0E94030C0E94B40C80E00E944F04C0
:100C1000BBCF80E00E94D404FF2009F4B5CF8F2D14
:100C2000ABCF112369F0011104C08F2D0E9446053E
:100C3000ABCF013009F0A8CF8F2D0E94370CA4CF85
:100C40000111A2CF8F2D0E944D058F2D0E94430CC4
:100C50008F2D0E94270C98CF112321F0063008F029
:100C600093CFE3CF053008F08FCF8F2D0E944D0535
:100C70008BCF0023D1F3D93349F43FEF87EE93E0D4
:100C8000315080409040E1F700C000008D2F0E945D
:100C9000D4047ACF8C2F86958695837069F0813045
:100CA00009F072CF8D2F9C2F9370111102C080E03C
:100CB00090E00E94741868CF8D2F9C2F93701111B3
:100CC00002C080E090E00E944F185ECF8C2F8370AE
:100CD00079F5111159CF4D2F429546954770440F24
:100CE000440F8D2F8F70042E01C0880F0A94EAF7ED
:100CF0002D2F2071D4FF07C02FE030E001C0220F5C
:100D00004A95EAF72095C695C695C370822BC230E6
:100D100049F058F4C13019F00E94DD0735CF0E9428
:100D2000D70732CF0E94E3072FCF0E94D4072CCFE2
:100D30008695112311F08C2F8170882309F424CF1C
:100D40004D2F429546954770440F440F8D2F8F705D
:100D5000042E01C0880F0A94EAF72D2F2071D4FFCA
:100D600007C02FE030E001C0220F4A95EAF7209536
:100D7000C695C695C370822BC23049F058F4C13075
:100D800019F00E942C0800CF0E942608FDCE0E9478
:100D90003208FACE0E94EF07F7CECF70112329F068
:100DA0008C2F0E9401088D2F41CF8D2F0E944D0561
:100DB0008C2F0E940D08E8CED23F41F160F4D03F65
:100DC000B9F0D13F81F0112309F446C00111C2CE20
:100DD0008C2F8F711FC0D33F01F1D43FA1F78091B9
:100DE000950282FD24C08C2F8F71112311F312C044
:100DF000112341F0053008F0C7CE8C2F8F710E946F
:100E00001A08C2CE063008F0BFCEF7CF8C2F8F71F4
:100E10001111CFCF0E940108B7CE112329F08C2FDA
:100E20008F710E94F807B0CE0E94F407ADCE112357
:100E300049F0CF718C2F0E94010863E08C2F0E9433
:100E4000C60CA2CE81E00E94E40C023008F49CCED5
:100E500082E00E94E40C98CE002359F0D93309F0C7
:100E600015CFEFEFF7EE23E0E150F0402040E1F73F
:100E70000BCF8C2F8F719DCF0F931F93CF93DF9349
:100E8000EC01688179818D810E94E9088C010E94C2
:100E900038080E94D307B801CE010E945405DF91A3
:100EA000CF911F910F910895CF93DF93EC018C8127
:100EB000882399F0CE010E946B03811111C00E941A
:100EC000F90B882351F08D81882339F080919502A8
:100ED00082FF03C082E00E94E40CDF91CF9108956D
:100EE000CE010E943C07CE010E943C03F6CF90E069
:100EF00080E00E944F1890E080E00E9474180E94E9
:100F0000200C0E94B40C08950E9472190E94770769
:100F100008950E94100C0E948407089592959F7076
:100F2000963091F058F4925F9F70923058F4803F61
:100F300019F030F4883E30F481E008959A5FF4CFE0
:100F4000843FD1F380E00895883EB0F3813FD1F72C
:100F5000F3CFFC012481222339F0808191810E940A
:100F6000DE080E948E07089580E00895A6E0B0E0B4
:100F7000ECEBF7E00C94DF212696E2E00C94FB21E9
:100F8000A7E0B0E0E6ECF7E00C94DF212796E2E082
:100F90000C94FB2108950E94CA0708950E94CB0774
:100FA0008093CF01089508950E94CE0708959091EF
:100FB000CF01892B0E94CE0708959091CF018923FC
:100FC0000E94CE0708959091CF0189270E94CE07F5
:100FD00008950E94CA0708950E94E90708950E9493
:100FE000EC078093CE01089580E00E94EF070895FA
:100FF00091E001C0990F8A95EAF7892F0E94EF07C7
:10100000089521E030E001C0220F8A95EAF780912F
:10101000CE01822B0E94EF07089521E030E001C04D
:10102000220F8A95EAF720958091CE0182230E94B3
:10103000EF07089521E030E001C0220F8A95EAF71A
:101040008091CE0182270E94EF0708959091CE01F2
:10105000892B0E94EF0708959091CE0189230E9469
:10106000EF0708959091CE0189270E94EF07089518
:101070000895262F277091E001C0990F2A95EAF76D
:1010800023E0769567952A95E1F7FB01EE0FFF1FA8
:10109000E60FF71FE40FF51F50E040E0682F70E007
:1010A0008191DF0111979B01042E02C0369527958F
:1010B0000A94E2F7217021952827292328272C93C9
:1010C0004F5F5F4F4330510559F70895A82FA77020
:1010D00023E0969587952A95E1F7FC01EE0FFF1F17
:1010E000E80FF91FE60FF71F50E040E080E0219184
:1010F00030E00A2E02C0369527950A94E2F7217057
:101100003327042E01C0220F0A94EAF7822B4F5F87
:101110005F4F4330510559F70895262F953070F4ED
:101120008F3060F4682F70E08FE0989F600D711D24
:10113000112440EB51E0822F0E9439080895292F95
:10114000953068F48F3058F490E060EB71E03FE048
:10115000239F800D911D11240E946608089580E050
:101160000895CF92DF92FF920F931F93CF93DF9357
:101170006C010091CE018091CF01082BC3E0D0E03B
:1011800010E0FC2EC8010C2E02C0959587950A949C
:10119000E2F780FD0CC02197A0F7F12C8F2DDF9195
:1011A000CF911F910F91FF90DF90CF900895B601DE
:1011B0008C2F0E94DC0F019771F3F0CFCF93DF9358
:1011C000EC010E94B108BE010E94DC0FDF91CF91BB
:1011D00008951F93CF93DF93EB019091AF01992373
:1011E00039F0CB010E94DE08DF91CF911F91089565
:1011F000882369F0CB010E94B108182F682FCE0117
:101200000E948D08BE01812F0E94DC0FEDCFCB0123
:101210000E949F08182FF6CFE1E0F0E0DF0102C046
:10122000AA0FBB1F6A95E2F7BD01DF0102C0AA0F3A
:10123000BB1F4A95E2F76A2B01C0EE0F2A95EAF729
:10124000962F9823961302C08E2B0895E0958E2337
:101250000895242F462F682F8091CE010E940C09FB
:101260000E94EF0708951F93CF93DF93C091D001A1
:1012700017E08091D1018C1304C0DF91CF911F91B1
:101280000895D0E01C9FF0011D9FF00D1124EE5237
:10129000FE4F208131814281538164817581868135
:1012A0000E94C0072196C770E4CF20910A023091B6
:1012B0000B0240910C0250910D0260910E02709150
:1012C0000F02809110020E94C0070895CF93DF9310
:1012D00080911002807F09F04DC080910F02882319
:1012E00009F448C0E091D0015091D101C0910B02A6
:1012F000D0910A0260910C0270910D0247E05E17D6
:10130000C9F18E2F90E0E49FF0011124EE52FE4FC0
:101310002481222391F1489FF001499FF00D11246F
:10132000DF01AE52BE4F11962C9111972C1325C0A0
:101330002C912D1322C015962C91159721111DC0AB
:1013400012962D913C91261B370B283C3105A8F4B1
:10135000809110028F70806180931002E852FE4FDE
:1013600080818F70806180838AE092E00E945407C0
:101370000E943309DF91CF910895FC013196E77007
:10138000BECF482F2091D0019091D10157E0291371
:1013900002C080E0089530E0529FF001539FF00DAD
:1013A0001124EE52FE4F8181681306C080814813DC
:1013B00003C085818111EECF2F5F3F4F2770E7CFAC
:1013C000A4E1B0E0E6EEF9E00C94D5218C0186E0D2
:1013D000F801DE011F9601900D928A95E1F7F80160
:1013E0008481E5809AE0A92E92E0B92E90910E02B8
:1013F00091111FC08823D1F0EE20A9F0C8010E94EE
:10140000A907F82E882379F087E0F801D50101902B
:101410000D928A95E1F7C5010E9446040E94660973
:101420000E9455095FC0C8010E945407FF24F3942D
:1014300059C0C080D18082809380F0900F022091AB
:101440000C0230910D02A401421B530BFF2009F442
:10145000F9C0483C510508F0A7C0882309F442C0F0
:1014600090910B0280911002282F207F09F05CC020
:101470009D1116C090910A02C91212C0E1104EC00F
:101480008F708061809310020E9455098AE092E07B
:101490000E94540780911002F8018683F12C22C02B
:1014A000E1103CC06D2D8C2D0E94C1096D2D8C2D3D
:1014B0000E94C109E82E8111F1CFCF86D88A8F858D
:1014C00098890E94DE08292F22952F70243078F405
:1014D0009F702230A8F09923B9F0F8019681907F8F
:1014E00099F4FE2C8F2D6496ECE00C94F1212A5F88
:1014F0002F70223068F0C8010E945407EF2CF1CF02
:10150000992311F0882369F3805E883050F3F3CF7C
:10151000803F38F3815F833070F7E3CF8091100212
:10152000816080931002BACF9D1113C090910A027E
:10153000C9120FC0E1100DC08683C8010E94540774
:1015400087E0F801AAE0B2E001900D928A95E1F7F8
:1015500067CFC8010E94A907882309F464CFEE2051
:1015600009F461CF80911002803288F020910A0244
:1015700030910B02398728879B868A8690910E02CC
:101580009C871D868E87CE0108960E94540787E0AF
:10159000F801AAE0B2E001900D928A95E1F70E946D
:1015A00066090E94550942CF90911002292F207F91
:1015B000A1F4682D9A8A898AA6017A899E2D0E94B3
:1015C000B6078AE092E00E94540787E0F501119285
:1015D0008A95E9F70E94550961CF882309F482CFE3
:1015E00080910B028D1110C080910A02C8120CC0AC
:1015F000E1100AC09683C8010E94540787E0F501F4
:1016000011928A95E9F76ECFC8010E94A907882335
:1016100009F409CFEE2009F406CF80911002803240
:1016200008F4B5CF20910A0230910B023A83298346
:101630009C828B8290910E029D831E828F83CE01AD
:101640000196A3CF483C5105B8F5882309F4EECEA6
:10165000FE2CEE2009F4E7CE80910B028D111EC006
:1016600080910A02C8121AC08091100280FD0DC03C
:10167000982F907F51F08683903F09F45ECF982F8A
:10168000907F905F8F70892B57CF87E0F801AAE099
:10169000B2E001900D928A95E1F724CFC8010E9433
:1016A000A907811174CF809110028160809310028C
:1016B000C8010E94540716CF682D9A8A898AA6010C
:1016C0007A899E2D0E94B60787E0F50111928A95CE
:1016D000E9F7A6CEAEE0B0E0E0E7FBE00C94DE2157
:1016E000288739874A875B876C877D878E87CE01FD
:1016F00008960E94E0098823B1F06C85662341F0CA
:10170000288539854A855B857D858E850E94C00741
:1017100017E08091D0019091D10189133DC02E96A0
:10172000E3E00C94FA2187E0FE013896DE01119681
:1017300001900D928A95E1F78C85882349F32091D9
:10174000D10130E0C9010196877099274091D001FD
:101750004817190699F097E0929FD001939FB00D1A
:101760001124AE52BE4FFE01319601900D929A9512
:10177000E1F78093D1010E943309CACF0E94890703
:101780001092D1011092D00187E0EAE0F2E0DF018F
:101790001D928A95E9F7BCCF819FC00111248E521A
:1017A0009E4F0E94E009882309F4B9CFE091D0014F
:1017B0001E9FF0011124EE52FE4F208131814281A3
:1017C00053816481758186810E94C0078091D00118
:1017D00090E00196877099278093D0019ACF8091ED
:1017E000390286958695869508958091390287708D
:1017F000089590913902977081E009F480E008958E
:1018000080916502089590916502892B809365020D
:1018100008958095909165029823909365020895AC
:1018200010926502089590916402892B809364025E
:10183000089580959091640298239093640208958E
:1018400010926402089508950E94230C08959091C7
:101850003A02292F282331F08095892380933A0278
:101860000E94240C089508950E94330C08959091CD
:101870003B02292F2823281729F0982B90933B020D
:101880000E94340C089590913B02292F282331F0B7
:101890008095892380933B020E94340C08958091A7
:1018A0003B02882329F010923B0280E00E94340C16
:1018B0000895CF93C091650280916402C82B8091F6
:1018C0003B02882331F0C82B0E94991881110E9495
:1018D0004F0C8C2FCF910895CF93DF93C0910201CD
:1018E000D09103010E94590C8883C0910201D091CC
:1018F000030148E050E061E372E0CE010E9406225D
:10190000892B59F088E0FE01A1E3B2E001900D922D
:101910008A95E1F7CE010E943618DF91CF910895A4
:10192000CF93DF93C0910001D09101010E94590C27
:101930008983C0910001D091010140E250E061E152
:1019400072E0CE010E940622892B59F080E2FE014E
:10195000A1E1B2E001900D928A95E1F7CE010E94DB
:101960004118DF91CF91089580911101882339F0BA
:101970008091940287FF03C00E94900C08950E94FA
:101980006C0C089508950E94C20C089590919502E0
:1019900092FF11C098E0899F90011124622B6093FF
:1019A00039020E94010880913902869586958695B4
:1019B0000E94C30C08950E940108089510923902F4
:1019C00080E00E94C30C089590913902809589238C
:1019D00080933902282F277069F4891759F0909164
:1019E000950292FF07C08695869586950E940D0800
:1019F0000E94DE0C08959091950292FB222720F917
:101A0000281769F080FB92F99093950280919402D7
:101A1000909195020E94440D82E00E94E40C08958A
:101A20008091950282FB882780F991E089270E94A6
:101A3000FB0C089581E00E94FB0C089580E00E9459
:101A4000FB0C08956FEF7FEF90E080E00E9458223A
:101A5000089590E080E00E942422863E9E4F19F473
:101A60000E94D416089580E0089582E090E00E94DC
:101A70001C22089583E090E00E941C22089584E0D7
:101A800090E00E9424220895BC0184E090E00E942E
:101A900058220895AB01BC018FE090E00E944C22D7
:101AA0000895AB01BC0183E190E00E944C220895AF
:101AB00060E070E0CB010E94510D089560E070E09D
:101AC000CB010E944A0D0E94580D0895A8E0B0E095
:101AD000ECE6FDE00C94DF2166EE7EEF90E080E026
:101AE0000E94582260E082E090E00E943A2281E069
:101AF0008093CF0161E083E090E00E943A2260E0B1
:101B000074E184E090E00E94582260E086E090E07A
:101B10000E943A226FEF87E090E00E943A2240E074
:101B200050E0BA0188E090E00E944C2260E084E23C
:101B300090E00E943A2260E087E190E00E943A2221
:101B400060E08CE090E00E943A2260E08DE090E05E
:101B50000E943A2219821A821B821C821D821E82D6
:101B60001F82188648E050E068E170E0CE010196DF
:101B70000E942A2240E050E0BA0180E290E00E94F8
:101B80004C2280E00E94ED160E941C170E945E0D00
:101B90002896E2E00C94FB210E94660D0895682FC0
:101BA0008EE090E00E943A220895A6E0B0E0EBEDCE
:101BB000FDE00C94DD210E94321A8C0180916602B6
:101BC000909167028017910781F019821A820E9412
:101BD000321A682F49815A81792F80E090E00E9463
:101BE000160410936702009366022696E4E00C94B4
:101BF000F9210E943E1A60937602709377028093D7
:101C000078029093790260937202709373028093CA
:101C10007402909375020895089508950E940C0E21
:101C2000089508950E94110E089582ED90E10E949A
:101C300075120E940D0E0E940E0E089581E0089507
:101C40000E941E0E08950E941E0E08950895089584
:101C50000E94260E0E94270E08950E94F1100E94F5
:101C6000EA0308950E94291A0E942C170E94CD11A0
:101C70000E942D0E0E94120E0895A6E0B0E0E3E44B
:101C8000FEE00C94D3210E94200E811108C00E9416
:101C9000D50D0E94FD032696EEE00C94EF210E94E4
:101CA000E31128E6822E22E0922E640110E0F60174
:101CB000E190F1906F01812F0E9414111F5F153088
:101CC00009F44BC0E816F90691F380917A0281FD80
:101CD0000E941D110E94230E782E10E0662463944A
:101CE000812F0E9414117C01F401A190B1904F0149
:101CF0008A159B0561F100E0CC24C394D12CAE245D
:101D0000BF24C5018C219D21892BC1F07720B1F022
:101D100009831A830E94321A9C838B836D8221E08F
:101D2000C7018C219D21892B09F420E049815A812A
:101D30006B817C818D81922F0E9416040F5FCC0CE9
:101D4000DD1C0F30F1F6F4013297F182E0821F5F63
:101D5000153031F60E94F90D9CCFE816F90609F00E
:101D6000B4CF95CF1F93CF93DF930E94E10FEC0187
:101D7000C11580E5D807F0F5C11580E4D80708F053
:101D80009CC0C03ED10520F5CD3CD10508F082C0F5
:101D9000C83AD10578F4C53AD10508F073C0C1300E
:101DA000D10519F1209709F1C430D105F0F4D0E044
:101DB000C0E01BC0C33CD105D0F7C85AD0E0CC0F5F
:101DC000DD1FC55BDE4F0990D881C02DD4640DC0E6
:101DD000C11580E2D80708F0D1C0C11581E0D8074D
:101DE00008F05AC0C83ED10510F7CE01DF91CF915F
:101DF0001F910895C03682E5D80718F5C03482E5F2
:101E0000D80708F06BC0C03282E5D80708F05FC081
:101E1000C11582E5D80708F497C02C2F2695269582
:101E200080E2289F900111248C2F8370C1E0D0E0C4
:101E300002C0CC0FDD1F8A95E2F7C22BD32BDD68E1
:101E4000D4CFC03A82E5D80760F4C03882E5D8071D
:101E500008F459C0CF71D0E0DC2FCC27C46FD06A12
:101E6000C4CFC03C82E5D80708F462C0C03E82E51A
:101E7000D80708F09CCFDC2FCC27CC27DF71C06FB0
:101E8000D06AB3CFC55AD0E0CF57DE4FC881D0E07B
:101E9000D064ABCFD065A9CF8D2F0E948310182FAF
:101EA000CE0199270E94E10FC12FD0E0DC2FCC2773
:101EB000CC27DF71C82BD92B98CFCE0199270E9450
:101EC000E10FCC27DF70C82BD92BD06A8ECFCF7112
:101ED000D0E0DC2FCC27C16FD06A87CF2C2F26957E
:101EE0002695277080E2289F900111248C2F837003
:101EF000C1E0D0E002C0CC0FDD1F8A95E2F7C22B13
:101F0000D32BDC6872CF2C2F26952695277080E284
:101F1000289F900111248C2F8370C1E0D0E002C073
:101F2000CC0FDD1F8A95E2F7C22BD32BDA685DCF89
:101F30008C2F8F710E948310C82FD0E0DC2FCC270C
:101F4000CC27DF71D06251CF8C2F8F710E9483100C
:101F500055E0D695C7955A95E1F7CF70D0E0DC2FC4
:101F6000CC27282F30E084FF05C044E0220F331F28
:101F70004A95E1F7C22BD32BD06937CF8D2F8F71C4
:101F80000E948310182FCE0199270E94E10FC12FC4
:101F9000D0E0DC2FCC27CC27DF71C82BD92BD2CFB8
:101FA000462F753030F46F3020F4672F0E943213C3
:101FB000089590E080E008950E94D00F0E94B20E34
:101FC000089582389105B9F1B0F48133910509F48F
:101FD0007DC048F48932910509F46DC08A329105BB
:101FE00009F47BC008958533910509F45FC08933F6
:101FF000910509F10895833E9105D9F138F4803EA9
:10200000910529F1823E910579F10895863E910569
:10201000D9F1873E910509F43EC0843E910541F512
:102020002091950221FF24C08091940284FD19C063
:1020300087EE90E0089520919402237009F05AC031
:102040002091950223FF14C089E290E00895209129
:10205000940220FD38C03091950230FF09C024FF62
:1020600043C090E080E008952091940222FDF7CFD4
:1020700008952091940222FD3AC03091950230FDDE
:1020800039C024FFF5CFEDCF2091940223FFF0CF8C
:1020900024FDE7CFCDCF2091940223FD2EC03091B7
:1020A000950231FFEECF84EE90E0089520919402E6
:1020B00025FFDECFC9CF2091940225FD21C02091BC
:1020C000950223FFD5CF89E390E0D2CF20919402EF
:1020D00026FFCECF8AE290E008952091940226FF59
:1020E000C7CF81E390E0089583EE90E0089582EEFB
:1020F00090E0089580EE90E0089586EE90E00895D7
:1021000085E390E008959091940292FF10C041E021
:10211000282F2471243009F040E031E0282F287165
:10212000283009F030E0431711F02CE0822793FFAC
:1021300010C041E0282F2471243109F040E031E043
:10214000282F2871283109F030E0431711F02CE0D6
:1021500082273091950230FF10C051E0282F217165
:10216000213009F050E041E0282F2871283009F093
:1021700040E0541711F029E0822731FF10C041E000
:10218000282F2171213109F040E031E0282F2871FA
:10219000283109F030E0431711F029E0822794FD3F
:1021A000877E089580E008950E94220D08950E9480
:1021B000E3112FEF86E791E0215080409040E1F756
:1021C00000C000000E94E31180E00E94141180FF13
:1021D00004C00E94D4100E947D1A08950E94D71056
:1021E00008950E94290D811102C00E94CC0D0E9409
:1021F000350D80937A020E943F0D90939502809353
:1022000094020E94EE100E943A0D0E94D407809121
:10221000CE010E94EC07089508950E940C110895C4
:1022200008950E9410110895E82FF0E0EE0FFF1FAF
:10223000E056FD4F808191810895089580EA8A9546
:10224000F1F7089500C008950E941E110895F894B2
:10225000E82FE295EF70F0E031A1282F2F7081E098
:1022600090E001C0880F2A95EAF7982F9095932364
:1022700091A392A1892B82A3789408950F931F9321
:10228000CF93DF93C3E9D1E089918F3F11F00E9492
:10229000271181E0C839D807B9F7C4E8D1E003E9CC
:1022A00011E089918F3F11F00E9427110C171D0733
:1022B000C1F7DF91CF911F910F910895AF92BF9217
:1022C000DF92EF92FF920F931F93CF93DF938C01D6
:1022D000D62EC62FD0E0CE018D569E4F7C01FC013C
:1022E00020812F3F09F44CC0F894E22FE295EF7063
:1022F000F0E031A12F7081E090E001C0880F2A95B5
:10230000EAF7932F982B91A392A18095892382A31A
:1023100078940E942211E4E8F1E041E050E0B12C11
:10232000A12C21912F3FB1F1A22FA295AF70B0E067
:1023300090968C9190E02F7002C0959587952A9584
:10234000E2F780FD27C0CA01A82AB92A440F551F09
:1023500081E0E339F80729F7F70180818F3F11F019
:102360000E94271161E0A114B10409F460E08D2DF1
:102370000E942411CC0FDD1FC00FD11FB982A8828B
:10238000DF91CF911F910F91FF90EF90DF90BF9061
:10239000AF90089590E080E0D7CF0E943E118AE090
:1023A000E0EAF2E0DF01982F1D929A95E9F7E6E95D
:1023B000F2E0DF011D928A95E9F785E00E941E1286
:1023C0000E940D110895AAE0B0E0E9EEF1E10C944D
:1023D000DC218E010F5F1F4F8AE0F80111928A9570
:1023E000E9F7F12C6F2DC8010E945E11F394F5E01E
:1023F000FF12F8CF4AE050E0B80186E992E00E946F
:10240000062221E0009709F420E0892B41F08AE0C0
:10241000F801A6E9B2E001900D928A95E1F745E056
:1024200060EA72E086E992E00E941F12182F0E9473
:102430001111812F2A96E5E00C94F8210895B0E05F
:10244000A0E0E5E2F2E10C94D9216C017B01042FBC
:10245000C22F222379F081E080937D020E94321AFC
:1024600090937C0280937B0280E0CDB7DEB7E8E0FA
:102470000C94F521D0917D02DD23B1F380917B0294
:1024800090917C020E944A1A059770F310E0000FA9
:10249000111FA801B601C7010E940622892B31F045
:1024A000A801B601C7010E941322CD2F10927D0210
:1024B0008C2FDBCF0E941C1C0E94320E0E94291C14
:1024C00008950E942E1C0E943D0E0E94481C0895F3
:1024D0000E94CB190E94021C0E94150E0E945A12E3
:1024E0000E9461120E94280EFBCF9093A901809355
:1024F000A801089584E0089550E0440F551F9EE11F
:10250000699F400D511D112496E9899F400D511D71
:102510001124CA01899608950F931F93CF93DF93D7
:102520008430C8F46530B8F44F30A8F40E947C12AF
:102530008C010E941C22C82FD0E0DC2FCC27C801C0
:1025400001960E941C229E01282BC901DF91CF9188
:102550001F910F91089590E080E0F8CF0F931F93A3
:10256000CF93DF93122F032F843078F4653068F413
:102570004F3058F40E947C12EC01602F0E943A22E6
:10258000612FCE0101960E943A22DF91CF911F91D7
:102590000F9108951F93CF93DF93D0E0C0E011C057
:1025A000412F6C2F8D2F0E94CA029C01412F6C2F4E
:1025B0008D2F0E94AE121F5F1F3091F7CF5FC53085
:1025C00011F010E0EDCFDF5FD43041F7DF91CF9114
:1025D0001F910895EF92FF920F931F93CF93DF9374
:1025E000EC018A017C01E60EF71ECE018996CE151C
:1025F000DF0529F4CDB7DEB7E6E00C94F721C83546
:1026000022E0D20740F40E941C22F80180830F5F71
:102610001F4F2196EACFF8011082F9CFB0E0A0E079
:10262000E4E1F3E10C94D9217C016A018C01060FED
:10263000171FEC01CE018996C017D10729F4CDB739
:10264000DEB7E8E00C94F521C83522E0D20740F46B
:10265000FE01EE19FF09EC0DFD1D60810E943A227A
:102660002196E8CF843038F4653028F44F3018F4E0
:102670000E948C12089590E080E0089580E1089512
:102680008FE791E00895EF92FF920F931F93CF93FE
:10269000DF93EC018A017C01E60EF71ECE018F5715
:1026A0009D4FCE15DF0529F4CDB7DEB7E6E00C94DB
:1026B000F721CF3721E0D20740F40E941C22F80115
:1026C00080830F5F1F4F2196E9CFF8011082F9CF69
:1026D000B0E0A0E0EEE6F3E10C94D9217C016A01C0
:1026E0008C01060F171FEC01CE018F579D4FC017AD
:1026F000D10729F4CDB7DEB7E8E00C94F521CF3748
:1027000021E0D20740F4FE01EE19FF09EC0DFD1D9A
:1027100060810E943A222196E7CFCF93DF93C1E8F0
:10272000D2E060E0CE010E943A222196C11584E0F9
:10273000D807B9F7DF91CF910895A8E0B0E0E3EAB8
:10274000F3E10C94D721F82E8FE08F1508F46EC0BA
:102750008FEF93E00E941C22811168C001E812E013
:10276000F11035C0FE0131966F0188E011928A9513
:10277000E9F77801FFEFEF1AFF0AC8010E941C2257
:1027800089831A82882309F451C08130D1F4580119
:1027900082E0A80EB11CC7010E941C228A838823F4
:1027A00009F444C09FEF980F9330F0F4780193E060
:1027B000E90EF11CC5010E941C228B838823B1F114
:1027C0001C8260E0C6010E947D158701D2CF0115F1
:1027D00094E0190759F1C8010E941C22811101C01F
:1027E000FA940F5F1F4FBCCF7501843051F702E0A0
:1027F00010E07501EFEFEE1AFE0AC5010E941C22DF
:10280000F601E00FF11F8083882381F08C3741F4BB
:10281000E2E0F0E0EC0FFD1FE00FF11F1082D1CFDE
:102820000F5F1F4F57010730110519F72896EAE08F
:102830000C94F321CF93DF93EB0186319C4711F584
:102840000E94000C9D81992399F08A7A91E009F405
:1028500090E090937E02811109C089E20E944419A0
:102860000E94B40C80E0DF91CF91089585E3F6CF0C
:1028700080917E02811104C089E20E945B19F0CF31
:1028800085E3FBCF81E0EFCFCF93DF93EC01FB013A
:102890008581882309F4D2C09E0130572332310547
:1028A00008F0B2C00E943F0D90939502809394026D
:1028B000FE01E150F047E232F10520F4E458FD4D0D
:1028C0000C94C2218091940281608093940293C001
:1028D000809195028860809395028DC080919402CA
:1028E0008260F3CF809194028460EFCF8091940254
:1028F0008860EBCF809195028160EDCF8091950249
:102900008260E9CF809194028061DFCF8091940250
:102910008062DBCF809194028064D7CF0E948907C8
:10292000809194028068D1CF809194028C60CDCF49
:10293000809195028360CFCF809194028E7FC5CF26
:1029400080919502877FC7CF809194028D7FBDCF04
:10295000809194028B7FB9CF80919402877FB5CF0D
:10296000809195028E7FB7CF809195028D7FB3CFF6
:10297000809194028F7EA9CF809194028F7DA5CF04
:10298000809194028F7BA1CF0E948907809194024D
:102990008F779BCF80919402837F97CF8091950210
:1029A0008C7F99CF8091940282FB992790F921E046
:1029B000922790FB82F990FB83F987CF8091950253
:1029C000982F909591708E7F892B90FB81F983CF02
:1029D00090919402892F8F7B96FF806476CF0E941E
:1029E000890790919402892F97FB87F980586DCFC2
:1029F00081E00E94CF0D80919402909195020E94F7
:102A0000440D0E94890780E0DF91CF91089580E016
:102A1000F0CF90919402892F8F7E94FF806155CFE3
:102A200090919402892F8E7F90FF81604ECF90917C
:102A30009502892F877F93FF88604DCF81E0E4CF97
:102A4000B0E0A0E0E6E2F5E10C94DA21E82FF0E056
:102A5000EC5FFC4FD490282F26952695269530E0E4
:102A6000F901EC55FC4F0491877010E0082E02C06C
:102A7000159507950A94E2F701701127F901EC56B4
:102A8000FC4FE490F12C082E02C0F594E7940A94D0
:102A9000E2F791E0E922FF24F901EC57FC4FC491E1
:102AA000D0E002C0D595C7958A95E2F7C170DD27C1
:102AB0000115110519F081EE0E944F04E114F10493
:102AC00019F086EE0E944F048D2D0E943D05E11401
:102AD000F10419F086EE0E94D4040115110519F0D5
:102AE00081EE0E94D404CD2B19F08CE20E943D05AA
:102AF000CDB7DEB7E7E00C94F621EF92FF920F938B
:102B00001F93CF93DF93EC01162F0AE0888188236F
:102B100009F454C0813009F04EC08981813099F4A4
:102B20007E0122E0E20EF11C8A810E943D05E70150
:102B30002196812F815050F3EFE9FFE03197F1F7B3
:102B400000C00000F7CF823041F47E0182E0E80E41
:102B5000F11C8A810E944F04EACF833041F47E0148
:102B6000E2E0EE0EF11C8A810E94D404E0CF8430B2
:102B700011F02196DDCF2A81229690E080E0AE010F
:102B80004F5F5F4F2053330B2A30310548F00197D8
:102B900078F2EFE9FFE03197F1F700C00000F7CFDE
:102BA000089FB001099F700D1124C901860F971F5E
:102BB0002981EA01E4CF0E942015BACFCDB7DEB754
:102BC000E6E00C94F7210F931F93CF93DF93C42F6C
:102BD000D22FFC0185818823C9F0409381020E9495
:102BE000321A9093800280937F0280E28C0F8830AB
:102BF00040F4C77081E001C0880FCA95EAF70E94CF
:102C00004605DF91CF911F910F9108951091810298
:102C1000141332C080917F02909180020E944A1A60
:102C2000883C910548F5C0E2CD0F1D17B9F080E250
:102C3000810F883040F4177081E001C0880F1A9529
:102C4000EAF70E944D05C83048F481E09D2F977047
:102C500001C0880F9A95EAF70E944605802F0E94CE
:102C60003D05C83070F6D77081E001C0880FDA9555
:102C7000EAF70E944D05C5CF80E28C0F883008F638
:102C8000C77081E001C0880FCA95EAF7F2CF0F93B1
:102C9000DB0188519C4787309105A0F5FC01E25685
:102CA000FD4D0C94C22106E221EE41EE6AE17CE783
:102CB000CD010E94E31580E00F91089507E225EE13
:102CC00045EE6BE17CE7F4CF06E221EE40EE68E1F1
:102CD0007CE7EECF07E225EE44EE69E17CE7E8CF42
:102CE00006E221EE42EE6CE17CE7E2CF07E225EE60
:102CF00046EE6DE17CE7DCCF08E221E045EE6EE1D7
:102D00007CE7D6CF15968C91882319F0109281021A
:102D1000D3CF81E0D1CF1F93CF93DF9387372CE7B9
:102D2000920759F0C1E088379C47E1F4FB01C58167
:102D3000CC2371F10E94CE1606C0FB01C581CC23C5
:102D4000B1F00E94CB160E9401080E94D116D82F24
:102D50000E94CE16C82F0E94CB164D2F6C2F0E94BA
:102D60002909C0E08C2FDF91CF911F9108950E9417
:102D7000CB160E940D080E94D116182F0E94CE1665
:102D8000D82F0E94CB16412F6D2F0E942909EACF20
:102D90000E94CE16EECF8091060108958091050124
:102DA000089580910401089585E290E00E941C221C
:102DB000833289F486E290E00E941C22823159F429
:102DC00087E290E00E941C2291E0853009F090E0BB
:102DD000892F8170089580E0FCCFCF93C82F6FEFCB
:102DE000811163E285E290E00E943A226FEFC11107
:102DF00062E186E290E00E943A226FEFC11165E045
:102E000087E290E00E943A22CF910895089588E2E7
:102E100090E00E941C22682F70E090E080E008950E
:102E20000895CF93C62F0E9410176C2F88E290E070
:102E30000E943A22CF91089580E00E94ED1660E052
:102E400070E0CB010E9411170E94CA120E948D13DC
:102E500081E00E94ED1608950E9406170E94071750
:102E60000E9410170E94D416811102C00E941C17E4
:102E7000089508959C01FB018581882351F0A901E3
:102E800057574038510530F4822F0E949D1380E03F
:102E9000089581E008952FEFFC01208308950E949A
:102EA0004B17089580E00895B0E0A0E0EAE5F7E16F
:102EB0000C94D921EC01C62E0E945217811110C02A
:102EC000E881E150E331B8F4F0E0EB55FD4D0C94AE
:102ED000C22119828CE08A836C2DCE010E94F61AE1
:102EE000CDB7DEB7E8E00C94F52189818230C1F0DE
:102EF00028F4813061F08FEF8883EECF833099F032
:102F00008430C9F71A821B821C821D82E5CF0E9481
:102F10003E1A0E94C8216A837B838C839D83DCCF09
:102F20000E940717F6CF8A81082F10E07E019EE0ED
:102F3000D92ED80E0530110578F6802F0E94141175
:102F4000F701938384830F5F1F4FF2E0EF0EF11CB4
:102F5000D012F0CFC1CF8981823031F0853059F65F
:102F60008A810E943917B8CF6A817B818C819D81CB
:102F70000E94C8210E941117AFCF4B816A818981BD
:102F80000E948C129827892798279D838C83A4CF31
:102F90002C813D813227232732274B816A81898109
:102FA0000E94AE1299CF0E94CA1296CF6C2DCE010C
:102FB0000E944F1791CF0E943E1389838DCF0E94AC
:102FC00040139827892798279A83898385CF6B8117
:102FD00070E089819A81AE014C5F5F4F9827892705
:102FE00098270E94431378CF6B8170E089819A8182
:102FF000AE014C5F5F4F9827892798270E9468137E
:103000006BCF0E948D1368CF0E947A12D6CF6B814E
:1030100070E089819A81AE014C5F5F4F98278927C4
:1030200098270E94EA1258CF6B8170E089819A81BB
:10303000AE014C5F5F4F9827892798270E940E1397
:103040004BCF90938702809386020895E091860289
:10305000F0918702309729F00190F081E02D0995D9
:10306000089580E008950E9426180895E091860250
:10307000F0918702309721F00280F381E02D0995CD
:103080000895E0918602F0918702309739F026E0AA
:10309000DC012C930480F581E02D09950895A3E0CF
:1030A000B0E0E5E5F8E10C94DF2120918402309155
:1030B000850228173907A1F0909385028093840236
:1030C000E0918602F0918702309751F023E0298346
:1030D0009B838A830084F185E02DCE0101960995BA
:1030E0002396E2E00C94FB21A3E0B0E0EAE7F8E1EC
:1030F0000C94DF2120918202309183022817390736
:10310000A1F09093830280938202E0918602F09175
:103110008702309751F024E029839B838A830084BF
:10312000F185E02DCE01019609952396E2E00C94FD
:10313000FB2120910201309103012E5F3F4F8091CE
:103140001101882379F08091940287FF0BC02091B0
:103150000001309101012E5F3F4F9EE180E09150D0
:1031600018F4089596E0FACFF90141919F014423A4
:10317000B1F38F5FF4CF882321F19091110199234E
:1031800011F19091940297FF1EC0E82FE695E69505
:10319000E695EE31B0F42091000130910101E20F8B
:1031A000F32FF11D228130E0877041E050E002C032
:1031B000440F551F8A95E2F72423352381E0232B02
:1031C00091F480E008952091020130910301F9010A
:1031D0003296285F3F4F9191981721F0E217F3073D
:1031E000D1F7EFCF81E008959C01FC0132969FEF6B
:1031F00080E04191461751F09F3F19F4411101C001
:10320000982F8F5F8630A9F79F3F09F40895290F03
:10321000311D97FD3A95F90162830895FC013296BC
:1032200008962191261303C0DF0111971C92E8171D
:10323000F907B9F70895E62FE695E695E695EE319C
:1032400068F4E80FF92FF11D677021E030E001C04C
:10325000220F6A95EAF78281822B82830895E62FF6
:10326000E695E695E695EE3170F4E80FF92FF11D3D
:10327000677021E030E001C0220F6A95EAF72095DF
:103280008281282322830895682F80911101882349
:1032900059F08091940287FF07C0809100019091BE
:1032A00001010E941B190895809102019091030170
:1032B0000E94F4180895682F80911101882359F015
:1032C0008091940287FF07C08091000190910101D5
:1032D0000E942F19089580910201909103010E948C
:1032E0000E19089580911101882379F0809194023C
:1032F00087FF0BC0E0910001F091010132968EE151
:10330000DF011D928A95E9F70895E0910201F0919D
:103310000301329686E0F4CF08950E948C19089537
:10332000811106C081E0809388020E948D19089562
:1033300082E0F9CF83E0809388020E948D1908957E
:103340000E949019089581E0809388020E948D194F
:1033500008950E94A3190895089508950E94AD1933
:103360000895089508950E94AC190895CF930E947E
:10337000B1190E94E3110E94B219C0E08C2F0E9483
:103380001411892B31F4CF5FC530C1F780E0CF91A4
:10339000089581E0FCCF85B7806885BF85B78068D8
:1033A00085BF08951F921FB61F9211248F939F937C
:1033B000AF93BF9380918902811113C08091AA02BB
:1033C0009091AB02A091AC02B091AD024196A11DCB
:1033D000B11D8093AA029093AB02A093AC02B0936C
:1033E000AD02BF91AF919F918F911F901FBE1F9013
:1033F00018958091B202843031F10E94CD03109271
:10340000890288E190E020E40FB6F894A8958093B3
:1034100060000FBE2093600083B7817F846083BF0C
:1034200083B7816083BF7894889583B78E7F83BF8D
:103430000FB6F894A8958091600088618093600031
:10344000109260000FBE08950E9489070E94D20367
:10345000089582E084BD93E095BD9AEF97BD809377
:103460006E0008952FB7F8948091AA029091AB0254
:10347000A091AC02B091AD022FBF08952FB7F89480
:103480006091AA027091AB028091AC029091AD0262
:103490002FBF08959C014FB7F8948091AA02909194
:1034A000AB02A091AC02B091AD024FBF821B930B57
:1034B000089578941F921FB61F9211248F939F93A3
:1034C000AF93BF938091AA029091AB02A091AC02FE
:1034D000B091AD020196A11DB11D8093AA029093F7
:1034E000AB02A093AC02B093AD02BF91AF919F919C
:1034F0008F911F901FBE1F90189581E08093E00070
:1035000080E28093D8001092C9008FE19EE4019779
:10351000F1F700C0000087E090EBDC018093BB0274
:103520009093BC02A093BD02B093BE0288E19CE0E0
:103530000FB6F894A895809360000FBE909360003A
:10354000FFCF88E19CE00FB6F894A89580936000C7
:103550000FBE90936000FFCF80919202089508956E
:103560009B01BA019091B2029430E9F48F7080937C
:10357000E9009FEF8091E800915085FD06C085ED40
:103580008A95F1F700009111F5CF8091E80085FF51
:103590000AC050E040E0C9010E94EC1C8091E800A4
:1035A0008E778093E800089543E050E0BC0184E00A
:1035B0000E94B01A089540E250E0BC0184E00E94ED
:1035C000B01A0895CF93DF93EC0148E050E0BC01BE
:1035D00081E00E94B01A88E0FE01AAE8B2E0019002
:1035E0000D928A95E1F7DF91CF910895603231F421
:1035F00040E250E0BC0182E00E94B01A0895809140
:10360000B102811109C00E94CB1E0E94281F809127
:10361000E20084608093E20008951092B102089560
:103620000E94A31908956091AE0281E0611101C06A
:1036300080E00E949A1908959091B20281E094303E
:1036400009F080E06091AE020E94A019089542E066
:1036500061EC81E00E94471E42E261EC84E00E943E
:10366000471E42E261EC82E00E94471E42E260ECAB
:1036700083E00E94471E9091B20281E0943009F0ED
:1036800080E06091AE020E94901908958091B4028A
:10369000833009F463C030F48130E1F1823009F401
:1036A000A0C008958A3009F48CC08B3009F471C031
:1036B000893009F052C08091B302813209F04DC0C7
:1036C0008091B7029091B802009719F0029709F023
:1036D00044C08091E800877F8093E8008091E800F3
:1036E00082FF37C09091F3008091F200029731F48D
:1036F0008091F100813011F0863021F48091F10049
:10370000809392028091E8008B778093E8000E947A
:103710007B1E23C08091B302813AF9F48091E800C6
:10372000877F8093E8008091B7029091B802892B3F
:1037300061F468E08AE892E070E00E948A1D80915E
:10374000E8008B778093E800089560E090E080E0E7
:10375000F3CF8091B2028111C1CF08958091B3025D
:10376000813AD9F78091B7029091B802892BA9F7D5
:103770008091E800877F8093E8008091E80080FFD7
:10378000FCCF809111018093F1008091E8008E7749
:10379000BCCF8091B302813201F78091B702909142
:1037A000B802892BD1F68091E800877F8093E800EA
:1037B0000E947B1E8091B502809311010E948907AF
:1037C00008958091B302813241F68091E800877FAD
:1037D0008093E8000E947B1E8091B6028093930242
:1037E00008958091B302813A09F0B7CF8091E80043
:1037F000877F8093E8008091E80080FFFCCF809174
:103800009302C1CF84B7877F84BF0FB6F894A89581
:1038100080916000886180936000109260000FBE0C
:1038200080E890E00FB6F894809361009093610077
:103830000FBE0E94A91908950E94CB1E0E94281F46
:10384000E2EEF0E080818460808378940E94A7217A
:10385000089587E091E00E94211808958091B202B6
:10386000853031F48091B202853019F00E94241A1B
:1038700008950E94F9198091B002882399F30E945B
:10388000B619882379F30E94D61C0E948907EACFD3
:10389000A0E2B0E0EEE4FCE10C94DF218091B20202
:1038A000843009F583E08093E9008091E80082FF8D
:1038B0001AC08091E80090E085FF09C050E040E028
:1038C00060E270E0CE0101960E943B1D91E0809184
:1038D000E8008B778093E800992329F060E2CE011D
:1038E00001960E945417A096E2E00C94FB219A01E5
:1038F0004091B9025091BA020E947F1C0895492F4D
:1039000055274330510521F168F44130510509F440
:1039100043C04230510509F444C090E080E050E0DB
:1039200040E026C04132510551F142325105A9F71C
:103930006330710590F7FB01EE0FFF1FE556FE4F58
:103940004081518168567E4FFB01808190E010C01C
:1039500099278130910581F0009729F00297E9F6C7
:10396000E4EBF3E002C0ECEDF3E0849190E0AF0112
:10397000F901518340830895E4ECF3E0F6CF63301E
:10398000710558F6660F771FFB01EF55FE4F40811A
:10399000518189E090E0ECCF82E190E04BE354E08C
:1039A000E7CF8BE590E040EE53E0E2CF80E189BDC8
:1039B00082E189BD09B400FEFDCF8091D8008F7DE2
:1039C0008093D8008091E00082608093E000809135
:1039D000E00081FDFCCF0895AF92BF92CF92DF92BD
:1039E000FF920F931F93CF93DF936C01EB018A013A
:1039F0000E949A1EF82E811123C00115110539F07D
:103A0000F80180819181C81BD90BC80ED91EB12C39
:103A1000A12C2097A9F08091E80085FD22C080911B
:103A2000E8008E778093E80001151105A1F0F801F8
:103A300080819181A80EB91EB182A08285E0F82E06
:103A40008F2DDF91CF911F910F91FF90DF90CF903D
:103A5000BF90AF9008950E949A1E8823D1F2F82E4D
:103A6000EFCFF60181916F018093F1002197FFEF75
:103A7000AF1ABF0ACECFAF92BF92CF92DF92FF9222
:103A80000F931F93CF93DF936C01EB018A010E9488
:103A90009A1EF82E811123C00115110539F0F80185
:103AA00080819181C81BD90BC80ED91EB12CA12CC5
:103AB0002097A9F08091E80085FD22C08091E80060
:103AC0008B778093E80001151105A1F0F801808142
:103AD0009181A80EB91EB182A08285E0F82E8F2DAB
:103AE000DF91CF911F910F91FF90DF90CF90BF900A
:103AF000AF9008950E949A1E8823D1F2F82EEFCF3E
:103B00008091F100F60181936F012197FFEFAF1AC9
:103B1000BF0ACECFFC018091B9029091BA028617FC
:103B20009707A0F06115710529F49091E8009E7740
:103B30009093E80090E06115710551F4911108C06F
:103B40008091E80082FF34C080E00895BC01F2CF8C
:103B50008091B2028823C1F18530C1F18091E800E3
:103B600083FD30C08091E80082FDEACF8091E800BB
:103B700080FFE1CF8091F3002091F200382F611592
:103B8000710519F02830310558F091E028303105E1
:103B900009F090E02091E8002E772093E800CBCF49
:103BA00081918093F100615071092F5F3F4FE7CF02
:103BB0008091B202882341F0853041F08091E80085
:103BC00083FFBECF81E0089582E0089583E00895E9
:103BD000FC018091B9029091BA0286179707A0F074
:103BE0006115710529F48091E8008E778093E800D3
:103BF00090E06115710551F4911108C08091E800C1
:103C000082FF35C080E00895BC01F2CF8091B202FE
:103C10008823C9F18530C9F18091E80083FD31C066
:103C20008091E80082FDEACF8091E80080FFE1CF3B
:103C30008091F3002091F200382F6115710519F081
:103C40002830310558F091E02830310509F090E036
:103C50008091E8008E778093E800CBCF84918093A9
:103C6000F1003196615071092F5F3F4FE6CF80918F
:103C7000B202882341F0853041F08091E80083FF53
:103C8000BDCF81E0089582E0089583E00895982FE4
:103C9000973028F08F708093E90081E00895909329
:103CA000E900242F762F50E0981731F07091EC0046
:103CB0002091ED005091F00021FD02C09F5FE8CF00
:103CC0003091EB003E7F3093EB003091ED003D7F73
:103CD0003093ED003091EB0031603093EB00709346
:103CE000EC002093ED005093F0002091EE0027FDB2
:103CF000E5CF80E008958091B30287FF13C08091E3
:103D0000E80082FF06C08091E8008B778093E8008E
:103D100004C08091B2028111F2CF08958091B20265
:103D20008823D9F38091E80080FFF8CF8091E800E4
:103D30008E77ECCF2091E4003091E50095E6A90163
:103D40002091EC00822F817020FF06C08091E80056
:103D500080FF06C080E008952091E80022FD1AC08F
:103D60008091B202882389F0853089F08091EB0040
:103D700085FD0FC02091E4003091E5004217530704
:103D8000F9F29150E1F684E0089582E0089583E02D
:103D9000089581E008950E943A1F0E94421FE0EEBC
:103DA000F0E0808181608083E8EDF0E080818F77B2
:103DB000808319BCA7EDB0E08C918E7F8C938081BD
:103DC0008F7E80831092B10208950F931F93CF933B
:103DD000DF930E943A1F0E94421FC8EDD0E0888105
:103DE0008F77888388818068888388818F7D8883A6
:103DF00019BC1092B2021092AE021092B002109250
:103E0000AF0200EE10E0F80180818B7F8083888113
:103E10008160888342E060E080E00E94471EE1EE1E
:103E2000F0E080818E7F8083E2EEF0E0808181602F
:103E30008083808188608083F80180818E7F808389
:103E4000888180618883DF91CF911F910F910895C0
:103E5000E8EDF0E080818F7E8083E7EDF0E0808107
:103E60008160808384E082BF81E08093B1020E9400
:103E7000E51E0895E8EDF0E080818E7F808310924A
:103E8000E20008951092DA001092E10008951F9266
:103E90000F920FB60F9211242F933F934F935F937E
:103EA0006F937F938F939F93AF93BF93EF93FF9302
:103EB0008091E10082FF0BC08091E20082FF07C089
:103EC0008091E1008B7F8093E1000E94A621809188
:103ED000DA0080FF19C08091D80080FF15C0809162
:103EE000DA008E7F8093DA008091D90080FF96C03F
:103EF00080E189BD82E189BD09B400FEFDCF81E08A
:103F00008093B2020E94FF1A8091E10080FF19C0E5
:103F10008091E20080FF15C08091E2008E7F809347
:103F2000E2008091E20080618093E2008091D800FD
:103F300080628093D80019BC85E08093B2020E9411
:103F4000131B8091E10084FF2BC08091E20084FF6D
:103F500027C080E189BD82E189BD89B5982F917024
:103F600080FFFBCF8091D8008F7D8093D800809117
:103F7000E1008F7E8093E1008091E2008F7E80934C
:103F8000E2008091E20081608093E2008091AE02C5
:103F9000882309F449C084E08093B2020E941C1B6C
:103FA0008091E10083FF29C08091E20083FF25C05A
:103FB0008091E100877F8093E10082E08093B202EC
:103FC0001092AE028091E1008E7F8093E10080919B
:103FD000E2008E7F8093E2008091E2008061809316
:103FE000E20042E060E080E00E94471E8091F00025
:103FF00088608093F0000E94101BFF91EF91BF91A9
:10400000AF919F918F917F916F915F914F913F9170
:104010002F910F900FBE0F901F90189519BC109202
:10402000B2020E940D1B70CF8091E30087FD93E0E8
:104030009093B202B3CF1F920F920FB60F9211243A
:104040002F933F934F935F936F937F938F939F93A0
:10405000AF93BF93CF93DF93EF93FF93D091E9009A
:10406000DF708091EC00C82FC17080FDC0E8109215
:10407000E9008091F000877F8093F00078940E949F
:104080005F201092E9008091F00088608093F0003A
:10409000CD2BCF70C093E900FF91EF91DF91CF91CD
:1040A000BF91AF919F918F917F916F915F914F9150
:1040B0003F912F910F900FBE0F901F901895AAE27D
:1040C000B0E0E5E6F0E20C94DE2183EB92E0209193
:1040D000F100FC012193CF01F2E08B3B9F07B9F780
:1040E0000E94461B8091E80083FF1EC18091B302AD
:1040F0009091B4029A3008F017C1E92FF0E0E8542B
:10410000FD4D0C94C221803899F0823809F00CC121
:104110008091B7028F70873008F006C18093E90064
:104120008091EB0085FB882780F91092E90006C09A
:104130008091AF029091B002911182609091E8005D
:10414000977F9093E8008093F1001092F1008091A6
:10415000E8008E77E5C0882309F4D3C0823009F0E7
:10416000E3C08091B5028111D6C08091B7028F70F3
:104170002FEF280F263008F0D7C08093E900209158
:10418000EB0020FFC8C0933031F48091EB008062D7
:104190008093EB00C0C09091EB0090619093EB0096
:1041A00021E030E001C0220F8A95EAF72093EA006F
:1041B0001092EA008091EB008860EACF8111B4C0D0
:1041C0001091B5021F778091E3008078812B809356
:1041D000E3008091E800877F8093E8000E947B1EC7
:1041E0008091E80080FFFCCF8091E300806880939D
:1041F000E30082E0111183E08093B20295C0805801
:10420000823008F091C08091B5029091B6028C3D49
:1042100023E09207A1F583E08A838AE289834FB77E
:10422000F894DE01139620E03EE051E2E32FF0E047
:1042300050935700E49120FF03C0E295EF703F5F79
:10424000EF708E2F90E0EA30C0F0C7968D939D936B
:104250002F5F243159F74FBF8091E800877F80930B
:10426000E8006AE270E0CE0101960E948A1D80910A
:10427000E8008B778093E80057C0C096E7CF609145
:10428000B7027091B802AE014F5F5F4F0E94771C7A
:10429000BC01892B09F448C09091E800977F909366
:1042A000E80089819A810E94E81DE1CF8038E1F51C
:1042B0008091E800877F8093E8008091AE02809330
:1042C000F10045CF811130C09091B502923060F578
:1042D0008091E800877F8093E8009093AE020E946F
:1042E0007B1E8091AE02882311F084E005C080918E
:1042F000E30087FDFACF81E08093B2020E94271B82
:1043000013C08091B502813079F481E0933009F0D7
:1043100080E08093B0021092E9008091E800877FEE
:104320008093E8000E947B1E8091E80083FF0AC012
:104330008091E800877F8093E8008091EB008062A5
:104340008093EB00AA96E3E00C94FA210895CF93B2
:104350008091B2028823A1F0C091E900CF709091C2
:10436000EC00892F817090FD80E8C82B1092E90045
:104370008091E80083FD0E945F20CF70C093E90028
:10438000CF910895EE0FFF1F0590F491E02D099451
:1043900069279627692778278727782708952F92F6
:1043A0003F924F925F926F927F928F929F92AF92C5
:1043B000BF92CF92DF92EF92FF920F931F93CF9312
:1043C000DF93CDB7DEB7CA1BDB0B0FB6F894DEBFA9
:1043D0000FBECDBF09942A88398848885F846E84CF
:1043E0007D848C849B84AA84B984C884DF80EE8019
:1043F000FD800C811B81AA81B981CE0FD11D0FB622
:10440000F894DEBF0FBECDBFED010895FB01DC01C6
:1044100004C08D910190801921F441505040C8F79B
:10442000881B990B0895FB01DC0102C001900D92DD
:1044300041505040D8F70895F999FECF92BD81BD03
:10444000F89A992780B50895A8E1B0E042E050E0DD
:104450000C946022DC01A40FB51F4150504048F07D
:10446000CB01840F951F2E910E943B22415050405A
:10447000D0F70895262FF999FECF92BD81BDF89A05
:10448000019700B4021639F01FBA20BD0FB6F89498
:10449000FA9AF99A0FBE08950396272F0E943B229D
:1044A0000E943A22252F0E943B22242F0C943B226B
:1044B0000196272F0E943B220C943A22DC01CB016B
:1044C000FC01F999FECF06C0F2BDE1BDF89A319624
:1044D00000B40D9241505040B8F70895F894FFCFC2
:1044E00095059505E505E5054A06C405C405C40519
:1044F0006606CD06DC06DC069C141015A4146E14AA
:104500007214A8147614AC14B81482140915861405
:10451000BC148A14C014E8148E14C414EF14941438
:10452000CA14D2147A14B0147E14B4149814CE148D
:10453000DE14F81407156814A014171564166A160B
:1045400053165E16701676167C1669177517AB171C
:10455000BD17C817D317D617D617D6177B177B17D3
:10456000DB17DF17E717F4170118041807181418DA
:104570008320AB209421AB209421DE20FF209421C6
:04458000562162213D
:104584003C025C02030201AC1AE21ADB1AAF1AD431
:104594001A01E200E900EA00B500B600B700CD0058
:1045A4008301CC008A019201940121022302240296
:1045B4002502260227022A02B300B4006F0070000D
:1045C4009F01CB019F02A002818283E200E900EAFD
:1045D40000B500B600B700CD008301CC008A01927B
:1045E4000194012102230224022502260227022A21
:1045F40002B300B4006F0070009F01CB019F02A0C2
:1046040002818283F595313233939267663635346D
:10461400979694F0F1F4F6F744226DDC044D046FA0
:0846240004F2030B042B040057
:00000001FF
