:100000000C9499030C94F4260C94B6030C94B60348
:100010000C94B6030C94B6030C94B6030C94B6037C
:100020000C94B6030C94B6030C94ED2E0C94C12FD3
:100030000C9417290C94B6030C94B6030C94B603D5
:100040000C94B6030C94B6030C94B6030C94B6034C
:100050000C94B6030C94BA290C94B6030C94B60312
:100060000C94B6030C94B6030C94B6030C94B6032C
:100070000C94B6030C94B6030C94B6030C94B6031C
:100080000C94B6030C94B6030C94B6030C94B6030C
:100090000C94B6030C94B6030C94B6030C94B603FC
:1000A0000C94B6030C94B6030C94B60335001E00F2
:1000B0001F0020002100220023002B0014001A0042
:1000C0000800150017002900E000040016000700D2
:1000D00009000A000000E1001D001B0006001900D5
:1000E00005000000E2002F00300001512800E3006D
:1000F0002C002A002E002D002700260025002400B9
:1001000031003800130012000C0018001C002800F9
:1001100033000F000E000D000B000000E500520040
:10012000370036001000110000004F005100500051
:1001300090001250E7002C0029003A003B003C00E0
:100140003D003E003F00010034023400350025022E
:100150002E022E0001001F023302350038002D0050
:10016000000001000000000000000000000000008E
:1001700001000100010001000100010001004C002C
:100180004500440043004200410040003102230288
:100190003502250231022702260201002D00380017
:1001A000370030002F000000010023020100010091
:1001B00030022F02000037022D023602010001003A
:1001C000010001000100C55CC65CC75CC85CC95C7D
:1001D000CA5C0100CD5CD05CD35C00000000000074
:1001E0000100CE5CD15CD45C000000000000010086
:1001F000CF5CD25CD55C0000000000000100010073
:10020000010001000100C35CC25C0000CA5CC95C63
:10021000C85CC75CC65CC55C000000000000000054
:10022000D35CD05CCD5C000000000000D45CD15CED
:10023000CE5C0000000000000000D55CD25CCF5C0A
:10024000000000000000000000001050C35CC25C11
:100250000100010001000100010001000100010096
:100260000100010001000100010001000100010086
:100270000100010001000100000001000100010077
:100280000100010001000000010001000100010067
:100290000100010001000100010001000100010056
:1002A0000100010001000100010001000100010046
:1002B0000100010001000100010001000100000037
:1002C0000100010001000100010001000000010027
:1002D0000100010001000100010001000000000018
:1002E000000000002A2B2800000000000000000091
:1002F0000000000000000029000000002C1E342037
:10030000212224342627252E362D3738271E1F205C
:100310002122232425263333362E37381F040506A1
:100320000708090A0B0C0D0E0F10111213141516E5
:100330001718191A1B1C1D2F3130232D35040506E3
:100340000708090A0B0C0D0E0F10111213141516C5
:100350001718191A1B1C1D2F3130354C00000000D6
:10036000000000000000000000000000000000008D
:10037000000000000000000000000000000000007D
:100380007E0F00D4FFFFFFC70000007800047F3F0E
:100390001F643214643214783C1E1E140A05222392
:1003A000252628292A2C2D2F3032333536383A3B52
:1003B0003D3E4042434547494A4C4E5051535557A4
:1003C000595A5C5E6062646668696B6D6F717375C3
:1003D00077797B7D7F81838587898A8C8E909294C3
:1003E00096989A9C9E9FA1A3A5A7A8AAACAEAFB1D0
:1003F000B3B4B6B8B9BBBCBEBFC1C2C3C5C6C7C91A
:10040000CACBCCCDCED0D1D2D2D3D4D5D6D7D7D8D3
:10041000D9D9DADADBDBDBDCDCDCDCDCDDDDDDDD25
:10042000DCDCDCDCDCDBDBDBDADAD9D9D8D7D7D62D
:10043000D5D4D3D2D2D1D0CECDCCCBCAC9C7C6C5E4
:10044000C3C2C1BFBEBCBBB9B8B6B4B3B1AFAEAC2A
:10045000AAA8A7A5A3A19F9E9C9A98969492908ED5
:100460008C8A89878583817F7D7B79777573716FAE
:100470006D6B6968666462605E5C5A59575553518A
:10048000504E4C4A4947454342403E3D3B3A383640
:10049000353332302F2D2C2A292826252322FFAA56
:1004A0007F55400001010101010101010102020229
:1004B0000202020202020303030303030303040410
:1004C00004040404040505050505060606060607DA
:1004D0000707070708080808090909090A0A0A0B93
:1004E0000B0B0C0C0C0D0D0D0E0E0E0F0F0F101034
:1004F00011111112121313141415151616171718BB
:100500001819191A1A1B1B1C1D1D1E1E1F20202125
:100510002222232424252626272829292A2B2C2D6C
:100520002D2E2F30313232333435363738393A3B8D
:100530003C3D3E3F404142434445464748494A4C82
:100540004D4E4F50515354555658595A5B5D5E5F4E
:10055000616264656668696B6C6D6F7072737577E4
:10056000787A7B7D7E8082838587888A8C8E8F9146
:10057000939596989A9C9EA0A2A3A5A7A9ABADAF70
:10058000B1B3B5B7BABCBEC0C2C4C6C9CBCDCFD15A
:10059000D4D6D8DBDDDFE2E4E7E9EBEEF0F3F5F803
:1005A000FAFDFF260354006800650020004B00752B
:1005B0000064006F00780020004B00650079006245
:1005C000006F00610072006400000016034B0075AC
:1005D000006D0061006F0020004B006F0062006F33
:1005E0000000000403090409025B00030100A0FAF3
:1005F0000904000001030101000921110100012289
:1006000040000705810308000109040100020300FE
:1006100000000921110100012222000705820320A8
:100620000001070503032000010904020001030083
:100630000000092111010001227B0007058403202D
:1006400000011201000200000008BAAB90960003FE
:10065000010200010660FF0961A10109621500267F
:10066000FF009520750881020963150026FF00959B
:100670002075089102C005010902A1018502090146
:10068000A100050919012908150025019508750122
:1006900081020501093009311581257F9502750810
:1006A000810609381581257F950175088106050C9D
:1006B0000A38021581257F950175088106C0C0059D
:1006C000010980A101850319012AB700150126B788
:1006D00000950175108100C0050C0901A101850478
:1006E00019012AA002150126A002950175108100AA
:1006F000C005010906A101050719E029E715002534
:100700000195087501810295017508810105071998
:100710000029FF150026FF009506750881000508D1
:10072000190129059505750191029501750391013E
:10073000C00011241FBECFEFDAE0DEBFCDBF11E055
:10074000A0E0B1E0E2EDF5E602C005900D92A63E14
:10075000B107D9F723E0A6EEB1E001C01D92AE319A
:10076000B207E1F70E94E6150C94BE320C9400002B
:1007700089E00E94AC1D089581E0089581E008950C
:100780000E94BE03089508950E94C3030895A5E042
:10079000B0E0EDECF3E00C941F3249835A833091C2
:1007A000E90189819A81311119C0662399F02223C8
:1007B00089F00E946F0A182F682F89819A810E9400
:1007C0004B0A69817A81812F0E94BF242596E3E03C
:1007D0000C943B320E945D0A182FF3CF0E946F0ADF
:1007E00069817A81F1CFFC01262F4081518162819C
:1007F000738184810E94C703089581E00895CF9397
:10080000DF93EC0160E00E94F303BE010E94C40389
:10081000DF91CF910895E1E0F0E0DF0102C0AA0F7F
:10082000BB1F6A95E2F7BD01DF0102C0AA0FBB1F23
:100830004A95E2F76A2B01C0EE0F2A95EAF7962F48
:100840009823961302C08E2B0895E0958E23089569
:10085000242F462F682F809105020E940B040E94CE
:10086000AB0908950E943B1208950E943F1208951B
:1008700008950E9448090E9438042FEF84E39CE009
:10088000215080409040E1F700C0000008950E9490
:1008900039040E94DE2908950E9439040E94EF293C
:1008A00008950F931F93CF93DF938C0161E00E9413
:1008B000F303EC01B8010E940520811106C080E01D
:1008C000DF91CF911F910F910895B801CE010E9441
:1008D000C0038823A1F3B801CE010E940426882317
:1008E00071F3B801CE010E946921882341F3B80158
:1008F000CE010E947625882311F3B801CE010E9413
:10090000AC1E8823E1F2F8018281882361F0CA35A8
:10091000FDE5DF0701F158F4C115ECE5DE0791F0C4
:10092000CE3DDC4591F0C8010E94BC03C9CFCC3557
:100930008DE5D80769F090F0C73ADD45A1F70E9430
:100940004C04BDCF0E944704BACF0E941B0FF7CFC3
:100950000E94620EE8CF0E946C0EE5CF0E94700EDE
:10096000E2CF0E94F4280E94950508950E949905FF
:100970000E94F9280895B0E0A0E0E1ECF4E00C94C6
:100980001B32E82FF0E0E452FD4FD490282F26953B
:100990002695269530E0F901E458FC4F04918770C4
:1009A00010E0082E02C0159507950A94E2F7017031
:1009B0001127F901E459FC4FE490F12C082E02C0F4
:1009C000F594E7940A94E2F791E0E922FF24F90113
:1009D000E45AFC4FC491D0E002C0D595C7958A95E2
:1009E000E2F7C170DD270115110519F081EE0E94B3
:1009F000E405E114F10419F086EE0E94E4058D2D62
:100A00000E94EB06E114F10419F086EE0E947A06CA
:100A10000115110519F081EE0E947A06CD2B19F00F
:100A20008CE20E94EB06CDB7DEB7E7E00C943732DC
:100A3000EF92FF920F931F93CF93DF93EC01162F4A
:100A40000AE08881882309F454C0813009F04EC03F
:100A50008981813099F47E0122E0E20EF11C8A81C5
:100A60000E94EB06E7012196812F815050F3EFE9B8
:100A7000FFE03197F1F700C00000F7CF823041F47A
:100A80007E0182E0E80EF11C8A810E94E405EACF33
:100A9000833041F47E01E2E0EE0EF11C8A810E9477
:100AA0007A06E0CF843011F02196DDCF2A8122969C
:100AB00090E080E0AE014F5F5F4F2053330B2A3050
:100AC000310548F0019778F2EFE9FFE03197F1F74F
:100AD00000C00000F7CF089FB001099F700D1124DE
:100AE000C901860F971F2981EA01E4CF0E94BB0448
:100AF000BACFCDB7DEB7E6E00C94383260E00E94A2
:100B00001805089508950E948205089581E00895CA
:100B10000E94860508950895CF93C82F0E948305EB
:100B20008C2F0E948805CF91089580E00E948C054B
:100B300008950E941A280E948C0508950E941A2880
:100B40009091E801981721F08093E8010E948C05AC
:100B50000895ABE0B0E0EFEAF5E00C9420324F836B
:100B6000588769877A878B8761110E94AD0D1E8235
:100B70001D8285E0FE013796DE01119601900D92EF
:100B80008A95E1F78C819D81892B61F449815A8195
:100B90006B817C818D819E810E94D60C2B96E2E038
:100BA0000C943C3289819A8189238F3F79F3CE015D
:100BB00001960E94FD038111E9CFF0CFFC018081F5
:100BC00091810E949C0A0895CF93C82F8823C9F071
:100BD0008238C9F40E941A2881FD13C089E30E945B
:100BE000650D0E94CE0D2FEF81EE94E021508040E4
:100BF0009040E1F700C0000089E30E946D0D0E9463
:100C0000CE0DCF9108958338A1F40E941A2880FD5B
:100C1000F8CF83E50E94650D0E94CE0D2FEF81EE87
:100C200094E0215080409040E1F700C0000083E54F
:100C3000E4CF8438A1F40E941A2882FDE2CF87E431
:100C40000E94650D0E94CE0D2FEF81EE94E02150A1
:100C500080409040E1F700C0000087E4CECF8CEFE9
:100C60008C0F813AB8F48C2F0E9433238111C9CFA5
:100C70006C2F80910001909101010E9485288823AA
:100C800029F08C2F0E946D0D0E94CE0D8C2F0E949A
:100C9000650DB5CF80E28C0F883048F4C77081E0D5
:100CA00001C0880FCA95EAF70E94900DA8CFEBE526
:100CB000EC0FE33040F4F0E0E159FE4F808190E02A
:100CC0000E9447289ECFE8E5EC0FE73150F4F0E0B2
:100CD000EE0FFF1FEF5BFE4F808191810E945D2828
:100CE00090CFC03F08F48DCF8C2F0E946A160E94CF
:100CF0003D1787CF882309F455C0823879F40E94C4
:100D00001A2881FF4FC089E30E94650D0E94CE0D15
:100D100089E30E946D0D0E94CE0D0895833859F429
:100D20000E941A2880FF3EC083E50E94650D0E9444
:100D3000CE0D83E5EECF843859F40E941A2882FF45
:100D400031C087E40E94650D0E94CE0D87E4E1CF9B
:100D50009CEF980F913AE8F290E2980F983050F497
:100D6000877091E001C0990F8A95EAF7892F0E9458
:100D7000960DD1CF9BE5980F933028F490E080E05A
:100D80000E944728089598E5980F973128F490E03D
:100D900080E00E945D280895803F20F00E94C416E4
:100DA0000E943D1708951F93CF93DF93182FEB01F7
:100DB0000E94E405209739F4812F0E947A06DF9182
:100DC000CF911F9108958FE99FE00197F1F700C03F
:100DD00000002197EFCF70E060E0893311F460E507
:100DE00070E00E94D3060895882321F00E94900DA0
:100DF0000E94CE0D0895882321F00E94960D0E9436
:100E0000CE0D0895B0E0A0E0E8E0F7E00C941932D0
:100E10006C01D62FC72FFC011281F580F2949FE060
:100E2000F9220E94860DE82E8823B9F0E12E1123C5
:100E3000A1F08C2F807F803421F080E28D0F8830EC
:100E4000D0F08091C70282FF16C082E00E94310E6E
:100E50000E94860D91E0E82EE926BC2EB2948FE028
:100E6000B822FBE0FB1508F468C0EB2DF0E0E0547D
:100E7000FD4C0C94D231E12CF0CF0C2F0F70C07FC1
:100E800011F00295007F112399F0002359F080E2C0
:100E90008D0F883010F0D11107C0802F0E94900D67
:100EA0000E94CE0D8D2F41C0802F0E94A00DF8CF43
:100EB0008D2F0E947A06002309F43FC080E28D0F37
:100EC000883010F0D11104C0802F0E94960D03C00D
:100ED000802F0E94A60D0E94CE0D2FC00C2F0F70E8
:100EE000C07FC03211F00295007FDD2381F0D13048
:100EF00009F463C0112309F46DC0FF2009F463C035
:100F0000F601858180FFCECF8F7085835CC0809194
:100F1000C70282FD33C0112359F0002329F0802F2E
:100F20000E94900D0E94CE0D80E00E94E40505C055
:100F300080E00E947A060111C7CFEB2DE850FF0B2D
:100F4000349720F40E941A280E948C05EE2089F024
:100F50000E94820D80FD0DC0F60112820E947C0D60
:100F60000E94BF09C6010E9408090E947C0D0E94D0
:100F7000CB09CDB7DEB7E9E00C943532112389F007
:100F8000F11006C00E94B00D802B0E94F406D5CF50
:100F900021E0F212F7CF0E94B00D802B0E94B70D16
:100FA000CCCFF11006C00E94C40D802F0E94FB061A
:100FB000C4CF31E0F31609F2F6CF112331F085E00A
:100FC0008F1508F4BACF802FE0CF94E09F1508F476
:100FD000B4CFEBCFFF2049F3D93349F4FFEF27EE2D
:100FE00033E0F15020403040E1F700C000008D2F89
:100FF0000E947A06A2CF8C2F86958695837069F021
:10100000813009F09ACF8D2F9C2F9370111102C05F
:1010100090E080E00E945D2890CF8D2F9C2F9370F0
:10102000111102C090E080E00E94472886CF8D2FEA
:10103000112329F00E946A160E943D177ECF0E945C
:10104000C416FACF8C2F837079F5111176CF4D2FFE
:10105000429546954770440F440F8D2F8F70042E94
:1010600001C0880F0A94EAF72D2F2071D4FF07C022
:101070002FE030E001C0220F4A95EAF72095C6958F
:10108000C695C370822BC23049F058F4C13019F0B4
:101090000E94990952CF0E9493094FCF0E949F0945
:1010A0004CCF0E94900949CF8695112311F08C2FC7
:1010B0008170882309F441CF4D2F429546954770A2
:1010C000440F440F8D2F8F70042E01C0880F0A9497
:1010D000EAF72D2F2071D4FF07C02FE030E001C0C8
:1010E000220F4A95EAF72095C695C695C370822BC4
:1010F000C23049F058F4C13019F00E94EA091DCFFE
:101100000E94E4091ACF0E94F00917CF0E94AB0990
:1011100014CFCF70112329F08C2F0E94BF098D2F7F
:1011200034CF8D2F0E94FB068C2F0E94CB0905CF58
:10113000D23F51F160F4D03FB9F0D13F81F011239B
:1011400009F449C0F110AECE8C2F8F7121C0D33F6E
:1011500011F1D43FA1F78091C70282FD26C08C2FE8
:101160008F71112311F314C0112349F084E08F15FE
:1011700008F4E3CE8C2F8F710E94D809DECE95E063
:101180009F1508F4DACEF6CF8C2F8F711111CDCFC9
:101190000E94BF09D2CE112329F08C2F8F710E949B
:1011A000B609CBCE0E94B209C8CE112349F0CF7147
:1011B0008C2F0E94BF0963E08C2F0E94130EBDCEBE
:1011C00081E00E94310EE1E0EF1508F0B6CE82E03A
:1011D0000E94310EB2CEF110FFCE8C2F8F71A5CFB1
:1011E0000F931F93CF93DF93EC01688179818A81FC
:1011F0000E94A70A8C010E94F6090E948F09B8017B
:10120000CE010E940207DF91CF911F910F910895A7
:10121000CF93DF93EC018B819C81892B29F088810E
:10122000998189238F3F51F4DF91CF910895CE01A9
:101230000E94F008CE010E94FF03F6CFCE010E946B
:1012400051048111F4CF0E94860D882369F38A81AD
:10125000882351F38091C70282FFE6CF82E00E948B
:10126000310EE2CF90E080E00E94472890E080E0DD
:101270000E945D280E94AD0D0E94CE0D0E944E1866
:101280000E943D1708950E94750D0E94320908952D
:101290000E949D0D0E944309089592959F7096307B
:1012A00091F058F4925F9F70923058F4803F19F09B
:1012B00030F4883E30F481E008959A5FF4CF843FA3
:1012C000D1F380E00895883EB0F3813FD1F7F3CFAA
:1012D000FC01808191810E949C0A0E944D09089521
:1012E000A5E0B0E0E6E7F9E00C9420322596E2E0D4
:1012F0000C943C32A6E0B0E0E0E8F9E00C94203237
:101300002696E2E00C943C3208950E9484090895E8
:101310000E948509809306020E943209089508956B
:101320000E948809089590910602892B0E948809DD
:1013300008959091060289230E948809089590914A
:10134000060289270E94880908950E948409089549
:101350000E94A50908950E94A809809305020E9491
:101360003209089580E00E94AB09089591E001C020
:10137000990F8A95EAF7892F0E94AB09089521E019
:1013800030E001C0220F8A95EAF780910502822B96
:101390000E94AB09089521E030E001C0220F8A9538
:1013A000EAF720958091050282230E94AB090895F7
:1013B00021E030E001C0220F8A95EAF78091050212
:1013C00082270E94AB09089590910502892B0E9403
:1013D000AB0908959091050289230E94AB090895F5
:1013E0009091050289270E94AB0908950895262F40
:1013F000277091E001C0990F2A95EAF723E07695CE
:1014000067952A95E1F7FB01EE0FFF1FE60FF71F27
:10141000E40FF51F50E040E0682F70E08191DF019C
:1014200011979B01042E02C0369527950A94E2F786
:10143000217021952827292328272C934F5F5F4F60
:101440004330510559F70895A82FA77023E09695CA
:1014500087952A95E1F7FC01EE0FFF1FE80FF91FB2
:10146000E60FF71F50E040E080E0219130E00A2EC7
:1014700002C0369527950A94E2F721703327042E8F
:1014800001C0220F0A94EAF7822B4F5F5F4F43306F
:10149000510559F70895262F9A3070F4873060F47B
:1014A000682F70E087E0989F600D711D11244AEE4F
:1014B00051E0822F0E94F7090895292F9A3068F48D
:1014C000873058F490E06AEE71E037E0239F800D9A
:1014D000911D11240E94240A089580E00895CF925E
:1014E000DF92FF920F931F93CF93DF936C010091D4
:1014F000050280910602082BC7E0D0E010E0FC2E28
:10150000C8010C2E02C0959587950A94E2F780FDDC
:101510000CC02197A0F7F12C8F2DDF91CF911F9157
:101520000F91FF90DF90CF900895B6018C2F0E940D
:10153000D910019771F3F0CFCF93DF93EC010E94A4
:101540006F0ABE010E94D910DF91CF9108951F93B9
:10155000CF93DF93EB019091E901992339F0CB010F
:101560000E949C0ADF91CF911F910895882369F012
:10157000CB010E946F0A182F682FCE010E944B0AE0
:10158000BE01812F0E94D910EDCFCB010E945D0AD0
:10159000182FF6CF1F93CF93DF93C091070216E069
:1015A000809108028C1304C0DF91CF911F910895A0
:1015B000D0E01C9FF0011D9FF00D1124E75FFD4F4F
:1015C0004081518162817381848195810E947A0971
:1015D0002196C770E5CF4091390250913A0260914F
:1015E0003B0270913C0280913D0290913E020E942C
:1015F0007A0908951F93CF93DF9380913E02807FF5
:1016000009F049C080913B02882309F444C08091CD
:101610000702C09108026091390270913A02A091CC
:101620003C02B0913D02D62FD72316E0C81799F19E
:1016300090E0109711F0DF3F19F401968770F6CF14
:10164000189F9001199F300D1124F901E75FFD4F9C
:1016500041814713F2CF40814613EFCF42814111C0
:10166000ECCF438154814A1B5B0B483C510528F762
:1016700080913E028F70806180933E02F901E25FAB
:10168000FD4F80818F708061808389E392E00E94AA
:1016900008090E94CA0ADF91CF911F910895A1E124
:1016A000B0E0E5E5FBE00C9418328C0185E0F80130
:1016B000DE011D9601900D928A95E1F7F801E28016
:1016C00089E3C82E82E0D82E60913C0270913D02E1
:1016D0006115710509F44EC19091390220913A02C9
:1016E000892F82238F3F09F445C140815181A38016
:1016F000B480F0903B02F501E61BF70BFF2009F4E4
:10170000EAC080913E02382F307FE83CF10508F0B6
:10171000A3C031116DC0FE2C251316C0941314C044
:10172000E11012C08F70806180933E020E94EB0A2C
:10173000C6010E94080980913E02F80185838F2D21
:101740006196EAE00C943432A114B10429F0842F9C
:1017500085238F3F09F027C180E0F82FF170DF2E3D
:1017600080FF3CC0809107022091080236E082137E
:1017700015C04D875E878D859E850E949C0A292F06
:1017800022952F702230F0F0243018F59F70F1F080
:10179000F8019581907FD1F4D12C1EC090E0389F44
:1017A000F001399FF00D1124E75FFD4F6181651352
:1017B00006C06081641303C06281E6120FC0019607
:1017C0008770D5CF9F7011F0882331F3805E883009
:1017D00018F3C8010E940809FD2CB1CFEE2009F4CE
:1017E000AECF80913E02816080933E02F12CA7CF64
:1017F000251306C0941304C0F801EE2009F487C035
:10180000C8010E946809882319F1EE2009F180912E
:101810003E02803270F02091390230913A023887CE
:101820002F831986BB86AA868C87CE0107960E94D5
:10183000080986E0F801A9E3B2E001900D928A95CB
:10184000E1F70E94FA0A0E94EB0AFF24F39477CF93
:10185000C8010E940809F9CF311113C07A2DB98A45
:10186000A88A6E2D89890E94700989E392E00E94FE
:10187000080986E0F60111928A95E9F70E94EB0AC1
:10188000B5CF25130FC094130DC0E1100BC0F801A4
:101890008583C8010E94080986E0F60111928A95A5
:1018A000E9F74DCFC8010E946809882389F2EE202C
:1018B00079F280913E02803208F4BBCF2091390248
:1018C00030913A023A8329831B82BD82AC828E8397
:1018D000CE010196ACCFE83CF10508F03EC0FE2CED
:1018E000EE2009F4B5CF25132AC0941328C08091A7
:1018F0003E0280FD1BC0982F907FC1F0F8018583C8
:10190000903F31F0982F907F905F8F70892B858367
:10191000C8010E94080986E0F801A9E3B2E001903D
:101920000D928A95E1F70E94EB0A09CF86E0F80153
:10193000A9E3B2E001900D928A95E1F700CFC801CA
:101940000E946809811175CF80913E028160809369
:101950003E02C8010E940809F2CE7A2DB98AA88AEF
:101960006E2D89890E94700986E0F60111928A9590
:10197000E9F7D9CFEE2009F46BCFC8010E946809BE
:10198000F82E882309F464CF86E0F801A9E3B2E0D9
:1019900001900D928A95E1F789E392E00E94DE05BD
:1019A0000E94FA0AC0CF81E08E25D7CEACE0B0E02D
:1019B000ECEDFCE00C941F324F83588769877A87DF
:1019C0008B879C87CE0107960E944F0B882369F076
:1019D0008A859B85892B39F04F815885842F8523F3
:1019E0008F3F09F06BC016E05FC086E0FE013796BE
:1019F000DE01119601900D928A95E1F78A859B850B
:101A0000892B89F388859F8189238F3F61F32091FA
:101A1000080230E0C90101968770992740910702BA
:101A20004817190671F40E94480910920802109292
:101A3000070286E0E9E3F2E0DF011D928A95E9F70B
:101A4000D2CF96E0929FD001939FB00D1124A75F53
:101A5000BD4FFE01319601900D929A95E1F780936A
:101A600008020E94CA0ABFCF819FC0011124875F6C
:101A70009D4F0E944F0B8823E9F0E09107021E9FC3
:101A8000F0011124E75FFD4F408151816281738134
:101A9000848195810E947A098091070290E00196E5
:101AA000877099278093070280910702909108021E
:101AB0008913DACF2C96E3E00C943B3269857A8562
:101AC0008B859C850E947A098ECF682F80910001BA
:101AD000909101010E94BB280895682F8091000118
:101AE000909101010E94BE2808958091000190917B
:101AF00001010E94C128089580914702859585952E
:101B000085950895809147028770089590914702C6
:101B1000977081E009F480E0089580915202089561
:101B200090915202892B8093520208958095909152
:101B300052029823909352020895109252020895EF
:101B400090915102892B8093510208958095909134
:101B500051029823909351020895109251020895D2
:101B600080914802089508950E94B30D08959091C0
:101B7000C70292FF08C090914802981721F0809305
:101B800048020E94B40D089580914802882329F0EC
:101B90001092480280E00E94B40D0895CF93DF9325
:101BA000E0910001F0910101809152028083E09167
:101BB0000001F0910101808190915102892B808375
:101BC00090914802992381F0E0910001F091010188
:101BD0008081892B808380910001909101010E9476
:101BE000732881110E94C40DC0910001D0910101A0
:101BF00048E050E06FE372E0CE010E946032892B32
:101C000059F088E0FE01AFE3B2E001900D928A95B1
:101C1000E1F7CE010E942E28DF91CF91089508951B
:101C20000E940F0E08959091C70292FF11C098E094
:101C3000899F90011124622B609347020E94BF0983
:101C4000809147028595859585950E94100E08958F
:101C50000E94BF0908951092470280E00E94100E72
:101C60000895909147028095892380934702282FF9
:101C7000277091F4282F082E000C330B92171306AF
:101C800059F09091C70292FF07C08595859585957B
:101C90000E94CB090E942B0E08959091C70292FBDF
:101CA000222720F9281769F080FB92F99093C70248
:101CB0008091C6029091C7020E949F0E82E00E940E
:101CC000310E08958091C70282FB882780F991E048
:101CD00089270E944D0E089581E00E944D0E0895BF
:101CE00080E00E944D0E08956FEF7FEF90E080E05E
:101CF0000E94A832089590E080E00E948432883EDD
:101D00009E4F19F40E94A01F089580E0089582E07C
:101D100090E00E947632089583E090E00E9476324F
:101D20000895CF9384E090E00E947632C82F82E23B
:101D300090E00E947632982F8C2FCF910895CF9308
:101D4000C92F682F84E090E00E948A326C2F82E2D3
:101D500090E00E948A32CF910895AB01BC018FE0E0
:101D600090E00E949C32089560E070E0CB010E94F8
:101D7000AD0E0E94B803089568EE7EEF90E080E01B
:101D80000E94A83260E082E090E00E948A3260E027
:101D900083E090E00E948A321092060260E084E0C4
:101DA00090E00E948A3264E082E290E00E948A32EF
:101DB00060E085E090E00E948A3260E086E090E09A
:101DC0000E948A326FEF87E090E00E948A3240E002
:101DD00050E0BA0188E090E00E949C3260E08DE023
:101DE00090E00E948A3240E050E0BA0188E190E041
:101DF0000E949C3260E087E190E00E948A3240E0DD
:101E000050E0BA018CE190E00E949C3270E060E00A
:101E100080E290E00E94A83240E050E0BA0188E100
:101E200090E00E949C3280E00E94B91F0E94E81F4F
:101E30000E94B40E08950E94BC0E0895682F8EE093
:101E400090E00E948A3208950E9483296093610283
:101E500070936202809363029093640260935D02C8
:101E600070935E0280935F029093600208950895DC
:101E700008950E94380F089508950E943C0F089518
:101E800083E092E10E9410280E94370F0E94390FD0
:101E900008950E94E2130895089508950E944C0F3A
:101EA0000E944D0F08950E941F120E948B050895F5
:101EB0000E946E290E94B8110E94F81F0E94FD1313
:101EC0000E9446130E94530F0E9451210E94C71D79
:101ED0000E9407140E943D0F0895AAE0B0E0E3E7D6
:101EE000FFE00C9416320E946913982E81110E9413
:101EF000240F83E5A82E82E0B82E10E000E0802EAB
:101F0000802F0E944212E82EF501C1905F01C81691
:101F1000B1F18091650281FD0E944812D12CFF240D
:101F2000F394CE248C2D8F2129F10E94490F882310
:101F300099F0DE828F82EF2081E009F480E08887CB
:101F40000E9477298160782F9A8789874E815F81E7
:101F500068858A850E94A905F801ED5AFD4F8081A8
:101F6000F826F08281E0911001C080E02A96ECE032
:101F70000C943232D394FF0CF7E0DF12D3CF0F5F13
:101F80001F4F0A30110509F0BACF8FEF89838A837A
:101F90001B820E9477298160782F9D838C834981E1
:101FA0005A816B818D810E94A905DCCF0E946D0F43
:101FB0000E94E2130E94031E0E9459170E949E0570
:101FC0000895CF93DF930E94DE10EC01811521E587
:101FD000920708F042C0811530E5930708F09DC0D4
:101FE000883E910530F5803E910508F092C0883A10
:101FF000910588F4853A910508F084C081309105F7
:1020000009F487C0009709F484C0049708F081C0E0
:10201000D0E0C0E07EC08F3B9105D0F7C85AD0E039
:10202000CC0FDD1FCE58DE4F0990D881C02DD4646F
:1020300070C08115904250F4C11581E0D80708F0B6
:1020400068C0C03FD10520F3D06563C0C11590E4DE
:10205000D907F0F2DF70D06A5CC0811525E59207E0
:1020600000F5811534E5930708F08BC0811543E531
:10207000940708F073C0C11582E5D80708F469C059
:10208000CE018370992721E030E002C0220F331F78
:102090008A95E2F7C695C69580E2C89FE0011124B3
:1020A00054C0C11599E5D907A8F4C11528E5D20790
:1020B00008F06CC0C11536E5D30708F0A9CF8C2F06
:1020C0000E947511C82FD0E0DC2FCC27CC27DF7100
:1020D000D0621FC0C1154AE5D40708F45CC0CE0128
:1020E00090568115904208F093CF8D2F8F710E94EA
:1020F000751190E0982F882788279F719C012C2BC1
:10210000E901E6CFC55AD0E0C056DE4FC881D0E025
:10211000D064CE01DF91CF910895E4E09695879544
:10212000EA95E1F783702C2F26952695237040E2DF
:10213000249F90011124382B8C2F8370C1E0D0E0B4
:1021400002C0CC0FDD1F8A95E2F7C22BD32BDC68CF
:10215000E0CFDC2FCC27C16FD06ADBCF837099270B
:1021600021E030E002C0220F331F8A95E2F7C695C6
:10217000C69590E2C99FE0011124C22BD32BDA68E7
:10218000C8CFD82FCC27C46FD06AC3CFDC2FCC27C1
:10219000C06FD06ABECF8C2F8F700E94751134E053
:1021A000D695C7953A95E1F7CF709C2FEC01D06991
:1021B000B0CF0E94BF240E94E10F0895823891059C
:1021C000B1F1B0F48133910509F475C048F4893256
:1021D000910509F469C08A32910509F473C0089524
:1021E0008533910509F459C08933910501F10895AA
:1021F000833E9105A9F138F4803E9105F9F0823EC5
:10220000910549F10895863E9105A9F1873E910512
:10221000C9F1843E910519F52091C70221FF1FC025
:102220008091C60284FD14C087EE90E0089520914D
:10223000C6022370A1F080EE90E008952091C602BE
:1022400020FD47C03091C70230FF09C024FF44C0C1
:1022500090E080E004C02091C60222FDF7CF0895EF
:102260002091C60222FD3BC03091C70230FDE3CF72
:1022700024FFF5CFEDCF2091C60223FFF0CF24FD40
:10228000E7CFD2CF2091C60223FD2CC03091C702E8
:1022900031FFEECF84EE90E008952091C60225FF35
:1022A000DECF89E290E008952091C60225FFD7CFC6
:1022B00085E390E008952091C60226FFD0CF8AE200
:1022C00090E008952091C60226FFC9CF81E390E0F7
:1022D000089589E390E0089583EE90E0089582EEFA
:1022E00090E0089586EE90E008959091C60292FFE6
:1022F00006C0282F28712830F9F4877F846093FF67
:1023000006C0282F28712831F1F4877E846120913E
:10231000C70220FF06C0382F38713830D9F4877FC4
:10232000816021FF06C0282F28712831D1F4877ED3
:10233000816194FD877E0895282F24712430F9F659
:102340008B7F8860DCCF282F2471243101F78B7EAE
:102350008861DDCF382F3171313019F78E7F886079
:10236000E0CF282F2171213121F78E7E8861E1CFC6
:102370001092C2021092C3021092C4021092C502BF
:102380000895CF92DF92EF92FF926B017C010E9441
:10239000E21381110EC00E948329C61AD70AE80AE7
:1023A000F90AC092C202D092C302E092C402F09233
:1023B000C502FF90EF90DF90CF9008950F931F9389
:1023C0000E94E213882329F00E9483291F910F9114
:1023D00008950E9483290091C2021091C3022091A6
:1023E000C4023091C502600F711F821F931FEECF90
:1023F0000E94E213882319F00E94772908950E9411
:10240000DE11CB01089580E008950E94740E0895B6
:102410000E9469138FE39CE90197F1F700C0000067
:102420000E94691380E00E94421280FF04C00E9453
:1024300005120E94DE2908950E94081208950E9444
:102440007B0E811102C00E941B0F0E94870E809399
:1024500065020E94910E9093C7028093C6020E946B
:102460001C120E948C0E0E949009809105020E940D
:10247000A809089508950E943A12089508950E94A7
:102480003E120895E82FF0E0ED52FD4F808108954F
:10249000089580EA8A95F1F7089500C008950E9492
:1024A0004912089508950E9452120895A5E0B0E0DF
:1024B000ECE5F2E10C941C320E94E213F82E6091DC
:1024C000DD02882309F440C085E0E82E8E010F5F0D
:1024D0001F4FF8018E2D11928A95E9F7862F90E013
:1024E000B8018D529D4F0E9415148823B9F0809138
:1024F000C80290E045E050E0B8018D529D4F0E9427
:10250000603221E020936602892B91F4F12C0E9425
:1025100035048F2D2596E6E00C94383280916602C2
:102520008823A1F3F8011192EA94E9F71092660268
:10253000A091C802B0E0AD52BD4F85E0F801019016
:102540000D928A95E1F7E3CF70E06D527D4F809157
:10255000C80290E08D529D4F0E949C140E9453121D
:10256000D8CFF894E82FE295EF70F0E031A1282F52
:102570002F7081E090E001C0880F2A95EAF7982F2C
:102580009095932391A392A1892B82A37894089587
:102590000F931F93CF93DF93CAEAD1E089918F3FC6
:1025A00011F00E94B11281E0CF3AD807B9F7C3EA1F
:1025B000D1E00AEA11E089918F3F11F00E94B11237
:1025C0000C171D07C1F7DF91CF911F910F9108954F
:1025D000B0E0A0E0EEEEF2E10C941A32EC01D62E5F
:1025E000062F10E0C80186559E4F7C01FC018081BA
:1025F0008F3F09F444C0F894E82FE295EF70F0E0C3
:1026000091A18F7021E030E001C0220F8A95EAF796
:10261000892F822B81A382A12095282322A378943D
:102620000E944D12E3EAF1E031E0C12C21912F3FED
:1026300059F1A22FA295AF70B0E090968C9190E0E6
:102640002F7002C0959587952A95E2F780FD1CC0F2
:10265000832FC82A330F81E0EA3AF80739F7F701E8
:1026600080818F3F11F00E94B11261E0C11001C062
:1026700060E08D2D0E944F12C00FD11FC882CDB7D0
:10268000DEB7E8E00C94363280E0E3CF80910201BF
:102690008091020195E0811190E09093DD0285E048
:1026A000891B8093C8020E94C8128AE0E3EDF2E021
:1026B000DF01982F1D929A95E9F7E9ECF2E0DF012E
:1026C0001D928A95E9F785E00E94AC130E943204BE
:1026D0000895AAE0B0E0EFE6F3E10C941C328E011D
:1026E0000F5F1F4F8AE0F80111928A95E9F7F12CEC
:1026F0006F2DC8010E94E812F394F5E0FF12F8CFA5
:102700004AE050E0B80189EC92E00E9460327C011E
:1027100021E0892B09F420E0E114F10441F08AE082
:10272000F801A9ECB2E001900D928A95E1F7609171
:10273000DD0270E06D527D4F45E089EC92E00E9431
:10274000AD1381E090E0E114F10411F40E945612FF
:102750002A96E6E00C9438320895FF920F931F9367
:10276000CF93DF93F82E092F162FD72FC42F2223B4
:1027700049F081E0809369020E9477299093680272
:1027800080936702809169028823A1F0809167029B
:10279000909168020E948F29059760F0EF2DF02F2D
:1027A000A12FBD2FCE0FDF2FD11DEC17FD0739F460
:1027B00010926902CDB7DEB7E5E00C943932819111
:1027C0008D93F3CF80916C02811107C00E946D310F
:1027D000882351F081E080936C0281E090916C023B
:1027E000913009F080E0089582E080936C020E94AD
:1027F0006831F3CF0E94E21308950E94FA13809388
:1028000002010E94E21381110E944B1408950E945C
:10281000E213811102C00E944E14089581E090914C
:102820006D029A3008F080E008950F931F93CF93C4
:10283000DF93EC018B0180916D028A30B8F4B8010E
:10284000CE010E949914C82F811122C080916D027F
:102850008F3FB9F40E94772990936B0280936A02AC
:102860008C2FDF91CF911F910F91089580916A0273
:1028700090916B020E948F29843F914000F7C0E045
:10288000EFCF8F5F80936D028A3020F7C1E0E8CFF1
:1028900010926D02E5CF0E94AE2608950E94B126E7
:1028A0000895B0E0A0E0E7E5F4E10C941B32790173
:1028B000C82F880FDD0B41155105A9F0FE0193E0EB
:1028C000EE0FFF1F9A95E1F7ED5FFE4F8181928138
:1028D00082599D4F208130E04217530708F49A0136
:1028E000A9010E946D32CE010E949A27D82E88231A
:1028F000D1F001151105B9F083E0CC0FDD1F8A95E9
:10290000E1F7FE01ED5FFE4F438150E0041715072C
:1029100008F4A801CD5FDE4F6C817D8162597D4F47
:10292000C7010E946D328D2DCDB7DEB7E7E00C9464
:1029300037320E948B1508950E94A2150895A4E0D5
:10294000B0E0E5EAF4E10C941E32609185027091EA
:10295000860280918702909188020E949E2911E050
:10296000643671058105910518F10E94DE116E5FD4
:102970007F4F8F4F9F4F69837A838B839C8310E0B7
:1029800000E030E020E044E050E0BE016F5F7F4FA8
:1029900082E00E945114182F882351F00E9483294D
:1029A00060938502709386028093870290938802D9
:1029B000812F2496E4E00C943A32B0E0A0E0E3EEFC
:1029C000F4E10C9418327C015B016A010E940E1440
:1029D00001E010E0882311F00AE010E0C1E0D0E04F
:1029E000B501C701F6010995811104C021960C17A4
:1029F0001D072CF4CDB7DEB7EAE00C943432CC9F3F
:102A00009001CD9F300D300D112490E080E045E322
:102A10004A95F1F70000019682179307C1F7E0CFBE
:102A2000A6E0B0E0E6E1F5E10C9418327B01C0903D
:102A3000AF01D090B00101E010E09E012A5F3F4F4E
:102A400050E040E070E060E080E00E945114182FF8
:102A5000882309F448C056018FEFA81AB80A60917C
:102A600081027091820280918302909184020E947F
:102A70009E29643671058105910568F105E010E035
:102A80009E012F5F3F4F50E040E070E060E081E04A
:102A90000E945114D82E65E070E0C5010E945221B9
:102AA00011E09E81981310E01D2141F10E948329BD
:102AB00060938102709382028093830290938402D8
:102AC00085E0FE013196ACE7B2E001900D928A9567
:102AD000E1F711E013C065E070E0C5010E945221EA
:102AE0009E818913CBCF85E0F6013196DE011196E8
:102AF00001900D928A95E1F71111E2CF85E0ECE7A4
:102B0000F2E0D70101900D928A95E1F7812F269688
:102B1000EAE00C9434320F931F93CF93DF93EC01D0
:102B20008B0140E155E10E94DD14882331F04FE92B
:102B300054E1B801CE010E94DD14DF91CF911F91C5
:102B40000F9108950F931F93CF93DF93C091AF011F
:102B5000D091B001CE01019625E0FB01DC0101908E
:102B60000D922A95E1F765E070E00E94522188837A
:102B70006E817F8188859985009178021091790214
:102B800020917A0230917B026017710782079307C8
:102B900051F0609378027093790280937A02909357
:102BA0007B020E94C111DF91CF911F910F91089577
:102BB0000E94C72B0E94580F0E94D42B08950E9498
:102BC000D92B0E94D60F0E94F32B08950E94102942
:102BD0000E94AD2B0E94400F0E94D8150E94DF1565
:102BE0000E944E0FFBCF8091910280FF0DC060913B
:102BF0001F0170E0660F771F6038710570F5611571
:102C0000710569F1862F089581FF07C060911F014A
:102C100084E0689FB0011124EFCF60911F0182FD15
:102C20000AC0809190028823A9F020911E01609132
:102C30001F01821710F088E0ECCF869FC00111249D
:102C400033E0880F991F3A95E1F7622F70E00E94F8
:102C50009C31D2CF68E070E0D5CF8FE7089581E056
:102C600008958091910280FF0CC060911C0170E07A
:102C700075956795759567956115710549F1862F6D
:102C8000089581FF06C060911C0170E075956795FD
:102C9000F3CF60911C0182FD0BC090918F029923AC
:102CA000A1F060911B0180911C01961738F0682FEC
:102CB00070E06038710500F38FE70895899FC001C7
:102CC000112470E00E949C31F4CF61E070E0D7CF16
:102CD00081E00895803F31F40E94F315819580933F
:102CE00095020895813F19F40E94F315F8CF823FB1
:102CF00031F40E94F3158195809394020895833FE7
:102D000019F40E94F315F8CF893F29F40E94311677
:102D10008093960208958A3F21F40E94311681958E
:102D2000F7CF8B3F31F40E94311681958093970243
:102D300008958C3F19F40E943116F8CF9CE0980F4B
:102D4000953070F4845F990B21E030E001C0220FD0
:102D50008A95EAF780919302822B809393020895DB
:102D60008D3F31F4809191028160809391020895AA
:102D70008E3F21F4809191028260F7CF8F3FB9F7A7
:102D8000809191028460F1CF40919402803F59F488
:102D90008091950287FF0DC01092950241110BC0E2
:102DA0001092900208C0813F81F48091950218161C
:102DB0009CF3442381F08091960290919702892B95
:102DC00009F05AC010928F020895823F49F447FFDC
:102DD000F0CF10929402809195028111ECCFE0CF58
:102DE000833F19F41416ACF3E4CF90919602893F17
:102DF00029F41916F4F610929602DBCF8A3F19F4E3
:102E000097FFD7CFF8CF909197028B3F29F497FF88
:102E1000D0CF10929702CDCF8C3F19F41916CCF376
:102E2000C8CF9CE0980F953090F4845F990B21E017
:102E300030E0B90102C0660F771F8A95E2F7CB0137
:102E4000809590919302892380939302B2CF8D3F16
:102E500031F4809191028E7F80939102AACF8E3FB0
:102E600021F4809191028D7FF7CF8F3F09F0A1CFA0
:102E7000809191028B7FF0CF08950E9477299C0169
:102E80009091940280919502982B21F030938E02BC
:102E900020938D029091960280919702982B21F0B9
:102EA00030938C0220938B0282E992E00E943928B1
:102EB0000895A6E0B0E0EFE5F7E10C941F3286E05C
:102EC000E2E9F2E0DE01119601900D928A95E1F7B8
:102ED000109294021092950210929602109297020C
:102EE0008B819C81892B81F080918D0290918E0243
:102EF0000E948F29AC0190919002992391F18091C9
:102F0000200184171506D0F18D819E81892B91F0C7
:102F100080918B0290918C020E948F29AC0190913C
:102F20008F02992309F46BC080911D018417150647
:102F300008F473C0BE016F5F7F4F82E992E00E9488
:102F4000C82881110E943D1786E0FE013196A2E952
:102F5000B2E001900D928A95E1F72696E3E00C9499
:102F60003B3220918A028AE0289F90011124241785
:102F7000350750F69F5F9093900202C09F3FD1F7B4
:102F80001B81112359F00E94F3159FEF11160CF4C9
:102F900091E0899F802D1124809394021C8111233C
:102FA00059F00E94F3159FEF11160CF491E0899FE0
:102FB000802D11248093950230919402332309F4DB
:102FC000A3CF20919502222309F49ECF45EB340331
:102FD000C0011124992359F09093940245EB2403E6
:102FE00090011124332339F0309395028DCF81E085
:102FF00080939402F3CF81E08093950285CF209156
:1030000089028AE0289F900111242417350708F0CF
:1030100091CF9F5F90938F0202C09F3FD1F71D8198
:10302000112359F00E9431169FEF11160CF491E014
:10303000899F802D1124809396021E81112359F0BF
:103040000E9431169FEF11160CF491E0899F802D9C
:1030500011248093970230919602332309F46ACFAA
:1030600020919702222309F465CF45EB3403C00178
:103070001124992359F09093960245EB2403900173
:103080001124332339F03093970254CF81E0809399
:103090009602F3CF81E0809397024CCF86E0E2E97D
:1030A000F2E0DF011D928A95E9F7109290021092EA
:1030B0008F02109291020895EF92FF920F931F9347
:1030C000CF93DF93EB01E82FD1110EC0442321F001
:1030D000F0E0ED55FB4FE4916E2F7E2F8E2FCDB794
:1030E000DEB7E6E00C9438320D2F10E0282F30E0E8
:1030F000442329F02D553B4FF901249130E0F6E0AF
:10310000CF9FC0011124EFEFF0E0BF010E94883192
:10311000AB018C2F90E0880F991FA5E5A49FB0010B
:10312000A59F700D1124861B970B982F990F980F50
:10313000BF01601B710B629FD001639FB00D729F36
:10314000B00D11248B2F9D9FB0011124672F77277D
:10315000EF01C61BD70BBE01629FE001639FD00D3C
:10316000729FD00D11247F01E91AF108E09EB00191
:10317000E19E700DF09E700D1124672F7727E61BDE
:10318000F70BE29F8001E39F100DF29F100D1124B9
:10319000E12F722F4230510599F048F44115510545
:1031A00069F04130510581F0EB2F8D2F07C044307D
:1031B000510569F080F046305105B1F76E2F8FCF81
:1031C000E22F7B2F812FFACFE22F7D2FF7CFEB2F2E
:1031D000822F712FF3CF7B2F822FED2FEFCF41E086
:1031E0000E945C18089508950E94EF180895CF93E7
:1031F000DF93762FE901682F842F0E94F4187983DA
:1032000068838A83DF91CF9108958091DE02982FA1
:103210009E7F29F4817082608093DE0208958A3453
:10322000E8F381708864F8CF88E090E00E947E32F5
:103230000895CF92DF92EF92FF926B017C010E9482
:103240000519B701A60188E090E00E949C32FF902A
:10325000EF90DF90CF9008956091DE027091DF02D1
:103260008091E0029091E1020E9419190895EEED1B
:10327000F2E083E0808311828FEF82838383148264
:1032800060817181828193810E94191908958091D2
:10329000DE0280FF02C08695089580E00895909137
:1032A000E202933018F49F5F9093E202882351F07A
:1032B0006091DE027091DF028091E0029091E10264
:1032C0000E941919089581E00E944F190895909164
:1032D000E202992319F091509093E202882351F071
:1032E0006091DE027091DF028091E0029091E10234
:1032F0000E941919089581E00E946719089580912C
:10330000E20208958093E202662351F06091DE02AA
:103310007091DF028091E0029091E1020E94191900
:10332000089560E00E94821908958091DF02089557
:103330008091E00208958091E102089570E00E947A
:10334000741F0895609125018091DE0280FF0BC0FB
:103350008091240123E0829FC00111248D519D4F53
:103360000E949E190895809126019091270123E0E3
:10337000829FF0011124ED51FD4F891748F711820A
:10338000108212828F5F3396F8CF9091DE0290FF09
:103390000EC0909126012091270133E0939FF00108
:1033A0001124ED51FD4F921718F00E94A2190895B3
:1033B0008183608342839F5F3396F5CFA3E0B0E0C3
:1033C000E4EEF9E10C9420329091DE0290FF0AC005
:1033D0009E012F5F3F4F0E94F7184B8169818A81C0
:1033E0000E94C5192396E2E00C943C32CF93DF9300
:1033F000EC01EC81F0E0E256FC4F4491EEEDF2E09E
:10340000628181810E94DE198C818F5F8C83DF91C4
:10341000CF910895CF93DF93EC01EEEDF2E043817D
:1034200062818C810E94DE198C818F5F8C83DF9199
:10343000CF910895A3E0B0E0E0E2FAE10C941E32EF
:103440008C018091980281110AC09E012F5F3F4F2D
:103450004FEF6FEF0E94F7188A8180939802F8016E
:103460006481613069F08091980240E0662361F0E8
:1034700040E0623011F44091980280E060E004C0C6
:103480006091980240E080E00E94C519F8018481B3
:1034900090E0019663E070E00E949C318483239663
:1034A000E4E00C943A32A3E0B0E0E9E5FAE10C94F0
:1034B0001932082FD62EE42EC22E9091DE0290FFF4
:1034C00029C0E92FE695AE2FB0E0AF54BE4F8C91E6
:1034D0008093A2029E7F923009F59E012F5F3F4F9D
:1034E000802F0E94F7184B8169818A810E94C5193B
:1034F0000093DF02D092E002E092E102CC2051F092
:103500006091DE027091DF028091E0029091E10211
:103510000E9419192396E9E00C943532823019F48F
:10352000E090E102E5CF863019F40091DF02E0CFB0
:103530008930D9F38931E1F6E9516E2F6170B62EE9
:10354000E695F0E0E256FB4F1491F12C60912801D2
:10355000F61618F00E94A219CBCFF19EC0011124DB
:1035600070E00E948831802FB11014C0860F209126
:103570002601622F6F0D7727771F9B01220F331FC4
:10358000260F371F2D513D4F4E2D6D2D0E94F718E0
:10359000F394DCCF861BEBCFEEEDF2E09181282F88
:1035A0004381628188E0890F0E94531A089581E067
:1035B0000E94CC1A0895EEEDF2E09181282F43810C
:1035C000628188EF890F0E94531A089581E00E945A
:1035D000DB1A0895EEEDF2E0628128E0620F08F454
:1035E0006FEF282F438181810E94531A089581E053
:1035F0000E94EA1A0895EEEDF2E0628128E0621B73
:1036000008F460E0282F438181810E94531A0895B5
:1036100081E00E94FB1A0895EEEDF2E0438128E07C
:10362000420F08F44FEF282F628181810E94531AC4
:10363000089581E00E940C1B0895EEEDF2E04381B5
:1036400028E0421B08F440E0282F628181810E941B
:10365000531A089581E00E941D1B089520E00E94E6
:10366000531A0895EF92FF921F93CF93DF93EC01CB
:1036700010E0EE24EA94F12C60912801161770F006
:103680000E94A2199A818C8190FF27C08F5F8C8342
:10369000DF91CF911F91FF90EF9008952091260127
:1036A000422F410F5527551FCA019A01220F331F80
:1036B000280F391F2D513D4F70E0C7010E949C31EA
:1036C000962F8C814091E1026091E002199F800D5C
:1036D00011240E94F7181F5FCFCF8150D8CFB0E0E0
:1036E000A0E0E5E7FBE10C941832FC0182810FEFCA
:1036F00080FF01E010E04EE0A42E80912801181711
:1037000098F00E94A21980919A02013009F04FC0EE
:10371000811102C080912801815080939A02CDB717
:10372000DEB7EAE00C943432C0912601C12ED12CD0
:10373000CC0DDD2DD11DCE01880F991FC80FD91FCB
:10374000CD51DD4F198218821A8234E0E32EF12C1C
:10375000B12C80919A028B0D8F301CF16A2D0E9442
:103760007A31892F082E000C990BC816D90691F4CE
:103770008091E1028E9DA0018F9D500D11245595E1
:103780004795559547959E016091E0028091DF0233
:103790000E94F718B00EF1E0EF1AF108D1F61F5FA2
:1037A000ACCF87FFDFCF90912801890FDBCF90E06E
:1037B00001966091280170E00E949C31AECF0F937A
:1037C0001F93CF93DF93809126019091270123E0EF
:1037D000829FF0011124ED51FD4F891740F1C0E0A7
:1037E000D3E060912801C61740F10E94A2192091F0
:1037F000220180919902820F809399029091230176
:10380000920F90932301191654F4082E000C990B73
:10381000409128014150550B841795071CF02195C4
:1038200020932201DF91CF911F910F910895118272
:10383000108212828F5F3396D0CF0C2F10E070E091
:10384000C8010E949C3120912601820F482F50E030
:1038500020919902022E000C330B02171307BCF0C3
:1038600020912301022E000C330B201731077CF02E
:103870008D9F900111242D513D4F4091E1026091A7
:10388000E0028091DF020E94F718CF5FAACFFA0111
:10389000EE0FFF1FE40FF51FED51FD4F1182108257
:1038A0001282F3CFB0E0A0E0E8E5FCE10C94163220
:1038B000EC014C81042F10E09801D8010E94E731FF
:1038C0009B01AC010E94FD314B015C01E0E2F0E0A4
:1038D000E01BF10BA5E5B0E0AC019B010E94FD31BE
:1038E0006B017C019F01DF010E94DF319B01AC0174
:1038F0000E9408329B01AC01280D391D4A1D5B1D39
:10390000C701B6010E94B031F22E822F90E039E259
:103910003F1520F143E0249F900111243595279510
:10392000122F109500E085E5E82EEF188091280110
:10393000081718F10E94A2199C8181E0992319F0BF
:10394000903219F48FEF8093210180912101890F2A
:103950008C83CDB7DEB7ECE00C94323225E530E055
:10396000B901681B790B9B01220F331F260F371FEC
:1039700037FFD4CF2F5F3F4FD1CF8E2D01FD8F2D3D
:1039800020912601622F600F7727771F9B01220F5E
:10399000331F260F371F2D513D4F412F6091E002FD
:1039A0000E94F7180F5FC2CF0F931F93CF93DF933F
:1039B000EC0110E000E0909128019017110609F049
:1039C0006CF40E94A2198C8190E001968170992775
:1039D0008C83DF91CF911F910F9108952091260143
:1039E000A801420F511D9A01220F331F240F351FCA
:1039F0002D513D4F4C816091E0028091DF02969500
:103A00009017110651F04CF0442349F04091E10227
:103A10000E94F7180F5F1F4FCECF4423B9F340E049
:103A2000F7CFEEEDF2E080818E7F8083608171813F
:103A3000828193810E9419191092A3022FEF80E7CF
:103A400092E0215080409040E1F700C000000E94C9
:103A5000A2190895EEEDF2E080818E7F80831092AE
:103A6000A3022FEF80E792E0215080409040E1F7E1
:103A700000C000000E94A21908956091DE026695C0
:103A800070E04BE050E089E291E00E945332892BD4
:103A900019F481E08093A3020E94F81190939C0294
:103AA00080939B0208959091DE0290FF2BC091704D
:103AB000811129C092609093DE02662351F06091DB
:103AC000DE027091DF028091E0029091E1020E949B
:103AD00019196091DE02669570E04BE050E089E2D2
:103AE00091E00E945332892BA9F01092A30281E049
:103AF00080939E024091E1026091E0028091DF029A
:103B00000E942E1B0895853210F09864D4CF880F40
:103B1000982BD1CF0E943D1DEACF682F9091DE02F5
:103B2000969581E0890F853208F081E00E94531D4F
:103B3000089581E00E948D1D0895682F9091DE0206
:103B400096958FEF890F09F484E20E94531D089522
:103B500081E00E949D1D089561E00E94531D08951B
:103B6000EEEDF2E080818160808386950E94AC1D3D
:103B700008958091DE0280FF03C00E94111D089508
:103B80000E94B01D089560E00E94531D0895809129
:103B9000A10281112EC00E947B0E811104C00E94DF
:103BA0001B0F0E9437190E9414196093DE02709354
:103BB000DF028093E0029093E1026E7F61F40E9445
:103BC00037190E9414196093DE027093DF0280930C
:103BD000E0029093E1020E9405191092A3028091E5
:103BE000DE0280FF03C086950E94C31D81E08093A2
:103BF000A1020895EEEDF2E08081816080838695D8
:103C00000E94C31D08950F931F93CF93DF9380915C
:103C1000A3028823B9F18091A202E091DE02E69529
:103C2000E81BE0939D02823091F5F0E0E656FC4FF0
:103C3000E491CE2FD0E006EF19E180919E02882317
:103C400061F010929E020E94F81190939C02809362
:103C50009B021092A00210929F020E94F811E09124
:103C60009B02F0919C028E1B9F0B8F3F9F4750F44D
:103C7000EC0FFD1FF0939C02E0939B028BE992E016
:103C8000F8010995DF91CF911F910F91089586302A
:103C900049F4F0E0E956FC4FE491CE2FD0E00AE081
:103CA0001AE1CBCF893051F4E695F0E0EC56FC4FA9
:103CB000E491CE2FD0E002E31BE1BFCF8F3051F46F
:103CC000E695F0E0EF56FC4FE491CE2FD0E00FE602
:103CD0001BE1B3CF853149F4F0E0E257FC4FE491AA
:103CE000CE2FD0E00FED1BE1A8CFC8E2D0E002E577
:103CF0001CE1883109F4A1CF833239F4ECE8F3E018
:103D0000C591D4910AE11AE198CFC4EFD1E004ED56
:103D10001CE1843209F491CFC0EDD7E003EF18E144
:103D20008CCFFA01811101C0FB0109950895CF9351
:103D3000DF93C82FD62F0E9447198C1748F00E9496
:103D400047198D1728F40E94991DDF91CF9108958E
:103D50008C2F0E94AC1DF9CF1F93CF93DF93EC0102
:103D6000FB01128111117EC00E948D0D8272CC3C2C
:103D7000FCE5DF0709F49CC008F041C0C63CECE557
:103D8000DE0709F481C0D8F4C33C9CE5D90709F4E7
:103D900071C030F4C23CDC4509F469C011E062C076
:103DA000C43C9CE5D90709F46AC046EE5AE167EDC8
:103DB0007AE1C53CDC4591F70E94911E53C0C93C95
:103DC000FCE5DF0709F46AC068F4C73CECE5DE07F0
:103DD00009F45FC047EF5AE168E07BE1C83CDC458D
:103DE00059F3DCCFCA3C9CE5D90709F45CC04BE72A
:103DF00059E163E679E1CB3CDC45F1F2CFCFC13D3F
:103E0000FCE5DF0709F465C098F4CE3C9CE5D907D2
:103E100009F457C008F451C0CF3CFCE5DF0709F4B2
:103E200055C0C03DDC4509F0B9CF6EE089E04BC01C
:103E3000C43D9CE5D90709F452C058F4C23DFCE5E5
:103E4000DF0709F449C0C33DDC4509F0A7CF88E18D
:103E500035C0C53D9CE5D90709F444C0CD35DD45E5
:103E600009F09CCF812FDF91CF911F9108950E947F
:103E7000B91DF8CF48EA5DE169E97DE19DCF49E9E7
:103E80005DE168EA7DE198CF47ED5AE166EE7AE1BF
:103E900093CF48E05BE167EF7AE18ECF4AE25BE1E6
:103EA00069E17BE189CF49E15BE16AE27BE184CFB3
:103EB00043E659E16BE779E17FCF81E00E94AC1DD9
:103EC000D1CF65E082E00E94971ECCCF68E086E00B
:103ED000FACF64E18FE0F7CF67E185E1F4CF62E2EA
:103EE00089E1F1CF83E2EACF539A4BB1477F5BB1CF
:103EF0005860EFB7F8949B01220F331F260F371F2E
:103F0000280F391F2817390741F4EFBF8FE594E0D8
:103F10000197F1F700C000000895DC016D91CD011B
:103F200078E05BB9000000C067FF4BB9660F000086
:103F300000C000C000C04BB900C07A9591F7E2CF35
:103F400083E290E00E947632823289F484E290E04B
:103F50000E947632863059F485E290E00E947632F3
:103F600091E0823109F090E0892F8170089580E01E
:103F7000FCCFCF93C82F6FEF811162E283E290E014
:103F80000E948A326FEFC11166E084E290E00E94E5
:103F90008A326FEFC11162E185E290E00E948A32BD
:103FA000CF910895089586E290E00E947632682FBE
:103FB00070E090E080E008950895CF93C62F0E94AE
:103FC000DC1F6C2F86E290E00E948A32CF91089528
:103FD00080E00E94B91F60E070E0CB010E94DD1F0D
:103FE0000E943F240E941C2581E00E94B91F089571
:103FF0000E94D21F0E94D31F0E94DC1F0E94A01F9C
:10400000811102C00E94E81F0895CF93FB01C28175
:10401000CC2309F19C0122513F452031310520F587
:1040200082510E942C25C0E08C2FCF91089581E011
:104030000E94BF0943E062E081E00E942804F3CFC0
:1040400081E00E94CB0943E062E081E00E94280405
:10405000EBCF82E0F6CF8031FFE59F0789F3813116
:104060009F45B9F3C1E0E0CF8031EFE59E07F9F25B
:1040700081319F45C9F682E0DBCF2FEFFC01208321
:104080000895CF93DF93EC0188818138A9F028F45B
:10409000803871F0DF91CF910895823881F08338B4
:1040A000C9F70E94951989830E9498198A83F2CFD3
:1040B0000E949B198983EECF0E944719FBCF0E9473
:1040C0007F19F8CFCF93DF93EC0188818138D9F045
:1040D00028F4803869F0DF91CF9108958238F9F0A3
:1040E0008338C9F70E949B19482F6A81898108C0CB
:1040F000D9810E949819C82F0E9495194D2F6C2FB5
:104100000E942E1BE8CF89810E94C31D89818111E5
:1041100003C00E942A1DDFCF0E94FA1DDCCF8981D7
:104120000E949119D8CFEF92FF920F931F93CF93D4
:10413000DF93EC01062FDC01ED91CD01E150E3317D
:1041400008F0ACC0F0E0E453FD4C0C94D23119827D
:1041500089E08A83602FCE010E94802ACDB7DEB726
:10416000E6E00C9438328981823069F0833071F056
:104170008130D9F40E9483290E94D8316A837B83DD
:104180008C839D83E7CF0E94D31FF6CF7E01B2E0E0
:10419000EB0EF11C10E0812F0E944212F701819377
:1041A0007F011F5F1A30B9F7D5CF602FCE010E9473
:1041B0003D20D0CF89818230C1F76A817B818C819B
:1041C0009D810E94D8310E94DD1FC4CF4B816A813E
:1041D00089810E9401249827892798279D838C83B1
:1041E000B9CF2C813D813227232732274B816A8129
:1041F00089810E942324AECF0E943F24ABCF0E942E
:104200006220A8CF0E944120A5CF0E942C19A2CFE6
:104210000E94CD2489839ECF0E94CF24982789278E
:1042200098279A83898396CF6B8170E089819A81E0
:10423000AE014C5F5F4F9827892798270E94D224B0
:1042400089CF6B8170E089819A81AE014C5F5F4FAD
:104250009827892798270E94F7247CCF0E941C2545
:1042600079CF0E94EF23D6CF6B8170E089819A814C
:10427000AE014C5F5F4F9827892798270E947724CB
:1042800069CF6B8170E089819A81AE014C5F5F4F8D
:104290009827892798270E949B245CCF8FEF8883DB
:1042A00059CF0895FC01680F791F8FEF91E3E6174E
:1042B000F70709F408952191822728E030E087FF6D
:1042C00006C0880F892721503109C9F7F0CF880F20
:1042D000FACFCF93DF93EC01FB018281882309F4AD
:1042E00033C1C330FDE5DF07C0F5CA3F9CE5D90700
:1042F00030F49E0122503C4524313105B0F50E9436
:10430000910E9093C7028093C602C1318CE5D80705
:1043100009F4EEC008F069C0C930ECE5DE0709F425
:10432000D5C0C8F5C5308CE5D80709F4C7C000F57D
:10433000C330ECE5DE0709F4B9C008F0BBC0C230F9
:10434000DC4509F4ADC08091C6029091C7020E947D
:104350009F0E0E94480980E008C0C136EDE5DE07E7
:1043600071F2C53AFDE5DF0751F2DF91CF91089573
:104370008091C6028062C7309CE5D90709F493C0DA
:104380008091C6028061C830DC4508F48CC0809101
:10439000C602806488C08091C6028B7FCD30FCE568
:1043A000DF0709F480C098F48091C6028E7FCB307D
:1043B0009CE5D90709F477C08091C6028C60CC30A7
:1043C000DC4508F470C08091C6028D7F6CC080917E
:1043D000C6028F7ECF30FCE5DF0709F464C008F425
:1043E0007BC08091C6028F7D5EC0CD3F9CE5D90722
:1043F00009F47AC050F5C531FCE5DF0709F486C041
:1044000098F48091C602837FC3319CE5D90709F4F3
:104410004AC008F471C00E9448099091C602892FD1
:1044200097FB87F980583FC0CB3FFCE5DF0709F4D5
:1044300049C008F055C08091C7028160CA3FDC4581
:1044400009F081CF8093C7027ECFC130EDE5DE0752
:1044500009F468C0A8F4CF3F8CE5D80709F452C02E
:104460008091C7028360C115DD4560F38091C7026A
:10447000982F909591708E7F892B90FB81F9E2CFD8
:10448000C136EDE5DE0709F451C0C53AFDE5DF07A9
:1044900009F453C0C230DD4509F055CF80E043C078
:1044A0008091C60281608093C6024DCF8091C60282
:1044B0008260F9CF8091C6028460F5CF8091C602F8
:1044C0008860F1CF8091C7028260BCCF0E9448090A
:1044D0008091C6028068E7CF8091C602877FE3CFD4
:1044E0008091C7028E7FAECF8091C7028D7FAACF09
:1044F0008091C6028F7BD7CF0E9448098091C60267
:104500008F77D1CF8091C7028C7F9CCF8091C602DC
:1045100082FB992790F921E0922790FB82F990FB8A
:1045200083F9C1CF81E00E941E0F0DCF9091C6028A
:10453000892F8F7E94FF8061B6CF9091C602892F1C
:104540008E7F90FF8160AFCF81E00FCF8B3109F478
:1045500064C040F58B3071F078F4863009F446C0C1
:1045600020F4853059F180E00895873009F447C080
:104570008830C9F781E00895803109F45CC068F49F
:104580008E3089F790916502892F8B7F92FF84602E
:104590008093650282FD4BC0EDCF863159F389319E
:1045A00049F3E1CF8A32F9F060F48732B1F020F4B8
:1045B0008E31C8F28D514BC08932A9F60E94470452
:1045C000D9CF833440F48A3308F040C0853329F0D2
:1045D000883381F2C8CF833431F681E00E9490099C
:1045E0000E944809C7CF0E941B0FC4CF809165026B
:1045F000807F8093650281E08093A7020895909167
:104600006502892F8E7F90FF81608093650280FD17
:10461000B1CF817F80936502ADCF90916502892FE4
:104620008D7F91FF82608093650281FFA3CF80918F
:1046300065028160EFCF90916502892F877F93FF9C
:1046400088608093650283FDF2CF94CF895391E017
:1046500001C0990F8A95EAF7892FC0CF80E00895AD
:104660000E942E230895CF93C82F8091A7028130F6
:10467000B9F0882331F08230A1F11092A70280E0D6
:104680000DC00E948D0D8232D1F78C2F0E942E23F7
:1046900081111BC08C2F0E94A6228170CF9108959A
:1046A0000E948D0D823289F38C2F0E94302381115C
:1046B0000AC0C43199F060F4CB3029F0C03169F7F9
:1046C00082E08093A70281E0E8CF81E090E0E5CF2F
:1046D000C93221F0C833B9F380E0DFCF1092A702CE
:1046E000FBCFC93209F43FC0E8F4C431E1F128F44A
:1046F000C73009F45BC081E0D1CF82EE8C0F8A30E5
:10470000D0F7CD51C093A602C33009F446C0B0F52E
:10471000C13009F43FC080E291E0C230B1F11092A3
:10472000A602E9CFC03509F452C0B8F48AE0CF340C
:1047300011F7E091A402F091A5023097E1F22081F7
:10474000082E000C990B820F911D8F3F910509F0E7
:104750000CF441C08FEF8083CECFC135D1F181E021
:10476000C23539F39BCF8091A602882321F21092A3
:10477000A6021092A5021092A402BDCFC53099F0F6
:1047800078F08BE191E0C63051F69093A5028093CA
:10479000A402B1CF8AE892E0F8CF8FE191E0F5CFA3
:1047A0008EE191E0F2CF8CE191E0EFCF10928A029E
:1047B00084E180932001C0931F018CE380931E014C
:1047C00088E080931C0188E280931B0194CF86EFE0
:1047D000B0CF8FEFAECF97FFBECF10828CCF84E0EB
:1047E000089550E0440F551F9EE0699F400D511DF4
:1047F00011249CE8899F400D511D1124CA01879600
:1048000008950F931F93CF93DF938430C8F46A30D9
:10481000B8F44730A8F40E94F1238C010E9476324C
:10482000C82FD0E0DC2FCC27C80101960E94763239
:104830009E01282BC901DF91CF911F910F910895FF
:1048400090E080E0F8CF0F931F93CF93DF93122F68
:10485000032F843078F46A3068F4473058F40E94AB
:10486000F123EC01602F0E948A32612FCE01019664
:104870000E948A32DF91CF911F910F910895AF92DC
:10488000BF92CF92DF92EF92FF921F93CF93DF936D
:104890008CEAC82E80E0D82ED0E07601C0E014C0AB
:1048A000F50125913491412F6C2F8D2F0E942324E7
:1048B00082E0A80EB11C1F5F173091F78EE0E80E62
:1048C000F11CCF5FCA3019F0570110E0E9CFDF5F6C
:1048D0008CE8C80ED11CD43001F7DF91CF911F9125
:1048E000FF90EF90DF90CF90BF90AF900895EF9240
:1048F000FF920F931F93CF93DF93EC018A017C010A
:10490000E60EF71ECE018796CE15DF0529F4CDB74A
:10491000DEB7E6E00C943832C03322E0D20740F430
:104920000E947632F80180830F5F1F4F2196EACFF5
:10493000F8011082F9CFB0E0A0E0E1EAF4E20C94D3
:104940001A327C016A018C01060F171FEC01CE019F
:104950008796C017D10729F4CDB7DEB7E8E00C94ED
:104960003632C03322E0D20740F4FE01EE19FF09CF
:10497000EC0DFD1D60810E948A322196E8CF462F02
:10498000843040F47A3030F4673020F4672F0E948E
:104990000124089590E080E0089580E1089589EA77
:1049A00091E00895EF92FF920F931F93CF93DF93BF
:1049B000EC018A017C01E60EF71ECE01895A9D4F5B
:1049C000CE15DF0529F4CDB7DEB7E6E00C9438321A
:1049D000C93A21E0D20740F40E947632F801808380
:1049E0000F5F1F4F2196E9CFF8011082F9CFB0E099
:1049F000A0E0EDEFF4E20C941A327C016A018C0124
:104A0000060F171FEC01CE01895A9D4FC017D10721
:104A100029F4CDB7DEB7E8E00C943632C93A21E08C
:104A2000D20740F4FE01EE19FF09EC0DFD1D608177
:104A30000E948A322196E7CFCF93DF93C7E5D2E079
:104A400060E0CE010E948A322196C11584E0D80729
:104A5000B9F7DF91CF910895A4E0B0E0E2E3F5E289
:104A60000C941B32F82E8FE08F1548F18FEF93E0F6
:104A70000E947632811123C007E512E0F11023C0B5
:104A800019821A821B821C82DD24D39478018FEF55
:104A9000E81AF80AC8010E94763289831A828823AC
:104AA00071F09FEF980F9330D8F48A83D9820E5F0C
:104AB0001F4FC7010E9476328B83811112C024964A
:104AC000E7E00C943732011584E01807C1F3C80100
:104AD0000E947632811101C0FA940F5F1F4FCECF32
:104AE0008701CE0101960E947E05D0CFCF93DF9340
:104AF000EB0186319C4511F50E948D0D9A81992319
:104B000099F08A7A91E009F490E09093A8028111DB
:104B100009C089E20E94650D0E94CE0D80E0DF9100
:104B2000CF91089585E3F6CF8091A802811104C04A
:104B300089E20E946D0DF0CF85E3FBCF81E0EFCFDE
:104B40000F931F93CF93DF93C42FD22FFC01828149
:104B50008823C9F04093AB020E9477299093AA0260
:104B60008093A90280E28C0F883040F4C77081E006
:104B700001C0880FCA95EAF70E94F406DF91CF9131
:104B80001F910F9108951091AB02141332C08091C0
:104B9000A9029091AA020E948F29883C910548F5AC
:104BA000C0E2CD0F1D17B9F080E2810F883040F4CC
:104BB000177081E001C0880F1A95EAF70E94FB0682
:104BC000C83048F481E09D2F977001C0880F9A95F6
:104BD000EAF70E94F406802F0E94EB06C83070F6B8
:104BE000D77081E001C0880FDA95EAF70E94FB06D2
:104BF000C5CF80E28C0F883008F6C77081E001C015
:104C0000880FCA95EAF7F2CF0F939C01CB01233F9F
:104C10004CE5340759F1A8F4283DFCE53F0701F1C4
:104C2000293D4CE53407D1F1273D3C4591F406E29E
:104C300021EE41EE67ED7CE50E94A02580E00F911A
:104C40000895253FFCE53F07E9F0B0F0263F3C45DD
:104C5000F9F0FC018281882339F11092AB02EFCF89
:104C600007E225EE45EE68ED7CE5E6CF06E221EEB3
:104C700040EE63EF7CE5E0CF07E225EE44EE64EF23
:104C80007CE5DACF06E221EE42EE65EF7CE5D4CF9B
:104C900007E225EE46EE66EF7CE5CECF08E221E0A6
:104CA00045EE69ED7CE5C8CF81E0C9CF8EE1489B38
:104CB00002C08150E1F7489BFECF0895589880E2EA
:104CC0008A95F1F7589A0895FC013BE03A95F1F77F
:104CD00098E020E080E031E040E14A95F1F7880F6C
:104CE000489B02C08160232742E04A95F1F700000B
:104CF00040E14A95F1F7915079F790E19A95F1F7F3
:104D000099B132E03A95F1F7000040E14A95F1F7A8
:104D1000917092272081920F90830895A1E0B0E0D6
:104D2000E4E9F6E20C941C3219828C017C01E60E57
:104D3000F11C0E151F0541F481E09981911180E06D
:104D40002196E6E00C9438320E945626CE01019658
:104D50000E946426F80181938F01EBCF509A589AF4
:104D600008955098589AE89AE9E6F0E080818C7F9F
:104D7000808308956150770B91E001C0990F6A9587
:104D8000EAF720E031E0911108C0222391F0589A0F
:104D900080E28A95F1F758980895492F482339F011
:104DA000589A232740E24A95F1F79695ECCF589808
:104DB000F9CF5898EDCFFF920F931F93CF93DF93C6
:104DC000EC018C01060F111DC017D10729F4CDB7D6
:104DD000DEB7E5E00C943932F9900E945E2668E077
:104DE0008F2D0E94BA26F0CF1F920F920FB60F920E
:104DF00011240F931F932F933F934F935F936F93C0
:104E00007F938F939F93AF93BF93EF93FF93CF9332
:104E1000DF930F92CDB7DEB719820E945626CE01DE
:104E200001960E946426082F069506950695282F60
:104E300022952570902F9570290F922F93702695AB
:104E40002695920F982797708981982B09F05CC05E
:104E5000043008F059C080E18A95F1F7589A509AC9
:104E600082E08A95F1F700C0589888E0089F800199
:104E70001124D801AD5FBE4F1696ED91FC911797A6
:104E80003097A9F06091AF017091B00114962D9107
:104E90003C911597260F371F11968D919C91129773
:104EA000680F791F13964C9113978C910995F8010F
:104EB000ED5FFE4F6381662351F02091AF01309189
:104EC000B00184819581820F931F0E94DB260E948E
:104ED0005E2680E18A95F1F758985098589A80E1BB
:104EE0008A95F1F7F801ED5FFE4F6081662351F07E
:104EF0002091AF013091B00181819281820F931F87
:104F00000E948E260E9456260F90DF91CF91FF912E
:104F1000EF91BF91AF919F918F917F916F915F9131
:104F20004F913F912F911F910F910F900FBE0F90B6
:104F30001F9018950F931F93CF93DF93EC01049765
:104F40000CF04CC0F894509A589885E08A95F1F787
:104F500000009C2F969595708C2F8570980F892F47
:104F600083709695969523E0CC0FDD1F2A95E1F787
:104F7000980F8E01092B0E945E2600C068E0802FEA
:104F80000E94BA2680E18A95F1F75098589A489B7A
:104F90001EC087E090E048991CC0FE01ED5FFE4F07
:104FA00063816623F9F02091AF013091B0018481D3
:104FB0009581820F931F0E948E26811113C0509AF3
:104FC000589A7894DF91CF911F910F91089500C066
:104FD000DECF019729F4509A589A789480E0F2CF66
:104FE00000C0D9CF0E94562680E28A95F1F75898E2
:104FF000509A80E18A95F1F7CD5FDE4F6881662394
:1050000051F02091AF013091B00189819A81820FD6
:10501000931F0E94DB260E945E26789481E0D2CF07
:105020009093E7018093E60108959093B2028093F4
:10503000B10208950E94E213811103C08091AC0275
:105040000895E091B102F091B202309729F00190F9
:10505000F081E02D0995089580E00895E091B10276
:10506000F091B202309721F00280F381E02D099592
:105070000895E091B102F091B202309739F022E048
:10508000DC012C930480F581E02D09950895209191
:10509000AF023091B0022817390771F09093B00237
:1050A0008093AF02E091B102F091B202309721F00B
:1050B0000680F781E02D099508952091AD02309189
:1050C000AE022817390771F09093AE028093AD02BB
:1050D000E091B102F091B202309721F00084F185A5
:1050E000E02D099508959C012E5F3F4FAC01485F6C
:1050F0005F4F80E02417350709F40895F901919175
:105100009F019923B9F38F5FF5CF662349F0FC0126
:10511000329608962191261729F0E817F907D1F75A
:1051200080E0089581E008959C01FC0132969FEF94
:1051300080E04191461751F09F3F19F4411101C0A1
:10514000982F8F5F8630A9F79F3F09F40895290FA4
:10515000311D97FD3A95F90162830895FC0132965D
:1051600008962191261303C0DF0111971C92E817BE
:10517000F907B9F708950E94942808950E94AE286F
:105180000895029626E0FC0111922A95E9F7089508
:1051900046E050E00E94603221E0892B09F420E0D3
:1051A000822F089508950E94D2280895811106C083
:1051B00081E08093B3020E94D328089582E0F9CF62
:1051C00083E08093B3020E94D32808950E94D628DA
:1051D000089581E08093B3020E94D32808950E942D
:1051E000E9280895089508950E94F32808950895E0
:1051F00008950E94F2280895CF930E94F7280E94F4
:1052000069130E94F828C0E08C2F0E94421281117D
:1052100005C0CF5FCA30C1F7CF91089581E0FCCFC0
:1052200085B7806885BF85B7806885BF08951F9260
:105230001FB61F9211248F939F93AF93BF938091BA
:10524000B402811113C080910D0390910E03A091BF
:105250000F03B09110034196A11DB11D80930D0362
:1052600090930E03A0930F03B0931003BF91AF91DF
:105270009F918F911F901FBE1F90189580911503CD
:10528000843031F10E94B1041092B40288E190E0C0
:1052900020E40FB6F894A895809360000FBE209389
:1052A000600083B7817F846083BF83B7816083BFE1
:1052B0007894889583B78E7F83BF0FB6F894A895AE
:1052C00080916000886180936000109260000FBE42
:1052D00008950E9448090E94B604089582E084BDA2
:1052E00093E095BD9AEF97BD80936E0008952FB718
:1052F000F89480910D0390910E03A0910F03B0914B
:1053000010032FBF08952FB7F89460910D0370918B
:105310000E0380910F03909110032FBF08959C01FD
:105320004FB7F89480910D0390910E03A0910F0355
:10533000B09110034FBF821B930B0895CF92DF9261
:10534000EF92FF922FB7F894C0900D03D0900E0308
:10535000E0900F03F09010032FBFA7019601261BCA
:10536000370B480B590BCA01B901FF90EF90DF9042
:10537000CF90089578941F921FB61F9211248F9397
:105380009F93AF93BF9380910D0390910E03A091D3
:105390000F03B09110030196A11DB11D80930D0361
:1053A00090930E03A0930F03B0931003BF91AF919E
:1053B0009F918F911F901FBE1F90189587E797E7C9
:1053C000909301088093000888E19AE00FB6F89462
:1053D000A895809360000FBE90936000FFCF88E196
:1053E0009AE00FB6F894A895809360000FBE909352
:1053F0006000FFCF8091C002089508959C0184E071
:105400008093E9009FEF8091E800915085FD06C0F0
:1054100085ED8A95F1F700009111F5CF8091E800B4
:1054200085FF0CC050E040E066E070E0C9010E94DA
:10543000922C8091E8008E778093E8000895CF93B6
:10544000DF93EC0181E08093E9008FEF9091E80019
:10545000815095FD06C095ED9A95F1F700008111F8
:10546000F5CF8091E80085FF14C050E040E068E08F
:1054700070E0CE010E94922C8091E8008E7780939C
:10548000E80088E0FE01A8EBB2E001900D928A9559
:10549000E1F7DF91CF9108958093B5027093B70241
:1054A0006093B602809115038430F9F48093E9008B
:1054B0008FEF9091E800815095FD06C095ED9A958B
:1054C000F1F700008111F5CF8091E80085FF0DC054
:1054D00050E040E063E070E085EB92E00E94922CA7
:1054E0008091E8008E778093E8000895BC0184E005
:1054F0000E944C2A0895BC0183E00E944C2A089522
:10550000CF93FC01603221F580911503843001F5C1
:10551000C091E900CF702091EC00922F917020FD96
:1055200090E8C92B82E08093E9008091E80080FF39
:105530000CC050E040E060E270E0CF010E94922C8D
:105540008091E8008E778093E800CF70C093E900E7
:10555000CF91089580911403811109C00E94712E8A
:105560000E94CE2E8091E20084608093E200089534
:105570001092140308950E94E92808956091110380
:1055800081E0611101C080E00E94E02808959091BF
:10559000150381E0943009F080E0609111030E94CE
:1055A000E628089542E061EC81E00E94ED2D42E2A0
:1055B00061EC84E00E94ED2D42E261EC82E00E9409
:1055C000ED2D42E260EC83E00E94ED2D90911503F9
:1055D00081E0943009F080E0609111030E94D628A8
:1055E000089580911703833009F463C030F481304B
:1055F000E1F1823009F4A0C008958A3009F48CC02A
:105600008B3009F471C0893009F052C080911603C3
:10561000813209F04DC080911A0390911B030097CD
:1056200019F0029709F044C08091E800877F8093C9
:10563000E8008091E80082FF37C09091F3008091EC
:10564000F200029731F48091F100813011F0863040
:1056500021F48091F1008093C0028091E8008B7763
:105660008093E8000E94212E23C080911603813A86
:10567000F9F48091E800877F8093E80080911A0315
:1056800090911B03892B61F468E088EB92E070E055
:105690000E94302D8091E8008B778093E800089578
:1056A00060E090E080E0F3CF809115038111C1CFDD
:1056B000089580911603813AD9F780911A03909149
:1056C0001B03892BA9F78091E800877F8093E8006E
:1056D0008091E80080FFFCCF809140018093F10031
:1056E0008091E8008E77BCCF80911603813201F75C
:1056F00080911A0390911B03892BD1F68091E800C9
:10570000877F8093E8000E94212E80911803809368
:1057100040010E944809089580911603813241F6A4
:105720008091E800877F8093E8000E94212E80917D
:1057300019038093C102089580911603813A09F0FC
:10574000B7CF8091E800877F8093E8008091E800E0
:1057500080FFFCCF8091C102C1CF84B7877F84BF17
:105760000FB6F894A89580916000886180936000DE
:10577000109260000FBE80E890E00FB6F89480931E
:105780006100909361000FBE0E94EF2808950E946F
:10579000712E0E94CE2EE2EEF0E080818460808344
:1057A00078940E944D31089584E391E00E94152879
:1057B000089580911503853031F48091150385306B
:1057C00019F00E94692908950E943E2980911303CF
:1057D000882399F30E94FC28882379F30E947C2C6B
:1057E0000E944809EACFA0E2B0E0E9EFFBE20C94A6
:1057F000203280911503843009F583E08093E9001D
:105800008091E80082FF1AC08091E80090E085FF57
:1058100009C050E040E060E270E0CE0101960E94D5
:10582000E12C91E08091E8008B778093E800992348
:1058300029F060E2CE0101960E949320A096E2E05A
:105840000C943C320E94252C0895292F33272330B5
:10585000310521F168F42130310509F443C02230CB
:10586000310509F444C090E080E030E020E026C03B
:105870002132310551F122323105A9F7633071052A
:1058800090F7FB01EE0FFF1FE752FE4F20813181A1
:105890006A527E4FFB01808190E010C099278130D1
:1058A000910581F0009729F00297E9F6E3EAF5E027
:1058B00002C0E3EEF5E0849190E09F01FA013183AC
:1058C00020830895EBECF5E0F6CF6330710558F6D0
:1058D000660F771FFB01E152FE4F2081318189E085
:1058E00090E0ECCF82E190E022E436E0E7CF8BE578
:1058F00090E027EE35E0E2CF80E189BD82E189BD0D
:1059000009B400FEFDCF8091D8008F7D8093D80030
:105910008091E00082608093E0008091E00081FD52
:10592000FCCF0895AF92BF92CF92DF92FF920F9378
:105930001F93CF93DF936C01EB018A010E94402EED
:10594000F82E811123C00115110539F0F80180816D
:105950009181C81BD90BC80ED91EB12CA12C209740
:10596000A9F08091E80085FD22C08091E8008E7743
:105970008093E80001151105A1F0F8018081918163
:10598000A80EB91EB182A08285E0F82E8F2DDF917E
:10599000CF911F910F91FF90DF90CF90BF90AF906C
:1059A00008950E94402E8823D1F2F82EEFCFF60101
:1059B00081916F018093F1002197FFEFAF1ABF0A29
:1059C000CECFAF92BF92CF92DF92FF920F931F93F1
:1059D000CF93DF936C01EB018A010E94402EF82ED9
:1059E000811123C00115110539F0F80180819181E1
:1059F000C81BD90BC80ED91EB12CA12C2097A9F019
:105A00008091E80085FD22C08091E8008B7780932B
:105A1000E80001151105A1F0F80180819181A80E1F
:105A2000B91EB182A08285E0F82E8F2DDF91CF9133
:105A30001F910F91FF90DF90CF90BF90AF9008958E
:105A40000E94402E8823D1F2F82EEFCF8091F100F2
:105A5000F60181936F012197FFEFAF1ABF0ACECFF6
:105A6000FC0180911C0390911D0386179707A0F0FD
:105A70006115710529F49091E8009E779093E800F4
:105A800090E06115710551F4911108C08091E80012
:105A900082FF34C080E00895BC01F2CF80911503ED
:105AA0008823C1F18530C1F18091E80083FD30C0C9
:105AB0008091E80082FDEACF8091E80080FFE1CF8D
:105AC0008091F3002091F200382F6115710519F0D3
:105AD0002830310558F091E02830310509F090E088
