:100000000C94E4060C941C070C941C070C941C071D
:100010000C941C070C941C070C941C070C941C07D4
:100020000C941C070C941C070C9478240C94342416
:100030000C94CB250C941C070C941C070C941C07E7
:100040000C941C070C941C070C941C070C941C07A4
:100050000C941C070C94A7250C941C070C941C07EB
:100060000C941C070C941C070C941C070C941C0784
:100070000C941C070C941C070C941C070C941C0774
:100080000C941C070C941C070C941C070C941C0764
:100090000C941C070C941C070C941C070C941C0754
:1000A0000C941C070C941C070C941C070631FF09C8
:1000B00074A1010975150026FF00952075088102BD
:1000C0000976150026FF00952075089102C00501EC
:1000D0000902A10185020901A100050919012908E8
:1000E00015002501950875018102050109300931C6
:1000F0001581257F95027508810609381581257FB0
:10010000950175088106050C0A38021581257F9531
:100110000175088106C0C005010980A10185031988
:10012000012AB700150126B700950175108100C09E
:10013000050C0901A101850419012AA00215012657
:10014000A002950175108100C005010906A1018575
:1001500006050719E029E7150025019508750181B5
:10016000020507190029EF1500250195F075018199
:10017000020508190129059505750191029501757A
:10018000039101C00660FF0961A101096215002603
:10019000FF009520750881020963150026FF009570
:1001A0002075089102C005010906A101050719E0A3
:1001B00029E715002501950875018102950175084B
:1001C00081010507190029FF150026FF0095067516
:1001D00008810005081901290515002501950575F7
:1001E000019102950175039101C00000000000001B
:1001F00000000000000000000000000000000000FF
:1002000000000000000000000000000000007E0F61
:1002100000D4FFFFFFC700000078000000000000CE
:1002200000002A2B28000000000000000000000051
:10023000000000000029000000002C1E34202122B4
:1002400024342627252E362D3738271E1F2021221D
:10025000232425263333362E37381F040506070896
:10026000090A0B0C0D0E0F10111213141516171886
:10027000191A1B1C1D2F3130232D350405060708C4
:10028000090A0B0C0D0E0F10111213141516171866
:10029000191A1B1C1D2F3130354C7267626C69674F
:1002A00068742064697361626C65205B45455052D7
:1002B0004F4D5D3A207267626C696768745F636F67
:1002C0006E6669672E656E61626C65203D202575DE
:1002D0000A007267626C6967687420656E61626C9F
:1002E00065205B454550524F4D5D3A207267626C08
:1002F000696768745F636F6E6669672E656E6162B9
:100300006C65203D2025750A007267626C6967681C
:100310007420746F67676C65205B454550524F4D84
:100320005D3A207267626C696768745F636F6E66BE
:1003300069672E656E61626C65203D2025750A0037
:1003400044454255473A2064697361626C65642E86
:100350000A0044454255473A20656E61626C656407
:100360002E0A004F6E6573686F743A20616374697A
:1003700076653A2025640A000A00253032582000AC
:100380006E6B726F5F7265706F72743A20253032D7
:1003900058207C20000A002530325820006B6579F7
:1003A000626F6172645F7265706F72743A2025309B
:1003B0003258207C20007267626C696768745F63E2
:1003C0006F6E6669672E7370656564203D202564D5
:1003D0000A007267626C696768745F636F6E666952
:1003E000672E76616C203D2025640A007267626C7E
:1003F000696768745F636F6E6669672E73617420E6
:100400003D2025640A007267626C696768745F63E7
:100410006F6E6669672E687565203D2025640A0049
:100420007267686C696768745F636F6E6669672E70
:100430006D6F6465203D2025640A007267626C69F7
:100440006768745F636F6E6669672E76656C6F634D
:10045000696B6579203D2025640A007267626C69CA
:100460006768745F636F6E6669672E656E61626C44
:1004700065203D2025640A007267626C69676874B4
:100480005F636F6E66696720454550524F4D3A0A6B
:10049000007267626C696768745F696E6974207264
:1004A00067626C696768745F636F6E6669672E6DFB
:1004B0006F6465203D20302E20577269746520647A
:1004C000656661756C742076616C75657320746FF8
:1004D00020454550524F4D2E0A007267626C696785
:1004E00068745F696E6974206565636F6E666967BD
:1004F000206973206E6F7420656E61626C65642E76
:100500000A007267626C696768745F696E6974205B
:100510007374617274210A007267626C696768742F
:100520005F696E69742063616C6C65642E0A007388
:10053000757370656E64696E67206B6579626F6153
:1005400072640D0A000A00253033326C62003A20D2
:100550000025303258000A722F6320303132333494
:1005600035363738394142434445463031323334E9
:1005700035363738394142434445460A00783C1EF7
:100580001E140A050A0025303258006C65645F7439
:1005900061736B3A20007267626C696768742073DC
:1005A0006574207370656564205B4E4F45455052FD
:1005B0004F4D5D3A2025750A007267626C69676865
:1005C0007420746F67676C65205B4E4F45455052D1
:1005D0004F4D5D3A207267626C696768745F636F44
:1005E0006E6669672E656E61626C65203D202575BB
:1005F0000A000001010101010101010102020202E0
:1006000002020202020303030303030303040404BC
:100610000404040405050505050606060606070785
:1006200007070708080808090909090A0A0A0B0B3D
:100630000B0C0C0C0D0D0D0E0E0E0F0F0F101011DC
:100640001111121213131414151516161717181862
:1006500019191A1A1B1B1C1D1D1E1E1F20202122CA
:1006600022232424252626272829292A2B2C2D2D10
:100670002E2F30313232333435363738393A3B3C2D
:100680003D3E3F404142434445464748494A4C4D20
:100690004E4F50515354555658595A5B5D5E5F61E9
:1006A0006264656668696B6C6D6F7072737577787C
:1006B0007A7B7D7E8082838587888A8C8E8F9193DA
:1006C0009596989A9C9EA0A2A3A5A7A9ABADAFB101
:1006D000B3B5B7BABCBEC0C2C4C6C9CBCDCFD1D4E6
:1006E000D6D8DBDDDFE2E4E7E9EBEEF0F3F5F8FA8C
:1006F000FDFF7267626C69676874206D6F646520C6
:100700005B4E4F454550524F4D5D3A2025750A00CE
:100710007267626C69676874206D6F6465205B4501
:100720004550524F4D5D3A2025750A007267626C44
:100730006967687420656E61626C65205B4E4F4529
:100740004550524F4D5D3A207267626C696768741C
:100750005F636F6E6669672E656E61626C65203DD2
:100760002025750A007267626C6967687420646985
:100770007361626C65205B4E4F454550524F4D5D35
:100780003A207267626C696768745F636F6E66694E
:10079000672E656E61626C65203D2025750A0072CA
:1007A00067626C696768742073657420687376206B
:1007B0005B4E4F454550524F4D5D3A2025752C25D7
:1007C000752C25750A007267626C696768742073FE
:1007D000657420687376205B454550524F4D5D3AF5
:1007E0002025752C25752C25750A007267626C69A9
:1007F000676874207261696E626F77207365742018
:100800006873763A2025642C25642C25642C257584
:100810000A00FFAA7F55407267626C69676874209E
:1008200074696D657220656E61626C65642E0A0084
:100830007267626C696768742074696D65722064A0
:10084000697361626C652E0A002223252628292AF5
:100850002C2D2F3032333536383A3B3D3E40424323
:100860004547494A4C4E5051535557595A5C5E6062
:1008700062646668696B6D6F71737577797B7D7F74
:1008800081838587898A8C8E90929496989A9C9E73
:100890009FA1A3A5A7A8AAACAEAFB1B3B4B6B8B98F
:1008A000BBBCBEBFC1C2C3C5C6C7C9CACBCCCDCEF7
:1008B000D0D1D2D2D3D4D5D6D7D7D8D9D9DADADBDA
:1008C000DBDBDCDCDCDCDCDDDDDDDDDCDCDCDCDC66
:1008D000DBDBDBDADAD9D9D8D7D7D6D5D4D3D2D2A5
:1008E000D1D0CECDCCCBCAC9C7C6C5C3C2C1BFBE8D
:1008F000BCBBB9B8B6B4B3B1AFAEACAAA8A7A5A3F8
:10090000A19F9E9C9A98969492908E8C8A898785B6
:1009100083817F7D7B79777573716F6D6B69686695
:100920006462605E5C5A5957555351504E4C4A4967
:1009300047454342403E3D3B3A3836353332302F0F
:100940002D2C2A29282625232229003A003B003C69
:10095000003D003E003F0040004100420043004493
:10096000004500680046004700480035001E001F93
:10097000002000210022002300240025002600275B
:10098000002D002E002A0049004A004B002B0014C5
:10099000001A000800150017001C0018000C0012B7
:1009A0000013002F00300031004C004D004E003984
:1009B0000004001600070009000A000B000D000EDD
:1009C000000F003300340028002A0000000000005F
:1009D00000E100E1001D001B0006001900050011E8
:1009E000001000360037003800E500E50000005236
:1009F000000000E000E300E200000000002C002CFA
:100A0000002C00000000000000E6002152E400502D
:100A10000051004F00010001000100010001000130
:100A200000010001000100010001000100010001BE
:100A300000010001000100010001000100010001AE
:100A4000000100010001000100010001000100019E
:100A500000010001000100007C0100010001000113
:100A6000000100010001000100010001000100017E
:100A7000000100010001000100010001000100016E
:100A8000000100010001000100010001000100015E
:100A90000001000100010000000000000001000151
:100AA000000100010001000100010001000100013E
:100AB0000001000100010001000000010000000130
:100AC0000001000100000000000100010001000021
:100AD0000000000000010001000100010001000110
:100AE00000010001000100010001000100010001FE
:100AF00000010001000100010001000100010001EE
:100B000000010001000100010001000100010001DD
:100B100000010001000100010001000100010001CD
:100B200000010001000100010001000100010001BD
:100B300000010001000100010001000100010001AD
:100B4000000100010001000100010001000100019D
:100B5000000100010001000100010001000100018D
:100B60000001000000000000000100010001000180
:100B7000000100010001000100010001000100016D
:100B8000000100010000000100000001000100015F
:100B90000000000000010001000100000000000052
:100BA000000100010001000100010001000100013D
:100BB000000100010001000100010001000100012D
:100BC000000100010001000100010001000100011D
:100BD000000100010001000100010001000100010D
:100BE00000010001000100010001000100010001FD
:100BF00000010001000100010001000100010001ED
:100C000000010001000100010001000100010001DC
:100C100000010001000100010001000100010001CC
:100C200000010001000100010001000100010000BD
:100C300000000000000100010001000100010001AE
:100C4000000100010001000100010001000100019C
:100C50000000000100000001000100010000000090
:100C6000000100010001000000000000000100017F
:100C7000000100010001000100290A002575002F74
:100C8000002575005D2800256400200025640020F3
:100C90000025640020002564007C002530325800C7
:100CA0006D6F7573656B6579205B62746E7C7820FF
:100CB00079207620685D287265702F61636C293A0F
:100CC000205B006164645F6B65795F6269743A20E0
:100CD00063616E2774206164643A20253032580ABB
:100CE0000064656C5F6B65795F6269743A2063616B
:100CF0006E27742064656C3A20253032580A005BF8
:100D0000435D005B445D005B535D005B575D005BD2
:100D1000525D0009027B00040100A0FA09040000F2
:100D2000010301010009211101000122440007050E
:100D300081030800010904010002030000000921E9
:100D4000110100012222000705820320000107058E
:100D5000030320000109040200010300000009212F
:100D60001101000122B600070584032000010904D7
:100D700003000203000000092111010001222200EA
:100D80000705850320000107050503200001120166
:100D90000002000000086D90050001000102000142
:100DA0001403700072006F006D006900730065002D
:100DB0003800370000000C037700750071007500E3
:100DC000650000000403090411241FBECFEFDAE020
:100DD000DEBFCDBF04B603FE18C08091EC02909137
:100DE000ED02A091EE02B091EF028730904BA74048
:100DF000B04B59F41092EC021092ED021092EE02F8
:100E00001092EF02E0E0F8E3099511E0A0E0B1E014
:100E1000E2EDFCE502C005900D92AE38B107D9F7BE
:100E200022E0AEE8B1E001C01D92AC3EB207E1F7AE
:100E30000E94F2250C94002E0C940000FF93EF9377
:100E4000E0918E01F0918F01309709F00995EF91B3
:100E5000FF910895FC018591803011F0EFDFFBCF09
:100E60000895FF27E0E230E247FF0CC0419597FF6D
:100E700009C0EDE26095709580959095611D711D9A
:100E8000811D911D27FF02C0219530E350E2AA2762
:100E9000660F771F881F991FAA1FA41710F0A41BA5
:100EA00063955A95A9F7AA3008F0A95FA05DAF93A2
:100EB000F395611571058105910541F7ED3211F446
:100EC000EF93F395F21718F43F93F395FBCF8F91BF
:100ED000B5DFFA95E1F70895E991F99185918030B0
:100EE00021F0853219F0AADFF9CF089520E0E894C7
:100EF00055915532C1F3503311F4689455915A33DA
:100F000048F4505390F3220F022E220F220F200D8F
:100F1000250FF4CF0EF4219589919991533619F349
:100F2000533729F1533559F1BC0188279927E894A3
:100F30005C3621F48991999168945591543639F42D
:100F400046EF7EF077FF0DC08FEF9FEF0AC0553759
:100F50004AE039F0583540E121F0523642E009F0DC
:100F60000895FF93EF937DDFEF91FF91B7CFFF934C
:100F7000EF93FC0181918030B9F360DFFBCFFF93E9
:100F8000EF9368DFF1CFDF93CF93CDB7DEB7259630
:100F9000A3DFCF91DF910895482F2091E80290912F
:100FA000AF0257E0291302C080E0089530E0529F5D
:100FB000F001539FF00D1124E055FD4F818168131E
:100FC00006C08081481303C085818111EECF2F5F59
:100FD0003F4F2770E7CFE8EDF0E080818E7F808380
:100FE0001092E2001092DA001092E100A0EEB0E060
:100FF0008C9181608C9380818F77808319BCA7ED61
:10100000B0E08C918E7F8C9380818F7E8083109254
:10101000980208952091E4003091E50095E6A90139
:101020002091EC00822F817020FF06C08091E800A3
:1010300080FF06C080E008952091E80022FD1AC0DC
:101040008091A502882389F0853089F08091EB009A
:1010500085FD0FC02091E4003091E5004217530751
:10106000F9F29150E1F684E0089582E0089583E07A
:10107000089581E008958091A70287FF13C08091B1
:10108000E80082FF06C08091E8008B778093E8003B
:1010900004C08091A5028111F2CF08958091A5022C
:1010A0008823D9F38091E80080FFF8CF8091E80091
:1010B0008E77ECCF982F9093E900242F762F50E075
:1010C000891731F07091EC002091ED005091F00003
:1010D00021FD07C09F5F973071F78093E90081E0A1
:1010E00008953091EB003E7F3093EB003091ED009E
:1010F0003D7F3093ED003091EB0031603093EB0099
:101100007093EC002093ED005093F0002091EE00DE
:1011100027FDE0CF80E00895B0E0A0E0E2E9F8E04C
:101120000C942B2DC8EDD0E088818F7E8883E7ED6D
:10113000F0E080818160808384E082BF81E08093E1
:10114000980288818E7F888302EE10E0F801108279
:101150001092DA0081EEC82ED12CF601108288811F
:101160008F77888388818068888388818F7D888352
:1011700019BC1092A5021092A6021092A40210921D
:10118000A30290EEE92EF12CF70180818B7F808302
:1011900088818160888342E060E080E00E945A0894
:1011A000F60180818E7F8083F80180818160808359
:1011B000808188608083F70180818E7F8083888131
:1011C00080618883CDB7DEB7E8E00C94472DFC0141
:1011D0008091AD029091AE0286179707A0F061153D
:1011E000710529F49091E8009E779093E80090E0D3
:1011F0006115710551F4911108C08091E80082FFDA
:1012000034C080E00895BC01F2CF8091A50288230C
:10121000C1F18530C1F18091E80083FD30C080913B
:10122000E80082FDEACF8091E80080FFE1CF809165
:10123000F3002091F200382F6115710519F0283064
:10124000310558F091E02830310509F090E0209107
:10125000E8002E772093E800CBCF81918093F100B6
:10126000615071092F5F3F4FE7CF8091A50288231E
:1012700041F0853041F08091E80083FFBECF81E0EE
:10128000089582E0089583E0089580919A02089578
:101290009C014FB7F8948091910290919202A09195
:1012A0009302B09194024FBF821B930B08952FB706
:1012B000F8948091910290919202A0919302B09142
:1012C00094022FBF0895A3E0B0E0E9E6F9E00C94A2
:1012D000312D20918B0230918C0228173907A1F013
:1012E00090938C0280938B02E0918902F0918A02A4
:1012F000309751F024E029839B838A830084F18511
:10130000E02DCE01019609952396E2E00C944D2D37
:10131000A3E0B0E0EEE8F9E00C94312D20918702D3
:101320003091880228173907A1F0909388028093A2
:101330008702E0918902F0918A02309751F023E010
:1013400029839B838A830084F185E02DCE01019659
:1013500009952396E2E00C944D2DE0918902F091DD
:101360008A02309729F00190F081E02D09950895C7
:1013700080E0089580917B0280FD16C081FD16C03B
:1013800082FD16C080917A028823A1F0883280F411
:1013900028E0829FC001112468E270E00E94002DC5
:1013A000862F672B39F0089582E0089584E0089530
:1013B00088E0089581E0089580917B0280FD14C04B
:1013C00081FD14C082FD16C080917C02882381F0CB
:1013D0008E3180F420E5829FC00111246EE170E01F
:1013E0000E94002D862F089584E1089588E20895D3
:1013F00088E0089580E50895282F35EB2303C00188
:10140000112497FF04C080589109892F08958058AE
:101410009F4FFBCFFA01811101C0FB01099508958F
:10142000089580917202982F9C7F61F4837084608C
:101430008093720280917502893C18F088EC809349
:10144000750208958C34B0F383708864F1CFAF9245
:10145000BF92DF92EF92FF920F931F93CF93DF9390
:10146000082F162FE901E42FF0E0EE50FA4F61113A
:1014700010C0E4915E2F4E2F4983E8835A83DF9199
:10148000CF911F910F91FF90EF90DF90BF90AF90A1
:101490000895E62EF12C4491D42EE42FF0E026E0BE
:1014A000829FC00111242FEF30E0B9010E94EC2C83
:1014B000802F90E0880F991F55E5569FD001579FC8
:1014C000B00D11248A1B9B0B982F990F890F59017E
:1014D000AE18BF08AE9ED001AF9EB00DBE9EB00D3F
:1014E00011245B2F189F80011124012F112759010E
:1014F000A01AB10AAE9E8001AF9E100DBE9E100DC7
:1015000011245901A81AB108AE9CC001AF9C900DDE
:10151000BE9C900D1124892F9927281B390B2E9FD3
:10152000C0012F9F900D3E9F900D1124E92F623036
:101530007105A1F050F46115710509F49DCF61307A
:10154000710581F0EB2F512F97CF6430710569F051
:1015500080F06630710509F48FCFF4CFE42F4B2F64
:10156000592F8ACFE42F412F87CFEB2F542F492FAC
:1015700083CF4B2F5D2DE12F7FCFF894E82FE2959D
:10158000EF70F0E031A1282F2F7081E090E001C0D2
:10159000880F2A95EAF7982F9095932391A392A10B
:1015A000892B82A37894089590918E0292FF10C0A7
:1015B00041E0282F2471243009F040E031E0282F49
:1015C0002871283009F030E0431711F02CE0822711
:1015D00093FF10C041E0282F2471243109F040E02E
:1015E00031E0282F2871283109F030E0431711F03D
:1015F0002CE0822730918F0230FF10C051E0282F5D
:101600002171213009F050E041E0282F2871283065
:1016100009F040E0541711F029E0822731FF10C093
:1016200041E0282F2171213109F040E031E0282FDD
:101630002871283109F030E0431711F029E08227A2
:1016400094FD877E089582389105B9F1B0F4813315
:10165000910509F47DC048F48932910509F46DC003
:101660008A32910509F47BC008958533910509F408
:101670005FC08933910509F10895833E9105D9F141
:1016800038F4803E910529F1823E910579F1089563
:10169000863E9105D9F1873E910509F43EC0843E0E
:1016A000910541F520918F0221FF24C080918E0287
:1016B00084FD19C087EE90E0089520918E0223707A
:1016C00009F05AC020918F0223FF14C089E290E0F4
:1016D000089520918E0220FD38C030918F0230FF96
:1016E00009C024FF43C090E080E0089520918E025D
:1016F00022FDF7CF089520918E0222FD3AC030914D
:101700008F0230FD39C024FFF5CFEDCF20918E023E
:1017100023FFF0CF24FDE7CFCDCF20918E0223FD14
:101720002EC030918F0231FFEECF84EE90E008950D
:1017300020918E0225FFDECFC9CF20918E0225FD9C
:1017400021C020918F0223FFD5CF89E390E0D2CF33
:1017500020918E0226FFCECF8AE290E0089520915C
:101760008E0226FFC7CF81E390E0089583EE90E0DC
:10177000089582EE90E0089580EE90E0089586EE60
:1017800090E0089585E390E008951F93CF93DF9351
:101790000E94230BEC01C11580E5D807F0F5C115B7
:1017A00080E4D80708F09CC0C03ED10520F5CD3CB0
:1017B000D10508F082C0C83AD10578F4C53AD10500
:1017C00008F073C0C130D10519F1209709F1C43078
:1017D000D105F0F4D0E0C0E01BC0C33CD105D0F788
:1017E000C85AD0E0CC0FDD1FC75EDE4F0990D8810C
:1017F000C02DD4640DC0C11580E2D80708F0D1C057
:10180000C11581E0D80708F05AC0C83ED10510F7CD
:10181000CE01DF91CF911F910895C03682E5D807A0
:1018200018F5C03482E5D80708F06BC0C03282E5F5
:10183000D80708F05FC0C11582E5D80708F497C043
:101840002C2F2695269580E2289F900111248C2F1D
:101850008370C1E0D0E002C0CC0FDD1F8A95E2F7B3
:10186000C22BD32BDD68D4CFC03A82E5D80760F411
:10187000C03882E5D80708F459C0CF71D0E0DC2F1A
:10188000CC27C46FD06AC4CFC03C82E5D80708F427
:1018900062C0C03E82E5D80708F09CCFDC2FCC2781
:1018A000CC27DF71C06FD06AB3CFC55AD0E0CA5E13
:1018B000DE4FC881D0E0D064ABCFD065A9CF8D2FEB
:1018C0000E94D40A182FCE0199270E94230BC12F02
:1018D000D0E0DC2FCC27CC27DF71C82BD92B98CFB9
:1018E000CE0199270E94230BCC27DF70C82BD92B60
:1018F000D06A8ECFCF71D0E0DC2FCC27C16FD06AF9
:1019000087CF2C2F26952695277080E2289F90015F
:1019100011248C2F8370C1E0D0E002C0CC0FDD1FFA
:101920008A95E2F7C22BD32BDC6872CF2C2F269539
:101930002695277080E2289F900111248C2F8370B8
:10194000C1E0D0E002C0CC0FDD1F8A95E2F7C22BC8
:10195000D32BDA685DCF8C2F8F710E94D40AC82FE9
:10196000D0E0DC2FCC27CC27DF71D06251CF8C2F79
:101970008F710E94D40A55E0D695C7955A95E1F724
:10198000CF70D0E0DC2FCC27282F30E084FF05C0BB
:1019900044E0220F331F4A95E1F7C22BD32BD069C5
:1019A00037CF8D2F8F710E94D40A182FCE0199271F
:1019B0000E94230BC12FD0E0DC2FCC27CC27DF7176
:1019C000C82BD92BD2CF8095909113029823909356
:1019D00013020895809113029091EA01892B90914E
:1019E000E901992391F0892B90911501992371F0C8
:1019F00090918E0297FF0AC09EE12AE931E040E013
:101A0000915040F441111092E901089596E022E9C5
:101A100031E0F5CFF90151919F01552389F34F5FD3
:101A2000EFCF8091E8029091AF02981301C0089522
:101A30008F5F8770FACF292F963078F5813168F55E
:101A400090E031E1239F800D911D1124682F677074
:101A500023E0969587952A95E1F7FC01EE0FFF1F8D
:101A6000E80FF91FE654FE4F50E040E080E021917E
:101A700030E0062E02C0369527950A94E2F72170D1
:101A80003327042E01C0220F0A94EAF7822B4F5FFE
:101A90005F4F4330510559F7089580E00895292F8D
:101AA000963098F5813188F590E031E1239F800DE3
:101AB000911D1124282F277041E001C0440F2A9561
:101AC000EAF723E0969587952A95E1F7FC01EE0F5A
:101AD000FF1FE80FF91FE654FE4F30E020E070E0F2
:101AE0005191DF011197CB01022E02C09695879587
:101AF0000A94E2F7817081958527842385278C934A
:101B00002F5F3F4F2330310559F7089580933202FC
:101B100008959091320221E030E0F90101C0EE0F0A
:101B20008A95EAF7D90102C0AA0FBB1F6A95E2F7AE
:101B3000EA2B01C0220F4A95EAF7892F8E23E8137A
:101B400005C0292B822F0E94860D089520952923F8
:101B5000F9CF21E030E001C0220F8A95EAF7209505
:101B60008091320282230E94860D08959091E801AF
:101B7000809589238093E801282F277069F48917BD
:101B800059F090918F0292FF07C0869586958695B1
:101B90000E94A90D1092E801089521E030E001C0F3
:101BA000220F8A95EAF780913202822B0E94860DDD
:101BB000089580931402089581FD03C08E9A81E0F8
:101BC00008958E98FCCF829590E09C01220F331FE0
:101BD000220F331F2C7C9595879595958795837358
:101BE000282B30E0C901880F991F8A7A35952795EF
:101BF0002575822B08959FB7F894109296029FBF87
:101C00009091A502943009F048C02091E9002F700E
:101C10003091EC00932F917030FD90E8922B25E0ED
:101C20002093E9002091EB0020FF34C02091EE00CA
:101C300027FF30C020919502222321F02091E80057
:101C400025FF28C01092950226E03091E80035FF6C
:101C500014C08093F1008091E80085FD27C0809139
:101C6000E80080FFFCCF8091E8008E778093E80049
:101C70009F709093E90080E008953091A502343080
:101C800049F43091EB0035FD05C0215041F481E06D
:101C9000809395029F709093E9008FEF0895EFE98C
:101CA000FFE03197F1F700C00000CFCF8FB7F89475
:101CB00021E0209396028FBFDBCF0F931F93CF932A
:101CC000DF938B01EA019091A502943061F5809336
:101CD000E9008FEF9091E800815095FD06C095EDE9
:101CE0009A95F1F700008111F5CF8091E80085FF0A
:101CF0001AC00E940A08811111C08091E80085FD78
:101D000006C08091E8008E778093E800F2CFF8015A
:101D100081918F018093F100219779F78091E800FC
:101D20008E778093E800DF91CF911F910F910895F6
:101D300043E050E0BC0184E00E945D0E089546E05F
:101D400050E0BC0184E00E945D0E089540E250E046
:101D5000BC0184E00E945D0E0895CF93DF93EC01F7
:101D600048E050E0BC0181E00E945D0E88E0FE0189
:101D7000ABE9B2E001900D928A95E1F7DF91CF9146
:101D8000089581E08093E00080E28093D800109273
:101D9000C9008FE19EE40197F1F700C0000087E0E1
:101DA00090EBDC018093EC029093ED02A093EE02A5
:101DB000B093EF0288E19CE00FB6F894A895809369
:101DC00060000FBE90936000FFCF8091720280FD93
:101DD00006C0109268021092670210926902529A2D
:101DE0003BB13B7F2BB124604FB7F89487E692E07C
:101DF000FC015191CF0168E02BB9000000C057FFF2
:101E00003BB9550F000000C000C000C03BB900C086
:101E10006A9591F7F2E08A369F0751F74FBF8FE539
:101E200094E00197F1F700C00000089590917202CC
:101E300090FF08C080936802609367024093690234
:101E40000E94E50E0895A3E0B0E0E9E2FFE00C9403
:101E5000312D9091720290FF0DC0493C08F048EC82
:101E60009E012F5F3F4F0E94270A4B8169818A8123
:101E70000E94160F2396E2E00C944D2DCF93DF9332
:101E8000EC01E2E7F2E0438162818C810E94230F42
:101E90008C818F5F8C83DF91CF910895CF93DF93F7
:101EA000EC01EC81F0E0E75BF74F4491E2E7F2E010
:101EB000628181810E94230F8C818F5F8C83DF91EF
:101EC000CF91089590911501992359F190918E0227
:101ED00097FF27C0E82FE695E695E695EE3180F46A
:101EE000F0E0E856FE4F282F277081E090E001C017
:101EF000880F2A95EAF78095928189238283089535
:101F000090918D0290FF19C01F928F9381EE9CE0FB
:101F10009F938F930E94C3070F900F900F900F9085
:101F20000895E2E9F1E09191891303C0DF0111976F
:101F30001C9291E0E839F907B1F7089590911501E5
:101F4000992349F190918E0297FF25C0E82FE695DD
:101F5000E695E695EE3170F4F0E0E856FE4F8770B6
:101F600021E030E001C0220F8A95EAF78281822BBE
:101F70008283089590918D0290FF1EC01F928F93CF
:101F800083EC9CE09F938F930E94C3070F900F9068
:101F90000F900F900895A2E9B1E0EFEF90E02D913E
:101FA000821751F0EF3F19F4211101C0E92F9F5F13
:101FB0009630A9F7EF3F09F408950E2E000CFF0BA1
:101FC000E057FE4FD5CF80918D0283FF7EC080EA1F
:101FD0009CE00E942A07809182021F928F938BE9D6
:101FE0009CE09F938F930E94C30789E99CE00E9425
:101FF0002A0780918302282F082E000C330B3F9371
:102000008F9386E99CE09F938F930E94C30784E996
:102010009CE00E942A0780918402282F082E000C41
:10202000330B3F938F9381E99CE09F938F930E94A2
:10203000C3078FE89CE00E942A0780918502282F21
:10204000082E000C330B3F938F938CE89CE09F93FA
:102050008F930E94C3078AE89CE00E942A07809120
:102060008602282F082E000C330B3F938F9387E8AE
:102070009CE09F938F930E94C30784E89CE00E949A
:102080002A0780917C021F928F9381E89CE09F93A6
:102090008F930E94C3078FE79CE00E942A078091DC
:1020A0007B021F928F938CE79CE09F938F930E94FB
:1020B000C30789E79CE00E942A078DB79EB74C961C
:1020C0000FB6F8949EBF0FBE8DBF0E9457099C01AA
:1020D0009091830280918402982B21F030938002AA
:1020E00020937F029091850280918602982B21F0A7
:1020F00030937E0220937D02E0918902F0918A0262
:10210000309749F082E0809381020680F781E02DCC
:1021100081E892E0099508954091830290918502AB
:1021200020918602662309F469C0942B922B20919A
:102130008402922B31F098E090937C0291E090938E
:102140007A028D3C41F40E94DC09819580938402DF
:102150000E94E30F08958E3C19F40E94DC09F6CF2B
:102160008F3C31F40E94DC09819580938302F0CF8B
:10217000803D19F40E94DC09F8CF893D29F40E94C2
:10218000BA0980938502E4CF8A3D21F40E94BA09FE
:102190008195F7CF8B3D31F40E94BA0981958093E8
:1021A0008602D6CF8C3D19F40E94BA09F8CF9FE27F
:1021B000980F983070F4815D990B21E030E001C0F8
:1021C000220F8A95EAF780918202822B8093820205
:1021D000BFCF8D3D31F480917B02816080937B0283
:1021E000B7CF8E3D21F480917B028260F7CF8F3D87
:1021F00009F0AECF80917B028460F0CF8D3C59F422
:102200008091840287FF0DC01092840241110BC09F
:1022100010927C0208C08E3C81F4809184021816D2
:102220009CF3442381F08091850290918602892B52
:1022300009F08ECF10927A028BCF8F3C49F447FF82
:10224000F0CF10928302809184028111ECCFE0CF15
:10225000803D19F41416ACF3E4CF893D29F4191626
:1022600004F710928502DDCF8A3D19F497FFD9CF8C
:10227000F8CF8B3D29F427FFD4CF10928602D1CF1F
:102280008C3D19F41216CCF3CCCF9FE2980F983006
:1022900090F4815D990B21E030E0B90102C0660F36
:1022A000771F8A95E2F7CB0180959091820289236E
:1022B00080938202B6CF8D3D31F480917B028E7F78
:1022C00080937B02AECF8E3D21F480917B028D7F87
:1022D000F7CF8F3D09F0A5CF80917B028B7FF0CFA8
:1022E0001092710280918D0280FF08C080E398E017
:1022F0009F938F930E94C3070F900F900895809132
:1023000072028E7F8093720280918D0280FF0CC0DA
:102310001F921F9285E697E09F938F930E94C307B9
:102320000F900F900F900F900E9470110E94E50E79
:102330000895CF93C82F6FEF811164E285E290E09A
:102340000E94B22DC1110DC0CFEF6C2F86E290E03C
:102350000E94B22D6C2F87E290E00E94B22DCF91A7
:102360000895C2E0F2CFCF93DF93C9E5D3E060E0F8
:10237000CE010E94B22D2196C11584E0D807B9F78D
:10238000DF91CF9108951F93CF93DF93122F843065
:10239000E0F46630D0F44131C0F4C42FD0E0CC0F6B
:1023A000DD1F92E2699FC00DD11D11249CEC899F15
:1023B000C00DD11D1124632FCE0189960E94B22D2C
:1023C000612FCE018A960E94B22DDF91CF911F918D
:1023D0000895AF92BF92CF92DF92EF92FF921F9338
:1023E000CF93DF9389E4C82E89E0D82ED0E0760120
:1023F000C0E014C0F50125913491412F6C2F8D2F31
:102400000E94C31182E0A80EB11C1F5F113191F729
:1024100082E2E80EF11CCF5FC63019F0570110E0E0
:10242000E9CFDF5F8CECC80ED11CD43001F7DF910F
:10243000CF911F91FF90EF90DF90CF90BF90AF9022
:10244000089580E00E94991160E088E290E00E9487
:10245000B22D0E94E9110E94B31181E00E949911EE
:10246000089585E290E00E948E2D843289F486E200
:1024700090E00E948E2D823059F487E290E00E9415
:102480008E2D91E0823009F090E0892F81700895BF
:1024900080E0FCCF0F931F93CF93DF93843030F510
:1024A000663020F5413110F5C42FD0E0CC0FDD1F90
:1024B00022E2629FC00DD11D11243CEC839FC00D10
:1024C000D11D1124CE0189960E948E2D082F10E077
:1024D000102F0027CE018A960E948E2D9801282B5E
:1024E000C901DF91CF911F910F91089590E080E095
:1024F000F8CF462F763040F4613130F4843020F448
:10250000672F0E944A12089590E080E00895CF92CC
:10251000DF92FF920F931F93CF93DF936C01009193
:10252000320280911402082BC3E0D0E010E0FC2EB0
:10253000C8010C2E02C0959587950A94E2F780FD9C
:102540000CC02197A0F7F12C8F2DDF91CF911F9117
:102550000F91FF90DF90CF900895B6018C2F0E94CD
:1025600079120E94C50B019761F3EECFCF93DF93F1
:10257000EC010E948712BE010E9479120E94C50BD5
:10258000DF91CF910895FC0124812223C1F0808145
:1025900091810E94B61292959F70963091F058F4F6
:1025A000925F9F70923058F4803F19F030F4883E6B
:1025B00030F481E008959A5FF4CF843FD1F380E056
:1025C0000895883EB0F3813FD1F7F3CFA6E0B0E0A5
:1025D000ECEEF2E10C94302D49835A8349815A8103
:1025E0009923A1F0222391F0CA010E948712182F8B
:1025F000682F89819A810E944F0D69817A81812F8C
:102600000E9479122696E3E00C944C2DCA010E9498
:102610001B0D182FF2CF609172026695669570E0DF
:102620004BE050E08AE091E00E94E62D892B19F4FE
:1026300081E0809371020E94570990936B0280930E
:102640006A0280918D0280FF08C087E198E09F9325
:102650008F930E94C3070F900F900895B0E0A0E001
:10266000E4E3F3E10C94272D49015A016B017C014D
:102670000E94110A8401A4016A2D7B2D88E090E05C
:102680000E94C42D94014A2D5B2DB601C70100E2C2
:102690000E94732D622F84E290E00E94B22DCDB78C
:1026A000DEB7ECE00C94432DA3E0B0E0EAE5F3E103
:1026B0000C942D2D082FF62E142FE22E90917202DD
:1026C00090FF50C0892F86958695E82FF0E0EA5953
:1026D000FE4F2081209370029C7F943009F046C009
:1026E000493C08F048EC9E012F5F3F4F6F2D802F33
:1026F0000E94270A4B8169818A810E94160F0093EC
:102700007302F092740210937502EE2009F468C00F
:10271000209172026091760270917702302F4F2DD6
:10272000512F80917802909179020E942E1380910E
:102730008D0280FF17C0809175021F928F93809148
:1027400074021F928F93809173021F928F9386EC75
:1027500097E09F938F930E94C3070FB6F894DEBF54
:102760000FBECDBF2396E6E00C94492D223019F41C
:1027700010917502C4CF263019F400917302BFCFB7
:10278000293009F0BCCF8950E82FE695F0E0EE5EE5
:10279000F74FE49190918D0290FF15C01F92EF9337
:1027A000809581701F928F931F920F931F921F929B
:1027B0008BEE97E09F938F930E94C3070FB6F89418
:1027C000DEBF0FBECDBF412F193C08F048EC27E615
:1027D00032E06F2D802F0E94270A0E94E50E8FCFD6
:1027E00080918D0280FFBECF1F921F931F92FF9298
:1027F0001F920F938FE997E0ACCFE2E7F2E04381BD
:1028000028E0421B08F440E021E0628181810E94BF
:1028100054130895E2E7F2E0438128E0420F08F400
:102820004FEF21E0628181810E9454130895E2E715
:10283000F2E0628128E0621B08F460E021E043815D
:1028400081810E9454130895E2E7F2E0628128E05A
:10285000620F08F46FEF21E0438181810E945413DD
:102860000895E2E7F2E0818121E0438162818850AE
:102870000E9454130895E2E7F2E0818121E0438150
:102880006281885F0E9454130895809176028823A4
:1028900019F0815080937602209172023091730278
:1028A00040917402509175026091760270917702A6
:1028B00080917802909179020E942E130895809160
:1028C0007602833018F48F5F809376022091720233
:1028D00030917302409174025091750260917602BA
:1028E0007091770280917802909179020E942E1364
:1028F00008959091720290FF4AC09370811148C070
:1029000094609093720220917202662309F448C089
:102910003091730240917402509175026091760279
:102920007091770280917802909179020E942E1323
:1029300080918D0280FF10C08091720286958695ED
:102940001F928F9380E197E09F938F930E94C3071C
:102950000F900F900F900F906091720266956695A0
:1029600070E04BE050E08AE091E00E94E62D892B78
:1029700011F10E94701181E080936D0220E040917E
:10298000750260917402809173020E94541308953D
:10299000833110F09864B5CF880F880F982BB1CF92
:1029A00080918D0280FFD8CF269526951F922F9378
:1029B00082EF96E0C9CF0E940B13DDCF80917202A7
:1029C00081608093720280918D0280FF0DC01F9202
:1029D00081E08F938CE297E09F938F930E94C307CF
:1029E0000F900F900F900F908091720260E086958B
:1029F00086950E9479140895809172028695869535
:102A0000815009F482E161E00E9479140895809177
:102A10007202869586958F5F833108F081E061E0D0
:102A20000E94791408959091720290FF09C09695C2
:102A30009695981728F0961718F40E940715089590
:102A400061E00E9479140895E2E7F2E085E0808376
:102A500011828FEF828388EC83831482758125E055
:102A600030E04FEF58EC60E0868197810E942E1392
:102A70000895CF93C82F80918F0282FB992790F9F8
:102A80009C17F9F0C0FB82F980938F0260918E024F
:102A900070918F0284E090E00E94D02D82E00E942D
:102AA000B60D80918D0280FF0CC01F92CF9383E6FC
:102AB00093E09F938F930E94C3070F900F900F9006
:102AC0000F90CF91089590E080E00E949C2D863E6B
:102AD0009E4F19F40E943112089580E00895EF92FC
:102AE000FF920F931F93CF93DF938091150188235B
:102AF00009F464C080918E0287FF60C00E94EA0CD6
:102B00008093990140E250E06BEE71E088E991E03A
:102B10000E94F32D892B09F44CC080E2E8E9F1E032
:102B2000ABEEB1E001900D928A95E1F7E091890258
:102B3000F0918A023097E9F186E080939801048051
:102B4000F581E02D88E991E0099580918D0282FF61
:102B500030C080FF0EC0809199011F928F9380E852
:102B600093E09F938F930E94C3070F900F900F9055
:102B70000F90C8E9D1E00AE713E080918D0280FF51
:102B80000BC08A811F928F931F930F930E94C307DC
:102B90000F900F900F900F90219681E0C63BD807C1
:102BA00061F780918D0280FF04C088E793E00E9466
:102BB0002A07CDB7DEB7E6E00C94492D0E94EA0C57
:102BC0008093900148E050E06BE072E080E991E092
:102BD0000E94F32D892B69F388E0E0E9F1E0ABE096
:102BE000B2E001900D928A95E1F7E0918902F091AF
:102BF0008A023097F1F20280F381E02D80E991E0C2
:102C0000099580918D0282FFD4CF80FF0EC0809104
:102C100090011F928F938DE993E09F938F930E9471
:102C2000C3070F900F900F900F90C0E9D1E086E995
:102C3000E82E81E0F82E07E913E080918D0280FFF5
:102C40000BC08A811F928F931F930F930E94C3071B
:102C50000F900F900F900F902196EC16FD0669F7DC
:102C600080918D0280FFA5CF85E993E0A0CF1092DF
:102C7000130280911501882339F180918E0287FF1C
:102C800023C0EAE9F1E08EE1DF011D928A95E9F7C0
:102C900090E080E00E94880990E080E00E94630953
:102CA0001092EA010E946F1586E0E1E8F2E0DF0190
:102CB0001D928A95E9F710927C0210927A02109286
:102CC0007B020E94E30F0895E2E9F1E086E0DCCFA9
:102CD000AAE2B0E0EEE6F6E10C94302D87EA92E04D
:102CE0002091F100DC012D93CD01B2E08F3A9B07DA
:102CF000B9F78091A802833009F472C0B8F481302A
:102D000009F449C0823009F4B3C08091E80083FF20
:102D100091C28091A7029091A8029A3008F08AC2CD
:102D2000E92FF0E0EE5FF14D0C94142D8A3009F498
:102D30008EC08B3009F471C0893039F78091A702B9
:102D4000813219F78091AB029091AC02009711F09B
:102D50000297D9F68091E800877F8093E800809100
:102D6000E80082FF38C09091F3008091F200029752
:102D700031F48091F100813011F0863021F480919E
:102D8000F10080939A028091E8008B778093E800AD
:102D90000E943B08BACF8091A702813A09F0B5CFD3
:102DA0008091E800877F8093E8008091AB0290914A
:102DB000AC02892B61F468E08BE992E070E00E943C
:102DC000E7088091E8008B778093E8009ECF60E071
:102DD00090E080E0F3CF8091A5028111C0CF95CF24
:102DE0008091A702813A09F090CF8091AB02909137
:102DF000AC02892B09F089CF8091E800877F80930E
:102E0000E8008091E80080FFFCCF8091150180935D
:102E1000F1008091E8008E77B9CF8091A7028132CE
:102E200009F073CF8091AB029091AC02892B09F02D
:102E30006CCF8091E800877F8093E8000E943B0878
:102E40008091A902809315010E9437165ECF809170
:102E5000A702813209F059CF8091E800877F8093E3
:102E6000E8000E943B088091AA02809399024DCF0E
:102E70008091A702813A09F048CF8091E800877FCE
:102E80008093E8008091E80080FFFCCF8091990258
:102E9000BECF803899F0823809F0CCC18091AB0266
:102EA0008F70873008F0C6C18093E9008091EB00F5
:102EB00085FB882780F91092E90006C08091A30263
:102EC0009091A402911182609091E800977F909375
:102ED000E8008093F1001092F1008091E8008E7775
:102EE000A5C1882309F493C1823009F0A3C1809160
:102EF000A902811196C18091AB028F702FEF280F2C
:102F0000263008F097C18093E9002091EB0020FF64
:102F100088C1933031F48091EB0080628093EB00A4
:102F200080C19091EB0090619093EB0021E030E044
:102F300001C0220F8A95EAF72093EA001092EA0076
:102F40008091EB008860EACF811174C11091A902D1
:102F50001F778091E3008078812B8093E30080913C
:102F6000E800877F8093E8000E943B088091E8009A
:102F700080FFFCCF8091E30080688093E30082E0D3
:102F8000111183E08093A50255C18058823008F06A
:102F900051C12091A9023091AA022C3DE3E03E07E5
:102FA000A1F583E08A838AE289834FB7F894DE0132
:102FB000139620E03EE051E2E32FF0E050935700FB
:102FC000E49120FF03C0E295EF703F5FEF708E2F1A
:102FD00090E0EA30C0F0C7968D939D932F5F243127
:102FE00059F74FBF8091E800877F8093E8006AE23D
:102FF00070E0CE0101960E94E7088091E8008B778F
:103000008093E80017C1C096E7CF8091AB02909102
:10301000AC02432F55274330510509F44AC078F5D7
:103020004130510509F47AC08BE790E0E3E1FDE01F
:103030004230510509F0FEC02091E800277F20931F
:10304000E8002091AD023091AE028217930708F498
:103050009C0140E02115310509F065C0411163C0B4
:103060008091E80082FDC9CF8091A502882329F2D2
:10307000853019F28091E80083FFF2CFBECF413254
:10308000510509F43CC04232510509F0D3C08430E7
:10309000910508F0CFC0FC01EE0FFF1FE358FE4F73
:1030A0000190F081E02D87589E4FDC018C9190E0DB
:1030B0001AC0332721303105D1F02115310561F0D7
:1030C0002230310509F0B6C0E0EAFDE0E4918E2F30
:1030D00090E0E0EAFDE007C0E4ECFDE0E4918E2F33
:1030E00090E0E4ECFDE0009709F4A4C0A5CFE6EB86
:1030F000FDE0E4918E2F90E0E6EBFDE0F4CF84302C
:10310000910508F097C0880F991FFC01EB57FE4FFF
:103110000190F081E02D89E090E08ECF82E190E097
:10312000EEE8FDE089CF8091A502882309F465CF00
:10313000853009F462CF8091E80083FD5ECF8091F5
:10314000E80082FD8DCF8091E80080FF83CF9091D1
:10315000F3008091F2002115310519F088309105B6
:1031600050F041E0089709F040E08091E8008E7748
:103170008093E8006FCF44914093F1003196215045
:1031800031090196E8CF803809F054C08091E800F9
:10319000877F8093E8008091A6028093F1009DCE06
:1031A000811148C01091A902123008F043C08091EB
:1031B000E800877F8093E8001093A6020E943B08F6
:1031C000112311F084E005C08091E30087FDFACF60
:1031D00081E08093A50242E061EC81E00E945A0800
:1031E00042E261EC84E00E945A0842E261EC82E033
:1031F0000E945A0842E260EC83E00E945A0842E2D0
:1032000061EC85E00E945A088091A50213C080916C
:10321000A902813079F481E0933009F080E0809355
:10322000A4021092E9008091E800877F8093E80073
:103230000E943B088091E80083FF0AC08091E8006B
:10324000877F8093E8008091EB0080628093EB00A1
:10325000AA96E3E00C944C2D0E9437162FEF84E3DE
:103260009CE0215080409040E1F700C0000088E1E0
:103270009CE00FB6F894A895809360000FBE9093E1
:103280006000FFCF882321F00E94E30C0E946F159D
:103290000895882339F090911302982B909313028C
:1032A0000E946F150895882381F19CEF980F913A41
:1032B00028F40E94620F0E946F15089590E2980F03
:1032C000983050F4877091E001C0990F8A95EAF721
:1032D000892F0E94E30CEFCF9BE5980F933028F4E1
:1032E00090E080E00E948809089598E5980F9B314E
:1032F00028F490E080E00E946309089593E3980F1A
:10330000933118F460E00E948C100895CF93C82F79
:103310008823B1F18CEF8C0F813AA0F580911501D3
:10332000882301F180918E0287FF1CC0EC2FE69567
:10333000E695E695F0E0E856FE4F828190E04C2F4E
:10334000477021E030E002C0220F331F4A95E2F7B8
:1033500082239323892B79F08C2F0E94620F0E9485
:103360006F1509C0E2E9F1E08191C817A9F381E086
:10337000E839F807C9F78C2F0E949E0F0E946F153D
:10338000CF91089580E28C0F883068F4C77021E0F7
:1033900030E001C0220FCA95EAF780911302822B18
:1033A00080931302EBCFEBE5EC0FE33040F4F0E059
:1033B000EA5EFE4F808190E00E948809E1CFE8E557
:1033C000EC0FEB3150F4F0E0EE0FFF1FE75EFE4F25
:1033D000808191810E946309D3CF83E38C0F833175
:1033E00078F661E08C2F0E948C10CACF1F93CF9388
:1033F000DF93182FD0E0C0E0893311F4C0E5D0E0AE
:10340000812F0E948619209739F4812F0E94531929
:10341000DF91CF911F9108958FE99FE00197F1F718
:1034200000C000002197EFCF0F931F93CF93DF933E
:10343000C62FD42F022FFC0185818823A9F0609329
:10344000EB020E9457099093EA028093E902C77049
:1034500081E001C0880FCA95EAF70E944919DF91FF
:10346000CF911F910F9108958091EB02681332C0A4
:103470008091E9029091EA020E944809883C9105F6
:1034800048F510E21D0FCD17B9F080E28C0F88309F
:1034900040F4C77081E001C0880FCA95EAF70E9426
:1034A0004219183048F481E09D2F977001C0880FB1
:1034B0009A95EAF70E944919802F0E94F619183050
:1034C00070F6D77081E001C0880FDA95EAF70E94A4
:1034D0004219C5CFC77081E001C0880FCA95EAF7CD
:1034E000F6CFA8E0B0E0E7E7FAE10C94232D8C01D9
:1034F000DC0114968C911497882309F4B7C021E05D
:103500004C9111965C91119712966C9112971396AB
:103510007C91139715969C910E94E6127C01F8010C
:103520008581882309F43BC1C701975780389105ED
:1035300008F0D5C5FFE0FE1508F489C08FEF93E0D1
:103540000E948E2D811183C069E5A62E63E0B62E00
:10355000E11047C0FE01339686E0DF011D928A9597
:10356000E9F75AE0452E7501BFEFEB1AFB0AC501DA
:103570000E948E2D89831A82882309F468C08130C5
:1035800009F078C06501E2E0CE0ED11CC7010E94AF
:103590008E2D8A83882309F45AC09FEF980F9330A9
:1035A00070F5F3E0AF0EB11CC6010E948E2D8B8327
:1035B000882309F44CC01C82DE0111967D01F701BD
:1035C0002081222381F2213009F094C091818281EF
:1035D000913009F051C0F2E0EF0EF11C0E94F61993
:1035E00052C0A11424E0B20691F1C5010E948E2DB3
:1035F000811101C0EA943FEFA31AB30AA9CF560183
:103600008430D1F642E0E42EF12C56012FEFA21ABD
:10361000B20AC6010E948E2DE1E0F0E0EC0FFD1F22
:10362000EE0DFF1D8083882391F08C3741F4E2E09A
:10363000F0E0EC0FFD1FEE0DFF1D1082BDCF3FEF40
:10364000E31AF30A650187E0E816F104F1F68091C8
:10365000E801877059F0F8018581882339F080915D
:103660008F0282FF03C082E00E94B60D2896E0E13F
:103670000C943F2D5701A0CF923049F422E0E20E86
:10368000F11C0E948619EFEFEE1AFE0A98CF9330D4
:1036900031F432E0E30EF11C0E945319F4CF943060
:1036A00021F08FEFE81AF80AEECF92E0E90EF11C54
:1036B00030E020E0B7016F5F7F4FD70111964C914A
:1036C0008053990B8A30910550F021503109D8F27E
:1036D000EFE9FFE03197F1F700C00000F6CF429E1E
:1036E000F001439EF00D11249C012E0F3F1F842FEB
:1036F0007B01E0CFE22FF0E0E65EFD4F5490822F99
:1037000086958695869590E0FC01E65FFD4F649076
:103710002770712C022E02C0759467940A94E2F708
:1037200031E063227724FC01E650FE4F8490912C17
:10373000022E02C0959487940A94E2F7A1E08A22AF
:103740009924FC01E651FE4FC490D12C02C0D594BF
:10375000C7942A95E2F7B1E0CB22DD24611471040D
:1037600019F081EE0E9486198114910419F086EEF9
:103770000E948619852D0E94F6198114910419F072
:1037800086EE0E9453196114710419F081EE0E94B3
:103790005319C114D10409F476CF8CE21FCFF7017D
:1037A000E851FC47E730F10508F085C4E45FF14DCE
:1037B0000C94142D26E241EE61EEC8010E94141A09
:1037C00046CF27E245EE65EEF8CF26E241EE60EE09
:1037D000F4CF27E245EE64EEF0CF26E241EE62EE52
:1037E000ECCF27E245EE66EEE8CF28E241E0EBCFF2
:1037F00080918E02816080938E0295C080918F02AD
:10380000886080938F028FC080918E028260F3CF98
:1038100080918E028460EFCF80918E028860EBCF22
:1038200080918F028160EDCF80918F028260E9CF1D
:1038300080918E028061DFCF80918E028062DBCF2B
:1038400080918E028064D7CF0E94371680918E02BD
:103850008068D1CF80918E028C60CDCF80918F0215
:103860008360CFCF80918E028E7FC5CF80918F02F3
:10387000877FC7CF80918E028D7FBDCF80918E02D2
:103880008B7FB9CF80918E02877FB5CF80918F02D9
:103890008E7FB7CF80918F028D7FB3CF80918E02C4
:1038A0008F7EA9CF80918E028F7DA5CF80918E02D1
:1038B0008F7BA1CF0E94371680918E028F779BCF8E
:1038C00080918E02837F97CF80918F028C7F99CFDA
:1038D00080918E0282FB992790F921E0922790FB3C
:1038E00082F990FB83F987CF80918F02982F909572
:1038F00091708E7F892B90FB81F983CF90918E02FE
:10390000892F8F7B96FF806476CF0E943716909127
:103910008E02892F97FB87F980586DCF61E08EE08A
:1039200090E00E94B22D60918E0270918F0284E02F
:1039300090E00E94D02D0E94371689CE60E0EFCF34
:1039400090918E02892F8F7E94FF806154CF909149
:103950008E02892F8E7F90FF81604DCF90918F02D4
:10396000892F877F93FF88604CCF85E39FC3809129
:10397000B801811104C089E20E94620F99C385E3F6
:10398000FBCFF7E7EF16FCE7FF0609F055C381E030
:103990000E94CD0D43E062E081E00E94890D57CE88
:1039A00080918D0280FF10C080917202809581709D
:1039B0001F928F9389E093E09F938F930E94C30798
:1039C0000F900F900F900F902091720220FF2BC04C
:1039D0002E7F2093720230917302409174025091B5
:1039E00075026091760270917702809178029091D1
:1039F00079020E942E1380918D0280FF0FC080916A
:103A0000720281701F928F938AE992E09F938F9345
:103A10000E94C3070F900F900F900F900E9470119B
:103A20000E94E50E14CE21602093720280918D02D7
:103A300080FF0DC01F9281E08F9382ED92E09F93F3
:103A40008F930E94C3070F900F900F900F9080915B
:103A5000720261E0869586950E947914F8CD4CEF4C
:103A600054E167E075E10E940A0AF1CD47E055E1B3
:103A70006CEF74E1F8CF41E354E16BE374E1F3CF11
:103A80004BE354E161E374E1EECF47E154E164E2DA
:103A900074E1E9CF44E254E167E174E1E4CF4DEF32
:103AA00053E16AE074E1DFCF4AE054E16DEF73E186
:103AB000DACF45E454E16FE574E1D5CF4FE554E149
:103AC00065E474E1D0CF61E081E0C6CF65E082E0DB
:103AD0000E941315BCCD68E086E0FACF62E189E070
:103AE000F7CF27E7E2162CE7F20609F459C038E7CA
:103AF000E3163CE7F30609F457C0D80115968C91FC
:103B00001597ED90FC90882309F488C0C7010E94A6
:103B10008712D82E682FC7010E944F0DB7018D2D37
:103B20000E9479120E94C50B7C01882EF801A580A5
:103B3000968092943FE093228091E801877009F18A
:103B4000CA2CAA20F9F08F2D807F803469F080E2A2
:103B50008E0D8830B0F08F2D807E803229F4F1E018
:103B6000FE1578F4992069F080918F0282FF09C0D8
:103B700082E00E94B60D8091E8018770CC24C39446
:103B80008111C12CBF2CB2942FE0B2222BE02B1557
:103B900008F4ADC0EB2DF0E0ED5EF14D0C94142D6A
:103BA00081E00E94A90DF6CE82E0FBCFFBE5EF1687
:103BB000FCE7FF0689F12CE5E2162CE7F20611F18D
:103BC0003AE5E3163CE7F30609F097CF81E021C020
:103BD00090918D02892F8E7F90FF816080938D025E
:103BE00080FF05C082E593E00E942A0730CD80E483
:103BF00093E0FACF6FEF7FEF90E080E00E94D02D4E
:103C00000E942C1980918F0282FB882780F991E015
:103C100089270E94391571CF80E0FBCFC7010E9430
:103C20001B0DD82E7BCF3F2D3F70D32E8F2D807F45
:103C300019F0D29490EFD922AA20B9F0DD2069F0D2
:103C400080E28E0D883010F0811009C0809113023F
:103C5000D82AD09213020E946F158E2D46C08091F3
:103C6000EA01D82AD092EA01F6CF8E2D0E9453198C
:103C7000DD20E9F180E28E0D883010F0811004C063
:103C80008D2D0E94E30C06C0D0948091EA01D822C9
:103C9000D092EA010E946F152AC08F2D8F70D82E06
:103CA0008F2D807F803219F0D29480EFD822882027
:103CB00059F091E0891609F484C0AA2009F490C053
:103CC000992009F452C0C9CF80918F0282FD49C06A
:103CD000AA2009F440C0DD2039F080911302D82ACF
:103CE000D09213020E946F1580E00E948619AB2DBE
:103CF000A850BB0B149720F40E94AD090E94DC0D64
:103D0000CC20A9F08091E80180FD11C0F801158256
:103D10008695869586950E94CD0DC8010E94711AE0
:103D20008091E8018695869586950E94A90D20E0F0
:103D3000D8014C9111965C91119712966C91129743
:103D400013967C91139714968C91149715969C91C9
:103D50000E94E6128BCC80E00E945319DD2039F2DC
:103D60008FCFAA20A1F0911004C08D2D0E94491977
:103D7000BECFA1E09A12BBCF8091E9019D2D98237F
:103D8000D91609F4B4CFD82AD092E901B0CF911056
:103D9000AECF8D2D0E9442199091E9018D2D89237E
:103DA00029F08D2D809589238093E9018091B901B7
:103DB0009D2D982309F49BCFD094D822D092B9019D
:103DC00096CFAA2029F0B5E0B91508F490CFCDCF51
:103DD000E4E0E91508F48BCF8D2D0E94421987CFBE
:103DE0009920D1F3F9E38F1209C02FEF37EE83E06A
:103DF000215030408040E1F700C000008E2D0E942D
:103E0000531975CF8F2D86958695837061F081301B
:103E100009F06DCFC7019370A11002C080E090E05F
:103E20000E94630964CFC7019370A11002C080E0B3
:103E300090E00E9488095BCF6A2D8E2D0E948C1025
:103E400056CF8F2D837091F5A11051CF4E2D4295F5
:103E500046954770440F440F8E2D8F70042E01C07D
:103E6000880F0A94EAF72E2D2071E4FE07C02FE098
:103E700030E001C0220F4A95EAF720953F2D369594
:103E800036953370323069F050F44091140231307D
:103E900029F0822B84230E94D90D29CF842B822BD9
:103EA000FACF282B809114028227F5CF8695AA207D
:103EB00011F08F2D8170882309F419CF4E2D429572
:103EC00046954770440F440F8E2D8F70042E01C00D
:103ED000880F0A94EAF72E2D2071E4FE07C02FE028
:103EE00030E001C0220F4A95EAF720953F2D369524
:103EF00036953370323069F050F4409132023130EF
:103F000029F0822B84230E94860DF1CE842B822BF4
:103F1000FACF282B809132028227F5CF9F2D9F70F8
:103F2000F92EAA2029F0892F0E94CD0D8E2D1ECFAB
:103F30008E2D0E9442198F2D0E94A90DD8CE8E2D54
:103F4000A2EF8A16B1F1A81570F0B0EF8B16D1F080
:103F5000E1EF8E1691F0AA2009F45EC091107DCE9B
:103F60008F2D8F712AC0F3EF8F1651F124EF82123B
:103F7000F2CF80918F0282FD2FC08F2D8F71AA20EA
:103F8000D9F21BC0AA2081F034E0391508F4AFCE75
:103F90002F2D2F7181E090E001C0880F2A95EAF75C
:103FA000909132028927AFCF85E0891508F49FCE22
:103FB000EFCF8F2D8F71A110BFCF0E94CD0D97CE67
:103FC00080E0AA2009F49FCF9F2D9F7181E001C05E
:103FD000880F9A95EAF797CFAA2099F09F2D9F71A5
:103FE000F92E892F0E94CD0D80918F0282FF07C08C
:103FF000A8E0FA9EC001112483608093E8018F2D10
:10400000DCCF81E00E94B60DB1E0B91508F06FCEAB
:1040100082E00E94B60D6BCE992059F0893309F0E9
:10402000EDCEEFEFF7EE23E0E150F0402040E1F776
:10403000E3CE8F2D8F7180CF82E0B8E7EB16BCE71F
:10404000FB0609F4A5CC83E0E8168CE7F80609F432
:10405000D1CD08F0ABCDA1E0EA16ACE7FA0609F441
:10406000CFCD08F0B5CDE114ECE7FE0609F045CD63
:104070000E9437168FEF94E3ACE081509040A0404F
:10408000E1F700C000000E94C10EE6E1EE16ECE789
:10409000FE0609F076CC809113028A7A91E009F449
:1040A00090E09093B801811160CC89E20E949E0F4C
:1040B0000E946F15CCCAF6E1EF16FCE7FF0609F483
:1040C00056CC809113028272F701E052F847E53135
:1040D000F10508F006CDE15EF14D0C94142DF701C9
:1040E000E851FC47E730F10508F460CB1092EB0291
:1040F000C7019057839748F684E090E00E949C2D7A
:1041000090938F0280938E02F701E150F047E232E4
:10411000F10508F06DCBEC5CF14D0C94142DCF93B0
:10412000DF938091E701807F09F04DC08091E60127
:10413000882309F448C0E091E8025091AF02C09191
:10414000E201D091E1016091E3017091E40147E067
:104150005E17C9F18E2F90E0E49FF0011124E05525
:10416000FD4F2481222391F1489FF001499FF00DDA
:104170001124DF01A055BD4F11962C9111972C13DE
:1041800025C02C912D1322C015962C911597211125
:104190001DC012962D913C91261B370B283C3105F2
:1041A000A8F48091E7018F7080618093E701EA5461
:1041B000FD4F80818F708061808381EE91E00E944D
:1041C000711A0E94110DDF91CF910895FC01319673
:1041D000E770BECFA4E1B0E0E0EFF0E20C94272D51
:1041E0008C0186E0F801DE011F9601900D928A9500
:1041F000E1F7F8018481E58091EEA92E91E0B92ED6
:104200009091E501911128C0882319F1EE20F1F079
:10421000C8010E94C312F82E8823C1F087E0F8017C
:10422000D50101900D928A95E1F78091E5018130E9
:1042300031F48091E1019091E2010E94B6120E9456
:104240008F208F2D6496ECE00C94432DC8010E94C2
:10425000711AFF24F394F5CFD080C18082809380BF
:10426000F090E6012091E3013091E401A401421BAA
:10427000530BFF2009F4D9C0483C510508F092C007
:104280008823F9F29091E2018091E701282F207FA5
:1042900009F056C0C91214C09091E101D91210C0A2
:1042A000E11048C08F7080618093E70181EE91E05A
:1042B0000E94711A8091E701F8018683F12CC1CF29
:1042C000E11038C06C2D8D2D0E94CC076C2D8D2DEA
:1042D0000E94CC07E82E8111F1CFDF86C88A8F8536
:1042E00098890E94B612292F22952F70243058F4F5
:1042F0009F70223088F0992399F0F8019681907F81
:1043000079F4FE2C9ECF2A5F2F70223068F0C8010E
:104310000E94711AEF2CF5CF992311F0882389F3AD
:10432000805E883070F3F3CF803F58F3815F833035
:1043300070F7E7CF8091E70181608093E701BECFFE
:10434000C91207C09091E101D91203C0EE2009F40F
:104350008DC0C8010E94C312882309F477CFEE20D4
:1043600009F474CF8091E701803288F02091E10157
:104370003091E201398728879B868A869091E501F2
:104380009C871D868E87CE0108960E94711A87E051
:10439000F801A1EEB1E001900D928A95E1F70E943B
:1043A0008F2057CF9091E701292F207F51F481EE84
:1043B00091E00E94711A87E0F50111928A95E9F760
:1043C0007DCF882309F43DCF8091E2018C1110C08C
:1043D0008091E101D8120CC0E1100AC09683C80197
:1043E0000E94711A87E0F50111928A95E9F729CFA9
:1043F000C8010E94C312882309F428CFEE2009F4D3
:1044000025CF8091E701803210F22091E1013091B7
:10441000E2013A8329839C828B829091E5019D83FE
:104420001E828F83CE010196B0CF483C5105D0F655
:10443000882309F40ECFFE2CEE2009F407CF8091DB
:10444000E2018C1120C08091E101D8121CC0809142
:10445000E70180FD0FC0982F907F61F08683903F29
:1044600031F0982F907F905F8F70892B8683C801E1
:104470000E94711A87E0F801A1EEB1E001900D925F
:104480008A95E1F7DECEC8010E94C31281117FCF69
:104490008091E70181608093E701C8010E94711A51
:1044A000D0CEABE1B0E0E7E5F2E20C942F2D4E8BDD
:1044B0005F8B688F798F8A8F9B8F192F9111109244
:1044C000EA011D8A86E0FE017696DE011F960190C4
:1044D0000D928A95E1F70A8D002341F021E04F8586
:1044E000588969897A89C8010E94E6120B8B1C8B56
:1044F00087E0FE013F96DE01189601900D928A95A5
:10450000E1F7CE0108960E94EA2081112AC087E0D7
:10451000FE013896DE01119601900D928A95E1F721
:104520008C858823F1F02091AF0230E0C90101961B
:10453000877099274091E80248171906E9F097E03B
:10454000929FD001939FB00D1124A055BD4FFE0145
:10455000319601900D929A95E1F78093AF020E94F7
:10456000110D17E08091E8029091AF02891312C0FB
:104570006B96E4E00C944B2D0E9437161092AF021C
:104580001092E80287E0E1EEF1E0DF011D928A95EA
:10459000E9F7E7CF819FC001112480559D4F0E940C
:1045A000EA20882329F38091E80290E00196877041
:1045B00099278093E802D6CFA6E0B0E0E2EEF2E2DF
:1045C0000C942F2D0E9457098C0180911502909117
:1045D00016028017910781F019821A820E945709EA
:1045E000682F49815A81792F80E090E00E94512202
:1045F00010931602009315022696E4E00C944B2DBE
:10460000A8E1B0E0E6E0F3E20C94212D8E010F5F0B
:104610001F4F88E1F80111928A95E9F79FE4E92E8E
:1046200091E0F92E680125E5222E21E0322EAA2400
:10463000A394B12C46E6842E41E0942EF70181919B
:104640007F018F3F09F44FC0F894E82FE295EF7097
:10465000F0E021A18F70A50102C0440F551F8A957B
:10466000E2F7CA01922F982B91A392A180958923FA
:1046700082A3789400C0E5E5F1E041E050E060E01D
:1046800070E0412C512C320121912F3F09F452C08E
:10469000A22FA295AF70B0E090968C9190E02F7011
:1046A00002C0959587952A95E2F780FD43C0DB010E
:1046B000CA01482A592A6A2A7B2A440F551F661FB5
:1046C000771F8E169F0601F7F701319780818F3F84
:1046D00011F00E94BD0A50EA5A95F1F7F6014082A6
:1046E000518262827382F4E0CF0ED11C2E143F04FB
:1046F00009F0A4CF48E150E0B8018AE192E00E94BD
:10470000F32D892BE9F088E1F801AAE1B2E00190EC
:104710000D928A95E1F781E0809319020E94570972
:10472000909318028093170210E0812F6896E2E1BF
:104730000C943D2D80E090E0DC01BBCF10E01FC069
:1047400010911902112381F38091170290911802A0
:104750000E944809059740F348E150E06AE172E0A1
:104760008FE492E00E94F32D892B41F388E1EAE186
:10477000F2E0AFE4B2E001900D928A95E1F7109279
:104780001902D3CFA8E0B0E0E8ECF3E20C94312DAD
:1047900066EE7EEF90E080E00E94D02D60E082E047
:1047A00090E00E94B22D81E08093140261E083E0EA
:1047B00090E00E94B22D60E074E184E090E00E94FD
:1047C000D02D60E086E090E00E94B22D6FEF87E090
:1047D00090E00E94B22D40E050E0BA0188E090E005
:1047E0000E94C42D60E084E290E00E94B22D60E05F
:1047F00087E190E00E94B22D60E08CE090E00E94A2
:10480000B22D60E08DE090E00E94B22D19821A82F4
:104810001B821C821D821E821F82188648E050E087
:1048200068E170E0CE0101960E94A22D40E050E0C8
:10483000BA0180E290E00E94C42D80E00E949911AC
:104840000E94211240E050E0BA018FE090E00E9407
:10485000C42D40E050E0BA0183E190E00E94C42DF5
:104860002896E2E00C944D2D1F920F920FB60F92F6
:1048700011242F933F934F935F936F937F938F9365
:104880009F93AF93BF93CF93DF93EF93FF93D09119
:10489000E900DF708091EC00C82FC17080FDC0E896
:1048A0001092E9008091F000877F8093F000789467
:1048B0000E9468161092E9008091F0008860809351
:1048C000F000CD2BCF70C093E900FF91EF91DF9105
:1048D000CF91BF91AF919F918F917F916F915F9198
:1048E0004F913F912F910F900FBE0F901F901895F1
:1048F0001F920F920FB60F9211242F933F934F9355
:104900005F936F937F938F939F93AF93BF93EF9337
:10491000FF938091E10082FF15C08091E20082FF49
:1049200011C08091E1008B7F8093E100209197027C
:104930002F5F822F62E30E94E02C992309F4C0C00C
:10494000209397028091DA0080FF28C08091D800E0
:1049500080FF24C08091DA008E7F8093DA008091FE
:10496000D90080FFE3C080E189BD82E189BD09B43F
:1049700000FEFDCF81E08093A5028FEF9CE00E94B6
:104980002A0780919802811109C00E94EB070E94BA
:104990008C088091E20084608093E2008091E100C5
:1049A00080FF1BC08091E20080FF17C08091E20071
:1049B0008E7F8093E2008091E20080618093E2002C
:1049C0008091D80080628093D80019BC85E08093E4
:1049D000A50287E09DE00E942A078091E10084FF04
:1049E0002FC08091E20084FF2BC080E189BD82E16D
:1049F00089BD89B5982F917080FFFBCF8091D80039
:104A00008F7D8093D8008091E1008F7E8093E100BC
:104A10008091E2008F7E8093E2008091E2008160CD
:104A20008093E2008091A602882309F489C084E083
:104A30008093A5028BE09DE00E942A078091A50249
:104A40008091E10083FF2BC08091E20083FF27C0AB
:104A50008091E100877F8093E10082E08093A5024E
:104A60001092A6028091E1008E7F8093E1008091F8
:104A7000E2008E7F8093E2008091E200806180936B
:104A8000E20042E060E080E00E945A088091F0007D
:104A900088608093F0008FE09DE00E942A07FF91DC
:104AA000EF91BF91AF919F918F917F916F915F91A6
:104AB0004F913F912F910F900FBE0F901F9018951F
:104AC0001092970280919602882309F43BCF80913F
:104AD000A5028430C1F49091E9009F702091EC0010
:104AE000822F817020FD80E8892B95E09093E9006A
:104AF0009091EB0090FF04C09091EE0097FD08C0EC
:104B00008F708093E900109296021CCF1092F100F2
:104B10009091E80095FDFACF9091E80090FFF0CFDA
:104B20009091E8009E779093E800EACF19BC10922C
:104B3000A50283E09DE00E942A07109298022ECFE2
:104B40008091E30087FD93E09093A50273CF789462
:104B50001F921FB61F9211248F939F93AF93BF9301
:104B60008091910290919202A0919302B09194024F
:104B70000196A11DB11D8093910290939202A09382
:104B80009302B0939402BF91AF919F918F911F9028
:104B90001FBE1F9018951F921FB61F9211248F934E
:104BA0009F93AF93BF9380919002811113C0809126
:104BB000910290919202A0919302B0919402419639
:104BC000A11DB11D8093910290939202A093930234
:104BD000B0939402BF91AF919F918F911F901FBE90
:104BE0001F901895CDB7DEB7A9970FB6F894DEBF22
:104BF0000FBECDBF85B7806885BF85B7806885BF8C
:104C000084B7877F84BF0FB6F894A8958091600021
:104C1000886180936000109260000FBE80E890E091
:104C20000FB6F89480936100909361000FBE8BEFF4
:104C30009DE090938F0180938E010E94EB070E946C
:104C40008C088091E20084608093E20078948091E7
:104C5000A5028823A1F01091E9001F709091EC004B
:104C6000892F817090FD80E8182B1092E9008091C7
:104C7000E80083FD0E9468161F701093E90082E02F
:104C800084BD93E095BD9AEF97BD80936E000E941E
:104C90003112811102C00E9421120FE411E025E5BA
:104CA000E22E21E0F22ED8018D918D018F3F11F07F
:104CB0000E94BD0AE016F106B1F705E511E0F80122
:104CC00081918F018F3F11F00E94BD0AF1E00636FD
:104CD0001F07A9F788E1EFE4F2E0DF01282F1D921A
:104CE0002A95E9F7EAE1F2E0DF011D928A95E9F7FA
:104CF0000E946315811102C00E94C22382E090E0ED
:104D00000E948E2D80938D0284E090E00E949C2D65
:104D100090938F0280938E020E940023BFEFE6E7FC
:104D2000F1E0B150E040F040E1F700C000000E9427
:104D3000002380914F0280FF08C06FEF7FEF90E06B
:104D400080E00E94D02D0E94C10E83E090E00E947E
:104D50008E2D0E94D90D869A8E9A809133028111F0
:104D600034C180918D0280FF14C088E195E09F934B
:104D70008F930E94C30780918D020F900F9080FF48
:104D800008C082E095E09F938F930E94C3070F9025
:104D90000F900E946315811110C080918D0280FFD9
:104DA00008C08AED94E09F938F930E94C3070F90F1
:104DB0000F900E94C2230E94241588E090E00E9478
:104DC000962D4B015C0184E290E00E948E2D282FED
:104DD00030E040E050E060E070E080E090E000E231
:104DE0000E94582D282939294A295B2920937202CB
:104DF000309373024093740250937502609376026D
:104E00007093770280937802909379022C7FF1F56A
:104E100080918D0280FF08C081E994E09F938F9379
:104E20000E94C3070F900F900E94241588E090E025
:104E30000E94962D6B017C0184E290E00E948E2DF1
:104E4000282F30E040E050E060E070E080E090E04B
:104E500000E20E94582DB22FA32FF42FE52F5B0103
:104E600097018601BC29A12BFE29E32BB093720286
:104E7000A0937302F0937402E0937502609376023C
:104E8000B092770280937802909379020E94110A7F
:104E900080918D0280FF8BC088E794E09F938F9371
:104EA0000E94C30780918D020F900F9080FF7FC0FA
:104EB0008091720281701F928F938BE594E09F9393
:104EC0008F930E94C30780918D020F900F900F90D7
:104ED0000F9080FF6CC080917202869581701F9246
:104EE0008F938BE394E09F938F930E94C3078091ED
:104EF0008D020F900F900F900F9080FF58C08091FF
:104F00007202869586951F928F9380E294E09F931C
:104F10008F930E94C30780918D020F900F900F9086
:104F20000F9080FF44C0809173021F928F9386E0A0
:104F300094E09F938F930E94C30780918D020F90FE
:104F40000F900F900F9080FF32C0809174021F92DB
:104F50008F938CEE93E09F938F930E94C307809171
:104F60008D020F900F900F900F9080FF20C08091C6
:104F700075021F928F9382ED93E09F938F930E940F
:104F8000C30780918D020F900F900F900F9080FFBC
:104F90000EC0809176021F928F9386EB93E09F93D1
:104FA0008F930E94C3070F900F900F900F90109255
:104FB00071028091720280FF05C060E0869586953F
:104FC0000E94791481E08093330280E091E0909315
:104FD0008A02809389028091A502853001F5809133
:104FE0008D0280FF04C08FE295E00E942A07FF2413
:104FF000F39400E112E18091A502853009F491C09B
:105000000E9437160E94AD090E94DC0D10923502F5
:105010008091340281110E94DE140E940B130E94C1
:10502000002396E3292E92E0392EAFE4B2E0B9A72F
:10503000A8A7F10101911191219131914D915D91BB
:105040006D917D918EE492E08E179F0709F4BCC0AC
:10505000041715072607370769F380918D0281FD34
:1050600036C210E0A8A5B9A5CD90DD90ED90FD90D9
:10507000B9A7A8A7F10181909190A190B1901F01CB
:105080008C149D04AE04BF04E1F100E0412C512CCE
:10509000320143948C249D24AE24BF24D501C40145
:1050A00084219521A621B721892B8A2B8B2BE1F016
:1050B00009A31AA30E9457099CA38BA3F1E0FDA3A7
:1050C00091E0B701A6014421552166217721452BA6
:1050D000462B472B09F490E09EA349A15AA16BA14E
:1050E0007CA18DA10E9451220F5F440C551C661CAF
:1050F000771C013199F6F1013497C082D182E282A6
:10510000F3821F5F163009F0ADCF8FB7F89440914E
:1051100091025091920260919302709194028FBF1C
:105120005BC08091A502843009F436C080E00E9403
:10513000DC0D0E94701180913502811109C0F0923E
:105140003502809172028170809334020E947F1137
:105150001092900288E190E0A0E40FB6F894A89530
:10516000809360000FBEA093600083B7817F84604E
:1051700083BF83B7816083BF7894889583B78E7F20
:1051800083BF0FB6F894A8958091600088618093E2
:105190006000109260000FBE8091A402882309F481
:1051A0002ACF0E940023EFE4F2E081919191A19136
:1051B000B191892B8A2B8B2B09F0D4C387E692E01F
:1051C0008E179F0791F717CF041715072607370784
:1051D00009F043CF0E94DC22809171028823D9F12B
:1051E00080917002E0917202E695E695E81BE093EB
:1051F0006C02823009F0C8C1F0E0E058FA4FE49147
:105200000E2F10E07EE4E72E7FE0F72E80916D02F6
:10521000882361F010926D020E94570990936B02EF
:1052200080936A0210926F0210926E020E945709D8
:10523000E0916A02F0916B028E1B9F0B8F3F9F479C
:1052400050F40E0F1F1F10936B0200936A028AE640
:1052500092E0F701099586E0E1E8F2E0DE011196BF
:1052600001900D928A95E1F7D0908202109183020D
:1052700000918402E0908502F090860210928302F1
:10528000109284021092850210928602812F802B48
:1052900009F445C080917F02909180020E944809E4
:1052A0009C0190917C02992309F485C32531310535
:1052B000B0F19F3F19F09F5F90937C02112359F04A
:1052C0000E94DC099FEF11160CF491E0899F802D5C
:1052D000112480938302002359F00E94DC0991E09D
:1052E00010160CF09FEF899F802D1124809384026B
:1052F00080918302882399F0C0908402CC2079F0B9
:105300000E94FC09882309F453C1809383028C2DE9
:105310000E94FC09882309F44DC1809384028E2DDC
:105320008F2909F445C080917D0290917E020E94F0
:1053300048099C0190917A02992309F437C32135D9
:105340003105B0F19F3F19F09F5F90937A02EE20F4
:1053500059F00E94BA099FEF1E140CF491E0899F46
:10536000802D112480938502FF2059F00E94BA09F4
:1053700091E01F140CF09FEF899F802D11248093E2
:10538000860280918502882399F0E0908602EE20C3
:1053900079F00E94FC09882309F40EC180938502EC
:1053A0008E2D0E94FC09882309F408C1809386028F
:1053B00080918202D81217C080918302882311F055
:1053C000181311C020918402222311F002130BC084
:1053D00090918602992311F09F1105C030918502AA
:1053E000332309F4D5C20E94E30F86E0FE01319613
:1053F000A1E8B2E001900D928A95E1F70E94AD0913
:10540000182F80914E02181791F110934E028FB70A
:10541000F8944091910250919202609193027091A0
:1054200094028FBF80918D0282FF1EC080FF1CC03E
:105430008BE895E00E942A0780918D0280FF14C0BE
:105440001F921F9386E895E09F938F930E94C30756
:1054500080918D020F900F900F900F9080FF04C0ED
:1054600084E895E00E942A07812F0E94DC0D80913C
:10547000A502843009F0AFCD83E08093E9008091EC
:10548000E80082FFA8CD8091E80090E085FF0CC085
:105490000E940A0840E2E42EF12C8E010F5F1F4F9C
:1054A000882309F497C091E08091E8008B7780937E
:1054B000E800992309F48FCD8981EFEFE80FE331FC
:1054C00008F0A1C0F0E0EA5AF14D0C94142D86E5E5
:1054D00095E00E942A071FE4C12E12E0D12EF12C84
:1054E000E12C01E5A02E05E0B02E87E4882E85E0B2
:1054F000982EFF92EF92BF92AF920E94C3078EE464
:1055000095E00E942A07D6014D905D906D907D90A8
:105510006D01842D0E94E30D082F852D0E94E30D5F
:10552000182F230166247724842D0E94E30D8FA376
:10553000852D0E94E30D502F412F70E060E0BA01ED
:1055400055274427BFA19B2FB0E0A0E0842B952BCB
:10555000A62BB72BBF93AF939F938F939F928F925E
:105560000E94C30785E495E00E942A07EFEFEE1A38
:10557000FE0A0FB6F894DEBF0FBECDBF96E0E91667
:10558000F10409F0B6CF6DCD00ED17E050E1E52E46
:105590005AE0F52E863009F039CEF0E0E358FA4FA4
:1055A000E4910E2F10E06EE3E62E6FE0F62E2ECE85
:1055B00081E0ABCE81E0B1CE81E0F0CE81E0F6CEED
:1055C0008091F100D8018D938D01B1E0EB1AF108C3
:1055D00009F469CF8091E80085FDF2CF8091E80061
:1055E0008B778093E8000E940A08882399F35BCFA9
:1055F0001A828CE08B8324C08A81823009F4CDC169
:1056000028F4813061F08FEF89831AC0833009F16B
:105610008430C9F71B821C821D821E8211C02FB7E5
:10562000F89460919102709192028091930290910E
:1056300094022FBF0E941A2D6B837C838D839E83DF
:1056400040E250E0BE016F5F7F4F82E00E945D0E3E
:10565000C2CC2B81822F90E0FE013196275F8630ED
:10566000910570F7DC01AA0FBB1FAA0FBB1FA15B3E
:10567000BD4F3C9111964C91119712965C915383BA
:1056800044833583019633962813E9CFD9CF8A8195
:105690008230F1F0853009F0B6CF80918D0280FF25
:1056A00010C080917202809581701F928F9389EB58
:1056B00095E09F938F930E94C3070F900F900F90D8
:1056C0000F908091720280FF0EC00E947F11B8CFB0
:1056D0006B817C818D819E810E941A2D88E290E0F1
:1056E0000E94B22DADCF0E94DE14AACF4C816B81F7
:1056F0008A810E944A129827892798279E838D8342
:105700009FCF2D813E813227232732274C816B8109
:105710008A810E94C31194CF0E94E91191CF9A818E
:10572000923009F070CF883009F446C0893009F40E
:105730006FC08B81823009F1A8F4813009F080CFED
:105740008C81E8EC8E9FC00111246FEF70E00E9405
:10575000EC2C462F20E060917402809173020E942D
:1057600054136ECF8330A1F0843009F069CF20E06C
:10577000409175026D818C81F2CF8C81882309F470
:10578000A4CF0E94DE1460E08C810E94791458CF6F
:105790008C818093760290918D0290FF51CF1F9261
:1057A0008F9386E995E09F938F930E94C3070F9094
:1057B0000F900F900F9044CF8B818230E1F078F4FE
:1057C000813009F03DCF80917502FFEF8F9FC001BE
:1057D000112468EC70E00E94EC2C6C8331CF833094
:1057E000A1F0843009F02CCF809173028C838091DA
:1057F00074028D8325CF8091720280FF04C086954C
:1058000086958C831DCF80E0FCCF80917602F9CF06
:10581000209172023091730240917402509175028E
:10582000609176027091770280917802909179026E
:105830000E942E1305CF80E18A8302CF1A8287EA65
:10584000D9CE0A811B81102701271027CE0101968E
:105850006C01EC80DC01AE0DB11D7D01C801875AE1
:105860009C4FCE14DF0409F4EBCE073A110550F437
:105870000E948E2DF60184830F5F1F4FBFEFCB1A5E
:10588000DB0AECCFD60114961C92F6CF0A811B815D
:10589000102701271027FE0131966F01EC80E00EE2
:1058A000F12EF11CC801875A9C4FE016F10609F44D
:1058B000C7CE073A110528F4D60114966C910E94C0
:1058C000B22DBFEFCB1ADB0A0F5F1F4FEBCF0E9449
:1058D000B311B6CE84E0B0CF0A811B811027012717
:1058E0001027FE0131966F01EC80CF018E0D911DC6
:1058F0007C01C8018996EC14FD0409F4A1CE0033A3
:10590000A3E01A0750F40E948E2DF60184830F5FE6
:105910001F4FBFEFCB1ADB0AECCFD60114961C92B7
:10592000F6CF0A811B81102701271027FE0131962F
:105930006F01EC80E00EF12EF11CC8018996E01693
:10594000F10609F47DCE0033F3E01F0728F4D601F9
:1059500014966C910E94B22DBFEFCB1ADB0A0F5F39
:105960001F4FEBCF09BD19BD09B400FEFDCF8091DB
:10597000D8008F7D8093D8008091E0008260809372
:10598000E0008091E00081FDFCCF0E94371633CB10
:10599000822B892B09F429CD26CD88E290E00E9444
:1059A0008E2D1B821C821D828E834ACE2B303105A8
:1059B00008F0CACCFDCC2B30310508F07CCCAFCC44
:1059C000991B79E004C0991F961708F0961B881F51
:1059D0007A95C9F780950895AA1BBB1B51E107C0B2
:1059E000AA1FBB1FA617B70710F0A61BB70B881F6F
:1059F000991F5A95A9F780959095BC01CD010895FE
:105A000097FB072E16F4009407D077FD09D00E946B
:105A1000EC2C07FC05D03EF4909581959F4F08959E
:105A2000709561957F4F0895EE0FFF1F0590F491DB
:105A3000E02D0994692796276927782787277827F3
:105A400008952F923F924F925F926F927F928F9222
:105A50009F92AF92BF92CF92DF92EF92FF920F93FD
:105A60001F93CF93DF93CDB7DEB7CA1BDB0B0FB607
:105A7000F894DEBF0FBECDBF09942A8839884888C4
:105A80005F846E847D848C849B84AA84B984C8845A
:105A9000DF80EE80FD800C811B81AA81B981CE0F51
:105AA000D11D0FB6F894DEBF0FBECDBFED01089536
:105AB000002E083090F0982F872F762F652F542FC7
:105AC000432F322F22270850F4CF220F331F441FB9
:105AD000551F661F771F881F991F0A95B2F7002D63
