:100000000C9466020C949E020C949E020C949E0228
:100010000C949E020C949E020C949E020C949E02E0
:100020000C949E020C949E020C949E020C94B316A7
:100030000C946F160C9482170C949E020C949E02E2
:100040000C949E020C949E020C949E020C945E17DB
:100050000C949E020C949E020C949E020C949E02A0
:100060000C949E020C949E020C949E020C949E0290
:100070000C949E0205010980A101850319012AB78C
:1000800000150126B700950175108100C0050C0907
:1000900001A101850419012AA002150126A00295DB
:1000A0000175108100C00660FF0961A10109621598
:1000B0000026FF009520750881020963150026FFC0
:1000C00000952075089102C005010906A1010507E8
:1000D00019E029E7150025019508750181029501B0
:1000E000750881010507190029FF150026FF0095F5
:1000F0000675088100050819012905950575019106
:1001000002950175039101C000000000000000008D
:1001100000000000000000000000000000000000DF
:100120000000000000000000000000007E0F00D46E
:10013000FFFFFFC700000078000000000000000083
:100140002A2B280000000000000000000000000032
:1001500000000029000000002C1E3420212224343D
:100160002627252E362D3738271E1F20212223240F
:1001700025263333362E37381F0405060708090AAB
:100180000B0C0D0E0F101112131415161718191A47
:100190001B1C1D2F3130232D350405060708090AC5
:1001A0000B0C0D0E0F101112131415161718191A27
:1001B0001B1C1D2F3130354C00004500E600760039
:1001C00000001100050000000000000051004F0079
:1001D00000000000500000000000380021522800FC
:1001E0000000370036001000190006001B001D003B
:1001F00000000000000000000000000000000000FF
:1002000000002A000000400030001C0017003C00E5
:1002100039002B00000000000000E1000000E300B6
:1002200000002F000000310000000F000E000D0044
:10023000090007001600040000000000E700E500C8
:100240000000000000003300E00042000000410018
:100250002E00230022003B003A0035004C004900EC
:10026000000000004A0000004B002D004800000084
:10027000470012000C001800150008001A001400B6
:10028000000000000000000000000000000013005B
:1002900000004400E20000003F000B000A003D00A7
:1002A000640029002C000000000000005200000043
:1002B000000034003E0043004600260025002400D4
:1002C000210020001F001E000000000000000000B0
:1002D0004D0000004E002700000001000100007CDE
:1002E000000001000100000000000000AD00AB00B4
:1002F00000000000AC00000000000100010001004F
:1003000000000100010001000100010001000100E6
:1003100000000000000000000000000000000000DD
:1003200000000100000001000100010001000100C7
:1003300001000100000000000000010000000100B9
:1003400000000100000001000000010001000100A8
:100350000100010001000100000000000100010097
:100360000000000000000100010001000000010089
:100370000100010001000100010001000100010075
:100380000000000001000000A9000100A60000001C
:10039000A5000100010001000100010001000100B1
:1003A000000000000000000000000000000001004C
:1003B0000000010001000000010001000100010037
:1003C000010001000100000000000000AE0000007C
:1003D0000000010001000100A70001000100010070
:1003E0000100010001000100000000000000000009
:1003F00001000000AA00010009025B00030100A047
:10040000FA090400000103010100092111010001A2
:1004100022400007058103080001090401000203CE
:1004200000000009211101000122220007058203BA
:100430002000010705030320000109040200010355
:100440000000000921110100012232000705840388
:100450002000011201000200000008454250600423
:10046000010102000152034D0061006A0065007342
:100470000074006F00750063006800200054004B9A
:10048000004C0020005C005C0077002000540068F5
:100490000065002000500065006700610073007572
:1004A000007300200048006F006F006600200032DB
:1004B0000030003100330000000C03460069006C7E
:1004C0000063006F000000040309040011241FBE34
:1004D000CFEFD4E0DEBFCDBF04B603FE18C08091DD
:1004E000640290916502A0916602B0916702873024
:1004F000904BA740B04B59F41092640210926502E1
:100500001092660210926702E0E0F8E3099522E09B
:10051000A2E5B1E001C01D92A436B207E1F711E0F7
:10052000A0E0B1E0E4E0F9E302C005900D92A2354D
:10053000B107D9F70E94A9170C941D1C0C94000058
:100540002091E4003091E50095E6A9012091EC00AE
:10055000822F817020FF06C08091E80080FF06C0D6
:1005600080E008952091E80022FD1AC08091530296
:10057000882389F0853089F08091EB0085FD0FC0DC
:100580002091E4003091E50042175307F9F29150B1
:10059000E1F684E0089582E0089583E0089581E023
:1005A00008958091550287FF13C08091E80082FF73
:1005B00006C08091E8008B778093E80004C08091AA
:1005C00053028111F2CF0895809153028823D9F309
:1005D0008091E80080FFF8CF8091E8008E77ECCF23
:1005E000982F9093E900242F762F50E0891731F04F
:1005F0007091EC002091ED005091F00021FD07C0BA
:100600009F5F953071F78093E90081E00895309104
:10061000EB003E7F3093EB003091ED003D7F309357
:10062000ED003091EB0031603093EB007093EC0003
:100630002093ED005093F0002091EE0027FDE0CFD5
:1006400080E00895FC0180915B0290915C02861726
:100650009707A0F06115710529F49091E8009E7745
:100660009093E80090E06115710551F4911108C074
:100670008091E80082FF32C080E00895BC01F2CF93
:10068000809153028823B1F18530B1F18091E80067
:1006900083FD2EC08091E80082FDEACF8091E800C2
:1006A00080FFE1CF2091F20030E06115710519F073
:1006B0002830310558F091E02830310509F090E0FC
:1006C0002091E8002E772093E800CDCF8191809390
:1006D000F100615071092F5F3F4FE7CF80915302C6
:1006E000882341F0853041F08091E80083FFC0CF3E
:1006F00081E0089582E0089583E00895089580914F
:10070000480208952FB7F89480915D0290915E029F
:10071000A0915F02B09160022FBF08959C01FC017F
:1007200032969FEF80E04191461751F09F3F19F4B8
:10073000411101C0982F8F5F8630A9F79F3F09F4C0
:100740000895290F311D97FD3A95F90162830895A7
:10075000A3E0B0E0EEEAF3E00C94A71B2091440282
:100760003091450228173907A1F0909345028093F4
:100770004402E0914202F0914302309751F024E0AC
:1007800029839B838A830680F781E02DCE01019621
:1007900009952396E2E00C94C31BA3E0B0E0E3EDDF
:1007A000F3E00C94A71B20914002309141022817DE
:1007B0003907A1F09093410280934002E0914202F8
:1007C000F0914302309751F023E029839B838A8381
:1007D0000680F781E02DCE01019609952396E2E08F
:1007E0000C94C31BE0914202F0914302309729F030
:1007F0000190F081E02D0995089580E0089580E052
:1008000008959091FC0192FF06C0282F287128308E
:10081000F9F4877F846093FF06C0282F2871283160
:10082000F1F4877E84612091FD0120FF06C0382FFE
:1008300038713830D9F4877F816021FF06C0282FB6
:1008400028712831D1F4877E816194FD877E0895D7
:10085000282F24712430F9F68B7F8860DCCF282F75
:100860002471243101F78B7E8861DDCF382F3171FF
:10087000313019F78E7F8860E0CF282F2171213128
:1008800021F78E7E8861E1CF82389105B9F1B0F40D
:100890008133910509F47DC048F48932910509F44A
:1008A0006DC08A32910509F47BC0089585339105A6
:1008B00009F45FC08933910509F10895833E9105DC
:1008C000D9F138F4803E910529F1823E910579F104
:1008D0000895863E9105D9F1873E910509F43EC001
:1008E000843E910541F52091FD0121FF24C08091B6
:1008F000FC0184FD19C087EE90E008952091FC0171
:10090000237009F05AC02091FD0123FF14C089E231
:1009100090E008952091FC0120FD38C03091FD0148
:1009200030FF09C024FF43C090E080E0089520918B
:10093000FC0122FDF7CF08952091FC0122FD3AC071
:100940003091FD0130FD39C024FFF5CFEDCF20916E
:10095000FC0123FFF0CF24FDE7CFCDCF2091FC0198
:1009600023FD2EC03091FD0131FFEECF84EE90E0EB
:1009700008952091FC0125FFDECFC9CF2091FC0115
:1009800025FD21C02091FD0123FFD5CF89E390E013
:10099000D2CF2091FC0126FFCECF8AE290E00895CD
:1009A0002091FC0126FFC7CF81E390E0089583EEFC
:1009B00090E0089582EE90E0089580EE90E0089532
:1009C00086EE90E0089585E390E008951F93CF931D
:1009D000DF930E944404EC01C11580E5D807F0F5CF
:1009E000C11580E4D80708F09EC0C03ED10520F5AF
:1009F000CD3CD10508F084C0C83AD10578F4C53A99
:100A0000D10508F075C0C130D10519F1209709F161
:100A1000C430D105F0F4D0E0C0E01BC0C13CD1052A
:100A2000D0F7C85AD0E0CC0FDD1FC35FDE4F09906E
:100A3000D881C02DD4640DC0C11580E2D80708F05C
:100A4000D7C0C11581E0D80708F05CC0C83ED10509
:100A500010F7CE01DF91CF911F910895C03682E546
:100A6000D80728F5C03482E5D80708F06DC0C03239
:100A700082E5D80708F061C0C11582E5D80708F4FF
:100A80009DC02C2F2695269530E085E0220F331F40
:100A90008A95E1F78C2F8370C1E0D0E002C0CC0FC3
:100AA000DD1F8A95E2F7C22BD32BDD68D2CFC03A87
:100AB00082E5D80760F4C03882E5D80708F45BC047
:100AC000CF71D0E0DC2FCC27C46FD06AC2CFC03C3E
:100AD00082E5D80708F466C0C03E82E5D80708F072
:100AE0009ACFDC2FCC27CC27DF71C06FD06AB1CF73
:100AF000C55AD0E0C65FDE4FC881D0E0D064A9CF30
:100B0000D065A7CF8D2F0E940104182FCE01992701
:100B10000E944404C12FD0E0DC2FCC27CC27DF710A
:100B2000C82BD92B96CFCE0199270E944404CC27FD
:100B3000DF70C82BD92BD06A8CCFCF71D0E0DC2FDF
:100B4000CC27C16FD06A85CF2C2F2695269527708C
:100B500030E0B5E0220F331FBA95E1F78C2F837098
:100B6000C1E0D0E002C0CC0FDD1F8A95E2F7C22BB6
:100B7000D32BDC686ECF2C2F26952695277030E07E
:100B8000A5E0220F331FAA95E1F78C2F8370C1E0F7
:100B9000D0E002C0CC0FDD1F8A95E2F7C22BD32B29
:100BA000DA6857CF8C2F8F710E940104C82FD0E0D4
:100BB000DC2FCC27CC27DF71D0624BCF8C2F8F71ED
:100BC0000E94010455E0D695C7955A95E1F7CF707C
:100BD000D0E0DC2FCC27282F30E084FF05C044E094
:100BE000220F331F4A95E1F7C22BD32BD06931CFA7
:100BF0008D2F8F710E940104182FCE0199270E941A
:100C00004404C12FD0E0DC2FCC27CC27DF71C82BC8
:100C1000D92BD2CF8091D60181111092D60108959F
:100C200080959091D50198239093D5010895CF9305
:100C3000B82FC62F2091CA01A09199012A1303C091
:100C400080E0CF91089530E0C90166E070E00E9435
:100C5000791BFC01E656FE4F81818C1306C0808112
:100C60008B1303C08281841304C02F5F3F4F277012
:100C7000E5CF81E0E6CF8091CA0190919901981368
:100C800001C008958F5F8770FACF282F983088F5BC
:100C9000823178F5892F90E062E170E00E94791B43
:100CA000820F911DA82FA77023E0969587952A950E
:100CB000E1F763E070E00E94791BFC01E35AFE4F0C
:100CC00050E040E080E0219130E00A2E02C03695ED
:100CD00027950A94E2F721703327042E01C0220FD2
:100CE0000A94EAF7822B4F5F5F4F4330510559F763
:100CF000089580E00895CF93DF93282F362F983002
:100D0000B0F58231A0F5892F90E062E170E00E9499
:100D1000791B820F911D282F2770E1E001C0EE0F93
:100D20002A95EAF723E0969587952A95E1F763E0FF
:100D300070E00E94791BDC01A35ABE4F50E040E0F6
:100D4000632F70E08D91ED0121979B01042E02C06D
:100D5000369527950A94E2F72170219528272E23AE
:100D6000282728834F5F5F4F4330510559F7DF91A4
:100D7000CF9108958093FB0108959091FB0121E0AC
:100D800030E0F90101C0EE0F8A95EAF7D90102C0FF
:100D9000AA0FBB1F6A95E2F7EA2B01C0220F4A9502
:100DA000EAF7892F8E23E81305C0292B822F0E9492
:100DB000BA06089520952923F9CF21E030E001C03B
:100DC000220F8A95EAF720958091FB0182230E94E9
:100DD000BA0608959091CB01809589238093CB0129
:100DE000282F277091F4282F082E000C330B921710
:100DF000130659F09091FD0192FF07C085958595E6
:100E000085950E94DD061092CB01089521E030E027
:100E100001C0220F8A95EAF78091FB01822B0E9484
:100E2000BA0608958093FA010895809581FF06C05F
:100E3000469A82FF05C0459A81E008954698F9CF09
:100E40004598FACF0F931F93CF93DF938B01EA015D
:100E500090915302943061F58093E9008FEF909167
:100E6000E800815095FD06C095ED9A95F1F70000D8
:100E70008111F5CF8091E80085FF1AC00E94A00281
:100E8000811111C08091E80085FD06C08091E800C5
:100E90008E778093E800F2CFF80181918F018093E3
:100EA000F100219779F78091E8008E778093E80030
:100EB000DF91CF911F910F91089543E050E0BC0165
:100EC00084E00E9422070895CF93DF93EC0148E06D
:100ED00050E0BC0181E00E94220788E0FE01A9E405
:100EE000B2E001900D928A95E1F7DF91CF910895DC
:100EF00081E08093E00080E28093D8001092C900E6
:100F00008FE19EE40197F1F700C0000087E090EBCD
:100F1000DC018093640290936502A0936602B09313
:100F2000670288E19CE00FB6F894A8958093600072
:100F30000FBE90936000FFCFA6E0B0E0E2EAF7E0DA
:100F40000C94971B50E040E071E022242394312C54
:100F5000EFEFE40FE13138F4F0E0E15EF34E8BB1F6
:100F600084780C948A1B8BB1847883618BB980EA76
:100F70008A95F1F783B1829586958770872790E0EF
:100F8000B0E0A0E081709927AA27BB271F99DFC096
:100F900002E010E020E030E0802B912BA22BB32B5D
:100FA0001C99D9C004E010E020E030E0802B912BA8
:100FB000A22BB32B1E99D3C008E010E020E030E054
:100FC000802B912BA22BB32B1999CDC000E110E0FF
:100FD00020E030E0802B912BA22BB32B1A99C7C0B5
:100FE00000E210E020E030E0802B912BA22BB32B0D
:100FF0001B99C1C000E410E020E030E0802B912B71
:10100000A22BB32B1899BBC000E810E020E030E021
:101010006C017D01C02AD12AE22AF32AC982DA8230
:10102000EB82FC82812C912C54018394042E04C009
:10103000880C991CAA1CBB1C0A94D2F720910001B1
:101040000AED11E01E830D83F0E0E0E0AD81BE818A
:10105000CD90DD90ED90FD90BE83AD8326013701EC
:10106000482059206A207B2031E04528462847281F
:1010700009F430E021010E2E02C0440C551C0A94E4
:10108000E2F7052C000C6608770889819A81AB810C
:10109000BC81482259226A227B2261E0411451041A
:1010A0006104710409F460E0361779F02D813E8106
:1010B00024503109C824D924EA24FB24D901CD9233
:1010C000DD92ED92FC92139725E03196E830F10520
:1010D00009F0BCCF209300014F5F5F4F42315105B3
:1010E00009F036CF222361F0215020930001222302
:1010F00009F449C0EFE9FFE03197F1F700C00000C3
:1011000081E02696E2E10C94B31B83642FCF8066C6
:101110002DCF89672BCF826629CF8A6627CF81673B
:1011200025CF896623CF816621CF88671FCF8B614A
:101130001DCF83621BCF8B6219CF806717CF8B6067
:1011400015CF886613CF836011CF8B630FCF00E07C
:1011500010E0980121CF00E010E0980127CF00E0D7
:1011600010E098012DCF00E010E0980133CF00E0AF
:1011700010E0980139CF00E010E098013FCF00E087
:1011800010E0980145CF20E232E0F8018191919181
:10119000A191B1918F01F90181939193A193B193A1
:1011A0009F01F1E00A3F1F0781F7AACFCF93DF939A
:1011B000C6E8D3E060E0CE010E94E91B2196C1158C
:1011C00084E0D807B9F7DF91CF9108951F93CF93AB
:1011D000DF93E82F122F833010F5683000F542318D
:1011E000F0F4862F90E064E270E00E94791BC42F37
:1011F000D0E0CC0FDD1FC80FD91F8E2F90E060E22A
:1012000071E00E94791BC80FD91F632FCE0186960B
:101210000E94E91B612FCE0187960E94E91BDF9196
:10122000CF911F910895B0E0A0E0E9E1F9E00C94BE
:101230009F1B88EBC82E81E0D82E10E000E07601DD
:10124000C0E017C002301105B9F0F50125913491C5
:101250004D2F6C2F802F0E94E60882E0A80EB11C53
:10126000DF5FD23179F7CF5F84E2E80EF11CC8303E
:1012700049F05701D0E0E6CF21E030E04D2F6C2F50
:1012800082E0E9CF0F5F1F4F80EEC81A8EEFD80AB9
:1012900003301105A1F6CDB7DEB7EAE00C94BB1B15
:1012A000CF93C82F6FEF811163E282E290E00E943A
:1012B000E91B6FEFC11163E083E290E00E94E91B3C
:1012C0006FEFC11167E084E290E00E94E91BCF91CB
:1012D000089580E00E94500960E085E290E00E945D
:1012E000E91B0E9413090E94D60881E00E94500960
:1012F00008950F931F93CF93DF93282F833060F5CA
:10130000683050F5423140F5862F90E064E270E09D
:101310000E94791BC42FD0E0CC0FDD1FC80FD91F4E
:10132000822F90E060E271E00E94791BC80FD91F04
:10133000CE0186960E94DB1B082F10E0102F00279D
:10134000CE0187960E94DB1B9801282BC901DF91F3
:10135000CF911F910F91089590E080E0F8CF462F34
:10136000783040F4623130F4833020F4672F0E94EB
:101370007909089590E080E00895CF92DF92FF927E
:101380000F931F93CF93DF936C010091FB0180912A
:10139000FA01082BC2E0D0E010E0FC2EC8010C2EB0
:1013A00002C0959587950A94E2F780FD0CC02197BD
:1013B000A0F7F12C8F2DDF91CF911F910F91FF900E
:1013C000DF90CF900895B6018C2F0E94AF090E9444
:1013D000E604019761F3EECFCF93DF93EC010E9417
:1013E000BD09BE010E94AF090E94E604DF91CF91C2
:1013F0000895FC0183819481892B29F0808191815A
:1014000089238F3F51F480E00895843FE1F717C0AE
:10141000883EA8F0813FB9F712C0808191810E9477
:10142000EC0992959F70963099F358F4925F9F70F3
:10143000923048F7803F19F040F7883E20F781E06E
:1014400008959A5FF4CF82E290E00E94DB1B833222
:1014500089F483E290E00E94DB1B833059F484E23C
:1014600090E00E94DB1B91E0873009F090E0892F2B
:101470008170089580E0FCCF9091FD0192FB2227BE
:1014800020F9281779F080FB92F99093FD01609183
:10149000FC017091FD0184E090E00E94071C82E055
:1014A0000E94EA0608958091D5019091D401892B7C
:1014B000809354019091D601992391F0892B8093C8
:1014C000540120E086E591E0FC013191CF0131111A
:1014D0002F5FF1E08C359F07B9F721110E940A06B2
:1014E00048E050E06CEC71E084E591E00E94CE1B96
:1014F000892BA9F088E0E4E5F1E0ACECB1E00190E3
:101500000D928A95E1F7E0914202F0914302309703
:1015100031F00280F381E02D84E591E00995089592
:10152000882321F00E9410060E94530A0895882300
:1015300039F09091D501982B9093D5010E94530AD0
:101540000895882391F19CEF980F913A80F4E6E595
:10155000F1E02CE531E09191891303C0DF0111978F
:101560001C922E173F07B9F70E94530A089590E284
:10157000980F983050F4877091E001C0990F8A95C8
:10158000EAF7892F0E941006EFCF9BE5980F933062
:1015900028F490E080E00E94CD030895885A8B31B2
:1015A00020F490E080E00E94A8030895CF93C82F14
:1015B0008823B1F08CEF8C0F813A00F5E6E5F1E07D
:1015C0008CE591E0DF012D91C21761F08A179B072E
:1015D000D1F76C2F84E591E00E948E030E94530A9C
:1015E000CF9108952191C21303C0DF0111971C927E
:1015F0008E179F07B9F70E94530AEBCF80E28C0F3A
:10160000883068F4C77021E030E001C0220FCA952D
:10161000EAF78091D501822B8093D501DFCFEBE5EE
:10162000EC0FE33040F4F0E0E65FFE4F808190E0A5
:101630000E94CD03D5CFC85ACB3190F6EC2FF0E005
:10164000EE0FFF1FE35FFE4F808191810E94A80390
:10165000C7CF1F93CF93DF93182FD0E0C0E089331B
:1016600011F4C0E5D0E0812F0E94D60A209739F40A
:10167000812F0E94A10ADF91CF911F9108958FE9D8
:101680009FE00197F1F700C000002197EFCF0F9383
:101690001F93CF93DF93C62FD42F022FFC0182819B
:1016A0008823A9F0609363020E94820390936202F0
:1016B00080936102C77081E001C0880FCA95EAF784
:1016C0000E94970ADF91CF911F910F910895809109
:1016D000630268133DC020916102309162024FB7EE
:1016E000F89480915D0290915E02A0915F02B091AA
:1016F00060024FBF821B930B883C910548F510E2B6
:101700001D0F6D17B9F080E2860F883040F4C77066
:1017100081E001C0880FCA95EAF70E94900A18304C
:1017200048F481E09D2F977001C0880F9A95EAF7E1
:101730000E94970A802F0E94290B183018F6D77044
:1017400081E001C0880FDA95EAF70E94900ABACFCB
:10175000C77081E001C0880FCA95EAF7F6CF1092F2
:10176000D501E6E5F1E086E0DF011D928A95E9F713
:1017700090E080E00E94CD0390E080E00E94A8030A
:101780001092D4010E94530A0895AAE2B0E0EBEC53
:10179000FBE00C94A61B85E592E02091F100DC01B2
:1017A0002D93CD01B2E08D359B07B9F7809156029C
:1017B000833009F470C0B8F4813009F447C0823036
:1017C00009F4B1C08091E80083FF88C2809155027E
:1017D000909156029A3008F081C2E92FF0E0E05D66
:1017E000F34E0C948A1B8A3009F48CC08B3009F4B8
:1017F0006FC0893039F780915502813219F7809195
:10180000590290915A02009711F00297D9F68091EF
:10181000E800877F8093E8008091E80082FF36C06F
:101820008091F200823031F48091F100813011F02A
:10183000863021F48091F100809348028091E80085
:101840008B778093E8000E94D102BCCF8091550233
:10185000813A09F0B7CF8091E800877F8093E80054
:101860008091590290915A02892B61F468E089E4D1
:1018700092E070E00E9422038091E8008B778093D1
:10188000E800A0CF60E090E080E0F3CF80915302C9
:101890008111C2CF97CF80915502813A09F092CF42
:1018A0008091590290915A02892B09F08BCF809137
:1018B000E800877F8093E8008091E80080FFFCCFFC
:1018C000809109018093F1008091E8008E77B9CF73
:1018D00080915502813209F075CF80915902909123
:1018E0005A02892B09F06ECF8091E800877F8093A0
:1018F000E8000E94D10280915702809309010E9462
:10190000AF0B60CF80915502813209F05BCF80919F
:10191000E800877F8093E8000E94D10280915802FE
:10192000809347024FCF80915502813A09F04ACF08
:101930008091E800877F8093E8008091E80080FF35
:10194000FCCF80914702BECF803899F0823809F0F1
:10195000C5C1809159028F70853008F0BFC1809356
:10196000E9008091EB0085FB882780F91092E9005F
:1019700006C0809151029091520291118260909123
:10198000E800977F9093E8008093F1001092F100B7
:101990008091E8008E779EC1882309F48CC1823043
:1019A00009F09CC18091570281118FC18091590229
:1019B0008F702FEF280F243008F090C18093E9003A
:1019C0002091EB0020FF81C1933031F48091EB0036
:1019D00080628093EB0079C19091EB0090619093CD
:1019E000EB0021E030E001C0220F8A95EAF7209356
:1019F000EA001092EA008091EB008860EACF811142
:101A00006DC1109157021F778091E3008078812B80
:101A10008093E3008091E800877F8093E8000E9434
:101A2000D1028091E80080FFFCCF8091E3008068C4
:101A30008093E30082E0111183E0809353024EC152
:101A40008058823008F04AC12091570230915802E4
:101A50002C3DE3E03E07A1F583E08A838AE2898397
:101A60004FB7F894DE01139620E03EE051E2E32FF9
:101A7000F0E050935700E49120FF03C0E295EF702F
:101A80003F5FEF708E2F90E0EA30C0F0C7968D93E5
:101A90009D932F5F243159F74FBF8091E800877FD6
:101AA0008093E8006AE270E0CE0101960E94220372
:101AB0008091E8008B778093E80010C1C096E7CF53
:101AC0008091590290915A02432F55274330510576
:101AD00009F44AC078F54130510509F47AC08BE524
:101AE00090E0E8EFF3E04230510509F0F7C02091B3
:101AF000E800277F2093E80020915B0230915C0290
:101B00008217930708F49C0140E02115310509F084
:101B100065C0411163C08091E80082FDC9CF80910A
:101B20005302882329F2853019F28091E80083FF5F
:101B3000F2CFBECF4132510509F43CC042325105CB
:101B400009F0CCC08330910508F0C8C0FC01EE0F4D
:101B5000FF1FEA5BFE4F0190F081E02D8D5B9E4FF1
:101B6000DC018C9190E01AC0332721303105D1F08F
:101B70002115310561F02230310509F0AFC0E5E6ED
:101B8000F4E0E4918E2F90E0E5E6F4E007C0E7ECA6
:101B9000F4E0E4918E2F90E0E7ECF4E0009709F494
:101BA0009DC0A5CFE9EBF4E0E4918E2F90E0E9EB46
:101BB000F4E0F4CF8330910508F090C0880F991FAE
:101BC000FC01E45BFE4F0190F081E02D89E090E0A4
:101BD0008ECF82E190E0E3E5F4E089CF809153027B
:101BE000882309F465CF853009F462CF8091E8003D
:101BF00083FD5ECF8091E80082FD8DCF8091E8006B
:101C000080FF83CF8091F20090E02115310519F01B
:101C10008830910550F041E0089709F040E080914C
:101C2000E8008E778093E80070CF44914093F100F4
:101C30003196215031090196E8CF803809F04EC025
:101C40008091E800877F8093E80080915402809320
:101C5000F1009ECE811142C0109157021230F0F572
:101C60008091E800877F8093E800109354020E94DF
:101C7000D102112311F084E005C08091E30087FDBB
:101C8000FACF81E08093530242E061EC81E00E9450
:101C9000F00242E261EC84E00E94F00242E261EC78
:101CA00082E00E94F00242E260EC83E00E94F002D7
:101CB0008091530213C080915702813079F481E002
:101CC000933009F080E0809352021092E9008091F5
:101CD000E800877F8093E8000E94D1028091E800AD
:101CE00083FF0AC08091E800877F8093E80080919D
:101CF000EB0080628093EB00AA96E3E00C94C21B99
:101D00000E94AF0B2FEF84E39CE021508040904075
:101D1000E1F700C0000088E19CE00FB6F894A895B8
:101D2000809360000FBE90936000FFCFA8E0B0E00A
:101D3000ECE9FEE00C949A1B8C01DC0113968D916A
:101D40009C911497892B39F08C9111969C91892341
:101D50008F3F09F0E2C42896EFE00C94B61B0E9476
:101D6000BD09F82E682F89819A810E947B066981BE
:101D70007A818F2D0E94AF097C01F801828188232E
:101D800009F43CC1C70197578038910508F008C590
:101D9000FFE0FE1508F48AC08FEF93E00E94DB1B82
:101DA000811184C056E8A52E53E0B52EE11048C03D
:101DB000FE01339686E0DF011D928A95E9F77501F1
:101DC000BFEFEB1AFB0AC5010E94DB1B89831A8255
:101DD000882309F46BC0813009F07BC06501E2E023
:101DE000CE0ED11CC7010E94DB1B8A83882309F415
:101DF0005DC09FEF980F933088F5F3E0AF0EB11CF4
:101E0000C6010E94DB1B8B83882309F44FC01C8210
:101E1000CE0101967C01D7012C91222381F2213041
:101E200009F097C011969C91119712968C91913060
:101E300009F051C0B2E0EB0EF11C0E94290B52C018
:101E4000A11424E0B20691F1C5010E94DB1B8111AF
:101E500001C0EA943FEFA31AB30AA8CF5601843019
:101E6000B9F642E0E42EF12C56012FEFA21AB20A85
:101E7000C6010E94DB1BE1E0F0E0EC0FFD1FEE0D60
:101E8000FF1D8083882391F08C3741F4E2E0F0E07D
:101E9000EC0FFD1FEE0DFF1D1082BACF3FEFE31ACE
:101EA000F30A650167E0E616F104F1F68091CB01D3
:101EB000877009F450CFD80112968C91882309F4C9
:101EC0004ACF8091FD0182FF46CF82E00E94EA0660
:101ED00042CF57019DCF923049F4E2E0EE0EF11C63
:101EE0000E94D60AFFEFEF1AFF0A95CF933031F424
:101EF000F2E0EF0EF11C0E94A10AF4CF943021F021
:101F00002FEFE21AF20AEECF32E0E30EF11C50E0BE
:101F100040E0D7011196F701D180682F6053770B0D
:101F20009B016A30710550F041505109D8F28FE998
:101F30009FE00197F1F700C00000F6CFCA016AE008
:101F400070E00E94791BA901480F591F8D2D7D015A
:101F5000E0CFE22FF0E0E85CFE4F5490822F8695B0
:101F60008695869590E0FC01E85DFE4F64902770B1
:101F7000712C022E02C0759467940A94E2F7A1E0D6
:101F80006A227724FC01E85EFE4F8490912C022E99
:101F900002C0959487940A94E2F7B1E08B229924C9
:101FA000FC01E85FFE4FC490D12C02C0D594C794C9
:101FB0002A95E2F7E1E0CE22DD246114710419F0E4
:101FC00081EE0E94D60A8114910419F086EE0E94D7
:101FD000D60A852D0E94290B8114910419F086EEF2
:101FE0000E94A10A6114710419F081EE0E94A10AF5
:101FF000C114D10409F476CF8CE21FCFF701E85168
:10200000FC47E730F10508F0B3C3E65CF34E0C94EF
:102010008A1B26E241EE61EEC8010E94470B46CFC3
:1020200027E245EE65EEF8CF26E241EE60EEF4CF12
:1020300027E245EE64EEF0CF26E241EE62EEECCF11
:1020400027E245EE66EEE8CF28E241E0EBCF809153
:10205000FC0181608093FC0195C08091FD01886046
:102060008093FD018FC08091FC018260F3CF80914D
:10207000FC018460EFCF8091FC018860EBCF809100
:10208000FD018160EDCF8091FD018260E9CF8091FB
:10209000FC018061DFCF8091FC018062DBCF809109
:1020A000FC018064D7CF0E94AF0B8091FC01806857
:1020B000D1CF8091FC018C60CDCF8091FD018360F8
:1020C000CFCF8091FC018E7FC5CF8091FD01877FAE
:1020D000C7CF8091FC018D7FBDCF8091FC018B7FAC
:1020E000B9CF8091FC01877FB5CF8091FD018E7FB4
:1020F000B7CF8091FD018D7FB3CF8091FC018F7EA2
:10210000A9CF8091FC018F7DA5CF8091FC018F7BB1
:10211000A1CF0E94AF0B8091FC018F779BCF809164
:10212000FC01837F97CF8091FD018C7F99CF8091B7
:10213000FC0182FB992790F921E0922790FB82F91C
:1021400090FB83F987CF8091FD01982F9095917036
:102150008E7F892B90FB81F983CF9091FC01892F91
:102160008F7B96FF806476CF0E94AF0B9091FC012D
:10217000892F97FB87F980586DCF61E08EE090E062
:102180000E94E91B6091FC017091FD0184E090E0E8
:102190000E94071C0E94AF0B89CE60E0EFCF9091A8
:1021A000FC01892F8F7E94FF806154CF9091FC01B8
:1021B000892F8E7F90FF81604DCF9091FD01892FF7
:1021C000877F93FF88604CCF85E3DCC227E7E21668
:1021D0002CE7F20609F46AC038E7E3163CE7F30699
:1021E00009F471C063E0E6166CE7F60609F48CC0EA
:1021F00008F06BC0E1148CE7F80609F478C091E0B0
:10220000E9169CE7F90609F485C0F8018281E080AF
:10221000F180882309F48CC0C7010E94BD09D82E23
:10222000682FC7010E947B06B7018D2D0E94AF0960
:102230000E94E6047C01882ED8011296AC90129779
:1022400015969C9092943FE093228091CB018770E9
:10225000F1F0CA2CAA20E1F08F2D807F803451F05C
:1022600080E28E0D883098F0911004C08F2D807E12
:10227000803269F08091FD0182FF09C082E00E94F6
:10228000EA068091CB018770CC24C3948111C12CC4
:10229000BF2CB2942FE0B222BBE0BB1508F4BAC049
:1022A000EB2DF0E0EF5BF34E0C948A1B81E00E9473
:1022B000060743E062E081E00E94BD06F7CD81E0C1
:1022C0000E94DD06F6CF82E0F2CFABE5EA16ACE77E
:1022D000FA0661F1BCE5EB16BCE7FB06E9F0EAE5BE
:1022E000EE16ECE7FE0609F090CF81E01CC00E94DC
:1022F000AF0BFFEF24E33CE0F15020403040E1F72A
:1023000000C000000E9478076FEF7FEF90E080E050
:102310000E94071C0E94800E8091FD0182FB88278D
:1023200080F991E089270E943C0A6FCF80E0FBCFC3
:10233000C7010E944506D82E77CFEF2DEF70DE2E15
:102340008F2D807F19F0D29490EFD922AA20B9F076
:10235000DD2069F080E28E0D883010F0811009C018
:102360008091D501D82AD092D5010E94530A8E2D92
:102370004FC08091D401D82AD092D401F6CF8E2DAF
:102380000E94A10ADD2009F445C080E28E0D88304C
:1023900010F0811004C08D2D0E94100606C0D0944C
:1023A0008091D401D822D092D4010E94530A32C025
:1023B000FF2DFF70DF2E8F2D807F803219F0D29499
:1023C00080EFD8228820A1F021E0821609F471C0A4
:1023D000AA2009F47BC0992009F471C0D801159690
:1023E0008C91159780FFC3CF8F7015968C9367C023
:1023F0002091FD0122FD36C0AA2071F1DD2039F0C7
:102400008091D501D82AD092D5010E94530A80E04C
:102410000E94D60AAB2DA850BB0B149720F40E9443
:10242000F2030E941507CC2009F495CC8091CB01D2
:1024300080FD91CCF80112828595859585950E9445
:102440000607C8010E94960E8091CB01859585955F
:1024500085950E94DD067FCC80E00E94A10ADD20E8
:10246000C9F299CFAA2099F09091D6018D2D892B90
:10247000911003C00E94970ACDCF31E09312FACF9A
:1024800022FFC8CF891731F28093D601C3CF9110B4
:1024900006C00E940A068D2D0E94900ABBCF61E003
:1024A000961609F4B7CF8D2D0E94900A0E940A0655
:1024B000B1CFAA2031F075E0791508F4ABCF8D2D9E
:1024C000D9CF84E0891508F4A5CFE5CF992019F379
:1024D000B9E38B1209C0EFEFF7EE23E0E150F040D3
:1024E0002040E1F700C000008E2D0E94A10A92CF8B
:1024F0008F2D86958695837061F0813009F08ACFA3
:10250000C7019370A11002C080E090E00E94A80370
:1025100081CFC7019370A11002C080E090E00E94BB
:10252000CD0378CF8F2D837091F5A11073CF4E2DF1
:10253000429546954770440F440F8E2D8F70042EA0
:1025400001C0880F0A94EAF72E2D2071E4FE07C01F
:102550002FE030E001C0220F4A95EAF720953F2D89
:10256000369536953370323069F050F44091FA0167
:10257000313029F0822B84230E9412074BCF842B09
:10258000822BFACF282B8091FA018227F5CF8695EE
:10259000AA2011F08F2D8170882309F43BCF4E2D96
:1025A000429546954770440F440F8E2D8F70042E30
:1025B00001C0880F0A94EAF72E2D2071E4FE07C0AF
:1025C0002FE030E001C0220F4A95EAF720953F2D19
:1025D000369536953370323069F050F44091FB01F6
:1025E000313029F0822B84230E94BA0613CF842B2A
:1025F000822BFACF282B8091FB018227F5CF3F2D2C
:102600003F70F32EAA2029F0832F0E9406078E2DFB
:1026100031CF8E2D0E94900A8F2D0E94DD06FACEBA
:102620008E2D62EF8616B1F1681570F070EF871687
:10263000D1F091EF891691F0AA2009F45EC09110B3
:1026400096CE8F2D8F712AC0A3EF8A1651F1B4EF69
:102650008B12F2CF8091FD0182FD2FC08F2D8F71E3
:10266000AA20D9F21BC0AA2081F0E4E0E91508F401
:10267000D1CE2F2D2F7181E090E001C0880F2A95D7
:10268000EAF79091FB018927AFCFF5E0F91508F43F
:10269000C1CEEFCF8F2D8F71A110BFCF0E94060743
:1026A000B9CE80E0AA2009F49FCF9F2D9F7181E0D1
:1026B00001C0880F9A95EAF797CFAA2099F02F2D9D
:1026C0002F71F22E822F0E9406078091FD0182FF5A
:1026D00007C08F2D880F880F880F83608093CB01F0
:1026E0008F2DDCCF81E00E94EA0631E0391508F039
:1026F00091CE82E00E94EA068DCE992059F089336E
:1027000009F0F2CE6FEF77EE83E0615070408040C9
:10271000E1F7E8CE8F2D8F7180CF85E0F801DE01E3
:10272000119601900D928A95E1F7D80112962C919D
:1027300089819A81211113CB0E944506F82E17CB6F
:10274000B6E1EB16BCE7FB0609F040CD8091D50160
:102750008A7A91E009F490E090935C0169E281113A
:1027600065E384E591E00E948E030E94530A9ECBAC
:10277000E6E1EE16ECE7FE06A1F580915C01811121
:1027800023CD89E2E6E5F1E02CE531E09191891372
:1027900003C0DF0111971C922E173F07B9F7E5CF51
:1027A000F701E851FC47E730F10508F42ECC109210
:1027B0006302C7019057839708F0C2CF84E090E08E
:1027C0000E94E31B9093FD018093FC01F701E1500F
:1027D000F047E232F10508F03ACCE35BF34E0C949B
:1027E0008A1BF7E7EF16FCE7FF0609F468CD82E0E5
:1027F00028E7E2162CE7F20609F462CD06CD1F9316
:10280000CF93DF9380919801807F09F04AC0809137
:102810009501882309F445C02091CA01B09199011E
:1028200040919301A0919401C0919601D09197019C
:10283000142F1A23B217A9F130E02097B1F11F3FEE
:10284000A1F1C90166E070E00E94791BFC01E65627
:10285000FE4F81818A1329C08081841326C0828122
:10286000811123C0838194818C1B9D0B883C910531
:10287000E0F4809198018F70806180939801C90184
:1028800066E070E00E94791BFC01E156FE4F9081EA
:102890009F709061908383E991E00E94960E0E9460
:1028A0003B06DF91CF911F9108952F5F3F4F277017
:1028B000C1CFA1E1B0E0EFE5F4E10C949D1B8C01E8
:1028C00085E0F801DE011D9601900D928A95E1F7F1
:1028D000F801E28083E9882E81E0982E40919601EC
:1028E000509197014115510509F430C19091930120
:1028F00020919401892F82238F3F09F427C1D08032
:10290000C180A380B480F0909501B501641B750B64
:10291000FF2009F4E7C080919801382F307F683C90
:10292000710508F0ABC0311178C0FE2C2C1114C019
:102930009D1112C0E11010C08F70806180939801CA
:10294000C4010E94960E80919801F80185838F2D15
:102950006196ECE00C94B91BA114B104C9F18D2D62
:102960008C218F3FA9F181E08E2580FF05C04E2D7F
:102970006C2D8D2D0E941706A114B10459F18D2DD7
:102980008C218F3F39F181E08E25F82FF170BF2E19
:1029900080FF39C04E2D6C2D8D2D0E941706A82E5C
:1029A000811131C0DD86CE868D859E850E94EC0921
:1029B000292F22952F70243078F49F702230A8F0B0
:1029C0009923B9F0F8019581907F99F4FA2CBFCF43
:1029D00080E0CBCF80E0D9CF2A5F2F70223068F023
:1029E000C8010E94960EAB2CF1CF992311F08823D9
:1029F00069F3805E883050F3F3CF803F38F3815F16
:102A0000833070F7E3CFEE2009F4A1CF80919801D5
:102A1000816080939801F12C9ACF2C1105C09D11F3
:102A200003C0EE2009F477C0C8010E94F909882389
:102A300009F1EE20F9F080919801803270F0209138
:102A400093013091940138872F831986BB86AA861B
:102A50008C87CE0107960E94960E86E0F801A3E9C6
:102A6000B1E001900D928A95E1F70E94FF13FF24D7
:102A7000F3946DCFC8010E94960EF9CF31110AC0B0
:102A800083E991E00E94960E86E0F40111928A9506
:102A9000E9F7C1CF2C110EC09D110CC0E1100AC086
:102AA0008583C8010E94960E86E0F40111928A95F2
:102AB000E9F74DCFC8010E94F9098823D9F2EE2029
:102AC000C9F280919801803240F2209193013091B7
:102AD00094013A8329831B82BD82AC828E83CE010E
:102AE0000196B9CF683C7105F8F6FE2CEE2011F284
:102AF0002C111EC09D111CC08091980180FD0FC03B
:102B0000982F907F61F08583903F31F0982F907FD0
:102B1000905F8F70892B8583C8010E94960E86E096
:102B2000F801A3E9B1E001900D928A95E1F70FCF8A
:102B3000C8010E94F909811190CF809198018160AC
:102B400080939801C8010E94960E01CFEE2009F4EF
:102B500091CFC8010E94F909F82E882309F48ACF81
:102B600086E0F801A3E9B1E001900D928A95E1F7C2
:102B700080919301909194010E94EC090E94FF13AF
:102B8000E6CEA7E1B0E0E7ECF5E10C94A71B4B8B98
:102B90005C8B6D8B7E8B8F8B61111092D4011A8AA6
:102BA000198A85E0FE017396DE011D9601900D9253
:102BB0008A95E1F786E0FE013D96DE0117960190C9
:102BC0000D928A95E1F7CE0107960E945914811162
:102BD00012C086E0FE013796DE01119601900D923B
:102BE0008A95E1F78A859B85892B29F088859F81C5
:102BF00089238F3F89F58091CA01909199018913AA
:102C000017C06796E2E00C94C31B66E070E00E9478
:102C1000791BDC01A656BE4F96E0FE01319601906D
:102C20000D929A95E1F7209399010E943B06E3CF1C
:102C300090E066E070E00E94791B86569E4F0E94ED
:102C400059148823F1F28091CA0190E001968770AF
:102C500099278093CA01CFCF8091990190E09C0180
:102C60002F5F3F4F277033274091CA014217130649
:102C700061F60E94AF0B109299011092CA0186E092
:102C8000E3E9F1E0DF011D928A95E9F7B4CFA5E011
:102C9000B0E0EDE4F6E10C94A51B0E9482038C01E8
:102CA0008091D7019091D80180179107A1F08FEF03
:102CB00089838A831B820E9482038160782F9D838F
:102CC0008C8349815A816B818D810E94C11510933B
:102CD000D8010093D7012596E4E00C94C11B1F9204
:102CE0000F920FB60F9211242F933F934F935F9340
:102CF0006F937F938F939F93AF93BF93CF93DF9304
:102D0000EF93FF93D091E900DF708091EC00C82F22
:102D1000C17080FDC0E81092E9008091F000877FCB
:102D20008093F00078940E94C50B1092E900809186
:102D3000F00088608093F000CD2BCF70C093E90045
:102D4000FF91EF91DF91CF91BF91AF919F918F91C3
:102D50007F916F915F914F913F912F910F900FBE97
:102D60000F901F9018951F920F920FB60F9211247B
:102D70002F933F934F935F936F937F938F939F9383
:102D8000AF93BF93EF93FF938091E10082FF09C05F
:102D90008091E20082FF05C08091E1008B7F8093EB
:102DA000E1008091E10080FF17C08091E20080FF88
:102DB00013C08091E2008E7F8093E2008091E20058
:102DC00080618093E2008091D80080628093D80077
:102DD00019BC85E0809353028091E10084FF2BC0F1
:102DE0008091E20084FF27C084E089BD86E089BD30
:102DF00089B5982F917080FFFBCF8091D8008F7D8F
:102E00008093D8008091E1008F7E8093E1008091D3
:102E1000E2008F7E8093E2008091E20081608093E7
:102E2000E20080915402882309F441C084E0809339
:102E30005302809153028091E10083FF27C080916B
:102E4000E20083FF23C08091E100877F8093E1004F
:102E500082E080935302109254028091E1008E7FB1
:102E60008093E1008091E2008E7F8093E200809168
:102E7000E20080618093E20042E060E080E00E9436
:102E8000F0028091F00088608093F000FF91EF9154
:102E9000BF91AF919F918F917F916F915F914F9172
:102EA0003F912F910F900FBE0F901F90189580911A
:102EB000E30087FD93E090935302BBCF78941F9279
:102EC0001FB61F9211248F939F93AF93BF9380914E
:102ED0005D0290915E02A0915F02B0916002019646
:102EE000A11DB11D80935D0290935E02A0935F02CD
:102EF000B0936002BF91AF919F918F911F901FBEC1
:102F00001F9018951F921FB61F9211248F939F93A5
:102F1000AF93BF9380914602811113C080915D02EF
:102F200090915E02A0915F02B09160024196A11D56
:102F3000B11D80935D0290935E02A0935F02B093F7
:102F40006002BF91AF919F918F911F901FBE1F9004
:102F50001895CDB7DEB7A7970FB6F894DEBF0FBEB2
:102F6000CDBF84B7877F84BF0FB6F894A8958091B2
:102F70006000886180936000109260000FBE80E85E
:102F800090E00FB6F89480936100909361000FBEBB
:102F90008FEF93E090935301809352011092E200DF
:102FA0001092E1008091E00081608093E0008091C8
:102FB000D8008F778093D80019BC8091630081601E
:102FC000809363001092D901809163008E7F80937B
:102FD000630081E08093D9011092E2001092E10039
:102FE0008091D8008F778093D8008091D800806836
:102FF0008093D8008091D8008F7D8093D80084E0A2
:1030000089BD86E089BD09B400FEFDCF1092530250
:1030100010925402109252021092510242E060E06B
:1030200080E00E94F0028091E1008E7F8093E100B9
:103030008091E20081608093E2008091E2008860EC
:103040008093E2008091E0008E7F8093E000809189
:10305000E20084608093E200789480915302882398
:10306000A1F01091E9001F709091EC00892F817000
:1030700090FD80E8182B1092E9008091E80083FD14
:103080000E94C50B1F701093E90082E084BD93E09D
:1030900095BD9AEF97BD80936E000E94230A81111F
:1030A00002C00E9469098AB18B678AB987B187B962
:1030B00084B114B888B188B985B18FEF85B9AAED0C
:1030C000B1E0E0E2F2E011921192119211921D92A0
:1030D0001D921D921D9222E0E034F207A1F790E0CC
:1030E00080E00E94E31B873E9E4F21F40E94230A4A
:1030F000811161C067EE7EEF90E080E00E94071CC6
:1031000060E082E090E00E94E91B60E083E090E0F4
:103110000E94E91B1092FA0160E074E184E090E003
:103120000E94071C60E086E090E00E94E91B6FEFC0
:1031300087E090E00E94E91B40E050E0BA0188E09F
:1031400090E00E94FB1B60E08DE090E00E94E91B94
:1031500040E050E0BA0188E190E00E94FB1B60E093
:1031600087E190E00E94E91B40E050E0BA018CE169
:1031700090E00E94FB1B70E060E080E290E00E9423
:10318000071C40E050E0BA0188E190E00E94FB1B80
:1031900080E00E9450090E94690940E050E0BA01B5
:1031A0008FE090E00E94FB1B40E050E0BA0183E119
:1031B00090E00E94FB1B82E090E00E94DB1B80936A
:1031C000FE0184E090E00E94E31B9093FD01809358
:1031D000FC010E949C07FFEF26E781E0F1502040B0
:1031E0008040E1F700C000000E949C07809120020F
:1031F00080FF08C06FEF7FEF90E080E00E94071C27
:103200000E94780783E090E00E94DB1B0E94120777
:103210003E9A469A3D9A459A81E091E09093430206
:10322000809342028091530204E016E0853009F455
:10323000C3C00E949C070FEF11E020E232E078014A
:10324000F70141915191619171917F01F901819152
:103250009191A191B1919F01EFE1F2E0EE15FF058F
:1032600009F4B6C0481759076A077B0749F380E29B
:1032700092E09FA38EA3312CEEA1FFA1C190D1902B
:10328000E190F190FFA3EEA3F8014190519061907D
:1032900071908F014C145D046E047F04E1F1212CC8
:1032A000812C912C540183944C245D246E247F2422
:1032B000D301C20188219921AA21BB21892B8A2B04
:1032C0008B2BD9F029A23AA221E0D701C60188218F
:1032D0009921AA21BB21892B8A2B8B2B09F420E071
:1032E0002BA30E9482038160782F9DA38CA349A108
:1032F0005AA16BA18DA10E94C1152394880C991C21
:10330000AA1CBB1CF2E12F12D3CFF8013497C08264
:10331000D182E282F382339428E03212ADCF8FB7AC
:10332000F89440915D0250915E0260915F0270914D
:1033300060028FBF55C080915302843039F180E024
:103340000E94150710924602E8E1F0E020E40FB673
:10335000F894A895E09360000FBE2093600083B7B7
:10336000817F846083BF83B7816083BF78948895B1
:1033700083B78E7F83BF0FB6F894A89580916000C5
:10338000886180936000109260000FBE80915202AD
:10339000882391F00E949C07E0E2F2E081919191F4
:1033A000A191B191892B8A2B8B2B09F083C180E4E9
:1033B00092E08E179F0791F780915302853009F4B0
:1033C000BACF0E94AF0B0E94F2030E94150731CFC3
:1033D000481759076A077B0709F044C00E9447163F
:1033E0000E94F20390911F02891779F080931F02C7
:1033F0009FB7F89440915D0250915E0260915F0228
:10340000709160029FBF0E94150780915302843023
:1034100009F008CF83E08093E9008091E80082FF03
:1034200001CF8091E80090E085FF0BC00E94A002D0
:1034300040E2E42EF12C8E010F5F1F4F882301F133
:1034400091E08091E8008B778093E800992309F45C
:10345000E9CEE981E150E33160F5F0E0E159F34E66
:103460000C948A1BE0E2F2E0FFA3EEA304CF80916C
:10347000F100F80181938F01F1E0EF1AF10801F3F7
:103480008091E80085FDF3CF8091E8008B778093F1
:10349000E8000E94A002882399F3D2CF1A828CE020
:1034A0008B8324C08A81823009F41AC128F48130C8
:1034B00061F08FEF89831AC0833009F18430C9F736
:1034C0001B821C821D821E8211C02FB7F89460914E
:1034D0005D0270915E0280915F02909160022FBF49
:1034E0000E94901B6B837C838D839E8340E250E01F
:1034F000BE016F5F7F4F82E00E94220793CE2B8137
:10350000822F90E0FE013196275F8830910570F799
:10351000DC01AA0FBB1FAA0FBB1FA05EBD4F3C91D1
:1035200011964C91119712965C9153834483358385
:10353000019633962813E9CFD9CF8A81823019F0CA
:103540008530A1F2B6CF6B817C818D819E810E94F6
:10355000901B85E290E00E94E91BC8CF4C816B81F3
:103560008A810E9479099827892798279E838D83CD
:10357000BDCF2D813E813227232732274C816B819D
:103580008A810E94E608B2CF0E941309AFCF80E182
:103590008A83ACCF1A828AE783CFEA80FB80FE243D
:1035A000EF24FE248E010F5F1F4FCC80C00ED12E62
:1035B000D11CC7018A579C4F0C151D0509F496CFE5
:1035C0002AE7E216F10450F40E94DB1BF801848321
:1035D000FFEFEF1AFF0A0F5F1F4FEBCFF8011482C6
:1035E000F7CF0A811B81102701271027CE010196F2
:1035F0006C01EC80E00EF12EF11CC8018A579C4F43
:103600000E151F0509F472CF0A37110520F4F601D3
:1036100064810E94E91BFFEFCF1ADF0A0F5F1F4F83
:10362000ECCF0E94D60862CF83E0B2CFEA80FB8065
:10363000FE24EF24FE248E010F5F1F4FCC80C00EAE
:10364000D12ED11CC70186960C151D0509F44ECF4D
:1036500020E6E21623E0F20650F40E94DB1BF8019C
:103660008483FFEFEF1AFF0A0F5F1F4FEBCFF801C4
:103670001482F7CF0A811B81102701271027CE0162
:1036800001966C01EC80E00EF12EF11CC8018696CB
:103690000E151F0509F42ACF0036E3E01E0720F4BB
:1036A000F60164810E94E91BFFEFCF1ADF0A0F5F6A
:1036B0001F4FECCF09BD19BD09B400FEFDCF8091AD
:1036C000D8008F7D8093D8008091E0008260809345
:1036D000E0008091E00081FDFCCF0E94AF0B6CCE3A
:1036E00085E290E00E94DB1B1B821C821D828E8380
:1036F000FDCE0024552704C0080E591F880F991FBE
:10370000009729F076956795B8F37105B9F7802D84
:10371000952F0895EE0FFF1F0590F491E02D099469
:1037200069279627692778278727782708952F9272
:103730003F924F925F926F927F928F929F92AF9241
:10374000BF92CF92DF92EF92FF920F931F93CF938E
:10375000DF93CDB7DEB7CA1BDB0B0FB6F894DEBF25
:103760000FBECDBF09942A88398848885F846E844B
:103770007D848C849B84AA84B984C884DF80EE8095
:10378000FD800C811B81AA81B981CE0FD11D0FB69E
:10379000F894DEBF0FBECDBFED010895FB01DC0143
:1037A00004C08D910190801921F441505040C8F718
:1037B000881B990B0895F999FECF92BD81BDF89AA7
:1037C000992780B50895A8E1B0E042E050E00C945C
:1037D0000F1C262FF999FECF92BD81BDF89A019753
:1037E00000B4021639F01FBA20BD0FB6F894FA9A49
:1037F000F99A0FBE08950396272F0E94EA1B0E9494
:10380000E91B252F0E94EA1B242F0C94EA1B01962A
:10381000272F0E94EA1B0C94E91BDC01CB01FC0161
:10382000F999FECF06C0F2BDE1BDF89A319600B419
:103830000D9241505040B8F70895F894FFCF850895
:10384000870889088B088D088F08910893089508C8
:10385000970899089B089D089F08A108A308A50838
:10386000A40CCC0C6E0ECC0C6E0EFF0C200D6E0E4C
:103870001D0E2A0E14101810091010101C10201004
:1038800024109D119D11D811D81178120A120A1214
:103890000A129212FF12101310136110D610691041
:1038A000331037106D103B1071107D104710CF1082
:1038B0004B1081104F108510AD1053108910B410AB
:1038C00059108F1097103F107510431079105D102C
:1038D0009310A310BD10CD102D106510DD104E1AE1
:1038E000521A9D1AAE1AB91AC41A591A591A591AE3
:1038F000591A591AC71ACA1ACD1AF11A111B141BD0
:04390000161B3A1B3D
:10390400057F0364077E035D0701818283E200E98A
:1039140000EA00B500B600B700CD008301CC008AF0
:103924000192019401210223022402250226022786
:10393400022A02B300B4006F0070009F01CB019F04
:1039440002A002402232C800A60074000A04230424
:0239540043042A
:00000001FF
