:100000000C94DA020C94F7020C94F7020C94F702A9
:100010000C94F7020C94F7020C94F7020C94F7027C
:100020000C94F7020C94F7020C941A1F0C94D61E31
:100030000C9417200C94F7020C94F7020C94F7021E
:100040000C94F7020C94F7020C94F7020C94F7024C
:100050000C94F7020C94F31F0C94F7020C94F70223
:100060000C94F7020C94F7020C94F7020C94F7022C
:100070000C94F7020C94F7020C94F7020C94F7021C
:100080000C94F7020C94F7020C94F7020C94F7020C
:100090000C94F7020C94F7020C94F7020C94F702FC
:1000A0000C94F7020C94F7020C94F7020501090274
:1000B000A10185020901A1000509190129081500FE
:1000C0002501950875018102050109300931158165
:1000D000257F95027508810609381581257F9501D0
:1000E00075088106050C0A38021581257F95017572
:1000F000088106C0C005010980A101850319012AF4
:10010000B700150126B700950175108100C0050CD8
:100110000901A101850419012AA002150126A002E6
:10012000950175108100C005010906A1018506052C
:100130000719E029E71500250195087501810205D9
:1001400007190029EF1500250195F07501810205B9
:10015000081901290595057501910295017503910D
:1001600001C00660FF0961A1010962150026FF00B8
:100170009520750881020963150026FF00952075FA
:10018000089102C005010906A101050719E029E748
:1001900015002501950875018102950175088101F9
:1001A0000507190029FF150026FF0095067508812F
:1001B000000508190129051500250195057501910E
:1001C00002950175039101C00000000000000000CD
:1001D000000000000000000000000000000000001F
:1001E0000000000000000000000000007E0F00D4AE
:1001F000FFFFFFC7000000780000000000000000C3
:100200002A2B280000000000000000000000000071
:1002100000000029000000002C1E3420212224347C
:100220002627252E362D3738271E1F20212223244E
:1002300025263333362E37381F0405060708090AEA
:100240000B0C0D0E0F101112131415161718191A86
:100250001B1C1D2F3130232D350405060708090A04
:100260000B0C0D0E0F101112131415161718191A66
:100270001B1C1D2F3130354C1E0F0500047F3F1F06
:10028000643214643214783C1E1E140A0500010105
:100290000101010101010102020202020202020245
:1002A0000303030303030303040404040404040515
:1002B00005050505060606060607070707070808D9
:1002C0000808090909090A0A0A0B0B0B0C0C0C0D8A
:1002D0000D0D0E0E0E0F0F0F101011111112121323
:1002E000131414151516161717181819191A1A1B9E
:1002F0001B1C1D1D1E1E1F202021222223242425FD
:100300002626272829292A2B2C2D2D2E2F30313235
:1003100032333435363738393A3B3C3D3E3F404145
:1003200042434445464748494A4C4D4E4F5051532D
:1003300054555658595A5B5D5E5F616264656668E4
:10034000696B6C6D6F7072737577787A7B7D7E8068
:1003500082838587888A8C8E8F91939596989A9CB4
:100360009EA0A2A3A5A7A9ABADAFB1B3B5B7BABCC8
:10037000BEC0C2C4C6C9CBCDCFD1D4D6D8DBDDDF99
:10038000E2E4E7E9EBEEF0F3F5F8FAFDFFFFAA7F10
:1003900055402223252628292A2C2D2F303233356B
:1003A00036383A3B3D3E4042434547494A4C4E5021
:1003B00051535557595A5C5E6062646668696B6D4B
:1003C0006F71737577797B7D7F81838587898A8C4F
:1003D0008E90929496989A9C9E9FA1A3A5A7A8AA56
:1003E000ACAEAFB1B3B4B6B8B9BBBCBEBFC1C2C38B
:1003F000C5C6C7C9CACBCCCDCED0D1D2D2D3D4D525
:10040000D6D7D7D8D9D9DADADBDBDBDCDCDCDCDC4D
:10041000DDDDDDDDDCDCDCDCDCDBDBDBDADAD9D925
:10042000D8D7D7D6D5D4D3D2D2D1D0CECDCCCBCAB3
:10043000C9C7C6C5C3C2C1BFBEBCBBB9B8B6B4B3D9
:10044000B1AFAEACAAA8A7A5A3A19F9E9C9A98966F
:100450009492908E8C8A89878583817F7D7B797742
:100460007573716F6D6B6968666462605E5C5A5922
:1004700057555351504E4C4A4947454342403E3DE3
:100480003B3A3836353332302F2D2C2A2928262571
:10049000232224002500260025022100220023001B
:1004A00038001E001F0020002D0027002800370004
:1004B0002152007C01000100010001000100010047
:1004C0000100010001000100010001000100010024
:1004D0000100010001000100010001000100010014
:1004E0000100010001000100010001000100010004
:1004F00001000100010001000100010001000100F4
:1005000001000100010001000100010001000100E3
:10051000010009025B00030100A0FA0904000001C8
:100520000301010009211101000122440007058196
:100530000308000109040100020300000009211161
:1005400001000122220007058203200001070503A4
:100550000320000109040200010300000009211129
:1005600001000122B60007058403200001120100EA
:100570000200000008756F61010100010200011016
:1005800003530077006500650074003100360000F9
:10059000001C0331007500700020004B00650079DD
:1005A0000062006F006100720064007300000004CC
:1005B0000309040011241FBECFEFDAE0DEBFCDBF78
:1005C00022E0A8E9B1E001C01D92AC39B207E1F721
:1005D00011E0A0E0B1E0E2E4F0E502C005900D9288
:1005E000A839B107D9F70E943E200C94B8270C9483
:1005F0000000482F2091980290915F0257E0291344
:1006000002C080E0089530E0529FF001539FF00D4A
:100610001124E05AFD4F8181681306C08081481380
:1006200003C085818111EECF2F5F3F4F2770E7CF49
:10063000E8EDF0E080818E7F80831092E2001092DE
:10064000DA001092E100A0EEB0E08C9181608C9312
:1006500080818F77808319BCA7EDB0E08C918E7F6D
:100660008C9380818F7E8083109248020895209120
:10067000E4003091E50095E6A9012091EC00822F7D
:10068000817020FF06C08091E80080FF06C080E0F6
:1006900008952091E80022FD1AC080915502882318
:1006A00089F0853089F08091EB0085FD0FC02091A5
:1006B000E4003091E50042175307F9F29150E1F65A
:1006C00084E0089582E0089583E0089581E008952C
:1006D0008091570287FF13C08091E80082FF06C017
:1006E0008091E8008B778093E80004C080915502E8
:1006F0008111F2CF0895809155028823D9F380911A
:10070000E80080FFF8CF8091E8008E77ECCF982F3B
:100710009093E900242F762F50E0891731F07091E3
:10072000EC002091ED005091F00021FD07C09F5F8B
:10073000973071F78093E90081E008953091EB00E4
:100740003E7F3093EB003091ED003D7F3093ED0024
:100750003091EB0031603093EB007093EC0020930C
:10076000ED005093F0002091EE0027FDE0CF80E0F7
:100770000895B0E0A0E0EFEBF3E00C942426C8ED80
:10078000D0E088818F7E8883E7EDF0E08081816012
:10079000808384E082BF81E08093480288818E7FDD
:1007A000888302EE10E0F80110821092DA0081EEE8
:1007B000C82ED12CF601108288818F77888388819A
:1007C0008068888388818F7D888319BC1092550248
:1007D00010925602109254021092530290EEE92E9B
:1007E000F12CF70180818B7F8083888181608883F1
:1007F00042E060E080E00E948703F60180818E7F06
:100800008083F8018081816080838081886080831B
:10081000F70180818E7F8083888180618883CDB756
:10082000DEB7E8E00C944026FC0180915D029091D7
:100830005E0286179707A0F06115710529F4909163
:10084000E8009E779093E80090E06115710551F4FF
:10085000911108C08091E80082FF34C080E00895C3
:10086000BC01F2CF809155028823C1F18530C1F1DE
:100870008091E80083FD30C08091E80082FDEACFDE
:100880008091E80080FFE1CF8091F3002091F20099
:10089000382F6115710519F02830310558F091E0B5
:1008A0002830310509F090E02091E8002E77209360
:1008B000E800CBCF81918093F100615071092F5FE7
:1008C0003F4FE7CF80915502882341F0853041F0BA
:1008D0008091E80083FFBECF81E0089582E0089513
:1008E00083E0089580914A02089587E797E79093FF
:1008F00001088093000888E19AE00FB6F894A89563
:10090000809360000FBE90936000FFCF9C014FB7B3
:10091000F8948091440290914502A0914602B091D2
:1009200047024FBF821B930B08952FB7F894809115
:10093000440290914502A0914602B09147022FBF18
:10094000089590911C019923D1F09091410297FF55
:1009500016C0E82FE695E695E695EE31E0F4F0E076
:10096000EE55FE4F282F277081E090E001C0880FE0
:100970002A95EAF780959281892382830895ECE98C
:10098000F1E09191891303C0DF0111971C9291E06E
:10099000E23AF907B1F7089590911C019923C1F04B
:1009A0009091410297FF14C0E82FE695E695E695F1
:1009B000EE31F8F4F0E0EE55FE4F877021E030E0C4
:1009C00001C0220F8A95EAF78281822B82830895E3
:1009D000ACE9B1E0EFEF90E02D91821751F0EF3FDD
:1009E00019F4211101C0E92F9F5F9630A9F7EF3F5D
:1009F00009F408950E2E000CFF0BE656FE4FE6CFCD
:100A0000A3E0B0E0E6E0F5E00C942A2620913F0256
:100A10003091400228173907A1F09093400280934B
:100A20003F02E0913D02F0913E02309751F024E008
:100A300029839B838A830084F185E02DCE01019672
:100A400009952396E2E00C944626A3E0B0E0EBE2A1
:100A5000F5E00C942A2620913B0230913C022817A5
:100A60003907A1F090933C0280933B02E0913D0254
:100A7000F0913E02309751F023E029839B838A83D3
:100A80000084F185E02DCE01019609952396E2E0E0
:100A90000C944626E0913D02F0913E02309729F0F9
:100AA0000190F081E02D0995089580E008950E945D
:100AB00095049C019091370280913802982B21F087
:100AC00030933402209333029091390280913A029C
:100AD000982B21F03093320220933102E0913D02B5
:100AE000F0913E02309749F082E080933502068013
:100AF000F781E02D85E392E0099508958091300219
:100B000080FD16C081FD16C082FD16C080912F02A7
:100B10008823A1F0883280F428E0829FC00111244C
:100B200068E270E00E94EA25862F672B39F008956D
:100B300082E0089584E0089588E0089581E00895B2
:100B40008091300280FD14C081FD14C082FD16C06A
:100B500080912E02882381F08E3180F420E5829FDF
:100B6000C00111246EE170E00E94EA25862F0895ED
:100B700084E1089588E2089588E0089580E5089565
:100B8000282F35EB2303C001112497FF04C08058A0
:100B90009109892F089580589F4FFBCFFA01811149
:100BA00001C0FB0109950895089580912602982FB0
:100BB0009C7F29F4837084608093260208958C3A88
:100BC000E8F38370886AF8CFAF92BF92DF92EF921A
:100BD000FF920F931F93CF93DF93082F162FE901F6
:100BE000E42FF0E0E357FD4F611110C0E4915E2F58
:100BF0004E2F4983E8835A83DF91CF911F910F9144
:100C0000FF90EF90DF90BF90AF900895E62EF12C0B
:100C10004491D42EE42FF0E026E0829FC0011124FD
:100C20002FEF30E0B9010E94D625802F90E0880F89
:100C3000991F55E5569FD001579FB00D11248A1B6F
:100C40009B0B982F990F890F5901AE18BF08AE9EC4
:100C5000D001AF9EB00DBE9EB00D11245B2F189F2A
:100C600080011124012F11275901A01AB10AAE9E4B
:100C70008001AF9E100DBE9E100D11245901A81ABF
:100C8000B108AE9CC001AF9C900DBE9C900D11248C
:100C9000892F9927281B390B2E9FC0012F9F900D5C
:100CA0003E9F900D1124E92F62307105A1F050F4A0
:100CB0006115710509F49DCF6130710581F0EB2F4D
:100CC000512F97CF6430710569F080F0663071055F
:100CD00009F48FCFF4CFE42F4B2F592F8ACFE42F75
:100CE000412F87CFEB2F542F492F83CF4B2F5D2DD3
:100CF000E12F7FCF80E00895F894E82FE295EF7020
:100D0000F0E031A1282F2F7081E090E001C0880F22
:100D10002A95EAF7982F9095932391A392A1892B76
:100D200082A3789408959091410292FF10C041E00F
:100D3000282F2471243009F040E031E0282F287159
:100D4000283009F030E0431711F02CE0822793FFA0
:100D500010C041E0282F2471243109F040E031E037
:100D6000282F2871283109F030E0431711F02CE0CA
:100D700082273091420230FF10C051E0282F2171AC
:100D8000213009F050E041E0282F2871283009F087
:100D900040E0541711F029E0822731FF10C041E0F4
:100DA000282F2171213109F040E031E0282F2871EE
:100DB000283109F030E0431711F029E0822794FD33
:100DC000877E089582389105B9F1B0F48133910599
:100DD00009F47DC048F48932910509F46DC08A3266
:100DE000910509F47BC008958533910509F45FC02E
:100DF0008933910509F10895833E9105D9F138F4BD
:100E0000803E910529F1823E910579F10895863E53
:100E10009105D9F1873E910509F43EC0843E9105C4
:100E200041F52091420221FF24C08091410284FDBE
:100E300019C087EE90E0089520914102237009F0D7
:100E40005AC02091420223FF14C089E290E0089525
:100E50002091410220FD38C03091420230FF09C08C
:100E600024FF43C090E080E008952091410222FDDC
:100E7000F7CF08952091410222FD3AC030914202FD
:100E800030FD39C024FFF5CFEDCF2091410223FF83
:100E9000F0CF24FDE7CFCDCF2091410223FD2EC01E
:100EA0003091420231FFEECF84EE90E00895209120
:100EB000410225FFDECFC9CF2091410225FD21C08F
:100EC0002091420223FFD5CF89E390E0D2CF209139
:100ED000410226FFCECF8AE290E0089520914102A0
:100EE00026FFC7CF81E390E0089583EE90E0089558
:100EF00082EE90E0089580EE90E0089586EE90E016
:100F0000089585E390E008951F93CF93DF930E94A7
:100F1000E206EC01C11580E5D807F0F5C11580E4C3
:100F2000D80708F09CC0C03ED10520F5CD3CD105C6
:100F300008F082C0C83AD10578F4C53AD10508F066
:100F400073C0C130D10519F1209709F1C430D10522
:100F5000F0F4D0E0C0E01BC0C33CD105D0F7C85AC4
:100F6000D0E0CC0FDD1FC05EDE4F0990D881C02DD0
:100F7000D4640DC0C11580E2D80708F0D1C0C115F6
:100F800081E0D80708F05AC0C83ED10510F7CE015D
:100F9000DF91CF911F910895C03682E5D80718F5EB
:100FA000C03482E5D80708F06BC0C03282E5D807AC
:100FB00008F05FC0C11582E5D80708F497C02C2F50
:100FC0002695269580E2289F900111248C2F83700E
:100FD000C1E0D0E002C0CC0FDD1F8A95E2F7C22B42
:100FE000D32BDD68D4CFC03A82E5D80760F4C0388F
:100FF00082E5D80708F459C0CF71D0E0DC2FCC27A8
:10100000C46FD06AC4CFC03C82E5D80708F462C080
:10101000C03E82E5D80708F09CCFDC2FCC27CC2738
:10102000DF71C06FD06AB3CFC55AD0E0C35EDE4F68
:10103000C881D0E0D064ABCFD065A9CF8D2F0E94FE
:101040009306182FCE0199270E94E206C12FD0E007
:10105000DC2FCC27CC27DF71C82BD92B98CFCE0122
:1010600099270E94E206CC27DF70C82BD92BD06AC3
:101070008ECFCF71D0E0DC2FCC27C16FD06A87CF65
:101080002C2F26952695277080E2289F9001112409
:101090008C2F8370C1E0D0E002C0CC0FDD1F8A9599
:1010A000E2F7C22BD32BDC6872CF2C2F2695269526
:1010B000277080E2289F900111248C2F8370C1E05B
:1010C000D0E002C0CC0FDD1F8A95E2F7C22BD32BF4
:1010D000DA685DCF8C2F8F710E949306C82FD0E005
:1010E000DC2FCC27CC27DF71D06251CF8C2F8F71B2
:1010F0000E94930655E0D695C7955A95E1F7CF70B3
:10110000D0E0DC2FCC27282F30E084FF05C044E05E
:10111000220F331F4A95E1F7C22BD32BD06937CF6B
:101120008D2F8F710E949306182FCE0199270E9450
:10113000E206C12FD0E0DC2FCC27CC27DF71C82BF3
:10114000D92BD2CF80959091FC0198239093FC01EC
:1011500008958091FC019091D301892B9091D20147
:10116000992391F0892B90911C01992371F0909112
:10117000410297FF0AC09EE124EA31E040E091502D
:1011800040F441111092D201089596E02CE931E02B
:10119000F5CFF90151919F01552389F34F5FEFCFAF
:1011A0008091980290915F02981301C008958F5F1B
:1011B0008770FACF943080F5843070F544E0949FC6
:1011C00090011124820F932F911D682F677023E0E7
:1011D000969587952A95E1F7FC01EE0FFF1FE80F22
:1011E000F91FEC53FE4F50E040E080E0219130E0E9
:1011F000062E02C0369527950A94E2F72170332710
:10120000042E01C0220F0A94EAF7822B4F5F5F4F32
:101210004330510559F7089580E00895943098F5CA
:10122000843088F544E0949F90011124820F932F1D
:10123000911D282F277041E001C0440F2A95EAF73D
:1012400023E0969587952A95E1F7FC01EE0FFF1FA5
:10125000E80FF91FEC53FE4F90E080E070E05191F1
:10126000DF0111979B01082E02C0369527950A943D
:10127000E2F7217021952527242325272C93019619
:101280008330910561F70895809307020895909146
:10129000070221E030E0F90101C0EE0F8A95EAF77C
:1012A000D90102C0AA0FBB1F6A95E2F7EA2B01C061
:1012B000220F4A95EAF7892F8E23E81305C0292BC0
:1012C000822F0E944409089520952923F9CF21E017
:1012D00030E001C0220F8A95EAF72095809107023D
:1012E00082230E94440908959091D1018095892319
:1012F0008093D101282F277069F4891759F09091B4
:10130000420292FF07C08695869586950E946709DE
:101310001092D101089521E030E001C0220F8A959A
:10132000EAF780910702822B0E9444090895809376
:10133000FD010895409137029091390220913A02BF
:10134000662309F469C0942B922B20913802922BCA
:1013500031F098E090932E0291E090932F028D3C13
:1013600041F40E94A0058195809338020E945705A0
:1013700008958E3C19F40E94A005F6CF8F3C31F4FD
:101380000E94A005819580933702F0CF803D19F42B
:101390000E94A005F8CF893D29F40E947E05809324
:1013A0003902E4CF8A3D21F40E947E058195F7CF72
:1013B0008B3D31F40E947E05819580933A02D6CF11
:1013C0008C3D19F40E947E05F8CF9FE2980F98306B
:1013D00070F4815D990B21E030E001C0220F8A9505
:1013E000EAF780913602822B80933602BFCF8D3D83
:1013F00031F480913002816080933002B7CF8E3D0E
:1014000021F4809130028260F7CF8F3D09F0AECF9A
:10141000809130028460F0CF8D3C59F48091380285
:1014200087FF0DC01092380241110BC010922E029E
:1014300008C08E3C81F48091380218169CF3442336
:1014400081F08091390290913A02892B09F08ECF78
:1014500010922F028BCF8F3C49F447FFF0CF1092B0
:101460003702809138028111ECCFE0CF803D19F432
:101470001416ACF3E4CF893D29F4191604F7109241
:101480003902DDCF8A3D19F497FFD9CFF8CF8B3DD4
:1014900029F427FFD4CF10923A02D1CF8C3D19F412
:1014A0001216CCF3CCCF9FE2980F983090F4815D68
:1014B000990B21E030E0B90102C0660F771F8A95D1
:1014C000E2F7CB0180959091360289238093360212
:1014D000B6CF8D3D31F4809130028E7F8093300203
:1014E000AECF8E3D21F4809130028D7FF7CF8F3DBE
:1014F00009F0A5CF809130028B7FF0CF809580FFDF
:1015000006C0289A81FF05C05D9A81E00895289859
:10151000F9CF5D98FACF0F931F93CF93DF938B0191
:10152000EA0190915502943061F58093E9008FEFC4
:101530009091E800815095FD06C095ED9A95F1F7E0
:1015400000008111F5CF8091E80085FF1AC00E944C
:101550003703811111C08091E80085FD06C080919C
:10156000E8008E778093E800F2CFF80181918F0137
:101570008093F100219779F78091E8008E7780932E
:10158000E800DF91CF911F910F91089543E050E063
:10159000BC0184E00E948B0A089546E050E0BC0143
:1015A00084E00E948B0A089540E250E0BC0184E090
:1015B0000E948B0A0895CF93DF93EC0148E050E03E
:1015C000BC0181E00E948B0A88E0FE01ABE4B2E03E
:1015D00001900D928A95E1F7DF91CF910895809166
:1015E000260280FD06C010921F0210921E02109269
:1015F0002002219A35B13D7F25B122604FB7F89482
:101600008EE192E0FC015191CF0168E025B9000024
:1016100000C057FF35B9550F000000C000C000C022
:1016200035B900C06A9591F7F2E081329F0751F712
:101630004FBF8FE594E00197F1F700C000000895D7
:10164000CF93DF93EC0180912702609128029C8167
:101650002EE132E040E0911102C0409129020E9447
:10166000E4050E94EF0A8C8190E001968170992731
:101670008C83DF91CF9108958F929F92AF92BF920A
:10168000CF92DF92EF92FF92CF93DF93EC014C81E8
:10169000E42EF12C9701D7010E94A9279B01AC01F0
:1016A0000E9474274B015C01E0E2F0E0EE19FF09B3
:1016B000A5E5B0E0AC019B010E9474276B017C01A1
:1016C0009F01DF010E940B269B01AC010E947F2736
:1016D0009B01AC01280D391D4A1D5B1DC701B601D8
:1016E0000E948727922F30E09A3248F563E0969F58
:1016F000A00111245595479540952EE132E0609167
:10170000280285E5891B0E94E4050E94EF0A9C815E
:1017100081E0992319F0903219F48FEF80931B0127
:1017200080911B01890F8C83DF91CF91FF90EF9007
:10173000DF90CF90BF90AF909F908F90089545E538
:1017400050E0BA01621B730B9B01AB01440F551FA4
:10175000420F531F57FFCECF4F5F5F4FCBCF10923B
:101760001F0210921E021092200280911C02181675
:1017700074F080911A0187FD0AC02EE132E0409199
:10178000290260912802809127020E94E4050E94AC
:10179000EF0A8091190190911C02980F90931C02FE
:1017A00020911A01280F20931A01121614F497FDA4
:1017B00003C081958093190108950F931F93CF93D0
:1017C000DF93FC0182811FEF80FF11E010921F0266
:1017D00010921E0210922002C4E0D0E000E080913E
:1017E0001B02800F823024F487FD8F5F811113C0AC
:1017F000809129028C9FA0018D9F500D1124559539
:101800004795559547952EE132E0609128028091E9
:1018100027020E94E405010F219709F70E94EF0AB1
:10182000113061F480911B02882319F0815080935C
:101830001B02DF91CF911F910F91089510921B020F
:10184000F8CFCF93DF93EC012EE132E040912902F3
:10185000609128028C810E94E4050E94EF0A9A811F
:101860008C8190FF05C08F5F8C83DF91CF910895AD
:101870008150FACF9091260290FF08C080931F02FA
:1018800060931E02409320020E94EF0A0895A3E095
:10189000B0E0EDE4FCE00C9428268C0180911D0260
:1018A00081110AC09E012F5F3F4F4FEF6FEF0E94E3
:1018B000E4058A8180931D02F8016481613069F03A
:1018C00080911D0240E0662361F040E0623011F437
:1018D00040911D0280E060E004C060911D0240E084
:1018E00080E00E943A0CF801848190E0019663E068
:1018F00070E00E94EA2584832396E4E00C94442659
:10190000A3E0B0E0E6E8FCE00C942A2690912602E1
:1019100090FF0AC09E012F5F3F4F0E94E4054B815C
:1019200069818A810E943A0C2396E2E00C94462653
:10193000CF93DF93EC01E6E2F2E0438162818C8198
:101940000E94800C8C818F5F8C83DF91CF910895F2
:10195000CF93DF93EC01EC81F0E0EE56FC4F449125
:10196000E6E2F2E0628181810E94800C8C818F5FCF
:101970008C83DF91CF910895CF93C82F6FEF8111A2
:1019800063E285E290E00E9421276FEFC11162E1DE
:1019900086E290E00E9421276FEFC11162E087E2AA
:1019A00090E00E942127CF910895CF93DF93C9EA59
:1019B000D0E060E0CE010E9421272196C11584E08D
:1019C000D807B9F7DF91CF9108951F93CF93DF9395
:1019D000122F8430E8F46430D8F44430C8F428E09E
:1019E000629FE001112450E0440F551FC40FD51F22
:1019F00020E2829FC0011124C80FD91F632FCE019E
:101A000089960E942127612FCE018A960E94212764
:101A1000DF91CF911F910895AF92BF92CF92DF9245
:101A2000EF92FF921F93CF93DF9382E9C82E84E059
:101A3000D82ED0E07601C0E014C0F5012591349194
:101A4000412F6C2F8D2F0E94E50C82E0A80EB11C57
:101A50001F5F143091F788E0E80EF11CCF5FC430AF
:101A600019F0570110E0E9CFDF5F80E2C80ED11C0A
:101A7000D43001F7DF91CF911F91FF90EF90DF906D
:101A8000CF90BF90AF90089580E00E94BC0C60E0C2
:101A900088E290E00E9421270E940C0D0E94D50C44
:101AA00081E00E94BC0C089585E290E00E94FD2632
:101AB000833289F486E290E00E94FD26823159F457
:101AC00087E290E00E94FD2691E0823009F090E0EC
:101AD000892F8170089580E0FCCF0F931F93CF93DF
:101AE000DF93843038F5643028F5443018F528E069
:101AF000629F8001112450E0440F551F040F151FF1
:101B000030E2839FC0011124080F191FC801899674
:101B10000E94FD26C82FD0E0DC2FCC27C8018A9672
:101B20000E94FD269E01282BC901DF91CF911F91B4
:101B30000F91089590E080E0F8CF462F743040F484
:101B4000643030F4843020F4672F0E946D0D0895C6
:101B500090E080E00895CF92DF92FF920F931F9361
:101B6000CF93DF936C01009107028091FD01082B58
:101B7000C3E0D0E010E0FC2EC8010C2E02C0959509
:101B800087950A94E2F780FD0CC02197A0F7F12C0D
:101B90008F2DDF91CF911F910F91FF90DF90CF900C
:101BA0000895B6018C2F0E949D0D0E948407019715
:101BB00061F3EECFCF93DF93EC010E94AB0DBE013A
:101BC0000E949D0D0E948407DF91CF910895FC0132
:101BD00024812223C1F0808191810E94DA0D9295A7
:101BE0009F70963091F058F4925F9F70923058F445
:101BF000803F19F030F4883E30F481E008959A5F18
:101C0000F4CF843FD1F380E00895883EB0F3813F64
:101C1000D1F7F3CFA6E0B0E0E0E1FEE00C94292696
:101C200049835A8349815A819923A1F0222391F053
:101C3000CA010E94AB0D182F682F89819A810E94DA
:101C40000E0969817A81812F0E949D0D2696E3E01D
:101C50000C944526CA010E94DA08182FF2CF0F9380
:101C60001F93CF93DF93FC01D281848191E0948311
:101C7000E2E9F3E03491E1E1F4E02491C09129023A
:101C8000D33040F490912702909321029091280242
:101C900090932202811115C0109224021092230207
:101CA0002EE132E0409123026091220280912102D4
:101CB0000E94E4050E94EF0ADF91CF911F910F91DE
:101CC000089580912402882309F181508093240291
:101CD0004FEF849FC00111246091250270E00E94A3
:101CE000D625FB01FF27EE56FC4F8491E82FE31B1E
:101CF000E49FC0011124231B622F70E00E94D625AF
:101D00006C9FE0011124D0932302CACF0E94D326F6
:101D10000FEF10E0B8010E94EA252C2F26952158DC
:101D200030E0220F232F221F330B319582179307A8
:101D30000CF0B6CFD33098F00E94D326B8010E94A1
:101D4000EA25809321020E94D3262091280226951D
:101D5000622F70E00E94EA25280F20932202109241
:101D6000230280912902893C30F088EC809325027F
:101D70008093240295CF8431C8F784E1F7CFB0E097
:101D8000A0E0E5ECFEE00C94202649015A016B012D
:101D90007C010E94D5058401A4016A2D7B2D88E079
:101DA00090E00E94332794014A2D5B2DB601C701B4
:101DB00000E20E946C26622F84E290E00E942127BC
:101DC000CDB7DEB7ECE00C943C26A3E0B0E0EBEE40
:101DD000FEE00C942626082FF62E142FE22E90916A
:101DE000260290FF2FC0E92FE695E695AE2FB0E0D2
:101DF000A25ABE4F8C91809319029C7F943031F58A
:101E00009E012F5F3F4F802F0E94E4054B81698127
:101E10008A810E943A0C00932702F09228021093C4
:101E20002902EE2079F02091260260912A02709119
:101E30002B02302F4F2D512F80912C0290912D028B
:101E40000E94BF0E2396E6E00C944226823019F4DD
:101E500010912902E0CF863019F400912702DBCFE0
:101E60008930D9F38931B9F6E951E695F0E0E357C5
:101E7000FC4FE4912EE132E0802F0E94E4050E94A5
:101E8000EF0AC9CFE6E2F2E0438128E0421B08F402
:101E900040E021E0628181810E94E50E0895E6E242
:101EA000F2E0438128E0420F08F44FEF21E0628125
:101EB00081810E94E50E0895E6E2F2E0628128E069
:101EC000621B08F460E021E0438181810E94E50EFD
:101ED0000895E6E2F2E0628128E0620F08F46FEF15
:101EE00021E0438181810E94E50E0895E6E2F2E05F
:101EF000818121E04381628188500E94E50E08952E
:101F0000E6E2F2E0818121E043816281885F0E9404
:101F1000E50E089580912A02882319F0815080935C
:101F20002A022091260230912702409128025091E6
:101F3000290260912A0270912B0280912C029091CB
:101F40002D020E94BF0E089580912A02833018F45A
:101F50008F5F80932A0220912602309127024091C0
:101F600028025091290260912A0270912B028091DF
:101F70002C0290912D020E94BF0E0895909126028E
:101F800090FF35C09370811133C094609093260206
:101F9000662391F020912602309127024091280279
:101FA0005091290260912A0270912B0280912C029B
:101FB00090912D020E94BF0E609126026695669553
:101FC00070E04BE050E08EE091E00E94E326892B28
:101FD000B9F010921A0281E08093160220E040913D
:101FE000290260912802809127020E94E50E08953F
:101FF0008B3210F0986ACACF880F880F982BC6CF03
:1020000081E080931A020E949504909314028093B9
:102010001302E1CF8091260286958695815009F4BE
:102020008AE261E00E94BE0F0895809126028695A3
:1020300086958F5F8B3208F081E061E00E94BE0FD1
:1020400008959091260290FF09C09695969598174D
:1020500028F0961718F40E941510089561E00E9468
:10206000BE0F0895E6E2F2E085E0808311828FEFF3
:10207000828383831482758125E030E04FEF5FEF28
:1020800060E0868197810E94BF0E08959091420280
:1020900092FB222720F9281779F080FB92F9909380
:1020A0004202609141027091420284E090E00E94FD
:1020B0003F2782E00E947409089590E080E00E942A
:1020C0000B27863E9E4F19F40E94540D089580E020
:1020D000089580911C01882359F18091410287FF66
:1020E00027C00E94A9088093A30140E250E064ED5C
:1020F00071E082EA91E00E94F026892BC1F080E233
:10210000E2EAF1E0A4EDB1E001900D928A95E1F7E9
:10211000E0913D02F0913E02309749F086E08093D5
:10212000A2010480F581E02D82EA91E009950895ED
:102130000E94A90880939A0148E050E064EF71E0A2
:102140008AE991E00E94F026892B89F388E0EAE988
:10215000F1E0A4EFB1E001900D928A95E1F7E091F2
:102160003D02F0913E02309711F30280F381E02DA1
:102170008AE991E0DBCF1092FC0180911C01882359
:1021800039F18091410287FF23C0E4EAF1E08EE15A
:10219000DF011D928A95E9F790E080E00E94250515
:1021A00090E080E00E9400051092D3010E94691027
:1021B00086E0E5E3F2E0DF011D928A95E9F71092EF
:1021C0002E0210922F02109230020E94570508959D
:1021D000ECE9F1E086E0DCCFAAE2B0E0E2EFF0E18A
:1021E0000C94292687E592E02091F100DC012D93E3
:1021F000CD01B2E08F359B07B9F78091580283304B
:1022000009F472C0B8F4813009F449C0823009F48D
:10221000B3C08091E80083FF8BC2809157029091F8
:1022200058029A3008F084C2E92FF0E0E654F84DE5
:102230000C94FE258A3009F48EC08B3009F471C0ED
:10224000893039F780915702813219F780915B020A
:1022500090915C02009711F00297D9F68091E80006
:10226000877F8093E8008091E80082FF38C09091DA
:10227000F3008091F200029731F48091F1008130F7
:1022800011F0863021F48091F10080934A02809110
:10229000E8008B778093E8000E946803BACF8091B2
:1022A0005702813A09F0B5CF8091E800877F80938B
:1022B000E80080915B0290915C02892B61F468E0F8
:1022C0008BE492E070E00E9414048091E8008B7728
:1022D0008093E8009ECF60E090E080E0F3CF8091B3
:1022E00055028111C0CF95CF80915702813A09F0F4
:1022F00090CF80915B0290915C02892B09F089CF8D
:102300008091E800877F8093E8008091E80080FF5B
:10231000FCCF80911C018093F1008091E8008E77C2
:10232000B9CF80915702813209F073CF80915B025F
:1023300090915C02892B09F06CCF8091E800877F37
:102340008093E8000E9468038091590280931C01E9
:102350000E94BB105ECF80915702813209F059CFA5
:102360008091E800877F8093E8000E946803809155
:102370005A02809349024DCF80915702813A09F069
:1023800048CF8091E800877F8093E8008091E80043
:1023900080FFFCCF80914902BECF803899F082380F
:1023A00009F0C6C180915B028F70873008F0C0C110
:1023B0008093E9008091EB0085FB882780F91092DB
:1023C000E90006C0809153029091540291118260FD
:1023D0009091E800977F9093E8008093F10010922D
:1023E000F1008091E8008E779FC1882309F48DC1A8
:1023F000823009F09DC180915902811190C1809174
:102400005B028F702FEF280F263008F091C1809368
:10241000E9002091EB0020FF82C1933031F48091DC
:10242000EB0080628093EB007AC19091EB009061A9
:102430009093EB0021E030E001C0220F8A95EAF78B
:102440002093EA001092EA008091EB008860EACFC6
:1024500081116EC1109159021F778091E30080783D
:10246000812B8093E3008091E800877F8093E800D0
:102470000E9468038091E80080FFFCCF8091E30018
:1024800080688093E30082E0111183E0809355021D
:102490004FC18058823008F04BC1209159023091D1
:1024A0005A022C3DE3E03E07A1F583E08A838AE2ED
:1024B00089834FB7F894DE01139620E03EE051E2A5
:1024C000E32FF0E050935700E49120FF03C0E29522
:1024D000EF703F5FEF708E2F90E0EA30C0F0C7964C
:1024E0008D939D932F5F243159F74FBF8091E80062
:1024F000877F8093E8006AE270E0CE0101960E9437
:1025000014048091E8008B778093E80011C1C09695
:10251000E7CF80915B0290915C02432F55274330B7
:10252000510509F44AC078F54130510509F47AC0E3
:102530008BE590E0E2E1F5E04230510509F0F8C0AA
:102540002091E800277F2093E80020915D023091E0
:102550005E028217930708F49C0140E021153105C3
:1025600009F065C0411163C08091E80082FDC9CFC8
:1025700080915502882329F2853019F28091E80074
:1025800083FFF2CFBECF4132510509F43CC0423245
:10259000510509F0CDC08330910508F0C9C0FC0198
:1025A000EE0FFF1FE457FE4F0190F081E02D87579B
:1025B0009E4FDC018C9190E01AC033272130310509
:1025C000D1F02115310561F02230310509F0B0C09C
:1025D000EFE7F5E0E4918E2F90E0EFE7F5E007C03C
:1025E000EFEAF5E0E4918E2F90E0EFEAF5E0009756
:1025F00009F49EC0A5CFE1E9F5E0E4918E2F90E0CB
:10260000E1E9F5E0F4CF8330910508F091C0880F3F
:10261000991FFC01EE56FE4F0190F081E02D89E0FC
:1026200090E08ECF82E190E0EDE6F5E089CF8091F9
:102630005502882309F465CF853009F462CF809173
:10264000E80083FD5ECF8091E80082FD8DCF809110
:10265000E80080FF83CF9091F3008091F200211574
:10266000310519F08830910550F041E0089709F0E4
:1026700040E08091E8008E778093E8006FCF44912E
:102680004093F1003196215031090196E8CF80380E
:1026900009F04EC08091E800877F8093E800809128
:1026A00056028093F1009DCE811142C010915902D3
:1026B0001230F0F58091E800877F8093E800109356
:1026C00056020E946803112311F084E005C0809136
:1026D000E30087FDFACF81E08093550242E061EC90
:1026E00081E00E94870342E261EC84E00E9487035C
:1026F00042E261EC82E00E94870342E260EC83E008
:102700000E9487038091550213C080915902813045
:1027100079F481E0933009F080E0809354021092C4
:10272000E9008091E800877F8093E8000E946803B9
:102730008091E80083FF0AC08091E800877F809342
:10274000E8008091EB0080628093EB00AA96E3E0C2
:102750000C9445260E94BB102FEF84E39CE021508F
:1027600080409040E1F700C0000088E19AE00FB699
:10277000F894A895809360000FBE90936000FFCFFF
:10278000882321F00E94A2080E94691008958823DE
:1027900039F09091FC01982B9093FC010E946910F4
:1027A0000895882309F456C0823879F40E944A05B6
:1027B00081FF50C089E30E94CC040E94691089E324
:1027C0000E94A1040E9469100895833859F40E9460
:1027D0004A0580FF3FC083E50E94CC040E94691037
:1027E00083E5EECF843859F40E944A0582FF32C057
:1027F00087E40E94CC040E94691087E4E1CF9CEF3B
:10280000980F913AE8F290E2980F983050F4877060
:1028100091E001C0990F8A95EAF7892F0E94A208DA
:10282000D1CF9BE5980F933028F490E080E00E9490
:102830002505089598E5980F9B3128F490E080E0F5
:102840000E940005089593E3980F933118F460E017
:102850000E949A090895CF93C82F8823C9F082381F
:10286000C9F40E944A0581FD13C089E30E94CC048B
:102870000E9469102FEF87EE93E021508040904036
:10288000E1F700C0000089E30E94A1040E946910E2
:10289000CF9108958338A1F40E944A0580FDF8CFB6
:1028A00083E50E94CC040E9469102FEF81EE94E032
:1028B000215080409040E1F700C0000083E5E4CF64
:1028C0008438A1F40E944A0582FDE2CF87E40E9489
:1028D000CC040E9469102FEF81EE94E021508040DB
:1028E0009040E1F700C0000087E4CECF8CEF8C0F62
:1028F000813A88F580911C01882301F18091410281
:1029000087FF1CC0EC2FE695E695E695F0E0EE55C6
:10291000FE4F828190E04C2F477021E030E002C0F2
:10292000220F331F4A95E2F782239323892B79F0F4
:102930008C2F0E94A1040E94691009C0ECE9F1E00B
:102940008191C817A9F321E0E23AF207C9F78C2F69
:102950000E94CC049BCF80E28C0F883068F4C77053
:1029600021E030E001C0220FCA95EAF78091FC0116
:10297000822B8093FC018ACFEBE5EC0FE33040F42F
:10298000F0E0E35EFE4F808190E00E94250580CF5D
:10299000E8E5EC0FEB3150F4F0E0EE0FFF1FE05EE6
:1029A000FE4F808191810E94000572CF83E38C0FDE
:1029B000833108F06DCF61E08C2F0E949A0968CFB7
:1029C0001F93CF93DF93182FD0E0C0E0893311F429
:1029D000C0E5D0E0812F0E942B14209739F4812F7D
:1029E0000E94D113DF91CF911F9108958FE99FE04D
:1029F0000197F1F700C000002197EFCF0F931F93CD
:102A0000CF93DF93C62FD42F022FFC01858188231B
:102A1000A9F060939B020E94950490939A02809380
:102A20009902C77081E001C0880FCA95EAF70E9439
:102A3000C713DF91CF911F910F91089580919B0251
:102A4000681332C08091990290919A020E94860484
:102A5000883C910548F510E21D0FCD17B9F080E2D2
:102A60008C0F883040F4C77081E001C0880FCA9590
:102A7000EAF70E94C013183048F481E09D2F977048
:102A800001C0880F9A95EAF70E94C713802F0E9411
:102A9000E014183070F6D77081E001C0880FDA9525
:102AA000EAF70E94C013C5CFC77081E001C0880F4C
:102AB000CA95EAF7F6CFA8E0B0E0E1E6F5E10C94BC
:102AC0001C268C01DC0114968C911497882309F440
:102AD000B7C021E04C9111965C91119712966C91C0
:102AE000129713967C91139715969C910E940A0E4B
:102AF0007C01F8018581882309F43BC1C701975700
:102B00008038910508F094C5FFE0FE1508F488C0F0
:102B10008FEF93E00E94FD26811182C069EAA62E04
:102B2000B12CE11047C0FE01339686E0DF011D9213
:102B30008A95E9F75AE0452E7501BFEFEB1AFB0ABB
:102B4000C5010E94FD2689831A82882309F468C082
:102B5000813009F079C06501E2E0CE0ED11CC701D9
:102B60000E94FD268A83882309F45AC09FEF980F9C
:102B7000933070F5F3E0AF0EB11CC6010E94FD2644
:102B80008B83882309F44CC01C82DE0111967D01E1
:102B9000F7012081222381F2213009F095C0918133
:102BA0008281913009F052C0F2E0EF0EF11C0E94D8
:102BB000E01453C0A11424E0B20691F1C5010E94B3
:102BC000FD26811101C0EA943FEFA31AB30AA9CFF1
:102BD00056018430D1F642E0E42EF12C56012FEF5D
:102BE000A21AB20AC6010E94FD26E1E0F0E0EC0F55
:102BF000FD1FEE0DFF1D8083882391F08C3741F47B
:102C0000E2E0F0E0EC0FFD1FEE0DFF1D1082BDCFE6
:102C10003FEFE31AF30A650187E0E816F104F1F6E5
:102C20008091D101877061F0D80115968C9188232D
:102C300039F08091420282FF03C082E00E94740951
:102C40002896E0E10C94382657019FCF923049F442
:102C500022E0E20EF11C0E942B14EFEFEE1AFE0AA6
:102C600097CF933031F432E0E30EF11C0E94D11380
:102C7000F4CF943021F08FEFE81AF80AEECF92E00B
:102C8000E90EF11C30E020E0B7016F5F7F4FD70104
:102C900011964C918053990B8A30910550F0215038
:102CA0003109D8F2EFE9FFE03197F1F700C00000F9
:102CB000F6CF429EF001439EF00D11249C012E0F91
:102CC0003F1F842F7B01E0CFE22FF0E0E850FE4F62
:102CD0005490822F86958695869590E0FC01E85168
:102CE000FE4F64902770712C022E02C07594679479
:102CF0000A94E2F731E063227724FC01E852FE4FA8
:102D00008490912C022E02C0959487940A94E2F745
:102D1000A1E08A229924FC01E853FE4FC490D12CF3
:102D200002C0D594C7942A95E2F7B1E0CB22DD2406
:102D30006114710419F081EE0E942B148114910426
:102D400019F086EE0E942B14852D0E94E014811448
:102D5000910419F086EE0E94D1136114710419F0E8
:102D600081EE0E94D113C114D10409F476CF8CE214
:102D70001ECFF701E851FC47E730F10508F044C4E5
:102D8000EC53F84D0C94FE2526E241EE61EEC801AD
:102D90000E94FE1445CF27E245EE65EEF8CF26E20D
:102DA00041EE60EEF4CF27E245EE64EEF0CF26E28E
:102DB00041EE62EEECCF27E245EE66EEE8CF28E288
:102DC00041E0EBCF8091410281608093410295C048
:102DD000809142028860809342028FC080914102BC
:102DE0008260F3CF809141028460EFCF80914102F5
:102DF0008860EBCF809142028160EDCF80914202EA
:102E00008260E9CF809141028061DFCF80914102F1
:102E10008062DBCF809141028064D7CF0E94BB10DB
:102E2000809141028068D1CF809141028C60CDCFEA
:102E3000809142028360CFCF809141028E7FC5CFC7
:102E400080914202877FC7CF809141028D7FBDCFA5
:102E5000809141028B7FB9CF80914102877FB5CFAE
:102E6000809142028E7FB7CF809142028D7FB3CF97
:102E7000809141028F7EA9CF809141028F7DA5CFA5
:102E8000809141028F7BA1CF0E94BB1080914102B3
:102E90008F779BCF80914102837F97CF80914202B1
:102EA0008C7F99CF8091410282FB992790F921E094
:102EB000922790FB82F990FB83F987CF80914202A1
:102EC000982F909591708E7F892B90FB81F983CFFD
:102ED00090914102892F8F7B96FF806476CF0E946C
:102EE000BB1090914102892F97FB87F980586DCFD5
:102EF00061E08EE090E00E94212760914102709194
:102F0000420284E090E00E943F270E94BB1088CEDE
:102F100060E0EFCF90914102892F8F7E94FF806116
:102F200054CF90914102892F8E7F90FF81604DCFC9
:102F300090914202892F877F93FF88604CCF85E371
:102F40005EC38091C201811104C089E20E94A10484
:102F500058C385E3FBCFF7E7EF16FCE7FF0609F060
:102F600021C381E00E948B0943E062E081E00E947E
:102F7000470956CE8091260280FF19C0282F2E7F48
:102F80002093260230912702409128025091290275
:102F900060912A0270912B0280912C0290912D0257
:102FA0000E94BF0E10921A020E94EF0A39CE816071
:102FB0008093260261E0869586950E94BE0F30CEF2
:102FC0004AE050E165E170E10E94CE0529CE45E17D
:102FD00050E16AE070E1F8CF46E75FE060E87FE04B
:102FE000F3CF40E85FE066E77FE0EECF4CE55FE0DF
:102FF00069E67FE0E9CF49E65FE06CE57FE0E4CF9A
:1030000042E45FE06FE47FE0DFCF4FE45FE062E443
:103010007FE0DACF4AE85FE064EA7FE0D5CF44EAB8
:103020005FE06AE87FE0D0CF61E081E0C6CF65E095
:1030300082E00E942110F4CD68E086E0FACF6EE0D5
:1030400089E0F7CF64E18FE0F4CF67E185E1F1CF6C
:1030500061E088E1B2CF62E289E1EBCF61E083E237
:10306000ACCF6AE285E2E5CF27E7E2162CE7F2066D
:1030700009F45AC038E7E3163CE7F30609F458C0F0
:10308000F8018581E080F180882309F485C0C701BB
:103090000E94AB0DD82E682FC7010E940E09B70100
:1030A0008D2D0E949D0D0E9484077C01882ED801E1
:1030B0001596AC90159716969C9092943FE09322AB
:1030C0008091D101877009F1CA2CAA20F9F08F2DC7
:1030D000807F803469F080E28E0D8830B0F08F2DD3
:1030E000807E803229F4B1E0BE1578F4992069F031
:1030F0008091420282FF09C082E00E94740980919F
:10310000D1018770CC24C3948111C12CBF2CB294FF
:103110002FE0B222EBE0EB1508F4A7C0EB2DF0E0B6
:10312000E553F84D0C94FE2581E00E9467091CCF01
:1031300082E0FBCFEBE5EE16ECE7FE0659F1FCE58D
:10314000EF16FCE7FF06E1F02AE5E2162CE7F206AF
:1031500009F096CF81E01BC00E94BB103FEF84E3D3
:103160009CE0315080409040E1F700C000000E9498
:1031700075046FEF7FEF90E080E00E943F272CC244
:103180008091420282FB882780F991E089270E9482
:10319000461076CF80E0FBCFC7010E94DA08D82E18
:1031A0007ECFFF2DFF70DF2E8F2D807F19F0D29400
:1031B00090EFD922AA20B9F0DD2069F080E28E0DCF
:1031C000883010F0811009C08091FC01D82AD0927B
:1031D000FC010E9469108E2D46C08091D301D82A2F
:1031E000D092D301F6CF8E2D0E94D113DD20E9F1CC
:1031F00080E28E0D883010F0811004C08D2D0E9469
:10320000A20806C0D0948091D301D822D092D301D5
:103210000E9469102AC02F2D2F70D22E8F2D807FF3
:10322000803219F0D29480EFD822882059F031E012
:10323000831609F484C0AA2009F490C0992009F4E7
:1032400052C0C9CF8091420282FD49C0AA2009F430
:1032500040C0DD2039F08091FC01D82AD092FC01D9
:103260000E94691080E00E942B14AB2DA850BB0B6C
:10327000149720F40E944A050E947E0ACC20A9F0EF
:103280008091D10180FD11C0F80115828695869547
:1032900086950E948B09C8010E945B158091D1011F
:1032A0008695869586950E94670920E0D8014C9105
:1032B00011965C91119712966C91129713967C91CE
:1032C000139714968C91149715969C910E940A0E50
:1032D000B7CC80E00E94D113DD2039F28FCFAA2035
:1032E000A1F0911004C08D2D0E94C713BECF81E0C4
:1032F0009812BBCF8091D2019D2D9823D91609F445
:10330000B4CFD82AD092D201B0CF9110AECF8D2DAC
:103310000E94C0139091D2018D2D892329F08D2D0B
:10332000809589238093D2018091C3019D2D98239C
:1033300009F49BCFD094D822D092C30196CFAA2073
:1033400029F095E0991508F490CFCDCFA4E0A91508
:1033500008F48BCF8D2D0E94C01387CF9920D1F315
:10336000B9E38B1218C1EFEFF7EE23E0E150F04024
:103370002040E1F700C000000EC18F2D8695869594
:10338000837061F0813009F070CFC7019370A11094
:1033900002C080E090E00E94000567CFC7019370F3
:1033A000A11002C080E090E00E9425055ECF6A2D4A
:1033B0008E2D0E949A0959CF8F2D837091F5A110FF
:1033C00054CF4E2D429546954770440F440F8E2D95
:1033D0008F70042E01C0880F0A94EAF72E2D2071F9
:1033E000E4FE07C02FE030E001C0220F4A95EAF763
:1033F00020953F2D369536953370323069F050F474
:103400004091FD01313029F0822B84230E949709DD
:103410002CCF842B822BFACF282B8091FD01822781
:10342000F5CF8695AA2011F08F2D8170882309F49D
:103430001CCF4E2D429546954770440F440F8E2D5C
:103440008F70042E01C0880F0A94EAF72E2D207188
:10345000E4FE07C02FE030E001C0220F4A95EAF7F2
:1034600020953F2D369536953370323069F050F403
:1034700040910702313029F0822B84230E944409B5
:10348000F4CE842B822BFACF282B8091070282273F
:10349000F5CF3F2D3F70F32EAA2029F0832F0E94F5
:1034A0008B098E2D21CF8E2D0E94C0138F2D0E944F
:1034B0006709DBCE8E2D92EF8916B1F1981570F069
:1034C000A0EF8A16D1F0B1EF8B1691F0AA2009F483
:1034D0005DC0911080CE8F2D8F712AC0E3EF8E16C4
:1034E00051F1F4EF8F12F2CF8091420282FD2FC092
:1034F0008F2D8F71AA20D9F21BC0AA2081F024E061
:10350000291508F4B2CE2F2D2F7181E090E001C073
:10351000880F2A95EAF7909107028927AFCF35E007
:10352000391508F4A2CEEFCF8F2D8F71A110BFCF28
:103530000E948B099ACE80E0AA2009F49FCF9F2D8C
:103540009F7181E001C0880F9A95EAF797CFAA2072
:1035500091F08F2D8F71F82E0E948B09809142027D
:1035600082FF07C0A8E0FA9EC00111248360809307
:10357000D1018F2DDDCF81E00E947409B1E0B91532
:1035800008F073CE82E00E9474096FCE992039F062
:10359000893309F4E8CE8E2D0E94D11366CE8F2D8B
:1035A0008F7185CF82E0B8E7EB16BCE7FB0609F424
:1035B000D9CC83E0E8168CE7F80609F4DACD08F0F8
:1035C000B9CDE114ACE7FA0609F4C6CDB1E0EB16CB
:1035D000BCE7FB0609F054CD0E94AA13E6E1EE1603
:1035E000ECE7FE0609F0B7CC8091FC018A7A91E005
:1035F00009F490E09093C2018111A1CC89E20E946C
:10360000CC040E9469100CCBF6E1EF16FCE7FF0634
:1036100009F497CC8091FC018272F701E052F847DF
:10362000E531F10508F020CDE952F84D0C94FE2566
:10363000F701E851FC47E730F10508F4A1CB1092FF
:103640009B02C7019057839748F684E090E00E9460
:103650000B279093420280934102F701E150F0471B
:10366000E232F10508F0AECBE451F84D0C94FE25A2
:10367000CF93DF938091D001807F09F04DC080917E
:10368000CF01882309F448C0E091980250915F026D
:10369000C091CB01D091CA016091CC017091CD0154
:1036A00047E05E17C9F18E2F90E0E49FF0011124EE
:1036B000E05AFD4F2481222391F1489FF001499F58
:1036C000F00D1124DF01A05ABD4F11962C911197D6
:1036D0002C1325C02C912D1322C015962C911597D3
:1036E00021111DC012962D913C91261B370B283CB1
:1036F0003105A8F48091D0018F7080618093D00152
:10370000EA59FD4F80818F70806180838AEC91E05F
:103710000E945B150E94D008DF91CF910895FC01B3
:103720003196E770BECFA4E1B0E0E9E9FBE10C948B
:1037300020268C0186E0F801DE011F9601900D9293
:103740008A95E1F7F8018481E5809AECA92E91E051
:10375000B92E9091CE01911128C0882319F1EE2045
:10376000F1F0C8010E94E70DF82E8823C1F087E030
:10377000F801D50101900D928A95E1F78091CE0173
:10378000813031F48091CA019091CB010E94DA0D11
:103790000E94381B8F2D6496ECE00C943C26C801E7
:1037A0000E945B15FF24F394F5CFD080C180828006
:1037B0009380F090CF012091CC013091CD01A401F4
:1037C000421B530BFF2009F4D9C0483C510508F0B7
:1037D00092C08823F9F29091CB018091D001282FDB
:1037E000207F09F056C0C91214C09091CA01D912A5
:1037F00010C0E11048C08F7080618093D0018AECC6
:1038000091E00E945B158091D001F8018683F12C34
:10381000C1CFE11038C06C2D8D2D0E94F9026C2DA6
:103820008D2D0E94F902E82E8111F1CFDF86C88A22
:103830008F8598890E94DA0D292F22952F702430C8
:1038400058F49F70223088F0992399F0F8019681FE
:10385000907F79F4FE2C9ECF2A5F2F70223068F083
:10386000C8010E945B15EF2CF5CF992311F0882336
:1038700089F3805E883070F3F3CF803F58F3815F27
:10388000833070F7E7CF8091D00181608093D001C1
:10389000BECFC91207C09091CA01D91203C0EE2051
:1038A00009F48DC0C8010E94E70D882309F477CF81
:1038B000EE2009F474CF8091D001803288F02091FD
:1038C000CA013091CB01398728879B868A869091DF
:1038D000CE019C871D868E87CE0108960E945B15BF
:1038E00087E0F801AAECB1E001900D928A95E1F72A
:1038F0000E94381B57CF9091D001292F207F51F47F
:103900008AEC91E00E945B1587E0F50111928A959F
:10391000E9F77DCF882309F43DCF8091CB018C114D
:1039200010C08091CA01D8120CC0E1100AC0968361
:10393000C8010E945B1587E0F50111928A95E9F7AD
:1039400029CFC8010E94E70D882309F428CFEE2073
:1039500009F425CF8091D001803210F22091CA0164
:103960003091CB013A8329839C828B829091CE0146
:103970009D831E828F83CE010196B0CF483C5105B6
:10398000D0F6882309F40ECFFE2CEE2009F407CFE1
:103990008091CB018C1120C08091CA01D8121CC02B
:1039A0008091D00180FD0FC0982F907F61F08683B9
:1039B000903F31F0982F907F905F8F70892B868396
:1039C000C8010E945B1587E0F801AAECB1E0019004
:1039D0000D928A95E1F7DECEC8010E94E70D8111B4
:1039E0007FCF8091D00181608093D001C8010E9477
:1039F0005B15D0CEABE1B0E0E0E0FDE10C94282611
:103A00004E8B5F8B688F798F8A8F9B8F192F9111C7
:103A10001092D3011D8A86E0FE017696DE011F9684
:103A200001900D928A95E1F70A8D002341F021E083
:103A30004F85588969897A89C8010E940A0E0B8BC3
:103A40001C8B87E0FE013F96DE01189601900D92D7
:103A50008A95E1F7CE0108960E94931B81112AC036
:103A600087E0FE013896DE01119601900D928A954D
:103A7000E1F78C858823F1F020915F0230E0C901E5
:103A80000196877099274091980248171906E9F026
:103A900097E0929FD001939FB00D1124A05ABD4F83
:103AA000FE01319601900D929A95E1F780935F02A5
:103AB0000E94D00817E08091980290915F028913CC
:103AC00012C06B96E4E00C9444260E94BB10109246
:103AD0005F021092980287E0EAECF1E0DF011D92AC
:103AE0008A95E9F7E7CF819FC0011124805A9D4F45
:103AF0000E94931B882329F38091980290E00196FD
:103B00008770992780939802D6CFA6E0B0E0EBE8C3
:103B1000FDE10C9428260E9495048C018091FE0101
:103B20009091FF018017910781F019821A820E94FB
:103B30009504682F49815A81792F80E090E00E9496
:103B4000FA1C1093FF010093FE012696E4E00C940A
:103B50004426A4E0B0E0EFEAFDE10C9421261982AE
:103B60001A821B821C8286E5E82E81E0F82E10E086
:103B700000E0CC24C394D12C2EE5A22E21E0B22E5D
:103B8000F70181917F018F3F09F445C0F894E82F38
:103B9000E295EF70F0E021A18F70A60102C0440F02
:103BA000551F8A95E2F7CA01922F982B91A392A1F3
:103BB0008095892382A3789400C0EAE5F1E0912CF6
:103BC00031E021912F3F09F452C0A22FA295AF708E
:103BD000B0E090968C9190E02F7002C095958795FB
:103BE0002A95E2F780FD43C0832F982A330FAE1643
:103BF000BF0639F7F701319780818F3F11F00E949E
:103C00007C0650EA5A95F1F7E1E0F0E0EC0FFD1F79
:103C1000E00FF11F90820F5F1F4F0430110509F074
:103C2000AFCF44E050E0BE016F5F7F4F83E092E092
:103C30000E94F026892BF9F089819A81AB81BC81A1
:103C40008093030290930402A0930502B0930602AE
:103C500081E0809302020E94950490930102809378
:103C6000000210E0812F2496EBE00C943D2680E0CA
:103C7000BCCF10E026C010910202112391F3809175
:103C80000002909101020E948604059750F344E0DF
:103C900050E063E072E08FE092E00E94F026892B12
:103CA00041F38091030290910402A0910502B0912A
:103CB000060280930F0290931002A0931102B0931A
:103CC000120210920202CECFA8E0B0E0EAE6FEE1D6
:103CD0000C942A2666EE7EEF90E080E00E943F275B
:103CE00060E082E090E00E94212781E08093FD0166
:103CF00061E083E090E00E94212760E074E184E0CD
:103D000090E00E943F2760E086E090E00E9421273B
:103D10006FEF87E090E00E94212740E050E0BA0179
:103D200088E090E00E94332760E084E290E00E9407
:103D3000212760E087E190E00E94212760E08CE08D
:103D400090E00E94212760E08DE090E00E94212712
:103D500019821A821B821C821D821E821F82188673
:103D600048E050E068E170E0CE0101960E94112722
:103D700040E050E0BA0180E290E00E94332780E00A
:103D80000E94BC0C0E94440D40E050E0BA018FE05C
:103D900090E00E94332740E050E0BA0183E190E0D8
:103DA0000E9433272896E2E00C9446261F920F9239
:103DB0000FB60F9211242F933F934F935F936F93FE
:103DC0007F938F939F93AF93BF93CF93DF93EF93A3
:103DD000FF93D091E900DF708091EC00C82FC17093
:103DE00080FDC0E81092E9008091F000877F809309
:103DF000F00078940E94EC101092E9008091F0009D
:103E000088608093F000CD2BCF70C093E900FF91C4
:103E1000EF91DF91CF91BF91AF919F918F917F9162
:103E20006F915F914F913F912F910F900FBE0F9027
:103E30001F9018951F920F920FB60F9211242F9377
:103E40003F934F935F936F937F938F939F93AF9322
:103E5000BF93EF93FF938091E10082FF09C08091AF
:103E6000E20082FF05C08091E1008B7F8093E1003A
:103E70008091DA0080FF24C08091D80080FF20C0AC
:103E80008091DA008E7F8093DA008091D90080FFE4
:103E90009DC080E189BD82E189BD09B400FEFDCFEE
:103EA00081E08093550280914802811109C00E94EF
:103EB00018030E94B9038091E20084608093E200BD
:103EC0008091E10080FF17C08091E20080FF13C065
:103ED0008091E2008E7F8093E2008091E200806119
:103EE0008093E2008091D80080628093D80019BC52
:103EF00085E0809355028091E10084FF2BC0809182
:103F0000E20084FF27C080E189BD82E189BD89B5D7
:103F1000982F917080FFFBCF8091D8008F7D809388
:103F2000D8008091E1008F7E8093E1008091E200D3
:103F30008F7E8093E2008091E20081608093E200B6
:103F400080915602882309F447C084E0809355028B
:103F5000809155028091E10083FF27C08091E200AB
:103F600083FF23C08091E100877F8093E10082E09E
:103F700080935502109256028091E1008E7F8093CB
:103F8000E1008091E2008E7F8093E2008091E20068
:103F900080618093E20042E060E080E00E9487035D
:103FA0008091F00088608093F000FF91EF91BF91C5
:103FB000AF919F918F917F916F915F914F913F91C1
:103FC0002F910F900FBE0F901F90189519BC109253
:103FD00055021092480274CF8091E30087FD93E070
:103FE00090935502B5CF78941F921FB61F9211245B
:103FF0008F939F93AF93BF9380914402909145021A
:10400000A0914602B09147020196A11DB11D809377
:10401000440290934502A0934602B0934702BF9199
:10402000AF919F918F911F901FBE1F9018951F9267
:104030001FB61F9211248F939F93AF93BF938091CC
:104040004302811113C08091440290914502A091D6
:104050004602B09147024196A11DB11D80934402D2
:1040600090934502A0934602B0934702BF91AF914F
:104070009F918F911F901FBE1F901895CDB7DEB7EF
:10408000A6970FB6F894DEBF0FBECDBF85B7806888
:1040900085BF85B7806885BF84B7877F84BF0FB62B
:1040A000F894A895809160008861809360001092D8
:1040B00060000FBE80E890E00FB6F8948093610036
:1040C000909361000FBE8AE796E0909399018093E8
:1040D00098010E9418030E94B9038091E200846055
:1040E0008093E2007894809155028823A1F010918A
:1040F000E9001F709091EC00892F817090FD80E89D
:10410000182B1092E9008091E80083FD0E94EC10CA
:104110001F701093E90082E084BD93E095BD9AEF93
:1041200097BD80936E000E94540D811102C00E94C1
:10413000440D84EF0E947C0685EF0E947C0686EF8A
:104140000E947C0687EF0E947C0681E90E947C0623
:1041500080E90E947C0684E90E947C0686E60E9433
:104160007C0684E0EFE0F2E0DF01282F1D922A9523
:10417000E9F7E3E0F2E0DF011D928A95E9F70E949A
:104180005D10811102C00E94641E82E090E00E94D6
:10419000FD268093090284E090E00E940B27909313
:1041A0004202809341020E94A91DBFEFE6E7F1E0C1
:1041B000B150E040F040E1F700C000000E94A91DAE
:1041C00080910F0280FF08C06FEF7FEF90E080E0EA
:1041D0000E943F270E94750483E090E00E94FD2624
:1041E0000E949709209A289A559A5D9A8091080210
:1041F000811174C00E945D10811104C00E94641E70
:104200000E94321088E090E00E9405274B015C017B
:1042100084E290E00E94FD26282F30E040E050E04C
:1042200060E070E080E090E000E20E9451262829E2
:1042300039294A295B29209326023093270240938B
:1042400028025093290260932A0270932B028093D4
:104250002C0290932D022C7F89F50E94321088E069
:1042600090E00E9405276B017C0184E290E00E94AF
:10427000FD26282F30E040E050E060E070E080E074
:1042800090E00E945126B22FA32FF42FE52F5B015F
:1042900097018601BC29A12BFE29E32BB0932602AE
:1042A000A0932702F0932802E093290260932A0248
:1042B000B0922B0280932C0290932D020E94D50580
:1042C00010921A028091260280FF05C060E0869558
:1042D00086950E94BE0F81E08093080284E091E001
:1042E00090933E0280933D0208E1E02EF12C8FE096
:1042F00092E094E0B92EB80E2EE0C22E22E0D22E2B
:104300008091550210E4A12E00E112E1853009F4FC
:1043100086C00E94A91DAAE08A2EA2E09A2EBFE0C4
:104320006B2EB2E07B2ED301F40191918D91CE16CC
:10433000DF0609F480C09817C1F310E033243394EA
:10434000D3010D913D01F40141904F01401619F147
:10435000A12C552453944026842D8521A1F0A9A297
:104360001AA30E9495049CA38BA33DA291E0802FE9
:10437000852109F490E09EA349A15AA16BA17CA1DB
:104380008DA10E94FA1CA394550CF4E0AF12E4CF67
:10439000F401319700831F5F143091F68FB7F894C2
:1043A000409144025091450260914602709147024B
:1043B0008FBF45C080915502843021F180E00E947A
:1043C0007E0A109243020FB6F894A895E09260001E
:1043D0000FBEA092600083B7817F846083BF83B7E4
:1043E000816083BF7894889583B78E7F83BF0FB633
:1043F000F894A89580916000886180936000109285
:1044000060000FBE80915402882349F00E94A91DCC
:10441000EFE0F2E0819181118FC3BE12FBCF80915A
:104420005502853009F4C6CF0E94BB100E944A0590
:104430000E947E0A6ECF981380CF0E94851D8091C6
:104440001A028823D9F180911902E0912602E6959B
:10445000E695E81BE0931502823009F041C1F0E0D7
:10446000E757FD4FE4910E2F10E0F8EA8F2EFCE0A5
:104470009F2E80911602882361F0109216020E94EE
:1044800095049093140280931302109218021092D4
:1044900017020E949504E0911302F09114028E1B02
:1044A0009F0B8F3F9F4750F4E00FF11FF0931402D2
:1044B000E093130283E192E0F401099586E0E5E3DD
:1044C000F2E0DE01119601900D928A95E1F780905D
:1044D0003602A09037021091380290903902009174
:1044E0003A0210923702109238021092390210925A
:1044F0003A02812F8A2909F445C0809133029091B4
:1045000034020E9486049C0190912E02992309F4A2
:104510003CC325313105B0F19F3F19F09F5F909367
:104520002E02AA2059F00E94A0059FEF1A140CF445
:1045300091E0899F802D112480933702112359F037
:104540000E94A00591E011160CF09FEF899F802D2D
:1045500011248093380280913702882399F070905B
:104560003802772079F00E94C005882309F424C11D
:1045700080933702872D0E94C005882309F41EC14D
:1045800080933802892D802B09F445C08091310237
:10459000909132020E9486049C0190912F029923EF
:1045A00009F4EEC221353105B0F19F3F19F09F5F4C
:1045B00090932F02992059F00E947E059FEF1914C5
:1045C0000CF491E0899F802D1124809339020023FF
:1045D00059F00E947E0591E010160CF09FEF899F24
:1045E000802D112480933A0280913902882399F01A
:1045F00090903A02992079F00E94C005882309F42E
:10460000DFC080933902892D0E94C005882309F4F8
:10461000D9C080933A0280913602881217C08091E7
:104620003702882311F08A1111C020913802222309
:1046300011F012130BC090913A02992311F09013CC
:1046400005C030913902332309F48CC20E9457050A
:1046500086E0FE013196A5E3B2E001900D928A95C5
:10466000E1F70E944A0590910E02891779F0809334
:104670000E029FB7F8944091440250914502609118
:104680004602709147029FBF0E947E0A80915502A8
:10469000843009F035CE83E08093E9008091E80012
:1046A00082FF2ECE8091E80090E085FF06C00E9438
:1046B0003703882309F488C091E08091E8008B7764
:1046C0008093E800992309F41BCE8981EFEFE80F6E
:1046D000E33108F0A0C0F0E0E25FF74D0C94FE2556
:1046E000863059F4F0E0EA57FD4FE4910E2F10E0C8
:1046F000E8E98E2EECE09E2EBCCE893061F4E69582
:10470000F0E0ED57FD4FE4910E2F10E071E2872E9F
:104710007CE0972EAECE8F3061F4E695F0E0E05865
:10472000FD4FE4910E2F10E06DED862E6BE0962E7E
:10473000A0CE853159F4F0E0E358FD4FE4910E2FFF
:1047400010E05FEA852E5BE0952E93CE08E210E044
:104750002CE3822E2BE0922E883109F48ACE83320C
:1047600049F4EBE7F2E00591149147E4842E4CE024
:10477000942E7FCE04EF11E090E2892E9BE0992EDB
:10478000843209F476CE853281F48E2F63E00E9464
:10479000CA25E92FF0E0E858FD4FE4910E2F10E014
:1047A0003FE2832E3EE0932E64CE00ED17E084EDD1
:1047B000882E85E0982E5DCE81E0DACE81E0E0CED5
:1047C00081E01FCF81E025CF00E210E0CE0101960D
:1047D0004C018091E80085FD0AC08091E8008B774C
:1047E0008093E8000E943703882399F365CF809176
:1047F000F100D4018D934D010150110951F75CCFA7
:104800001A828CE08B8324C08A81823009F4AFC184
:1048100028F4813061F08FEF89831AC0833009F169
:104820008430C9F71B821C821D821E8211C02FB7E3
:10483000F8946091440270914502809146029091F3
:1048400047022FBF0E9404266B837C838D839E8347
:1048500040E250E0BE016F5F7F4F82E00E948B0A12
:104860004FCD2B81822F90E0FE013496245E843060
:10487000910570F7DC01A15FBD4F3C91319301962A
:104880002813F5CFE5CF8A81823081F0853019F683
:104890008091260280FF15C0809126028E7F809332
:1048A000260210921A020E94EF0AD2CF6B817C81FD
:1048B0008D819E810E94042688E290E00E9421273B
:1048C000C7CF81608093260260E0869586950E941E
:1048D000BE0FBECF4C816B818A810E946D0D9827DF
:1048E000892798279E838D83B3CF2D813E813227E0
:1048F000232732274C816B818A810E94E50CA8CF47
:104900000E940C0DA5CF9A81923009F084CF883097
:10491000E1F1893009F465C08B81823009F1A8F496
:10492000813009F095CF8C81BFEF8B9FC00111249E
:104930006FEF70E00E94D625462F20E0609128029C
:10494000809127020E94E50E83CF8330D1F084301E
:1049500009F07ECF20E0409129026D818C81F2CF59
:104960008C81882309F498CF8091260281608093FE
:10497000260260E0869586950E94BE0F60E08C81DD
:10498000A6CF8C8180932A0263CF8B818230E1F0A5
:1049900078F4813009F05CCF80912902EFEF8E9F8F
:1049A000C00111246FEF70E00E94D6256C8350CFB8
:1049B0008330A1F0843009F04BCF809127028C83A3
:1049C000809128028D8344CF8091260280FF04C00D
:1049D000869586958C833CCF80E0FCCF80912A021F
:1049E000F9CF209126023091270240912802509160
:1049F000290260912A0270912B0280912C029091E1
:104A00002D020E94BF0E24CF80E18A8321CF83E054
:104A10008A8387E5F7CE0A811B811027012710279B
:104A2000CE0101963C018C80DC01A80DB11D4D0129
:104A3000C80187559F4F8614970409F409CF07359D
:104A4000B3E01B0750F40E94FD26F30184830F5F3F
:104A50001F4FBFEF6B1A7B0AEBCFD30114961C924A
:104A6000F6CF0A811B81102701271027FE013196FE
:104A70003F018C80800E912E911CC80187559F4F5D
:104A80008016910609F4E4CE0735F3E01F0728F4F9
:104A9000D30114966C910E942127BFEF6B1A7B0AF9
:104AA0000F5F1F4FEACF0E94D50CD2CE84E0ADCF6E
:104AB0000A811B81102701271027FE0131963F0133
:104AC0008C80CF01880D911D4C01C80189968614F8
:104AD000970409F4BDCE0038110558F40E94FD2654
:104AE000D30114968C930F5F1F4FFFEF6F1A7F0A4D
:104AF000ECCFF3011482F7CF0A811B811027012725
:104B00001027CE0101963C018C80800E912E911CC5
:104B1000C80189960815190509F49ACE00381105BF
:104B200028F4D30114966C910E942127BFEF6B1AD1
:104B30007B0A0F5F1F4FECCF09BD19BD09B400FE02
:104B4000FDCF8091D8008F7D8093D8008091E000C8
:104B500082608093E0008091E00081FDFCCF0E94A4
:104B6000BB105DCC822B892B09F472CD6FCD88E20E
:104B700090E00E94FD261B821C821D828E8368CEDF
:104B80002B30310508F013CD46CD2B30310508F020
:104B9000C5CCF8CC991B79E004C0991F961708F092
:104BA000961B881F7A95C9F780950895AA1BBB1B91
:104BB00051E107C0AA1FBB1FA617B70710F0A61B1D
:104BC000B70B881F991F5A95A9F780959095BC013E
:104BD000CD01089597FB072E16F4009407D077FDBA
:104BE00009D00E94D62507FC05D03EF4909581950A
:104BF0009F4F0895709561957F4F0895EE0FFF1FA9
:104C00000590F491E02D0994692796276927782764
:104C10008727782708950E94A927332312F48A1B37
:104C20009B0B0C9415260E94A927B7FF0895821BA1
:104C3000930B08952F923F924F925F926F927F92C3
:104C40008F929F92AF92BF92CF92DF92EF92FF929C
:104C50000F931F93CF93DF93CDB7DEB7CA1BDB0B48
:104C60000FB6F894DEBF0FBECDBF09942A883988ED
:104C700048885F846E847D848C849B84AA84B984F4
:104C8000C884DF80EE80FD800C811B81AA81B98100
:104C9000CE0FD11D0FB6F894DEBF0FBECDBFED0114
:104CA0000895002E083090F0982F872F762F652FCB
:104CB000542F432F322F22270850F4CF220F331FB7
:104CC000441F551F661F771F881F991F0A95B2F74B
:104CD000002D089597FD1094002E083098F008508C
:104CE000232F342F452F562F672F782F892F912D63
:104CF000F4CF159497958795779567955795479530
:104D0000379527950A95AAF71124002D08958F92BB
:104D10009F92AF92BF92CF92DF92EF92FF92CF938A
:104D2000DF93EC01688179818A819B81611571052E
:104D30008105910521F464E279ED8BE597E02DE1A1
:104D400033EF41E050E00E94552749015A019B0191
:104D5000AC01A7EAB1E40E9474276B017C01ACEEC0
:104D6000B4EFA50194010E948227DC01CB018C0DD8
:104D70009D1DAE1DBF1DB7FF03C00197A109B0481F
:104D800088839983AA83BB839F77DF91CF91FF901C
:104D9000EF90DF90CF90BF90AF909F908F9008954D
:104DA0000E948726089580E091E00E94872608955A
:104DB000B0E0A0E08093000190930101A093020174
:104DC000B09303010895FC014150504030F0019030
:104DD0000616D1F73197CF010895882799270895AE
:104DE000FB01DC0104C08D910190801921F4415038
:104DF0005040C8F7881B990B0895F999FECF92BDD2
:104E000081BDF89A992780B50895A6E1B0E044E005
:104E100050E00C944727A8E1B0E042E050E00C9449
:104E20004727DC01A40FB51F4150504048F0CB018B
:104E3000840F951F2E910E94222741505040D0F799
:104E40000895262FF999FECF92BD81BDF89A01975A
:104E500000B4021639F01FBA20BD0FB6F894FA9AC2
:104E6000F99A0FBE08950396272F0E9422270E94C9
:104E70002127252F0E942227242F0C9422270196D8
:104E8000272F0E9422270C942127DC01CB01FC0153
:104E9000F999FECF06C0F2BDE1BDF89A319600B493
:104EA0000D9241505040B8F70895052E97FB1EF41F
:104EB00000940E946C2757FD07D00E94872707FCAB
:104EC00003D04EF40C946C27509540953095219565
:104ED0003F4F4F4F5F4F0895909580957095619526
:104EE0007F4F8F4F9F4F08950E94A927A59F900D38
:104EF000B49F900DA49F800D911D11240895B7FFBC
:104F00000C9474270E947427821B930B0895A1E2CE
:104F10001A2EAA1BBB1BFD010DC0AA1FBB1FEE1F33
:104F2000FF1FA217B307E407F50720F0A21BB30B7E
:104F3000E40BF50B661F771F881F991F1A9469F7FA
:104F400060957095809590959B01AC01BD01CF0156
:104F50000895A29FB001B39FC001A39F700D811D52
:104F60001124911DB29F700D811D1124911D089572
:104F7000F894FFCFCD11F5119813F511981328125D
:104F80004912981347135413CF16D316C416CB16D1
:104F9000D716DB16DF16D118D1180B190B19BD194E
:104FA000D71935193519DC19491A5A1A5A1ABA1764
:104FB000E017E717EC17F117F617FB17001805189D
:104FC0000A180F18141817181C181F18221825185B
:104FD00028182B182E1831181C1791172417EE16A5
:104FE000F2162817F6162C17381702178A17061705
:104FF0003C170A17401768170E1744176F17141736
:105000004A175217FA163017FE16341718174E178C
:105010005E1778178817E8162017981700240424BD
:1050200043246A24752480248324832483240B242A
:105030000B24042507250B253125532556255825F6
:025040007C25CD
:10504200010000007204DB0AD40ACD0AC60A011963
:105052001A1B1C1D1E1F20212201020101818283B5
:10506200E200E900EA00B500B600B700CD00830116
:10507200CC008A019201940121022302240225021A
:10508200260227022A02B300B4006F0070009F01BB
:10509200CB019F02A002F4F5F6F79190946600010D
:1050A200020202020606060909090909090F0F0F81
:1050B2000F0F0F1515151819191919191919191989
:1050C2001923242525252525254422B6840162019C
:0850D200AC0024053D055D055D
:00000001FF
