:100000000C94F1010C9429020C9429020C942902FD
:100010000C9429020C9429020C9429020C942902B4
:100020000C9429020C9429020C947F1E0C94531FEB
:100030000C9409190C9429020C9429020C9429029D
:100040000C9429020C9429020C9429020C94290284
:100050000C9429020C9490190C9429020C942902F6
:100060000C9429020C9429020C9429020C94290264
:100070000C9429020C9429020C9429020C94290254
:100080000C9429020C9429020C9429020C94290244
:100090000C9429020C9429020C9429020C94290234
:1000A0000C9429020C9429020C94290229001E00A8
:1000B0001F0020002100220023002400250026002C
:1000C00027002D002E0031002B0014001A0008001C
:1000D000150017001C0018000C00120013002F0060
:1000E00030002A00390004001600070009000A0049
:1000F0000B000D000E000F0033003400280000003C
:10010000E1001D001B00060019000500050011009C
:100110001000360037003800E5002152E000E20010
:10012000E3002C0000000000000000002C00E700AD
:1001300000003500E600E400007C3A003B003C0093
:100140003D003E003F0040004100420043004400AB
:1001500045004C00010001004B00010001000100BE
:100160000100010052000100AC005200AB00010090
:1001700001004A004E004D000100AA00A9005000F5
:1001800051004F0050004F0001000000010001002D
:100190000100010001000100010001000100010057
:1001A00001005100460001000100010001000100B2
:1001B000000000000000000001000100000001003C
:1001C0000100010000000000000000002A2B2800B0
:1001D00000000000000000000000000000000029F6
:1001E000000000002C1E3420212224342627252E36
:1001F000362D3738271E1F2021222324252633336E
:10020000362E37381F0405060708090A0B0C0D0E99
:100210000F101112131415161718191A1B1C1D2F65
:100220003130232D350405060708090A0B0C0D0E85
:100230000F101112131415161718191A1B1C1D2F45
:100240003130354C000000000000000000000000CC
:10025000000000000000000000000000000000009E
:1002600000000000000000007E0F00D4FFFFFFC769
:1002700000000078100341006C0069007300610009
:1002800069006500000016034100750074006F00EE
:100290006D00610074006100300032000000040352
:1002A000090409025B00030100A0FA09040000012F
:1002B0000301010009211101000122440007058109
:1002C00003080001090401000203000000092111D4
:1002D0000100012222000705820320000107050317
:1002E000032000010904020001030000000921119C
:1002F000010001226D0007058403200001120100A6
:100300000200000008BEBA1220010001020001062E
:1003100060FF0961A1010962150026FF00952075A3
:100320000881020963150026FF00952075089102D7
:10033000C005010980A101850319012AB700150133
:1003400026B700950175108100C0050C0901A101B7
:10035000850419012AA002150126A0029501751035
:100360008100C005010906A1018506050719E029DC
:10037000E715002501950875018102050719002977
:10038000EF1500250195F075018102050819012975
:1003900005950575019102950175039101C005014F
:1003A0000906A101050719E029E7150025019508AF
:1003B000750181029501750881010507190029FF62
:1003C000150026FF0095067508810005081901290A
:1003D000051500250195057501910295017503919B
:1003E00001C011241FBECFEFDAE0DEBFCDBF04B6DF
:1003F00003FE18C08091B6029091B702A091B80296
:10040000B091B9028730904BA740B04B59F410928D
:10041000B6021092B7021092B8021092B902E0E050
:10042000F8E3099511E0A0E0B1E0E4EFF3E402C0E5
:1004300005900D92A63AB107D9F722E0A6EAB1E0FD
:1004400001C01D92A63BB207E1F70E942A110C944D
:10045000A6210C9400008230B8F46530A8F44E3028
:1004600098F450E09EE0699F400D511D1124FA015F
:1004700096E4899FE00DF11D1124EE0FFF1FE45556
:10048000FF4F85919491089581E090E0089581E077
:1004900008950E944702089581E008950E9447024E
:1004A00008950E944E02089508950E9454020895EE
:1004B000A6E0B0E0EEE5F2E00C94162149835A8301
:1004C0009E833091AD0189819A8131111AC03E819C
:1004D000332399F0222389F00E94A307182F682F55
:1004E00089819A810E947F0769817A81812F0E9488
:1004F000D50E2696E3E00C9432210E949107182F26
:10050000F3CF0E94A30769817A81F1CFFC01262FE6
:100510004081518162817381848195810E9458025A
:100520000895CF93DF93EC0161E00E948602BE0143
:100530000E944902DF91CF910895CF93DF93EC01A0
:1005400060E00E948602BE010E945502DF91CF91B9
:10055000089581E008950E94A9020895CF93C82FBD
:100560000E947B068C2F0E94AB022FEF84E39CE05D
:10057000215080409040E1F700C00000CF910895E5
:1005800081E00E94AE020E94B419089580E00E94AA
:10059000AE020E94D81908950F931F93CF93DF9353
:1005A0008C0161E00E948602EC01B8010E94741681
:1005B000811106C080E0DF91CF911F910F910895C6
:1005C000B801CE010E9451028823A1F3B801CE01E7
:1005D0000E948015882371F3B801CE010E94311367
:1005E000882341F3B801CE010E940713882311F339
:1005F000B801CE010E94C4158823E1F2F80185817B
:10060000882361F0C330FCE7DF07E9F058F4C11537
:10061000ECE7DE07A9F0C130DC47B9F0C8010E9461
:100620004C02C9CFCB358CE7D807A9F0CC35ECE725
:10063000DE0771F0CA35DC4789F70E940C0CEECF5B
:100640000E94C002B7CF0E94140C0E94C602B2CF13
:100650000E94020CE3CF0E94100CE0CF0E94E5182C
:100660000E94550308950E9459030E94EA180895B4
:10067000089581E008950895CF93DF93D82F0E94C5
:100680003903C82F882319F08D2F0E943B038C2F2C
:10069000DF91CF9108950895CF93C82F0E9438031A
:1006A0008C2F0E943C03CF91089580E00E944C0360
:1006B00008950E9460170E944C030895CF930E94F2
:1006C0006017C82F8091A8018C1779F0C093A801FA
:1006D0000E9475196093A9017093AA018093AB01E0
:1006E0009093AC018C2F0E944C03CF910895ADE004
:1006F000B0E0EDE7F3E00C941721488759876A874B
:100700007B878C879D8791110E94120B1F8286E048
:10071000FE013896DE01119601900D928A95E1F75F
:100720008D8181110DC029813A814B815C816D8160
:100730007E818F810E945C0A2D96E2E00C94332129
:10074000CE0101960E9491028111EDCFF5CFFC01FF
:100750002481213021F4808191810E94D007089565
:10076000CF93C82F882399F08CEF8C0F813A88F4AF
:100770008C2F0E94F217882329F08C2F0E94921848
:100780000E94A60B8C2F0E947B180E94A60BCF9173
:10079000089580E28C0F883048F4C77081E001C072
:1007A000880FCA95EAF70E94F50AEFCFEBE5EC0F48
:1007B000E33040F4F0E0E85BFE4F808190E00E947F
:1007C0008617E5CFC85ACB3110F7EC2FF0E0EE0FCB
:1007D000FF1FEE5EFE4F808191810E94AB17D7CF45
:1007E000882339F19CEF980F913A28F40E949218CF
:1007F0000E94A60B089590E2980F983050F48770ED
:1008000091E001C0990F8A95EAF7892F0E94FB0AAF
:10081000EFCF9BE5980F933028F490E080E00E94A2
:1008200086170895885A8B3120F490E080E00E946A
:10083000AB1708951F93CF93DF93182FEB010E94FE
:10084000B003209739F4812F0E94F003DF91CF91FC
:100850001F9108958FE99FE00197F1F700C0000014
:100860002197EFCF70E060E0893311F460E570E02C
:100870000E941A040895882321F00E94F50A0E941C
:10088000A60B0895882321F00E94FB0A0E94A60B64
:100890000895B0E0A0E0EFE4F4E00C9410216C01C6
:1008A000D62FC72FFC011581068102950F700E947B
:1008B000EB0AE82E8823F9F0E12E1123E1F08C2FCA
:1008C000807F803461F080E28D0F883008F18C2FBA
:1008D000807E803221F4D230D8F00023C9F080919C
:1008E000900282FF15C082E00E94D60B0E94EB0AA4
:1008F00091E0E82EE926BC2EB2949FE0B922FBE0FD
:10090000FB15B8F1EB2DF0E0E855FE4D0C94FA2004
:10091000E12CF1CF0C2F0F70C07F11F00295007FFA
:10092000112399F0002359F080E28D0F883010F0E8
:10093000D11107C0802F0E94F50A0E94A60B8D2FAF
:100940005AC0802F0E94050BF8CF8D2F0E94F00314
:10095000002379F080E28D0F883010F0D11104C0AF
:10096000802F0E94FB0A03C0802F0E940B0B0E9465
:10097000A60BEB2DE850FF0B349720F40E94601774
:100980000E944C03EE2089F00E94E70A80FD0DC012
:10099000F60115820E94E10A0E94F306C6010E9438
:1009A00046060E94E10A0E94FF06CDB7DEB7E9E0E5
:1009B0000C942C212C2F2F70F22EC07FC03219F0F6
:1009C000F29480EFF822DD2341F0D130D1F11123F0
:1009D00009F444C00023F1F0B2CF8091900282FD6F
:1009E00015C0112359F0FF2029F08F2D0E94F50A20
:1009F0000E94A60B80E00E94B003BBCF80E00E9463
:100A0000F003FF2009F4B5CF8F2DABCF112369F090
:100A1000011104C08F2D0E943B04ABCF013009F0BF
:100A2000A8CF8F2D0E94290BA4CF0111A2CF8F2D0B
:100A30000E9442048F2D0E94350B8F2D0E94190BAE
:100A400098CF112321F0063008F093CFE3CF053083
:100A500008F08FCF8F2D0E9442048BCF0023D1F35B
:100A6000D93349F43FEF87EE93E031508040904016
:100A7000E1F700C000008D2F0E94F0037ACF8C2F89
:100A800086958695837069F0813009F072CF8D2F3D
:100A90009C2F9370111102C080E090E00E94AB1770
:100AA00068CF8D2F9C2F9370111102C080E090E0D1
:100AB0000E9486175ECF8C2F837079F5111159CF64
:100AC0004D2F429546954770440F440F8D2F8F70E0
:100AD000042E01C0880F0A94EAF72D2F2071D4FF4D
:100AE00007C02FE030E001C0220F4A95EAF72095B9
:100AF000C695C695C370822BC23049F058F4C130F8
:100B000019F00E94CF0635CF0E94C90632CF0E944D
:100B1000D5062FCF0E94C6062CCF8695112311F043
:100B20008C2F8170882309F424CF4D2F4295469550
:100B30004770440F440F8D2F8F70042E01C0880F13
:100B40000A94EAF72D2F2071D4FF07C02FE030E080
:100B500001C0220F4A95EAF72095C695C695C37045
:100B6000822BC23049F058F4C13019F00E941E07A0
:100B700000CF0E941807FDCE0E942407FACE0E94E3
:100B8000E106F7CECF70112329F08C2F0E94F306D7
:100B90008D2F41CF8D2F0E9442048C2F0E94FF0683
:100BA000E8CED23F41F160F4D03FB9F0D13F81F0BF
:100BB000112309F443C00111C2CE8C2F8F711FC0C5
:100BC000D33F01F1D43FA1F78091900282FD24C070
:100BD0008C2F8F71112311F312C0112341F00530B6
:100BE00008F0C7CE8C2F8F710E940C07C2CE063042
:100BF00008F0BFCEF7CF8C2F8F711111CFCF0E948D
:100C0000F306B7CE112329F08C2F8F710E94EA06CC
:100C1000B0CE0E94E606ADCE112331F063E08C2FFA
:100C20008F710E94B80BA5CE81E00E94D60B0230D6
:100C300008F49FCE82E00E94D60B9BCE002359F091
:100C4000D93309F018CFEFEFF7EE23E0E150F04091
:100C50002040E1F70ECF8C2F8F71A0CF0F931F9301
:100C6000CF93DF93EC01688179818D810E94DB074E
:100C70008C010E942A070E94C506B801CE010E947D
:100C80004904DF91CF911F910F910895CF93DF9386
:100C9000EC018C81882399F0CE010E94CC02811155
:100CA00011C00E94EB0A882351F08D81882339F00E
:100CB0008091900282FF03C082E00E94D60BDF91F8
:100CC000CF910895CE010E942E06CE010E949D0272
:100CD000F6CF90E080E00E94861790E080E00E94CE
:100CE000AB170E94120B0E94A60B08950E94A91830
:100CF0000E94690608950E94020B0E9476060895DC
:100D000092959F70963091F058F4925F9F70923058
:100D100058F4803F19F030F4883E30F481E00895B3
:100D20009A5FF4CF843FD1F380E00895883EB0F31A
:100D3000813FD1F7F3CFFC012481222339F0808158
:100D400091810E94D0070E948006089580E0089556
:100D5000A6E0B0E0EEEAF6E00C9417212696E2E079
:100D60000C943321A7E0B0E0E8EBF6E00C941721F7
:100D70002796E2E00C94332108950E94BC06089562
:100D80000E94BD068093CA01089508950E94C0067E
:100D900008959091CA01892B0E94C00608959091F0
:100DA000CA0189230E94C00608959091CA0189272B
:100DB0000E94C00608950E94BC0608950E94DB06AA
:100DC00008950E94DE068093C901089580E00E9484
:100DD000E106089591E001C0990F8A95EAF7892FFD
:100DE0000E94E106089521E030E001C0220F8A95BB
:100DF000EAF78091C901822B0E94E106089521E063
:100E000030E001C0220F8A95EAF720958091C90150
:100E100082230E94E106089521E030E001C0220F04
:100E20008A95EAF78091C90182270E94E106089518
:100E30009091C901892B0E94E10608959091C90102
:100E400089230E94E10608959091C90189270E9493
:100E5000E10608950895262F277091E001C0990FAB
:100E60002A95EAF723E0769567952A95E1F7FB0145
:100E7000EE0FFF1FE60FF71FE40FF51F50E040E0F5
:100E8000682F70E08191DF0111979B01042E02C051
:100E9000369527950A94E2F7217021952827292372
:100EA00028272C934F5F5F4F4330510559F7089522
:100EB000A82FA77023E0969587952A95E1F7FC0166
:100EC000EE0FFF1FE80FF91FE60FF71F50E040E09D
:100ED00080E0219130E00A2E02C0369527950A94D1
:100EE000E2F721703327042E01C0220F0A94EAF79B
:100EF000822B4F5F5F4F4330510559F70895262FDE
:100F0000953070F48E3060F4682F70E08EE0989F1A
:100F1000600D711D11244EEA51E0822F0E942B07B3
:100F20000895292F953068F48E3058F490E06EEAD9
:100F300071E03EE0239F800D911D11240E9458070F
:100F4000089580E00895CF92DF92FF920F931F9350
:100F5000CF93DF936C010091C9018091CA01082BE6
:100F6000C3E0D0E010E0FC2EC8010C2E02C0959525
:100F700087950A94E2F780FD0CC02197A0F7F12C29
:100F80008F2DDF91CF911F910F91FF90DF90CF9028
:100F90000895B6018C2F0E94E10E019771F3F0CFF6
:100FA000CF93DF93EC010E94A307BE010E94E10EE4
:100FB000DF91CF9108951F93CF93DF93EB01909131
:100FC000AD01992339F0CB010E94D007DF91CF9179
:100FD0001F910895882369F0CB010E94A307182F61
:100FE000682FCE010E947F07BE01812F0E94E10E73
:100FF000EDCFCB010E949107182FF6CFE1E0F0E092
:10100000DF0102C0AA0FBB1F6A95E2F7BD01DF0135
:1010100002C0AA0FBB1F4A95E2F76A2B01C0EE0F70
:101020002A95EAF7962F9823961302C08E2B0895DF
:10103000E0958E230895242F462F682F8091C901B3
:101040000E94FE070E94E10608951F93CF93DF934D
:10105000C091CB0117E08091CC018C1304C0DF91CB
:10106000CF911F910895D0E01C9FF0011D9FF00DBE
:101070001124E353FE4F20813181428153816481E9
:10108000758186810E94B2062196C770E4CF2091B7
:1010900005023091060240910702509108026091CA
:1010A000090270910A0280910B020E94B206089513
:1010B000CF93DF9380910B02807F09F04DC0809128
:1010C0000A02882309F448C0E091CB015091CC0179
:1010D000C0910602D091050260910702709108024A
:1010E00047E05E17C9F18E2F90E0E49FF0011124D4
:1010F000E353FE4F2481222391F1489FF001499F41
:10110000F00D1124DF01A353BE4F11962C911197BE
:101110002C1325C02C912D1322C015962C911597B8
:1011200021111DC012962D913C91261B370B283C96
:101130003105A8F480910B028F70806180930B02BF
:10114000ED52FE4F80818F708061808385E092E058
:101150000E9446060E942508DF91CF910895FC0168
:101160003196E770BECF482F2091CB019091CC01F2
:1011700057E0291302C080E0089530E0529FF0014B
:10118000539FF00D1124E353FE4F8181681306C075
:101190008081481303C085818111EECF2F5F3F4FBF
:1011A0002770E7CFA4E1B0E0E8EDF8E00C940D2162
:1011B0008C0186E0F801DE011F9601900D928A9560
:1011C000E1F7F8018481E58095E0A92E92E0B92E3F
:1011D0009091090291111FC08823D1F0EE20A9F04F
:1011E000C8010E949B06F82E882379F087E0F80159
:1011F000D50101900D928A95E1F7C5010E94A703E0
:101200000E9458080E9447085FC0C8010E94460615
:10121000FF24F39459C0C080D18082809380F090E5
:101220000A022091070230910802A401421B530BCD
:10123000FF2009F4F9C0483C510508F0A7C08823F5
:1012400009F442C09091060280910B02282F207F62
:1012500009F05CC09D1116C090910502C91212C020
:10126000E1104EC08F70806180930B020E9447088E
:1012700085E092E00E94460680910B02F801868389
:10128000F12C22C0E1103CC06D2D8C2D0E94B308C2
:101290006D2D8C2D0E94B308E82E8111F1CFCF86E1
:1012A000D88A8F8598890E94D007292F22952F7080
:1012B000243078F49F702230A8F09923B9F0F80117
:1012C0009681907F99F4FE2C8F2D6496ECE00C941F
:1012D00029212A5F2F70223068F0C8010E9446063B
:1012E000EF2CF1CF992311F0882369F3805E8830C9
:1012F00050F3F3CF803F38F3815F833070F7E3CF53
:1013000080910B02816080930B02BACF9D1113C0B4
:1013100090910502C9120FC0E1100DC08683C8016B
:101320000E94460687E0F801A5E0B2E001900D9228
:101330008A95E1F767CFC8010E949B06882309F4CC
:1013400064CFEE2009F461CF80910B02803288F0E7
:101350002091050230910602398728879B868A866C
:10136000909109029C871D868E87CE0108960E9467
:10137000460687E0F801A5E0B2E001900D928A955B
:10138000E1F70E9458080E94470842CF90910B0253
:10139000292F207FA1F4682D9A8A898AA6017A894B
:1013A0009E2D0E94A80685E092E00E94460687E0F6
:1013B000F50111928A95E9F70E94470861CF8823C9
:1013C00009F482CF809106028D1110C08091050230
:1013D000C8120CC0E1100AC09683C8010E944606DC
:1013E00087E0F50111928A95E9F76ECFC8010E9456
:1013F0009B06882309F409CFEE2009F406CF8091DB
:101400000B02803208F4B5CF20910502309106021C
:101410003A8329839C828B82909109029D831E824C
:101420008F83CE010196A3CF483C5105B8F58823A0
:1014300009F4EECEFE2CEE2009F4E7CE80910602F0
:101440008D111EC080910502C8121AC080910B0236
:1014500080FD0DC0982F907F51F08683903F09F456
:101460005ECF982F907F905F8F70892B57CF87E04A
:10147000F801A5E0B2E001900D928A95E1F724CF42
:10148000C8010E949B06811174CF80910B0281607C
:1014900080930B02C8010E94460616CF682D9A8AD7
:1014A000898AA6017A899E2D0E94A80687E0F50107
:1014B00011928A95E9F7A6CEAEE0B0E0E2E6FAE056
:1014C0000C941621288739874A875B876C877D872C
:1014D0008E87CE0108960E94D2088823B1F06C85D1
:1014E000662341F0288539854A855B857D858E8513
:1014F0000E94B20617E08091CB019091CC01891334
:101500003DC02E96E3E00C94322187E0FE01389630
:10151000DE01119601900D928A95E1F78C85882362
:1015200049F32091CC0130E0C901019687709927D9
:101530004091CB014817190699F097E0929FD0018E
:10154000939FB00D1124A353BE4FFE01319601901D
:101550000D929A95E1F78093CC010E942508CACF9D
:101560000E947B061092CC011092CB0187E0E5E04F
:10157000F2E0DF011D928A95E9F7BCCF819FC0019F
:10158000112483539E4F0E94D208882309F4B9CFB7
:10159000E091CB011E9FF0011124E353FE4F208107
:1015A0003181428153816481758186810E94B206B6
:1015B0008091CB0190E00196877099278093CB01B1
:1015C0009ACF80913402869586958695089580916C
:1015D00034028770089590913402977081E009F485
:1015E00080E0089580916002089590916002892BB7
:1015F0008093600208958095909160029823909363
:101600006002089510926002089590915F02892B04
:1016100080935F020895809590915F029823909344
:101620005F02089510925F02089508950E94150BBD
:10163000089590913502292F282331F08095892330
:10164000809335020E94160B089508950E94250B81
:10165000089590913602292F2823281729F0982BD6
:10166000909336020E94260B089590913602292FFE
:10167000282331F080958923809336020E94260B1F
:10168000089580913602882329F01092360280E076
:101690000E94260B0895CF93C091600280915F0253
:1016A000C82B80913602882331F0C82B0E94D017B6
:1016B00081110E94410B8C2FCF910895CF93DF931E
:1016C000C0910201D09103010E944B0B8883C0910D
:1016D0000201D091030148E050E06CE272E0CE01DB
:1016E0000E943E21892B59F088E0FE01ACE2B2E075
:1016F00001900D928A95E1F7CE010E946D17DF915E
:10170000CF910895CF93DF93C0910001D091010153
:101710000E944B0B8983C0910001D091010140E2EE
:1017200050E06CE072E0CE010E943E21892B59F01E
:1017300080E2FE01ACE0B2E001900D928A95E1F703
:10174000CE010E947817DF91CF9108958091110109
:10175000882339F080918F0287FF03C00E94820B9B
:1017600008950E945E0B089508950E94B40B089599
:101770009091900292FF11C098E0899F90011124EE
:10178000622B609334020E94F306809134028695A6
:10179000869586950E94B50B08950E94F3060895DC
:1017A0001092340280E00E94B50B089590913402AB
:1017B0008095892380933402282F277069F4891734
:1017C00059F09091900292FF07C086958695869574
:1017D0000E94FF060E94D00B08959091900292FB08
:1017E000222720F9281769F080FB92F99093900244
:1017F00080918F02909190020E94360C82E00E94AC
:10180000D60B08958091900282FB882780F991E0A1
:1018100089270E94ED0B089581E00E94ED0B089549
:1018200080E00E94ED0B08956FEF7FEF90E080E085
:101830000E949021089590E080E00E945C21853E06
:101840009E4F19F40E940D16089580E0089582E0DD
:1018500090E00E945421089583E090E00E9454217A
:10186000089584E090E00E945C210895BC0184E02A
:1018700090E00E9490210895AB01BC018FE090E0C0
:101880000E9484210895AB01BC0183E190E00E9495
:101890008421089560E070E0CB010E94430C08951C
:1018A00060E070E0CB010E943C0C0E944A0C08955D
:1018B000A8E0B0E0EEE5FCE00C94172165EE7EEFC9
:1018C00090E080E00E94902160E082E090E00E9441
:1018D000722181E08093CA0161E083E090E00E9480
:1018E000722160E074E184E090E00E94902160E069
:1018F00086E090E00E94722160E087E090E00E9424
:10190000722140E050E0BA0188E090E00E9484211A
:1019100060E083E290E00E94722160E08CE090E061
:101920000E94722160E08DE090E00E947221198295
:101930001A821B821C821D821E821F82188648E02A
:1019400050E067E170E0CE0101960E94622140E024
:1019500050E0BA018FE190E00E94842180E00E9473
:1019600026160E9456160E94500C2896E2E00C940F
:1019700033210E94580C0895682F8EE090E00E9459
:1019800072210895A6E0B0E0E8ECFCE00C9415218B
:101990000E9469198C018091610290916202801706
:1019A000910781F019821A820E946919682F498172
:1019B0005A81792F80E090E00E94770310936202B1
:1019C000009361022696E4E00C9431210E9475197F
:1019D0006093710270937202809373029093740209
:1019E00060936D0270936E0280936F029093700209
:1019F0000895089508950E94F90C089508950E948D
:101A0000FE0C089587ED9FE00E9441110E94FA0CA0
:101A10000E94FB0C089581E008950E940B0D08952B
:101A20000E940B0D0895089508950E94130D0E94C1
:101A3000140D08950E941B0C811102C00E94B90C64
:101A40000E94270C809375020E94310C90939002A3
:101A500080938F020E9464110E942C0C0E94C60683
:101A60008091C9010E94DE0608950E9460190E94BB
:101A700066160E949A100E941A0D0E944B030E9443
:101A8000FF0C0895A6E0B0E0E8E4FDE00C940B2123
:101A90000E940D0D811108C00E94C20C0E945E03BD
:101AA0002696EEE00C9427210E94B01023E6822EA9
:101AB00022E0922E640110E0F601E190F1906F01B6
:101AC000812F0E94E10F1F5F153009F44BC0E8160B
:101AD000F90691F38091750281FD0E94EA0F0E9440
:101AE000100D782E10E066246394812F0E94E10F80
:101AF0007C01F401A190B1904F018A159B0561F121
:101B000000E0CC24C394D12CAE24BF24C5018C2189
:101B10009D21892BC1F07720B1F009831A830E949F
:101B200069199C838B836D8221E0C7018C219D21E3
:101B3000892B09F420E049815A816B817C818D8158
:101B4000922F0E9477030F5FCC0CDD1C0E30F1F654
:101B5000F4013297F182E0821F5F153031F60E9466
:101B6000E60C9CCFE816F90609F0B4CF95CF1F9389
:101B7000CF93DF930E94E60EEC01C11580E5D807F4
:101B8000F0F5C11580E4D80708F09CC0C03ED1052F
:101B900020F5CD3CD10508F082C0C83AD10578F4D3
:101BA000C53AD10508F073C0C130D10519F12097AD
:101BB00009F1C430D105F0F4D0E0C0E01BC0C33C53
:101BC000D105D0F7C85AD0E0CC0FDD1FC55BDE4F82
:101BD0000990D881C02DD4640DC0C11580E2D8070A
:101BE00008F0D1C0C11581E0D80708F05AC0C83E3E
:101BF000D10510F7CE01DF91CF911F910895C03626
:101C000082E5D80718F5C03482E5D80708F06BC024
:101C1000C03282E5D80708F05FC0C11582E5D80759
:101C200008F497C02C2F2695269580E2289F9001D6
:101C300011248C2F8370C1E0D0E002C0CC0FDD1FD7
:101C40008A95E2F7C22BD32BDD68D4CFC03A82E568
:101C5000D80760F4C03882E5D80708F459C0CF71BE
:101C6000D0E0DC2FCC27C46FD06AC4CFC03C82E563
:101C7000D80708F462C0C03E82E5D80708F09CCFC0
:101C8000DC2FCC27CC27DF71C06FD06AB3CFC55A09
:101C9000D0E0CF57DE4FC881D0E0D064ABCFD06565
:101CA000A9CF8D2F0E94880F182FCE0199270E944F
:101CB000E60EC12FD0E0DC2FCC27CC27DF71C82B5C
:101CC000D92B98CFCE0199270E94E60ECC27DF7042
:101CD000C82BD92BD06A8ECFCF71D0E0DC2FCC2788
:101CE000C16FD06A87CF2C2F26952695277080E26A
:101CF000289F900111248C2F8370C1E0D0E002C096
:101D0000CC0FDD1F8A95E2F7C22BD32BDC6872CF94
:101D10002C2F26952695277080E2289F900111246C
:101D20008C2F8370C1E0D0E002C0CC0FDD1F8A95FC
:101D3000E2F7C22BD32BDA685DCF8C2F8F710E9414
:101D4000880FC82FD0E0DC2FCC27CC27DF71D062E2
:101D500051CF8C2F8F710E94880F55E0D695C79573
:101D60005A95E1F7CF70D0E0DC2FCC27282F30E058
:101D700084FF05C044E0220F331F4A95E1F7C22BD0
:101D8000D32BD06937CF8D2F8F710E94880F182FDA
:101D9000CE0199270E94E60EC12FD0E0DC2FCC2780
:101DA000CC27DF71C82BD92BD2CF462F753030F41A
:101DB0006E3020F4672F0E941F12089590E080E09B
:101DC00008950E94D50E0E94B70D0895823891059E
:101DD000B9F1B0F48133910509F47DC048F489323A
:101DE000910509F46DC08A32910509F47BC008950C
:101DF0008533910509F45FC08933910509F1089590
:101E0000833E9105D9F138F4803E910529F1823E57
:101E1000910579F10895863E9105D9F1873E9105A6
:101E200009F43EC0843E910541F52091900221FFC6
:101E300024C080918F0284FD19C087EE90E0089540
:101E400020918F02237009F05AC02091900223FF45
:101E500014C089E290E0089520918F0220FD38C0DF
:101E60003091900230FF09C024FF43C090E080E031
:101E7000089520918F0222FDF7CF089520918F02BF
:101E800022FD3AC03091900230FD39C024FFF5CFD9
:101E9000EDCF20918F0223FFF0CF24FDE7CFCDCFF0
:101EA00020918F0223FD2EC03091900231FFEECFA2
:101EB00084EE90E0089520918F0225FFDECFC9CFF8
:101EC00020918F0225FD21C02091900223FFD5CFC4
:101ED00089E390E0D2CF20918F0226FFCECF8AE215
:101EE00090E0089520918F0226FFC7CF81E390E014
:101EF000089583EE90E0089582EE90E0089580EEDC
:101F000090E0089586EE90E0089585E390E00895CE
:101F100090918F0292FF10C041E0282F247124304D
:101F200009F040E031E0282F2871283009F030E036
:101F3000431711F02CE0822793FF10C041E0282FB7
:101F40002471243109F040E031E0282F2871283134
:101F500009F030E0431711F02CE082273091900215
:101F600030FF10C051E0282F2171213009F050E0DE
:101F700041E0282F2871283009F040E0541711F073
:101F800029E0822731FF10C041E0282F2171213143
:101F900009F040E031E0282F2871283109F030E0C5
:101FA000431711F029E0822794FD877E089580E091
:101FB000089508950E94D90F089508950E94DD0F95
:101FC0000895E82FF0E0EE0FFF1FE556FD4F8081EA
:101FD00091810895089580EA8A95F1F7089500C0E7
:101FE00008950E94EB0F0895F894E82FE295EF70A2
:101FF000F0E031A1282F2F7081E090E001C0880F20
:102000002A95EAF7982F9095932391A392A1892B73
:1020100082A3789408950F931F93CF93DF93C2E91F
:10202000D1E089918F3F11F00E94F40F81E0C73910
:10203000D807B9F7C4E8D1E002E911E089918F3FF0
:1020400011F00E94F40F0C171D07C1F7DF91CF911B
:102050001F910F910895AF92BF92DF92EF92FF927E
:102060000F931F93CF93DF938C01D62EC62FD0E012
:10207000CE018E569E4F7C01FC0120812F3F09F43A
:102080004CC0F894E22FE295EF70F0E031A12F7090
:1020900081E090E001C0880F2A95EAF7932F982BF2
:1020A00091A392A18095892382A378940E94EF0F37
:1020B000E4E8F1E041E050E0B12CA12C21912F3F68
:1020C000B1F1A22FA295AF70B0E090968C9190E004
:1020D0002F7002C0959587952A95E2F780FD27C05D
:1020E000CA01A82AB92A440F551F81E0E239F8072E
:1020F00029F7F70180818F3F11F00E94F40F61E012
:10210000A114B10409F460E08D2D0E94F10FCC0FF1
:10211000DD1FC00FD11FB982A882DF91CF911F911F
:102120000F91FF90EF90DF90BF90AF90089590E0F7
:1021300080E0D7CF0E940B108AE0EBE9F2E0DF01EC
:10214000982F1D929A95E9F7E1E9F2E0DF011D92DF
:102150008A95E9F785E00E94EB100E94DA0F089556
:10216000AAE0B0E0E6EBF0E10C9414218E010F5FE1
:102170001F4F8AE0F80111928A95E9F7F12C6F2D33
:10218000C8010E942B10F394F5E0FF12F8CF4AE04B
:1021900050E0B80181E992E00E943E2121E00097E1
:1021A00009F420E0892B41F08AE0F801A1E9B2E0CE
:1021B00001900D928A95E1F745E06BE972E081E9C3
:1021C00092E00E94EC10182F0E94DE0F812F2A96B9
:1021D000E5E00C9430210895B0E0A0E0E2EFF0E1FA
:1021E0000C9411216C017B01042FC22F222379F062
:1021F00081E0809378020E9469199093770280931E
:10220000760280E0CDB7DEB7E8E00C942D21D091C6
:102210007802DD23B1F380917602909177020E94DB
:102220008119059770F310E0000F111FA801B60186
:10223000C7010E943E21892B31F0A801B601C701D8
:102240000E944B21CD2F109278028C2FDBCF0E9461
:10225000420D08950E9402190E94681B0E94020DFF
:102260000E94821B0E94350D0E948F1B0E94941BAE
:102270000E9427110E94AE1B0E94361A0E94150D63
:10228000F5CF9093A7018093A60108950E94140CA6
:10229000089580E00E94E10F817008950E94B010BF
:1022A0002FEF86E791E0215080409040E1F700C099
:1022B00000000E94B0100E944911882321F00E9462
:1022C00046110E94B41908950E944E11089584E0A9
:1022D000089550E0440F551F9CE1699F400D511D2A
:1022E00011249CE8899F400D511D1124CA01889634
:1022F00008950F931F93CF93DF938430C8F4653014
:10230000B8F44E30A8F40E9469118C010E94542147
:10231000C82FD0E0DC2FCC27C80101960E945421A1
:102320009E01282BC901DF91CF911F910F91089534
:1023300090E080E0F8CF0F931F93CF93DF93122F9D
:10234000032F843078F4653068F44E3058F40E94DE
:102350006911EC01602F0E947221612FCE0101965C
:102360000E947221DF91CF911F910F9108951F93C9
:10237000CF93DF93D0E0C0E011C0412F6C2F8D2FA1
:102380000E942B029C01412F6C2F8D2F0E949B11CC
:102390001F5F1E3091F7CF5FC53011F010E0EDCF19
:1023A000DF5FD43041F7DF91CF911F910895EF9215
:1023B000FF920F931F93CF93DF93EC018A017C016F
:1023C000E60EF71ECE018896CE15DF0529F4CDB7AF
:1023D000DEB7E6E00C942F21C03322E0D20740F4B0
:1023E0000E945421F80180830F5F1F4F2196EACF8E
:1023F000F8011082F9CFB0E0A0E0E1E0F2E10C9446
:1024000011217C016A018C01060F171FEC01CE011E
:102410008896C017D10729F4CDB7DEB7E8E00C9451
:102420002D21C03322E0D20740F4FE01EE19FF094E
:10243000EC0DFD1D60810E9472212196E8CF843051
:1024400038F4653028F44E3018F40E94791108955C
:1024500090E080E0089580E1089588EA91E0089591
:10246000EF92FF920F931F93CF93DF93EC018A01BA
:102470007C01E60EF71ECE01885A9D4FCE15DF0572
:1024800029F4CDB7DEB7E6E00C942F21C83A21E05D
:10249000D20740F40E945421F80180830F5F1F4F40
:1024A0002196E9CFF8011082F9CFB0E0A0E0EBE58A
:1024B000F2E10C9411217C016A018C01060F171FB7
:1024C000EC01CE01885A9D4FC017D10729F4CDB732
:1024D000DEB7E8E00C942D21C83A21E0D20740F4A1
:1024E000FE01EE19FF09EC0DFD1D60810E947221B5
:1024F0002196E7CFCF93DF93C8E5D2E060E0CE012D
:102500000E9472212196C11584E0D807B9F7DF91A6
:10251000CF910895A8E0B0E0E0E9F2E10C940F213A
:10252000F82E8FE08F1508F46EC08FEF93E00E94B5
:102530005421811168C008E512E0F11035C0FE0198
:1025400031966F0188E011928A95E9F77801FFEFE3
:10255000EF1AFF0AC8010E94542189831A82882336
:1025600009F451C08130D1F4580182E0A80EB11CA9
:10257000C7010E9454218A83882309F444C09FEF35
:10258000980F9330F0F4780193E0E90EF11CC50147
:102590000E9454218B838823B1F11C8260E0C60124
:1025A0000E94B1148701D2CF011594E0190759F1A7
:1025B000C8010E945421811101C0FA940F5F1F4F7E
:1025C000BCCF7501843051F702E010E07501EFEFE8
:1025D000EE1AFE0AC5010E945421F601E00FF11F18
:1025E0008083882381F08C3741F4E2E0F0E0EC0F47
:1025F000FD1FE00FF11F1082D1CF0F5F1F4F57015A
:102600000730110519F72896EAE00C942B21CF9397
:10261000DF93EB0186319C4711F50E94F20A9D8100
:10262000992399F08A7A91E009F490E090937902E5
:10263000811109C089E20E947B180E94A60B80E0EC
:10264000DF91CF91089585E3F6CF809179028111D2
:1026500004C089E20E949218F0CF85E3FBCF81E0AD
:10266000EFCFCF93DF93EC01FB018581882309F441
:10267000D2C09E0130572332310508F0B2C00E940B
:10268000310C9093900280938F02FE01E150F0474D
:10269000E232F10520F4EC54FE4D0C94FA208091C6
:1026A0008F02816080938F0293C080919002886036
:1026B000809390028DC080918F028260F3CF8091D1
:1026C0008F028460EFCF80918F028860EBCF809182
:1026D00090028160EDCF809190028260E9CF80917D
:1026E0008F028061DFCF80918F028062DBCF80918B
:1026F0008F028064D7CF0E947B0680918F02806812
:10270000D1CF80918F028C60CDCF80919002836079
:10271000CFCF80918F028E7FC5CF80919002877F2F
:10272000C7CF80918F028D7FBDCF80918F028B7F2D
:10273000B9CF80918F02877FB5CF809190028E7F35
:10274000B7CF809190028D7FB3CF80918F028F7E23
:10275000A9CF80918F028F7DA5CF80918F028F7B33
:10276000A1CF0E947B0680918F028F779BCF8091B3
:102770008F02837F97CF809190028C7F99CF809139
:102780008F0282FB992790F921E0922790FB82F932
:1027900090FB83F987CF80919002982F909591704C
:1027A0008E7F892B90FB81F983CF90918F02892FA7
:1027B0008F7B96FF806476CF0E947B0690918F027C
:1027C000892F97FB87F980586DCF81E00E94BC0C60
:1027D00080918F02909190020E94360C0E947B069D
:1027E00080E0DF91CF91089580E0F0CF90918F024B
:1027F000892F8F7E94FF806155CF90918F02892F12
:102800008E7F90FF81604ECF90919002892F877FBD
:1028100093FF88604DCF81E0E4CFB0E0A0E0E3E13A
:10282000F4E10C941021E82FF0E0EC53FE4FB4904B
:10283000282F26952695269530E0F901EC59FD4F75
:102840000491877010E0082E02C0159507950A9430
:10285000E2F701701127F901EC5AFD4FE490F12CD9
:10286000082E02C0F594E7940A94E2F791E0E92279
:10287000FF24F901EC5BFD4FC491D0E002C0D59577
:10288000C7958A95E2F7C170DD27C62ED12C0115B8
:10289000110549F5E114F10431F086EE0E94B00310
:1028A000C601009771F5B6018B2D0E941A04C6016E
:1028B000009779F5E114F104A1F50115110531F046
:1028C00081EE0E94F003C6010097C9F5CD2B31F0CF
:1028D0008CE20E943204C114D104C9F5CDB7DEB731
:1028E000E9E00C942C2181EE0E94B003C601009710
:1028F00089F2EFE9FFE03197F1F700C0000001979E
:10290000F6CFEFE9FFE03197F1F700C00000019743
:10291000C8CFEFE9FFE03197F1F700C00000019761
:10292000C7CF86EE0E94F003C601009731F2EFE9AF
:10293000FFE03197F1F700C000000197F6CFEFE913
:10294000FFE03197F1F700C000000197BDCF8FE99C
:102950009FE00197F1F700C0000091E0C91AD1088B
:10296000BACFEF92FF920F931F93CF93DF93EC01B7
:10297000162F0AE08881882309F459C0813009F0B4
:1029800052C08981813071F47E0182E0E80EF11C31
:102990008A810E943204E701812F90E00097D9F5E7
:1029A0002196E8CF823041F47E01E2E0EE0EF11C88
:1029B0008A810E94B003EFCF833041F47E01F2E0C0
:1029C000EF0EF11C8A810E94F003E5CF843011F0F4
:1029D0002196E2CF2A81229690E080E0AE014F5FFF
:1029E0005F4F2053330B2A30310550F00097A1F28E
:1029F000EFE9FFE03197F1F700C000000197F6CF53
:102A0000089FB001099F700D1124C901860F971FFF
:102A10002981EA01E3CFEFE9FFE03197F1F700C048
:102A200000000197BBCF612F0E940D14B9CFCDB725
:102A3000DEB7E6E00C942F210F931F93CF93DF9323
:102A4000C42FD22FFC0185818823C9F040937C02DA
:102A50000E94691990937B0280937A0280E28C0F26
:102A6000883040F4C77081E001C0880FCA95EAF74A
:102A70000E943B04DF91CF911F910F910895109117
:102A80007C02141332C080917A0290917B020E94E2
:102A90008119883C910548F5C0E2CD0F1D17B9F0AA
:102AA00080E2810F883040F4177081E001C0880F08
:102AB0001A95EAF70E944204C83048F481E09D2F3D
:102AC000977001C0880F9A95EAF70E943B04802F07
:102AD0000E943204C83070F6D77081E001C0880FC0
:102AE000DA95EAF70E944204C5CF80E28C0F883065
:102AF00008F6C77081E001C0880FCA95EAF7F2CFE7
:102B00000F93DB0188519C4787309105A0F5FC01AC
:102B1000EA52FE4D0C94FA2006E221EE41EE6AE103
:102B20007CE7CD010E941C1580E00F91089507E21B
:102B300025EE45EE6BE17CE7F4CF06E221EE40EEB8
:102B400068E17CE7EECF07E225EE44EE69E17CE741
:102B5000E8CF06E221EE42EE6CE17CE7E2CF07E24D
:102B600025EE46EE6DE17CE7DCCF08E221E045EEA4
:102B70006EE17CE7D6CF15968C91882319F01092E0
:102B80007C02D3CF81E0D1CF1F93CF93DF938737E0
:102B90002CE7920759F0C1E088379C47E1F4FB012C
:102BA000C581CC2371F10E94071606C0FB01C581C7
:102BB000CC23B1F00E9404160E94F3060E940A166C
:102BC000D82F0E940716C82F0E9404164D2F6C2F75
:102BD0000E941B08C0E08C2FDF91CF911F910895B8
:102BE0000E9404160E94FF060E940A16182F0E94D7
:102BF0000716D82F0E940416412F6D2F0E941B0824
:102C0000EACF0E940716EECF8091060108958091C9
:102C10000501089580910401089584E290E00E94E6
:102C20005421843289F485E290E00E945421863058
:102C300059F486E290E00E94542191E0863009F038
:102C400090E0892F8170089580E0FCCFCF93C82F4A
:102C50006FEF811164E284E290E00E947221C11161
:102C60000DC0CFEF6C2F85E290E00E9472216C2F97
:102C700086E290E00E947221CF910895C6E0F2CFE3
:102C8000089587E290E00E945421682F70E090E060
:102C900080E008950895CF93C62F0E944A166C2FA6
:102CA00087E290E00E947221CF91089580E00E9417
:102CB000261660E070E0CB010E944B160E94B7110F
:102CC0000E947A1281E00E94261608950E94401602
:102CD0000E9441160E944A160E940D16811102C0E0
:102CE0000E945616089508959C01FB018581882352
:102CF00051F0A90157574038510530F4822F0E94F6
:102D00008A1280E0089581E008952FEFFC0120836E
:102D100008950E948516089580E00895B0E0A0E02F
:102D2000E4E9F6E10C941121EC01C62E0E948C1608
:102D3000811110C0E881E150E331B8F4F0E0E352D2
:102D4000FE4D0C94FA2019828CE08A836C2DCE0102
:102D50000E942D1ACDB7DEB7E8E00C942D218981B1
:102D60008230C1F028F4813061F08FEF8883EECF9C
:102D7000833099F08430C9F71A821B821C821D822D
:102D8000E5CF0E9475190E9400216A837B838C83A2
:102D90009D83DCCF0E944116F6CF8A81082F10E078
:102DA0007E019EE0D92ED80E0530110578F6802FD1
:102DB0000E94E10FF701938384830F5F1F4FF2E0BE
:102DC000EF0EF11CD012F0CFC1CF8981823031F0EB
:102DD000853059F68A810E947316B8CF6A817B814B
:102DE0008C819D810E9400210E944B16AFCF4B81A8
:102DF0006A8189810E9479119827892798279D8364
:102E00008C83A4CF2C813D813227232732274B810D
:102E10006A8189810E949B1199CF0E94B71196CF38
:102E20006C2DCE010E94891691CF0E942B128983AE
:102E30008DCF0E942D129827892798279A838983FE
:102E400085CF6B8170E089819A81AE014C5F5F4FC5
:102E50009827892798270E94301278CF6B8170E0DD
:102E600089819A81AE014C5F5F4F98278927982707
:102E70000E9455126BCF0E947A1268CF0E94671190
:102E8000D6CF6B8170E089819A81AE014C5F5F4F34
:102E90009827892798270E94D71158CF6B8170E017
:102EA00089819A81AE014C5F5F4F982789279827C7
:102EB0000E94FB114BCF9093820280938102089570
:102EC000E0918102F0918202309729F00190F08127
:102ED000E02D0995089580E00895E0918102F09138
:102EE0008202309721F00280F381E02D0995089548
:102EF000E0918102F0918202309739F026E0DC0106
:102F00002C930480F581E02D09950895A3E0B0E0AD
:102F1000ECE8F7E10C94172120917F0230918002B8
:102F200028173907A1F09093800280937F02E091E7
:102F30008102F0918202309751F023E029839B8334
:102F40008A830084F185E02DCE01019609952396B0
:102F5000E2E00C943321A3E0B0E0E1EBF7E10C9464
:102F6000172120917D0230917E0228173907A1F0A8
:102F700090937E0280937D02E0918102F091820223
:102F8000309751F024E029839B838A830084F18564
:102F9000E02DCE01019609952396E2E00C943321B1
:102FA00020910201309103012E5F3F4F809111016A
:102FB000882379F080918F0287FF0BC02091000158
:102FC000309101012E5F3F4F9EE180E0915018F457
:102FD000089596E0FACFF90141919F014423B1F39E
:102FE0008F5FF4CF882321F190911101992311F182
:102FF00090918F0297FF1EC0E82FE695E695E69523
:10300000EE31B0F42091000130910101E20FF32F75
:10301000F11D228130E0877041E050E002C0440F92
:10302000551F8A95E2F72423352381E0232B91F461
:1030300080E008952091020130910301F901329658
:10304000285F3F4F9191981721F0E217F307D1F7CE
:10305000EFCF81E008959C01FC0132969FEF80E064
:103060004191461751F09F3F19F4411101C0982F2B
:103070008F5F8630A9F79F3F09F40895290F311D0E
:1030800097FD3A95F90162830895FC0132960896FE
:103090002191261303C0DF0111971C92E817F9074D
:1030A000B9F70895E62FE695E695E695EE3168F4D2
:1030B000E80FF92FF11D677021E030E001C0220F09
:1030C0006A95EAF78281822B82830895E62FE6953E
:1030D000E695E695EE3170F4E80FF92FF11D677073
:1030E00021E030E001C0220F6A95EAF72095828145
:1030F000282322830895682F80911101882359F095
:1031000080918F0287FF07C080910001909101019B
:103110000E945218089580910201909103010E942B
:103120002B180895682F80911101882359F0809100
:103130008F0287FF07C080910001909101010E94DA
:103140006618089580910201909103010E9445182C
:10315000089580911101882379F080918F0287FF73
:103160000BC0E0910001F091010132968EE1DF0188
:103170001D928A95E9F70895E0910201F09103010B
:10318000329686E0F4CF08950E94C3180895811105
:1031900006C081E0809383020E94C418089582E0F3
:1031A000F9CF83E0809383020E94C41808950E949F
:1031B000C718089581E0809383020E94C41808957F
:1031C0000E94DA180895089508950E94E418089559
:1031D000089508950E94E3180895CF930E94E81877
:1031E0000E94B0100E94E918C0E08C2F0E94E10FED
:1031F000892B31F4CF5FC530C1F780E0CF910895BE
:1032000081E0FCCF85B7806885BF85B7806885BFC2
:1032100008951F921FB61F9211248F939F93AF930F
:10322000BF9380918402811113C08091A502909177
:10323000A602A091A702B091A8024196A11DB11DBE
:103240008093A5029093A602A093A702B093A80230
:10325000BF91AF919F918F911F901FBE1F901895A6
:103260008091AD02843031F10E942E0310928402CD
:1032700088E190E020E40FB6F894A8958093600070
:103280000FBE2093600083B7817F846083BF83B7C4
:10329000816083BF7894889583B78E7F83BF0FB694
:1032A000F894A895809160008861809360001092E6
:1032B00060000FBE08950E947B060E9433030895AC
:1032C00082E084BD93E095BD9AEF97BD80936E0038
:1032D00008952FB7F8948091A5029091A602A0912D
:1032E000A702B091A8022FBF08952FB7F89460915C
:1032F000A5027091A6028091A7029091A8022FBF0B
:1033000008959C014FB7F8948091A5029091A60270
:10331000A091A702B091A8024FBF821B930B089502
:1033200078941F921FB61F9211248F939F93AF938F
:10333000BF938091A5029091A602A091A702B0919F
:10334000A8020196A11DB11D8093A5029093A6022B
:10335000A093A702B093A802BF91AF919F918F91C4
:103360001F901FBE1F90189581E08093E00080E2BF
:103370008093D8001092C9008FE19EE40197F1F785
:1033800000C0000087E090EBDC018093B6029093D0
:10339000B702A093B802B093B90288E19CE00FB6DF
:1033A000F894A895809360000FBE90936000FFCFC3
:1033B00088E19CE00FB6F894A895809360000FBE5A
:1033C00090936000FFCF80918D02089508959B0136
:1033D000BA019091AD029430E9F48F708093E900C6
:1033E0009FEF8091E800915085FD06C085ED8A959C
:1033F000F1F700009111F5CF8091E80085FF0AC038
:1034000050E040E0C9010E94241C8091E8008E77C2
:103410008093E800089543E050E0BC0184E00E94FE
:10342000E719089540E250E0BC0184E00E94E719EA
:103430000895CF93DF93EC0148E050E0BC0181E0B8
:103440000E94E71988E0FE01A5E8B2E001900D9224
:103450008A95E1F7DF91CF910895603231F440E22F
:1034600050E0BC0182E00E94E7190895A0E2B0E0BC
:10347000ECE3FAE10C9417218091AD02843009F558
:1034800083E08093E9008091E80082FF1AC0809178
:10349000E80090E085FF09C050E040E060E270E0A5
:1034A000CE0101960E94731C91E08091E8008B7719
:1034B0008093E800992329F060E2CE0101960E94F2
:1034C0008E16A096E2E00C9433218091AC0281111B
:1034D00009C00E94031E0E94601E8091E200846069
:1034E0008093E20008951092AC0208950E94DA18C9
:1034F00008956091A90281E0611101C080E00E94FD
:10350000D11808959091AD0281E0943009F080E0E7
:103510006091A9020E94D718089542E061EC81E011
:103520000E947F1D42E261EC84E00E947F1D42E226
:1035300061EC82E00E947F1D42E260EC83E00E9429
:103540007F1D9091AD0281E0943009F080E06091A0
:10355000A9020E94C71808958091AF02833009F430
:1035600063C030F48130E1F1823009F4A0C00895E5
:103570008A3009F48CC08B3009F471C0893009F0AD
:1035800052C08091AE02813209F04DC08091B202EA
:103590009091B302009719F0029709F044C080910E
:1035A000E800877F8093E8008091E80082FF37C0C1
:1035B0009091F3008091F200029731F48091F10034
:1035C000813011F0863021F48091F10080938D02DA
:1035D0008091E8008B778093E8000E94B31D23C0A0
:1035E0008091AE02813AF9F48091E800877F809360
:1035F000E8008091B2029091B302892B61F468E0F7
:1036000085E892E070E00E94C21C8091E8008B7710
:103610008093E800089560E090E080E0F3CF80912F
:10362000AD028111C1CF08958091AE02813AD9F7E0
:103630008091B2029091B302892BA9F78091E800A2
:10364000877F8093E8008091E80080FFFCCF809125
:1036500011018093F1008091E8008E77BCCF8091BA
:10366000AE02813201F78091B2029091B302892BB0
:10367000D1F68091E800877F8093E8000E94B31D17
:103680008091B002809311010E947B060895809181
:10369000AE02813241F68091E800877F8093E80096
:1036A0000E94B31D8091B10280938E020895809193
:1036B000AE02813A09F0B7CF8091E800877F80930E
:1036C000E8008091E80080FFFCCF80918E02C1CF9E
:1036D00084B7877F84BF0FB6F894A8958091600067
:1036E000886180936000109260000FBE80E890E0D7
:1036F0000FB6F89480936100909361000FBE0E9412
:10370000E01808950E94031E0E94601EE2EEF0E0A1
:1037100080818460808378940E94DF20089587E010
:1037200091E00E945B1708958091AD02853031F4DD
:103730008091AD02853019F00E945B1908950E94B6
:1037400030198091AB02882399F30E94ED188823E9
:1037500079F30E940E1C0E947B06EACF08959A011D
:103760004091B4025091B5020E94B71B0895492FB1
:1037700055274330510521F168F44130510509F4D2
:1037800043C04230510509F444C090E080E050E06D
:1037900040E026C04132510551F142325105A9F7AE
:1037A0006330710590F7FB01EE0FFF1FE656FE4FE9
:1037B0004081518169567E4FFB01808190E010C0AD
:1037C00099278130910581F0009729F00297E9F659
:1037D000E4E7F2E002C0EEE9F2E0849190E0AF01AC
:1037E000F901518340830895E6E8F2E0F6CF6330B3
:1037F000710558F6660F771FFB01E056FE4F4081BA
:10380000518189E090E0ECCF82E190E04DEF52E011
:10381000E7CF8BE590E042EA52E0E2CF80E189BD5C
:1038200082E189BD09B400FEFDCF8091D8008F7D73
:103830008093D8008091E00082608093E0008091C6
:10384000E00081FDFCCF0895AF92BF92CF92DF924E
:10385000FF920F931F93CF93DF936C01EB018A01CB
:103860000E94D21DF82E811123C00115110539F0D7
:10387000F80180819181C81BD90BC80ED91EB12CCB
:10388000A12C2097A9F08091E80085FD22C08091AD
:10389000E8008E778093E80001151105A1F0F8018A
:1038A00080819181A80EB91EB182A08285E0F82E98
:1038B0008F2DDF91CF911F910F91FF90DF90CF90CF
:1038C000BF90AF9008950E94D21D8823D1F2F82EA8
:1038D000EFCFF60181916F018093F1002197FFEF07
:1038E000AF1ABF0ACECFAF92BF92CF92DF92FF92B4
:1038F0000F931F93CF93DF936C01EB018A010E941A
:10390000D21DF82E811123C00115110539F0F801DF
:1039100080819181C81BD90BC80ED91EB12CA12C56
:103920002097A9F08091E80085FD22C08091E800F1
:103930008B778093E80001151105A1F0F8018081D3
:103940009181A80EB91EB182A08285E0F82E8F2D3C
:10395000DF91CF911F910F91FF90DF90CF90BF909B
:10396000AF9008950E94D21D8823D1F2F82EEFCF98
:103970008091F100F60181936F012197FFEFAF1A5B
:10398000BF0ACECFFC018091B4029091B502861798
:103990009707A0F06115710529F49091E8009E77D2
:1039A0009093E80090E06115710551F4911108C001
:1039B0008091E80082FF34C080E00895BC01F2CF1E
:1039C0008091AD028823C1F18530C1F18091E8007A
:1039D00083FD30C08091E80082FDEACF8091E8004D
:1039E00080FFE1CF8091F3002091F200382F611524
:1039F000710519F02830310558F091E02830310573
:103A000009F090E02091E8002E772093E800CBCFDA
:103A100081918093F100615071092F5F3F4FE7CF93
:103A20008091AD02882341F0853041F08091E8001B
:103A300083FFBECF81E0089582E0089583E008957A
:103A4000FC018091B4029091B50286179707A0F00F
:103A50006115710529F48091E8008E778093E80064
:103A600090E06115710551F4911108C08091E80052
:103A700082FF35C080E00895BC01F2CF8091AD0295
:103A80008823C9F18530C9F18091E80083FD31C0F8
:103A90008091E80082FDEACF8091E80080FFE1CFCD
:103AA0008091F3002091F200382F6115710519F013
:103AB0002830310558F091E02830310509F090E0C8
:103AC0008091E8008E778093E800CBCF849180933B
:103AD000F1003196615071092F5F3F4FE6CF809121
:103AE000AD02882341F0853041F08091E80083FFEA
:103AF000BDCF81E0089582E0089583E00895982F76
:103B0000973028F08F708093E90081E008959093BA
:103B1000E900242F762F50E0981731F07091EC00D7
:103B20002091ED005091F00021FD02C09F5FE8CF91
:103B30003091EB003E7F3093EB003091ED003D7F04
:103B40003093ED003091EB0031603093EB007093D7
:103B5000EC002093ED005093F0002091EE0027FD43
:103B6000E5CF80E008958091AE0287FF13C0809179
:103B7000E80082FF06C08091E8008B778093E80020
:103B800004C08091AD028111F2CF08958091AD0201
:103B90008823D9F38091E80080FFF8CF8091E80076
:103BA0008E77ECCF2091E4003091E50095E6A901F5
:103BB0002091EC00822F817020FF06C08091E800E8
:103BC00080FF06C080E008952091E80022FD1AC021
:103BD0008091AD02882389F0853089F08091EB00D7
:103BE00085FD0FC02091E4003091E5004217530796
:103BF000F9F29150E1F684E0089582E0089583E0BF
:103C0000089581E008950E94721E0E947A1EE0EEDF
:103C1000F0E0808181608083E8EDF0E080818F7743
:103C2000808319BCA7EDB0E08C918E7F8C9380814E
:103C30008F7E80831092AC0208950F931F93CF93D1
:103C4000DF930E94721E0E947A1EC8EDD0E0888128
:103C50008F77888388818068888388818F7D888337
:103C600019BC1092AD021092A9021092AB021092F0
:103C7000AA0200EE10E0F80180818B7F80838881AA
:103C80008160888342E060E080E00E947F1DE1EE79
:103C9000F0E080818E7F8083E2EEF0E080818160C1
:103CA0008083808188608083F80180818E7F80831B
:103CB000888180618883DF91CF911F910F91089552
:103CC000E8EDF0E080818F7E8083E7EDF0E0808199
:103CD0008160808384E082BF81E08093AC020E9497
:103CE0001D1E0895E8EDF0E080818E7F80831092A4
:103CF000E20008951092DA001092E10008951F92F8
:103D00000F920FB60F9211242F933F934F935F930F
:103D10006F937F938F939F93AF93BF93EF93FF9393
:103D20008091E10082FF0BC08091E20082FF07C01A
:103D30008091E1008B7F8093E1000E94DE208091E2
:103D4000DA0080FF19C08091D80080FF15C08091F3
:103D5000DA008E7F8093DA008091D90080FF96C0D0
:103D600080E189BD82E189BD09B400FEFDCF81E01B
:103D70008093AD020E94651A8091E10080FF19C016
:103D80008091E20080FF15C08091E2008E7F8093D9
:103D9000E2008091E20080618093E2008091D8008F
:103DA00080628093D80019BC85E08093AD020E94A8
:103DB000791A8091E10084FF2BC08091E20084FF9A
:103DC00027C080E189BD82E189BD89B5982F9170B6
:103DD00080FFFBCF8091D8008F7D8093D8008091A9
:103DE000E1008F7E8093E1008091E2008F7E8093DE
:103DF000E2008091E20081608093E2008091A9025C
:103E0000882309F449C084E08093AD020E94821A9D
:103E10008091E10083FF29C08091E20083FF25C0EB
:103E20008091E100877F8093E10082E08093AD0282
:103E30001092A9028091E1008E7F8093E100809131
:103E4000E2008E7F8093E2008091E20080618093A7
:103E5000E20042E060E080E00E947F1D8091F0007F
:103E600088608093F0000E94761AFF91EF91BF91D5
:103E7000AF919F918F917F916F915F914F913F9102
:103E80002F910F900FBE0F901F90189519BC109294
:103E9000AD020E94731A70CF8091E30087FD93E01A
:103EA0009093AD02B3CF1F920F920FB60F921124D1
:103EB0002F933F934F935F936F937F938F939F9332
:103EC000AF93BF93CF93DF93EF93FF93D091E9002C
:103ED000DF708091EC00C82FC17080FDC0E81092A7
:103EE000E9008091F000877F8093F00078940E9431
:103EF000971F1092E9008091F00088608093F00095
:103F0000CD2BCF70C093E900FF91EF91DF91CF915E
:103F1000BF91AF919F918F917F916F915F914F91E1
:103F20003F912F910F900FBE0F901F901895AAE20E
:103F3000B0E0EDE9FFE10C9416218EEA92E02091C9
:103F4000F100FC012193CF01F2E0863B9F07B9F716
:103F50000E94AC1A8091E80083FF1EC18091AE02DE
:103F60009091AF029A3008F017C1E92FF0E0E051CC
:103F7000FE4D0C94FA20803899F0823809F00CC17B
:103F80008091B2028F70873008F006C18093E900FB
:103F90008091EB0085FB882780F91092E90006C02C
:103FA0008091AA029091AB02911182609091E800F9
:103FB000977F9093E8008093F1001092F100809138
:103FC000E8008E77E5C0882309F4D3C0823009F079
:103FD000E3C08091B0028111D6C08091B2028F708F
:103FE0002FEF280F263008F0D7C08093E9002091EA
:103FF000EB0020FFC8C0933031F48091EB00806269
:104000008093EB00C0C09091EB0090619093EB0027
:1040100021E030E001C0220F8A95EAF72093EA0000
:104020001092EA008091EB008860EACF8111B4C061
:104030001091B0021F778091E3008078812B8093EC
:10404000E3008091E800877F8093E8000E94B31D21
:104050008091E80080FFFCCF8091E300806880932E
:10406000E30082E0111183E08093AD0295C0805897
:10407000823008F091C08091B0029091B1028C3DE5
:1040800023E09207A1F583E08A838AE289834FB710
:10409000F894DE01139620E03EE051E2E32FF0E0D9
:1040A00050935700E49120FF03C0E295EF703F5F0B
:1040B000EF708E2F90E0EA30C0F0C7968D939D93FD
:1040C0002F5F243159F74FBF8091E800877F80939D
:1040D000E8006AE270E0CE0101960E94C21C809165
:1040E000E8008B778093E80057C0C096E7CF6091D7
:1040F000B2027091B302AE014F5F5F4F0E94AF1BDF
:10410000BC01892B09F448C09091E800977F9093F7
:10411000E80089819A810E94201DE1CF8038E1F575
:104120008091E800877F8093E8008091A9028093C6
:10413000F10045CF811130C09091B002923060F50E
:104140008091E800877F8093E8009093A9020E9405
:10415000B31D8091A902882311F084E005C08091ED
:10416000E30087FDFACF81E08093AD020E948D1AB3
:1041700013C08091B002813079F481E0933009F06E
:1041800080E08093AB021092E9008091E800877F85
:104190008093E8000E94B31D8091E80083FF0AC06D
:1041A0008091E800877F8093E8008091EB00806237
:1041B0008093EB00AA96E3E00C9432210895CF930C
:1041C0008091AD028823A1F0C091E900CF70909159
:1041D000EC00892F817090FD80E8C82B1092E900D7
:1041E0008091E80083FD0E94971FCF70C093E90083
:1041F000CF910895EE0FFF1F0590F491E02D0994E3
:1042000069279627692778278727782708952F9287
:104210003F924F925F926F927F928F929F92AF9256
:10422000BF92CF92DF92EF92FF920F931F93CF93A3
:10423000DF93CDB7DEB7CA1BDB0B0FB6F894DEBF3A
:104240000FBECDBF09942A88398848885F846E8460
:104250007D848C849B84AA84B984C884DF80EE80AA
:10426000FD800C811B81AA81B981CE0FD11D0FB6B3
:10427000F894DEBF0FBECDBFED010895FB01DC0158
:1042800004C08D910190801921F441505040C8F72D
:10429000881B990B0895FB01DC0102C001900D926F
:1042A00041505040D8F70895F999FECF92BD81BD95
:1042B000F89A992780B50895A8E1B0E042E050E06F
:1042C0000C949821DC01A40FB51F4150504048F0D8
:1042D000CB01840F951F2E910E94732141505040B5
:1042E000D0F70895262FF999FECF92BD81BDF89A97
:1042F000019700B4021639F01FBA20BD0FB6F8942A
:10430000FA9AF99A0FBE08950396272F0E947321F7
:104310000E947221252F0E947321242F0C94732157
:104320000196272F0E9473210C947221DC01CB018E
:10433000FC01F999FECF06C0F2BDE1BDF89A3196B5
:1043400000B40D9241505040B8F70895F894FFCF53
:104350008A048A04DA04DA043F05B904B904B9040A
:104360005B05C205D105D1058913FD1391135B13BC
:104370005F13951363139913A5136F13F613731338
:10438000A9137713AD13D5137B13B113DC1381136A
:10439000B713BF1367139D136B13A1138513BB13BF
:1043A000CB13E513F41355138D1304149D15A315A6
:1043B0008C159715A915AF15B515A316AF16E516EB
:1043C000F71602170D17101710171017B516B51698
:1043D0001517191721172E173B173E1741174E17A0
:1043E000BB1FE31FCC20E31FCC2016203720CC209E
:0443F0008E209A2061
:1043F40037025702030201E319191A121AE6190BBC
:104404001A01E200E900EA00B500B600B700CD00E9
:104414008301CC008A019201940121022302240227
:104424002502260227022A02B300B4006F0070009E
:104434009F01CB019F02A002818283E200E900EA8E
:1044440000B500B600B700CD008301CC008A01920C
:104454000194012102230224022502260227022AB2
:1044640002B300B4006F0070009F01CB019F02A053
:104474000281828336F0F1F4F535379392919033CB
:104484003230C6F695943144226D9E030F033103F6
:06449400B402CD02ED02AE
:00000001FF
