:100000000C94B6030C94D3030C94D3030C94D30335
:100010000C94D3030C94D3030C94D3030C94D30308
:100020000C94D3030C94D3030C94F92F0C94CD307F
:100030000C9463280C94D3030C94D3030C94D30333
:100040000C94D3030C94D3030C94D3030C94D303D8
:100050000C94D3030C9406290C94D3030C94D3036F
:100060000C94D3030C94D3030C94D3030C94D303B8
:100070000C94D3030C94D3030C94D3030C94D303A8
:100080000C94D3030C94D3030C94D3030C94D30398
:100090000C94A22A0C94D3030C94D3030C94D30392
:1000A0000C94D3030C94D3030C94D30329003A008B
:1000B0003B003C003D004C00000000000000270019
:1000C00035001E001F002000210022002300000038
:1000D0000B002B0014001A00080015001700000088
:1000E00000001800280004001600070009000A009C
:1000F00000000000A900E1001D001B00060019001F
:10010000050000000000AA00E000E300E200E200B9
:1001100010422C00000000003E003F004000410063
:100120004200430044004500000024002500260052
:1001300027002D002E0089002A004C001C0018000A
:100140000C00120013002F0030004A0000000B00CA
:100150000D000E000F0033003400320028004D0067
:10016000110010003600370038008700E5004B0012
:1001700000002C41AE008800520051004900E4000C
:100180004E0000000100010001000100010001001B
:1001900000000000000027780100010001000100BC
:1001A00001000100010000002878010001000100A9
:1001B00001005200010000000000010001000100E8
:1001C000500051004F0001000000000023780100A2
:1001D000010001000100010001000000000024787E
:1001E0000100010001000100010001000000000009
:1001F00001000100010001000100010001000100F7
:1002000000000100010001000100010001000100E7
:100210000100010001004A004D0001004B000100F7
:100220000100010000005000520051004F004E003C
:1002300001000100010001000100010001000100B6
:10024000010001000100257800000100010001000B
:1002500001000100010001002678000001000100FA
:1002600001000100010001000000000000002778EB
:100270000100010001000100010001000100000077
:10028000287824002500260001000100010000005C
:1002900000000100210022002300010001000100F4
:1002A0000000000023781E001F00200027003700F8
:1002B000010000000000247801000100010001009D
:1002C0000100010000000000010001000100010028
:1002D0000100010001000100000001000100010017
:1002E000010056000100010001000100240025006A
:1002F00026000100010001000100010000002100B2
:1003000022002300010057005500010001000100F8
:100310001E001F002000010054000100010025788C
:10032000000027000100370001000100010001006A
:100330002678000001000100010001000100010019
:1003400000000000000001000100010001000100A8
:100350000100010001000000010001000100010096
:100360000100010001000000000001000100010087
:100370000100010001000100000000000100010077
:100380000100010001000100010000000000010067
:100390000100010001000100010001000000000057
:1003A0000100010001000100010001000100010045
:1003B0000000010001000100010001000100010036
:1003C0000100010001000100010001000100010025
:1003D0000100010000000100010001000100010016
:1003E0000100010001000100010001000100010005
:1003F00001000100010001000000010001000100F6
:1004000001000100010001000100000000010101E4
:1004100001010101010102020202020202020203C1
:100420000303030303030304040404040404050591
:100430000505050606060606070707070708080854
:1004400008090909090A0A0A0B0B0B0C0C0C0D0D03
:100450000D0E0E0E0F0F0F1010111111121213139B
:100460001414151516161717181819191A1A1B1B14
:100470001C1D1D1E1E1F2020212222232424252670
:1004800026272829292A2B2C2D2D2E2F30313232A8
:10049000333435363738393A3B3C3D3E3F404142B4
:1004A000434445464748494A4C4D4E4F505153549A
:1004B000555658595A5B5D5E5F616264656668694E
:1004C0006B6C6D6F7072737577787A7B7D7E8082CE
:1004D000838587888A8C8E8F91939596989A9C9E17
:1004E000A0A2A3A5A7A9ABADAFB1B3B5B7BABCBE27
:1004F000C0C2C4C6C9CBCDCFD1D4D6D8DBDDDFE2F4
:10050000E4E7E9EBEEF0F3F5F8FAFDFF0000000098
:10051000000000002A2B280000000000000000005E
:100520000000000000000029000000002C1E342004
:10053000212224342627252E362D3738271E1F202A
:100540002122232425263333362E37381F0405066F
:100550000708090A0B0C0D0E0F10111213141516B3
:100560001718191A1B1C1D2F3130232D35040506B1
:100570000708090A0B0C0D0E0F1011121314151693
:100580001718191A1B1C1D2F3130354C00000000A4
:10059000000000000000000000000000000000005B
:1005A000000000000000000000000000000000004B
:1005B0007E0F00D4FFFFFFC7000000781403700017
:1005C00069007300740061006300680069006F00D7
:1005D00000000A037200610074006500000004035B
:1005E000090409025B00030100A0C809040000011E
:1005F00003010100092111010001224400070581C6
:100600000308000109040100020300000009211190
:1006100001000122220007058203200001070503D3
:100620000320000109040200010300000009211158
:1006300001000122B6000705840320000112010019
:1006400002000000085552C2D0010001020001065C
:1006500060FF0961A1010962150026FF0095207560
:100660000881020963150026FF0095207508910294
:10067000C005010902A10185020901A100050919AE
:100680000129081500250195087501810205010958
:100690003009311581257F950275088106093815C5
:1006A00081257F950175088106050C0A38021581A0
:1006B000257F950175088106C0C005010980A1014B
:1006C000850319012AB700150126B7009501751099
:1006D0008100C0050C0901A101850419012AA002AD
:1006E000150126A002950175108100C005010906BB
:1006F000A1018506050719E029E7150025019508E0
:10070000750181020507190029EF1500250195F0F3
:1007100075018102050819012905950575019102E8
:10072000950175039101C005010906A1010507198D
:10073000E029E715002501950875018102950175ED
:100740000881010507190029FF150026FF009506FD
:100750007508810005081901290515002501950571
:1007600075019102950175039101C00011241FBE0E
:10077000CFEFDAE0DEBFCDBF11E0A0E0B1E0E8EA04
:10078000F8E602C005900D92AA3DB107D9F724E022
:10079000AAEDB1E001C01D92AA39B207E1F70E94AB
:1007A0002D170C94AC330C94000080349E4741F418
:1007B000FB018581882321F00E94F11A0E949F1D70
:1007C00081E008958430B8F46C30A8F4493098F48E
:1007D00050E099E0699F400D511D1124FA019CE6FB
:1007E000899FE00DF11D1124EE0FFF1FE455FF4F0F
:1007F00085919491089581E090E0089581E00895B5
:100800000E94FE03089581E008950E94D503089593
:1008100008950E9408040895A6E0B0E0E2E1F4E043
:100820000C94CA3249835A839E833091E1018981B5
:100830009A8131111AC03E81332399F0222389F025
:100840000E94EE09182F682F89819A810E94CA0997
:1008500069817A81812F0E9413112696E3E00C941E
:10086000E6320E94DC09182FF3CF0E94EE0969815D
:100870007A81F1CFFC01262F408151816281738101
:10088000848195810E940C040895CF93DF93EC013D
:1008900061E00E943A04BE010E940004DF91CF9102
:1008A0000895CF93DF93EC0160E00E943A04BE010B
:1008B0000E940904DF91CF91089508950E94C6080F
:1008C0000E945D042FEF84E39CE021508040904023
:1008D000E1F700C0000008950E945E040E942A29EA
:1008E00008950E945E040E943B2908950F931F9370
:1008F000CF93DF938C0161E00E943A04EC01B801D0
:100900000E94961F811106C080E0DF91CF911F9158
:100910000F910895B801CE010E9405048823A1F328
:10092000B801CE010E941326882371F3B801CE01CD
:100930000E941F21882341F3B801CE010E94852522
:10094000882311F3B801CE010E94AB1E8823E1F287
:10095000B801CE010E9457268823B1F2F8018581A3
:10096000882361F0C330FCE7DF07E9F058F4C115D4
:10097000ECE7DE07A9F0C130DC47B9F0C8010E94FE
:100980000304C3CFCB358CE7D807A9F0CC35ECE70F
:10099000DE0771F0CA35DC4789F70E94460EEECFBC
:1009A0000E946C04B1CF0E944E0E0E947104ACCF25
:1009B0000E943C0EE3CF0E944A0EE0CF0E943F28E7
:1009C0000E94050508950E9409050E944428089583
:1009D000089581E008950895CF93DF93D82F0E9462
:1009E000E904C82F882319F08D2F0E94EB048C2F67
:1009F000DF91CF9108950895CF93C82F0E94E80406
:100A00008C2F0E94EC04CF91089580E00E94FC049A
:100A100008950E94A5260E94FC040895CF930E9489
:100A2000A526C82F8091DC018C1779F0C093DC01DA
:100A30000E94CF286093DD017093DE018093DF0177
:100A40009093E0018C2F0E94FC04CF910895ADE0BB
:100A5000B0E0EDE2F5E00C94CB32488759876A8725
:100A60007B878C879D8791110E94740D1F8286E081
:100A7000FE013896DE01119601900D928A95E1F7FC
:100A80008D8181110DC029813A814B815C816D81FD
:100A90007E818F810E94A70C2D96E2E00C94E732B4
:100AA000CE0101960E9445048111EDCFF5CFFC01E6
:100AB0002481213021F4808191810E941B0A0895B4
:100AC000662329F00E94C4170E94971808950E9477
:100AD0001E18FACFCF93C82F8823C9F08238C9F4E3
:100AE0000E94B92681FD13C089E30E942C0D0E944B
:100AF000AD0D2FEF87EE93E0215080409040E1F75D
:100B000000C0000089E30E94340D0E94AD0DCF911A
:100B100008958338A1F40E94B92680FDF8CF83E5BB
:100B20000E942C0D0E94AD0D2FEF81EE94E021501C
:100B300080409040E1F700C0000083E5E4CF8438B6
:100B4000A1F40E94B92682FDE2CF87E40E942C0D19
:100B50000E94AD0D2FEF81EE94E021508040904037
:100B6000E1F700C0000087E4CECF8CEF8C0F813A14
:100B7000B8F48C2F0E942C238111C9CF6C2F809147
:100B80000001909101010E944227882329F08C2FB7
:100B90000E94340D0E94AD0D8C2F0E942C0DB5CFFC
:100BA00080E28C0F883048F4C77081E001C0880F64
:100BB000CA95EAF70E94570DA8CFEBE5EC0FE3309A
:100BC00040F4F0E0E558FE4F808190E00E94E4267A
:100BD0009ECFE8E5EC0FEB3150F4F0E0EE0FFF1F95
:100BE000EB5BFE4F808191810E94092790CF83E3C8
:100BF0008C0F833108F08BCF61E08C2F0E94600551
:100C000086CF882309F456C0823879F40E94B92629
:100C100081FF50C089E30E942C0D0E94AD0D89E335
:100C20000E94340D0E94AD0D0895833859F40E943E
:100C3000B92680FF3FC083E50E942C0D0E94AD0DB8
:100C400083E5EECF843859F40E94B92682FF32C082
:100C500087E40E942C0D0E94AD0D87E4E1CF9CEF4C
:100C6000980F913AE8F290E2980F983050F487701C
:100C700091E001C0990F8A95EAF7892F0E945D0DD6
:100C8000D1CF9BE5980F933028F490E080E00E944C
:100C9000E426089598E5980F9B3128F490E080E0D1
:100CA0000E940927089593E3980F933118F460E0A8
:100CB0000E94600508951F93CF93DF93182FEB01D7
:100CC0000E946A05209739F4812F0E940106DF9166
:100CD000CF911F9108958FE99FE00197F1F700C030
:100CE00000002197EFCF70E060E0893311F460E5F8
:100CF00070E00E945B060895882321F00E94570D42
:100D00000E94AD0D0895882321F00E945D0D0E9480
:100D1000AD0D0895B0E0A0E0E0E9F6E00C94C43237
:100D20006C01D62FC72FFC011581068102950F702B
:100D30000E944D0DE82E8823E9F0E12E1123D1F019
:100D40008C2F807F803451F080E28D0F8830F8F056
:100D5000011104C08C2F807E8032C9F08091340351
:100D600082FF15C082E00E94100E0E944D0D91E09E
:100D7000E82EE926BC2EB2949FE0B922FBE0FB15D9
:100D8000B8F1EB2DF0E0E255FC4C0C94AE32E12CC6
:100D9000F1CF0C2F0F70C07F11F00295007F11234F
:100DA00099F0002359F080E28D0F883010F0D111B6
:100DB00007C0802F0E94570D0E94AD0D8D2F5AC085
:100DC000802F0E94670DF8CF8D2F0E94010600230F
:100DD00079F080E28D0F883010F0D11104C0802F9F
:100DE0000E945D0D03C0802F0E946D0D0E94AD0D0D
:100DF000EB2DE850FF0B349720F40E94A5260E94AB
:100E0000FC04EE2089F00E94490D80FD0DC0F60122
:100E100015820E94430D0E943E09C6010E948D0862
:100E20000E94430D0E944A09CDB7DEB7E9E00C9459
:100E3000E0322C2F2F70F22EC07FC03219F0F294C6
:100E400080EFF822DD2341F0D130D1F1112309F4F4
:100E500044C00023F1F0B2CF8091340382FD15C06D
:100E6000112359F0FF2029F08F2D0E94570D0E9469
:100E7000AD0D80E00E946A05BBCF80E00E940106B4
:100E8000FF2009F4B5CF8F2DABCF112369F00111ED
:100E900004C08F2D0E947C06ABCF013009F0A8CF93
:100EA0008F2D0E948B0DA4CF0111A2CF8F2D0E94F8
:100EB00083068F2D0E94970D8F2D0E947B0D98CF5A
:100EC000112321F0063008F093CFE3CF053008F06E
:100ED0008FCF8F2D0E9483068BCF0023D1F3D93380
:100EE00049F43FEF87EE93E0315080409040E1F7C6
:100EF00000C000008D2F0E9401067ACF8C2F8695AE
:100F00008695837069F0813009F072CF8D2F9C2F08
:100F10009370111102C080E090E00E94092768CF11
:100F20008D2F9C2F9370111102C080E090E00E94E1
:100F3000E4265ECF612F8D2F0E94600559CF8C2F44
:100F4000837079F5111154CF4D2F42954695477016
:100F5000440F440F8D2F8F70042E01C0880F0A9408
:100F6000EAF72D2F2071D4FF07C02FE030E001C039
:100F7000220F4A95EAF72095C695C695C370822B35
:100F8000C23049F058F4C13019F00E941A0930CF2C
:100F90000E9414092DCF0E9420092ACF0E94110916
:100FA00027CF8695112311F08C2F8170882309F4A7
:100FB0001FCF4D2F429546954770440F440F8D2FFC
:100FC0008F70042E01C0880F0A94EAF72D2F20712C
:100FD000D4FF07C02FE030E001C0220F4A95EAF7A6
:100FE0002095C695C695C370822BC23049F058F43F
:100FF000C13019F00E946909FBCE0E946309F8CE46
:101000000E946F09F5CE0E942C09F2CECF701123F9
:1010100029F08C2F0E943E098D2F3CCF8D2F0E94EE
:1010200083068C2F0E944A09E3CED23F41F160F43F
:10103000D03FB9F0D13F81F0112309F446C001112E
:10104000BDCE8C2F8F711FC0D33F01F1D43FA1F7CC
:101050008091340382FD24C08C2F8F71112311F3F2
:1010600012C0112341F0053008F0C2CE8C2F8F71D1
:101070000E945709BDCE063008F0BACEF7CF8C2FAC
:101080008F711111CFCF0E943E09B2CE112329F0EA
:101090008C2F8F710E943509ABCE0E943109A8CEEA
:1010A000112349F0CF718C2F0E943E0963E08C2FF1
:1010B0000E94F20D9DCE81E00E94100E023008F4D5
:1010C00097CE82E00E94100E93CE002359F0D933C0
:1010D00009F010CFEFEFF7EE23E0E150F0402040B1
:1010E000E1F706CF8C2F8F719DCF0F931F93CF9376
:1010F000DF93EC01688179818D810E94260A8C0141
:101100000E9475090E941009B801CE010E948A064A
:10111000DF91CF911F910F910895CF93DF93EC0151
:101120008C81882399F0CE010E947604811111C030
:101130000E944D0D882351F08D81882339F08091D4
:10114000340382FF03C082E00E94100EDF91CF9132
:101150000895CE010E947508CE010E945104F6CF79
:1011600090E080E00E94E42690E080E00E94092761
:101170000E94740D0E94AD0D0E94B3180E94971832
:1011800008950E943C0D0E94B00808950E94640DCD
:101190000E94C108089592959F70963091F058F47E
:1011A000925F9F70923058F4803F19F030F4883E7F
:1011B00030F481E008959A5FF4CF843FD1F380E06A
:1011C0000895883EB0F3813FD1F7F3CFFC0124812D
:1011D000222339F0808191810E941B0A0E94CB0852
:1011E000089580E00895A6E0B0E0E9EFF8E00C94FF
:1011F000CB322696E2E00C94E732A7E0B0E0E3E0E1
:10120000F9E00C94CB322796E2E00C94E732089593
:101210000E94070908950E94080980930D0208950D
:1012200008950E940B09089590910D02892B0E9448
:101230000B09089590910D0289230E940B090895CE
:1012400090910D0289270E940B0908950E940709B9
:1012500008950E94260908950E94290980930C028E
:10126000089580E00E942C09089591E001C0990F33
:101270008A95EAF7892F0E942C09089521E030E031
:1012800001C0220F8A95EAF780910C02822B0E94FE
:101290002C09089521E030E001C0220F8A95EAF779
:1012A000209580910C0282230E942C09089521E050
:1012B00030E001C0220F8A95EAF780910C02822764
:1012C0000E942C09089590910C02892B0E942C09F0
:1012D000089590910C0289230E942C090895909101
:1012E0000C0289270E942C0908950895262F277043
:1012F00091E001C0990F2A95EAF723E0769567956A
:101300002A95E1F7FB01EE0FFF1FE60FF71FE40F31
:10131000F51F50E040E0682F70E08191DF011197E8
:101320009B01042E02C0369527950A94E2F721709E
:1013300021952827292328272C934F5F5F4F43307F
:10134000510559F70895A82FA77023E09695879522
:101350002A95E1F7FC01EE0FFF1FE80FF91FE60FDA
:10136000F71F50E040E080E0219130E00A2E02C0FB
:10137000369527950A94E2F721703327042E01C091
:10138000220F0A94EAF7822B4F5F5F4F43305105DB
:1013900059F70895262F9C3070F4893060F4682F37
:1013A00070E089E0989F600D711D112442EE51E0BC
:1013B000822F0E9476090895292F9C3068F4893085
:1013C00058F490E062EE71E039E0239F800D911DAA
:1013D00011240E94A309089580E00895CF92DF921E
:1013E000FF920F931F93CF93DF936C0100910C0238
:1013F00080910D02082BC3E0D0E010E0FC2EC80164
:101400000C2E02C0959587950A94E2F780FD0CC0DA
:101410002197A0F7F12C8F2DDF91CF911F910F9184
:10142000FF90DF90CF900895B6018C2F0E941F117E
:10143000019771F3F0CFCF93DF93EC010E94EE0997
:10144000BE010E941F11DF91CF9108951F93CF938A
:10145000DF93EB019091E101992339F0CB010E94D8
:101460001B0ADF91CF911F910895882369F0CB016A
:101470000E94EE09182F682FCE010E94CA09BE01F2
:10148000812F0E941F11EDCFCB010E94DC09182F84
:10149000F6CFE1E0F0E0DF0102C0AA0FBB1F6A95C2
:1014A000E2F7BD01DF0102C0AA0FBB1F4A95E2F7B8
:1014B0006A2B01C0EE0F2A95EAF7962F9823961310
:1014C00002C08E2B0895E0958E230895242F462F79
:1014D000682F80910C020E94490A0E942C090895ED
:1014E0001F93CF93DF93C0910E0217E080910F02FC
:1014F0008C1304C0DF91CF911F910895D0E01C9F01
:10150000F0011D9FF00D1124E05FFD4F208131811E
:10151000428153816481758186810E94FD082196F4
:10152000C770E4CF209148023091490240914A02AD
:1015300050914B0260914C0270914D0280914E028D
:101540000E94FD080895CF93DF9380914E02807F23
:1015500009F04DC080914D02882309F448C0E09104
:101560000E0250910F02C0914902D0914802609141
:101570004A0270914B0247E05E17C9F18E2F90E04E
:10158000E49FF0011124E05FFD4F2481222391F1BB
:10159000489FF001499FF00D1124DF01A05FBD4F6E
:1015A00011962C9111972C1325C02C912D1322C02C
:1015B00015962C91159721111DC012962D913C91D5
:1015C000261B370B283C3105A8F480914E028F7002
:1015D000806180934E02EA5EFD4F80818F70806152
:1015E000808388E492E00E948D080E94700ADF9157
:1015F000CF910895FC013196E770BECF482F20911E
:101600000E0290910F0257E0291302C080E0089566
:1016100030E0529FF001539FF00D1124E05FFD4F29
:101620008181681306C08081481303C085818111C0
:10163000EECF2F5F3F4F2770E7CFA4E1B0E0E3E2AA
:10164000FBE00C94C1328C0186E0F801DE011F96AC
:1016500001900D928A95E1F7F8018481E58098E484
:10166000A92E92E0B92E90914C0291111FC08823AF
:10167000D1F0EE20A9F0C8010E94E608F82E8823D8
:1016800079F087E0F801D50101900D928A95E1F794
:10169000C5010E9457050E94A30A0E94920A5FC0DA
:1016A000C8010E948D08FF24F39459C0C080D180E6
:1016B00082809380F0904D0220914A0230914B023B
:1016C000A401421B530BFF2009F4F9C0483C51050B
:1016D00008F0A7C0882309F442C090914902809184
:1016E0004E02282F207F09F05CC09D1116C09091FA
:1016F0004802C91212C0E1104EC08F708061809301
:101700004E020E94920A88E492E00E948D08809125
:101710004E02F8018683F12C22C0E1103CC06D2DF1
:101720008C2D0E94FE0A6D2D8C2D0E94FE0AE82E43
:101730008111F1CFCF86D88A8F8598890E941B0AA4
:10174000292F22952F70243078F49F702230A8F032
:101750009923B9F0F8019681907F99F4FE2C8F2D92
:101760006496ECE00C94DD322A5F2F70223068F032
:10177000C8010E948D08EF2CF1CF992311F0882326
:1017800069F3805E883050F3F3CF803F38F3815F98
:10179000833070F7E3CF80914E02816080934E02D8
:1017A000BACF9D1113C090914802C9120FC0E11029
:1017B0000DC08683C8010E948D0887E0F801A8E467
:1017C000B2E001900D928A95E1F767CFC8010E94BF
:1017D000E608882309F464CFEE2009F461CF8091F4
:1017E0004E02803288F020914802309149023987B8
:1017F00028879B868A8690914C029C871D868E87BF
:10180000CE0108960E948D0887E0F801A8E4B2E0B6
:1018100001900D928A95E1F70E94A30A0E94920A14
:1018200042CF90914E02292F207FA1F4682D9A8AF1
:10183000898AA6017A899E2D0E94F30888E492E0A5
:101840000E948D0887E0F50111928A95E9F70E94C0
:10185000920A61CF882309F482CF809149028D11C9
:1018600010C080914802C8120CC0E1100AC09683D3
:10187000C8010E948D0887E0F50111928A95E9F769
:101880006ECFC8010E94E608882309F409CFEE2034
:1018900009F406CF80914E02803208F4B5CF209132
:1018A0004802309149023A8329839C828B8290912D
:1018B0004C029D831E828F83CE010196A3CF483CAC
:1018C0005105B8F5882309F4EECEFE2CEE2009F47C
:1018D000E7CE809149028D111EC080914802C81246
:1018E0001AC080914E0280FD0DC0982F907F51F05C
:1018F0008683903F09F45ECF982F907F905F8F7022
:10190000892B57CF87E0F801A8E4B2E001900D924F
:101910008A95E1F724CFC8010E94E608811174CFAF
:1019200080914E02816080934E02C8010E948D0812
:1019300016CF682D9A8A898AA6017A899E2D0E94DF
:10194000F30887E0F50111928A95E9F7A6CEAEE09B
:10195000B0E0EDEAFCE00C94CA32288739874A8768
:101960005B876C877D878E87CE0108960E941D0B52
:101970008823B1F06C85662341F0288539854A8536
:101980005B857D858E850E94FD0817E080910E02A3
:1019900090910F0289133DC02E96E3E00C94E6323D
:1019A00087E0FE013896DE01119601900D928A952E
:1019B000E1F78C85882349F320910F0230E0C901BB
:1019C00001968770992740910E024817190699F0E1
:1019D00097E0929FD001939FB00D1124A05FBD4F5F
:1019E000FE01319601900D929A95E1F780930F02D6
:1019F0000E94700ACACF0E94C60810920F0210926D
:101A00000E0287E0E8E4F2E0DF011D928A95E9F733
:101A1000BCCF819FC0011124805F9D4F0E941D0B90
:101A2000882309F4B9CFE0910E021E9FF001112422
:101A3000E05FFD4F20813181428153816481758156
:101A400086810E94FD0880910E0290E001968770C9
:101A5000992780930E029ACF682F80910001909170
:101A600001010E94C2270895682F80910001909182
:101A700001010E94D02708958091000190910101F9
:101A80000E94DE27089580916F028695869586953F
:101A9000089580916F028770089590916F029770FA
:101AA00081E009F480E00895809193020895909177
:101AB0009302892B809393020895809590919302CD
:101AC0009823909393020895109293020895909111
:101AD0009202892B809392020895809590919202B0
:101AE0009823909392020895109292020895089577
:101AF0000E94770D089590917002292F282331F0CC
:101B000080958923809370020E94780D089508952E
:101B10000E94870D089590917102292F282328177C
:101B200029F0982B909371020E94880D089590914E
:101B30007102292F282331F0809589238093710227
:101B40000E94880D089580917102882329F01092D7
:101B5000710280E00E94880D0895CF93DF93E09199
:101B60000001F0910101809193028083E0910001D6
:101B7000F0910101808190919202892B8083909154
:101B80007102992381F0E0910001F09101018081BF
:101B9000892B808380910001909101010E942E2762
:101BA00081110E94A30DC0910001D091010140E27A
:101BB00050E06FE472E0CE010E943E33892B59F071
:101BC00080E2FE01AFE4B2E001900D928A95E1F768
:101BD000CE010E94BC26DF91CF91089508950E9406
:101BE000EE0D08959091340392FF11C098E0899F03
:101BF00090011124622B60936F020E943E09809134
:101C00006F028695869586950E94EF0D08950E9435
:101C10003E09089510926F0280E00E94EF0D089532
:101C200090916F028095892380936F02282F2770EF
:101C300069F4891759F09091340392FF07C0869593
:101C4000869586950E944A090E940A0E08959091F1
:101C5000340392FB222720F9281769F080FB92F9C0
:101C60009093340380913303909134030E94700E5B
:101C700082E00E94100E08958091340382FB882731
:101C800080F991E089270E94270E089581E00E9443
:101C9000270E089580E00E94270E08956FEF7FEFD2
:101CA00090E080E00E949633089590E080E00E94EA
:101CB0006233863E9E4F19F40E942E1F089580E0E5
:101CC000089582E090E00E945433089583E090E00C
:101CD0000E945433089584E090E00E946233089596
:101CE000BC0184E090E00E9496330895AB01BC01F2
:101CF0008FE090E00E948A330895AB01BC0183E13C
:101D000090E00E948A33089560E070E0CB010E9469
:101D10007D0E089560E070E0CB010E94760E0E9477
:101D2000840E0895A8E0B0E0E8E9FEE00C94CB3220
:101D300066EE7EEF90E080E00E94963360E082E005
:101D400090E00E94783360E083E090E00E94783376
:101D500010920D0260E074E184E090E00E949633FE
:101D600060E086E090E00E9478336FEF87E090E0DB
:101D70000E94783340E050E0BA0188E090E00E9491
:101D80008A3360E084E290E00E94783360E087E18B
:101D900090E00E94783360E08CE090E00E9478331D
:101DA00060E08DE090E00E94783319821A821B82F5
:101DB0001C821D821E821F82188648E050E068E166
:101DC00070E0CE0101960E94683340E050E0BA0115
:101DD00080E290E00E948A3380E00E94471F0E94C8
:101DE000761F0E948A0E2896E2E00C94E7320E9449
:101DF000920E0895682F8EE090E00E947833089547
:101E0000A6E0B0E0E6E0FFE00C94C9320E94C328EF
:101E10008C0180919402909195028017910781F036
:101E200019821A820E94C328682F49815A81792F0A
:101E300080E090E00E9427051093950200939402A1
:101E40002696E4E00C94E5320E943B126093B202C5
:101E50007093B3028093B4029093B5026093AE0284
:101E60007093AF028093B0029093B10208950895E9
:101E700008950E94370F089508950E943C0F089519
:101E800081E0089580E692E10E943A170E94380F9F
:101E90000E94390F08950E948114089508950895AD
:101EA0000E944E0F0E944F0F08950E947F120E94C1
:101EB000FB0408950E94BA280E9415120E94861FF2
:101EC0000E9499140E94C4130E94550F0E9407217A
:101ED0000E94B61DE3E3F3E08081806880838091F7
:101EE0003303909134030E94700E0E94AE140E943E
:101EF0003D0F0895A6E0B0E0E0E8FFE00C94BF32AB
:101F00000E94400F81110EC00E94000F0E94811498
:101F10000E944C1E0E94D5180E940E052696EEE0E7
:101F20000C94DB320E94E71326E9822E22E0922EE7
:101F3000640110E0F601E190F1906F01812F0E94A1
:101F4000A2121F5F1C3009F44BC0E816F90691F38A
:101F50008091B60281FD0E94AB120E944B0F782E39
:101F600010E066246394812F0E94A2127C01F40188
:101F7000A190B1904F018A159B0561F100E0CC243E
:101F8000C394D12CAE24BF24C5018C219D21892B63
:101F9000C1F07720B1F009831A830E94C3289C8383
:101FA0008B836D8221E0C7018C219D21892B09F44F
:101FB00020E049815A816B817C818D81922F0E9422
:101FC00027050F5FCC0CDD1C0930F1F6F4013297C8
:101FD000F182E0821F5F1C3031F60E94240F96CF01
:101FE000E816F90609F0B4CF8FCF1F93CF93DF9394
:101FF0000E942411EC01C11580E5D807F0F5C11548
:1020000080E4D80708F09CC0C03ED10520F5CD3C47
:10201000D10508F082C0C83AD10578F4C53AD10597
:1020200008F073C0C130D10519F1209709F1C4300F
:10203000D105F0F4D0E0C0E01BC0C33CD105D0F71F
:10204000C85AD0E0CC0FDD1FC258DE4F0990D881AE
:10205000C02DD4640DC0C11580E2D80708F0D1C0EE
:10206000C11581E0D80708F05AC0C83ED10510F765
:10207000CE01DF91CF911F910895C03682E5D80738
:1020800018F5C03482E5D80708F06BC0C03282E58D
:10209000D80708F05FC0C11582E5D80708F497C0DB
:1020A0002C2F2695269580E2289F900111248C2FB5
:1020B0008370C1E0D0E002C0CC0FDD1F8A95E2F74B
:1020C000C22BD32BDD68D4CFC03A82E5D80760F4A9
:1020D000C03882E5D80708F459C0CF71D0E0DC2FB2
:1020E000CC27C46FD06AC4CFC03C82E5D80708F4BF
:1020F00062C0C03E82E5D80708F09CCFDC2FCC2719
:10210000CC27DF71C06FD06AB3CFC55AD0E0CC54B2
:10211000DE4FC881D0E0D064ABCFD065A9CF8D2F82
:102120000E94C611182FCE0199270E942411C12F99
:10213000D0E0DC2FCC27CC27DF71C82BD92B98CF50
:10214000CE0199270E942411CC27DF70C82BD92BF0
:10215000D06A8ECFCF71D0E0DC2FCC27C16FD06A90
:1021600087CF2C2F26952695277080E2289F9001F7
:1021700011248C2F8370C1E0D0E002C0CC0FDD1F92
:102180008A95E2F7C22BD32BDC6872CF2C2F2695D1
:102190002695277080E2289F900111248C2F837050
:1021A000C1E0D0E002C0CC0FDD1F8A95E2F7C22B60
:1021B000D32BDA685DCF8C2F8F710E94C611C82F88
:1021C000D0E0DC2FCC27CC27DF71D06251CF8C2F11
:1021D0008F710E94C61155E0D695C7955A95E1F7C3
:1021E000CF70D0E0DC2FCC27282F30E084FF05C053
:1021F00044E0220F331F4A95E1F7C22BD32BD0695D
:1022000037CF8D2F8F710E94C611182FCE019927BD
:102210000E942411C12FD0E0DC2FCC27CC27DF7106
:10222000C82BD92BD2CF462F7C3030F4693020F424
:10223000672F0E949F24089590E080E008950E94F7
:1022400013110E94F50F089582389105B9F1B0F489
:102250008133910509F47DC048F48932910509F470
:102260006DC08A32910509F47BC0089585339105CC
:1022700009F45FC08933910509F10895833E910502
:10228000D9F138F4803E910529F1823E910579F12A
:102290000895863E9105D9F1873E910509F43EC027
:1022A000843E910541F52091340321FF24C08091A3
:1022B000330384FD19C087EE90E008952091330325
:1022C000237009F05AC02091340323FF14C089E21F
:1022D00090E008952091330320FD38C030913403FD
:1022E00030FF09C024FF43C090E080E008952091B2
:1022F000330322FDF7CF08952091330322FD3AC026
:102300003091340330FD39C024FFF5CFEDCF20915B
:10231000330323FFF0CF24FDE7CFCDCF209133034C
:1023200023FD2EC03091340331FFEECF84EE90E0D8
:1023300008952091330325FFDECFC9CF20913303C9
:1023400025FD21C02091340323FFD5CF89E390E000
:10235000D2CF2091330326FFCECF8AE290E00895BA
:102360002091330326FFC7CF81E390E0089583EEE9
:1023700090E0089582EE90E0089580EE90E0089558
:1023800086EE90E0089585E390E008959091330300
:1023900092FF10C041E0282F2471243009F040E062
:1023A00031E0282F2871283009F030E0431711F070
:1023B0002CE0822793FF10C041E0282F24712431A4
:1023C00009F040E031E0282F2871283109F030E091
:1023D000431711F02CE082273091340330FF10C0F6
:1023E00051E0282F2171213009F050E041E0282FE1
:1023F0002871283009F040E0541711F029E08227B5
:1024000031FF10C041E0282F2171213109F040E057
:1024100031E0282F2871283109F030E0431711F0FE
:1024200029E0822794FD877E089510922F03109251
:10243000300310923103109232030895CF92DF924D
:10244000EF92FF926B017C010E94811481110EC0FA
:102450000E94CF28C61AD70AE80AF90AC0922F03A9
:10246000D0923003E0923103F0923203FF90EF906C
:10247000DF90CF9008950F931F930E9481148823BB
:1024800029F00E94CF281F910F9108950E94CF2814
:1024900000912F03109130032091310330913203CA
:1024A000600F711F821F931FEECF0E94811488233B
:1024B00019F00E94C32808950E943B12CB01089591
:1024C00080E008950E944E0E08950E94E7132FEFBA
:1024D00086E791E0215080409040E1F700C0000085
:1024E0000E94E71380E00E94A21280FF04C00E94B5
:1024F00062120E942A2908950E94651208950E947E
:10250000550E811102C00E94F70E0E94610E809349
:10251000B6020E946B0E90933403809333030E94A3
:102520007C120E94660E0E94110980910C020E948A
:102530002909089508950E949A12089508950E9405
:102540009E120895E82FF0E0EE0FFF1FE25BFC4FB4
:10255000808191810895089580EA8A95F1F7089520
:1025600000C008950E94AC12089508950E94B5120B
:102570000895ACE0B0E0EFEBF2E10C94C7320E94BA
:102580008114F82E60916603882309F446C05CE04C
:10259000E52E8E010F5F1F4FF8018E2D11928A9547
:1025A000E9F7862F90E0880F991FB801825B9C4F56
:1025B0000E94BC148823C9F08091350390E0880FF5
:1025C000991F4CE050E0B801825B9C4F0E943E3363
:1025D00021E02093B702892B91F4F12C0E949F12E5
:1025E0008F2D2C96E6E00C94E3328091B70288237D
:1025F000A1F3F8011192EA94E9F71092B702A091C1
:102600003503B0E0AA0FBB1FA25BBC4F8CE0F80102
:1026100001900D928A95E1F7E1CF70E0660F771F88
:10262000625B7C4F8091350390E0880F991F825B3D
:102630009C4F0E9489150E94B612D2CFF894E82FC1
:10264000E295EF70F0E031A1282F2F7081E090E04B
:1026500001C0880F2A95EAF7982F9095932391A3AC
:1026600092A1892B82A3789408950F931F93CF93FF
:10267000DF93C0ECD1E089918F3F11F00E941E13CF
:1026800081E0C63CD807B9F7C7EBD1E000EC11E018
:1026900089918F3F11F00E941E130C171D07C1F77F
:1026A000DF91CF911F910F910895AF92BF92DF926A
:1026B000EF92FF920F931F93CF93DF938C01D62E4F
:1026C000C62FD0E0CE0180549E4F7C01FC012081BA
:1026D0002F3F09F44CC0F894E22FE295EF70F0E040
:1026E00031A12F7081E090E001C0880F2A95EAF7B0
:1026F000932F982B91A392A18095892382A37894FC
:102700000E94B012E7EBF1E041E050E0B12CA12CC7
:1027100021912F3FB1F1A22FA295AF70B0E090961A
:102720008C9190E02F7002C0959587952A95E2F7DD
:1027300080FD27C0CA01A82AB92A440F551F81E08D
:10274000E03CF80729F7F70180818F3F11F00E94E4
:102750001E1361E0A114B10409F460E08D2D0E9404
:10276000B212CC0FDD1FC00FD11FB982A882DF913A
:10277000CF911F910F91FF90EF90DF90BF90AF909E
:10278000089590E080E0D7CF80910201809102010E
:1027900096E0811190E09093660386E0891B809318
:1027A00035030E94351388E1EEE4F3E0DF01982F52
:1027B0001D929A95E9F7E6E3F3E0DF011D928A9511
:1027C000E9F786E00E9427140E949B120895A8E171
:1027D000B0E0EDEEF3E10C94C8328E010F5F1F4FB5
:1027E00088E1F80111928A95E9F7F12C6F2DC80163
:1027F0000E945513F394F6E0FF12F8CF48E150E041
:10280000B80186E393E00E943E3321E0009709F48B
:1028100020E0892B41F088E1F801A6E3B3E00190C4
:102820000D928A95E1F76091660370E0660F771F5D
:10283000625B7C4F46E086E393E00E942814182FE9
:102840000E94B912812B6896E5E00C94E432089559
:10285000CF92DF92EF92FF921F93CF93DF936C01A1
:102860007B01C42F222349F081E08093BA020E94A9
:10287000C3289093B9028093B8021091BA02111143
:102880000AC010E0812FDF91CF911F91FF90EF9050
:10289000DF90CF9008958091B8029091B9020E9484
:1028A000DB28059770F3D0E0CC0FDD1FAE01B60139
:1028B000C7010E943E33892B41F0AE01B601C7012A
:1028C0000E944B331092BA02DDCF10E0FBCFCF93C2
:1028D00053985B9A549A5C9885E08A95F1F70000CA
:1028E000C9B154985C9A0E94AC128C2F90E023E0FE
:1028F000959587952A95E1F7809590958170CF9170
:1029000008958091BD02811107C00E947932882309
:1029100051F081E08093BD0281E09091BD02913041
:1029200009F080E0089582E08093BD020E94743235
:10293000F3CF0E94671480930201809102018823E3
:1029400051F066E280E00E945A1A0E9481148111BF
:102950000E94F21408956EE286E2F5CF0E9481147F
:10296000811102C00E94F514089581E09091BE0289
:102970009A3008F080E008950F931F93CF93DF9370
:10298000EC018B018091BE028A30B8F4B801CE010F
:102990000E948615C82F811122C08091BE028F3FF0
:1029A000B9F40E94C3289093BC028093BB028C2F81
:1029B000DF91CF911F910F9108958091BB0290916B
:1029C000BC020E94DB28843F914000F7C0E0EFCFBB
:1029D0008F5F8093BE028A3020F7C1E0E8CF10926B
:1029E000BE02E5CF0E944629089582E30E949C2AF8
:1029F00008950F931F9398E08902F0011124ED5F71
:102A0000FE4F26813781232BA1F080936F046091C4
:102A10000401709105012091030130E0AB0141599F
:102A20005B4F04E610E082E30E942C2A1F910F9175
:102A3000089590E080E0FACFB0E0A0E0E2E2F5E1B6
:102A40000C94BE32582E69015801C82F880FDD0B37
:102A50004115510559F4852D0E94F91497FF2CC09A
:102A600080E0CDB7DEB7EFE00C94DA32CE0123E0A0
:102A7000880F991F2A95E1F7FC01ED5FFE4FE0807A
:102A8000F12C4E155F0508F47A018D5F9E4FFC0115
:102A900081809280C40181599B4F3C01A7010E9413
:102AA0004B3304E610E09701A301682D82E30E94F6
:102AB0002C2A97FFD0CFD4CFA114B10429F183E001
:102AC000CC0FDD1F8A95E1F7FE01ED5FFE4FE3803D
:102AD000F12CAE14BF0408F47501CD5FDE4F6C819C
:102AE0007D81AB0141595B4F04E610E0970182E321
:102AF0000E94532A97FDB4CF6C817D8161597B4F31
:102B0000A701C6010E944B3381E0ABCF0E94B316F0
:102B100008950E94D4160895A4E0B0E0E2E9F5E13A
:102B20000C94C9326091D3027091D4028091D50285
:102B30009091D6020E94EA2811E064367105810561
:102B4000910518F10E943B126E5F7F4F8F4F9F4F90
:102B500069837A838B839C8310E000E030E020E07F
:102B600044E050E0BE016F5F7F4F83E00E941C1580
:102B7000182F882351F00E94CF286093D3027093BE
:102B8000D4028093D5029093D602812F2496E4E05C
:102B90000C94E532B0E0A0E0E0EDF5E10C94C33236
:102BA0007C015B016A010E94B51401E010E08823FA
:102BB00011F00AE010E0C1E0D0E0B501C701F60174
:102BC0000995811104C021960C171D072CF4CDB76F
:102BD000DEB7EAE00C94DF32CC9F9001CD9F300D40
:102BE000300D112490E080E045E34A95F1F70000B4
:102BF000019682179307C1F7E0CFACE0B0E0E3E0C5
:102C0000F6E10C94C932CE0101960E94E81C1B85A6
:102C10006091D7027091D8028091D9029091DA0226
:102C20000E94EA28643671058105910510F411238C
:102C3000C1F010E000E030E020E04CE050E0BE01E8
:102C40006F5F7F4F84E00E941C15882369F00E940B
:102C5000CF286093D7027093D8028093D9029093C3
:102C6000DA020E94E51C81E02C96E4E00C94E53247
:102C7000ADE0B0E0EEE3F6E10C94C3327B01C0902E
:102C8000C601D090C70101E010E09E01235F3F4FD5
:102C900050E040E070E060E081E00E941C15182FD9
:102CA000882309F448C0560182E0A80EB11C609147
:102CB000CF027091D0028091D1029091D2020E94F5
:102CC000EA28643671058105910568F10CE010E091
:102CD0009E012F5F3F4F50E040E070E060E082E0F7
:102CE0000E941C15D82E6CE070E0C5010E940821DE
:102CF00011E09D85981310E01D2141F10E94CF281D
:102D00006093CF027093D0028093D1029093D2024D
:102D10008CE0FE013196A3ECB2E001900D928A9511
:102D2000E1F711E013C06CE070E0C5010E940821DA
:102D30009D858913CBCF8CE0F6013296DE0111968A
:102D400001900D928A95E1F71111E2CF8CE0E3EC4E
:102D5000F2E0D70101900D928A95E1F7812F2D962F
:102D6000EAE00C94DF320F931F93CF93DF93EC01D3
:102D70008B0148E356E10E94CA15811106C080E02C
:102D8000DF91CF911F910F9108954CE855E1B80163
:102D9000CE010E94CA15882391F34DEF55E1B80189
:102DA000CE010E94CA15ECCFACE0B0E0EAEDF6E14E
:102DB0000C94C5320091C6011091C701C80102965A
:102DC0002CE0FB01DC0101900D922A95E1F76CE00B
:102DD00070E00E940821F8018183668577858089EB
:102DE0009189C090BF02D090C002E090C102F090E3
:102DF000C2026C157D058E059F0551F06093BF02E0
:102E00007093C0028093C1029093C2020E941E126E
:102E10008CE0F8017296DE01119601900D928A9570
:102E2000E1F7F801148E8B85882329F060E0CE014C
:102E300001960E94111E2C96E8E00C94E1320E944B
:102E4000CE2C0E945A0F0E94DB2C08950E94E02C89
:102E50000E947A0F0E94FA2C08950E945C280E941A
:102E6000B42C0E94420F0E941F170E9426170E9436
:102E7000500FFBCF9093DB018093DA010895282F48
:102E800035EB2303C001112497FF04C0805891093A
:102E9000892F089580589F4FFBCF8091E10280FFDA
:102EA0000DC06091300170E0660F771F60387105CA
:102EB00070F56115710569F1862F089581FF07C0CE
:102EC0006091300184E0689FB0011124EFCF6091E0
:102ED000300182FD0AC08091E0028823A9F0209190
:102EE0002F0160913001821710F088E0ECCF869FAF
:102EF000C001112433E0880F991F3A95E1F7622F42
:102F000070E00E949A32D2CF68E070E0D5CF8FE7B0
:102F1000089581E008958091E10280FF0CC06091E6
:102F20002C0170E07595679575956795611571052C
:102F300049F1862F089581FF06C060912C0170E051
:102F400075956795F3CF60912C0182FD0BC0909130
:102F5000DF029923A1F060912B0180912C0196173B
:102F600038F0682F70E06038710500F38FE708953E
:102F7000899FC001112470E00E949A32F4CF61E071
:102F800070E0D7CF81E008958D3C31F40E944D1759
:102F900081958093E50208958E3C19F40E944D17A7
:102FA000F8CF8F3C31F40E944D1781958093E40255
:102FB0000895803D19F40E944D17F8CF893D29F4FA
:102FC0000E948B178093E60208958A3D21F40E94A7
:102FD0008B178195F7CF8B3D31F40E948B1781952C
:102FE0008093E70208958C3D19F40E948B17F8CF67
:102FF0009FE2980F983070F4815D990B21E030E0EA
:1030000001C0220F8A95EAF78091E302822B809318
:10301000E30208958D3D31F48091E1028160809357
:10302000E10208958E3D21F48091E1028260F7CFA4
:103030008F3DB9F78091E1028460F1CF4091E402C5
:103040008D3C59F48091E50287FF0DC01092E50296
:1030500041110BC01092E00208C08E3C81F48091B7
:10306000E50218169CF3442381F08091E6029091CA
:10307000E702892B09F05AC01092DF0208958F3CB5
:1030800049F447FFF0CF1092E4028091E5028111EC
:10309000ECCFE0CF803D19F41416ACF3E4CF90915F
:1030A000E602893D29F41916F4F61092E602DBCF08
:1030B0008A3D19F497FFD7CFF8CF9091E7028B3D67
:1030C00029F497FFD0CF1092E702CDCF8C3D19F4B1
:1030D0001916CCF3C8CF9FE2980F983090F4815D19
:1030E000990B21E030E0B90102C0660F771F8A9585
:1030F000E2F7CB0180959091E30289238093E3026C
:10310000B2CF8D3D31F48091E1028E7F8093E10258
:10311000AACF8E3D21F48091E1028D7FF7CF8F3DC4
:1031200009F0A1CF8091E1028B7FF0CF08950E943A
:10313000C3289C019091E4028091E502982B21F034
:103140003093DE022093DD029091E6028091E70247
:10315000982B21F03093DC022093DB0282EE92E088
:103160000E94D626089586E0E2EEF2E0DF011D928D
:103170008A95E9F71092E0021092DF021092E102C4
:103180000895FC01828181110EC0838181110BC0E1
:103190008481811108C091E08581811101C090E096
:1031A000892F8170089581E0FCCFA6E0B0E0EBEDBF
:1031B000F8E10C94CA3286E0E2EEF2E0DE0111960C
:1031C00001900D928A95E1F71092E4021092E502C7
:1031D0001092E6021092E7028B819C81892B89F084
:1031E0008091DD029091DE020E94DB28AC0190917B
:1031F000E0029923C9F1809131018417150608F482
:1032000040C08D819E81892B91F08091DB0290914D
:10321000DC020E94DB28AC019091DF02992309F4C3
:103220006AC080912D018417150608F472C0BE0192
:103230006F5F7F4F82EE92E00E94F027811105C000
:1032400082EE92E00E94C11881110E94971886E0D8
:10325000FE013196A2EEB2E001900D928A95E1F75F
:103260002696E3E00C94E632209132018AE0289F12
:10327000900111242417350720F69F5F9093E002F8
:1032800002C09F3FD1F71B81112359F00E944D17B7
:103290009FEF11160CF491E0899F802D11248093EB
:1032A000E4021C81112359F00E944D179FEF111663
:1032B0000CF491E0899F802D11248093E502809188
:1032C000E402882309F49DCF1091E502112309F44B
:1032D00098CF0E943F17882351F08093E402812FFA
:1032E0000E943F17882329F08093E5028ACF81E06E
:1032F000F4CF81E0F9CF20912E018AE0289F900140
:1033000011242417350708F092CF9F5F9093DF02B6
:1033100002C09F3FD1F71D81112359F00E948B17E6
:103320009FEF11160CF491E0899F802D112480935A
:10333000E6021E81112359F00E948B179FEF111690
:103340000CF491E0899F802D11248093E7028091F5
:10335000E602882309F46BCF1091E702112309F4E8
:1033600066CF0E943F17882351F08093E602812F99
:103370000E943F17882329F08093E70258CF81E00D
:10338000F4CF81E0F9CFEF92FF920F931F93CF9389
:10339000DF93EB01E82FD1110EC0442321F0F0E0C0
:1033A000E45FFB4FE4916E2F7E2F8E2FCDB7DEB7FB
:1033B000E6E00C94E3320D2F10E0282F30E0442398
:1033C00029F0245F3B4FF901249130E0F6E0CF9FD4
:1033D000C0011124EFEFF0E0BF010E948632AB0183
:1033E0008C2F90E0880F991FA5E5A49FB001A59FA1
:1033F000700D1124861B970B982F990F980FBF0102
:10340000601B710B629FD001639FB00D729FB00D66
:1034100011248B2F9D9FB0011124672F7727EF0177
:10342000C61BD70BBE01629FE001639FD00D729F48
:10343000D00D11247F01E91AF108E09EB001E19E50
:10344000700DF09E700D1124672F7727E61BF70B88
:10345000E29F8001E39F100DF29F100D1124E12FD8
:10346000722F4230510599F048F44115510569F029
:103470004130510581F0EB2F8D2F07C044305105AD
:1034800069F080F046305105B1F76E2F8FCFE22FF3
:103490007B2F812FFACFE22F7D2FF7CFEB2F822FBB
:1034A000712FF3CF7B2F822FED2FEFCF41E00E94C2
:1034B000C3190895E3E3F1E08083618308950E94D6
:1034C000561A0895CF93DF93762FE901682F842F42
:1034D0000E945F1A798368838A83DF91CF91089570
:1034E000443C08F043EC0E94621A089580916703FF
:1034F000982F9E7F71F48091670381708260809322
:10350000670380916A03843C18F083EC80936A031C
:103510000895843080F7F5CFB0E0A0E0E2E9FAE169
:103520000C94C53288E090E00E945C336B017C0112
:1035300084E290E00E945433282F30E040E050E0D5
:1035400060E070E080E090E000E20E94F232B22F92
:10355000A32FF42FE52FD62FC72F97018601BC2963
:10356000A12BFE295E2F532B2B2F3A2F4F2F6D2F80
:103570007C2FCDB7DEB7E8E00C94E132B0E0A0E0FC
:10358000E4ECFAE10C94C13249015A016B017C016F
:103590000E94761A8401A4016A2D7B2D88E090E0B8
:1035A0000E948A3394014A2D5B2DB601C70100E2C7
:1035B0000E940D33622F84E290E00E947833CDB7F1
:1035C000DEB7ECE00C94DD32E7E6F3E020813181F8
:1035D0004281538164817581868197810E94BE1AE0
:1035E0000895E7E6F3E083E0808311828FEF828322
:1035F00083EC83831482A5EFB2E012968C9112972C
:10360000836012968C93758123E030E04FEF53EC8A
:1036100060E0868197810E94BE1A089580916703B9
:1036200080FF02C08695089580E008958091670329
:103630008170089590916B03933018F49F5F90937D
:103640006B03882391F020916703309168034091C8
:10365000690350916A0360916B0370916C038091D0
:103660006D0390916E030E94BE1A089581E00E943E
:103670001A1B089590916B03992319F09150909320
:103680006B03882391F02091670330916803409188
:10369000690350916A0360916B0370916C03809190
:1036A0006D0390916E030E94BE1A089581E00E94FE
:1036B0003A1B089580916B03089580936B036623F2
:1036C00089F020916703309168034091690350911C
:1036D0006A0370916C03682F80916D0390916E0363
:1036E0000E94BE1A089560E00E945D1B08958091BB
:1036F0006803089580916903089580916A0308958D
:1037000021E030E001C0220F8A95EAF79091F8029B
:10371000922381E009F480E0089570E00E94021F86
:103720000895A5E0B0E0E7E9FBE10C94BF327090AA
:1037300034019091670390FF16C0C090EC02D090C6
:10374000ED02C114D10409F58091330133E0839F68
:10375000C0011124672D81599C4F0E948D1B259615
:10376000EEE00C94DB32809135012091360133E09C
:10377000839FF0011124E159FC4F8217F0F611826A
:10378000108212828F5F3396F8CF90FFDDCFF12C3D
:10379000E12C43E0642E8E2D0E94801B882309F4C7
:1037A0003BC0F701EE0FFF1FEC0DFD1DA590B4907F
:1037B000A114B10449F245E050E0B501CE010196F3
:1037C0000E94283309810F3F39F18A81800F9927A0
:1037D000991F8535910514F084E590E04C01880C23
:1037E000991C880D991D9C0121593C4F4901069D4A
:1037F0008001112401591C4F0815190520F035E0EE
:10380000A30EB11CD8CF98014D816C818B810E9491
:10381000701A0D5F1F4FF0CF8FEFE81AF80A28E0FB
:10382000E216F10409F0B7CF8FCF9091670390FFB4
:103830000EC0909135012091360133E0939FF00145
:103840001124E159FC4F921718F00E94911B089522
:103850008183608342839F5F3396F5CFA3E0B0E01E
:10386000E4E3FCE10C94C732F82E062F142FE22E6D
:103870008091670380FF3FC0909168039F1108C04B
:1038800090916903961304C090916A03941729F0EC
:103890009091F70292609093F702E82FE695F0E09E
:1038A000E853FE4F90819093F5028E7F823069F449
:1038B0009E012F5F3F4F412F602F8F2D0E94701A66
:1038C0004B8169818A810E94151CF09268030093E4
:1038D000690310936A03EE2071F0209167036091F1
:1038E0006B0370916C033F2DA80180916D03909143
:1038F0006E030E94BE1A2396E6E00C94E332E7E6DC
:10390000F3E09181282F438162818AE0890F0E9430
:103910002E1C089581E00E947F1C0895E7E6F3E0E5
:103920009181282F4381628186EF890F0E942E1C8E
:10393000089581E00E948E1C0895E7E6F3E062811D
:1039400021E1620F08F46FEF282F438181810E94EB
:103950002E1C089581E00E949D1C0895E7E6F3E087
:10396000628121E1621B08F460E0282F438181819C
:103970000E942E1C089581E00E94AE1C0895E7E687
:10398000F3E0438121E1420F08F44FEF282F6281D9
:1039900081810E942E1C089581E00E94BF1C089521
:1039A000E7E6F3E0438121E1421B08F440E0282FE1
:1039B000628181810E942E1C089581E00E94D01CAA
:1039C000089520E00E942E1C08951092F702089599
:1039D00028E0E7E6F3E0DC0101900D922A95E1F79B
:1039E0004091F5025091F6026091F7027091F80251
:1039F000FC0140875187628773870895E5EFF2E005
:103A000011828281846082830895E7E6F3E08081F9
:103A10008E7F80830E94FE1CE5EFF2E08281816050
:103A200082830E94911B0895E7E6F3E020812E7FB8
:103A300020833181428153816481758186819781A0
:103A40000E94BE1A0E94FE1CE5EFF2E082818160B6
:103A500082830E94911B089560916703669570E0D0
:103A600041E050E088E391E00E943133892B19F462
:103A700081E08093F6020E9455129093EF028093AA
:103A8000EE028091F70284608093F70208952091FE
:103A9000670320FF34C02170226020936703809168
:103AA000F70281608093F702662381F0309168030A
:103AB0004091690350916A0360916B0370916C03AC
:103AC00080916D0390916E030E94BE1A609167030E
:103AD000669570E041E050E088E391E00E94313368
:103AE000892B71F00E94FE1C81E08093F1024091CD
:103AF0006A0360916903809168030E94E11C089544
:103B00000E942C1DF1CF682F81E00E94471D08956F
:103B100081E00E94831D0895682F90916703969518
:103B20008FEF890F09F481E00E94471D089581E01D
:103B30000E948C1D089561E00E94471D0895E7E6EC
:103B4000F3E080818160808386950E949B1D0895AB
:103B50008091670380FF03C00E94141D08950E9496
:103B60009F1D089560E00E94471D08958091F40212
:103B7000811143C00E94550E811104C00E94F70EAE
:103B80000E94F11A0E948C1A2093670330936803F5
:103B90004093690350936A0360936B0370936C03C3
:103BA00080936D0390936E038091F70283608093FE
:103BB000F7022E7FA1F40E94F11A0E948C1A209322
:103BC0006703309368034093690350936A036093DB
:103BD0006B0370936C0380936D0390936E030E944C
:103BE000761A0E94FE1C8091670380FF03C08695B1
:103BF0000E94B21D81E08093F4020895E7E6F3E0AD
:103C000080818160808386950E94B21D0895809195
:103C1000670380FF03C00E94051D08950E94FE1DDA
:103C200008951F93CF93DF93EC01162F8A8584FFAD
:103C300003C09B859093F80280FF0DC0888180FFB0
:103C400025C0809167038160809367038881612F1D
:103C500086950E94471D8A8581FF06C0212F4B81D2
:103C60006A8189810E942E1C8A8582FF05C0898510
:103C7000882379F00E942C1D8A8583FF03C081E090
:103C80008093F102DF91CF911F9108950E94051D4D
:103C9000E2CF0E94FE1CF0CF8091F602882309F447
:103CA00044C08091670386959091F502891B8093AB
:103CB000F0028091F102882361F01092F1020E94DB
:103CC00055129093EF028093EE021092F30210923D
:103CD000F2020E9455122091EE023091EF02AC01E7
:103CE000421B530B4F3F5F4700F54091EA024423CC
:103CF000B1F01092EA024091E8025091E902841B6F
:103D0000950B8F3F9F4758F4405D5A485093E90206
:103D10004093E8028091F70288608093F702205375
:103D2000384F3093EF022093EE028091EB0288230C
:103D300059F01092EB028091F602811105C080913A
:103D4000670386950E94B21D0895FA01811101C092
:103D5000FB01099508951F93CF93DF93EC01FB01BD
:103D60001581111110C00E94540D8272FE01E052A3
:103D7000F847E531F10508F043C0E654FC4C0C94DB
:103D8000AE320E94A81D812FDF91CF911F9108951F
:103D900047E95DE168E87DE10E94A51EF4CF48E8AF
:103DA0005DE167E97DE1F8CF49E95CE16AE87CE142
:103DB000F3CF4AE85CE169E97CE1EECF4BEB5CE1F3
:103DC0006AEA7CE1E9CF4AEA5CE16BEB7CE1E4CFB3
:103DD0004DED5CE16CEC7CE1DFCF4CEC5CE16DED3A
:103DE0007CE1DACF46E55BE166E37BE1D5CF46E3F4
:103DF0005BE166E57BE1D0CF81E00E949B1DC3CFF4
:103E000011E0C1CF529A4BB14B7F5BB15460EFB719
:103E1000F8949B01220F331F260F371F280F391FDD
:103E20002817390741F4EFBF8FE594E00197F1F7C8
:103E300000C000000895DC016D91CD0178E05BB910
:103E4000000000C067FF4BB9660F000000C000C053
:103E500000C04BB900C07A9591F7E2CF85E290E0BF
:103E60000E945433833289F486E290E00E945433F6
:103E7000893059F487E290E00E94543391E0843015
:103E800009F090E0892F8170089580E0FCCFCF93F6
:103E9000C82F6FEF811163E285E290E00E947833D2
:103EA0006FEFC11169E086E290E00E9478336FEF16
:103EB000C11164E087E290E00E947833CF910895C9
:103EC000089588E290E00E945433682F70E090E0FB
:103ED00080E008950895CF93C62F0E946A1F6C2F2B
:103EE00088E290E00E947833CF91089580E00E94AC
:103EF000471F60E070E0CB010E946B1F0E943724D7
:103F00000E94F82481E00E94471F08950E94601FCC
:103F10000E94611F0E946A1F0E942E1F811102C011
:103F20000E94761F08950E94071E08959C01FB01C0
:103F30008581882351F0A90157574038510530F445
:103F4000822F0E94082580E0089581E008952FEFD8
:103F5000FC012083089580E00895CF93DF93EC0166
:103F600088818230E9F028F4813071F0DF91CF91BF
:103F700008958330F9F08430C9F70E94771B898354
:103F80000E947A1B8A83F2CF0E947D1B2FEF829FB3
:103F9000C001112463EC70E00E9486326983E6CF91
:103FA0000E94161B882321F00E940E1B8983DECFFE
:103FB00080E0FCCF0E945A1BF9CFCF93DF93EC0136
:103FC0008881823021F128F4813069F0DF91CF912E
:103FD0000895833041F18430C9F70E947D1B482F3A
:103FE0006A81898111C0898123EC829FC0011124DB
:103FF0006FEF70E00E948632D62F0E947A1BC82F86
:104000000E94771B4D2F6C2F0E94E11CDFCF89810E
:10401000811103C00E94051DD9CF0E94FE1D898118
:104020000E94B21DD3CF89810E94731BCFCFFC01A8
:104030009C012E5F3F4F9081983041F0993051F0B4
:10404000973059F4C9010E94DD1F0895C9010E94EB
:10405000AD1F08950E94E41A08958FEF808308959C
:10406000FC012181223019F40E94172008950E943A
:10407000A71F0895B0E0A0E0E0E4F0E20C94C532A0
:10408000EC01C62E0E94AB1F811110C0E881E150E7
:10409000E331B8F4F0E0E153FC4C0C94AE321982F9
:1040A0008CE08A836C2DCE010E94A82BCDB7DEB7A1
:1040B000E8E00C94E13289818230C1F028F481304B
:1040C00061F08FEF8883EECF833099F08430C9F7A9
:1040D0001A821B821C821D82E5CF0E94CF280E947B
:1040E000B4326A837B838C839D83DCCF0E94611F03
:1040F000F6CF8A81082F10E07E019EE0D92ED80EDF
:104100000C30110578F6802F0E94A212F7019383DC
:1041100084830F5F1F4FF2E0EF0EF11CD012F0CF3F
:10412000C1CF8981823031F0853059F68A810E9471
:10413000931FB8CF6A817B818C819D810E94B432AC
:104140000E946B1FAFCF4B816A8189810E94F92346
:104150009827892798279D838C83A4CF2C813D8124
:104160003227232732274B816A8189810E941B24B1
:1041700099CF0E94372496CF6C2DCE010E9430201B
:1041800091CF0E94AB2489838DCF0E94AD249827C4
:10419000892798279A83898385CF6B8170E08981ED
:1041A0009A81AE014C5F5F4F9827892798270E941C
:1041B000B02478CF6B8170E089819A81AE014C5F29
:1041C0005F4F9827892798270E94D4246BCF0E949D
:1041D000F82468CF0E94E723D6CF6B8170E08981F5
:1041E0009A81AE014C5F5F4F9827892798270E94DC
:1041F000572458CF6B8170E089819A81AE014C5F62
:104200005F4F9827892798270E947B244BCF0895DA
:10421000FC01680F791F8FEF91E3E617F70709F4A8
:1042200008952191822728E030E087FF06C0880F9B
:10423000892721503109C9F7F0CF880FFACFCF93E2
:10424000DF93EC01FB018581882309F4D2C09E0134
:1042500030572332310508F0B2C00E946B0E9093A4
:10426000340380933303FE01E150F047E232F1055D
:1042700020F4EE51FC4C0C94AE32809133038160FB
:104280008093330393C08091340388608093340318
:104290008DC0809133038260F3CF809133038460BB
:1042A000EFCF809133038860EBCF8091340381603E
:1042B000EDCF809134038260E9CF80913303806138
:1042C000DFCF809133038062DBCF80913303806442
:1042D000D7CF0E94C608809133038068D1CF8091E8
:1042E00033038C60CDCF809134038360CFCF809136
:1042F00033038E7FC5CF80913403877FC7CF8091F2
:1043000033038D7FBDCF809133038B7FB9CF8091F5
:104310003303877FB5CF809134038E7FB7CF8091F1
:1043200034038D7FB3CF809133038F7EA9CF8091EB
:1043300033038F7DA5CF809133038F7BA1CF0E9464
:10434000C608809133038F779BCF80913303837F9F
:1043500097CF809134038C7F99CF8091330382FB78
:10436000992790F921E0922790FB82F990FB83F93D
:1043700087CF80913403982F909591708E7F892BF1
:1043800090FB81F983CF90913303892F8F7B96FF28
:10439000806476CF0E94C60890913303892F97FBE3
:1043A00087F980586DCF81E00E94FA0E8091330327
:1043B000909134030E94700E0E94C60880E0DF9145
:1043C000CF91089580E0F0CF90913303892F8F7EB5
:1043D00094FF806155CF90913303892F8E7F90FF9A
:1043E00081604ECF90913403892F877F93FF88603F
:1043F0004DCF81E0E4CFB0E0A0E0E1E0F2E20C9448
:10440000C632E82FF0E0E45FFA4FD490282F2695CB
:104410002695269530E0F901E455FA4F049187700E
:1044200010E0082E02C0159507950A94E2F7017076
:104430001127F901E456FA4FE490F12C082E02C03E
:10444000F594E7940A94E2F791E0E922FF24F90158
:10445000E457FA4FC491D0E002C0D595C7958A952C
:10446000E2F7C170DD270115110519F081EE0E94F8
:104470006A05E114F10419F086EE0E946A058D2D9B
:104480000E947306E114F10419F086EE0E94010601
:104490000115110519F081EE0E940106CD2B19F0CE
:1044A0008CE20E947306CDB7DEB7E7E00C94E232EF
:1044B000EF92FF920F931F93CF93DF93EC01162F90
:1044C0000AE08881882309F454C0813009F04EC085
:1044D0008981813099F47E0122E0E20EF11C8A810B
:1044E0000E947306E7012196812F815050F3EFE976
:1044F000FFE03197F1F700C00000F7CF823041F4C0
:104500007E0182E0E80EF11C8A810E946A05EACFF2
:10451000833041F47E01E2E0EE0EF11C8A810E94BC
:104520000106E0CF843011F02196DDCF2A8122965A
:1045300090E080E0AE014F5F5F4F2053330B2A3095
:10454000310548F0019778F2EFE9FFE03197F1F794
:1045500000C00000F7CF089FB001099F700D112423
:10456000C901860F971F2981EA01E4CF0E94FB2130
:10457000BACFCDB7DEB7E6E00C94E332EBEFE80F4D
:10458000EF3308F062C0F0E0EC5FFB4C0C94AE320D
:104590000E94F70E81E008958091B602807F80939B
:1045A000B60281E08093FC0208950E946C04F2CF71
:1045B0009091B602892F8E7F90FF81608093B60222
:1045C00080FDE8CF817F8093B602E4CF9091B60260
:1045D000892F8D7F91FF82608093B60281FFDACFB1
:1045E0008091B6028160EFCF9091B602892F8B7FC8
:1045F00092FF84608093B60282FDF2CFCBCF909180
:10460000B602892F877F93FF88608093B60283FD6F
:10461000E7CFC0CF0E94C60890913303892F97FB44
:1046200087F9805880933303B5CF81E00E94110948
:104630000E94C608AFCF895391E001C0990F8A95B7
:10464000EAF7892FF3CF8D51F7CF80E0089580E00E
:1046500008950E9427230895CF93C82F8091FC02CC
:104660008130B9F0882331F08230A1F11092FC0240
:1046700080E00DC00E94540D8232D1F78C2F0E9431
:10468000272381111BC08C2F0E94BE228170CF91E5
:1046900008950E94540D823289F38C2F0E942923A1
:1046A00081110AC0C43199F060F4CB3029F0C031D7
:1046B00069F782E08093FC0281E0E8CF81E090E03E
:1046C000E5CFC93221F0C833B9F380E0DFCF1092D3
:1046D000FC02FBCFC93209F440C0F0F4C431E9F167
:1046E000A8F481E0C73099F68093320184E1809389
:1046F00031018AE0809330018EE180932F0188E0C0
:1047000080932C0188E280932B0104C082EE8C0FF1
:104710008A3070F181E0BBCFC03509F450C0B8F4E5
:104720008AE0CF34B9F7E091F902F091FA023097BC
:1047300089F32081082E000C990B820F911D8F3F69
:10474000910509F00CF43FC08FEF8083E3CFC135B2
:10475000C1F181E0C23539F39ACF8091FB02882301
:10476000C9F21092FB021092FA021092F902D2CF13
:10477000CD51C093FB02C330C9F048F4C13099F069
:1047800081E391E0C23051F01092FB02C3CFC530FB
:1047900099F078F08BE291E0C630B1F79093FA028D
:1047A0008093F902B7CF82E391E0F8CF80E391E004
:1047B000F5CF8FE291E0F2CF8CE291E0EFCF86EF80
:1047C000B2CF8FEFB0CF97FFC0CF1082A3CF84E0DE
:1047D000089550E0440F551F92E1699F400D511D0F
:1047E000112498ED899F400D511D1124CA0189960D
:1047F00008950F931F93CF93DF938430C8F46C30E8
:10480000B8F44930A8F40E94E9238C010E94543383
:10481000C82FD0E0DC2FCC27C80101960E9454336A
:104820009E01282BC901DF91CF911F910F9108950F
:1048300090E080E0F8CF0F931F93CF93DF93122F78
:10484000032F843078F46C3068F4493058F40E94B7
:10485000E923EC01602F0E947833612FCE0101968D
:104860000E947833DF91CF911F910F9108951F938C
:10487000CF93DF93D0E0C0E011C0412F6C2F8D2F7C
:104880000E94E2039C01412F6C2F8D2F0E941B245C
:104890001F5F193091F7CF5FCC3011F010E0EDCFF2
:1048A000DF5FD43041F7DF91CF911F910895EF92F0
:1048B000FF920F931F93CF93DF93EC018A017C014A
:1048C000E60EF71ECE018996CE15DF0529F4CDB789
:1048D000DEB7E6E00C94E332C03623E0D20740F4C2
:1048E0000E945433F80180830F5F1F4F2196EACF57
:1048F000F8011082F9CFB0E0A0E0E1E8F4E20C9416
:10490000C5327C016A018C01060F171FEC01CE0134
:104910008996C017D10729F4CDB7DEB7E8E00C942B
:10492000E132C03623E0D20740F4FE01EE19FF0960
:10493000EC0DFD1D60810E9478332196E8CF843014
:1049400038F46C3028F4493018F40E94F9230895A3
:1049500090E080E0089580E1089587E790E0089571
:10496000EF92FF920F931F93CF93DF93EC018A0195
:104970007C01E60EF71ECE0187579C4FCE15DF0552
:1049800029F4CDB7DEB7E6E00C94E332C737D105A2
:1049900040F40E945433F80180830F5F1F4F21962B
:1049A000EACFF8011082F9CFB0E0A0E0EAEDF4E23E
:1049B0000C94C5327C016A018C01060F171FEC01B3
:1049C000CE0187579C4FC017D10729F4CDB7DEB76A
:1049D000E8E00C94E132C737D10540F4FE01EE194E
:1049E000FF09EC0DFD1D60810E9478332196E8CF10
:1049F000CF93DF93C9E8D3E060E0CE010E94783323
:104A00002196C11584E0D807B9F7DF91CF910895B9
:104A1000A8E0B0E0EEE0F5E20C94C332F82E8FE0AF
:104A20008F1508F46EC08FEF93E00E94543381110C
:104A300068C009E813E0F11035C0FE0131966F013E
:104A400088E011928A95E9F77801FFEFEF1AFF0AE3
:104A5000C8010E94543389831A82882309F451C003
:104A60008130D1F4580182E0A80EB11CC7010E9428
:104A700054338A83882309F444C09FEF980F9330FE
:104A8000F0F4780193E0E90EF11CC5010E94543363
:104A90008B838823B1F11C8260E0C6010E945822FA
:104AA0008701D2CF011594E0190759F1C8010E947E
:104AB0005433811101C0FA940F5F1F4FBCCF7501B1
:104AC000843051F702E010E07501EFEFEE1AFE0AB4
:104AD000C5010E945433F601E00FF11F8083882343
:104AE00081F08C3741F4E2E0F0E0EC0FFD1FE00FC5
:104AF000F11F1082D1CF0F5F1F4F570107301105F3
:104B000019F72896EAE00C94DF32CF93DF93EB019C
:104B100086319C4711F50E94540D9D81992399F08F
:104B20008A7A91E009F490E09093FD02811109C026
:104B300089E20E942C0D0E94AD0D80E0DF91CF91A3
:104B4000089585E3F6CF8091FD02811104C089E2CA
:104B50000E94340DF0CF85E3FBCF81E0EFCF0F93C0
:104B60001F93CF93DF93C42FD22FFC01858188231D
:104B7000C9F0409300030E94C3289093FF028093E2
:104B8000FE0280E28C0F883040F4C77081E001C0E3
:104B9000880FCA95EAF70E947C06DF91CF911F919A
:104BA0000F91089510910003141332C08091FE02FA
:104BB0009091FF020E94DB28883C910548F5C0E2F5
:104BC000CD0F1D17B9F080E2810F883040F41770C7
:104BD00081E001C0880F1A95EAF70E948306C83069
:104BE00048F481E09D2F977001C0880F9A95EAF7ED
:104BF0000E947C06802F0E947306C83070F6D77022
:104C000081E001C0880FDA95EAF70E948306C5CFDC
:104C100080E28C0F883008F6C77081E001C0880FF1
:104C2000CA95EAF7F2CF0F93DB0188519C47873092
:104C30009105A0F5FC01ED5BFB4C0C94AE3206E255
:104C400021EE41EE6AE17CE7CD010E94AF2580E0D4
:104C50000F91089507E225EE45EE6BE17CE7F4CF76
:104C600006E221EE40EE68E17CE7EECF07E225EEBA
:104C700044EE69E17CE7E8CF06E221EE42EE6CE12A
:104C80007CE7E2CF07E225EE46EE6DE17CE7DCCF84
:104C900008E221E045EE6EE17CE7D6CF15968C91D7
:104CA000882319F010920003D3CF81E0D1CF1F9356
:104CB000CF93DF9387372CE7920759F0C1E088370D
:104CC0009C47E1F4FB01C581CC2371F10E949A2637
:104CD00006C0FB01C581CC23B1F00E9497260E943B
:104CE0003E090E949D26D82F0E949A26C82F0E9416
:104CF00097264D2F6C2F0E94660AC0E08C2FDF9103
:104D0000CF911F9108950E9497260E944A090E9400
:104D10009D26182F0E949A26D82F0E949726412F51
:104D20006D2F0E94660AEACF0E949A26EECF8091EC
:104D30003B01089580913A010895809139010895C9
:104D4000909307038093060308950E9481148111B4
:104D500003C0809101030895E0910603F0910703D9
:104D6000309729F00190F081E02D0995089580E0B9
:104D700008950E94A5260895E0910603F091070387
:104D8000309799F020914401222359F02091330368
:104D900027FF07C0DC012C9111962C93119726E078
:104DA0002C930280F381E02D09950895E09106038C
:104DB000F0910703309739F022E0DC012C93048056
:104DC000F581E02D09950895A3E0B0E0EAEEF6E262
:104DD0000C94CB3220910403309105032817390736
:104DE000A1F09093050380930403E0910603F091F2
:104DF0000703309751F023E029839B838A83068041
:104E0000F781E02DCE01019609952396E2E00C94FE
:104E1000E732A3E0B0E0EFE0F7E20C94CB32209170
:104E200002033091030328173907A1F0909303037D
:104E300080930203E0910603F0910703309751F04D
:104E400024E029839B838A830680F781E02DCE01AD
:104E5000019609952396E2E00C94E732FC01329624
:104E600080914401882321F0809133039EE187FFE4
:104E700096E080E0915008F4089521912223D1F327
:104E80008F5FF8CF662301F1209144012223F1F0D6
:104E90002091330327FF1AC0462F46954695469525
:104EA0004E3190F4677021E030E002C0220F331FD2
:104EB0006A95E2F7840F911DFC01828190E028231E
:104EC000392381E0232B69F480E00895FC013296B8
:104ED00008962191261721F0E817F907D1F7F4CFAA
:104EE00081E008959C01FC0132969FEF80E04191A2
:104EF000461751F09F3F19F4411101C0982F8F5F61
:104F00008630A9F79F3F09F40895290F311D97FDB9
:104F10003A95F90162830895FC0132960896219131
:104F2000261303C0DF0111971C92E817F907B9F7A0
:104F30000895E62FE695E695E695EE3168F4E80FDC
:104F4000F92FF11D677021E030E001C0220F6A9552
:104F5000EAF78281822B82830895E62FE695E69513
:104F6000E695EE3170F4E80FF92FF11D677021E03E
:104F700030E001C0220F6A95EAF72095828128234C
:104F80002283089520914401222339F02091330394
:104F900027FF03C00E94992708950E947227089551
:104FA00020914401222339F02091330327FF03C0CD
:104FB0000E94AD2708950E948C270895FC01329627
:104FC00080914401882351F08091330387FF06C00C
:104FD0008EE1DF011D928A95E9F7089586E0F9CF09
:104FE000DC01FB0111969C9111978181981322C0DD
:104FF00012968C911297882319F0928189131AC006
:1050000013968C911397882319F09381891312C0FA
:1050100015968C911597882319F0958189130AC0EC
:1050200014969C91992321F081E02481291303C0D7
:1050300080E001C081E08170089508950E941D28DC
:105040000895811106C081E0809308030E941E2804
:10505000089582E0F9CF83E0809308030E941E2820
:1050600008950E942128089581E0809308030E94FA
:105070001E2808950E9434280895089508950E94D6
:105080003E280895089508950E943D280895CF93DD
:105090000E9442280E94E7130E944328C0E08C2F00
:1050A0000E94A212892B31F4CF5FCC30C1F780E08F
:1050B000CF91089581E0FCCF85B7806885BF85B723
:1050C000806885BF08951F921FB61F9211248F9389
:1050D0009F93AF93BF9380910903811113C0809177
:1050E0006B0490916C04A0916D04B0916E04419694
:1050F000A11DB11D80936B0490936C04A0936D046B
:10510000B0936E04BF91AF919F918F911F901FBE7E
:105110001F90189580919104843031F10E94DE0433
:105120001092090388E190E020E40FB6F894A89566
:10513000809360000FBE2093600083B7817F8460FE
:1051400083BF83B7816083BF7894889583B78E7F50
:1051500083BF0FB6F894A895809160008861809312
:105160006000109260000FBE08950E94C6080E9461
:10517000E304089582E084BD93E095BD9AEF97BD66
:1051800080936E0008952FB7F89480916B049091EE
:105190006C04A0916D04B0916E042FBF08952FB7D9
:1051A000F89460916B0470916C0480916D049091FF
:1051B0006E042FBF08959C014FB7F89480916B0443
:1051C00090916C04A0916D04B0916E044FBF821B4E
:1051D000930B0895CF92DF92EF92FF922FB7F8943E
:1051E000C0906B04D0906C04E0906D04F0906E045D
:1051F0002FBFA7019601261B370B480B590BCA017D
:10520000B901FF90EF90DF90CF90089578941F92AE
:105210001FB61F9211248F939F93AF93BF938091DA
:105220006B0490916C04A0916D04B0916E04019692
:10523000A11DB11D80936B0490936C04A0936D0429
:10524000B0936E04BF91AF919F918F911F901FBE3D
:105250001F90189587E797E79093010880930008BF
:1052600088E19AE00FB6F894A895809360000FBE8D
:1052700090936000FFCF88E19AE00FB6F894A8956C
:10528000809360000FBE90936000FFCF1092B90032
:1052900088E48093B8000895B0E0A0E0E2E5F9E288
:1052A0000C94C232B82EEB010E94C3286C01EE248C
:1052B000E394F12CC431D10560F025E0E22EF12C0D
:1052C000CF3FDC0731F0CE0164E170E00E9486320E
:1052D0007B0184EAA82E94E8992E1092BC00A0923B
:1052E000BC000E94C3288C018091BC0087FF0DC0C8
:1052F0008091B900887F8830F9F08091B900887F6B
:105300008031D1F00FEF1FEF08C0C8010E94DB28E9
:10531000E816F90648F70EEF1FEFCF3FDC07E9F27A
:10532000C6010E94DB28C817D907B8F6C801CDB757
:10533000DEB7EBE00C94DE32B092BB009092BC0082
:105340000E94C3288C018091BC0087FF0AC0809115
:10535000B900887F883111F08034A1F610E000E0B8
:10536000E5CFC8010E94DB28E816F90660F7D3CF25
:105370000F931F93CF93DF93EB018093BB0084E8DF
:105380008093BC000E94C3288C018091BC0087FFE1
:1053900011C02091B900287F81E090E0283211F4FB
:1053A00090E080E0919581959109DF91CF911F91D7
:1053B0000F910895CF3FDC0741F3C8010E94DB281D
:1053C000C817D90710F78EEF9FEFEFCF0F931F93FA
:1053D000CF93DF93EC0184EC8093BC000E94C32840
:1053E0008C018091BC0087FF08C08091BB0090E0D9
:1053F000DF91CF911F910F910895CF3FDC0789F383
:10540000C8010E94DB28C817D90758F78EEF9FEF15
:10541000EFCF0F931F93CF93DF93EC0184E880933A
:10542000BC000E94C3288C018091BC0087FF08C08B
:105430008091BB0090E0DF91CF911F910F91089573
:10544000CF3FDC0789F3C8010E94DB28C817D907C2
:1054500058F78EEF9FEFEFCFB0E0A0E0E2E3FAE283
:105460000C94C532C62F6A017901B8010E944C29FB
:1054700097FD0CC0B8018C2F0E94B829E601EC0CF6
:10548000FD1CCE15DF0511F097FF08C024E920931D
:10549000BC00CDB7DEB7E8E00C94E132B8018991E9
:1054A0000E94B829EECFB0E0A0E0E9E5FAE20C9462
:1054B000C532F82EE62EEA016901B8010E944C2996
:1054C00097FD15C0B8018E2D0E94B82997FD0FC019
:1054D000B8018F2D81600E944C29F12CE12C21E034
:1054E000C21AD108EC14FD04E0F497FF0DC024E9C2
:1054F0002093BC001816190614F490E080E0CDB794
:10550000DEB7E8E00C94E132C8010E94E62997FD7D
:1055100004C0FE01EE0DFF1D80832FEFE21AF20A98
:10552000E1CF97FDE4CFC8010E94092A97FDDFCFA4
:10553000CC0DDD1D8883DBCF8093BA0085EC809392
:10554000BC0008951F920F920FB60F9211242F9353
:105550003F934F935F936F937F938F939F93AF93FB
:10556000BF93CF93DF93EF93FF938091B900887F30
:105570008038F9F038F4882309F48EC08036A1F021
:1055800081E035C0883A11F0883BD1F7E0910B03F8
:10559000F0E0E159FB4F80818093BB0080910B03C9
:1055A0008F5F80930B03ECCF10920A0310920C03D1
:1055B000E7CF80910A03811139C08091BB008093AD
:1055C0000B0380910B038E3178F110920B0380E076
:1055D00091E090930A0340910B03209104013091D4
:1055E00005014217130609F090E090930C03909187
:1055F000BC008295880F880F807C892B85688093FA
:10560000BC00FF91EF91DF91CF91BF91AF919F913E
:105610008F917F916F915F914F913F912F910F905B
:105620000FBE0F901F90189581E0D2CFE0910B0331
:10563000F0E08091BB00E159FB4F808380910B0328
:105640008F5F80930B0380910C03882309F498CF1C
:10565000C091C601D091C701A88188E0A802D001FD
:105660001124AD5FBE4F1696ED91FC9117973097C0
:1056700009F486CF14962D913C9115972C0F3D1F60
:1056800011966D917C9112976C0F7D1F13964C9122
:1056900013978C91099574CF1092BC0071CF8091B3
:1056A0002D0308959B01BA01909191049430E9F47F
:1056B0008F708093E9009FEF8091E800915085FD05
:1056C00006C085ED8A95F1F700009111F5CF809124
:1056D000E80085FF0AC050E040E0C9010E949E2D0D
:1056E0008091E8008E778093E800089543E050E0D1
:1056F000BC0184E00E94522B089546E050E0BC01BA
:1057000084E00E94522B0895CF93DF93EC018091A7
:105710004401811111C048E050E0BE0181E00E94C7
:10572000522B80E2FE01ADE0B3E001900D928A952C
:10573000E1F7DF91CF9108958091330387FF05C092
:1057400040E284E050E0BE01EACF48E081E0FACFD9
:10575000603231F440E250E0BC0182E00E94522B02
:10576000089580919004811109C00E947D2F0E94AC
:10577000DA2F8091E20084608093E2000895109215
:10578000900408950E943428089560918D0481E06A
:10579000611101C080E00E942B280895909191042E
:1057A00081E0943009F080E060918D040E943128FE
:1057B000089542E061EC81E00E94F92E42E261EC42
:1057C00084E00E94F92E42E261EC82E00E94F92E10
:1057D00042E260EC83E00E94F92E9091910481E016
:1057E000943009F080E060918D040E942128089592
:1057F00080919304833009F463C030F48130E1F187
:10580000823009F4A0C008958A3009F48CC08B302E
:1058100009F471C0893009F052C08091920481323C
:1058200009F04DC08091960490919704009719F06B
:10583000029709F044C08091E800877F8093E800D8
:105840008091E80082FF37C09091F3008091F200D0
:10585000029731F48091F100813011F0863021F40B
:105860008091F10080932D038091E8008B778093E5
:10587000E8000E942D2F23C080919204813AF9F410
:105880008091E800877F8093E80080919604909152
:105890009704892B61F460E28DE093E070E00E9450
:1058A0003C2E8091E8008B778093E800089560E0BB
:1058B00090E080E0F3CF809191048111C1CF0895F1
:1058C00080919204813AD9F780919604909197043F
:1058D000892BA9F78091E800877F8093E800809169
:1058E000E80080FFFCCF809144018093F10080911B
:1058F000E8008E77BCCF80919204813201F78091CD
:10590000960490919704892BD1F68091E800877FC7
:105910008093E8000E942D2F80919404809344018D
:105920000E94C608089580919204813241F68091C8
:10593000E800877F8093E8000E942D2F80919504D6
:1059400080932E03089580919204813A09F0B7CF95
:105950008091E800877F8093E8008091E80080FFD5
:10596000FCCF80912E03C1CF84B7877F84BF0FB651
:10597000F894A895809160008861809360001092EF
:1059800060000FBE80E890E00FB6F894809361004D
:10599000909361000FBE0E943A2808950E947D2FC7
:1059A0000E94DA2FE2EEF0E08081846080837894B8
:1059B0000E94593208958CE391E00E94A026089538
:1059C00080919104853031F480919104853019F0F3
:1059D0000E94B52808950E948A2880918F04882308
:1059E00099F30E944728882379F30E94882D0E940A
:1059F000C608EACFA0E2B0E0E0E0FDE20C94CB32D2
:105A000080919104843009F583E08093E9008091CE
:105A1000E80082FF1AC08091E80090E085FF09C08D
:105A200050E040E060E270E0CE0101960E94ED2D72
:105A300091E08091E8008B778093E800992329F02A
:105A400060E2CE0101960E943A20A096E2E00C941A
:105A5000E7329A0140919804509199040E94312DA7
:105A60000895492F55274330510521F168F44130FD
:105A7000510509F443C04230510509F444C090E097
:105A800080E050E040E026C04132510551F1423201
:105A90005105A9F76330710590F7FB01EE0FFF1F69
:105AA000E353FE4F4081518166537E4FFB0180815D
:105AB00090E010C099278130910581F0009729F07E
:105AC0000297E9F6ECEBF5E002C0EEEDF5E084912B
:105AD00090E0AF01F901518340830895E2EDF5E0D4
