:100000000C9481030C94B9030C94B9030C94B903B8
:100010000C94B9030C94B9030C94B9030C94B90370
:100020000C94B9030C94B9030C94B9030C94E52611
:100030000C9496270C9477210C94B9030C94B90373
:100040000C94B9030C94B9030C94B9030C94FD21DE
:100050000C94B9030C94B9030C94B9030C94B90330
:100060000C94B9030C94B9030C94B9030C94B90320
:100070000C94B90329001F0021002300250027004C
:100080002E002A001E0020002200240026002D0041
:1000900000004C002B00140008001700180012008C
:1000A0002F00310000001A0015001C000C00130086
:1000B000300049003900040007000A000D000F005D
:1000C000340028000000160009000B000E00330069
:1000D00000004B00E1001D00060005001000370085
:1000E000E500520000001B00190011003600380026
:1000F00000004E00E000E30000002C0000000000C3
:10010000000051000000E20000000000E700015183
:1001100050004F0035003B003D003F0041004300D0
:10012000450001003A003C003E004000420044000F
:100130000000005C0100010001000100010001005D
:1001400001000100000001000100010001000100A8
:100150000100010001000100010001000100010097
:100160000100010000000100010001000100010088
:100170000000010001000100010001000100010078
:100180000100010000000100010001000100010068
:10019000000001000100010000000100000000005B
:1001A000000001000000010000000000010001004B
:1001B0000100010001000100010001000100010037
:1001C0000100010001000100010001000100010027
:1001D0000000010001000100010001000100010018
:1001E0000100010000000100010001000100010008
:1001F00001000100010001000100010001000100F7
:1002000001000100000001000100010001000100E7
:1002100000000100010001000100010001000100D7
:1002200001000100000001000100010001000100C7
:1002300000000100010001000000010000000000BA
:1002400000000100000001000000000001000100AA
:100250000100010001000100010001000100010096
:100260000100010001000100010001000100010086
:100270000000010001000100010001000100010077
:100280000100010000000100010001000100010067
:100290000100010001000100010001000100010056
:1002A0000100010000000100010001000100010047
:1002B0000000010001000100010001000100010037
:1002C0000100010000000100010001000100010027
:1002D000000001000100010000000100000000001A
:1002E000000001000000010000000000010001000A
:1002F0000100010000000000000000002A2B28007F
:1003000000000000000000000000000000000029C4
:10031000000000002C1E3420212224342627252E04
:10032000362D3738271E1F2021222324252633333C
:10033000362E37381F0405060708090A0B0C0D0E68
:100340000F101112131415161718191A1B1C1D2F34
:100350003130232D350405060708090A0B0C0D0E54
:100360000F101112131415161718191A1B1C1D2F14
:100370003130354C0000000000000000000000009B
:10038000000000000000000000000000000000006D
:1003900000000000000000007E0F00D4FFFFFFC738
:1003A000000000781E0F0500047F3F1F64321464B4
:1003B0003214783C1E1E140A052223252628292AD9
:1003C0002C2D2F3032333536383A3B3D3E404243B8
:1003D0004547494A4C4E5051535557595A5C5E60F7
:1003E00062646668696B6D6F71737577797B7D7F09
:1003F00081838587898A8C8E90929496989A9C9E08
:100400009FA1A3A5A7A8AAACAEAFB1B3B4B6B8B923
:10041000BBBCBEBFC1C2C3C5C6C7C9CACBCCCDCE8B
:10042000D0D1D2D2D3D4D5D6D7D7D8D9D9DADADB6E
:10043000DBDBDCDCDCDCDCDDDDDDDDDCDCDCDCDCFA
:10044000DBDBDBDADAD9D9D8D7D7D6D5D4D3D2D239
:10045000D1D0CECDCCCBCAC9C7C6C5C3C2C1BFBE21
:10046000BCBBB9B8B6B4B3B1AFAEACAAA8A7A5A38C
:10047000A19F9E9C9A98969492908E8C8A8987854B
:1004800083817F7D7B79777573716F6D6B6968662A
:100490006462605E5C5A5957555351504E4C4A49FC
:1004A00047454342403E3D3B3A3836353332302FA4
:1004B0002D2C2A292826252322FFAA7F554000011A
:1004C0000101010101010101020202020202020214
:1004D00002030303030303030304040404040404E6
:1004E00005050505050606060606070707070708AA
:1004F000080808090909090A0A0A0B0B0B0C0C0C5D
:100500000D0D0D0E0E0E0F0F0F10101111111212F6
:1005100013131414151516161717181819191A1A73
:100520001B1B1C1D1D1E1E1F2020212222232424D4
:10053000252626272829292A2B2C2D2D2E2F303110
:100540003232333435363738393A3B3C3D3E3F4022
:100550004142434445464748494A4C4D4E4F50510D
:100560005354555658595A5B5D5E5F6162646566C7
:1005700068696B6C6D6F7072737577787A7B7D7E4E
:100580008082838587888A8C8E8F91939596989A9E
:100590009C9EA0A2A3A5A7A9ABADAFB1B3B5B7BAB6
:1005A000BCBEC0C2C4C6C9CBCDCFD1D4D6D8DBDD8A
:1005B000DFE2E4E7E9EBEEF0F3F5F8FAFDFF2C03F8
:1005C00052006100740069006F00360035002000A1
:1005D00052006500760020004100200048006F00B6
:1005E0007400530077006100700000000E033400B7
:1005F000700070006C0065007400000004030904C2
:1006000009025B00030100A0FA09040000010301D4
:1006100001000921110100012240000705810308A2
:10062000000109040100020300000009211101007A
:100630000122220007058203200001070503032091
:10064000000109040200010300000009211101005A
:10065000012232000705840320000112010002007C
:10066000000008464401000100010200010660FF8D
:100670000961A1010962150026FF00952075088116
:10068000020963150026FF00952075089102C00538
:10069000010980A101850319012AB700150126B7B8
:1006A00000950175108100C0050C0901A1018504A8
:1006B00019012AA002150126A002950175108100DA
:1006C000C005010906A101050719E029E715002564
:1006D00001950875018102950175088101050719C9
:1006E0000029FF150026FF00950675088100050802
:1006F000190129059505750191029501750391016F
:10070000C00011241FBECFEFD4E0DEBFCDBF04B6C2
:1007100003FE18C080913D0390913E03A0913F03DA
:10072000B09140038730904BA740B04B59F41092E2
:100730003D0310923E0310923F0310924003E0E00D
:10074000F8E3099511E0A0E0B1E0ECEEF5E502C0B8
:1007500005900D92A63DB107D9F723E0A6EDB1E0D3
:1007600001C01D92AD33B207E1F70E94D2120C9482
:10077000CB2A0C94000081E0089581E008950C9448
:10078000BD0308950C94C1031F93CF93DF9300D052
:1007900000D00F92CDB7DEB749835A836B83309177
:1007A000D90189819A8131111DC06623B9F02223B4
:1007B000A9F00E94C809182F682F89819A810E9488
:1007C000690969817A81812F0F900F900F900F90A6
:1007D0000F90DF91CF911F910C94ED1E0E949E0906
:1007E000182FEFCF0E94C80969817A81EDCFFC01F3
:1007F000262F408151816281738184810C94C403CE
:1008000081E00895CF93DF93EC0160E00E94F7034D
:10081000BE01DF91CF910C94C203E1E0F0E0DF0173
:1008200002C0AA0FBB1F6A95E2F7BD01DF0102C03B
:10083000AA0FBB1F4A95E2F76A2B01C0EE0F2A955B
:10084000EAF7962F9823961302C08E2B0895E09511
:100850008E230895242F462F682F8091F8010E943F
:100860000D040C9426090C9480110C9483110895A6
:100870000E94C2080E9437042FEF84E39CE02150BD
:1008800080409040E1F700C000000C9421220F93BB
:100890001F93CF93DF938C0161E00E94F703EC017B
:1008A000B8010E94921B882309F441C0B801CE010F
:1008B0000E94BF038823D9F1B801CE010E944E20C7
:1008C0008823A9F1B801CE010E94E31C882379F1A5
:1008D000B801CE010E94B81F882349F1B801CE01AA
:1008E0000E94381A882319F1F8018281882361F067
:1008F000CA35FDE5DF0721F170F4C115ECE5DE072F
:10090000A1F0CE3DDC45C9F0C801DF91CF911F9128
:100910000F910C94BB03CB358DE5D807A1F0CC35F6
:10092000DD4591F70E94F20DEFCF0E94380480E080
:10093000DF91CF911F910F9108950E94AB0EF7CFD9
:100940000E94FB0DE1CF0E94FE0DDECF0E945C21D4
:100950000C9489050E948C050C946021DF92EF9223
:10096000FF920F931F93CF93DF93E82FF0E0EC50AB
:10097000FD4FD490282F26952695269530E0F90135
:10098000EC56FC4F0491877010E0082E02C01595BC
:1009900007950A94E2F701701127F901EC57FC4F13
:1009A000E490F12C082E02C0F594E7940A94E2F743
:1009B00091E0E922FF24F901EC58FC4FC491D0E00A
:1009C00002C0D595C7958A95E2F7C170DD2701155C
:1009D000110519F081EE0E94DE05E114F10419F011
:1009E00086EE0E94DE058D2D0E946306EF2819F029
:1009F00086EE0E942406012B19F081EE0E94240647
:100A0000CD2B51F08CE2DF91CF911F910F91FF9090
:100A1000EF90DF900C946306DF91CF911F910F91BF
:100A2000FF90EF90DF900895EF92FF921F93CF9386
:100A3000DF93EC01162F8881882309F451C081309F
:100A400009F04BC08981813099F47E0122E0E20EE9
:100A5000F11C8A810E946306E7012196812F815053
:100A600050F3EFE9FFE03197F1F700C00000F7CF56
:100A7000823041F47E0182E0E80EF11C8A810E94FE
:100A8000DE05EACF833041F47E01E2E0EE0EF11C98
:100A90008A810E942406E0CF843011F02196DDCFB8
:100AA0002A81229690E080E0FE0131962053330B9C
:100AB0002A30310548F0019780F2EFE9FFE03197E5
:100AC000F1F700C00000F7CF6AE070E00E94512902
:100AD000820F931F2981EF01E7CF0E94AE04BDCFA3
:100AE000DF91CF911F91FF90EF90089560E00C94FB
:100AF000140508950C94790581E008950C947C0503
:100B00000895CF93C82F0E947A058C2FCF910C9413
:100B10007E0580E00C9481050E94AA200C9481053A
:100B20000E94AA209091D801981721F08093D801B3
:100B30000C9481050895CF93DF93CDB7DEB72B9743
:100B40000FB6F894DEBF0FBECDBF4F8358876987BD
:100B50007A878B8761110E94400D1E821D8285E07D
:100B6000FE013796DE01119601900D928A95E1F70C
:100B70008C819D81892B89F449815A816B817C818B
:100B80008D819E810E945D0C2B960FB6F894DEBF7E
:100B90000FBECDBFDF91CF91089589819A818923BE
:100BA0008F3F51F3CE0101960E9400048111E4CFE2
:100BB000EBCFFC01808191810C94F509CF93C82F74
:100BC000882309F43FC08CEF8C0F813AA0F46C2F7E
:100BD00080910601909107010E94FF20882329F04F
:100BE0008C2F0E94020D0E94600D8C2F0E94FB0C26
:100BF000CF910C94600D80E28C0F883048F4C77060
:100C000081E001C0880FCA95EAF70E94230DF0CF5A
:100C1000EBE5EC0FE33040F4F0E0EA5AFE4F808160
:100C200090E0CF910C94C120C85AC73158F4EC2FF2
:100C3000F0E0EE0FFF1FE85DFE4F80819181CF91C4
:100C40000C94D720CF910895882329F19CEF980F19
:100C5000913A20F40E94020D0C94600D90E2980FDE
:100C6000983050F4877091E001C0990F8A95EAF7A7
:100C7000892F0E94290DF0CF9BE5980F933020F427
:100C800090E080E00C94C120885A873120F490E0F5
:100C900080E00C94D72008951F93CF93DF93182FF3
:100CA000EB010E94DE05209731F4812FDF91CF9177
:100CB0001F910C9424068FE99FE00197F1F700C083
:100CC00000002197F0CF70E060E0893311F460E517
:100CD00070E00C944C06882321F00E94230D0C94A4
:100CE000600D0895882321F00E94290D0C94600D59
:100CF0000895BF92CF92DF92EF92FF920F931F93CE
:100D0000CF93DF936C01D62FC72FFC011281F580A2
:100D1000F2949FE0F9220E94190DE82E8823B9F081
:100D2000E12E1123A1F08C2F807F803421F080E20E
:100D30008D0F8830D0F08091DC0282FD16C082E0F9
:100D40000E94C10D0E94190D91E0E82EE926BC2EEB
:100D5000B2948FE0B822FBE0FB1508F468C0EB2DDD
:100D6000F0E0E353F54D0C94DF29E12CF0CF0C2F8C
:100D70000F70C07F11F00295007F112399F00023BE
:100D800059F080E28D0F883010F0D11107C0802F0C
:100D90000E94230D0E94600D8D2F41C0802F0E9464
:100DA000330DF8CF8D2F0E942406002309F43FC095
:100DB00080E28D0F883010F0D11104C0802F0E9486
:100DC000290D03C0802F0E94390D0E94600D2FC095
:100DD0000C2F0F70C07FC03211F00295007FDD2311
:100DE00081F0D13009F469C0112309F473C0FF20E8
:100DF00009F469C0F601858180FFCECF8F708583AD
:100E000062C08091DC0282FF38C0112359F00023B8
:100E100029F0802F0E94230D0E94600D80E00E9427
:100E2000DE0505C080E00E9424060111C7CFEB2D2E
:100E3000E850FF0B349720F40E94AA200E948105FD
:100E4000EE2009F442C10E94150D80FD3EC1F6015D
:100E500012820E940F0D0E943709C6010E94860867
:100E60000E940F0DDF91CF911F910F91FF90EF9096
:100E7000DF90CF90BF900C944209112389F0F110BC
:100E800006C00E94430D802B0E946B06D0CF21E04C
:100E9000F212F7CF0E94430D802B0E94490DC7CF5D
:100EA000F11006C00E94560D802F0E947206BFCF1F
:100EB00031E0F31609F4BBCFF5CF112331F085E013
:100EC0008F1508F4B4CF802FDFCF94E09F1508F47E
:100ED000AECFEACFFF2041F3D93349F4FFEF27EE3D
:100EE00033E0F15020403040E1F700C000008D2F8A
:100EF0000E9424069CCF8C2F86958695837069F07E
:100F0000813009F094CF8D2F9C2F9370111102C066
:100F100090E080E00E94D7208ACF8D2F9C2F937085
:100F2000111102C090E080E00E94C12080CF8C2F80
:100F3000837079F511117BCF4D2F429546954770FF
:100F4000440F440F8D2F8F70042E01C0880F0A9418
:100F5000EAF72D2F2071D4FF07C02FE030E001C049
:100F6000220F4A95EAF72095C695C695C370822B45
:100F7000C23049F058F4C13019F00E94180957CF17
:100F80000E94130954CF0E941D0951CF0E941109DC
:100F90004ECF8695112311F08C2F8170882309F490
:100FA00046CF4D2F429546954770440F440F8D2FE5
:100FB0008F70042E01C0880F0A94EAF72D2F20713C
:100FC000D4FF07C02FE030E001C0220F4A95EAF7B6
:100FD0002095C695C695C370822BC23049F058F44F
:100FE000C13019F00E945E0922CF0E9459091FCF1B
:100FF0000E9463091CCF0E94260919CFCF701123CC
:1010000029F08C2F0E9437098D2F3ECF8D2F0E9403
:1010100072068C2F0E9442090ACFD23F51F160F430
:10102000D03FB9F0D13F81F0112309F449C0F1104C
:10103000B3CE8C2F8F7121C0D33F11F1D43FA1F7D4
:101040008091DC0282FF26C08C2F8F71112311F357
:1010500014C0112349F084E08F1508F4E8CE8C2FDA
:101060008F710E944E09E3CE95E09F1508F4DFCE04
:10107000F6CF8C2F8F711111CDCF0E943709D7CEAB
:10108000112329F08C2F8F710E942F09D0CE0E943E
:101090002C09CDCE112349F0CF718C2F0E94370936
:1010A00063E08C2F0E94A60DC2CE81E00E94C10D8C
:1010B000E1E0EF1508F0BBCE82E00E94C10DB7CE93
:1010C000F1100ACF8C2F8F71A5CFDF91CF911F9197
:1010D0000F91FF90EF90DF90CF90BF9008950F9306
:1010E0001F93CF93DF93EC01688179818A810E94FD
:1010F000FF098C010E9468090E941009B801CE0105
:10110000DF91CF911F910F910C947906CF93DF93CC
:10111000EC018B819C81892B29F08881998189231D
:101120008F3F59F4DF91CF910895CE010E946F084F
:10113000CE01DF91CF910C940204CE010E944704AE
:101140008111F3CF0E94190D882361F38A818823CE
:1011500049F38091DC0282FDE5CF82E0DF91CF91FF
:101160000C94C10D90E080E00E94C12090E080E0EE
:101170000E94D7200E94400D0C94600D0E94090D22
:101180000C94B2080E94300D0C94BE0892959F708A
:10119000963091F058F4925F9F70923058F4803FEF
:1011A00019F030F4883E30F481E008959A5FF4CF6E
:1011B000843FD1F380E00895883EB0F3813FD1F7BA
:1011C000F3CFFC01808191810E94F5090C94C6083F
:1011D000CF93DF9300D000D00F92CDB7DEB70F9042
:1011E0000F900F900F900F90DF91CF910895CF93B4
:1011F000DF9300D000D000D0CDB7DEB726960FB673
:10120000F894DEBF0FBECDBFDF91CF910895089552
:101210000C9407090E9408098093F9010C94B20804
:1012200008950C940A099091F901892B0C940A09EC
:101230009091F90189230C940A099091F901892769
:101240000C940A090C9407090C9422090E942409A1
:101250008093F8010C94B20880E00C94260991E088
:1012600001C0990F8A95EAF7892F0C94260921E08D
:1012700030E001C0220F8A95EAF78091F801822BB5
:101280000C94260921E030E001C0220F8A95EAF78C
:1012900020958091F80182230C94260921E030E00A
:1012A00001C0220F8A95EAF78091F80182270C94F9
:1012B00026099091F801892B0C9426099091F80148
:1012C00089230C9426099091F80189270C9426090A
:1012D0000895CF93DF93262F990F990F990F890FB8
:1012E000982F9770E1E001C0EE0F9A95EAF7869586
:1012F0008695869590E063E070E00E945129DC01BC
:10130000A652BE4F50E040E0622F70E08D91ED019B
:1013100021979B01042E02C0369527950A94E2F787
:101320002170219528272E23282728834F5F5F4F80
:101330004330510559F7DF91CF910895990F990FD7
:10134000990F890FA82FA77086958695869590E0AE
:1013500063E070E00E945129FC01E652FE4F50E02C
:1013600040E080E0219130E00A2E02C036952795BA
:101370000A94E2F721703327042E01C0220F0A9449
:10138000EAF7822B4F5F5F4F4330510559F70895BD
:10139000CF92DF92FF920F931F93CF93DF936C0155
:1013A0000091F8018091F901082BC7E0D0E010E02E
:1013B000FC2EC8010C2E02C0959587950A94E2F781
:1013C00080FD0CC02197A0F7F12C8F2DDF91CF91DC
:1013D0001F910F91FF90DF90CF900895B6018C2F51
:1013E0000E946D10019771F3F0CFCF93DF93EC0162
:1013F0000E94C809BE01DF91CF910C946D101F931C
:10140000CF93DF93EB019091D901992331F0CB0178
:10141000DF91CF911F910C94F509882379F0CB01CE
:101420000E94C809182F682FCE010E946909BE01C9
:10143000812FDF91CF911F910C946D10CB010E94F1
:101440009E09182FF4CFCF93DF93C091FA018091BA
:10145000FB018C1303C0DF91CF910895D0E0CE0142
:1014600066E070E00E945129FC01E450FE4F40818B
:10147000518162817381848195810E94F708219650
:10148000C770E5CF40912C0250912D0260912E0241
:1014900070912F0280913002909131020C94F708E4
:1014A000FF920F931F93CF93DF9380913102807F40
:1014B000C1F480912E028823A1F02091FA010091BD
:1014C000FB0140912C0210912D02A0912F02B091AE
:1014D0003002F42EF122C0910401D09105010213D3
:1014E00006C0DF91CF911F910F91FF90089530E0DA
:1014F000109719F08FEFF81204C02F5F3F4F27703D
:10150000EECFC90166E070E00E945129FC01E45071
:10151000FE4F81818113F1CF80818413EECF8281D0
:101520008111EBCF838194818A1B9B0B8C179D07C4
:1015300020F7809131028F70806180933102C90160
:1015400066E070E00E945129FC01EF5FFD4F908141
:101550009F70906190838CE292E00E948608DF91F8
:10156000CF911F910F91FF900C94230AAF92BF92DD
:10157000CF92DF92EF92FF920F931F93CF93DF935F
:10158000CDB7DEB761970FB6F894DEBF0FBECDBF03
:101590008C0185E0F801DE011D9601900D928A957F
:1015A000E1F7F801E2808CE2C82E82E0D82E60914B
:1015B0002F02709130026115710509F462C190919A
:1015C0002C0230912D02892F83238F3F09F459C1BA
:1015D00040812181A380B480F0902E02F501E61BAA
:1015E000F70BBF01E0910401F0910501FF2009F420
:1015F000F8C080913102582F507F6E177F0708F096
:10160000B0C051117AC0FE2C321323C0941321C0F4
:10161000E1101FC08F708061809331020E94420AE6
:10162000C6010E94860880913102F80185838F2DC2
:1016300061960FB6F894DEBF0FBECDBFDF91CF919C
:101640001F910F91FF90EF90DF90CF90BF90AF90E0
:101650000895AB2829F0842F82238F3F09F02AC1F7
:1016600080E0F82FF170DF2EE091FA013091FB015C
:1016700080FD20C0EE20D9F28091310281608093FC
:101680003102F12CD4CFF0E0CF0166E070E00E948F
:101690005129DC01A450BE4F11968C9111978213F1
:1016A00007C08C91841304C012968C918E11E2CFE6
:1016B0003196E770E313E7CF4D872E878D859E85A2
:1016C0000E94F509292F22952F70223050F02430E6
:1016D00078F49F7051F0F8019581907F31F4D12C0E
:1016E0000AC09F7011F08823D1F3805E8830B8F370
:1016F000C8010E948608FD2C9ACF321306C09413AD
:1017000004C0F801EE2009F488C0C8010E94E10875
:10171000882319F1EE2009F180913102803270F0B6
:1017200020912C0230912D0238872F831986BB8699
:10173000AA868C87CE0107960E94860886E0F8016B
:10174000ACE2B2E001900D928A95E1F70E94500A56
:101750000E94420AFF24F3946ACFC8010E948608BF
:10176000F9CF511114C07A2DB98AA88A522F6E2D43
:1017700089890E94E8088CE292E00E94860886E04F
:10178000F60111928A95E9F70E94420A7ACF321344
:101790000FC094130DC0E1100BC0F8018583C80180
:1017A0000E94860886E0F60111928A95E9F73FCFFC
:1017B000C8010E94E108882381F2EE2071F2809135
:1017C0003102803208F4BACF20912C0230912D02E0
:1017D0003A8329831B82BD82AC828E83CE0101961F
:1017E000ABCF6E177F0708F03EC0FE2CEE2009F449
:1017F000B4CF32132AC0941328C08091310280FDE7
:101800001BC0982F907FC1F0F8018583903F31F085
:10181000982F907F905F8F70892B8583C8010E94DD
:10182000860886E0F801ACE2B2E001900D928A955C
:10183000E1F70E94420AFBCE86E0F801ACE2B2E09A
:1018400001900D928A95E1F7F2CEC8010E94E1085D
:10185000811174CF80913102816080933102C8017F
:101860000E948608E4CE7A2DB98AA88A522F6E2D5E
:1018700089890E94E80886E0F60111928A95E9F7C5
:10188000D8CFEE2009F469CFC8010E94E108F82EF4
:10189000882309F462CF86E0F801ACE2B2E001905F
:1018A0000D928A95E1F78CE292E00E94D9050E94A0
:1018B000500ABFCF81E08E25D4CECF93DF93CDB732
:1018C000DEB72C970FB6F894DEBF0FBECDBF4F83A7
:1018D000588769877A878B879C87CE0107960E94F5
:1018E000B60A8823D1F08A859B85892B39F04F81F0
:1018F0005885842F85238F3F09F076C08091FA01A7
:101900009091FB01891349C02C960FB6F894DEBF65
:101910000FBECDBFDF91CF91089586E0FE013796CF
:10192000DE01119601900D928A95E1F78A859B85DB
:10193000892B21F388859F8189238F3FF9F280913C
:10194000FB0190E09C012F5F3F4F277033274091B0
:10195000FA014217130671F40E94C2081092FB01AB
:101960001092FA0186E0ECE2F2E0DF011D928A9526
:10197000E9F7C4CF66E070E00E945129DC01A45071
:10198000BE4F96E0FE01319601900D929A95E1F7D7
:101990002093FB010E94230AB1CF90E066E070E043
:1019A0000E94512984509E4F0E94B60A882309F450
:1019B000ABCF8091FA0190E066E070E00E9451297F
:1019C000FC01E450FE4F408151816281738184812A
:1019D00095810E94F7088091FA0190E00196877046
:1019E00099278093FA018ACF69857A858B859C85B2
:1019F0000E94F70883CF682F80910601909107011C
:101A00000C943521682F80910601909107010C9468
:101A1000372180910601909107010C943921809122
:101A20003A02859585958595089580913A0287704B
:101A3000089590913A02977081E009F480E008954A
:101A400080914502089590914502892B809345022B
:101A500008958095909145029823909345020895AA
:101A600010924502089590914402892B809344027C
:101A7000089580959091440298239093440208958C
:101A800010924402089580913B02089508950C94A9
:101A9000460D9091DC0292FD08C090913B02981790
:101AA00021F080933B020C94470D089580913B02F6
:101AB000882329F010923B0280E00C94470D089592
:101AC000CF93DF93E0910601F091070180914502E9
:101AD0008083E0910601F09107018081909144029A
:101AE000892B808390913B02992381F0E09106013C
:101AF000F09107018081892B80838091060190916C
:101B000007010E94ED2081110E94560DC09106012F
:101B1000D091070148E050E062E372E0CE010E94FC
:101B2000572A892B69F088E0FE01A2E3B2E0019018
:101B30000D928A95E1F7CE01DF91CF910C94B620FA
:101B4000DF91CF91089508950C94A30D9091DC023C
:101B500092FD10C0982F990F990F990F962B909383
:101B60003A020E94370980913A02859585958595BC
:101B70000C94A40D0C94370910923A0280E00C9456
:101B8000A40D90913A028095892380933A02282FE0
:101B9000277091F4282F082E000C330B9217130690
:101BA00059F09091DC0292FD07C085958595859549
:101BB0000E9442090C94BC0D08959091DC0292FBA6
:101BC000222720F9281769F080FB92F99093DC0214
:101BD0008091DB029091DC020E94280E82E00C943E
:101BE000C10D08958091DC0282FB882780F991E085
:101BF00089270C94DD0D81E00C94DD0D80E00C94C0
:101C0000DD0D6FEF7FEF90E080E00C94962A90E07E
:101C100080E00E94722A893E9E4F11F40C942F1B83
:101C200080E0089582E090E00C94642A83E090E0E4
:101C30000C94642ACF9384E090E00E94642AC82F19
:101C400082E290E00E94642A982F8C2FCF91089511
:101C5000CF93C92F682F84E090E00E94782A6C2FE0
:101C600082E290E0CF910C94782AAB01BC018FE026
:101C700090E00C948A2AAB01BC0183E190E00C94C3
:101C80008A2A60E070E0CB010C943B0E60E070E0CB
:101C9000CB010E94350E0C94410E69EE7EEF90E070
:101CA00080E00E94962A60E082E090E00E94782A1C
:101CB00060E083E090E00E94782A1092F90160E0F1
:101CC00084E090E00E94782A60E082E290E00E9446
:101CD000782A60E085E090E00E94782A60E086E063
:101CE00090E00E94782A6FEF87E090E00E94782AC7
:101CF00040E050E0BA0188E090E00E948A2A60E06B
:101D00008DE090E00E94782A40E050E0BA0188E13E
:101D100090E00E948A2A60E087E190E00E94782AA1
:101D200040E050E0BA018CE190E00E948A2A70E025
:101D300060E080E290E00E94962A40E050E0BA0124
:101D400088E190E00E948A2A80E00E94481B0E945D
:101D5000761B0C94460E0C944D0E682F8EE090E08E
:101D60000C94782A0E94E2216093540270935502E9
:101D700080935602909357026093500270935102E1
:101D800080935202909353020895089508950C94FD
:101D9000C60E08950C94C90E8BE491E10E94A02018
:101DA0000E94C50E0C94C70E81E008950C94D40EC9
:101DB000089508950E94D80E0C94D90E0E946511C2
:101DC0000C9480050E94CD210E94851B0E942F1239
:101DD0000E94DE0E0E943F190C94CA0E8F929F92B1
:101DE000AF92BF92CF92DF92EF92FF920F931F9329
:101DF000CF93DF93CDB7DEB72A970FB6F894DEBF47
:101E00000FBECDBF0E944412982E81110E94B20EC7
:101E100086E4A82E82E0B82E10E000E0802E802F0D
:101E20000E948511E82EF501C1905F01C81609F4E2
:101E300045C08091580281FD0E948B11D12CFF2456
:101E4000F394CE248C2D8F21A1F10E94D60E8823ED
:101E500099F0DE828F82EF2081E009F480E08887AC
:101E60000E94D6218160782F9A8789874E815F8171
:101E700068858A850E949B05F801EA5BFD4F808199
:101E8000F826F08281E0911001C080E02A960FB61A
:101E9000F894DEBF0FBECDBFDF91CF911F910F91A0
:101EA000FF90EF90DF90CF90BF90AF909F908F907A
:101EB0000895D394FF0CF8E0DF12C4CF0F5F1F4FDB
:101EC0000A30110509F0AACF8FEF89838A831B821C
:101ED0000E94D6218160782F9D838C8349815A810D
:101EE0006B818D810E949B05CDCF0E94EE0E0E94DA
:101EF0007A190C949005CF93DF930E947110EC0136
:101F0000811522E59207E8F5811531E5930708F080
:101F1000B1C0883E910510F5803E910570F5883A74
:101F2000910570F4853A910508F07BC081309105E8
:101F300021F1009711F1049700F5D0E0C0E01DC039
:101F40008F3B9105D0F7C85AD0E0CC0FDD1FC75AA0
:101F5000DE4F0990D881C02DD4640FC0811540E5B3
:101F6000940708F069C0C11580E4D80708F061C083
:101F7000CE019A9581159F4100F7CE01DF91CF9157
:101F80000895811536E5930730F5811545E59407E9
:101F900008F08BC0C11584E5D80708F081C09C2FDC
:101FA000969596959E0123703327C115D34508F465
:101FB00066C0C1E0D0E002C0CC0FDD1F2A95E2F779
:101FC000892F90E075E0880F991F7A95E1F7C82B6B
:101FD000D92BDA68D2CFC1158AE5D80778F4C115B4
:101FE00029E5D20708F06BC0C11538E5D30708F41E
:101FF000A4CFDC2FCC27C06FD06ABFCFCE019056C4
:102000008115904208F099CF8D2F8F710E94081191
:1020100090E0982F882788279F719C012C2BE9013D
:102020004CC0C55AD0E0C957DE4FC881D0E0D0645B
:10203000A4CFDF70D06AA1CFA4E096958795AA952A
:10204000E1F783702C2F26952695237030E0B5E0BC
:10205000220F331FBA95E1F7382B8C2F8370C1E024
:10206000D0E002C0CC0FDD1F8A95E2F7C22BD32B44
:10207000DC6883CFD82FCC27C16FD06A7ECFC1E078
:10208000D0E002C0CC0FDD1F2A95E2F7892F90E047
:10209000E5E0880F991FEA95E1F7C82BD92BE8CF27
:1020A000DC2FCC27C46FD06A68CF0E940811C82FDC
:1020B000D0E0DC2FCC27CC27DF71D0625ECF8C2F15
:1020C0008F700E94081134E0D695C7953A95E1F7D4
:1020D000CF709C2FEC01D06950CF0E94ED1E0C9464
:1020E0007B0F82389105B1F1B0F48133910509F489
:1020F00075C048F48932910509F469C08A329105A6
:1021000009F473C008958533910509F459C08933E2
:10211000910501F10895833E9105A9F138F4803EBF
:102120009105F9F0823E910549F10895863E9105A9
:10213000A9F1873E9105C9F1843E910519F52091D9
:10214000DC0221FF1FC08091DB0284FD14C087EEFA
:1021500090E008952091DB022370A1F080EE90E0E2
:1021600008952091DB0220FD47C03091DC0230FF52
:1021700009C024FF44C090E080E004C02091DB024D
:1021800022FDF7CF08952091DB0222FD3BC0309164
:10219000DC0230FDE3CF24FFF5CFEDCF2091DB0251
:1021A00023FFF0CF24FDE7CFD2CF2091DB0223FD28
:1021B0002CC03091DC0231FFEECF84EE90E0089528
:1021C0002091DB0225FFDECF89E290E00895209187
:1021D000DB0225FFD7CF85E390E008952091DB0255
:1021E00026FFD0CF8AE290E008952091DB0226FFFF
:1021F000C9CF81E390E0089589E390E0089583EEEC
:1022000090E0089582EE90E0089586EE90E00895C3
:102210009091DB0292FF06C0282F28712830F9F434
:10222000877F846093FF06C0282F28712831F1F43E
:10223000877E84612091DC0220FF06C0382F387130
:102240003830D9F4877F816021FF06C0282F28719C
:102250002831D1F4877E816194FD877E0895282FEF
:1022600024712430F9F68B7F8860DCCF282F24710D
:10227000243101F78B7E8861DDCF382F3171313009
:1022800019F78E7F8860E0CF282F2171213121F747
:102290008E7E8861E1CF80E008950C94010E0E944B
:1022A00044128FE39CE90197F1F700C000000E94FF
:1022B000441280E00E94851180FF04C00E944D11ED
:1022C0000C94212208950C944F110E94070E811145
:1022D00002C00E94AB0E0E94120E809358020E9410
:1022E0001A0E9093DC028093DB020E9463110E941D
:1022F000160E0E9411098091F8010C94240908958A
:102300000C947F1108950C948211E82FF0E0E951AC
:10231000FD4F80810895089580EA8A95F1F7089528
:1023200000C008950C948C11F894E82FE295EF709A
:10233000F0E031A1282F2F7081E090E001C0880FDC
:102340002A95EAF7982F9095932391A392A1892B30
:1023500082A3789408950F931F93CF93DF93C2E9DC
:10236000D1E089918F3F11F00E94941181E0CC3926
:10237000D807B9F7CAE8D1E002E911E089918F3FA7
:1023800011F00E9494110C171D07C1F7DF91CF9136
:102390001F910F910895CF92DF92EF92FF920F93CA
:1023A0001F93CF93DF93EC01D62E062F10E0C801C8
:1023B0008E569E4F7C01FC0180818F3F09F444C002
:1023C000F894E82FE295EF70F0E091A18F7021E092
:1023D00030E001C0220F8A95EAF7892F822B81A372
:1023E00082A12095282322A378940E949011EAE8E4
:1023F000F1E031E0C12C21912F3F79F1A22FA2957C
:10240000AF70B0E090968C9190E02F7002C09595DF
:1024100087952A95E2F780FD20C0832FC82A330FC5
:1024200081E0E239F80739F7F70180818F3F11F039
:102430000E94941161E0C11001C060E08D2D0E94E6
:102440009211C00FD11FC882DF91CF911F910F91C0
:10245000FF90EF90DF90CF90089580E0DFCF0E9453
:10246000AB118AE0E7EEF2E0DF01982F1D929A951A
:10247000E9F7EDEDF2E0DF011D928A95E9F78AE0D8
:102480000E948F120C943304FF920F931F93CF93EB
:10249000DF93CDB7DEB72A970FB6F894DEBF0FBE35
:1024A000CDBF8E010F5F1F4F8AE0F80111928A9510
:1024B000E9F7F12C6F2DC8010E94CB11F394FAE0DB
:1024C000FF12F8CF4AE050E0B8018DED92E00E9493
:1024D000572AFF24F394009709F4F12C892B41F03B
:1024E0008AE0F801ADEDB2E001900D928A95E1F736
:1024F0002F2D4AE067EE72E08DED92E00E9490127F
:102500000E9435048F2D2A960FB6F894DEBF0FBEB9
:10251000CDBFDF91CF911F910F91FF900895089546
:10252000FF920F931F93CF93DF93F82E092F162F4F
:10253000D72FC42F222349F081E080935B020E94B1
:10254000D62190935A028093590280915B0288238E
:10255000A1F08091590290915A020E94EE210597B4
:1025600060F0EF2DF02FA12FBD2FCE0FDF2FD11D4B
:10257000EC17FD0741F410925B02DF91CF911F91A0
:102580000F91FF90089581918D93F2CF0E94D623F1
:102590000E94E20E0C94E2230E94E6230E94750F33
:1025A0000C9400240E9476210E94BD230E94CC0E30
:1025B0000E94C6120E94CC120E94DA0EFBCFEF924C
:1025C000FF920F931F93CF93DF93982F711111C038
:1025D000442329F0E82FF0E0E254FB4F9491692F57
:1025E000792F892FDF91CF911F910F91FF90EF905D
:1025F0000895262F30E0C72FD0E0E82FF0E04423E5
:1026000021F0E254FB4FE491F0E0C90166E070E094
:102610000E9451290FEF10E0B8010E949529DB01BB
:10262000220F331FCB0165E570E00E945129281B62
:10263000390BE22EEE0CE20EC8018C1B9D0BBF0184
:102640000E945129292FF12CC701BE010E94512956
:10265000492F50E0C801841B950BBF010E945129EE
:10266000392FC8018E199F09BE010E945129492F97
:1026700050E0C801841B950BBF010E945129892F8E
:102680007E2FA230B10589F038F4109759F01197D8
:1026900081F0922F232F06C0A430B10569F080F09D
:1026A0001697B9F7692F822F9DCF9E2F722F282F53
:1026B000F9CF9E2F732FF6CF922F2E2F782FF2CF98
:1026C000722F2E2F932FEECF41E00C94DF1208953E
:1026D0000C946413CF93DF93762FE901682F842F36
:1026E0000E946813798368838A83DF91CF9108956C
:1026F0008091F102982F9E7F29F4817082608093EF
:10270000F10208958635E8F381708465F8CF88E09A
:1027100090E00C946C2ACF92DF92EF92FF926B01C3
:102720007C010E947813B701A60188E090E0FF9039
:10273000EF90DF90CF900C948A2A6091F102709113
:10274000F2028091F3029091F4020C948B13E1EF6A
:10275000F2E083E0808311828FEF8283838314828F
:1027600060817181828193810C948B138091F1023D
:1027700080FF02C08695089580E008959091F5024B
:10278000933018F49F5F9093F502882351F0609185
:10279000F1027091F2028091F3029091F4020C9494
:1027A0008B13089581E00C94BE139091F502992348
:1027B00019F091509093F502882351F06091F10245
:1027C0007091F2028091F3029091F4020C948B13B9
:1027D000089581E00C94D5138091F50208958093BB
:1027E000F502662351F06091F1027091F20280913E
:1027F000F3029091F4020C948B13089560E00C9412
:10280000EF138091F20208958091F3020895809170
:10281000F402089570E00C94021B30910C01809139
:10282000F10280FF0CC080910B0190E063E070E04A
:102830000E945129632F8A509D4F0C940A142091B5
:102840000D0140910E01822F90E063E070E00E9444
:102850005129FC01EA50FD4F241728F711821082FC
:1028600012822F5F3396F8CFA82FB62F8091F102F6
:1028700080FF17C020910D0130910E01822F90E052
:1028800063E070E00E945129FC01EA50FD4F2317DC
:1028900010F00C940D14A183B08342832F5F339604
:1028A000F6CF0895CF93DF9300D00F92CDB7DEB768
:1028B0009091F10290FF0AC09E012F5F3F4F0E944E
:1028C0006A134B8169818A810E9434140F900F90A2
:1028D0000F90DF91CF910895CF93DF93EC01EC81BE
:1028E000F0E0E754FC4F4491E1EFF2E06281818136
:1028F0000E9452148C818F5F8C83DF91CF91089559
:10290000CF93DF93EC01E1EFF2E0438162818C81B0
:102910000E9452148C818F5F8C83DF91CF91089538
:102920000F931F93CF93DF9300D00F92CDB7DEB7F5
:102930008C0180915C0281110AC09E012F5F3F4F84
:102940004FEF6FEF0E946A138A8180935C02F80157
:102950006481613069F080915C0240E0662361F03F
:1029600040E0623011F440915C0280E060E004C01D
:1029700060915C0240E080E00E943414F8018481A0
:1029800090E0019663E070E00E94A92984830F9093
:102990000F900F90DF91CF911F910F910895AF92FB
:1029A000BF92CF92DF92EF92FF920F931F93CF933C
:1029B000DF9300D00F92CDB7DEB7182FF62E042F7D
:1029C000E22E9091F10290FF29C0E92FE695AE2FFB
:1029D000B0E0A456BE4F8C918093C0029E7F92308F
:1029E00059F59E012F5F3F4F812F0E946A134B8143
:1029F00069818A810E9434141093F202F092F302EA
:102A00000093F402EE2051F06091F1027091F20215
:102A10008091F3029091F4020E948B130F900F901B
:102A20000F90DF91CF911F910F91FF90EF90DF906A
:102A3000CF90BF90AF900895823019F40091F402C6
:102A4000DBCF863019F41091F202D6CF8930D9F35A
:102A5000893191F6E9518E2F8170D82EE695F0E0FC
:102A6000E754FB4FA590B490C12CBB2440910F01BB
:102A7000C41618F00E940D14BFCF2C2D30E0C501F4
:102A8000B9010E945129642F70E00E949529E12F1D
:102A9000D11014C0E60F80910D01820F932F911D6C
:102AA00063E070E00E9451299C012A503D4F402F65
:102AB0006F2D8E2F0E946A13C394D8CFE61BEBCFE5
:102AC000E1EFF2E09181282F4381628188E0890F54
:102AD0000C94CF1481E00C946015E1EFF2E0918149
:102AE000282F4381628188EF890F0C94CF1481E0F5
:102AF0000C946D15E1EFF2E0628128E0620F08F4BA
:102B00006FEF282F438181810C94CF1481E00C94C6
:102B10007A15E1EFF2E0628128E0621B08F460E0E0
:102B2000282F438181810C94CF1481E00C94891566
:102B3000E1EFF2E0438128E0420F08F44FEF282F45
:102B4000628181810C94CF1481E00C949815E1EF9F
:102B5000F2E0438128E0421B08F440E0282F628124
:102B600081810C94CF1481E00C94A71520E00C9483
:102B7000CF14EF92FF921F93CF93DF93EC0110E0FD
:102B8000EE24EA94F12C30910F01131770F00E949B
:102B90000D149A818C8190FF27C08F5F8C83DF9109
:102BA000CF911F91FF90EF90089580910D01810FBB
:102BB0009927991F63E070E00E945129FC01EA50B7
:102BC000FD4F632F70E0C7010E94A929812F0E9449
:102BD00048299C819F014091F4026091F302890F82
:102BE0000E946A131F5FCFCF8150D8CFAF92BF92A0
:102BF000CF92DF92EF92FF920F931F93CF93DF93C9
:102C0000FC018281DFEF80FFD1E0C0E032E1A32E42
:102C100080910F01C817C8F00E940D1480915E02C8
:102C2000D13009F054C0811102C080910F01815050
:102C300080935E02DF91CF911F910F91FF90EF90F3
:102C4000DF90CF90BF90AF90089580910D01CC2E72
:102C5000D12C8C0D9D2D911D63E070E00E945129B7
:102C60008A509D4F7C01FC0111821082128204E087
:102C700010E0B12C80915E028B0D833114F16A2D2E
:102C80000E948729892F082E000C990BC816D90697
:102C900091F48091F40290E0B8010E945129959539
:102CA0008795959587959701482F6091F3028091BC
:102CB000F2020E946A13BD0E01501109D9F6CF5FCE
:102CC000A7CF87FFE0CF90910F01890FDCCF90E075
:102CD000019660910F0170E00E94A929A9CFCF93BE
:102CE00020910D0130910E01822F90E063E070E0A1
:102CF0000E945129FC01EA50FD4F231720F1C0E04A
:102D000060910F01C61728F10E940D14209109014E
:102D100080915D02820F80935D0290910A01920F73
:102D200090930A01191654F4082E000C990B409147
:102D30000F014150550B841795071CF021952093E6
:102D40000901CF9108951182108212822F5F33966C
:102D5000D4CFEC2FF0E070E0CF010E94A929909130
:102D60000D01890F90E020915D02022E000C330BC3
:102D700063E070E00E945129E217F307ACF0209164
:102D80000A01022E000C330B2E173F076CF09C013A
:102D90002A503D4F4091F4026091F3028091F2027B
:102DA0000E946A13CF5FACCFFC01EA50FD4F118245
:102DB00010821282F7CF4F925F926F927F928F9222
:102DC0009F92AF92BF92CF92DF92EF92FF920F93BA
:102DD0001F93CF93DF938C01FC01C481CC2ED12CA7
:102DE000F12CE12CA7019601C701B6010E946229CE
:102DF000A70196010E9462292B013C0130E2C32EFB
:102E0000D12CCC1AD1080D2C000CEE08FF0825E5BA
:102E100030E040E050E00E9462294B015C01A701D4
:102E20009601C701B6010E946229A70196010E947E
:102E300062299B01AC01240D351D461D571DC5019E
:102E4000B4010E94BD29D22F822F90E02A32A0F532
:102E500063E070E00E94512997FD01969595879552
:102E6000C82FC095F12C85E5E82EED1A80910F0151
:102E7000F81648F10E940D14F801948181E099231D
:102E800019F0903219F48FEF8093080180910801B6
:102E9000890FF8018483DF91CF911F910F91FF90EB
:102EA000EF90DF90CF90BF90AF909F908F907F90EA
:102EB0006F905F904F90089525E530E0A901481B81
:102EC000590BCA01C5CFEE2DF1FCED2F80910D01FC
:102ED0008F0D9927991F63E070E00E9451299C0192
:102EE0002A503D4F4C2F6091F3028E2F0E946A139F
:102EF000F394BCCF0F931F93CF93DF938C01D0E05B
:102F0000C0E030910F013C171D0609F074F40E94D7
:102F10000D14F801848190E00196817099278483D3
:102F2000DF91CF911F910F91089580910D018C0F2A
:102F30009D2F911D63E070E00E945129AC014A5021
:102F40005D4FF80194816091F3028091F202369511
:102F50003C171D0651F04CF0992349F09A0140911D
:102F6000F4020E946A132196CCCF9923B9F39A01F7
:102F700040E0F7CF6F927F928F929F92AF92BF9275
:102F8000CF92DF92EF92FF920F931F93CF93DF9335
:102F9000FC017280648081E08483E9EBF3E084903B
:102FA000E8E3F4E0E491912CAA24AA94B12CE81966
:102FB000EE2EF12C80910F01981680F0DF91CF91C9
:102FC0001F910F91FF90EF90DF90CF90BF90AF9047
:102FD0009F908F907F906F900C940D14092D10E0AE
:102FE00082E0871570F0C80165E070E00E94512909
:102FF000FC01E15AFD4F8091F20280838091F3023F
:103000008183C80165E070E00E945129611020C0F1
:10301000FC01E15AFD4F1382128280910D01800F55
:10302000912F911D63E070E00E9451299C012A506C
:103030003D4FC80165E070E00E945129FC01E15A52
:10304000FD4F4281618180810E946A139394B2CFC7
:10305000EC01C15ADD4F8B81882321F181508B8394
:1030600090E06FEF70E00E9451296C8170E00E9447
:103070009529FB01FF27E754FC4FE491E8198E2FB7
:1030800090E06FEF70E00E945129B7010E949529EE
:103090002091F40230E0862F90E0B9010E9451297E
:1030A0009A83BBCF0E943A2A9C018091F4028695B4
:1030B000815890E062E071E00E945129C92ED12C24
:1030C0002C153D050CF0A9CFE2E0E71588F40E942D
:1030D0003A2AB5010E94A92988830E943A2A2091A0
:1030E000F3022695622F70E00E94A929280F2983F8
:1030F000C80165E070E00E945129815A9D4FFC0192
:1031000012822091F402293C60F028ECC80165E0AD
:1031100070E00E945129FC01E15AFD4F2483238372
:103120007CCF243198F724E1F1CFE1EFF2E0808108
:103130008E7F808360817181828193810E948B1355
:103140001092C1022FEF80E792E021508040904022
:10315000E1F700C000000C940D14E1EFF2E0808173
:103160008E7F80831092C1022FEF80E792E0215082
:1031700080409040E1F700C000000C940D14609175
:10318000F102669570E04BE050E080E191E00E9432
:103190004A2A892B19F481E08093C1020E94D6212A
:1031A0009093BA028093B90208959091F10290FF32
:1031B00035C09170811128C092609093F10266230E
:1031C00051F06091F1027091F2028091F3029091BE
:1031D000F4020E948B136091F102669570E04BE05F
:1031E00050E080E191E00E944A2A892BA1F01092E0
:1031F000C10281E08093BC024091F4026091F3022D
:103200008091F2020C94B6158B3210F09465D5CFF4
:10321000880F982BD2CF0E94BF18EBCF0895682F4C
:103220009091F102969581E0890F8B3208F081E050
:103230000C94D51881E00C940F19682F9091F1022D
:1032400096958FEF890F09F48AE20C94D51881E0E6
:103250000C941D1961E00C94D518E1EFF2E0808127
:103260008160808386950C942A198091F10280FDFB
:103270000C9495180C942D1960E00C94D51880913D
:10328000BF0281112EC00E94070E811104C00E944E
:10329000AB0E0E94A7130E9487136093F1027093F4
:1032A000F2028093F3029093F4026E7F61F40E9425
:1032B000A7130E9487136093F1027093F202809328
:1032C000F3029093F4020E9478131092C10280914D
:1032D000F10280FF03C086950E943C1981E0809333
:1032E000BF020895E1EFF2E08081816080838695DE
:1032F0000C943C190F931F93CF93DF938091C102DD
:10330000882309F496C08091C002E091F102E6950D
:10331000E81BE093BB02823091F5F0E0EB54FC4FE8
:10332000E491CE2FD0E00CE614E18091BC0288231A
:1033300061F01092BC020E94D6219093BA02809351
:10334000B9021092BE021092BD020E94D621E091F5
:10335000B902F091BA028E1B9F0B8F3F9F4708F076
:1033600068C0EC0FFD1FF093BA02E093B90289EB3D
:1033700092E0F801DF91CF911F910F91099486306F
:1033800049F4F0E0EE54FC4FE491CE2FD0E000E899
:1033900014E1CBCF893051F4E695F0E0E155FC4FD4
:1033A000E491CE2FD0E009EB15E1BFCF8F3051F47F
:1033B000E695F0E0E455FC4FE491CE2FD0E006EF27
:1033C00015E1B3CF853149F4F0E0E755FC4FE491C6
:1033D000CE2FD0E00FE616E1A8CFC8E2D0E00BED8B
:1033E00016E1883109F4A1CF833239F4E7EAF3E03A
:1033F000C591D49100E914E198CFC4EFD1E00AE778
:1034000017E1843209F491CFC0EDD7E007E613E16C
:10341000853209F08ACF8E2F63E00E947B29E92F45
:10342000F0E0EC55FC4FE491CE2FD0E00AEB17E131
:103430007CCFDF91CF911F910F910895FA018111F7
:1034400001C0FB010994CF93DF93C82FD62F0E94B0
:10345000B6138C1740F00E94B6138D1720F4DF913D
:10346000CF910C941A198C2FDF91CF910C942A19BB
:103470001F93CF93DF93EC01FB01128111111BC04D
:103480000E94200D8272CC3CFCE5DF0709F4A0C04D
:1034900008F045C0C63CECE5DE0709F485C0F8F449
:1034A000C33C9CE5D90709F475C050F4C23CDC4527
:1034B00009F46DC011E0812FDF91CF911F91089524
:1034C000C43C9CE5D90709F46AC047E755E16AE6C0
:1034D00075E1C53CDC4571F70E941E1AECCFC93C72
:1034E000FCE5DF0709F46AC068F4C73CECE5DE07D9
:1034F00009F45FC046E855E165E975E1C83CDC4583
:1035000059F3D8CFCA3C9CE5D90709F45CC049EE11
:1035100053E162ED73E1CB3CDC45F1F2CBCFC13D31
:10352000FCE5DF0709F463C098F4CE3C9CE5D907BD
:1035300009F457C008F451C0CF3CFCE5DF0709F49B
:1035400053C0C03DDC4509F0B5CF6EE089E01CC03A
:10355000C43D9CE5D90709F450C058F4C23DFCE5D0
:10356000DF0709F447C0C33DDC4509F0A3CF88E17C
:1035700035C0C53D9CE5D90709F442C06AE285E241
:10358000CD35DD4509F096CF0E94231A94CF0E94D5
:10359000351991CF47E259E16AE179E19DCF4AE1DE
:1035A00059E167E279E198CF4AE655E167E775E1CD
:1035B00093CF45E955E166E875E18ECF43EB55E1E0
:1035C00064EA75E189CF44EA55E163EB75E184CFA4
:1035D00042ED53E169EE73E17FCF81E00E942A1949
:1035E0006ACF65E082E0D0CF68E086E0CDCF64E1CD
:1035F0008FE0CACF67E185E1C7CF62E289E1C4CF3E
:1036000083E2ECCF9C01CB01539A4BB1477FEBB1E6
:10361000E860FFB7F89463E070E00E945129820FE0
:10362000931F8217930741F4FFBF8FE594E0019742
:10363000F1F700C000000895D9015D919D0168E097
:10364000EBB9000000C057FF4BB9550F000000C098
:1036500000C000C04BB900C06A9591F7E2CF83E289
:1036600090E00E94642A823289F484E290E00E9411
:10367000642A853059F485E290E00E94642A91E042
:10368000823209F090E0892F8170089580E0FCCFAC
:10369000CF93DF93D82FCFEF8111C2E26C2F83E25B
:1036A00090E00E94782A6FEFD11165E084E290E00B
:1036B0000E94782A6C2F85E290E0DF91CF910C94E4
:1036C000782A089586E290E00E94642A682F70E0CC
:1036D00090E080E008950895CF93C62F0E946B1B61
:1036E0006C2F86E290E0CF910C94782A80E00E94C3
:1036F000481B60E070E0CB010E946C1B0E94651EBD
:103700000E94511F81E00C94481B0E94611B0E9483
:10371000621B0E946B1B0E942F1B811102C00C9424
:10372000761B0895CF93FB01C281CC2309F19C0144
:1037300022513F452031310520F582510E94611F01
:10374000C0E08C2FCF91089581E00E94370943E0BB
:1037500062E081E00E942A04F3CF81E00E944209E6
:1037600043E062E081E00E942A04EBCF82E0F6CFE2
:103770008031FFE59F0789F381319F45B9F3C1E0AF
:10378000E0CF8031EFE59E07F9F281319F45C9F620
:1037900082E0DBCF2FEFFC0120830895CF93DF93EE
:1037A000EC0188818138A9F028F4803871F0DF912C
:1037B000CF910895823881F08338C9F70E940114AF
:1037C00089830E9404148A83F2CF0E94071489839C
:1037D000EECF0E94B613FBCF0E94EC13F8CFCF932D
:1037E000DF93EC0188818138E1F028F4803869F0BA
:1037F000DF91CF910895823811F18338C9F70E9483
:103800000714482F6A81898108C0D9810E94041455
:10381000C82F0E9401144D2F6C2FDF91CF910C9473
:10382000B61589810E943C198981811104C0DF91FC
:10383000CF910C94AD18DF91CF910C9472198981BE
:10384000DF91CF910C94FE13EF92FF920F931F9391
:10385000CF93DF93EC01062FDC01ED91CD01E15018
:10386000E33108F0ADC0F0E0E752F54D0C94DF29EC
:10387000198289E08A83602FCE01DF91CF911F9159
:103880000F91FF90EF900C94A9228981823069F00A
:10389000833071F08130D9F40E94E2210E94E52941
:1038A0006A837B838C839D83E6CF0E94621BF6CF65
:1038B0007E01B2E0EB0EF11C10E0812F0E94851119
:1038C000F70181937F011F5F1A30B9F7D4CF602FC2
:1038D000CE010E94CA1BCFCF89818230C1F76A8195
:1038E0007B818C819D810E94E5290E946C1BC3CF46
:1038F0004B816A8189810E94371E982789279827E2
:103900009D838C83B8CF2C813D813227232732279A
:103910004B816A8189810E94501EADCF0E94651E35
:10392000AACF0E94EF1BA7CF0E94CE1BA4CF0E945C
:103930009D13A1CF0E94FA1E89839DCF0E94FC1E79
:103940009827892798279A83898395CF6B8170E080
:1039500089819A81AE014C5F5F4F9827892798270C
:103960000E94FF1E88CF6B8170E089819A81AE0131
:103970004C5F5F4F9827892798270E94261F7BCF8F
:103980000E94511F78CF0E94201ED6CF6B8170E01D
:1039900089819A81AE014C5F5F4F982789279827CC
:1039A0000E949D1E68CF6B8170E089819A81AE0173
:1039B0004C5F5F4F9827892798270E94C31E5BCFD3
:1039C0008FEF888358CFCF93DF93EC01FB01828187
:1039D000882309F433C1C330FDE5DF07C0F5CA3FD2
:1039E0009CE5D90730F49E0122503C452431310535
:1039F000B0F50E941A0E9093DC028093DB02C13175
:103A00008CE5D80709F4EEC008F069C0C930ECE5D0
:103A1000DE0709F4D5C0C8F5C5308CE5D80709F430
:103A2000C7C000F5C330ECE5DE0709F4B9C008F003
:103A3000BBC0C230DC4509F4ADC08091DB0290917F
:103A4000DC020E94280E0E94C20880E008C0C13635
:103A5000EDE5DE0771F2C53AFDE5DF0751F2DF91D2
:103A6000CF9108958091DB028062C7309CE5D90731
:103A700009F493C08091DB028061C830DC4508F412
:103A80008CC08091DB02806488C08091DB028B7FD8
:103A9000CD30FCE5DF0709F480C098F48091DB02AB
:103AA0008E7FCB309CE5D90709F477C08091DB028B
:103AB0008C60CC30DC4508F470C08091DB028D7FD7
:103AC0006CC08091DB028F7ECF30FCE5DF0709F40C
:103AD00064C008F47BC08091DB028F7D5EC0CD3F67
:103AE0009CE5D90709F47AC050F5C531FCE5DF073C
:103AF00009F486C098F48091DB02837FC3319CE592
:103B0000D90709F44AC008F471C00E94C208909114
:103B1000DB02892F97FB87F980583FC0CB3FFCE53C
:103B2000DF0709F449C008F055C08091DC028160CC
:103B3000CA3FDC4509F081CF8093DC027ECFC130E3
:103B4000EDE5DE0709F468C0A8F4CF3F8CE5D8079F
:103B500009F452C08091DC028360C115DD4560F339
:103B60008091DC02982F909591708E7F892B90FB2D
:103B700081F9E2CFC136EDE5DE0709F451C0C53A5F
:103B8000FDE5DF0709F453C0C230DD4509F055CF2C
:103B900080E043C08091DB0281608093DB024DCFE7
:103BA0008091DB028260F9CF8091DB028460F5CFE7
:103BB0008091DB028860F1CF8091DC028260BCCF13
:103BC0000E94C2088091DB028068E7CF8091DB020F
:103BD000877FE3CF8091DC028E7FAECF8091DC02C5
:103BE0008D7FAACF8091DB028F7BD7CF0E94C20846
:103BF0008091DB028F77D1CF8091DC028C7F9CCFCC
:103C00008091DB0282FB992790F921E0922790FBBB
:103C100082F990FB83F9C1CF81E00E94AD0E0DCFF8
:103C20009091DB02892F8F7E94FF8061B6CF9091B7
:103C3000DB02892F8E7F90FF8160AFCF81E00FCFB5
:103C400084E00895262F30E094E0220F331F9A95E8
:103C5000E1F750E0440F551F240F351F90E060EA54
:103C600070E00E945129820F931F879608950F9349
:103C70001F93CF93DF930E94221E8C010E94642A1F
:103C8000C82FD0E0DC2FCC27C80101960E94642AFF
:103C90009E01282BC901DF91CF911F910F910895AB
:103CA0000F931F93CF93DF93122F032F0E94221E97
:103CB000EC01602F0E94782A612FCE010196DF91DE
:103CC000CF911F910F910C94782AAF92BF92CF920F
:103CD000DF92EF92FF921F93CF93DF9384E7C82E7A
:103CE00080E0D82ED0E07601C0E014C0F501259127
:103CF0003491412F6C2F8D2F0E94501E82E0A80E10
:103D0000B11C1F5F183091F780E1E80EF11CCF5F06
:103D1000CA3019F0570110E0E9CFDF5F80EAC80E22
:103D2000D11CD43001F7DF91CF911F91FF90EF901C
:103D3000DF90CF90BF90AF900895EF92FF920F93D6
:103D40001F93CF93DF93EC018A017C01E60EF71EEF
:103D5000CE018796CE15DF0539F4DF91CF911F9103
:103D60000F91FF90EF900895C03822E0D20740F401
:103D70000E94642AF80180830F5F1F4F2196E8CFCD
:103D8000F8011082F9CFCF92DF92EF92FF920F935A
:103D90001F93CF93DF937C016A018C01060F171FDD
:103DA000EC01CE018796C017D10749F4DF91CF917E
:103DB0001F910F91FF90EF90DF90CF900895C03842
:103DC00022E0D20740F4FE01EE19FF09EC0DFD1DC3
:103DD00060810E94782A2196E4CF462F843038F4FF
:103DE0007A3028F4683018F4672F0C94371E90E06E
:103DF00080E0089580E1089589E591E00895EF92CB
:103E0000FF920F931F93CF93DF93EC018A017C0104
:103E1000E60EF71ECE0189559D4FCE15DF0539F40C
:103E2000DF91CF911F910F91FF90EF900895C935C9
:103E300021E0D20740F40E94642AF80180830F5FDA
:103E40001F4F2196E7CFF8011082F9CFCF92DF9272
:103E5000EF92FF920F931F93CF93DF937C016A0140
:103E60008C01060F171FEC01CE0189559D4FC0171D
:103E7000D10749F4DF91CF911F910F91FF90EF90FF
:103E8000DF90CF900895C93521E0D20740F4FE01BC
:103E9000EE19FF09EC0DFD1D60810E94782A219624
:103EA000E3CFCF93DF93C7EAD2E060E0CE010E9478
:103EB000782A2196C11584E0D807B9F7DF91CF9110
:103EC0000895DF92EF92FF920F931F93CF93DF93AA
:103ED00000D000D0CDB7DEB7F82E8FE08F1540F0C0
:103EE0008FEF93E00E94642A07EA12E08823C1F072
:103EF0000F900F900F900F90DF91CF911F910F9126
:103F0000FF90EF90DF900895011584E0180781F38A
:103F1000C8010E94642A811101C0FA940F5F1F4FEB
:103F2000F110F2CF19821A821B821C82DD24D394F5
:103F300078018FEFE81AF80AC8010E94642A898381
:103F40001A828823A9F29FEF980F933078F48A831E
:103F5000D9820E5F1F4FC7010E94642A8B8388237A
:103F600039F2CE0101960E947605E2CF8701F9CFA2
:103F7000CF93DF93EB0186319C4511F50E94200D14
:103F80009A81992399F08A7A91E009F490E09093CC
:103F9000C202811109C089E20E94FB0C0E94600DDF
:103FA00080E0DF91CF91089585E3F6CF8091C20242
:103FB000811104C089E20E94020DF0CF85E3FBCF9E
:103FC00081E0EFCF0F931F93CF93DF93C42FD22FB6
:103FD000FC0182818823C9F04093C5020E94D6214A
:103FE0009093C4028093C30280E28C0F883008F063
:103FF00050C0C77081E001C0880FCA95EAF7DF9111
:10400000CF911F910F910C946B061091C502141360
:1040100035C08091C3029091C4020E94EE21883C79
:10402000910560F5C0E2CD0F1D17B9F080E2810F58
:10403000883040F4177081E001C0880F1A95EAF7C4
:104040000E947206C83048F481E09D2F977001C02D
:10405000880F9A95EAF70E946B06802F0E946306EC
:10406000C830B8F4D77081E001C0880FDA95EAF75C
:10407000DF91CF911F910F910C94720680E28C0F0B
:10408000883038F4C77081E001C0880FCA95EAF71C
:10409000EFCFDF91CF911F910F9108950F939C0166
:1040A000CB01233F4CE5340759F1A8F4283DFCE54A
:1040B0003F0701F1293D4CE53407D1F1273D3C454F
:1040C00091F406E221EE41EE67ED7CE50E94E21FED
:1040D00080E00F910895253FFCE53F07E9F0B0F03F
:1040E000263F3C45F9F0FC018281882339F110928A
:1040F000C502EFCF07E225EE45EE68ED7CE5E6CFA1
:1041000006E221EE40EE63EF7CE5E0CF07E225EE2C
:1041100044EE64EF7CE5DACF06E221EE42EE65EF95
:104120007CE5D4CF07E225EE46EE66EF7CE5CECF08
:1041300008E221E045EE69ED7CE5C8CF81E0C9CF1A
:104140009093D7018093D60108959093CB028093EA
:10415000CA020895E091CA02F091CB02309721F093
:104160000190F081E02D099480E00895E091CA0269
:10417000F091CB02309721F00280F381E02D099479
:1041800008952091C8023091C9022817390771F0AB
:104190009093C9028093C802E091CA02F091CB02C9
:1041A000309721F00680F781E02D09940895209141
:1041B000C6023091C7022817390771F09093C702E1
:1041C0008093C602E091CA02F091CB02309721F0B1
:1041D0000084F185E02D099408959C012E5F3F4FE6
:1041E000AC01485F5F4F80E02417350709F408955C
:1041F000F90191919F019923B9F38F5FF5CF662360
:1042000049F0FC01329608962191261729F0E8170B
:10421000F907D1F780E0089581E008959C01FC0141
:1042200032969FEF80E04191461751F09F3F19F47D
:10423000411101C0982F8F5F8630A9F79F3F09F485
:104240000895290F311D97FD3A95F901628308956C
:10425000FC01329608962191261303C0DF011197C5
:104260001C92E817F907B9F708950C940E210C94E5
:104270002821029626E0FC0111922A95E9F708957B
:1042800008950C944021811105C081E08093CC02F7
:104290000C94412182E0FACF83E08093CC020C940D
:1042A00041210C94432181E08093CC020C94412164
:1042B0000C945321089508950C945B21089508955A
:1042C0000C945A21CF930E945E210E9444120E94B6
:1042D0005F21C0E08C2F0E948511811105C0CF5F46
:1042E000CA30C1F7CF91089581E0FCCF08951F92A5
:1042F0001FB61F9211248F939F93AF93BF9380910A
:10430000CD02811113C080912C0390912D03A091B7
:104310002E03B0912F034196A11DB11D80932C0354
:1043200090932D03A0932E03B0932F03BF91AF91D1
:104330009F918F911F901FBE1F90189580913403FD
:10434000843031F10E94A6041092CD0288E190E001
:1043500020E40FB6F894A895809360000FBE2093D8
:10436000600083B7817F846083BF83B7816083BF30
:104370007894889583B78E7F83BF0FB6F894A895FD
:1043800080916000886180936000109260000FBE91
:1043900008950E94C2080C94AA0482E084BD93E0B0
:1043A00095BD9AEF97BD80936E0008952FB7F8944E
:1043B00080912C0390912D03A0912E03B0912F0397
:1043C0002FBF08952FB7F89460912C0370912D039F
:1043D00080912E0390912F032FBF08959C014FB71A
:1043E000F89480912C0390912D03A0912E03B0910D
:1043F0002F034FBF821B930B089578941F921FB613
:104400001F9211248F939F93AF93BF9380912C039E
:1044100090912D03A0912E03B0912F030196A11D21
:10442000B11D80932C0390932D03A0932E03B09382
:104430002F03BF91AF919F918F911F901FBE1F902F
:10444000189581E08093E00080E28093D80010927C
:10445000C9008FE19EE40197F1F700C0000087E0FA
:1044600090EBDC0180933D0390933E03A0933F03C8
:10447000B093400388E19CE00FB6F894A895809330
:1044800060000FBE90936000FFCF8091D902089525
:104490000895CF93DF93EC0181E08093E9008FEFE3
:1044A0009091E800815095FD06C095ED9A95F1F741
:1044B00000008111F5CF8091E80085FF14C050E025
:1044C00040E068E070E0CE010E94A7248091E800FF
:1044D0008E778093E80088E0FE01A1EDB2E00190C4
:1044E0000D928A95E1F7DF91CF9108958093CE02E6
:1044F0007093D0026093CF02809134038430F9F43A
:104500008093E9008FEF9091E800815095FD06C0FF
:1045100095ED9A95F1F700008111F5CF8091E800B3
:1045200085FF0DC050E040E063E070E08EEC92E06B
:104530000E94A7248091E8008E778093E800089578
:10454000BC0184E00C947622BC0183E00C947622BA
:104550000895CF93FC01603221F5809134038430BB
:1045600001F5C091E900CF702091EC00922F91707D
:1045700020FD90E8C92B82E08093E9008091E8005B
:1045800080FF0CC050E040E060E270E0CF010E948C
:10459000A7248091E8008E778093E800CF70C093C5
:1045A000E900CF9108950C9453216091300381E08C
:1045B000611101C080E00C944C219091340381E0A2
:1045C000943009F080E0609130030C94512142E076
:1045D00061EC81E00E94FE2542E261EC84E00E94F1
:1045E000FE2542E261EC82E00E94FE2542E260ECA0
:1045F00083E00E94FE259091340381E0943009F01D
:1046000080E0609130030C94432180913603833025
:1046100009F460C030F48130C9F1823009F49CC0E3
:1046200008958A3009F488C08B3009F46EC089304F
:1046300009F04FC080913503813209F04AC0809162
:10464000390390913A03009719F0029709F041C09D
:104650008091E800877F8093E8008091E80082FFE6
:1046600034C08091F200823031F48091F1008130C9
:1046700011F0863021F48091F1008093D90280916D
:10468000E8008B778093E8000C9432268091350304
:10469000813AF9F48091E800877F8093E800809167
:1046A000390390913A03892B61F468E081ED92E03F
:1046B00070E00E9445258091E8008B778093E800A8
:1046C000089560E090E080E0F3CF809134038111A1
:1046D000C4CF089580913503813AD9F78091390389
:1046E00090913A03892BA9F78091E800877F809306
:1046F000E8008091E80080FFFCCF80912701809343
:10470000F1008091E8008E77BDCF80913503813232
:1047100001F78091390390913A03892BD1F680916A
:10472000E800877F8093E8000E943226809137035B
:10473000809327010C94C20880913503813249F699
:104740008091E800877F8093E8000E943226809164
:1047500038038093DA02089580913503813A09F095
:10476000B8CF8091E800877F8093E8008091E800CF
:1047700080FFFCCF8091DA02C2CF84B7877F84BFED
:104780000FB6F894A89580916000886180936000CE
:10479000109260000FBE80E890E00FB6F89480930E
:1047A0006100909361000FBE0C9458210E948226F4
:1047B0000E94D526E2EEF0E08081846080837894C8
:1047C0000C942D298BE191E00C94A5208091340369
:1047D0008530A9F480913403853011F00C94C921FF
:1047E0000E949E21809132038823A1F30E946221BE
:1047F000882381F30E9491240E94C208EBCF089580
:10480000CF93DF93CDB7DEB7A0970FB6F894DEBF96
:104810000FBECDBF80913403843009F583E08093CF
:10482000E9008091E80082FF1AC08091E80090E0E2
:1048300085FF09C050E040E060E270E0CE010196E3
:104840000E94F62491E08091E8008B778093E80045
:10485000992329F060E2CE0101960E94241CA096C3
:104860000FB6F894DEBF0FBECDBFDF91CF91089594
:104870000C943A24292F33272330310521F168F491
:104880002130310509F443C02230310509F444C018
:1048900090E080E030E020E026C02132310551F187
:1048A00022323105A9F76330710590F7FB01EE0F55
:1048B000FF1FE653FE4F2081318169537E4FFB017C
:1048C000808190E010C099278130910581F0009798
:1048D00029F00297E9F6EEEBF5E002C0ECEFF5E027
:1048E000849190E09F01FA01318320830895ECEEDA
:1048F000F5E0F6CF6330710558F6660F771FFB01C0
:10490000E053FE4F2081318189E090E0ECCF82E1DD
:1049100090E02BE536E0E7CF8BE590E020E036E055
:10492000E2CF84E089BD86E089BD09B400FEFDCFF9
:104930008091D8008F7D8093D8008091E0008260C4
:104940008093E0008091E00081FDFCCF0895AF925C
:10495000BF92CF92DF92FF920F931F93CF93DF937B
:104960006C01EB018A010E945126F82E811123C0AF
:104970000115110539F0F80180819181C81BD90B0F
:10498000C80ED91EB12CA12C2097A9F08091E80067
:1049900085FD22C08091E8008E778093E8000115A4
:1049A0001105A1F0F80180819181A80EB91EB18294
:1049B000A08285E0F82E8F2DDF91CF911F910F916E
:1049C000FF90DF90CF90BF90AF9008950E94512646
:1049D0008823D1F2F82EEFCFF60181916F018093F9
:1049E000F1002197FFEFAF1ABF0ACECFAF92BF926F
:1049F000CF92DF92FF920F931F93CF93DF936C01BF
:104A0000EB018A010E945126F82E811123C0011565
:104A1000110539F0F80180819181C81BD90BC80EAE
:104A2000D91EB12CA12C2097A9F08091E80085FD1A
:104A300022C08091E8008B778093E8000115110572
:104A4000A1F0F80180819181A80EB91EB182A082E7
:104A500085E0F82E8F2DDF91CF911F910F91FF9060
:104A6000DF90CF90BF90AF9008950E945126882389
:104A7000D1F2F82EEFCF8091F100F60181936F0112
:104A80002197FFEFAF1ABF0ACECFFC0180913B0305
:104A900090913C0386179707A0F06115710529F4E2
:104AA0009091E8009E779093E80090E06115710581
:104AB00051F4911108C08091E80082FF32C080E07B
:104AC0000895BC01F2CF809134038823B1F1853081
:104AD000B1F18091E80083FD2EC08091E80082FD55
:104AE000EACF8091E80080FFE1CF2091F20030E032
:104AF0006115710519F02830310558F091E0283022
:104B0000310509F090E02091E8002E772093E8002D
:104B1000CDCF81918093F100615071092F5F3F4F9C
:104B2000E7CF80913403882341F0853041F08091B4
:104B3000E80083FFC0CF81E0089582E0089583E01C
:104B40000895FC0180913B0390913C0386179707E1
:104B5000A0F06115710529F48091E8008E778093AB
:104B6000E80090E06115710551F4911108C0809141
:104B7000E80082FF33C080E00895BC01F2CF80914D
:104B800034038823B9F18530B9F18091E80083FDC1
:104B90002FC08091E80082FDEACF8091E80080FF7D
:104BA000E1CF2091F20030E06115710519F0283055
:104BB000310558F091E02830310509F090E08091FE
:104BC000E8008E778093E800CDCF84918093F10048
:104BD0003196615071092F5F3F4FE6CF80913403CA
:104BE000882341F0853041F08091E80083FFBFCFFA
:104BF00081E0089582E0089583E00895982F95302C
:104C000028F08F708093E90081E008959093E90087
:104C1000242F762F50E0981731F07091EC002091FE
:104C2000ED005091F00021FD02C09F5FE8CF309170
:104C3000EB003E7F3093EB003091ED003D7F3093F1
:104C4000ED003091EB0031603093EB007093EC009D
:104C50002093ED005093F0002091EE0027FDE5CF6A
:104C600080E008958091350387FF13C08091E800AC
:104C700082FF06C08091E8008B778093E80004C033
:104C8000809134038111F2CF0895809134038823F9
:104C9000D9F38091E80080FFF8CF8091E8008E770B
:104CA000ECCF2091E4003091E50095E6A901209138
:104CB000EC00822F817020FF06C08091E80080FF09
:104CC00006C080E008952091E80022FD1AC080917E
:104CD0003403882389F0853089F08091EB0085FDCD
:104CE0000FC02091E4003091E50042175307F9F21C
:104CF0009150E1F684E0089582E0089583E00895FC
:104D000081E008950E94DF260E94E226E0EEF0E0B6
:104D1000808181608083E8EDF0E080818F778083FF
:104D200019BCE3E6F0E08081816080831092330358
:104D300008950E94DF260E94E2268091D8008F7796
:104D40008093D8008091D80080688093D8008091AB
:104D5000D8008F7D8093D80084E089BD86E089BD2E
:104D600009B400FEFDCF109234031092300310926C
:104D700032031092310342E060E080E00E94FE25A1
:104D80008091E1008E7F8093E1008091E20081605C
:104D90008093E2008091E20088608093E20080913D
:104DA000E0008E7F8093E0000895E3E6F0E08081EC
:104DB0008E7F808381E0809333030C949926109238
:104DC000E20008951092E10008951F920F920FB62D
:104DD0000F9211242F933F934F935F936F937F9381
:104DE0008F939F93AF93BF93EF93FF938091E100D5
:104DF00082FF0BC08091E20082FF07C08091E1003A
:104E00008B7F8093E1000E942C298091E10080FF3C
:104E100019C08091E20080FF15C08091E2008E7F72
:104E20008093E2008091E20080618093E2008091B3
:104E3000D80080628093D80019BC85E08093340349
:104E40000E94D5228091E10084FF2BC08091E20076
:104E500084FF27C084E089BD86E089BD89B5982F8D
:104E6000917080FFFBCF8091D8008F7D8093D80018
:104E70008091E1008F7E8093E1008091E2008F7E3F
:104E80008093E2008091E20081608093E200809153
:104E90003003882309F443C084E0809334030E94E4
:104EA000DD228091E10083FF29C08091E20083FF31
:104EB00025C08091E100877F8093E10082E08093AC
:104EC0003403109230038091E1008E7F8093E100E3
:104ED0008091E2008E7F8093E2008091E200806109
:104EE0008093E20042E060E080E00E94FE25809135
:104EF000F00088608093F0000E94D322FF91EF9130
:104F0000BF91AF919F918F917F916F915F914F91E1
:104F10003F912F910F900FBE0F901F901895809189
:104F2000E30087FD93E090933403B9CF1F920F9273
:104F30000FB60F9211242F933F934F935F936F936C
:104F40007F938F939F93AF93BF93CF93DF93EF9311
:104F5000FF93D091E900DF708091EC00C82FC17001
:104F600080FDC0E81092E9008091F000877F809377
:104F7000F00078940E94DA271092E9008091F00006
:104F800088608093F000CD2BCF70C093E900FF9133
:104F9000EF91DF91CF91BF91AF919F918F917F91D1
:104FA0006F915F914F913F912F910F900FBE0F9096
:104FB0001F9018951F93CF93DF93CDB7DEB7AA97B5
:104FC0000FB6F894DEBF0FBECDBF85E393E020910E
:104FD000F100FC012193CF01F3E08D339F07B9F776
:104FE0000E9405238091E80083FF1EC18091350354
:104FF000909136039A3008F017C1E92FF0E0E451A0
:10500000F54D0C94DF29803899F0823809F00CC1F5
:10501000809139038F70853008F006C18093E900D4
:105020008091EB0085FB882780F91092E90006C08B
:105030008091310390913203911182609091E80048
:10504000977F9093E8008093F1001092F100809197
:10505000E8008E77E5C0882309F4D3C0823009F0D8
:10506000E3C0809137038111D6C0809139038F70DE
:105070002FEF280F243008F0D7C08093E90020914B
:10508000EB0020FFC8C0933031F48091EB008062C8
:105090008093EB00C0C09091EB0090619093EB0087
:1050A00021E030E001C0220F8A95EAF72093EA0060
:1050B0001092EA008091EB008860EACF8111B4C0C1
:1050C000109137031F778091E3008078812B8093C4
:1050D000E3008091E800877F8093E8000E943226F9
:1050E0008091E80080FFFCCF8091E300806880938E
:1050F000E30082E0111183E08093340395C080586F
:10510000823008F091C080913703909138038C3D34
:1051100023E09207A1F583E08A838AE289834FB76F
:10512000F894DE01139620E03EE051E2E32FF0E038
:1051300050935700E49120FF03C0E295EF703F5F6A
:10514000EF708E2F90E0EA30C0F0C7968D939D935C
:105150002F5F243159F74FBF8091E800877F8093FC
:10516000E8006AE270E0CE0101960E944525809138
:10517000E8008B778093E80057C0C096E7CF609136
:10518000390370913A03AE014F5F5F4F0E9438249C
:10519000BC01892B09F448C09091E800977F909357
:1051A000E80089819A810E94A125E1CF8038E1F54C
:1051B0008091E800877F8093E8008091300380939E
:1051C000F10045CF811130C090913703923060F5E6
:1051D0008091E800877F8093E800909330030E94DD
:1051E000322680913003882311F084E005C080913D
:1051F000E30087FDFACF81E0809334030E94E72229
:1052000013C080913703813079F481E0933009F045
:1052100080E0809332031092E9008091E800877F5C
:105220008093E8000E9432268091E80083FF0AC044
:105230008091E800877F8093E8008091EB00806296
:105240008093EB00AA960FB6F894DEBF0FBECDBFD9
:10525000DF91CF911F9108950895CF9380913403EA
:105260008823A1F0C091E900CF709091EC00892FC4
:10527000817090FD80E8C82B1092E9008091E800D1
:1052800083FD0E94DA27CF70C093E900CF91089583
:10529000002480FD060E660F11F08695D1F7802D53
:1052A00008950024552704C0080E591F880F991F20
:1052B000009729F076956795B8F37105B9F7802DB9
:1052C000952F0895EE27FF27AA27BB2708C0A20F16
:1052D000B31FE41FF51F220F331F441F551F969560
:1052E00087957795679598F37040A9F7009799F798
:1052F000BD01CF010895991B79E004C0991F96174D
:1053000008F0961B881F7A95C9F78095089587FB4A
:10531000082E062687FD819567FD61950E947B29F1
:105320000EF4919507FC81950895AA1BBB1B51E1D2
:1053300007C0AA1FBB1FA617B70710F0A61BB70B05
:10534000881F991F5A95A9F780959095BC01CD01AA
:10535000089597FB072E16F4009407D077FD09D027
:105360000E94952907FC05D03EF4909581959F4FAA
:105370000895709561957F4F0895A1E21A2EAA1B9A
:10538000BB1BFD010DC0AA1FBB1FEE1FFF1FA217F5
:10539000B307E407F50720F0A21BB30BE40BF50BF2
:1053A000661F771F881F991F1A9469F7609570957B
:1053B000809590959B01AC01BD01CF010895EE0F42
:1053C000FF1F0590F491E02D09946927962769271E
:1053D00078278727782708958F929F92AF92BF9260
:1053E000CF92DF92EF92FF92CF93DF93EC0168812F
:1053F00079818A819B81611571058105910521F46F
:1054000064E279ED8BE597E02DE133EF41E050E088
:105410000E94AC2A49015A0127EA31E440E050E0F9
:105420000E9462296B017C012CEE34EF4FEF5FEF9D
:10543000C501B4010E946229DC01CB018C0D9D1DC8
:10544000AE1DBF1DB7FF03C00197A109B0488883F7
:105450009983AA83BB839F77DF91CF91FF90EF90D1
:10546000DF90CF90BF90AF909F908F9008950E9453
:10547000EC29089580E091E00E94EC290895B0E0C5
:10548000A0E08093000190930101A0930201B093EA
:1054900003010895FC014150504030F00190061680
:1054A000D1F73197CF010895882799270895FB01F7
:1054B000DC0104C08D910190801921F441505040CD
:1054C000C8F7881B990B0895F999FECF92BD81BD4D
:1054D000F89A992780B50895A6E1B0E044E050E03D
:1054E0000C949E2AA8E1B0E042E050E00C949E2A81
:1054F000262FF999FECF92BD81BDF89A019700B48D
:10550000021639F01FBA20BD0FB6F894FA9AF99A2C
:105510000FBE08950396272F0E94792A0E94782AA9
:10552000252F0E94792A242F0C94792A0196272F5F
:105530000E94792A0C94782ADC01CB01FC01F999AC
:10554000FECF06C0F2BDE1BDF89A319600B40D92CF
:1055500041505040B8F70895052E97FB1EF4009473
:105560000E94C32A57FD07D00E94BD2907FC03D023
:105570004EF40C94C32A50954095309521953F4F99
:105580004F4F5F4F089590958095709561957F4F2F
:105590008F4F9F4F0895F894FFCFB706B706E806E0
:1055A000E8067B071707170717079707FE070D0879
:1055B0000D08381C451C6C1C781C831C8E1C911C0F
:1055C000941C971CE01CE01C9A1C9E1CA61CB31C7F
:1055D000C01CC31CC61CD31C03282B2814292B2831
:0C55E00014295E287F281429D628E22810
:1055EC0001000000C8003C0201010200120012126E
:1055FC0001191A1B1C1D1E1F20212245224922A8FD
:10560C0022A422A022482201E200E900EA00B5000F
:10561C00B600B700CD008301CC008A019201940141
:10562C002102230224022502260227022A02B300A9
:10563C00B4006F007000818283E200E900EA00B5DB
:10564C0000B600B700CD008301CC008A0192019412
:10565C00012102230224022502260227022A02B378
:10566C0000B4006F0070008182836292363534334F
:10567C00329691909594673766653031000102023D
:10568C0002020606060909090909090F0F0F0F0F77
:10569C000F1515151819191919191919191919237B
:1056AC0024252525252525402232C1066D068F0689
:0656BC0012062B064B064E
:00000001FF
