:100000000C9496030C94CE030C94CE030C94CE0364
:100010000C94CE030C94CE030C94CE030C94CE031C
:100020000C94CE030C94CE030C947B1D0C94371DC2
:100030000C94E21E0C94CE030C94CE030C94CE03CD
:100040000C94CE030C94CE030C94CE030C94CE03EC
:100050000C94CE030C94BE1E0C94CE030C94CE03D1
:100060000C94CE030C94CE030C94CE030C94CE03CC
:100070000C94CE030C94CE030C94CE030C94CE03BC
:100080000C94CE030C94CE030C94CE030C94CE03AC
:100090000C94CE030C94CE030C94CE030C94CE039C
:1000A0000C94CE030C94CE030C94CE030631FF09BE
:1000B00074A1010975150026FF00952075088102BD
:1000C000C005010902A10185020901A10005091964
:1000D000012908150025019508750181020501090E
:1000E0003009311581257F9502750881060938157B
:1000F00081257F950175088106050C0A3802158156
:10010000257F950175088106C0C005010980A10100
:10011000850319012AB700150126B700950175104E
:100120008100C0050C0901A101850419012AA00262
:10013000150126A002950175108100C00501090670
:10014000A1018506050719E029E715002501950895
:10015000750181020507190029EF1500250195F0A9
:10016000750181020508190129059505750191029E
:10017000950175039101C00660FF0961A101096243
:10018000150026FF009520750881020963150026D9
:10019000FF00952075089102C005010906A101051F
:1001A0000719E029E71500250195087501810295D9
:1001B00001750881010507190029FF150026FF00B8
:1001C0009506750881000508190129051500250106
:1001D000950575019102950175039101C00000001C
:1001E000000000000000000000000000000000000F
:1001F00000000000000000000000000000000000FF
:10020000007E0F00D4FFFFFFC70000007800000051
:1002100000000000002A2B28000000000000000061
:10022000000000000000000029000000002C1E3427
:1002300020212224342627252E362D3738271E1F2D
:10024000202122232425263333362E37381F040558
:10025000060708090A0B0C0D0E0F101112131415C6
:10026000161718191A1B1C1D2F3130232D350405A4
:10027000060708090A0B0C0D0E0F101112131415A6
:10028000161718191A1B1C1D2F3130354C444542C6
:1002900055473A2064697361626C65642E0A0044B4
:1002A000454255473A20656E61626C65642E0A00CE
:1002B0004F6E6573686F743A206163746976653A4E
:1002C0002025640A000A002530325820006E6B7227
:1002D0006F5F7265706F72743A2025303258207CDF
:1002E00020000A002530325820006B6579626F616A
:1002F00072645F7265706F72743A202530325820D4
:100300007C200073757370656E64696E67206B6521
:1003100079626F6172640D0A000A0025303136621D
:10032000003A200025303258000A722F6320303105
:1003300032333435363738394142434445460A0072
:100340006C65645F7461736B3A20253032580A0023
:1003500029001E001F00200021002200230024008D
:100360002500260027002D002E002A004C0000004A
:100370002B0014001A000800150017001C001800BC
:100380000C00120013002F00300031004B00000061
:10039000390004001600070009000A000B000D00D8
:1003A0000E000F0033003400320028004E00000021
:1003B000E10064001D001B0006001900050011008B
:1003C0001000360037003800E5005200A800000099
:1003D000E000E300E20000000000000000002C004C
:1003E00000000000E6002152E40051004F005000E0
:1003F00035003A003B003C003D003E003F0040001D
:1004000041004200430044004500017C010000001F
:1004100001000100010001000100010001000100D4
:1004200001000100010001000100010001000000C5
:1004300001000100010001000100010001000100B4
:1004400001000100010001000100010001000000A5
:100450000100010001000100010001000100010094
:100460000100010001000100010001000100000085
:100470000100010001000000000000000000010078
:100480000000000001000100010001000100010066
:100490000100010001000100010001000100010054
:1004A0000100010001000100010001000100000045
:1004B0000100010001000100010001000100010034
:1004C0000100010001000100010001000100000025
:1004D0000100010001000100010001000100010014
:1004E0000100010001000100010001000100000005
:1004F00001000100010001000100010001000100F4
:1005000001000100010001000100010001000000E4
:1005100001000100010000000000000000000100D7
:1005200000000000010001000100010001000100C5
:1005300001000100010001000100010001000100B3
:1005400001000100010001000100010001000000A4
:100550000100010001000100010001000100010093
:100560000100010001000100010001000100000084
:100570000100010001000100010001000100010073
:100580000100010001000100010001000100000064
:100590000100010001000100010001000100010053
:1005A0000100010001000100010001000100000044
:1005B0000100010001000000000000000000010037
:1005C0000000000001000100010001000100010025
:1005D000A900AA00A900AA00A900AA00A900AA00CF
:1005E000290A002575002F002575005D2800256467
:1005F0000020002564002000256400200025640000
:100600007C0025303258006D6F7573656B657920FD
:100610005B62746E7C782079207620685D28726534
:10062000702F61636C293A205B006164645F6B65C5
:10063000795F6269743A2063616E27742061646433
:100640003A20253032580A0064656C5F6B65795F2B
:100650006269743A2063616E27742064656C3A2085
:10066000253032580A005B435D005B445D005B53FC
:100670005D005B575D005B525D0009027400040180
:1006800000A0FA0904000001030101000921110181
:10069000000122440007058103080001090401004C
:1006A00002030000000921110100012222000705B8
:1006B0008203200001070503032000010904020052
:1006C000010300000009211101000122B600070505
:1006D0008403200001090403000103000000092134
:1006E00011010001221500070585032000011201F8
:1006F000000200000008474C020000010102000156
:100700000C03440065006C007400610000001803D5
:100710005100750061006400720075006D004C00AE
:1007200061006200730000000403090411241FBE6D
:10073000CFEFDAE0DEBFCDBF04B603FE18C0809174
:10074000A2029091A302A091A402B091A5028730C9
:10075000904BA740B04B59F41092A2021092A30202
:100760001092A4021092A502E0E0F8E3099511E0CE
:10077000A0E0B1E0E6E9FBE402C005900D92AE37DF
:10078000B107D9F722E0AEE7B1E001C01D92A23A6D
:10079000B207E1F70E94091F0C9475250C94000024
:1007A000FF93EF93E0917E01F0917F01309709F084
:1007B0000995EF91FF910895FC018591803011F02A
:1007C000EFDFFBCF0895FF27E0E230E247FF0CC0E8
:1007D000419597FF09C0EDE26095709580959095E1
:1007E000611D711D811D911D27FF02C0219530E300
:1007F00050E2AA27660F771F881F991FAA1FA41708
:1008000010F0A41B63955A95A9F7AA3008F0A95FC8
:10081000A05DAF93F395611571058105910541F7D1
:10082000ED3211F4EF93F395F21718F43F93F3952B
:10083000FBCF8F91B5DFFA95E1F70895E991F99132
:100840008591803021F0853219F0AADFF9CF089523
:1008500020E0E89455915532C1F3503311F4689477
:1008600055915A3348F4505390F3220F022E220F21
:10087000220F200D250FF4CF0EF421958991999127
:10088000533619F3533729F1533559F1BC018827F1
:100890009927E8945C3621F489919991689455914F
:1008A000543639F446EF7EF077FF0DC08FEF9FEF9F
:1008B0000AC055374AE039F0583540E121F0523648
:1008C00042E009F00895FF93EF937DDFEF91FF91F0
:1008D000B7CFFF93EF93FC0181918030B9F360DFD4
:1008E000FBCFFF93EF9368DFF1CFDF93CF93CDB7CB
:1008F000DEB72596A3DFCF91DF910895482F209191
:100900009E029091650257E0291302C080E008958D
:1009100030E0529FF001539FF00D1124EA59FD4F32
:100920008181681306C08081481303C085818111CD
:10093000EECF2F5F3F4F2770E7CFE8EDF0E08081EB
:100940008E7F80831092E2001092DA001092E10014
:10095000A0EEB0E08C9181608C9380818F77808352
:1009600019BCA7EDB0E08C918E7F8C9380818F7E37
:10097000808310924E0208952091E4003091E500AA
:1009800095E6A9012091EC00822F817020FF06C01E
:100990008091E80080FF06C080E008952091E80083
:1009A00022FD1AC080915B02882389F0853089F08E
:1009B0008091EB0085FD0FC02091E4003091E500AF
:1009C00042175307F9F29150E1F684E0089582E06E
:1009D000089583E0089581E0089580915D0287FF86
:1009E00013C08091E80082FF06C08091E8008B77F9
:1009F0008093E80004C080915B028111F2CF0895DA
:100A000080915B028823D9F38091E80080FFF8CFC2
:100A10008091E8008E77ECCF982F9093E900242FF7
:100A2000762F50E0891731F07091EC002091ED00A5
:100A30005091F00021FD07C09F5F973071F78093C0
:100A4000E90081E008953091EB003E7F3093EB00A8
:100A50003091ED003D7F3093ED003091EB0031603F
:100A60003093EB007093EC002093ED005093F00076
:100A70002091EE0027FDE0CF80E00895B0E0A0E0F7
:100A8000E4E4F5E00C94D524C8EDD0E088818F7EB5
:100A90008883E7EDF0E080818160808384E082BF1D
:100AA00081E080934E0288818E7F888302EE10E081
:100AB000F80110821092DA0081EEC82ED12CF601D6
:100AC000108288818F778883888180688883888175
:100AD0008F7D888319BC10925B0210925C02109289
:100AE0005A021092590290EEE92EF12CF701808102
:100AF0008B7F808388818160888342E060E080E032
:100B00000E940C05F60180818E7F8083F801808130
:100B100081608083808188608083F70180818E7FFF
:100B20008083888180618883CDB7DEB7E8E00C944C
:100B3000F124FC018091630290916402861797076B
:100B4000A0F06115710529F49091E8009E779093CB
:100B5000E80090E06115710551F4911108C0809191
:100B6000E80082FF34C080E00895BC01F2CF80919C
:100B70005B028823C1F18530C1F18091E80083FDDB
:100B800030C08091E80082FDEACF8091E80080FFCC
:100B9000E1CF8091F3002091F200382F61157105AB
:100BA00019F02830310558F091E02830310509F06E
:100BB00090E02091E8002E772093E800CBCF819140
:100BC0008093F100615071092F5F3F4FE7CF809113
:100BD0005B02882341F0853041F08091E80083FF7B
:100BE000BECF81E0089582E0089583E0089580916A
:100BF000500208959C014FB7F8948091470290915C
:100C00004802A0914902B0914A024FBF821B930B48
:100C100008952FB7F894609147027091480280912F
:100C2000490290914A022FBF08952FB7F8948091FE
:100C3000470290914802A0914902B0914A022FBF09
:100C40000895A3E0B0E0E7E2F6E00C94DB24209105
:100C500041023091420228173907A1F090934202D5
:100C600080934102E0913F02F0914002309751F0B1
:100C700024E029839B838A830084F185E02DCE01C3
:100C8000019609952396E2E00C94F724A3E0B0E0E6
:100C9000ECE4F6E00C94DB2420913D0230913E021E
:100CA00028173907A1F090933E0280933D02E0910E
:100CB0003F02F0914002309751F023E029839B835B
:100CC0008A830084F185E02DCE0101960995239653
:100CD000E2E00C94F724E0913F02F091400230975B
:100CE00029F00190F081E02D0995089580E00895A4
:100CF0008091310280FD16C081FD16C082FD16C0B4
:100D0000809130028823A1F0883280F428E0829F0D
:100D1000C001112468E270E00E94AA24862F672B8C
:100D200039F0089582E0089584E0089588E00895F8
:100D300081E008958091310280FD14C081FD14C0CE
:100D400082FD16C080913202882381F08E3180F4BA
:100D500020E5829FC00111246EE170E00E94AA2468
:100D6000862F089584E1089588E2089588E0089523
:100D700080E50895282F35EB2303C001112497FF48
:100D800004C080589109892F089580589F4FFBCF48
:100D900020E9611121E989B190E02F7002C0959599
:100DA00087952A95E2F78170089520E9611121E97C
:100DB0003AB12F7081E090E001C0880F2A95EAF7E0
:100DC000982F909593239AB99BB1892B8BB908954D
:100DD00090912A02E92FF0E040912B029F012F5FB2
:100DE0003F4F2370332742171306A9F0E45DFD4FF0
:100DF000282F2F7780818078822B60FB87F9808372
:100E00009F5F937090932A02809128028F5F809356
:100E1000280281E0089580E00895F894E82FE29593
:100E2000EF70F0E031A1282F2F7081E090E001C039
:100E3000880F2A95EAF7982F9095932391A392A172
:100E4000892B82A3789408959091440292FF10C058
:100E500041E0282F2471243009F040E031E0282FB0
:100E60002871283009F030E0431711F02CE0822778
:100E700093FF10C041E0282F2471243109F040E095
:100E800031E0282F2871283109F030E0431711F0A4
:100E90002CE082273091450230FF10C051E0282F0E
:100EA0002171213009F050E041E0282F28712830CD
:100EB00009F040E0541711F029E0822731FF10C0FB
:100EC00041E0282F2171213109F040E031E0282F45
:100ED0002871283109F030E0431711F029E082270A
:100EE00094FD877E089582389105B9F1B0F481337D
:100EF000910509F47DC048F48932910509F46DC06B
:100F00008A32910509F47BC008958533910509F46F
:100F10005FC08933910509F10895833E9105D9F1A8
:100F200038F4803E910529F1823E910579F10895CA
:100F3000863E9105D9F1873E910509F43EC0843E75
:100F4000910541F52091450221FF24C08091440282
:100F500084FD19C087EE90E008952091440223702B
:100F600009F05AC02091450223FF14C089E290E0A5
:100F700008952091440220FD38C03091450230FF91
:100F800009C024FF43C090E080E00895209144020E
:100F900022FDF7CF08952091440222FD3AC03091FE
:100FA000450230FD39C024FFF5CFEDCF209144023A
:100FB00023FFF0CF24FDE7CFCDCF2091440223FDC6
:100FC0002EC03091450231FFEECF84EE90E00895BF
:100FD0002091440225FFDECFC9CF2091440225FD98
:100FE00021C02091450223FFD5CF89E390E0D2CFE5
:100FF0002091440226FFCECF8AE290E0089520910E
:10100000440226FFC7CF81E390E0089583EE90E08D
:10101000089582EE90E0089580EE90E0089586EEC7
:1010200090E0089585E390E008951F93CF93DF93B8
:101030000E947307EC01C11580E5D807F0F5C115D2
:1010400080E4D80708F09CC0C03ED10520F5CD3C17
:10105000D10508F082C0C83AD10578F4C53AD10567
:1010600008F073C0C130D10519F1209709F1C430DF
:10107000D105F0F4D0E0C0E01BC0C33CD105D0F7EF
:10108000C85AD0E0CC0FDD1FC25FDE4F0990D88177
:10109000C02DD4640DC0C11580E2D80708F0D1C0BE
:1010A000C11581E0D80708F05AC0C83ED10510F735
:1010B000CE01DF91CF911F910895C03682E5D80708
:1010C00018F5C03482E5D80708F06BC0C03282E55D
:1010D000D80708F05FC0C11582E5D80708F497C0AB
:1010E0002C2F2695269580E2289F900111248C2F85
:1010F0008370C1E0D0E002C0CC0FDD1F8A95E2F71B
:10110000C22BD32BDD68D4CFC03A82E5D80760F478
:10111000C03882E5D80708F459C0CF71D0E0DC2F81
:10112000CC27C46FD06AC4CFC03C82E5D80708F48E
:1011300062C0C03E82E5D80708F09CCFDC2FCC27E8
:10114000CC27DF71C06FD06AB3CFC55AD0E0C55F7E
:10115000DE4FC881D0E0D064ABCFD065A9CF8D2F52
:101160000E942407182FCE0199270E947307C12FD0
:10117000D0E0DC2FCC27CC27DF71C82BD92B98CF20
:10118000CE0199270E947307CC27DF70C82BD92B7B
:10119000D06A8ECFCF71D0E0DC2FCC27C16FD06A60
:1011A00087CF2C2F26952695277080E2289F9001C7
:1011B00011248C2F8370C1E0D0E002C0CC0FDD1F62
:1011C0008A95E2F7C22BD32BDC6872CF2C2F2695A1
:1011D0002695277080E2289F900111248C2F837020
:1011E000C1E0D0E002C0CC0FDD1F8A95E2F7C22B30
:1011F000D32BDA685DCF8C2F8F710E942407C82F04
:10120000D0E0DC2FCC27CC27DF71D06251CF8C2FE0
:101210008F710E94240755E0D695C7955A95E1F73E
:10122000CF70D0E0DC2FCC27282F30E084FF05C022
:1012300044E0220F331F4A95E1F7C22BD32BD0692C
:1012400037CF8D2F8F710E942407182FCE01992739
:101250000E947307C12FD0E0DC2FCC27CC27DF7191
:10126000C82BD92BD2CF80959091FD0198239093D4
:10127000FD0108958091FD019091D401892B9091F9
:10128000D301992391F0892B90910A01992371F050
:101290009091440297FF0AC09EE12AE831E040E0C5
:1012A000915040F441111092D301089596E022E844
:1012B00031E0F5CFF90151919F01552389F34F5F3B
:1012C000EFCF80919E0290916502981301C008951E
:1012D0008F5F8770FACFA82FA77023E09695879528
:1012E0002A95E1F7FC01EE0FFF1FE80FF91FE60F4B
:1012F000F71F50E040E080E0219130E00A2E02C06C
:10130000369527950A94E2F721703327042E01C001
:10131000220F0A94EAF7822B4F5F5F4F433051054B
:1013200059F70895953070F4803198F440E1949F16
:10133000900111246DEA71E0820F932F911D0E949C
:101340006B0908959C5F923020F46AEA71E090E0A6
:10135000F6CF80E00895262F277091E001C0990F05
:101360002A95EAF723E0769567952A95E1F7FB0140
:10137000EE0FFF1FE60FF71FE40FF51F50E040E0F0
:10138000682F70E08191DF0111979B01042E02C04C
:10139000369527950A94E2F721702195282729236D
:1013A00028272C934F5F5F4F4330510559F708951D
:1013B000282F862F953068F4203150F430E1939F28
:1013C000B0011124620F711D4DEA51E00E94AB097A
:1013D00008959C5F9230E0F7622F70E04AEA51E096
:1013E000F5CF80930E02089590910E0221E030E037
:1013F000F90101C0EE0F8A95EAF7D90102C0AA0FE0
:10140000BB1F6A95E2F7EA2B01C0220F4A95EAF763
:10141000892F8E23E81305C0292B822F0E94F10902
:10142000089520952923F9CF21E030E001C0220F53
:101430008A95EAF7209580910E0282230E94F10995
:1014400008959091D201809589238093D201282F0D
:10145000277069F4891759F09091450292FF07C0EF
:101460008695869586950E94140A1092D201089559
:1014700021E030E001C0220F8A95EAF780910E0248
:10148000822B0E94F109089580930D0208958295A0
:1014900090E09C01220F331F220F331F2C7C959567
:1014A0008795959587958373282B30E0C901880F20
:1014B000991F8A7A359527952575822B08959091E5
:1014C0000A01992359F19091440297FF27C0E82F10
:1014D000E695E695E695EE3180F4F0E0E857FE4FAC
:1014E000282F277081E090E001C0880F2A95EAF745
:1014F000809592818923828308959091430290FF81
:1015000019C01F928F9388E496E09F938F930E9457
:1015100075040F900F900F900F900895E2E8F1E09E
:101520009191891303C0DF0111971C9291E0E83873
:10153000F907B1F7089590910A01992349F1909123
:10154000440297FF25C0E82FE695E695E695EE3133
:1015500070F4F0E0E857FE4F877021E030E001C002
:10156000220F8A95EAF78281822B828308959091D7
:10157000430290FF1EC01F928F938AE296E09F93D2
:101580008F930E9475040F900F900F900F90089505
:10159000A2E8B1E0EFEF90E02D91821751F0EF3F1C
:1015A00019F4211101C0E92F9F5F9630A9F7EF3F91
:1015B00009F408950E2E000CFF0BE058FE4FD5CF16
:1015C0008091430283FF96C087E096E09F938F93BC
:1015D0000E947504809138021F928F9382E096E0FA
:1015E0009F938F930E94750480E096E09F938F9362
:1015F0000E94750480913902282F082E000C330BAD
:101600003F938F938DEF95E09F938F930E94750486
:101610008BEF95E09F938F930E94750480913A021F
:10162000282F082E000C330B3F938F9388EF95E003
:101630009F938F930E94750486EF95E09F938F93FD
:101640000E94750480913B02282F082E000C330B5A
:101650003F938F9383EF95E09F938F930E94750440
:1016600081EF95E09F938F930E94750480913C02D7
:10167000282F082E000C330B3F938F938EEE95E0AE
:101680009F938F930E9475048BEE95E09F938F93A9
:101690000E9475048DB79EB780960FB6F8949EBFD2
:1016A0000FBE8DBF809132021F928F9388EE95E01E
:1016B0009F938F930E94750486EE95E09F938F937E
:1016C0000E947504809131021F928F9383EE95E002
:1016D0009F938F930E94750480EE95E09F938F9364
:1016E0000E9475048DB79EB70C960FB6F8949EBFF6
:1016F0000FBE8DBF0E9415069C019091390280910A
:101700003A02982B21F030933602209335029091C3
:101710003B0280913C02982B21F0309334022093BD
:101720003302E0913F02F0914002309749F082E0AD
:10173000809337020680F781E02D87E392E00995D8
:1017400008954091390290913B0220913C0266231A
:1017500009F469C0942B922B20913A02922B31F01C
:1017600098E09093320291E0909330028D3C41F4E6
:101770000E949A06819580933A020E94E00A089599
:101780008E3C19F40E949A06F6CF8F3C31F40E94E9
:101790009A06819580933902F0CF803D19F40E941A
:1017A0009A06F8CF893D29F40E94780680933B027F
:1017B000E4CF8A3D21F40E9478068195F7CF8B3DD6
:1017C00031F40E947806819580933C02D6CF8C3DFF
:1017D00019F40E947806F8CF9FE2980F983070F4C1
:1017E000815D990B21E030E001C0220F8A95EAF774
:1017F00080913802822B80933802BFCF8D3D31F427
:1018000080913102816080933102B7CF8E3D21F407
:10181000809131028260F7CF8F3D09F0AECF809189
:1018200031028460F0CF8D3C59F480913A0287FFF9
:101830000DC010923A0241110BC01092320208C042
:101840008E3C81F480913A0218169CF3442381F077
:1018500080913B0290913C02892B09F08ECF10922F
:1018600030028BCF8F3C49F447FFF0CF1092390202
:1018700080913A028111ECCFE0CF803D19F414162B
:10188000ACF3E4CF893D29F4191604F710923B021A
:10189000DDCF8A3D19F497FFD9CFF8CF8B3D29F4DE
:1018A00027FFD4CF10923C02D1CF8C3D19F41216F1
:1018B000CCF3CCCF9FE2980F983090F4815D990BD8
:1018C00021E030E0B90102C0660F771F8A95E2F788
:1018D000CB01809590913802892380933802B6CF4E
:1018E0008D3D31F4809131028E7F80933102AECFF5
:1018F0008E3D21F4809131028D7FF7CF8F3D09F02D
:10190000A5CF809131028B7FF0CF9FB7F8941092D2
:101910004C029FBF90915B02943009F048C0209127
:10192000E9002F703091EC00932F917030FD90E81A
:10193000922B25E02093E9002091EB0020FF34C09A
:101940002091EE0027FF30C020914B02222321F08E
:101950002091E80025FF28C010924B0226E030912C
:10196000E80035FF14C08093F1008091E80085FD08
:1019700027C08091E80080FFFCCF8091E8008E773F
:101980008093E8009F709093E90080E00895309183
:101990005B02343049F43091EB0035FD05C0215035
:1019A00041F481E080934B029F709093E9008FEFA8
:1019B0000895EFE9FFE03197F1F700C00000CFCFC5
:1019C0008FB7F89421E020934C028FBFDBCF0F93A9
:1019D0001F93CF93DF938B01EA0190915B029430C8
:1019E00061F58093E9008FEF9091E800815095FDBB
:1019F00006C095ED9A95F1F700008111F5CF809121
:101A0000E80085FF1AC00E94BC04811111C08091BA
:101A1000E80085FD06C08091E8008E778093E8009D
:101A2000F2CFF80181918F018093F100219779F72E
:101A30008091E8008E778093E800DF91CF911F912D
:101A40000F91089543E050E0BC0184E00E94E70C50
:101A5000089546E050E0BC0184E00E94E70C089540
:101A600040E250E0BC0184E00E94E70C0895CF936F
:101A7000DF93EC0148E050E0BC0181E00E94E70CFC
:101A800088E0FE01A1E5B2E001900D928A95E1F7B0
:101A9000DF91CF91089581E08093E00080E2809310
:101AA000D8001092C9008FE19EE40197F1F700C0C1
:101AB000000087E090EBDC018093A2029093A302E8
:101AC000A093A402B093A50288E19CE00FB6F8941D
:101AD000A895809360000FBE90936000FFCFCF93D6
:101AE000DF93D82FCFEF8111C4E26C2F85E290E015
:101AF0000E9434256FEFD11165E086E290E00E94EC
:101B000034256C2F87E290E00E943425DF91CF913D
:101B10000895CF93DF93C9EBD2E060E0CE010E943D
:101B200034252196C11584E0D807B9F7DF91CF910C
:101B300008950F931F93CF93DF93142F022F8430B8
:101B4000F0F461111CC094E0899FE0011124C75595
:101B5000DD4F82E090E0442311F090E080E0632FBD
:101B60008C0F9D1F0E94342583E090E0112311F01B
:101B700081E090E0602F8C0F9D1F0E943425DF9143
:101B8000CF911F910F9108951F93CF93DF93122F41
:101B90008430E0F46530D0F44031C0F490E2699FC5
:101BA000E001112450E0440F551FC40FD51F90EAE7
:101BB000899FC00DD11D1124632FCE0189960E94EB
:101BC0003425612FCE018A960E943425DF91CF9172
:101BD0001F9108958F929F92AF92BF92CF92DF9202
:101BE000FF920F931F93CF93DF9300ED15E080E5F5
:101BF000C82E83E0D82EC0E05601D0E015C0F40115
:101C0000259134914F2D6D2F8C2F0E94C40D82E0B1
:101C1000880E911CF39480E1F812F1CF80E2A80EB7
:101C2000B11CDF5FD53019F04501F12CE8CFF80188
:101C30002591349141E060E08C2F0E94990DF801CC
:101C400032962591349140E060E08C2F0E94990DEE
:101C50000C5F1F4FCF5F80EAC80ED11CC43009F063
:101C6000CBCFDF91CF911F910F91FF90DF90CF905D
:101C7000BF90AF909F908F90089580E00E946F0D6D
:101C800060E088E290E00E9434250E94EA0D0E9404
:101C9000890D81E00E946F0D089585E290E00E9419
:101CA0001625843289F486E290E00E94162585305C
:101CB00059F487E290E00E94162591E0843209F001
:101CC00090E0892F8170089580E0FCCFFF920F9300
:101CD0001F93CF93DF93F42E843040F5611126C01B
:101CE00024E0829F8001112407551D4F82E090E07F
:101CF000442311F090E080E0800F911F0E94162590
:101D0000C82FD0E0DC2FCC2783E090E0FF2011F03B
:101D100081E090E0800F911F0E9416259E01282BE4
:101D2000C901CDB7DEB7E5E00C94F42490E080E083
:101D3000F8CF0F931F93CF93DF93843030F5653046
:101D400020F5403110F520E2629F8001112450E01F
:101D5000440F551F040F151F30EA839F000D111DFE
:101D60001124C80189960E941625C82FD0E0DC2FC7
:101D7000CC27C8018A960E9416259E01282BC901EE
:101D8000DF91CF911F910F91089590E080E0F8CFFF
:101D9000462F672F753038F4403160F4843050F4AA
:101DA0000E94990E08957D3F41F4411103C041E026
:101DB000843048F090E080E008957C3FD9F74111ED
:101DC000F9CF8430B8F760E00E94660E0895CF9294
:101DD000DF92FF920F931F93CF93DF936C010091DB
:101DE0000E0280910D02082BC3E0D0E010E0FC2E23
:101DF000C8010C2E02C0959587950A94E2F780FDE4
:101E00000CC02197A0F7F12C8F2DDF91CF911F915E
:101E10000F91FF90DF90CF900895B6018C2F0E9414
:101E2000C80E0E941508019761F3EECFCF93DF93A0
:101E3000EC010E94E70EBE010E94C80E0E94150828
:101E4000DF91CF910895FC0124812223C1F080818C
:101E500091810E94160F92959F70963091F058F4E0
:101E6000925F9F70923058F4803F19F030F4883EB2
:101E700030F481E008959A5FF4CF843FD1F380E09D
:101E80000895883EB0F3813FD1F7F3CFA6E0B0E0EC
:101E9000ECE4FFE00C94DA2449835A8349815A81A7
:101EA0009923A1F0222391F0CA010E94E70E182F76
:101EB000682F89819A810E94D80969817A81812F4E
:101EC0000E94C80E2696E3E00C94F624CA010E94F4
:101ED0009209182FF2CFCF93C82F8091450282FB31
:101EE000992790F99C17F9F0C0FB82F9809345027D
:101EF000609144027091450284E090E00E94522576
:101F000082E00E94210A8091430280FF0CC01F9250
:101F1000CF9380EB92E09F938F930E9475040F9074
:101F20000F900F900F90CF910895EF92FF920F9323
:101F30001F93CF93DF9380910A01882309F469C02E
:101F40008091440287FF65C00E943A09809389010D
:101F500040E250E065ED71E088E891E00E9468257C
:101F6000892B09F451C080E2E8E8F1E0A5EDB1E089
:101F700001900D928A95E1F7E0913F02F0914002C5
:101F8000309709F441C086E0809388010480F58190
:101F9000E02D88E891E009958091430282FF34C0EA
:101FA00080FF0EC0809189011F928F938DEC92E08B
:101FB0009F938F930E9475040F900F900F900F9036
:101FC000C8E8D1E007EC12E08091430280FF0BC02B
:101FD0008A811F928F931F930F930E9475040F9015
:101FE0000F900F900F90219681E0C63AD80761F7C5
:101FF0008091430280FF08C085EC92E09F938F930D
:102000000E9475040F900F90CDB7DEB7E6E00C94F8
:10201000F3240E943A098093800148E050E065EF84
:1020200071E080E891E00E946825892B69F388E0DF
:10203000E0E8F1E0A5EFB1E001900D928A95E1F7BB
:10204000E0913F02F09140023097F1F20280F3817B
:10205000E02D80E891E009958091430282FFD4CF82
:1020600080FF0EC0809180011F928F938AEE92E0D4
:102070009F938F930E9475040F900F900F900F9075
:10208000C0E8D1E086E8E82E81E0F82E04EE12E008
:102090008091430280FF0BC08A811F928F931F9310
:1020A0000F930E9475040F900F900F900F90219640
:1020B000EC16FD0669F78091430280FFA5CF82EE02
:1020C00092E09CCF1092FD0180910A01882339F1A2
:1020D0008091440287FF23C0EAE8F1E08EE1DF014E
:1020E0001D928A95E9F790E080E00E94460690E014
:1020F00080E00E9421061092D4010E94950F86E094
:10210000E7E3F2E0DF011D928A95E9F710923202CF
:1021100010923002109231020E94E00A0895E2E823
:10212000F1E086E0DCCFAAE2B0E0E9E9F0E10C946E
:10213000DA248DE592E02091F100DC012D93CD01B0
:10214000B2E085369B07B9F780915E02833009F4CF
:1021500072C0B8F4813009F449C0823009F4B3C0C8
:102160008091E80083FF91C280915D0290915E02B0
:102170009A3008F08AC2E92FF0E0E958FA4D0C9441
:10218000BE248A3009F48EC08B3009F471C08930C6
:1021900039F780915D02813219F780916102909147
:1021A0006202009711F00297D9F68091E800877FCC
:1021B0008093E8008091E80082FF38C09091F3009E
:1021C0008091F200029731F48091F100813011F09A
:1021D000863021F48091F100809350028091E800D4
:1021E0008B778093E8000E94ED04BACF80915D0266
:1021F000813A09F0B5CF8091E800877F8093E800AD
:102200008091610290916202892B61F468E081E51E
:1022100092E070E00E9499058091E8008B778093AE
:10222000E8009ECF60E090E080E0F3CF80915B0219
:102230008111C0CF95CF80915D02813A09F090CF96
:102240008091610290916202892B09F089CF80917F
:10225000E800877F8093E8008091E80080FFFCCF52
:1022600080910A018093F1008091E8008E77B9CFC8
:1022700080915D02813209F073CF8091610290916B
:102280006202892B09F06CCF8091E800877F8093F0
:10229000E8000E94ED0480915F0280930A010E9491
:1022A00062105ECF80915D02813209F059CF80913A
:1022B000E800877F8093E8000E94ED04809160022F
:1022C00080934F024DCF80915D02813A09F048CF53
:1022D0008091E800877F8093E8008091E80080FF8C
:1022E000FCCF80914F02BECF803899F0823809F040
:1022F000CCC1809161028F70873008F0C6C1809395
:10230000E9008091EB0085FB882780F91092E900B5
:1023100006C08091590290915A0291118260909169
:10232000E800977F9093E8008093F1001092F1000D
:102330008091E8008E77A5C1882309F493C182308B
:1023400009F0A3C180915F02811196C18091610261
:102350008F702FEF280F263008F097C18093E90087
:102360002091EB0020FF88C1933031F48091EB0085
:1023700080628093EB0080C19091EB00906190931C
:10238000EB0021E030E001C0220F8A95EAF72093AC
:10239000EA001092EA008091EB008860EACF811198
:1023A00074C110915F021F778091E3008078812BC8
:1023B0008093E3008091E800877F8093E8000E948B
:1023C000ED048091E80080FFFCCF8091E3008068FD
:1023D0008093E30082E0111183E080935B0255C19A
:1023E0008058823008F051C120915F023091600224
:1023F0002C3DE3E03E07A1F583E08A838AE28983EE
:102400004FB7F894DE01139620E03EE051E2E32F4F
:10241000F0E050935700E49120FF03C0E295EF7085
:102420003F5FEF708E2F90E0EA30C0F0C7968D933B
:102430009D932F5F243159F74FBF8091E800877F2C
:102440008093E8006AE270E0CE0101960E9499054F
:102450008091E8008B778093E80017C1C096E7CFA2
:102460008091610290916202432F552743305105BC
:1024700009F44AC078F54130510509F47AC084E77F
:1024800090E0EAE7F6E04230510509F0FEC0209105
:10249000E800277F2093E8002091630230916402D6
:1024A0008217930708F49C0140E02115310509F0DB
:1024B00065C0411163C08091E80082FDC9CF809161
:1024C0005B02882329F2853019F28091E80083FFAE
:1024D000F2CFBECF4132510509F43CC04232510522
:1024E00009F0D3C08430910508F0CFC0FC01EE0F95
:1024F000FF1FE359FE4F0190F081E02D87599E4F59
:10250000DC018C9190E01AC0332721303105D1F0E5
:102510002115310561F02230310509F0B6C0E0E047
:10252000F7E0E4918E2F90E0E0E0F7E007C0E8E20A
:10253000F7E0E4918E2F90E0E8E2F7E0009709F4ED
:10254000A4C0A5CFEEE0F7E0E4918E2F90E0EEE09E
:10255000F7E0F4CF8430910508F097C0880F991FF9
:10256000FC01EB58FE4F0190F081E02D89E090E0F6
:102570008ECF82E190E0EEEEF6E089CF80915B02B3
:10258000882309F465CF853009F462CF8091E80093
:1025900083FD5ECF8091E80082FD8DCF8091E800C1
:1025A00080FF83CF9091F3008091F20021153105D7
:1025B00019F08830910550F041E0089709F040E0AB
:1025C0008091E8008E778093E8006FCF449140932C
:1025D000F1003196215031090196E8CF803809F099
:1025E00054C08091E800877F8093E80080915C026E
:1025F0008093F1009DCE811148C010915F0212308E
:1026000008F043C08091E800877F8093E800109332
:102610005C020E94ED04112311F084E005C080915A
:10262000E30087FDFACF81E080935B0242E061EC3A
:1026300081E00E940C0542E261EC84E00E940C05FE
:1026400042E261EC82E00E940C0542E260EC83E031
:102650000E940C0542E261EC85E00E940C0580912D
:102660005B0213C080915F02813079F481E0933086
:1026700009F080E080935A021092E9008091E8000E
:10268000877F8093E8000E94ED048091E80083FF3B
:102690000AC08091E800877F8093E8008091EB007A
:1026A00080628093EB00AA96E3E00C94F6240E94EB
:1026B00062102FEF84E39CE0215080409040E1F7CE
:1026C00000C0000088E19CE00FB6F894A8958093C4
:1026D00060000FBE90936000FFCF882321F00E941E
:1026E00033090E94950F0895882339F09091FD01D8
:1026F000982B9093FD010E94950F0895882381F1F6
:102700009CEF980F913A28F40E945F0A0E94950F5F
:10271000089590E2980F983050F4877091E001C0CE
:10272000990F8A95EAF7892F0E943309EFCF9BE52D
:10273000980F933028F490E080E00E9446060895B8
:1027400098E5980F9B3128F490E080E00E942106E4
:10275000089593E3980F933118F460E00E94A10B61
:102760000895CF93C82F8823B1F18CEF8C0F813A55
:10277000A0F580910A01882301F18091440287FF2E
:102780001CC0EC2FE695E695E695F0E0E857FE4F85
:10279000828190E04C2F477021E030E002C0220F90
:1027A000331F4A95E2F782239323892B79F08C2FEC
:1027B0000E945F0A0E94950F09C0E2E8F1E0819152
:1027C000C817A9F381E0E838F807C9F78C2F0E94F1
:1027D0009B0A0E94950FCF91089580E28C0F88305C
:1027E00068F4C77021E030E001C0220FCA95EAF713
:1027F0008091FD01822B8093FD01EBCFEBE5EC0F87
:10280000E33040F4F0E0E55FFE4F808190E00E940D
:102810004606E1CFE8E5EC0FEB3150F4F0E0EE0FC7
:10282000FF1FE25FFE4F808191810E942106D3CF7E
:1028300083E38C0F833178F661E08C2F0E94A10B2B
:10284000CACFAAE0B0E0E7E2F4E10C94CD248E0117
:102850000F5F1F4F8AE0F80111928A95E9F794E41F
:10286000E92E91E0F92E680129E4422E21E0522E52
:1028700066246394712C49E5842E41E0942EF7017F
:1028800081917F018F3F09F445C0F894E82FE295CC
:10289000EF70F0E021A18F70A30102C0440F551F1B
:1028A0008A95E2F7CA01922F982B91A392A1809565
:1028B000892382A3789400C0E9E4F1E021E030E0CC
:1028C000B12CA12C41914F3F09F44BC0A42FA295EC
:1028D000AF70B0E090968C9190E04F7002C09595EB
:1028E00087954A95E2F780FD3CC0C901A82AB92A1C
:1028F000220F331F8E169F0629F7F701319780812B
:102900008F3F11F00E940D0750EA5A95F1F7F6013A
:10291000B182A082F2E0CF0ED11C4E145F0409F008
:10292000AECF4AE050E0B80183E092E00E94682513
:10293000892BE1F08AE0F801A3E0B2E001900D926A
:102940008A95E1F781E0809302020E941506909338
:1029500001028093000210E0812F2A96E0E10C949E
:10296000E92490E080E0C2CF10E01FC01091020285
:10297000112389F380910002909101020E94FA05CF
:10298000059748F34AE050E063E072E08EE192E0A0
:102990000E946825892B41F38AE0E3E0F2E0AEE192
:1029A000B2E001900D928A95E1F710920202D4CF25
:1029B0001F93CF93DF93182FEB010E94B113209741
:1029C00039F4812F0E947E13DF91CF911F910895DA
:1029D0008FE99FE00197F1F700C000002197EFCF4A
:1029E0000F931F93CF93DF93C62FD42F022FFC0199
:1029F00085818823A9F06093A1020E941506909317
:102A0000A00280939F02C77081E001C0880FCA9521
:102A1000EAF70E947413DF91CF911F910F910895EF
:102A20008091A102681334C080919F029091A0020E
:102A30000E94FA05883C910558F510E21D0FCD174C
:102A4000B9F080E28C0F883040F4C77081E001C09B
:102A5000880FCA95EAF70E946D13183048F481E098
:102A60009D2F977001C0880F9A95EAF70E94741302
:102A700070E060E0802F0E94D814183060F6D770A4
:102A800081E001C0880FDA95EAF70E946D13C3CF89
:102A9000C77081E001C0880FCA95EAF7F6CFA8E0B9
:102AA000B0E0E5E5F5E10C94CD248C01DC01149651
:102AB0008C911497882309F4BEC021E04C911196A3
:102AC0005C91119712966C91129713967C911397C3
:102AD00015969C910E94460F7C01F8018581882300
:102AE00009F448C1C70197578038910508F020C5FF
:102AF000FFE0FE1508F48FC08FEF93E00E941625CB
:102B0000811189C069EBA62E62E0B62EE1104DC09E
:102B1000FE01339686E0DF011D928A95E9F75AE0BF
:102B2000452E7501BFEFEB1AFB0AC5010E94162561
:102B300089831A82882309F46EC0813009F07FC02E
:102B40006501E2E0CE0ED11CC7010E9416258A83E2
:102B5000882309F460C09FEF980F9330A0F5F3E04D
:102B6000AF0EB11CC6010E9416258B83882309F481
:102B700052C01C82DE0111967D01F70120812223C3
:102B800081F2213009F09DC091818281913009F05C
:102B900058C0F2E0EF0EF11C70E060E0893311F4F0
:102BA00060E570E00E94D81453C0A11424E0B2067E
:102BB00091F1C5010E941625811101C0EA943FEFF1
:102BC000A31AB30AA3CF56018430A1F642E0E42E43
:102BD000F12C56012FEFA21AB20AC6010E94162547
:102BE000E1E0F0E0EC0FFD1FEE0DFF1D8083882378
:102BF00091F08C3741F4E2E0F0E0EC0FFD1FEE0DB8
:102C0000FF1D1082B7CF3FEFE31AF30A650187E09B
:102C1000E816F104F1F68091D201877061F0D801D5
:102C200015968C91882339F08091450282FF03C06C
:102C300082E00E94210A2896E0E10C94E9245701E1
:102C400099CF923049F422E0E20EF11C0E94B113B8
:102C50009FEFE91AF90A91CF933031F432E0E30E95
:102C6000F11C0E947E13F4CF943021F08FEFE81A0C
:102C7000F80AEECF92E0E90EF11C30E020E0B70157
:102C80006F5F7F4FD70111964C918053990B8A301B
:102C9000910560F021153105D9F2EFE9FFE0319798
:102CA000F1F700C0000021503109F4CF429EF0013D
:102CB000439EF00D11249C012E0F3F1F842F7B019A
:102CC000DECFE22FF0E0E35FFD4F5490822F869538
:102CD0008695869590E0FC01E350FE4F6490277046
:102CE000712C022E02C0759467940A94E2F7F1E009
:102CF0006F227724FC01E351FE4F8490912C022E29
:102D000002C0959487940A94E2F731E083229924D3
:102D1000FC01E352FE4FC490D12C02C0D594C7945D
:102D20002A95E2F781E0C822DD246114710419F0CC
:102D300081EE0E94B1138114910419F086EE0E9475
:102D4000B11370E060E0852D0E94D81481149104C5
:102D500019F086EE0E947E136114710419F081EE61
:102D60000E947E13C114D10409F472CF70E060E0B8
:102D70008CE218CFF701E851FC47E730F10508F085
:102D8000CAC3EF57FA4D0C94BE2426E241EE61EE21
:102D9000C8010E94F0143FCF27E245EE65EEF8CF60
:102DA00026E241EE60EEF4CF27E245EE64EEF0CF8E
:102DB00026E241EE62EEECCF27E245EE66EEE8CF8A
:102DC00028E241E0EBCF809144028160809344028D
:102DD00095C0809145028860809345028FC08091A4
:102DE00044028260F3CF809144028460EFCF8091EF
:102DF00044028860EBCF809145028160EDCF8091E5
:102E000045028260E9CF809144028061DFCF8091EA
:102E100044028062DBCF809144028064D7CF0E945D
:102E20006210809144028068D1CF809144028C600E
:102E3000CDCF809145028360CFCF809144028E7FB9
:102E4000C5CF80914502877FC7CF809144028D7F97
:102E5000BDCF809144028B7FB9CF80914402877FA0
:102E6000B5CF809145028E7FB7CF809145028D7F8F
:102E7000B3CF809144028F7EA9CF809144028F7D91
:102E8000A5CF809144028F7BA1CF0E9462108091D8
:102E900044028F779BCF80914402837F97CF8091AC
:102EA00045028C7F99CF8091440282FB992790F94B
:102EB00021E0922790FB82F990FB83F987CF8091E4
:102EC0004502982F909591708E7F892B90FB81F908
:102ED00083CF90914402892F8F7B96FF806476CFB9
:102EE0000E94621090914402892F97FB87F98058C5
:102EF0006DCF61E08EE090E00E9434256091440245
:102F00007091450284E090E00E9452250E94621078
:102F100082CE60E0EFCF90914402892F8F7E94FFA4
:102F2000806154CF90914402892F8E7F90FF816001
:102F30004DCF90914502892F877F93FF88604CCFBA
:102F400085E3E4C285E3F1C2A7E7EA16ACE7FA0637
:102F500009F470C082E0B8E7EB16BCE7FB0609F4A1
:102F60006AC0E3E0EE16ECE7FE0609F4A6C008F03E
:102F70006EC021E0E2162CE7F20609F4A4C008F0C6
:102F800086C0E1148CE7F80609F474C0F801858165
:102F9000E080F180882309F4A4C0C7010E94E70EF5
:102FA000D82E682FC7010E94D809B7018D2D0E9425
:102FB000C80E0E9415087C01882ED8011596AC9089
:102FC000159716969C9092943FE093228091D2019F
:102FD000877009F1DA2CAA20F9F08F2D807F8034D8
:102FE00069F080E28E0D8830B0F08F2D807E8032C7
:102FF00029F4B1E0BE1578F4992069F0809145027A
:1030000082FF09C082E00E94210A8091D20187706C
:10301000DD24D3948111D12CCF2CC2942FE0C22275
:10302000EBE0EC1508F4C5C0EC2DF0E0E857FA4DE4
:103030000C94BE2481E00E94380A43E062E081E003
:103040000E94F409E8CD81E00E94140AF6CF9BE5C6
:10305000E9169CE7F90609F442C0ACE5EA16ACE7CC
:10306000FA0699F1BAE5EB16BCE7FB0609F08ECF3C
:1030700081E032C00E946210EFEFF4E32CE0E150F7
:10308000F0402040E1F700C000000E944B0D9091FD
:103090004302892F8E7F90FF81608093430280FFDF
:1030A00009C08FE992E09F938F930E9475040F905F
:1030B0000F90B1CD8DE892E0F6CF6FEF7FEF90E00B
:1030C00080E00E9452250E9457138091450282FBA6
:1030D000882780F991E089270E946B0F57CF80E005
:1030E000FBCFC7010E949209D82E5FCFFF2DFF7042
:1030F000BF2E8F2D807F19F0B29490EFB922AA20B5
:10310000B9F0BB2069F080E28E0D883010F081109C
:1031100009C08091FD01B82AB092FD010E94950F6F
:103120008E2D45C08091D401B82AB092D401F6CF3B
:103130008E2D0E947E13BB20E1F180E28E0D88303F
:1031400010F0811004C08B2D0E94330906C0B0948A
:103150008091D401B822B092D4010E94950F29C069
:103160002F2D2F70B22E8F2D807F803219F0B294C8
:1031700080EFB822882059F031E0831609F482C02C
:10318000AA2009F48EC0992009F44FC0C9CF8091BC
:10319000450282FD46C0AA20F1F1BB2039F08091A2
:1031A000FD018B298093FD010E94950F80E00E9414
:1031B000B113AC2DA850BB0B149710F40E946B06F2
:1031C000DD20A9F08091D20180FD11C0F8011582A7
:1031D0008695869586950E94380AC8010E944F15EB
:1031E0008091D2018695869586950E94140A20E0EA
:1031F000D8014C9111965C91119712966C9112978F
:1032000013967C91139714968C91149715969C9114
:103210000E94460F10CD80E00E947E13BB2049F231
:1032200092CFAA20A1F0911004C08B2D0E9474139C
:10323000C0CF81E09812BDCF8091D3019B2D982300
:10324000B91609F4B6CF8B298093D301B2CF911070
:10325000B0CF8B2D0E946D139091D3018B2D8923BC
:1032600029F08B2D809589238093D3019091A9011A
:103270008B2D892309F49DCF8B2D809589238093F5
:10328000A90197CFAA2029F095E0991508F491CFCC
:10329000CCCFA4E0A91508F48CCF8B2D0E946D1320
:1032A00088CF9920D1F3B9E38B1218C1EFEFF7EE75
:1032B00023E0E150F0402040E1F700C000000EC1E3
:1032C0008F2D86958695837061F0813009F071CFDE
:1032D000C7019370A11002C080E090E00E94210617
:1032E00068CFC7019370A11002C080E090E00E94F7
:1032F00046065FCF6A2D8E2D0E94A10B5ACF8F2DCF
:10330000837091F5A11055CF4E2D4295469547708B
:10331000440F440F8E2D8F70042E01C0880F0A9425
:10332000EAF72E2D2071E4FE07C02FE030E001C047
:10333000220F4A95EAF720953F2D36953695337042
:10334000323069F050F440910D02313029F0822B77
:1033500084230E94440A2DCF842B822BFACF282B62
:1033600080910D028227F5CF8695AA2011F08F2D2E
:103370008170882309F41DCF4E2D429546954770E4
:10338000440F440F8E2D8F70042E01C0880F0A94B5
:10339000EAF72E2D2071E4FE07C02FE030E001C0D7
:1033A000220F4A95EAF720953F2D369536953370D2
:1033B000323069F050F440910E02313029F0822B06
:1033C00084230E94F109F5CE842B822BFACF282B7F
:1033D00080910E028227F5CF3F2D3F70F32EAA2059
:1033E00029F0832F0E94380A8E2D20CF8E2D0E9427
:1033F0006D138F2D0E94140ADCCE8E2D92EF89164C
:10340000B1F1981570F0A0EF8A16D1F0B1EF8B16DC
:1034100091F0AA2009F45DC0911082CE8F2D8F719A
:103420002AC0E3EF8E1651F1F4EF8F12F2CF8091A4
:10343000450282FD2FC08F2D8F71AA20D9F21BC0AB
:10344000AA2081F024E0291508F4B3CE2F2D2F7186
:1034500081E090E001C0880F2A95EAF790910E0272
:103460008927AFCF35E0391508F4A3CEEFCF8F2DE4
:103470008F71A110BFCF0E94380A9BCE80E0AA2096
:1034800009F49FCF9F2D9F7181E001C0880F9A950D
:10349000EAF797CFAA2091F08F2D8F71F82E0E9416
:1034A000380A8091450282FF07C0A8E0FA9EC00159
:1034B000112483608093D2018F2DDDCF81E00E94A3
:1034C000210AB1E0B91508F074CE82E00E94210A09
:1034D00070CE992039F0893309F4E8CE8E2D0E9400
:1034E0007E1367CE8F2D8F7185CFB6E1EB16BCE7CB
:1034F000FB0609F029CD8091FD018A7A91E009F45B
:1035000090E09093A80181111BCD89E20E949B0A53
:103510000E94950F80CBE6E1EE16ECE7FE0641F542
:103520008091A80181110ECD89E20E945F0AF0CF3F
:10353000F701E851FC47E730F10508F422CC10927E
:10354000A102C7019057839780F684E090E00E9423
:103550001E259093450280934402F701E150F04705
:10356000E232F10508F02FCCEC56FA4D0C94BE2453
:10357000F7E7EF16FCE7FF0609F465CD28E7E2164A
:103580002CE7F20609F002CD82E05ECDCF93DF9307
:103590008091D101807F09F04DC08091D0018823B6
:1035A00009F448C0E0919E0250916502C091CC019F
:1035B000D091CB016091CD017091CE0147E05E17B3
:1035C000C9F18E2F90E0E49FF0011124EA59FD4FDC
:1035D0002481222391F1489FF001499FF00D11248D
:1035E000DF01AA59BD4F11962C9111972C1325C0BC
:1035F0002C912D1322C015962C91159721111DC0C9
:1036000012962D913C91261B370B283C3105A8F4CE
:103610008091D1018F7080618093D101E459FD4F79
:1036200080818F70806180838BEC91E00E944F15C8
:103630000E946109DF91CF910895FC013196E770F6
:10364000BECFA4E1B0E0E7E2FBE10C94D1248C0111
:1036500086E0F801DE011F9601900D928A95E1F750
:10366000F8018481E5809BECA92E91E0B92E909120
:10367000CF01911128C0882319F1EE20F1F0C80183
:103680000E94230FF82E8823C1F087E0F801D501AE
:1036900001900D928A95E1F78091CF01813031F44C
:1036A0008091CB019091CC010E94160F0E94C61A06
:1036B0008F2D6496ECE00C94ED24C8010E944F1508
:1036C000FF24F394F5CFD080C18082809380F09066
:1036D000D0012091CD013091CE01A401421B530BAA
:1036E000FF2009F4D9C0483C510508F092C0882356
:1036F000F9F29091CC018091D101282F207F09F01F
:1037000056C0C91214C09091CB01D91210C0E1105B
:1037100048C08F7080618093D1018BEC91E00E9452
:103720004F158091D101F8018683F12CC1CFE110B2
:1037300038C06C2D8D2D0E947E046C2D8D2D0E9425
:103740007E04E82E8111F1CFDF86C88A8F859889A3
:103750000E94160F292F22952F70243058F49F7045
:10376000223088F0992399F0F8019681907F79F4BE
:10377000FE2C9ECF2A5F2F70223068F0C8010E9475
:103780004F15EF2CF5CF992311F0882389F3805E34
:10379000883070F3F3CF803F58F3815F833070F748
:1037A000E7CF8091D10181608093D101BECFC91252
:1037B00007C09091CB01D91203C0EE2009F48DC04F
:1037C000C8010E94230F882309F477CFEE2009F463
:1037D00074CF8091D101803288F02091CB0130915B
:1037E000CC01398728879B868A869091CF019C8758
:1037F0001D868E87CE0108960E944F1587E0F8013E
:10380000ABECB1E001900D928A95E1F70E94C61AE7
:1038100057CF9091D101292F207F51F48BEC91E06B
:103820000E944F1587E0F50111928A95E9F77DCF47
:10383000882309F43DCF8091CC018C1110C0809178
:10384000CB01D8120CC0E1100AC09683C8010E94B7
:103850004F1587E0F50111928A95E9F729CFC80144
:103860000E94230F882309F428CFEE2009F425CFE6
:103870008091D101803210F22091CB013091CC01A6
:103880003A8329839C828B829091CF019D831E82F3
:103890008F83CE010196B0CF483C5105D0F68823E6
:1038A00009F40ECFFE2CEE2009F407CF8091CC0155
:1038B0008C1120C08091CB01D8121CC08091D10105
:1038C00080FD0FC0982F907F61F08683903F31F08C
:1038D000982F907F905F8F70892B8683C8010E94FC
:1038E0004F1587E0F801ABECB1E001900D928A959D
:1038F000E1F7DECEC8010E94230F81117FCF8091B6
:10390000D10181608093D101C8010E944F15D0CEB2
:10391000ABE1B0E0EEE8FCE10C94D9244E8B5F8B78
:10392000688F798F8A8F9B8F192F91111092D401F4
:103930001D8A86E0FE017696DE011F9601900D92AB
:103940008A95E1F70A8D002341F021E04F855889DF
:1039500069897A89C8010E94460F0B8B1C8B87E00E
:10396000FE013F96DE01189601900D928A95E1F7CF
:10397000CE0108960E94211B81112AC087E0FE011A
:103980003896DE01119601900D928A95E1F78C85AB
:103990008823F1F02091650230E0C901019687701B
:1039A000992740919E0248171906E9F097E0929FE7
:1039B000D001939FB00D1124AA59BD4FFE0131963D
:1039C00001900D929A95E1F7809365020E9461093A
:1039D00017E080919E0290916502891312C06B9648
:1039E000E4E00C94F5240E9462101092650210929B
:1039F0009E0287E0EBECF1E0DF011D928A95E9F78A
:103A0000E7CF819FC00111248A599D4F0E94211B3D
:103A1000882329F380919E0290E001968770992770
:103A200080939E02D6CFA6E0B0E0E9E1FDE10C94E0
:103A3000D9240E9415068C018091FE019091FF010E
:103A40008017910781F019821A820E941506682F4B
:103A500049815A81792F80E090E00E94881C109360
:103A6000FF010093FE012696E4E00C94F5241F92DA
:103A70000F920FB60F9211242F933F934F935F93A2
:103A80006F937F938F939F93AF93BF93CF93DF9366
:103A9000EF93FF93D091E900DF708091EC00C82F85
:103AA000C17080FDC0E81092E9008091F000877F2E
:103AB0008093F00078940E9493101092E900809116
:103AC000F00088608093F000CD2BCF70C093E900A8
:103AD000FF91EF91DF91CF91BF91AF919F918F9126
:103AE0007F916F915F914F913F912F910F900FBEFA
:103AF0000F901F9018951F920F920FB60F921124DE
:103B00002F933F934F935F936F937F938F939F93E5
:103B1000AF93BF93EF93FF938091E10082FF15C0B5
:103B20008091E20082FF11C08091E1008B7F809341
:103B3000E10020914D022F5F822F62E30E949E24BC
:103B4000992309F4D0C020934D028091DA0080FFC0
:103B50002CC08091D80080FF28C08091DA008E7F31
:103B60008093DA008091D90080FFF3C080E189BDA5
:103B700082E189BD09B400FEFDCF81E080935B0244
:103B800086E696E09F938F930E94750480914E0283
:103B90000F900F90811109C00E949D040E943E0564
:103BA0008091E20084608093E2008091E10080FFD8
:103BB0001FC08091E20080FF1BC08091E2008E7FD9
:103BC0008093E2008091E20080618093E200809126
:103BD000D80080628093D80019BC85E080935B0296
:103BE0008EE696E09F938F930E9475040F900F903E
:103BF0008091E10084FF33C08091E20084FF2FC0F8
:103C000080E189BD82E189BD89B5982F917080FFDF
:103C1000FBCF8091D8008F7D8093D8008091E10008
:103C20008F7E8093E1008091E2008F7E8093E2009E
:103C30008091E20081608093E20080915C028823A1
:103C400009F495C084E080935B0282E796E09F933D
:103C50008F930E94750480915B020F900F9080916A
:103C6000E10083FF2FC08091E20083FF2BC0809191
:103C7000E100877F8093E10082E080935B021092F5
:103C80005C028091E1008E7F8093E1008091E200F0
:103C90008E7F8093E2008091E20080618093E20059
:103CA00042E060E080E00E940C058091F0008860B6
:103CB0008093F00086E796E09F938F930E947504AF
:103CC0000F900F90FF91EF91BF91AF919F918F91C6
:103CD0007F916F915F914F913F912F910F900FBE08
:103CE0000F901F90189510924D0280914C028823DE
:103CF00009F42BCF80915B028430C1F49091E900EC
:103D00009F702091EC00822F817020FD80E8892B2C
:103D100095E09093E9009091EB0090FF04C09091A2
:103D2000EE0097FD08C08F708093E90010924C025E
:103D30000CCF1092F1009091E80095FDFACF909190
:103D4000E80090FFF0CF9091E8009E779093E80014
:103D5000EACF19BC10925B028AE696E09F938F939C
:103D60000E94750410924E020F900F901ECF80910A
:103D7000E30087FD93E090935B0267CF78941F92F6
:103D80001FB61F9211248F939F93AF93BF9380917F
:103D9000470290914802A0914902B0914A020196CF
:103DA000A11DB11D8093470290934802A093490240
:103DB000B0934A02BF91AF919F918F911F901FBE08
:103DC0001F9018951F921FB61F9211248F939F93D7
:103DD000AF93BF9380914602811113C08091470237
:103DE00090914802A0914902B0914A024196A11DCA
:103DF000B11D8093470290934802A0934902B0936B
:103E00004A02BF91AF919F918F911F901FBE1F904B
:103E10001895CDB7DEB7E4970FB6F894DEBF0FBEA6
:103E2000CDBF85B7806885BF85B7806885BF84B7FB
:103E3000877F84BF0FB6F894A89580916000886151
:103E400080936000109260000FBE80E890E00FB693
:103E5000F89480936100909361000FBE85E89CE028
:103E600090937F0180937E010E949D040E943E05F5
:103E70008091E20084608093E200789480915B02FC
:103E80008823A1F01091E9001F709091EC00892F18
:103E9000817090FD80E8182B1092E9008091E80075
:103EA00083FD0E9493101F701093E90082E084BD8F
:103EB00093E095BD9AEF97BD80936E000E944D0EE2
:103EC000811102C00E943D0EE8E2F2E088E0DF01CD
:103ED0001D928A95E9F781E080931B0260E080E003
:103EE0000E94D50661E080E00E94D506EFE8F1E08F
:103EF0003197F1F700C0000010E080911B02181705
:103F000008F4C5C004E411E0D8018D918D018F3F04
:103F100011F00E940D07B1E009341B07A9F709E46D
:103F200011E039E5E32E31E0F32EF80181918F01A4
:103F30008F3F11F00E940D07E016F106B1F78AE0FD
:103F4000EEE1F2E0DF01282F1D922A95E9F7E3E088
:103F5000F2E0DF011D928A95E9F790E080E00E948F
:103F60001E25863E9E4F21F40E944D0E811168C091
:103F700066EE7EEF90E080E00E94522560E082E0F5
:103F800090E00E94342581E080930D0261E083E09F
:103F900090E00E94342560E074E184E090E00E94AB
:103FA000522560E086E090E00E94342560E087E0E2
:103FB00090E00E94342540E050E0BA0188E090E0B3
:103FC0000E94462560E084E290E00E94342560E093
:103FD00087E190E00E94342560E08CE090E00E9450
:103FE000342560E08DE090E00E94342519821A8229
:103FF0001B821C821D821E821F82188648E050E0B0
:1040000068E170E0CE0101960E94242540E050E076
:10401000BA0180E290E00E94462580E00E946F0D88
:104020000E943D0E40E050E0BA018FE090E00E9417
:10403000462540E050E0BA0183E190E00E94462529
:1040400082E090E00E9416258093430284E090E095
:104050000E941E2590934502809344020E942114E1
:10406000EFEFF6E721E0E150F0402040E1F700C03B
:1040700000000E94211480911E0280FF1AC06FEF81
:104080007FEF90E080E00E9452250E944B0D60E09F
:10409000812F0E94C806082F61E0812F0E94C80668
:1040A000E12FF0E0E65EFD4F880F802B80831F5FDD
:1040B00024CF83E090E00E9416250E94440A80E00D
:1040C00091E09093400280933F0255245394222420
:1040D000239480915B028530B9F48091430280FF84
:1040E00008C083E093E09F938F930E9475040F9024
:1040F0000F9000E112E180915B02853009F461C00C
:104100000E9462100E946B060E9421142FE0C22EB2
:1041100022E0D22EEEE1F2E0FCABEBAB49E152E063
:10412000DF01F601219131918D919D914E175F072D
:1041300009F482C028173907A9F38091430281FD51
:10414000C1C0912CABA9BCA90D911D91BCABABAB6F
:10415000F601A190B1906F01A016B10659F1812C22
:10416000EE24E394F12CA026B126C5018E219F21D7
:10417000892BB1F08DA69EA60E94150698AB8FA73D
:1041800029AA91E098012E213F21232B09F490E0E8
:104190009AAB4DA55EA56FA578A989A90E94881C38
:1041A0008394EE0CFF1CF0E18F12DFCFF601329703
:1041B00011830083939425E09212C4CF0E940906D4
:1041C00041C080915B02843021F11092460288E167
:1041D00090E0A0E40FB6F894A895809360000FBE1D
:1041E000A093600083B7817F846083BF83B78160C1
:1041F00083BF7894889583B78E7F83BF0FB6F8947A
:10420000A8958091600088618093600010926000A2
:104210000FBE80915A02882309F46DCF0E942114A9
:10422000EEE1F2E081919191892B09F03EC2B2E07A
:10423000E832FB07B9F75FCF2817390709F07DCFC0
:104240000E94131D80911C02882351F010921C02C1
:1042500080912A0280932B02809128028093290268
:10426000F12C80911B02F81608F474C090E04CEF1A
:10427000F42E53E0E52E6DEFD62E72E0C72E80911E
:104280002B0220912A02281709F42AC2E82FF0E015
:10429000E45DFD4F108117FB002700F91F778F5F4A
:1042A000837080932B02809129028F5F8093290273
:1042B00001118BC00E94150619A3FAA29CA38BA31F
:1042C000EDA28AC089E293E09F938F930E947504C8
:1042D0000F900F90AEE1EA2EA2E0FA2E10E000E07F
:1042E000B4E28B2EB3E09B2E81E2A82E83E0B82EA1
:1042F0009BE1692E93E0792E1F930F939F928F92EB
:104300000E947504BF92AF920E947504D7018C91F0
:1043100011963C90B2E0EB0EF11C0E94470A482E29
:10432000832D0E94470A4F928F937F926F920E9433
:104330007504E9E1F3E0FF93EF930E9475040F5FCA
:104340001F4F0FB6F894DEBF0FBECDBF053011056D
:1043500099F6F7CE61E08F2D0E94C806182F60E015
:104360008F2D0E94C806E12FEE0FE82B0F2D10E0D5
:10437000D801A65EBD4F9C91892F8370E81719F173
:10438000990F990FE92BEC93EF70F0E0E75AFE4F8D
:10439000075E1D4F8081D801EC90E80EEC92B3E0EF
:1043A00060E0BE1524F0EDEFEE1624F461E08F2DF1
:1043B0000E94E8068E2DEE0C990B64E070E00E94DE
:1043C000AA24D8018C93F3944CCF0E94150619A30C
:1043D000DAA29CA38BA3CDA25EA249A15AA16BA194
:1043E0007CA18DA19EA10E94881C002391F00E94B7
:1043F00015061FA3D8A69AA789A7CBA61CA64FA1CE
:1044000058A569A57AA58BA59CA50E94881C91E05A
:1044100036CF0E9415061FA3F8A69AA789A7EBA678
:10442000EDCF50923902BBC150923A02C0C15092B6
:104430003B02FEC150923C0203C200E210E0FE01CA
:1044400031967F018091E80085FD0AC08091E800E7
:104450008B778093E8000E94BC04882399F348C2BC
:104460008091F100D7018D937D010150110951F721
:104470003FC21A828CE08B831BC08A81823009F490
:104480004AC228F4813061F08FEF898311C08330F4
:10449000C1F08430C9F71B821C821D821E8208C0B5
:1044A0000E9409060E94C4246B837C838D839E83B3
:1044B00040E250E0BE016F5F7F4F82E00E94E70C58
:1044C00008CE2B81822F90E0FE013196225F85304D
:1044D000910570F7DC01AA0FBB1FA25EBD4F3C9196
:1044E00011964C9143833483019632962813EFCF73
:1044F000DFCF8A81823019F08530D1F2C5CF6B8150
:104500007C818D819E810E94C42488E290E00E947B
:104510003425CECF4C816B818A810E94990E9827D9
:10452000892798279E838D83C3CF2D813E81322793
:10453000232732274C816B818A810E94C40DB8CF1A
:104540000E94EA0DB5CF80E18A83B2CF5A8287E418
:1045500092CF0A811B81102701271027FE01319677
:104560006F01EC80CF018E0D911D7C01C801875435
:104570009D4FCE14DF0409F49BCF0734A1E01A0746
:1045800050F40E941625F60184830F5F1F4FBFEF82
:10459000CB1ADB0AEBCFD60114961C92F6CF0A8118
:1045A0001B81102701271027FE0131966F01EC8037
:1045B000E00EF12EF11CC80187549D4F0E151F050A
:1045C00009F476CF0734F1E01F0728F4D6011496DA
:1045D0006C910E943425BFEFCB1ADB0A0F5F1F4F8F
:1045E000EACF0E94890D64CF84E0AECF0A811B819F
:1045F000102701271027FE0131966F01EC80CF01B3
:104600008E0D911D7C01C8018996EC14FD0409F4FE
:104610004FCF0038A2E01A0750F40E941625F60189
:1046200084830F5F1F4FBFEFCB1ADB0AECCFD6019D
:1046300014961C92F6CF0A811B81102701271027A0
:10464000FE0131966F01EC80E00EF12EF11CC801E5
:104650008996E016F10609F42BCF0038F2E01F0727
:1046600028F4D60114966C910E943425BFEFCB1A22
:10467000DB0A0F5F1F4FEBCF41E08C81811101C03E
:1046800040E06B818A810E94660E49CF2D813E8178
:1046900032272327322741E08C81811101C040E07D
:1046A0006B818A810E94990D03CF09BD19BD09B4A0
:1046B00000FEFDCF8091D8008F7D8093D80080913F
:1046C000E00082608093E0008091E00081FDFCCFFB
:1046D0000E94621010CD822B892B09F4CEC0CBC072
:1046E00091110E94090686E0E7E3F2E0DE011196EF
:1046F00001900D928A95E1F7D0903802009139022D
:1047000010913A02E0903B02F0903C021092390284
:1047100010923A0210923B0210923C02812F802BA1
:1047200009F445C080913502909136020E94FA0545
:104730009C0190913202992309F4FBC02531310587
:10474000B0F19F3F19F09F5F90933202002359F020
:104750000E949A069FEF10160CF491E0899F802D1D
:10476000112480933902112359F00E949A0691E096
:1047700011160CF09FEF899F802D112480933A022F
:1047800080913902882399F0C0903A02CC2079F0C8
:104790000E94BA06882309F444CE809339028C2DF6
:1047A0000E94BA06882309F43FCE80933A028E2DE8
:1047B0008F2909F445C080913302909134020E9400
:1047C000FA059C0190913002992309F4ADC021357E
:1047D0003105B0F19F3F19F09F5F90933002EE20BA
:1047E00059F00E9478069FEF1E140CF491E0899F07
:1047F000802D112480933B02FF2059F00E947806FF
:1048000091E01F140CF09FEF899F802D112480935D
:104810003C0280913B02882399F0E0903C02EE201C
:1048200079F00E94BA06882309F401CE80933B02F6
:104830008E2D0E94BA06882309F4FCCD80933C0299
:1048400080913802D81217C080913902882311F064
:10485000081311C020913A02222311F012130BC049
:1048600090913C02992311F09F1105C030913B02B9
:10487000332309F430CF0E94E00A86E0FE0131962E
:10488000A7E3B2E001900D928A95E1F70E946B06D2
:10489000182F80911D021817A9F010931D020E9475
:1048A0000906809143028570853061F41F921F9341
:1048B00080E493E09F938F930E9475040F900F9074
:1048C0000F900F9080915B02843009F002CC83E05E
:1048D0008093E9008091E80082FFFBCB8091E800A3
:1048E00090E085FF06C00E94BC04882309F4A5CD92
:1048F00091E08091E8008B778093E800992309F498
:10490000E8CBE981E150E53108F0BECDF0E0EA54B2
:10491000FA4D0C94BE2488E290E00E9416251B827A
:104920001C821D828E83C4CD2B30310508F054CFFC
:1049300087CF2B30310508F006CF39CF991B79E0AE
:1049400004C0991F961708F0961B881F7A95C9F71F
:104950008095089597FB072E16F4009407D077FDF5
:1049600009D00E94022507FC05D03EF49095819560
:104970009F4F0895709561957F4F0895EE0FFF1F2B
:104980000590F491E02D09946927962769277827E7
:104990008727782708952F923F924F925F926F92C8
:1049A0007F928F929F92AF92BF92CF92DF92EF92BF
:1049B000FF920F931F93CF93DF93CDB7DEB7CA1B40
:1049C000DB0B0FB6F894DEBF0FBECDBF09942A886B
:1049D000398848885F846E847D848C849B84AA8413
:1049E000B984C884DF80EE80FD800C811B81AA81A0
:1049F000B981CE0FD11D0FB6F894DEBF0FBECDBF6B
:104A0000ED010895AA1BBB1B51E107C0AA1FBB1FE4
:104A1000A617B70710F0A61BB70B881F991F5A954A
:104A2000A9F780959095BC01CD010895F999FECF25
:104A300092BD81BDF89A992780B50895A8E1B0E0AC
:104A400042E050E00C945A25DC01A40FB51F415000
:104A5000504048F0CB01840F951F2E910E943525C0
:104A600041505040D0F70895262FF999FECF92BDBE
:104A700081BDF89A019700B4021639F01FBA20BD23
:104A80000FB6F894FA9AF99A0FBE08950396272F55
:104A90000E9435250E943425252F0E943525242F7C
:104AA0000C9435250196272F0E9435250C9434252A
:104AB000DC01CB01FC01F999FECF06C0F2BDE1BDDE
:104AC000F89A319600B40D9241505040B8F70895CD
:104AD000FB01DC0104C08D910190801921F441504B
:104AE0005040C8F7881B990B0895F894FFCF7411B4
:104AF0009C1145139C114513CF11F0114513EE1273
:104B0000FB12D016D416C516CC16D816DC16E01635
:104B100076187618B018B01860197A19D918D918FB
:104B20007F19EC19FD19FD191D1792172517EF169E
:104B3000F3162917F7162D17391703178B170717B1
:104B40003D170B17411769170F17451770171517E2
:104B50004B175317FB163117FF16351719174F1739
:104B60005F1779178917E9162117991739223D22FE
:104B700079228A229522A0224422442244224422DD
:104B80004422A322A622A922CF22F122F422F62235
:064B90001B233C23462319
:104B9600F705370D300D290D220D01818283E200C4
:104BA600E900EA00B500B600B700CD008301CC00ED
:104BB6008A0192019401210223022402250226027F
:104BC60027022A02B300B4006F0070009F01CB01D8
:104BD6009F02A002F5F4F1F092F6F76766363534D7
:104BE60037333231309596949700FF01000100006B
:104BF600FFFF0000010001FF004422B6159901776E
:0E4C060001C100AC008C06A506C506DE060046
:00000001FF
